{
  "contractName": "AllowedTokenSupplyStrategyRenderer",
  "abi": [
    {
      "constant": true,
      "inputs": [],
      "name": "ALLOWED_TOKENS",
      "outputs": [
        {
          "name": "",
          "type": "string"
        }
      ],
      "payable": false,
      "stateMutability": "view",
      "type": "function"
    },
    {
      "constant": true,
      "inputs": [],
      "name": "APPROVE_CONFIRM",
      "outputs": [
        {
          "name": "",
          "type": "string"
        }
      ],
      "payable": false,
      "stateMutability": "view",
      "type": "function"
    },
    {
      "constant": false,
      "inputs": [],
      "name": "renounceOwnership",
      "outputs": [],
      "payable": false,
      "stateMutability": "nonpayable",
      "type": "function"
    },
    {
      "constant": true,
      "inputs": [],
      "name": "ALLOWED_TOKENS_LONG_DESC",
      "outputs": [
        {
          "name": "",
          "type": "string"
        }
      ],
      "payable": false,
      "stateMutability": "view",
      "type": "function"
    },
    {
      "constant": true,
      "inputs": [],
      "name": "owner",
      "outputs": [
        {
          "name": "",
          "type": "address"
        }
      ],
      "payable": false,
      "stateMutability": "view",
      "type": "function"
    },
    {
      "constant": true,
      "inputs": [],
      "name": "APPROVE_SHORT_DESC",
      "outputs": [
        {
          "name": "",
          "type": "string"
        }
      ],
      "payable": false,
      "stateMutability": "view",
      "type": "function"
    },
    {
      "constant": true,
      "inputs": [],
      "name": "APPROVE",
      "outputs": [
        {
          "name": "",
          "type": "string"
        }
      ],
      "payable": false,
      "stateMutability": "view",
      "type": "function"
    },
    {
      "constant": true,
      "inputs": [],
      "name": "ADDRESS",
      "outputs": [
        {
          "name": "",
          "type": "string"
        }
      ],
      "payable": false,
      "stateMutability": "view",
      "type": "function"
    },
    {
      "constant": true,
      "inputs": [],
      "name": "AMOUNT",
      "outputs": [
        {
          "name": "",
          "type": "string"
        }
      ],
      "payable": false,
      "stateMutability": "view",
      "type": "function"
    },
    {
      "constant": false,
      "inputs": [
        {
          "name": "locale",
          "type": "string"
        },
        {
          "name": "key",
          "type": "string"
        },
        {
          "name": "value",
          "type": "string"
        }
      ],
      "name": "setResource",
      "outputs": [],
      "payable": false,
      "stateMutability": "nonpayable",
      "type": "function"
    },
    {
      "constant": false,
      "inputs": [
        {
          "name": "_newOwner",
          "type": "address"
        }
      ],
      "name": "transferOwnership",
      "outputs": [],
      "payable": false,
      "stateMutability": "nonpayable",
      "type": "function"
    },
    {
      "constant": true,
      "inputs": [
        {
          "name": "locale",
          "type": "string"
        },
        {
          "name": "key",
          "type": "string"
        }
      ],
      "name": "resource",
      "outputs": [
        {
          "name": "",
          "type": "string"
        }
      ],
      "payable": false,
      "stateMutability": "view",
      "type": "function"
    },
    {
      "constant": true,
      "inputs": [],
      "name": "APPROVE_LONG_DESC",
      "outputs": [
        {
          "name": "",
          "type": "string"
        }
      ],
      "payable": false,
      "stateMutability": "view",
      "type": "function"
    },
    {
      "constant": true,
      "inputs": [],
      "name": "ALLOWED_TOKENS_SHORT_DESC",
      "outputs": [
        {
          "name": "",
          "type": "string"
        }
      ],
      "payable": false,
      "stateMutability": "view",
      "type": "function"
    },
    {
      "anonymous": false,
      "inputs": [
        {
          "indexed": true,
          "name": "previousOwner",
          "type": "address"
        }
      ],
      "name": "OwnershipRenounced",
      "type": "event"
    },
    {
      "anonymous": false,
      "inputs": [
        {
          "indexed": true,
          "name": "previousOwner",
          "type": "address"
        },
        {
          "indexed": true,
          "name": "newOwner",
          "type": "address"
        }
      ],
      "name": "OwnershipTransferred",
      "type": "event"
    },
    {
      "constant": true,
      "inputs": [
        {
          "name": "_locale",
          "type": "string"
        },
        {
          "name": "_strategy",
          "type": "address"
        }
      ],
      "name": "adminWidgets",
      "outputs": [
        {
          "name": "",
          "type": "string"
        }
      ],
      "payable": false,
      "stateMutability": "view",
      "type": "function"
    },
    {
      "constant": true,
      "inputs": [
        {
          "name": "_locale",
          "type": "string"
        },
        {
          "name": "_strategy",
          "type": "address"
        }
      ],
      "name": "userWidgets",
      "outputs": [
        {
          "name": "json",
          "type": "string"
        }
      ],
      "payable": false,
      "stateMutability": "view",
      "type": "function"
    },
    {
      "constant": true,
      "inputs": [
        {
          "name": "_locale",
          "type": "string"
        },
        {
          "name": "_strategy",
          "type": "address"
        }
      ],
      "name": "inputs",
      "outputs": [
        {
          "name": "",
          "type": "string"
        }
      ],
      "payable": false,
      "stateMutability": "view",
      "type": "function"
    }
  ],
  "bytecode": "0x608060405260008054600160a060020a03191633179055613830806100256000396000f3006080604052600436106100d75763ffffffff60e060020a600035041663492c060481146100dc57806356ca2fdf14610166578063715018a61461017b5780638949fc5b146101925780638da5cb5b146101a75780638fae9730146101d8578063a59de994146101ed578063b51ce63d14610202578063bf3bed5414610217578063d17891761461027b578063e77cee3d14610217578063e949955514610290578063ed3487fe146102f4578063f2fde38b146103c9578063f65a5c1b146103ea578063fa9c41ea14610481578063feba6be914610496575b600080fd5b3480156100e857600080fd5b506100f16104ab565b6040805160208082528351818301528351919283929083019185019080838360005b8381101561012b578181015183820152602001610113565b50505050905090810190601f1680156101585780820380516001836020036101000a031916815260200191505b509250505060405180910390f35b34801561017257600080fd5b506100f16104d0565b34801561018757600080fd5b50610190610507565b005b34801561019e57600080fd5b506100f1610573565b3480156101b357600080fd5b506101bc6105aa565b60408051600160a060020a039092168252519081900360200190f35b3480156101e457600080fd5b506100f16105b9565b3480156101f957600080fd5b506100f16105f0565b34801561020e57600080fd5b506100f1610615565b34801561022357600080fd5b506040805160206004803580820135601f81018490048402850184019095528484526100f194369492936024939284019190819084018382808284375094975050509235600160a060020a0316935061064c92505050565b34801561028757600080fd5b506100f1610685565b34801561029c57600080fd5b506040805160206004803580820135601f81018490048402850184019095528484526100f194369492936024939284019190819084018382808284375094975050509235600160a060020a031693506106bc92505050565b34801561030057600080fd5b506040805160206004803580820135601f810184900484028501840190955284845261019094369492936024939284019190819084018382808284375050604080516020601f89358b018035918201839004830284018301909452808352979a99988101979196509182019450925082915084018382808284375050604080516020601f89358b018035918201839004830284018301909452808352979a9998810197919650918201945092508291508401838280828437509497506108129650505050505050565b3480156103d557600080fd5b50610190600160a060020a03600435166108ff565b3480156103f657600080fd5b506040805160206004803580820135601f81018490048402850184019095528484526100f194369492936024939284019190819084018382808284375050604080516020601f89358b018035918201839004830284018301909452808352979a9998810197919650918201945092508291508401838280828437509497506109229650505050505050565b34801561048d57600080fd5b506100f1610a73565b3480156104a257600080fd5b506100f1610aaa565b60408051808201909152600e81526000805160206137c5833981519152602082015281565b60408051808201909152600f81527f617070726f76655f636f6e6669726d0000000000000000000000000000000000602082015281565b600054600160a060020a0316331461051e57600080fd5b60008054604051600160a060020a03909116917ff8df31144d9c2f0f6b59d69b8b98abd5459d07f2742c4df920b25aae33c6482091a26000805473ffffffffffffffffffffffffffffffffffffffff19169055565b60408051808201909152601881527f616c6c6f7765645f746f6b656e735f6c6f6e675f646573630000000000000000602082015281565b600054600160a060020a031681565b60408051808201909152601281527f617070726f76655f73686f72745f646573630000000000000000000000000000602082015281565b60408051808201909152600781526000805160206137e5833981519152602082015281565b60408051808201909152600781527f6164647265737300000000000000000000000000000000000000000000000000602082015281565b505060408051808201909152600281527f5b5d000000000000000000000000000000000000000000000000000000000000602082015290565b60408051808201909152600681527f616d6f756e740000000000000000000000000000000000000000000000000000602082015281565b60608060006106c96135ee565b600060606040805190810160405280600181526020017f5b00000000000000000000000000000000000000000000000000000000000000815250945060009350604080519081016040528061071e8a8a610ae1565b815260200161072d8a8a6115dd565b90529250600091505b60028210156107c55782826002811061074b57fe5b602002015190506000815111156107ba5760008411156107a5576107a261078d60408051908101604052806001815260200160fa60020a600b02815250612603565b61079687612603565b9063ffffffff61262c16565b94505b6107b161078d82612603565b94506001909301925b600190910190610736565b61080661078d6040805190810160405280600181526020017f5d00000000000000000000000000000000000000000000000000000000000000815250612603565b98975050505050505050565b600054600160a060020a0316331461082957600080fd5b806001846040518082805190602001908083835b6020831061085c5780518252601f19909201916020918201910161083d565b51815160209384036101000a6000190180199092169116179052920194855250604051938490038101842087519094889450925082918401908083835b602083106108b85780518252601f199092019160209182019101610899565b51815160209384036101000a600019018019909216911617905292019485525060405193849003810190932084516108f99591949190910192509050613615565b50505050565b600054600160a060020a0316331461091657600080fd5b61091f816126a3565b50565b60606001836040518082805190602001908083835b602083106109565780518252601f199092019160209182019101610937565b51815160209384036101000a6000190180199092169116179052920194855250604051938490038101842086519094879450925082918401908083835b602083106109b25780518252601f199092019160209182019101610993565b518151600019602094850361010090810a820192831692199390931691909117909252949092019687526040805197889003820188208054601f6002600183161590980290950116959095049283018290048202880182019052818752929450925050830182828015610a665780601f10610a3b57610100808354040283529160200191610a66565b820191906000526020600020905b815481529060010190602001808311610a4957829003601f168201915b5050505050905092915050565b60408051808201909152601181527f617070726f76655f6c6f6e675f64657363000000000000000000000000000000602082015281565b60408051808201909152601981527f616c6c6f7765645f746f6b656e735f73686f72745f6465736300000000000000602082015281565b6060806000806000610af1613693565b60408051600180825281830190925290816020015b610b0e6136c3565b815260200190600190039081610b0657905050945086600160a060020a0316636ad1fe026040518163ffffffff1660e060020a028152600401602060405180830381600087803b158015610b6157600080fd5b505af1158015610b75573d6000803e3d6000fd5b505050506040513d6020811015610b8b57600080fd5b50516040805160e160020a637e062a350281529051600160a060020a039092169163fc0c546a916004808201926020929091908290030181600087803b158015610bd457600080fd5b505af1158015610be8573d6000803e3d6000fd5b505050506040513d6020811015610bfe57600080fd5b5051604080517f6ad1fe020000000000000000000000000000000000000000000000000000000081529051600160a060020a039283169263dd62ed3e92908b1691636ad1fe02916004808201926020929091908290030181600087803b158015610c6757600080fd5b505af1158015610c7b573d6000803e3d6000fd5b505050506040513d6020811015610c9157600080fd5b5051604080517f8da5cb5b0000000000000000000000000000000000000000000000000000000081529051600160a060020a0390921691638da5cb5b916004808201926020929091908290030181600087803b158015610cf057600080fd5b505af1158015610d04573d6000803e3d6000fd5b505050506040513d6020811015610d1a57600080fd5b50516040805160e060020a63ffffffff8516028152600160a060020a039283166004820152918b1660248301525160448083019260209291908290030181600087803b158015610d6957600080fd5b505af1158015610d7d573d6000803e3d6000fd5b505050506040513d6020811015610d9357600080fd5b5051604080517f6ad1fe020000000000000000000000000000000000000000000000000000000081529051919550600160a060020a03891691636ad1fe02916004808201926020929091908290030181600087803b158015610df457600080fd5b505af1158015610e08573d6000803e3d6000fd5b505050506040513d6020811015610e1e57600080fd5b50516040805160e160020a637e062a350281529051600160a060020a039092169163fc0c546a916004808201926020929091908290030181600087803b158015610e6757600080fd5b505af1158015610e7b573d6000803e3d6000fd5b505050506040513d6020811015610e9157600080fd5b5051604080517f313ce5670000000000000000000000000000000000000000000000000000000081529051919450600160a060020a0385169163313ce567916004808201926020929091908290030181600087803b158015610ef257600080fd5b505af1158015610f06573d6000803e3d6000fd5b505050506040513d6020811015610f1c57600080fd5b50516040805160e0810182526001815281518083018352600e81526000805160206137c583398151915260208281019190915282015260ff90921693508101610fad610f6f610f6a86612720565b612603565b6107966040805190810160405280600581526020017f746f6b656e000000000000000000000000000000000000000000000000000000815250612603565b815260200160018a6040518082805190602001908083835b60208310610fe45780518252601f199092019160209182019101610fc5565b51815160209384036101000a60001901801990921691161790529201948552506040805194859003820185208582018252600e8087526000805160206137c583398151915293870193845291519095945092508291908083835b6020831061105d5780518252601f19909201916020918201910161103e565b518151600019602094850361010090810a820192831692199390931691909117909252949092019687526040805197889003820188208054601f60026001831615909802909501169590950492830182900482028801820190528187529294509250508301828280156111115780601f106110e657610100808354040283529160200191611111565b820191906000526020600020905b8154815290600101906020018083116110f457829003601f168201915b5050505050815260200161112486612720565b815260200161113161287f565b815260200161113e6128d2565b905285518690600090811061114f57fe5b9060200190602002018190525060a06040519081016040528060018a6040518082805190602001908083835b6020831061119a5780518252601f19909201916020918201910161117b565b51815160209384036101000a60001901801990921691161790529201948552506040805194859003820185208582018252600e8087526000805160206137c583398151915293870193845291519095945092508291908083835b602083106112135780518252601f1990920191602091820191016111f4565b518151600019602094850361010090810a820192831692199390931691909117909252949092019687526040805197889003820188208054601f60026001831615909802909501169590950492830182900482028801820190528187529294509250508301828280156112c75780601f1061129c576101008083540402835291602001916112c7565b820191906000526020600020905b8154815290600101906020018083116112aa57829003601f168201915b5050505050815260200160018a6040518082805190602001908083835b602083106113035780518252601f1990920191602091820191016112e4565b51815160209384036101000a6000190180199092169116179052920194855250604080519485900382018520858201825260198087527f616c6c6f7765645f746f6b656e735f73686f72745f646573630000000000000093870193845291519095945092508291908083835b6020831061138e5780518252601f19909201916020918201910161136f565b518151600019602094850361010090810a820192831692199390931691909117909252949092019687526040805197889003820188208054601f60026001831615909802909501169590950492830182900482028801820190528187529294509250508301828280156114425780601f1061141757610100808354040283529160200191611442565b820191906000526020600020905b81548152906001019060200180831161142557829003601f168201915b5050505050815260200160018a6040518082805190602001908083835b6020831061147e5780518252601f19909201916020918201910161145f565b51815160209384036101000a6000190180199092169116179052920194855250604080519485900382018520858201825260188087527f616c6c6f7765645f746f6b656e735f6c6f6e675f64657363000000000000000093870193845291519095945092508291908083835b602083106115095780518252601f1990920191602091820191016114ea565b518151600019602094850361010090810a820192831692199390931691909117909252949092019687526040805197889003820188208054601f60026001831615909802909501169590950492830182900482028801820190528187529294509250508301828280156115bd5780601f10611592576101008083540402835291602001916115bd565b820191906000526020600020905b8154815290600101906020018083116115a057829003601f168201915b50505050508152602001600481526020018681525090506108068161295f565b6060806000806115eb613693565b6040805160038082526080820190925290816020015b6116096136c3565b81526020019060019003908161160157905050935085600160a060020a0316636ad1fe026040518163ffffffff1660e060020a028152600401602060405180830381600087803b15801561165c57600080fd5b505af1158015611670573d6000803e3d6000fd5b505050506040513d602081101561168657600080fd5b50516040805160e160020a637e062a350281529051600160a060020a039092169163fc0c546a916004808201926020929091908290030181600087803b1580156116cf57600080fd5b505af11580156116e3573d6000803e3d6000fd5b505050506040513d60208110156116f957600080fd5b5051604080517f313ce5670000000000000000000000000000000000000000000000000000000081529051919450600160a060020a0385169163313ce567916004808201926020929091908290030181600087803b15801561175a57600080fd5b505af115801561176e573d6000803e3d6000fd5b505050506040513d602081101561178457600080fd5b50516040805160e08101825260018082528251808401845260078082527f616464726573730000000000000000000000000000000000000000000000000060208381018290528581019390935285518087018752918252818301528385015292518b5160ff90951696509193606085019391928c92909182918401908083835b602083106118235780518252601f199092019160209182019101611804565b51815160209384036101000a6000190180199092169116179052920194855250604080519485900382018520858201825260078087527f616464726573730000000000000000000000000000000000000000000000000093870193845291519095945092508291908083835b602083106118ae5780518252601f19909201916020918201910161188f565b518151600019602094850361010090810a820192831692199390931691909117909252949092019687526040805197889003820188208054601f60026001831615909802909501169590950492830182900482028801820190528187529294509250508301828280156119625780601f1061193757610100808354040283529160200191611962565b820191906000526020600020905b81548152906001019060200180831161194557829003601f168201915b5050505050815260200161198661198189600160a060020a0316612bbc565b612cff565b815260200161199361287f565b81526020016119a06128d2565b90528451859060009081106119b157fe5b60209081029091018101919091526040805160e0810182526001815281518083018352600681527f616d6f756e74000000000000000000000000000000000000000000000000000081850152928101929092528101611a53611a15610f6a86612720565b6107966040805190810160405280600981526020017f746f6b656e456469740000000000000000000000000000000000000000000000815250612603565b81526020016001896040518082805190602001908083835b60208310611a8a5780518252601f199092019160209182019101611a6b565b51815160209384036101000a6000190180199092169116179052920194855250604080519485900382018520858201825260068087527f616d6f756e74000000000000000000000000000000000000000000000000000093870193845291519095945092508291908083835b60208310611b155780518252601f199092019160209182019101611af6565b518151600019602094850361010090810a820192831692199390931691909117909252949092019687526040805197889003820188208054601f6002600183161590980290950116959095049283018290048202880182019052818752929450925050830182828015611bc95780601f10611b9e57610100808354040283529160200191611bc9565b820191906000526020600020905b815481529060010190602001808311611bac57829003601f168201915b505050505081526020016040805190810160405280600181526020017f30000000000000000000000000000000000000000000000000000000000000008152508152602001611c1661287f565b8152602001611c236128d2565b9052845185906001908110611c3457fe5b9060200190602002018190525060e0604051908101604052806001151581526020016040805190810160405280600781526020016000805160206137e583398151915281525081526020016040805190810160405280600681526020017f627574746f6e000000000000000000000000000000000000000000000000000081525081526020016001896040518082805190602001908083835b60208310611cec5780518252601f199092019160209182019101611ccd565b51815160209384036101000a6000190180199092169116179052920194855250604080519485900382018520858201825260078087526000805160206137e583398151915293870193845291519095945092508291908083835b60208310611d655780518252601f199092019160209182019101611d46565b518151600019602094850361010090810a820192831692199390931691909117909252949092019687526040805197889003820188208054601f6002600183161590980290950116959095049283018290048202880182019052818752929450925050830182828015611e195780601f10611dee57610100808354040283529160200191611e19565b820191906000526020600020905b815481529060010190602001808311611dfc57829003601f168201915b505050505081526020016040805190810160405280600481526020017f6e756c6c00000000000000000000000000000000000000000000000000000000815250815260200160a06040519081016040528060011515815260200189600160a060020a0316636ad1fe026040518163ffffffff1660e060020a028152600401602060405180830381600087803b158015611eb157600080fd5b505af1158015611ec5573d6000803e3d6000fd5b505050506040513d6020811015611edb57600080fd5b50516040805160e160020a637e062a350281529051600160a060020a039092169163fc0c546a916004808201926020929091908290030181600087803b158015611f2457600080fd5b505af1158015611f38573d6000803e3d6000fd5b505050506040513d6020811015611f4e57600080fd5b5051600160a060020a03168152604080518082018252601881527f617070726f766528616464726573732c75696e743235362900000000000000006020828101919091528381019190915281518083018352601481527f5b2261646472657373222c22616d6f756e74225d000000000000000000000000818301528284015290518c516060909301926001928e929182918401908083835b602083106120055780518252601f199092019160209182019101611fe6565b51815160209384036101000a60001901801990921691161790529201948552506040805194859003820185208582018252600f8087527f617070726f76655f636f6e6669726d000000000000000000000000000000000093870193845291519095945092508291908083835b602083106120905780518252601f199092019160209182019101612071565b518151600019602094850361010090810a820192831692199390931691909117909252949092019687526040805197889003820188208054601f60026001831615909802909501169590950492830182900482028801820190528187529294509250508301828280156121445780601f1061211957610100808354040283529160200191612144565b820191906000526020600020905b81548152906001019060200180831161212757829003601f168201915b505050505081525081526020016121596128d2565b905284518590600290811061216a57fe5b9060200190602002018190525060a0604051908101604052806001896040518082805190602001908083835b602083106121b55780518252601f199092019160209182019101612196565b51815160209384036101000a6000190180199092169116179052920194855250604080519485900382018520858201825260078087526000805160206137e583398151915293870193845291519095945092508291908083835b6020831061222e5780518252601f19909201916020918201910161220f565b518151600019602094850361010090810a820192831692199390931691909117909252949092019687526040805197889003820188208054601f60026001831615909802909501169590950492830182900482028801820190528187529294509250508301828280156122e25780601f106122b7576101008083540402835291602001916122e2565b820191906000526020600020905b8154815290600101906020018083116122c557829003601f168201915b505050505081526020016001896040518082805190602001908083835b6020831061231e5780518252601f1990920191602091820191016122ff565b51815160209384036101000a6000190180199092169116179052920194855250604080519485900382018520858201825260128087527f617070726f76655f73686f72745f64657363000000000000000000000000000093870193845291519095945092508291908083835b602083106123a95780518252601f19909201916020918201910161238a565b518151600019602094850361010090810a820192831692199390931691909117909252949092019687526040805197889003820188208054601f600260018316159098029095011695909504928301829004820288018201905281875292945092505083018282801561245d5780601f106124325761010080835404028352916020019161245d565b820191906000526020600020905b81548152906001019060200180831161244057829003601f168201915b505050505081526020016001896040518082805190602001908083835b602083106124995780518252601f19909201916020918201910161247a565b51815160209384036101000a6000190180199092169116179052920194855250604080519485900382018520858201825260118087527f617070726f76655f6c6f6e675f6465736300000000000000000000000000000093870193845291519095945092508291908083835b602083106125245780518252601f199092019160209182019101612505565b518151600019602094850361010090810a820192831692199390931691909117909252949092019687526040805197889003820188208054601f60026001831615909802909501169590950492830182900482028801820190528187529294509250508301828280156125d85780601f106125ad576101008083540402835291602001916125d8565b820191906000526020600020905b8154815290600101906020018083116125bb57829003601f168201915b50505050508152602001600481526020018581525090506125f88161295f565b979650505050505050565b61260b61370f565b50604080518082019091528151815260208281019082018190525b50919050565b606080600083600001518560000151016040519080825280601f01601f191660200182016040528015612669578160200160208202803883390190505b5091506020820190506126858186602001518760000151612d63565b84516020850151855161269b9284019190612d63565b509392505050565b600160a060020a03811615156126b857600080fd5b60008054604051600160a060020a03808516939216917f8be0079c531659141344cd1fd0a4f28419497f9722a3daafe3b4186f6b6457e091a36000805473ffffffffffffffffffffffffffffffffffffffff1916600160a060020a0392909216919091179055565b606080600081818515156127695760408051808201909152600181527f300000000000000000000000000000000000000000000000000000000000000060208201529450612876565b6040805160208082528183019092529080820161040080388339019050509350600092505b60008611156127db57600a860660300160f860020a0284848151811015156127b257fe5b906020010190600160f860020a031916908160001a905350600a8604955060019092019161278e565b60408051848152601f19601f8601168101602001909152600019840193801561280e578160200160208202803883390190505b509150600090505b81518110156128725783516000198401938591811061283157fe5b90602001015160f860020a900460f860020a02828281518110151561285257fe5b906020010190600160f860020a031916908160001a905350600101612816565b8194505b50505050919050565b612887613726565b506040805160a0810182526000808252602080830182905283518082018552828152838501528351808201855282815260608401528351908101909352825260808101919091525b90565b6128da613753565b6040805160608101825260008082528251818152602081810190945291928301919061291c565b612909613777565b8152602001906001900390816129015790505b508152602001600060405190808252806020026020018201604052801561295757816020015b60608152602001906001900390816129425790505b509052905090565b60408051808201909152600a81527f7b227469746c65223a220000000000000000000000000000000000000000000060208201528151606091906000906129b2906129a990612603565b61079684612603565b91506129f56129a96040805190810160405280600f81526020017f222c2273686f727444657363223a220000000000000000000000000000000000815250612603565b9150612a076129a98560200151612603565b9150612a4a6129a96040805190810160405280600e81526020017f222c226c6f6e6744657363223a22000000000000000000000000000000000000815250612603565b9150612a5c6129a98560400151612603565b9150612a9f6129a96040805190810160405280600a81526020017f222c227769647468223a00000000000000000000000000000000000000000000815250612603565b9150612ab46129a9610f6a8660600151612720565b9150612af76129a96040805190810160405280600d81526020017f2c22656c656d656e7473223a5b00000000000000000000000000000000000000815250612603565b9150600090505b836080015151811015612b73576000811115612b3f57612b3c6129a960408051908101604052806001815260200160fa60020a600b02815250612603565b91505b612b696129a9610f6a866080015184815181101515612b5a57fe5b90602001906020020151612da7565b9150600101612afe565b612bb46129a96040805190810160405280600281526020017f5d7d000000000000000000000000000000000000000000000000000000000000815250612603565b949350505050565b60408051602a80825260608083019093528291600091829182916020820161054080388339505081519195507f3000000000000000000000000000000000000000000000000000000000000000918691506000908110612c1857fe5b906020010190600160f860020a031916908160001a90535083517f78000000000000000000000000000000000000000000000000000000000000009085906001908110612c6157fe5b906020010190600160f860020a031916908160001a905350859250600091505b6028821015612cf557506030600f8316016039600160a060020a0382161115612ca8576027015b8060f860020a028483602803600101815181101515612cc357fe5b906020010190600160f860020a031916908160001a9053506010600160a060020a038416049250600190910190612c81565b5091949350505050565b6060612d5d612d2960408051908101604052806001815260200160f960020a601102815250612603565b610796610f6a612d3886612603565b61079660408051908101604052806001815260200160f960020a601102815250612603565b92915050565b60005b60208210612d88578251845260209384019390920191601f1990910190612d66565b50905182516020929092036101000a6000190180199091169116179052565b606080826000015115613041576040805190810160405280600781526020017f7b226964223a22000000000000000000000000000000000000000000000000008152509050612e05612dfc8460200151612603565b61079683612603565b9050612e2f612dfc60408051908101604052806001815260200160f960020a601102815250612603565b60a08401515190915015612e9657612e7e612dfc6040805190810160405280600b81526020017f2c2022616374696f6e223a000000000000000000000000000000000000000000815250612603565b9050612e93612dfc610f6a8560a0015161307c565b90505b60c08301515115612efa57612ee2612dfc6040805190810160405280600a81526020017f2c20227461626c65223a00000000000000000000000000000000000000000000815250612603565b9050612ef7612dfc610f6a8560c0015161321f565b90505b612f3b612dfc6040805190810160405280600981526020017f2c2274797065223a220000000000000000000000000000000000000000000000815250612603565b9050612f4d612dfc8460400151612603565b9050612f90612dfc6040805190810160405280600b81526020017f222c226c6162656c223a22000000000000000000000000000000000000000000815250612603565b9050612fa2612dfc8460600151612603565b9050612fe5612dfc6040805190810160405280600981526020017f222c2264617461223a0000000000000000000000000000000000000000000000815250612603565b9050612ff7612dfc8460800151612603565b905061303a612dfc6040805190810160405280600181526020017f7d00000000000000000000000000000000000000000000000000000000000000815250612603565b9150612626565b60408051808201909152600481527f6e756c6c0000000000000000000000000000000000000000000000000000000060208201529150612626565b606080826000015115613041576040805190810160405280600c81526020017f7b2261646472657373223a22000000000000000000000000000000000000000081525090506130dd612dfc610f6a8560200151600160a060020a0316612bbc565b9050613120612dfc6040805190810160405280601681526020017f222c2266756e6374696f6e53656c6563746f72223a2200000000000000000000815250612603565b9050613132612dfc8460400151612603565b9050613175612dfc6040805190810160405280600e81526020017f222c22617267756d656e7473223a000000000000000000000000000000000000815250612603565b9050613187612dfc8460600151612603565b90506131ca612dfc6040805190810160405280600c81526020017f2c22636f6e6669726d223a220000000000000000000000000000000000000000815250612603565b90506131dc612dfc8460800151612603565b905061303a612dfc6040805190810160405280600281526020017f227d000000000000000000000000000000000000000000000000000000000000815250612603565b6060806000808460000151156133f757505060408051808201909152600c81527f7b22636f6c756d6e73223a5b0000000000000000000000000000000000000000602082015290506000805b8460200151518110156132ed5760008211156132b5576132b26132a960408051908101604052806001815260200160fa60020a600b02815250612603565b61079685612603565b92505b6132df6132a9610f6a8760200151848151811015156132d057fe5b90602001906020020151613436565b92506001918201910161326b565b61332e6132a96040805190810160405280600a81526020017f5d2c22726f7773223a5b00000000000000000000000000000000000000000000815250612603565b925060009150600090505b8460400151518110156133af57600082111561337a576133776132a960408051908101604052806001815260200160fa60020a600b02815250612603565b92505b6133a16132a986604001518381518110151561339257fe5b90602001906020020151612603565b925060019182019101613339565b6133f06132a96040805190810160405280600281526020017f5d7d000000000000000000000000000000000000000000000000000000000000815250612603565b935061342e565b60408051808201909152600481527f6e756c6c00000000000000000000000000000000000000000000000000000000602082015293505b505050919050565b606080826000015115613041576040805190810160405280600781526020017f7b226964223a2200000000000000000000000000000000000000000000000000815250905061348b612dfc8460200151612603565b90506134b5612dfc60408051908101604052806001815260200160f960020a601102815250612603565b60808401515190915015613546576134eb612dfc60408051908101604052806001815260200160fa60020a600b02815250612603565b905061352e612dfc6040805190810160405280600981526020017f22616374696f6e223a0000000000000000000000000000000000000000000000815250612603565b9050613543612dfc610f6a856080015161307c565b90505b613587612dfc6040805190810160405280600981526020017f2c2274797065223a220000000000000000000000000000000000000000000000815250612603565b9050613599612dfc8460400151612603565b90506135dc612dfc6040805190810160405280600b81526020017f222c226c6162656c223a22000000000000000000000000000000000000000000815250612603565b90506131dc612dfc8460600151612603565b60408051908101604052806002905b60608152602001906001900390816135fd5790505090565b828054600181600116156101000203166002900490600052602060002090601f016020900481019282601f1061365657805160ff1916838001178555613683565b82800160010185558215613683579182015b82811115613683578251825591602001919060010190613668565b5061368f9291506137aa565b5090565b60a06040519081016040528060608152602001606081526020016060815260200160008152602001606081525090565b6101a060405190810160405280600015158152602001606081526020016060815260200160608152602001606081526020016136fd613726565b815260200161370a613753565b905290565b604080518082019091526000808252602082015290565b6040805160a081018252600080825260208201526060918101829052818101829052608081019190915290565b60606040519081016040528060001515815260200160608152602001606081525090565b6101206040519081016040528060001515815260200160608152602001606081526020016060815260200161370a613726565b6128cf91905b8082111561368f57600081556001016137b05600616c6c6f7765645f746f6b656e73000000000000000000000000000000000000617070726f766500000000000000000000000000000000000000000000000000a165627a7a7230582056ce91f9528d345a6211a1fdc7fe5205b4a5a2e5e235ded8b203c42c086cd8f60029",
  "source": "pragma solidity ^0.4.24;\n\nimport \"zeppelin-solidity/contracts/token/ERC20/DetailedERC20.sol\";\nimport \"tokenboost-solidity/contracts/widget/Localizable.sol\";\nimport \"tokenboost-solidity/contracts/widget/Widgets.sol\";\nimport \"tokenboost-solidity/contracts/utils/StringUtils.sol\";\nimport \"../AllowedTokenSupplyStrategy.sol\";\n\ncontract AllowedTokenSupplyStrategyRenderer is Localizable {\n    using Widgets for Widgets.Widget;\n    using Elements for Elements.Element;\n    using strings for *;\n    using UintUtils for uint;\n    using AddressUtils for address;\n    using StringUtils for string;\n\n    string public constant ALLOWED_TOKENS = \"allowed_tokens\";\n    string public constant ALLOWED_TOKENS_SHORT_DESC = \"allowed_tokens_short_desc\";\n    string public constant ALLOWED_TOKENS_LONG_DESC = \"allowed_tokens_long_desc\";\n    string public constant APPROVE = \"approve\";\n    string public constant APPROVE_SHORT_DESC = \"approve_short_desc\";\n    string public constant APPROVE_LONG_DESC = \"approve_long_desc\";\n    string public constant ADDRESS = \"address\";\n    string public constant AMOUNT = \"amount\";\n    string public constant APPROVE_CONFIRM = \"approve_confirm\";\n\n    function adminWidgets(string _locale, AllowedTokenSupplyStrategy _strategy) public view returns (string) {\n        string memory json = \"[\";\n        uint length = 0;\n        string[2] memory widgets = [\n        _allowedTokensWidget(_locale, _strategy),\n        _approveWidget(_locale, _strategy)\n        ];\n        for (uint i = 0; i < widgets.length; i++) {\n            string memory widget = widgets[i];\n            if (bytes(widget).length > 0) {\n                if (length > 0) {\n                    json = json.toSlice().concat(\",\".toSlice());\n                }\n                json = json.toSlice().concat(widget.toSlice());\n                length++;\n            }\n        }\n        return json.toSlice().concat(\"]\".toSlice());\n    }\n\n    function _allowedTokensWidget(string _locale, AllowedTokenSupplyStrategy _strategy) private view returns (string json) {\n        Elements.Element[] memory elements = new Elements.Element[](1);\n        uint256 allowedTokens = _strategy.sale().token().allowance(_strategy.sale().owner(), address(_strategy));\n        DetailedERC20 erc20 = DetailedERC20(_strategy.sale().token());\n        uint256 decimals = uint256(erc20.decimals());\n        elements[0] = Elements.Element(\n            true,\n            ALLOWED_TOKENS,\n            \"token\".toSlice().concat(decimals.toString().toSlice()),\n            resources[_locale][ALLOWED_TOKENS],\n            allowedTokens.toString(),\n            Actions.empty(),\n            Tables.empty()\n        );\n        Widgets.Widget memory widget = Widgets.Widget(\n            resources[_locale][ALLOWED_TOKENS],\n            resources[_locale][ALLOWED_TOKENS_SHORT_DESC],\n            resources[_locale][ALLOWED_TOKENS_LONG_DESC],\n            4,\n            elements\n        );\n        return widget.toJson();\n    }\n\n    function _approveWidget(string _locale, AllowedTokenSupplyStrategy _strategy) private view returns (string json) {\n        Elements.Element[] memory elements = new Elements.Element[](3);\n        DetailedERC20 erc20 = DetailedERC20(_strategy.sale().token());\n        uint256 decimals = uint256(erc20.decimals());\n        elements[0] = Elements.Element(\n            true,\n            ADDRESS,\n            \"address\",\n            resources[_locale][ADDRESS],\n            address(_strategy).toString().quoted(),\n            Actions.empty(),\n            Tables.empty()\n        );\n        elements[1] = Elements.Element(\n            true,\n            AMOUNT,\n            \"tokenEdit\".toSlice().concat(decimals.toString().toSlice()),\n            resources[_locale][AMOUNT],\n            \"0\",\n            Actions.empty(),\n            Tables.empty()\n        );\n        elements[2] = Elements.Element(\n            true,\n            APPROVE,\n            \"button\",\n            resources[_locale][APPROVE],\n            \"null\",\n            Actions.Action(\n                true,\n                address(_strategy.sale().token()),\n                \"approve(address,uint256)\",\n                '[\"address\",\"amount\"]',\n                resources[_locale][APPROVE_CONFIRM]\n            ),\n            Tables.empty()\n        );\n        Widgets.Widget memory widget = Widgets.Widget(\n            resources[_locale][APPROVE],\n            resources[_locale][APPROVE_SHORT_DESC],\n            resources[_locale][APPROVE_LONG_DESC],\n            4,\n            elements\n        );\n        return widget.toJson();\n    }\n\n    function userWidgets(string _locale, AllowedTokenSupplyStrategy _strategy) public view returns (string json) {\n        return \"[]\";\n    }\n\n    function inputs(string _locale, AllowedTokenSupplyStrategy _strategy) public view returns (string) {\n        return \"[]\";\n    }\n}\n",
  "sourcePath": "/Users/yoonjae/SolidityProjects/tokenboost-solidity-erc20sale-strategies/contracts/strategy/sale/erc20/allowed-token-supply/widget/AllowedTokenSupplyStrategyRenderer.sol",
  "compiler": {
    "name": "solc",
    "version": "0.4.24+commit.e67f0147.Emscripten.clang"
  },
  "schemaVersion": "2.0.1",
  "updatedAt": "2018-10-11T18:34:20.520Z"
}