{
  "contractName": "CapStrategyRenderer",
  "abi": [
    {
      "constant": true,
      "inputs": [],
      "name": "CAP_LEFT",
      "outputs": [
        {
          "name": "",
          "type": "string"
        }
      ],
      "payable": false,
      "stateMutability": "view",
      "type": "function"
    },
    {
      "constant": true,
      "inputs": [],
      "name": "CAP_SHORT_DESC",
      "outputs": [
        {
          "name": "",
          "type": "string"
        }
      ],
      "payable": false,
      "stateMutability": "view",
      "type": "function"
    },
    {
      "constant": true,
      "inputs": [],
      "name": "CAP_LEFT_SHORT_DESC",
      "outputs": [
        {
          "name": "",
          "type": "string"
        }
      ],
      "payable": false,
      "stateMutability": "view",
      "type": "function"
    },
    {
      "constant": false,
      "inputs": [],
      "name": "renounceOwnership",
      "outputs": [],
      "payable": false,
      "stateMutability": "nonpayable",
      "type": "function"
    },
    {
      "constant": true,
      "inputs": [],
      "name": "owner",
      "outputs": [
        {
          "name": "",
          "type": "address"
        }
      ],
      "payable": false,
      "stateMutability": "view",
      "type": "function"
    },
    {
      "constant": true,
      "inputs": [],
      "name": "CAP_LEFT_LONG_DESC",
      "outputs": [
        {
          "name": "",
          "type": "string"
        }
      ],
      "payable": false,
      "stateMutability": "view",
      "type": "function"
    },
    {
      "constant": true,
      "inputs": [],
      "name": "CAP_LONG_DESC",
      "outputs": [
        {
          "name": "",
          "type": "string"
        }
      ],
      "payable": false,
      "stateMutability": "view",
      "type": "function"
    },
    {
      "constant": true,
      "inputs": [],
      "name": "UPDATE_CONFIRM",
      "outputs": [
        {
          "name": "",
          "type": "string"
        }
      ],
      "payable": false,
      "stateMutability": "view",
      "type": "function"
    },
    {
      "constant": true,
      "inputs": [],
      "name": "UPDATE",
      "outputs": [
        {
          "name": "",
          "type": "string"
        }
      ],
      "payable": false,
      "stateMutability": "view",
      "type": "function"
    },
    {
      "constant": true,
      "inputs": [],
      "name": "CAP",
      "outputs": [
        {
          "name": "",
          "type": "string"
        }
      ],
      "payable": false,
      "stateMutability": "view",
      "type": "function"
    },
    {
      "constant": false,
      "inputs": [
        {
          "name": "locale",
          "type": "string"
        },
        {
          "name": "key",
          "type": "string"
        },
        {
          "name": "value",
          "type": "string"
        }
      ],
      "name": "setResource",
      "outputs": [],
      "payable": false,
      "stateMutability": "nonpayable",
      "type": "function"
    },
    {
      "constant": false,
      "inputs": [
        {
          "name": "_newOwner",
          "type": "address"
        }
      ],
      "name": "transferOwnership",
      "outputs": [],
      "payable": false,
      "stateMutability": "nonpayable",
      "type": "function"
    },
    {
      "constant": true,
      "inputs": [
        {
          "name": "locale",
          "type": "string"
        },
        {
          "name": "key",
          "type": "string"
        }
      ],
      "name": "resource",
      "outputs": [
        {
          "name": "",
          "type": "string"
        }
      ],
      "payable": false,
      "stateMutability": "view",
      "type": "function"
    },
    {
      "anonymous": false,
      "inputs": [
        {
          "indexed": true,
          "name": "previousOwner",
          "type": "address"
        }
      ],
      "name": "OwnershipRenounced",
      "type": "event"
    },
    {
      "anonymous": false,
      "inputs": [
        {
          "indexed": true,
          "name": "previousOwner",
          "type": "address"
        },
        {
          "indexed": true,
          "name": "newOwner",
          "type": "address"
        }
      ],
      "name": "OwnershipTransferred",
      "type": "event"
    },
    {
      "constant": true,
      "inputs": [
        {
          "name": "_locale",
          "type": "string"
        },
        {
          "name": "_strategy",
          "type": "address"
        }
      ],
      "name": "adminWidgets",
      "outputs": [
        {
          "name": "",
          "type": "string"
        }
      ],
      "payable": false,
      "stateMutability": "view",
      "type": "function"
    },
    {
      "constant": true,
      "inputs": [
        {
          "name": "_locale",
          "type": "string"
        },
        {
          "name": "_strategy",
          "type": "address"
        }
      ],
      "name": "userWidgets",
      "outputs": [
        {
          "name": "",
          "type": "string"
        }
      ],
      "payable": false,
      "stateMutability": "view",
      "type": "function"
    },
    {
      "constant": true,
      "inputs": [
        {
          "name": "_locale",
          "type": "string"
        },
        {
          "name": "_strategy",
          "type": "address"
        }
      ],
      "name": "inputs",
      "outputs": [
        {
          "name": "",
          "type": "string"
        }
      ],
      "payable": false,
      "stateMutability": "view",
      "type": "function"
    }
  ],
  "bytecode": "0x608060405260008054600160a060020a03191633179055613924806100256000396000f3006080604052600436106100cc5763ffffffff60e060020a6000350416631068319281146100d15780631c07d53f1461015b5780636d2e31ec14610170578063715018a6146101855780638da5cb5b1461019c578063a2a561e7146101cd578063ad0cee0f146101e2578063b07b3c78146101f7578063bf3bed541461020c578063d30f6e2014610270578063e77cee3d14610285578063e9499555146102e9578063ec81b4831461034d578063ed3487fe14610362578063f2fde38b14610437578063f65a5c1b14610458575b600080fd5b3480156100dd57600080fd5b506100e66104ef565b6040805160208082528351818301528351919283929083019185019080838360005b83811015610120578181015183820152602001610108565b50505050905090810190601f16801561014d5780820380516001836020036101000a031916815260200191505b509250505060405180910390f35b34801561016757600080fd5b506100e6610514565b34801561017c57600080fd5b506100e661054b565b34801561019157600080fd5b5061019a610582565b005b3480156101a857600080fd5b506101b16105ee565b60408051600160a060020a039092168252519081900360200190f35b3480156101d957600080fd5b506100e66105fd565b3480156101ee57600080fd5b506100e6610634565b34801561020357600080fd5b506100e661066b565b34801561021857600080fd5b506040805160206004803580820135601f81018490048402850184019095528484526100e694369492936024939284019190819084018382808284375094975050509235600160a060020a031693506106a292505050565b34801561027c57600080fd5b506100e6610eed565b34801561029157600080fd5b506040805160206004803580820135601f81018490048402850184019095528484526100e694369492936024939284019190819084018382808284375094975050509235600160a060020a03169350610f2492505050565b3480156102f557600080fd5b506040805160206004803580820135601f81018490048402850184019095528484526100e694369492936024939284019190819084018382808284375094975050509235600160a060020a0316935061107292505050565b34801561035957600080fd5b506100e661116a565b34801561036e57600080fd5b506040805160206004803580820135601f810184900484028501840190955284845261019a94369492936024939284019190819084018382808284375050604080516020601f89358b018035918201839004830284018301909452808352979a99988101979196509182019450925082915084018382808284375050604080516020601f89358b018035918201839004830284018301909452808352979a99988101979196509182019450925082915084018382808284375094975061118a9650505050505050565b34801561044357600080fd5b5061019a600160a060020a0360043516611277565b34801561046457600080fd5b506040805160206004803580820135601f81018490048402850184019095528484526100e694369492936024939284019190819084018382808284375050604080516020601f89358b018035918201839004830284018301909452808352979a99988101979196509182019450925082915084018382808284375094975061129a9650505050505050565b60408051808201909152600881526000805160206138d9833981519152602082015281565b60408051808201909152600e81527f6361705f73686f72745f64657363000000000000000000000000000000000000602082015281565b60408051808201909152601381527f6361705f6c6566745f73686f72745f6465736300000000000000000000000000602082015281565b600054600160a060020a0316331461059957600080fd5b60008054604051600160a060020a03909116917ff8df31144d9c2f0f6b59d69b8b98abd5459d07f2742c4df920b25aae33c6482091a26000805473ffffffffffffffffffffffffffffffffffffffff19169055565b600054600160a060020a031681565b60408051808201909152601281527f6361705f6c6566745f6c6f6e675f646573630000000000000000000000000000602082015281565b60408051808201909152600d81527f6361705f6c6f6e675f6465736300000000000000000000000000000000000000602082015281565b60408051808201909152600e81527f7570646174655f636f6e6669726d000000000000000000000000000000000000602082015281565b60408051600280825260608281019093528291829160009190816020015b6106c8613702565b8152602001906001900390816106c057905050925060e06040519081016040528060011515815260200160408051908101604052806003815260200160ec60020a620636170281525081526020016040805190810160405280600781526020017f657468456469740000000000000000000000000000000000000000000000000081525081526020016001886040518082805190602001908083835b602083106107835780518252601f199092019160209182019101610764565b51815160209384036101000a60001901801990921691161790529201948552506040805194859003820185208582018252600380875260ec60020a620636170293870193845291519095945092508291908083835b602083106107f75780518252601f1990920191602091820191016107d8565b518151600019602094850361010090810a820192831692199390931691909117909252949092019687526040805197889003820188208054601f60026001831615909802909501169590950492830182900482028801820190528187529294509250508301828280156108ab5780601f10610880576101008083540402835291602001916108ab565b820191906000526020600020905b81548152906001019060200180831161088e57829003601f168201915b5050505050815260200161092787600160a060020a031663355274ea6040518163ffffffff1660e060020a028152600401602060405180830381600087803b1580156108f657600080fd5b505af115801561090a573d6000803e3d6000fd5b505050506040513d602081101561092057600080fd5b50516113eb565b815260200161093461154a565b815260200161094161159d565b905283518490600090811061095257fe5b9060200190602002018190525060e0604051908101604052806001151581526020016040805190810160405280600681526020017f757064617465000000000000000000000000000000000000000000000000000081525081526020016040805190810160405280600681526020017f627574746f6e000000000000000000000000000000000000000000000000000081525081526020016001886040518082805190602001908083835b60208310610a1c5780518252601f1990920191602091820191016109fd565b51815160209384036101000a6000190180199092169116179052920194855250604080519485900382018520858201825260068087527f757064617465000000000000000000000000000000000000000000000000000093870193845291519095945092508291908083835b60208310610aa75780518252601f199092019160209182019101610a88565b518151600019602094850361010090810a820192831692199390931691909117909252949092019687526040805197889003820188208054601f6002600183161590980290950116959095049283018290048202880182019052818752929450925050830182828015610b5b5780601f10610b3057610100808354040283529160200191610b5b565b820191906000526020600020905b815481529060010190602001808311610b3e57829003601f168201915b505050505081526020016040805190810160405280600481526020017f6e756c6c00000000000000000000000000000000000000000000000000000000815250815260200160a06040519081016040528060011515815260200188600160a060020a031681526020016040805190810160405280600f81526020017f7570646174652875696e7432353629000000000000000000000000000000000081525081526020016040805190810160405280600781526020017f5b22636170225d00000000000000000000000000000000000000000000000000815250815260200160018a6040518082805190602001908083835b60208310610c6c5780518252601f199092019160209182019101610c4d565b51815160209384036101000a60001901801990921691161790529201948552506040805194859003820185208582018252600e8087527f7570646174655f636f6e6669726d00000000000000000000000000000000000093870193845291519095945092508291908083835b60208310610cf75780518252601f199092019160209182019101610cd8565b518151600019602094850361010090810a820192831692199390931691909117909252949092019687526040805197889003820188208054601f6002600183161590980290950116959095049283018290048202880182019052818752929450925050830182828015610dab5780601f10610d8057610100808354040283529160200191610dab565b820191906000526020600020905b815481529060010190602001808311610d8e57829003601f168201915b50505050508152508152602001610dc061159d565b9052835184906001908110610dd157fe5b906020019060200201819052506040805190810160405280600181526020017f5b000000000000000000000000000000000000000000000000000000000000008152509150600090505b8251811015610ea2576000811115610e6d57610e6a610e5560408051908101604052806001815260200160fa60020a600b0281525061162a565b610e5e8461162a565b9063ffffffff61165316565b91505b610e98610e55610e938584815181101515610e8457fe5b906020019060200201516116ca565b61162a565b9150600101610e1b565b610ee3610e556040805190810160405280600181526020017f5d0000000000000000000000000000000000000000000000000000000000000081525061162a565b9695505050505050565b60408051808201909152600681527f7570646174650000000000000000000000000000000000000000000000000000602082015281565b6060806000610f3161374e565b600060606040805190810160405280600181526020017f5b000000000000000000000000000000000000000000000000000000000000008152509450600093506040805190810160405280610f888a8a60006119b8565b8152602001610f998a8a60006122c9565b90529250600091505b600282101561102557828260028110610fb757fe5b6020020151905060008151111561101a57600084111561100557611002610ff960408051908101604052806001815260200160fa60020a600b0281525061162a565b610e5e8761162a565b94505b611011610ff98261162a565b94506001909301925b600190910190610fa2565b611066610ff96040805190810160405280600181526020017f5d0000000000000000000000000000000000000000000000000000000000000081525061162a565b98975050505050505050565b606080600061107f61374e565b600060606040805190810160405280600181526020017f5b0000000000000000000000000000000000000000000000000000000000000081525094506000935060408051908101604052806110d68a8a60016119b8565b81526020016110e78a8a60016122c9565b90529250600091505b60028210156110255782826002811061110557fe5b6020020151905060008151111561115f57600084111561114a57611147610ff960408051908101604052806001815260200160fa60020a600b0281525061162a565b94505b611156610ff98261162a565b94506001909301925b6001909101906110f0565b604080518082019091526003815260ec60020a6206361702602082015281565b600054600160a060020a031633146111a157600080fd5b806001846040518082805190602001908083835b602083106111d45780518252601f1990920191602091820191016111b5565b51815160209384036101000a6000190180199092169116179052920194855250604051938490038101842087519094889450925082918401908083835b602083106112305780518252601f199092019160209182019101611211565b51815160209384036101000a600019018019909216911617905292019485525060405193849003810190932084516112719591949190910192509050613775565b50505050565b600054600160a060020a0316331461128e57600080fd5b61129781612d2e565b50565b60606001836040518082805190602001908083835b602083106112ce5780518252601f1990920191602091820191016112af565b51815160209384036101000a6000190180199092169116179052920194855250604051938490038101842086519094879450925082918401908083835b6020831061132a5780518252601f19909201916020918201910161130b565b518151600019602094850361010090810a820192831692199390931691909117909252949092019687526040805197889003820188208054601f60026001831615909802909501169590950492830182900482028801820190528187529294509250508301828280156113de5780601f106113b3576101008083540402835291602001916113de565b820191906000526020600020905b8154815290600101906020018083116113c157829003601f168201915b5050505050905092915050565b606080600081818515156114345760408051808201909152600181527f300000000000000000000000000000000000000000000000000000000000000060208201529450611541565b6040805160208082528183019092529080820161040080388339019050509350600092505b60008611156114a657600a860660300160f860020a02848481518110151561147d57fe5b906020010190600160f860020a031916908160001a905350600a86049550600190920191611459565b60408051848152601f19601f860116810160200190915260001984019380156114d9578160200160208202803883390190505b509150600090505b815181101561153d578351600019840193859181106114fc57fe5b90602001015160f860020a900460f860020a02828281518110151561151d57fe5b906020010190600160f860020a031916908160001a9053506001016114e1565b8194505b50505050919050565b6115526137f3565b506040805160a0810182526000808252602080830182905283518082018552828152838501528351808201855282815260608401528351908101909352825260808101919091525b90565b6115a5613820565b604080516060810182526000808252825181815260208181019094529192830191906115e7565b6115d4613844565b8152602001906001900390816115cc5790505b508152602001600060405190808252806020026020018201604052801561162257816020015b606081526020019060019003908161160d5790505b509052905090565b611632613877565b50604080518082019091528151815260208281019082018190525b50919050565b606080600083600001518560000151016040519080825280601f01601f191660200182016040528015611690578160200160208202803883390190505b5091506020820190506116ac8186602001518760000151612dab565b8451602085015185516116c29284019190612dab565b509392505050565b60608082600001511561197d576040805190810160405280600781526020017f7b226964223a2200000000000000000000000000000000000000000000000000815250905061172861171f846020015161162a565b610e5e8361162a565b905061176b61171f6040805190810160405280600181526020017f220000000000000000000000000000000000000000000000000000000000000081525061162a565b60a084015151909150156117d2576117ba61171f6040805190810160405280600b81526020017f2c2022616374696f6e223a00000000000000000000000000000000000000000081525061162a565b90506117cf61171f610e938560a00151612def565b90505b60c083015151156118365761181e61171f6040805190810160405280600a81526020017f2c20227461626c65223a0000000000000000000000000000000000000000000081525061162a565b905061183361171f610e938560c00151612f92565b90505b61187761171f6040805190810160405280600981526020017f2c2274797065223a22000000000000000000000000000000000000000000000081525061162a565b905061188961171f846040015161162a565b90506118cc61171f6040805190810160405280600b81526020017f222c226c6162656c223a2200000000000000000000000000000000000000000081525061162a565b90506118de61171f846060015161162a565b905061192161171f6040805190810160405280600981526020017f222c2264617461223a000000000000000000000000000000000000000000000081525061162a565b905061193361171f846080015161162a565b905061197661171f6040805190810160405280600181526020017f7d0000000000000000000000000000000000000000000000000000000000000081525061162a565b915061164d565b60408051808201909152600481527f6e756c6c000000000000000000000000000000000000000000000000000000006020820152915061164d565b6060806119c361388e565b8380611bb9575084600160a060020a0316636ad1fe026040518163ffffffff1660e060020a028152600401602060405180830381600087803b158015611a0857600080fd5b505af1158015611a1c573d6000803e3d6000fd5b505050506040513d6020811015611a3257600080fd5b5051604080517f186601ca0000000000000000000000000000000000000000000000000000000081529051600160a060020a039092169163186601ca916004808201926020929091908290030181600087803b158015611a9157600080fd5b505af1158015611aa5573d6000803e3d6000fd5b505050506040513d6020811015611abb57600080fd5b50518015611bb9575084600160a060020a0316636ad1fe026040518163ffffffff1660e060020a028152600401602060405180830381600087803b158015611b0257600080fd5b505af1158015611b16573d6000803e3d6000fd5b505050506040513d6020811015611b2c57600080fd5b5051604080517fbef4876b0000000000000000000000000000000000000000000000000000000081529051600160a060020a039092169163bef4876b916004808201926020929091908290030181600087803b158015611b8b57600080fd5b505af1158015611b9f573d6000803e3d6000fd5b505050506040513d6020811015611bb557600080fd5b5051155b156122c05760408051600180825281830190925290816020015b611bdb613702565b815260200190600190039081611bd357905050915060e06040519081016040528060011515815260200160408051908101604052806003815260200160ec60020a620636170281525081526020016040805190810160405280600381526020017f657468000000000000000000000000000000000000000000000000000000000081525081526020016001886040518082805190602001908083835b60208310611c965780518252601f199092019160209182019101611c77565b51815160209384036101000a60001901801990921691161790529201948552506040805194859003820185208582018252600380875260ec60020a620636170293870193845291519095945092508291908083835b60208310611d0a5780518252601f199092019160209182019101611ceb565b518151600019602094850361010090810a820192831692199390931691909117909252949092019687526040805197889003820188208054601f6002600183161590980290950116959095049283018290048202880182019052818752929450925050830182828015611dbe5780601f10611d9357610100808354040283529160200191611dbe565b820191906000526020600020905b815481529060010190602001808311611da157829003601f168201915b50505050508152602001611e0987600160a060020a031663355274ea6040518163ffffffff1660e060020a028152600401602060405180830381600087803b1580156108f657600080fd5b8152602001611e1661154a565b8152602001611e2361159d565b9052825183906000908110611e3457fe5b9060200190602002018190525060a0604051908101604052806001886040518082805190602001908083835b60208310611e7f5780518252601f199092019160209182019101611e60565b51815160209384036101000a60001901801990921691161790529201948552506040805194859003820185208582018252600380875260ec60020a620636170293870193845291519095945092508291908083835b60208310611ef35780518252601f199092019160209182019101611ed4565b518151600019602094850361010090810a820192831692199390931691909117909252949092019687526040805197889003820188208054601f6002600183161590980290950116959095049283018290048202880182019052818752929450925050830182828015611fa75780601f10611f7c57610100808354040283529160200191611fa7565b820191906000526020600020905b815481529060010190602001808311611f8a57829003601f168201915b505050505081526020016001886040518082805190602001908083835b60208310611fe35780518252601f199092019160209182019101611fc4565b51815160209384036101000a60001901801990921691161790529201948552506040805194859003820185208582018252600e8087527f6361705f73686f72745f6465736300000000000000000000000000000000000093870193845291519095945092508291908083835b6020831061206e5780518252601f19909201916020918201910161204f565b518151600019602094850361010090810a820192831692199390931691909117909252949092019687526040805197889003820188208054601f60026001831615909802909501169590950492830182900482028801820190528187529294509250508301828280156121225780601f106120f757610100808354040283529160200191612122565b820191906000526020600020905b81548152906001019060200180831161210557829003601f168201915b505050505081526020016001886040518082805190602001908083835b6020831061215e5780518252601f19909201916020918201910161213f565b51815160209384036101000a60001901801990921691161790529201948552506040805194859003820185208582018252600d8087527f6361705f6c6f6e675f646573630000000000000000000000000000000000000093870193845291519095945092508291908083835b602083106121e95780518252601f1990920191602091820191016121ca565b518151600019602094850361010090810a820192831692199390931691909117909252949092019687526040805197889003820188208054601f600260018316159098029095011695909504928301829004820288018201905281875292945092505083018282801561229d5780601f106122725761010080835404028352916020019161229d565b820191906000526020600020905b81548152906001019060200180831161228057829003601f168201915b50505050508152602001600481526020018381525090506122bd816131a9565b92505b50509392505050565b60608060006122d661388e565b84806124cc575085600160a060020a0316636ad1fe026040518163ffffffff1660e060020a028152600401602060405180830381600087803b15801561231b57600080fd5b505af115801561232f573d6000803e3d6000fd5b505050506040513d602081101561234557600080fd5b5051604080517f186601ca0000000000000000000000000000000000000000000000000000000081529051600160a060020a039092169163186601ca916004808201926020929091908290030181600087803b1580156123a457600080fd5b505af11580156123b8573d6000803e3d6000fd5b505050506040513d60208110156123ce57600080fd5b505180156124cc575085600160a060020a0316636ad1fe026040518163ffffffff1660e060020a028152600401602060405180830381600087803b15801561241557600080fd5b505af1158015612429573d6000803e3d6000fd5b505050506040513d602081101561243f57600080fd5b5051604080517fbef4876b0000000000000000000000000000000000000000000000000000000081529051600160a060020a039092169163bef4876b916004808201926020929091908290030181600087803b15801561249e57600080fd5b505af11580156124b2573d6000803e3d6000fd5b505050506040513d60208110156124c857600080fd5b5051155b15612d245760408051600180825281830190925290816020015b6124ee613702565b8152602001906001900390816124e657905050925085600160a060020a0316636ad1fe026040518163ffffffff1660e060020a028152600401602060405180830381600087803b15801561254157600080fd5b505af1158015612555573d6000803e3d6000fd5b505050506040513d602081101561256b57600080fd5b5051604080517f4042b66f0000000000000000000000000000000000000000000000000000000081529051600160a060020a0390921691634042b66f916004808201926020929091908290030181600087803b1580156125ca57600080fd5b505af11580156125de573d6000803e3d6000fd5b505050506040513d60208110156125f457600080fd5b5051604080517f355274ea0000000000000000000000000000000000000000000000000000000081529051600160a060020a0389169163355274ea9160048083019260209291908290030181600087803b15801561265157600080fd5b505af1158015612665573d6000803e3d6000fd5b505050506040513d602081101561267b57600080fd5b50516040805160e081018252600180825282518084018452600881526000805160206138d98339815191526020828101919091528381019190915283518085018552600381527f6574680000000000000000000000000000000000000000000000000000000000818301528385015292518c519590940396509093606085019391928c929182918401908083835b602083106127285780518252601f199092019160209182019101612709565b51815160209384036101000a6000190180199092169116179052920194855250604080519485900382018520858201825260088087526000805160206138d983398151915293870193845291519095945092508291908083835b602083106127a15780518252601f199092019160209182019101612782565b518151600019602094850361010090810a820192831692199390931691909117909252949092019687526040805197889003820188208054601f60026001831615909802909501169590950492830182900482028801820190528187529294509250508301828280156128555780601f1061282a57610100808354040283529160200191612855565b820191906000526020600020905b81548152906001019060200180831161283857829003601f168201915b50505050508152602001612868846113eb565b815260200161287561154a565b815260200161288261159d565b905283518490600090811061289357fe5b9060200190602002018190525060a0604051908101604052806001896040518082805190602001908083835b602083106128de5780518252601f1990920191602091820191016128bf565b51815160209384036101000a6000190180199092169116179052920194855250604080519485900382018520858201825260088087526000805160206138d983398151915293870193845291519095945092508291908083835b602083106129575780518252601f199092019160209182019101612938565b518151600019602094850361010090810a820192831692199390931691909117909252949092019687526040805197889003820188208054601f6002600183161590980290950116959095049283018290048202880182019052818752929450925050830182828015612a0b5780601f106129e057610100808354040283529160200191612a0b565b820191906000526020600020905b8154815290600101906020018083116129ee57829003601f168201915b505050505081526020016001896040518082805190602001908083835b60208310612a475780518252601f199092019160209182019101612a28565b51815160209384036101000a6000190180199092169116179052920194855250604080519485900382018520858201825260138087527f6361705f6c6566745f73686f72745f646573630000000000000000000000000093870193845291519095945092508291908083835b60208310612ad25780518252601f199092019160209182019101612ab3565b518151600019602094850361010090810a820192831692199390931691909117909252949092019687526040805197889003820188208054601f6002600183161590980290950116959095049283018290048202880182019052818752929450925050830182828015612b865780601f10612b5b57610100808354040283529160200191612b86565b820191906000526020600020905b815481529060010190602001808311612b6957829003601f168201915b505050505081526020016001896040518082805190602001908083835b60208310612bc25780518252601f199092019160209182019101612ba3565b51815160209384036101000a6000190180199092169116179052920194855250604080519485900382018520858201825260128087527f6361705f6c6566745f6c6f6e675f64657363000000000000000000000000000093870193845291519095945092508291908083835b60208310612c4d5780518252601f199092019160209182019101612c2e565b518151600019602094850361010090810a820192831692199390931691909117909252949092019687526040805197889003820188208054601f6002600183161590980290950116959095049283018290048202880182019052818752929450925050830182828015612d015780601f10612cd657610100808354040283529160200191612d01565b820191906000526020600020905b815481529060010190602001808311612ce457829003601f168201915b5050505050815260200160048152602001848152509050612d21816131a9565b93505b5050509392505050565b600160a060020a0381161515612d4357600080fd5b60008054604051600160a060020a03808516939216917f8be0079c531659141344cd1fd0a4f28419497f9722a3daafe3b4186f6b6457e091a36000805473ffffffffffffffffffffffffffffffffffffffff1916600160a060020a0392909216919091179055565b60005b60208210612dd0578251845260209384019390920191601f1990910190612dae565b50905182516020929092036101000a6000190180199091169116179052565b60608082600001511561197d576040805190810160405280600c81526020017f7b2261646472657373223a2200000000000000000000000000000000000000008152509050612e5061171f610e938560200151600160a060020a03166133ee565b9050612e9361171f6040805190810160405280601681526020017f222c2266756e6374696f6e53656c6563746f72223a220000000000000000000081525061162a565b9050612ea561171f846040015161162a565b9050612ee861171f6040805190810160405280600e81526020017f222c22617267756d656e7473223a00000000000000000000000000000000000081525061162a565b9050612efa61171f846060015161162a565b9050612f3d61171f6040805190810160405280600c81526020017f2c22636f6e6669726d223a22000000000000000000000000000000000000000081525061162a565b9050612f4f61171f846080015161162a565b905061197661171f6040805190810160405280600281526020017f227d00000000000000000000000000000000000000000000000000000000000081525061162a565b60608060008084600001511561316a57505060408051808201909152600c81527f7b22636f6c756d6e73223a5b0000000000000000000000000000000000000000602082015290506000805b8460200151518110156130605760008211156130285761302561301c60408051908101604052806001815260200160fa60020a600b0281525061162a565b610e5e8561162a565b92505b61305261301c610e9387602001518481518110151561304357fe5b90602001906020020151613531565b925060019182019101612fde565b6130a161301c6040805190810160405280600a81526020017f5d2c22726f7773223a5b0000000000000000000000000000000000000000000081525061162a565b925060009150600090505b8460400151518110156131225760008211156130ed576130ea61301c60408051908101604052806001815260200160fa60020a600b0281525061162a565b92505b61311461301c86604001518381518110151561310557fe5b9060200190602002015161162a565b9250600191820191016130ac565b61316361301c6040805190810160405280600281526020017f5d7d00000000000000000000000000000000000000000000000000000000000081525061162a565b93506131a1565b60408051808201909152600481527f6e756c6c00000000000000000000000000000000000000000000000000000000602082015293505b505050919050565b60408051808201909152600a81527f7b227469746c65223a220000000000000000000000000000000000000000000060208201528151606091906000906131f390610e559061162a565b9150613236610e556040805190810160405280600f81526020017f222c2273686f727444657363223a22000000000000000000000000000000000081525061162a565b9150613248610e55856020015161162a565b915061328b610e556040805190810160405280600e81526020017f222c226c6f6e6744657363223a2200000000000000000000000000000000000081525061162a565b915061329d610e55856040015161162a565b91506132e0610e556040805190810160405280600a81526020017f222c227769647468223a0000000000000000000000000000000000000000000081525061162a565b91506132f5610e55610e9386606001516113eb565b9150613338610e556040805190810160405280600d81526020017f2c22656c656d656e7473223a5b0000000000000000000000000000000000000081525061162a565b9150600090505b8360800151518110156133a55760008111156133805761337d610e5560408051908101604052806001815260200160fa60020a600b0281525061162a565b91505b61339b610e55610e93866080015184815181101515610e8457fe5b915060010161333f565b6133e6610e556040805190810160405280600281526020017f5d7d00000000000000000000000000000000000000000000000000000000000081525061162a565b949350505050565b60408051602a80825260608083019093528291600091829182916020820161054080388339505081519195507f300000000000000000000000000000000000000000000000000000000000000091869150600090811061344a57fe5b906020010190600160f860020a031916908160001a90535083517f7800000000000000000000000000000000000000000000000000000000000000908590600190811061349357fe5b906020010190600160f860020a031916908160001a905350859250600091505b602882101561352757506030600f8316016039600160a060020a03821611156134da576027015b8060f860020a0284836028036001018151811015156134f557fe5b906020010190600160f860020a031916908160001a9053506010600160a060020a0384160492506001909101906134b3565b5091949350505050565b60608082600001511561197d576040805190810160405280600781526020017f7b226964223a2200000000000000000000000000000000000000000000000000815250905061358661171f846020015161162a565b90506135c961171f6040805190810160405280600181526020017f220000000000000000000000000000000000000000000000000000000000000081525061162a565b6080840151519091501561365a576135ff61171f60408051908101604052806001815260200160fa60020a600b0281525061162a565b905061364261171f6040805190810160405280600981526020017f22616374696f6e223a000000000000000000000000000000000000000000000081525061162a565b905061365761171f610e938560800151612def565b90505b61369b61171f6040805190810160405280600981526020017f2c2274797065223a22000000000000000000000000000000000000000000000081525061162a565b90506136ad61171f846040015161162a565b90506136f061171f6040805190810160405280600b81526020017f222c226c6162656c223a2200000000000000000000000000000000000000000081525061162a565b9050612f4f61171f846060015161162a565b6101a0604051908101604052806000151581526020016060815260200160608152602001606081526020016060815260200161373c6137f3565b8152602001613749613820565b905290565b60408051908101604052806002905b606081526020019060019003908161375d5790505090565b828054600181600116156101000203166002900490600052602060002090601f016020900481019282601f106137b657805160ff19168380011785556137e3565b828001600101855582156137e3579182015b828111156137e35782518255916020019190600101906137c8565b506137ef9291506138be565b5090565b6040805160a081018252600080825260208201526060918101829052818101829052608081019190915290565b60606040519081016040528060001515815260200160608152602001606081525090565b610120604051908101604052806000151581526020016060815260200160608152602001606081526020016137496137f3565b604080518082019091526000808252602082015290565b60a06040519081016040528060608152602001606081526020016060815260200160008152602001606081525090565b61159a91905b808211156137ef57600081556001016138c456006361705f6c656674000000000000000000000000000000000000000000000000a165627a7a7230582011192313f8bcd87cdd3b202f4fbf391e27bf11ed52594fdef2788cd87b42f6710029",
  "source": "pragma solidity ^0.4.24;\n\nimport \"tokenboost-solidity/contracts/widget/Localizable.sol\";\nimport \"tokenboost-solidity/contracts/widget/Widgets.sol\";\nimport \"../CapStrategy.sol\";\n\ncontract CapStrategyRenderer is Localizable {\n    using Widgets for Widgets.Widget;\n    using Elements for Elements.Element;\n    using strings for *;\n    using UintUtils for uint;\n\n    string public constant CAP = \"cap\";\n    string public constant CAP_SHORT_DESC = \"cap_short_desc\";\n    string public constant CAP_LONG_DESC = \"cap_long_desc\";\n    string public constant CAP_LEFT = \"cap_left\";\n    string public constant CAP_LEFT_SHORT_DESC = \"cap_left_short_desc\";\n    string public constant CAP_LEFT_LONG_DESC = \"cap_left_long_desc\";\n    string public constant UPDATE = \"update\";\n    string public constant UPDATE_CONFIRM = \"update_confirm\";\n\n    function adminWidgets(string _locale, CapStrategy _strategy) public view returns (string) {\n        string memory json = \"[\";\n        uint length = 0;\n        string[2] memory widgets = [\n        _capWidget(_locale, _strategy, true),\n        _capLeftWidget(_locale, _strategy, true)\n        ];\n        for (uint i = 0; i < widgets.length; i++) {\n            string memory widget = widgets[i];\n            if (bytes(widget).length > 0) {\n                if (length > 0) {\n                    json = json.toSlice().concat(\",\".toSlice());\n                }\n                json = json.toSlice().concat(widget.toSlice());\n                length++;\n            }\n        }\n        return json.toSlice().concat(\"]\".toSlice());\n    }\n\n    function userWidgets(string _locale, CapStrategy _strategy) public view returns (string) {\n        string memory json = \"[\";\n        uint length = 0;\n        string[2] memory widgets = [\n        _capWidget(_locale, _strategy, false),\n        _capLeftWidget(_locale, _strategy, false)\n        ];\n        for (uint i = 0; i < widgets.length; i++) {\n            string memory widget = widgets[i];\n            if (bytes(widget).length > 0) {\n                if (length > 0) {\n                    json = json.toSlice().concat(\",\".toSlice());\n                }\n                json = json.toSlice().concat(widget.toSlice());\n                length++;\n            }\n        }\n        return json.toSlice().concat(\"]\".toSlice());\n    }\n\n    function _capWidget(string _locale, CapStrategy _strategy, bool _admin) private view returns (string json) {\n        if (_admin || _strategy.sale().activated() && !_strategy.sale().finished()) {\n            Elements.Element[] memory elements = new Elements.Element[](1);\n            elements[0] = Elements.Element(\n                true,\n                CAP,\n                \"eth\",\n                resources[_locale][CAP],\n                _strategy.cap().toString(),\n                Actions.empty(),\n                Tables.empty()\n            );\n            Widgets.Widget memory widget = Widgets.Widget(\n                resources[_locale][CAP],\n                resources[_locale][CAP_SHORT_DESC],\n                resources[_locale][CAP_LONG_DESC],\n                4,\n                elements\n            );\n            return widget.toJson();\n        }\n    }\n\n    function _capLeftWidget(string _locale, CapStrategy _strategy, bool _admin) private view returns (string json) {\n        if (_admin || _strategy.sale().activated() && !_strategy.sale().finished()) {\n            Elements.Element[] memory elements = new Elements.Element[](1);\n            uint256 left = _strategy.cap() - _strategy.sale().weiRaised();\n            elements[0] = Elements.Element(\n                true,\n                CAP_LEFT,\n                \"eth\",\n                resources[_locale][CAP_LEFT],\n                left.toString(),\n                Actions.empty(),\n                Tables.empty()\n            );\n            Widgets.Widget memory widget = Widgets.Widget(\n                resources[_locale][CAP_LEFT],\n                resources[_locale][CAP_LEFT_SHORT_DESC],\n                resources[_locale][CAP_LEFT_LONG_DESC],\n                4,\n                elements\n            );\n            return widget.toJson();\n        }\n    }\n\n    function inputs(string _locale, CapStrategy _strategy) public view returns (string) {\n        Elements.Element[] memory elements = new Elements.Element[](2);\n        elements[0] = Elements.Element(\n            true,\n            CAP,\n            \"ethEdit\",\n            resources[_locale][CAP],\n            _strategy.cap().toString(),\n            Actions.empty(),\n            Tables.empty()\n        );\n        elements[1] = Elements.Element(\n            true,\n            UPDATE,\n            \"button\",\n            resources[_locale][UPDATE],\n            \"null\",\n            Actions.Action(\n                true,\n                address(_strategy),\n                \"update(uint256)\",\n                '[\"cap\"]',\n                resources[_locale][UPDATE_CONFIRM]\n            ),\n            Tables.empty()\n        );\n        string memory json = \"[\";\n        for (uint i = 0; i < elements.length; i++) {\n            if (i > 0) {\n                json = json.toSlice().concat(','.toSlice());\n            }\n            json = json.toSlice().concat(elements[i].toJson().toSlice());\n        }\n        return json.toSlice().concat(']'.toSlice());\n    }\n}\n",
  "sourcePath": "/Users/yoonjae/SolidityProjects/tokenboost-solidity-erc20sale-strategies/contracts/strategy/sale/erc20/cap/widget/CapStrategyRenderer.sol",
  "compiler": {
    "name": "solc",
    "version": "0.4.24+commit.e67f0147.Emscripten.clang"
  },
  "schemaVersion": "2.0.1",
  "updatedAt": "2018-10-23T18:43:12.999Z"
}