{
  "contractName": "ClaimableTokenDistributionStrategy",
  "abi": [
    {
      "constant": true,
      "inputs": [
        {
          "name": "_interfaceId",
          "type": "bytes4"
        }
      ],
      "name": "supportsInterface",
      "outputs": [
        {
          "name": "",
          "type": "bool"
        }
      ],
      "payable": false,
      "stateMutability": "view",
      "type": "function"
    },
    {
      "constant": false,
      "inputs": [],
      "name": "activate",
      "outputs": [
        {
          "name": "",
          "type": "bool"
        }
      ],
      "payable": false,
      "stateMutability": "nonpayable",
      "type": "function"
    },
    {
      "constant": true,
      "inputs": [
        {
          "name": "",
          "type": "uint256"
        }
      ],
      "name": "purchasers",
      "outputs": [
        {
          "name": "",
          "type": "address"
        }
      ],
      "payable": false,
      "stateMutability": "view",
      "type": "function"
    },
    {
      "constant": true,
      "inputs": [],
      "name": "activated",
      "outputs": [
        {
          "name": "",
          "type": "bool"
        }
      ],
      "payable": false,
      "stateMutability": "view",
      "type": "function"
    },
    {
      "constant": true,
      "inputs": [],
      "name": "InterfaceId_ERC165",
      "outputs": [
        {
          "name": "",
          "type": "bytes4"
        }
      ],
      "payable": false,
      "stateMutability": "view",
      "type": "function"
    },
    {
      "constant": false,
      "inputs": [],
      "name": "deactivate",
      "outputs": [
        {
          "name": "",
          "type": "bool"
        }
      ],
      "payable": false,
      "stateMutability": "nonpayable",
      "type": "function"
    },
    {
      "constant": true,
      "inputs": [],
      "name": "InterfaceId_Strategy",
      "outputs": [
        {
          "name": "",
          "type": "bytes4"
        }
      ],
      "payable": false,
      "stateMutability": "view",
      "type": "function"
    },
    {
      "constant": true,
      "inputs": [],
      "name": "sale",
      "outputs": [
        {
          "name": "",
          "type": "address"
        }
      ],
      "payable": false,
      "stateMutability": "view",
      "type": "function"
    },
    {
      "constant": true,
      "inputs": [],
      "name": "template",
      "outputs": [
        {
          "name": "",
          "type": "address"
        }
      ],
      "payable": false,
      "stateMutability": "view",
      "type": "function"
    },
    {
      "constant": false,
      "inputs": [],
      "name": "renounceOwnership",
      "outputs": [],
      "payable": false,
      "stateMutability": "nonpayable",
      "type": "function"
    },
    {
      "constant": true,
      "inputs": [],
      "name": "renderer",
      "outputs": [
        {
          "name": "",
          "type": "address"
        }
      ],
      "payable": false,
      "stateMutability": "view",
      "type": "function"
    },
    {
      "constant": true,
      "inputs": [],
      "name": "owner",
      "outputs": [
        {
          "name": "",
          "type": "address"
        }
      ],
      "payable": false,
      "stateMutability": "view",
      "type": "function"
    },
    {
      "constant": true,
      "inputs": [],
      "name": "InterfaceId_ERC20SaleStrategy",
      "outputs": [
        {
          "name": "",
          "type": "bytes4"
        }
      ],
      "payable": false,
      "stateMutability": "view",
      "type": "function"
    },
    {
      "constant": true,
      "inputs": [],
      "name": "InterfaceId_SaleStrategy",
      "outputs": [
        {
          "name": "",
          "type": "bytes4"
        }
      ],
      "payable": false,
      "stateMutability": "view",
      "type": "function"
    },
    {
      "constant": false,
      "inputs": [
        {
          "name": "_newOwner",
          "type": "address"
        }
      ],
      "name": "transferOwnership",
      "outputs": [],
      "payable": false,
      "stateMutability": "nonpayable",
      "type": "function"
    },
    {
      "constant": true,
      "inputs": [],
      "name": "InterfaceId_Contract",
      "outputs": [
        {
          "name": "",
          "type": "bytes4"
        }
      ],
      "payable": false,
      "stateMutability": "view",
      "type": "function"
    },
    {
      "inputs": [
        {
          "name": "_owner",
          "type": "address"
        },
        {
          "name": "_sale",
          "type": "address"
        }
      ],
      "payable": false,
      "stateMutability": "nonpayable",
      "type": "constructor"
    },
    {
      "anonymous": false,
      "inputs": [
        {
          "indexed": true,
          "name": "previousOwner",
          "type": "address"
        }
      ],
      "name": "OwnershipRenounced",
      "type": "event"
    },
    {
      "anonymous": false,
      "inputs": [
        {
          "indexed": true,
          "name": "previousOwner",
          "type": "address"
        },
        {
          "indexed": true,
          "name": "newOwner",
          "type": "address"
        }
      ],
      "name": "OwnershipTransferred",
      "type": "event"
    },
    {
      "constant": true,
      "inputs": [
        {
          "name": "_purchaser",
          "type": "address"
        }
      ],
      "name": "claimableTokensOf",
      "outputs": [
        {
          "name": "",
          "type": "uint256"
        }
      ],
      "payable": false,
      "stateMutability": "view",
      "type": "function"
    },
    {
      "constant": false,
      "inputs": [],
      "name": "claimTokens",
      "outputs": [],
      "payable": false,
      "stateMutability": "nonpayable",
      "type": "function"
    },
    {
      "constant": true,
      "inputs": [],
      "name": "numberOfPurchasers",
      "outputs": [
        {
          "name": "",
          "type": "uint256"
        }
      ],
      "payable": false,
      "stateMutability": "view",
      "type": "function"
    },
    {
      "constant": true,
      "inputs": [],
      "name": "started",
      "outputs": [
        {
          "name": "",
          "type": "bool"
        }
      ],
      "payable": false,
      "stateMutability": "view",
      "type": "function"
    },
    {
      "constant": true,
      "inputs": [],
      "name": "successful",
      "outputs": [
        {
          "name": "",
          "type": "bool"
        }
      ],
      "payable": false,
      "stateMutability": "view",
      "type": "function"
    },
    {
      "constant": true,
      "inputs": [],
      "name": "finished",
      "outputs": [
        {
          "name": "",
          "type": "bool"
        }
      ],
      "payable": false,
      "stateMutability": "view",
      "type": "function"
    },
    {
      "constant": true,
      "inputs": [
        {
          "name": "_purchaser",
          "type": "address"
        },
        {
          "name": "_weiAmount",
          "type": "uint256"
        }
      ],
      "name": "purchasable",
      "outputs": [
        {
          "name": "",
          "type": "bool"
        }
      ],
      "payable": false,
      "stateMutability": "view",
      "type": "function"
    },
    {
      "constant": true,
      "inputs": [
        {
          "name": "_purchaser",
          "type": "address"
        },
        {
          "name": "_weiAmount",
          "type": "uint256"
        }
      ],
      "name": "tokenRate",
      "outputs": [
        {
          "name": "",
          "type": "uint256"
        }
      ],
      "payable": false,
      "stateMutability": "view",
      "type": "function"
    },
    {
      "constant": false,
      "inputs": [
        {
          "name": "_purchaser",
          "type": "address"
        },
        {
          "name": "_tokenAmount",
          "type": "uint256"
        }
      ],
      "name": "supplyTokens",
      "outputs": [
        {
          "name": "",
          "type": "bool"
        }
      ],
      "payable": false,
      "stateMutability": "nonpayable",
      "type": "function"
    },
    {
      "constant": false,
      "inputs": [
        {
          "name": "_purchaser",
          "type": "address"
        },
        {
          "name": "_tokenAmount",
          "type": "uint256"
        }
      ],
      "name": "receivesTokens",
      "outputs": [
        {
          "name": "",
          "type": "bool"
        }
      ],
      "payable": false,
      "stateMutability": "nonpayable",
      "type": "function"
    },
    {
      "constant": true,
      "inputs": [
        {
          "name": "locale",
          "type": "string"
        }
      ],
      "name": "adminWidgets",
      "outputs": [
        {
          "name": "json",
          "type": "string"
        }
      ],
      "payable": false,
      "stateMutability": "view",
      "type": "function"
    },
    {
      "constant": true,
      "inputs": [
        {
          "name": "locale",
          "type": "string"
        }
      ],
      "name": "userWidgets",
      "outputs": [
        {
          "name": "json",
          "type": "string"
        }
      ],
      "payable": false,
      "stateMutability": "view",
      "type": "function"
    },
    {
      "constant": true,
      "inputs": [
        {
          "name": "locale",
          "type": "string"
        }
      ],
      "name": "inputs",
      "outputs": [
        {
          "name": "json",
          "type": "string"
        }
      ],
      "payable": false,
      "stateMutability": "view",
      "type": "function"
    }
  ],
  "bytecode": "0x608060405234801561001057600080fd5b506040516040806200130283398101604052805160209091015160008054600160a060020a031916331790558181818181806100747f01ffc9a7000000000000000000000000000000000000000000000000000000006401000000006101e5810204565b600160a060020a038116151561008957600080fd5b6002805433600160a060020a03199182161790915560008054909116600160a060020a0383161790556100e47f6125ede5000000000000000000000000000000000000000000000000000000006401000000006101e5810204565b506101177f6e301925000000000000000000000000000000000000000000000000000000006401000000006101e5810204565b5060038054600160a060020a031916600160a060020a0383161790556101657f04c8123d000000000000000000000000000000000000000000000000000000006401000000006101e5810204565b505060048054600160a060020a031916600160a060020a0383161790556101b47fa0d0304b000000000000000000000000000000000000000000000000000000006401000000006101e5810204565b50506002805460a060020a60ff02191674010000000000000000000000000000000000000000179055506102549050565b7fffffffff00000000000000000000000000000000000000000000000000000000808216141561021457600080fd5b7fffffffff00000000000000000000000000000000000000000000000000000000166000908152600160208190526040909120805460ff19169091179055565b61109e80620002646000396000f3006080604052600436106101745763ffffffff7c010000000000000000000000000000000000000000000000000000000060003504166301bd3411811461017957806301ffc9a7146102475780630f15f4c01461029257806312923b65146102a7578063186601ca146102db57806319fa8f50146102f05780631f2698ab1461033757806340860b491461034c57806348c54b9d1461037f5780634f9a82d61461039657806351b42b00146103ba5780635589530e146103cf578063580c2ae9146103f3578063587775e81461039657806364b630d8146104085780636ad1fe021461041d5780636f2ddd9314610432578063715018a6146104475780638ada6b0f1461045c5780638da5cb5b14610471578063908ba64814610486578063944ac32b146104df5780639a9e3fd814610337578063a3a8fd2c146104f4578063bef4876b14610337578063ce30824e1461054d578063e67c864614610562578063f2fde38b14610586578063fbf964eb146105a7575b600080fd5b34801561018557600080fd5b506040805160206004803580820135601f81018490048402850184019095528484526101d29436949293602493928401919081908401838280828437509497506105bc9650505050505050565b6040805160208082528351818301528351919283929083019185019080838360005b8381101561020c5781810151838201526020016101f4565b50505050905090810190601f1680156102395780820380516001836020036101000a031916815260200191505b509250505060405180910390f35b34801561025357600080fd5b5061027e7bffffffffffffffffffffffffffffffffffffffffffffffffffffffff1960043516610725565b604080519115158252519081900360200190f35b34801561029e57600080fd5b5061027e610759565b3480156102b357600080fd5b506102bf6004356107fb565b60408051600160a060020a039092168252519081900360200190f35b3480156102e757600080fd5b5061027e610823565b3480156102fc57600080fd5b50610305610844565b604080517bffffffffffffffffffffffffffffffffffffffffffffffffffffffff199092168252519081900360200190f35b34801561034357600080fd5b5061027e610868565b34801561035857600080fd5b5061036d600160a060020a036004351661086d565b60408051918252519081900360200190f35b34801561038b57600080fd5b50610394610888565b005b3480156103a257600080fd5b5061027e600160a060020a0360043516602435610b03565b3480156103c657600080fd5b5061027e610b0b565b3480156103db57600080fd5b5061036d600160a060020a0360043516602435610b03565b3480156103ff57600080fd5b5061036d610be9565b34801561041457600080fd5b50610305610bef565b34801561042957600080fd5b506102bf610c13565b34801561043e57600080fd5b506102bf610c22565b34801561045357600080fd5b50610394610c31565b34801561046857600080fd5b506102bf610c9d565b34801561047d57600080fd5b506102bf610cb5565b34801561049257600080fd5b506040805160206004803580820135601f81018490048402850184019095528484526101d2943694929360249392840191908190840183828082843750949750610cc49650505050505050565b3480156104eb57600080fd5b50610305610d51565b34801561050057600080fd5b506040805160206004803580820135601f81018490048402850184019095528484526101d2943694929360249392840191908190840183828082843750949750610d759650505050505050565b34801561055957600080fd5b50610305610e02565b34801561056e57600080fd5b5061027e600160a060020a0360043516602435610e26565b34801561059257600080fd5b50610394600160a060020a0360043516610f41565b3480156105b357600080fd5b50610305610f64565b604080517fbf3bed54000000000000000000000000000000000000000000000000000000008152306024820181905260048201928352835160448301528351606093735f5f436c61696d61626c65546f6b656e446973749363bf3bed549387939092918291606490910190602086019080838360005b8381101561064a578181015183820152602001610632565b50505050905090810190601f1680156106775780820380516001836020036101000a031916815260200191505b509350505050600060405180830381600087803b15801561069757600080fd5b505af11580156106ab573d6000803e3d6000fd5b505050506040513d6000823e601f3d908101601f1916820160405260208110156106d457600080fd5b8101908080516401000000008111156106ec57600080fd5b820160208101848111156106ff57600080fd5b815164010000000081118282018710171561071957600080fd5b50909695505050505050565b7bffffffffffffffffffffffffffffffffffffffffffffffffffffffff191660009081526001602052604090205460ff1690565b600354604080517f186601ca0000000000000000000000000000000000000000000000000000000081529051600092600160a060020a03169163186601ca91600480830192602092919082900301818787803b1580156107b857600080fd5b505af11580156107cc573d6000803e3d6000fd5b505050506040513d60208110156107e257600080fd5b5051156107ee57600080fd5b6107f6610f88565b905090565b600680548290811061080957fe5b600091825260209091200154600160a060020a0316905081565b60025474010000000000000000000000000000000000000000900460ff1681565b7f01ffc9a70000000000000000000000000000000000000000000000000000000081565b600090565b600160a060020a031660009081526005602052604090205490565b600354604080517f186601ca0000000000000000000000000000000000000000000000000000000081529051600092600160a060020a03169163186601ca91600480830192602092919082900301818787803b1580156108e757600080fd5b505af11580156108fb573d6000803e3d6000fd5b505050506040513d602081101561091157600080fd5b5051151561091e57600080fd5b60048054604080517fbef4876b0000000000000000000000000000000000000000000000000000000081529051600160a060020a039092169263bef4876b9282820192602092908290030181600087803b15801561097b57600080fd5b505af115801561098f573d6000803e3d6000fd5b505050506040513d60208110156109a557600080fd5b505115156109b257600080fd5b50336000908152600560205260408120549081116109cf57600080fd5b3360009081526005602090815260408083208390556004805482517ffc0c546a0000000000000000000000000000000000000000000000000000000081529251600160a060020a039091169463fc0c546a94848401949093908390030190829087803b158015610a3e57600080fd5b505af1158015610a52573d6000803e3d6000fd5b505050506040513d6020811015610a6857600080fd5b5051604080517fa9059cbb000000000000000000000000000000000000000000000000000000008152336004820152602481018490529051600160a060020a039092169163a9059cbb916044808201926020929091908290030181600087803b158015610ad457600080fd5b505af1158015610ae8573d6000803e3d6000fd5b505050506040513d6020811015610afe57600080fd5b505050565b600092915050565b60008054600160a060020a03163314610b2357600080fd5b600360009054906101000a9004600160a060020a0316600160a060020a031663186601ca6040518163ffffffff167c0100000000000000000000000000000000000000000000000000000000028152600401602060405180830381600087803b158015610b8f57600080fd5b505af1158015610ba3573d6000803e3d6000fd5b505050506040513d6020811015610bb957600080fd5b505115610bc557600080fd5b506002805474ff000000000000000000000000000000000000000019169055600190565b60065490565b7f6e3019250000000000000000000000000000000000000000000000000000000081565b600454600160a060020a031681565b600254600160a060020a031681565b600054600160a060020a03163314610c4857600080fd5b60008054604051600160a060020a03909116917ff8df31144d9c2f0f6b59d69b8b98abd5459d07f2742c4df920b25aae33c6482091a26000805473ffffffffffffffffffffffffffffffffffffffff19169055565b735f5f436c61696d61626c65546f6b656e4469737481565b600054600160a060020a031681565b604080517fe77cee3d000000000000000000000000000000000000000000000000000000008152306024820181905260048201928352835160448301528351606093735f5f436c61696d61626c65546f6b656e446973749363e77cee3d9387939092918291606490910190602086019080838360008381101561064a578181015183820152602001610632565b7fa0d0304b0000000000000000000000000000000000000000000000000000000081565b604080517fe9499555000000000000000000000000000000000000000000000000000000008152306024820181905260048201928352835160448301528351606093735f5f436c61696d61626c65546f6b656e446973749363e94995559387939092918291606490910190602086019080838360008381101561064a578181015183820152602001610632565b7f04c8123d0000000000000000000000000000000000000000000000000000000081565b60045460009081908190600160a060020a03163314610e4457600080fd5b5060009050805b600654811015610e93576006805482908110610e6357fe5b600091825260209091200154600160a060020a0386811691161415610e8b5760019150610e93565b600101610e4b565b811515610ef357600680546001810182556000919091527ff652222313e28459528d920b65115c16c04f3efc82aaedc97be59f3f377c0d3f01805473ffffffffffffffffffffffffffffffffffffffff1916600160a060020a0387161790555b600160a060020a038516600090815260056020526040902054610f1c908563ffffffff610fa816565b600160a060020a03861660009081526005602052604090205560019250505092915050565b600054600160a060020a03163314610f5857600080fd5b610f6181610fbb565b50565b7f6125ede50000000000000000000000000000000000000000000000000000000081565b60008054600160a060020a03163314610fa057600080fd5b6107f6611038565b81810182811015610fb557fe5b92915050565b600160a060020a0381161515610fd057600080fd5b60008054604051600160a060020a03808516939216917f8be0079c531659141344cd1fd0a4f28419497f9722a3daafe3b4186f6b6457e091a36000805473ffffffffffffffffffffffffffffffffffffffff1916600160a060020a0392909216919091179055565b6002805474ff00000000000000000000000000000000000000001916740100000000000000000000000000000000000000001790556001905600a165627a7a72305820455e82be537529176a3e6a0ef8196c0617b9c3a63259aa5364925e057ff9a38b0029",
  "source": "pragma solidity ^0.4.24;\n\nimport \"tokenboost-solidity/contracts/strategy/sale/erc20/ERC20SaleStrategy.sol\";\nimport \"tokenboost-solidity/contracts/widget/Renderable.sol\";\nimport \"./widget/ClaimableTokenDistributionStrategyRenderer.sol\";\n\ncontract ClaimableTokenDistributionStrategy is ERC20SaleStrategy, Renderable {\n    using SafeMath for uint;\n\n    ClaimableTokenDistributionStrategyRenderer public constant renderer = ClaimableTokenDistributionStrategyRenderer(address(bytes20(\"__ClaimableTokenDist\")));\n\n    mapping(address => uint256) claimableTokensOfPurchaser;\n    address[] public purchasers;\n\n    constructor(address _owner, ERC20Sale _sale) public ERC20SaleStrategy(_owner, _sale) {\n        activated = true;\n    }\n\n    function claimableTokensOf(address _purchaser) public view returns (uint256) {\n        return claimableTokensOfPurchaser[_purchaser];\n    }\n\n    function claimTokens() whenSaleActivated public {\n        require(sale.finished());\n\n        uint256 tokens = claimableTokensOfPurchaser[msg.sender];\n        require(tokens > 0);\n\n        claimableTokensOfPurchaser[msg.sender] = 0;\n        sale.token().transfer(msg.sender, tokens);\n    }\n\n    function numberOfPurchasers() public view returns (uint256) {\n        return purchasers.length;\n    }\n\n    function started() public view returns (bool) {\n        return false;\n    }\n\n    function successful() public view returns (bool) {\n        return false;\n    }\n\n    function finished() public view returns (bool) {\n        return false;\n    }\n\n    function purchasable(address _purchaser, uint256 _weiAmount) public view returns (bool) {\n        return false;\n    }\n\n    function tokenRate(address _purchaser, uint256 _weiAmount) public view returns (uint256) {\n        return 0;\n    }\n\n    function supplyTokens(address _purchaser, uint256 _tokenAmount) public returns (bool) {\n        return false;\n    }\n\n    function receivesTokens(address _purchaser, uint256 _tokenAmount) public returns (bool) {\n        require(msg.sender == address(sale));\n\n        bool exists = false;\n        for (uint i = 0; i < purchasers.length; i++) {\n            if (_purchaser == purchasers[i]) {\n                exists = true;\n                break;\n            }\n        }\n        if (!exists) {\n            purchasers.push(_purchaser);\n        }\n        claimableTokensOfPurchaser[_purchaser] = claimableTokensOfPurchaser[_purchaser].add(_tokenAmount);\n        return true;\n    }\n\n    function adminWidgets(string locale) public view returns (string json) {\n        return renderer.adminWidgets(locale, this);\n    }\n\n    function userWidgets(string locale) public view returns (string json) {\n        return renderer.userWidgets(locale, this);\n    }\n\n    function inputs(string locale) public view returns (string json) {\n        return renderer.inputs(locale, this);\n    }\n}\n",
  "sourcePath": "/Users/yoonjae/SolidityProjects/tokenboost-solidity-erc20sale-strategies/contracts/strategy/sale/erc20/claimable-token-distribution/ClaimableTokenDistributionStrategy.sol",
  "compiler": {
    "name": "solc",
    "version": "0.4.24+commit.e67f0147.Emscripten.clang"
  },
  "schemaVersion": "2.0.1",
  "updatedAt": "2018-10-11T18:33:08.276Z"
}