{
  "contractName": "ClaimableTokenDistributionStrategyRenderer",
  "abi": [
    {
      "constant": true,
      "inputs": [],
      "name": "CLAIM_CONFIRM",
      "outputs": [
        {
          "name": "",
          "type": "string"
        }
      ],
      "payable": false,
      "stateMutability": "view",
      "type": "function"
    },
    {
      "constant": true,
      "inputs": [],
      "name": "CLAIM_SHORT_DESC",
      "outputs": [
        {
          "name": "",
          "type": "string"
        }
      ],
      "payable": false,
      "stateMutability": "view",
      "type": "function"
    },
    {
      "constant": true,
      "inputs": [],
      "name": "CLAIMABLE_TOKENS",
      "outputs": [
        {
          "name": "",
          "type": "string"
        }
      ],
      "payable": false,
      "stateMutability": "view",
      "type": "function"
    },
    {
      "constant": true,
      "inputs": [],
      "name": "CLAIM_LONG_DESC",
      "outputs": [
        {
          "name": "",
          "type": "string"
        }
      ],
      "payable": false,
      "stateMutability": "view",
      "type": "function"
    },
    {
      "constant": false,
      "inputs": [],
      "name": "renounceOwnership",
      "outputs": [],
      "payable": false,
      "stateMutability": "nonpayable",
      "type": "function"
    },
    {
      "constant": true,
      "inputs": [],
      "name": "CLAIM",
      "outputs": [
        {
          "name": "",
          "type": "string"
        }
      ],
      "payable": false,
      "stateMutability": "view",
      "type": "function"
    },
    {
      "constant": true,
      "inputs": [],
      "name": "owner",
      "outputs": [
        {
          "name": "",
          "type": "address"
        }
      ],
      "payable": false,
      "stateMutability": "view",
      "type": "function"
    },
    {
      "constant": true,
      "inputs": [],
      "name": "ADDRESS",
      "outputs": [
        {
          "name": "",
          "type": "string"
        }
      ],
      "payable": false,
      "stateMutability": "view",
      "type": "function"
    },
    {
      "constant": true,
      "inputs": [],
      "name": "CLAIMABLE_TOKENS_SHORT_DESC",
      "outputs": [
        {
          "name": "",
          "type": "string"
        }
      ],
      "payable": false,
      "stateMutability": "view",
      "type": "function"
    },
    {
      "constant": false,
      "inputs": [
        {
          "name": "locale",
          "type": "string"
        },
        {
          "name": "key",
          "type": "string"
        },
        {
          "name": "value",
          "type": "string"
        }
      ],
      "name": "setResource",
      "outputs": [],
      "payable": false,
      "stateMutability": "nonpayable",
      "type": "function"
    },
    {
      "constant": true,
      "inputs": [],
      "name": "CLAIMABLE_TOKENS_LONG_DESC",
      "outputs": [
        {
          "name": "",
          "type": "string"
        }
      ],
      "payable": false,
      "stateMutability": "view",
      "type": "function"
    },
    {
      "constant": false,
      "inputs": [
        {
          "name": "_newOwner",
          "type": "address"
        }
      ],
      "name": "transferOwnership",
      "outputs": [],
      "payable": false,
      "stateMutability": "nonpayable",
      "type": "function"
    },
    {
      "constant": true,
      "inputs": [
        {
          "name": "locale",
          "type": "string"
        },
        {
          "name": "key",
          "type": "string"
        }
      ],
      "name": "resource",
      "outputs": [
        {
          "name": "",
          "type": "string"
        }
      ],
      "payable": false,
      "stateMutability": "view",
      "type": "function"
    },
    {
      "anonymous": false,
      "inputs": [
        {
          "indexed": true,
          "name": "previousOwner",
          "type": "address"
        }
      ],
      "name": "OwnershipRenounced",
      "type": "event"
    },
    {
      "anonymous": false,
      "inputs": [
        {
          "indexed": true,
          "name": "previousOwner",
          "type": "address"
        },
        {
          "indexed": true,
          "name": "newOwner",
          "type": "address"
        }
      ],
      "name": "OwnershipTransferred",
      "type": "event"
    },
    {
      "constant": true,
      "inputs": [
        {
          "name": "_locale",
          "type": "string"
        },
        {
          "name": "_strategy",
          "type": "address"
        }
      ],
      "name": "adminWidgets",
      "outputs": [
        {
          "name": "",
          "type": "string"
        }
      ],
      "payable": false,
      "stateMutability": "view",
      "type": "function"
    },
    {
      "constant": true,
      "inputs": [
        {
          "name": "_locale",
          "type": "string"
        },
        {
          "name": "_strategy",
          "type": "address"
        }
      ],
      "name": "userWidgets",
      "outputs": [
        {
          "name": "",
          "type": "string"
        }
      ],
      "payable": false,
      "stateMutability": "view",
      "type": "function"
    },
    {
      "constant": true,
      "inputs": [
        {
          "name": "_locale",
          "type": "string"
        },
        {
          "name": "_strategy",
          "type": "address"
        }
      ],
      "name": "inputs",
      "outputs": [
        {
          "name": "",
          "type": "string"
        }
      ],
      "payable": false,
      "stateMutability": "view",
      "type": "function"
    }
  ],
  "bytecode": "0x608060405260008054600160a060020a031916331790556139ea806100256000396000f3006080604052600436106100cc5763ffffffff60e060020a60003504166306ac75bf81146100d15780634288bd2e1461015b578063444394a414610170578063581b7d1e14610185578063715018a61461019a57806373d74876146101b15780638da5cb5b146101c6578063b51ce63d146101f7578063bf3bed541461020c578063cccd268714610270578063e77cee3d14610285578063e9499555146102e9578063ed3487fe1461034d578063f1666e6914610422578063f2fde38b14610437578063f65a5c1b14610458575b600080fd5b3480156100dd57600080fd5b506100e66104ef565b6040805160208082528351818301528351919283929083019185019080838360005b83811015610120578181015183820152602001610108565b50505050905090810190601f16801561014d5780820380516001836020036101000a031916815260200191505b509250505060405180910390f35b34801561016757600080fd5b506100e6610526565b34801561017c57600080fd5b506100e661055d565b34801561019157600080fd5b506100e6610582565b3480156101a657600080fd5b506101af6105b9565b005b3480156101bd57600080fd5b506100e6610625565b3480156101d257600080fd5b506101db61064a565b60408051600160a060020a039092168252519081900360200190f35b34801561020357600080fd5b506100e6610659565b34801561021857600080fd5b506040805160206004803580820135601f81018490048402850184019095528484526100e694369492936024939284019190819084018382808284375094975050509235600160a060020a0316935061067e92505050565b34801561027c57600080fd5b506100e66106b7565b34801561029157600080fd5b506040805160206004803580820135601f81018490048402850184019095528484526100e694369492936024939284019190819084018382808284375094975050509235600160a060020a031693506106ee92505050565b3480156102f557600080fd5b506040805160206004803580820135601f81018490048402850184019095528484526100e694369492936024939284019190819084018382808284375094975050509235600160a060020a031693506107b892505050565b34801561035957600080fd5b506040805160206004803580820135601f81018490048402850184019095528484526101af94369492936024939284019190819084018382808284375050604080516020601f89358b018035918201839004830284018301909452808352979a99988101979196509182019450925082915084018382808284375050604080516020601f89358b018035918201839004830284018301909452808352979a9998810197919650918201945092508291508401838280828437509497506107c49650505050505050565b34801561042e57600080fd5b506100e66108b1565b34801561044357600080fd5b506101af600160a060020a03600435166108e8565b34801561046457600080fd5b506040805160206004803580820135601f81018490048402850184019095528484526100e694369492936024939284019190819084018382808284375050604080516020601f89358b018035918201839004830284018301909452808352979a99988101979196509182019450925082915084018382808284375094975061090b9650505050505050565b60408051808201909152600d81527f636c61696d5f636f6e6669726d00000000000000000000000000000000000000602082015281565b60408051808201909152601081527f636c61696d5f73686f72745f6465736300000000000000000000000000000000602082015281565b604080518082019091526010815260008051602061395f833981519152602082015281565b60408051808201909152600f81527f636c61696d5f6c6f6e675f646573630000000000000000000000000000000000602082015281565b600054600160a060020a031633146105d057600080fd5b60008054604051600160a060020a03909116917ff8df31144d9c2f0f6b59d69b8b98abd5459d07f2742c4df920b25aae33c6482091a26000805473ffffffffffffffffffffffffffffffffffffffff19169055565b604080518082019091526005815260008051602061399f833981519152602082015281565b600054600160a060020a031681565b604080518082019091526007815260008051602061397f833981519152602082015281565b505060408051808201909152600281527f5b5d000000000000000000000000000000000000000000000000000000000000602082015290565b60408051808201909152601481527f636c61696d61626c655f73686f72745f64657363000000000000000000000000602082015281565b60606106fa8383610a5c565b60405160200180807f5b0000000000000000000000000000000000000000000000000000000000000081525060010182805190602001908083835b602083106107545780518252601f199092019160209182019101610735565b6001836020036101000a038019825116818451168082178552505050505050905001807f5d00000000000000000000000000000000000000000000000000000000000000815250600101915050604051602081830303815290604052905092915050565b60606106fa83836118cc565b600054600160a060020a031633146107db57600080fd5b806001846040518082805190602001908083835b6020831061080e5780518252601f1990920191602091820191016107ef565b51815160209384036101000a6000190180199092169116179052920194855250604051938490038101842087519094889450925082918401908083835b6020831061086a5780518252601f19909201916020918201910161084b565b51815160209384036101000a600019018019909216911617905292019485525060405193849003810190932084516108ab95919491909101925090506137af565b50505050565b60408051808201909152601381527f636c61696d61626c655f6c6f6e675f6465736300000000000000000000000000602082015281565b600054600160a060020a031633146108ff57600080fd5b61090881611ff5565b50565b60606001836040518082805190602001908083835b6020831061093f5780518252601f199092019160209182019101610920565b51815160209384036101000a6000190180199092169116179052920194855250604051938490038101842086519094879450925082918401908083835b6020831061099b5780518252601f19909201916020918201910161097c565b518151600019602094850361010090810a820192831692199390931691909117909252949092019687526040805197889003820188208054601f6002600183161590980290950116959095049283018290048202880182019052818752929450925050830182828015610a4f5780601f10610a2457610100808354040283529160200191610a4f565b820191906000526020600020905b815481529060010190602001808311610a3257829003601f168201915b5050505050905092915050565b606080600080610a6a61382d565b85600160a060020a0316636ad1fe026040518163ffffffff1660e060020a028152600401602060405180830381600087803b158015610aa857600080fd5b505af1158015610abc573d6000803e3d6000fd5b505050506040513d6020811015610ad257600080fd5b5051604080517fbef4876b0000000000000000000000000000000000000000000000000000000081529051600160a060020a039092169163bef4876b916004808201926020929091908290030181600087803b158015610b3157600080fd5b505af1158015610b45573d6000803e3d6000fd5b505050506040513d6020811015610b5b57600080fd5b5051156118b0576040805160028082526060820190925290816020015b610b8061385d565b815260200190600190039081610b7857905050935085600160a060020a0316636ad1fe026040518163ffffffff1660e060020a028152600401602060405180830381600087803b158015610bd357600080fd5b505af1158015610be7573d6000803e3d6000fd5b505050506040513d6020811015610bfd57600080fd5b5051604080517ffc0c546a0000000000000000000000000000000000000000000000000000000081529051600160a060020a039092169163fc0c546a916004808201926020929091908290030181600087803b158015610c5c57600080fd5b505af1158015610c70573d6000803e3d6000fd5b505050506040513d6020811015610c8657600080fd5b5051604080517f313ce5670000000000000000000000000000000000000000000000000000000081529051919450600160a060020a0385169163313ce567916004808201926020929091908290030181600087803b158015610ce757600080fd5b505af1158015610cfb573d6000803e3d6000fd5b505050506040513d6020811015610d1157600080fd5b50516040805160e08101825260018152815180830183526010815260008051602061395f83398151915260208281019190915282015260ff90921693508101610dae610d64610d5f86612072565b6121d1565b610da26040805190810160405280600581526020017f746f6b656e0000000000000000000000000000000000000000000000000000008152506121d1565b9063ffffffff6121fa16565b81526020016001896040518082805190602001908083835b60208310610de55780518252601f199092019160209182019101610dc6565b51815160209384036101000a60001901801990921691161790529201948552506040805194859003820185208582018252601080875260008051602061395f83398151915293870193845291519095945092508291908083835b60208310610e5e5780518252601f199092019160209182019101610e3f565b518151600019602094850361010090810a820192831692199390931691909117909252949092019687526040805197889003820188208054601f6002600183161590980290950116959095049283018290048202880182019052818752929450925050830182828015610f125780601f10610ee757610100808354040283529160200191610f12565b820191906000526020600020905b815481529060010190602001808311610ef557829003601f168201915b50505050508152602001610fab88600160a060020a03166340860b49326040518263ffffffff1660e060020a0281526004018082600160a060020a0316600160a060020a03168152602001915050602060405180830381600087803b158015610f7a57600080fd5b505af1158015610f8e573d6000803e3d6000fd5b505050506040513d6020811015610fa457600080fd5b5051612072565b8152602001610fb8612271565b8152602001610fc56122c4565b9052845185906000908110610fd657fe5b9060200190602002018190525060e06040519081016040528060011515815260200160408051908101604052806005815260200160008051602061399f83398151915281525081526020016040805190810160405280600681526020017f627574746f6e000000000000000000000000000000000000000000000000000081525081526020016001896040518082805190602001908083835b6020831061108e5780518252601f19909201916020918201910161106f565b51815160209384036101000a60001901801990921691161790529201948552506040805194859003820185208582018252600580875260008051602061399f83398151915293870193845291519095945092508291908083835b602083106111075780518252601f1990920191602091820191016110e8565b518151600019602094850361010090810a820192831692199390931691909117909252949092019687526040805197889003820188208054601f60026001831615909802909501169590950492830182900482028801820190528187529294509250508301828280156111bb5780601f10611190576101008083540402835291602001916111bb565b820191906000526020600020905b81548152906001019060200180831161119e57829003601f168201915b5050505050815260200160408051908101604052806004815260200160e260020a631b9d5b1b02815250815260200160a06040519081016040528060011515815260200189600160a060020a031681526020016040805190810160405280600d81526020017f636c61696d546f6b656e7328290000000000000000000000000000000000000081525081526020016040805190810160405280600281526020017f5b5d000000000000000000000000000000000000000000000000000000000000815250815260200160018b6040518082805190602001908083835b602083106112b65780518252601f199092019160209182019101611297565b51815160209384036101000a60001901801990921691161790529201948552506040805194859003820185208582018252600d8087527f636c61696d5f636f6e6669726d0000000000000000000000000000000000000093870193845291519095945092508291908083835b602083106113415780518252601f199092019160209182019101611322565b518151600019602094850361010090810a820192831692199390931691909117909252949092019687526040805197889003820188208054601f60026001831615909802909501169590950492830182900482028801820190528187529294509250508301828280156113f55780601f106113ca576101008083540402835291602001916113f5565b820191906000526020600020905b8154815290600101906020018083116113d857829003601f168201915b5050505050815250815260200161140a6122c4565b905284518590600190811061141b57fe5b9060200190602002018190525060a0604051908101604052806001896040518082805190602001908083835b602083106114665780518252601f199092019160209182019101611447565b51815160209384036101000a60001901801990921691161790529201948552506040805194859003820185208582018252600580875260008051602061399f83398151915293870193845291519095945092508291908083835b602083106114df5780518252601f1990920191602091820191016114c0565b518151600019602094850361010090810a820192831692199390931691909117909252949092019687526040805197889003820188208054601f60026001831615909802909501169590950492830182900482028801820190528187529294509250508301828280156115935780601f1061156857610100808354040283529160200191611593565b820191906000526020600020905b81548152906001019060200180831161157657829003601f168201915b505050505081526020016001896040518082805190602001908083835b602083106115cf5780518252601f1990920191602091820191016115b0565b51815160209384036101000a6000190180199092169116179052920194855250604080519485900382018520858201825260108087527f636c61696d5f73686f72745f646573630000000000000000000000000000000093870193845291519095945092508291908083835b6020831061165a5780518252601f19909201916020918201910161163b565b518151600019602094850361010090810a820192831692199390931691909117909252949092019687526040805197889003820188208054601f600260018316159098029095011695909504928301829004820288018201905281875292945092505083018282801561170e5780601f106116e35761010080835404028352916020019161170e565b820191906000526020600020905b8154815290600101906020018083116116f157829003601f168201915b505050505081526020016001896040518082805190602001908083835b6020831061174a5780518252601f19909201916020918201910161172b565b51815160209384036101000a60001901801990921691161790529201948552506040805194859003820185208582018252600f8087527f636c61696d5f6c6f6e675f64657363000000000000000000000000000000000093870193845291519095945092508291908083835b602083106117d55780518252601f1990920191602091820191016117b6565b518151600019602094850361010090810a820192831692199390931691909117909252949092019687526040805197889003820188208054601f60026001831615909802909501169590950492830182900482028801820190528187529294509250508301828280156118895780601f1061185e57610100808354040283529160200191611889565b820191906000526020600020905b81548152906001019060200180831161186c57829003601f168201915b50505050508152602001600481526020018581525090506118a981612351565b94506118c2565b60408051602081019091526000815294505b5050505092915050565b6060806118d761382d565b60408051600180825281830190925290816020015b6118f461385d565b8152602001906001900390816118ec57905050915060e06040519081016040528060011515815260200160408051908101604052806010815260200160008051602061395f83398151915281525081526020016040805190810160405280600581526020017f7461626c6500000000000000000000000000000000000000000000000000000081525081526020016001876040518082805190602001908083835b602083106119b45780518252601f199092019160209182019101611995565b51815160209384036101000a60001901801990921691161790529201948552506040805194859003820185208582018252601080875260008051602061395f83398151915293870193845291519095945092508291908083835b60208310611a2d5780518252601f199092019160209182019101611a0e565b518151600019602094850361010090810a820192831692199390931691909117909252949092019687526040805197889003820188208054601f6002600183161590980290950116959095049283018290048202880182019052818752929450925050830182828015611ae15780601f10611ab657610100808354040283529160200191611ae1565b820191906000526020600020905b815481529060010190602001808311611ac457829003601f168201915b5050505050815260200160408051908101604052806004815260200160e260020a631b9d5b1b028152508152602001611b18612271565b8152602001606060405190810160405280600115158152602001611b3c89896125ae565b8152602001611b4b8989612b42565b90529052825183906000908110611b5e57fe5b9060200190602002018190525060a0604051908101604052806001876040518082805190602001908083835b60208310611ba95780518252601f199092019160209182019101611b8a565b51815160209384036101000a60001901801990921691161790529201948552506040805194859003820185208582018252601080875260008051602061395f83398151915293870193845291519095945092508291908083835b60208310611c225780518252601f199092019160209182019101611c03565b518151600019602094850361010090810a820192831692199390931691909117909252949092019687526040805197889003820188208054601f6002600183161590980290950116959095049283018290048202880182019052818752929450925050830182828015611cd65780601f10611cab57610100808354040283529160200191611cd6565b820191906000526020600020905b815481529060010190602001808311611cb957829003601f168201915b505050505081526020016001876040518082805190602001908083835b60208310611d125780518252601f199092019160209182019101611cf3565b51815160209384036101000a6000190180199092169116179052920194855250604080519485900382018520858201825260148087527f636c61696d61626c655f73686f72745f6465736300000000000000000000000093870193845291519095945092508291908083835b60208310611d9d5780518252601f199092019160209182019101611d7e565b518151600019602094850361010090810a820192831692199390931691909117909252949092019687526040805197889003820188208054601f6002600183161590980290950116959095049283018290048202880182019052818752929450925050830182828015611e515780601f10611e2657610100808354040283529160200191611e51565b820191906000526020600020905b815481529060010190602001808311611e3457829003601f168201915b505050505081526020016001876040518082805190602001908083835b60208310611e8d5780518252601f199092019160209182019101611e6e565b51815160209384036101000a6000190180199092169116179052920194855250604080519485900382018520858201825260138087527f636c61696d61626c655f6c6f6e675f646573630000000000000000000000000093870193845291519095945092508291908083835b60208310611f185780518252601f199092019160209182019101611ef9565b518151600019602094850361010090810a820192831692199390931691909117909252949092019687526040805197889003820188208054601f6002600183161590980290950116959095049283018290048202880182019052818752929450925050830182828015611fcc5780601f10611fa157610100808354040283529160200191611fcc565b820191906000526020600020905b815481529060010190602001808311611faf57829003601f168201915b5050505050815260200160088152602001838152509050611fec81612351565b95945050505050565b600160a060020a038116151561200a57600080fd5b60008054604051600160a060020a03808516939216917f8be0079c531659141344cd1fd0a4f28419497f9722a3daafe3b4186f6b6457e091a36000805473ffffffffffffffffffffffffffffffffffffffff1916600160a060020a0392909216919091179055565b606080600081818515156120bb5760408051808201909152600181527f3000000000000000000000000000000000000000000000000000000000000000602082015294506121c8565b6040805160208082528183019092529080820161040080388339019050509350600092505b600086111561212d57600a860660300160f860020a02848481518110151561210457fe5b906020010190600160f860020a031916908160001a905350600a860495506001909201916120e0565b60408051848152601f19601f86011681016020019091526000198401938015612160578160200160208202803883390190505b509150600090505b81518110156121c45783516000198401938591811061218357fe5b90602001015160f860020a900460f860020a0282828151811015156121a457fe5b906020010190600160f860020a031916908160001a905350600101612168565b8194505b50505050919050565b6121d96138a9565b50604080518082019091528151815260208281019082018190525b50919050565b606080600083600001518560000151016040519080825280601f01601f191660200182016040528015612237578160200160208202803883390190505b5091506020820190506122538186602001518760000151612de4565b8451602085015185516122699284019190612de4565b509392505050565b6122796138c0565b506040805160a0810182526000808252602080830182905283518082018552828152838501528351808201855282815260608401528351908101909352825260808101919091525b90565b6122cc6138ed565b6040805160608101825260008082528251818152602081810190945291928301919061230e565b6122fb613911565b8152602001906001900390816122f35790505b508152602001600060405190808252806020026020018201604052801561234957816020015b60608152602001906001900390816123345790505b509052905090565b60408051808201909152600a81527f7b227469746c65223a220000000000000000000000000000000000000000000060208201528151606091906000906123a49061239b906121d1565b610da2846121d1565b91506123e761239b6040805190810160405280600f81526020017f222c2273686f727444657363223a2200000000000000000000000000000000008152506121d1565b91506123f961239b85602001516121d1565b915061243c61239b6040805190810160405280600e81526020017f222c226c6f6e6744657363223a220000000000000000000000000000000000008152506121d1565b915061244e61239b85604001516121d1565b915061249161239b6040805190810160405280600a81526020017f222c227769647468223a000000000000000000000000000000000000000000008152506121d1565b91506124a661239b610d5f8660600151612072565b91506124e961239b6040805190810160405280600d81526020017f2c22656c656d656e7473223a5b000000000000000000000000000000000000008152506121d1565b9150600090505b8360800151518110156125655760008111156125315761252e61239b60408051908101604052806001815260200160fa60020a600b028152506121d1565b91505b61255b61239b610d5f86608001518481518110151561254c57fe5b90602001906020020151612e28565b91506001016124f0565b6125a661239b6040805190810160405280600281526020017f5d7d0000000000000000000000000000000000000000000000000000000000008152506121d1565b949350505050565b6060600080606084600160a060020a0316636ad1fe026040518163ffffffff1660e060020a028152600401602060405180830381600087803b1580156125f357600080fd5b505af1158015612607573d6000803e3d6000fd5b505050506040513d602081101561261d57600080fd5b5051604080517ffc0c546a0000000000000000000000000000000000000000000000000000000081529051600160a060020a039092169163fc0c546a916004808201926020929091908290030181600087803b15801561267c57600080fd5b505af1158015612690573d6000803e3d6000fd5b505050506040513d60208110156126a657600080fd5b5051604080517f313ce5670000000000000000000000000000000000000000000000000000000081529051919450600160a060020a0385169163313ce567916004808201926020929091908290030181600087803b15801561270757600080fd5b505af115801561271b573d6000803e3d6000fd5b505050506040513d602081101561273157600080fd5b50516040805160028082526060820190925260ff9092169350816020015b612757613911565b81526020019060019003908161274f57905050905060a06040519081016040528060011515815260200160408051908101604052806007815260200160008051602061397f833981519152815250815260200160408051908101604052806007815260200160008051602061397f83398151915281525081526020016001886040518082805190602001908083835b602083106128055780518252601f1990920191602091820191016127e6565b51815160209384036101000a60001901801990921691161790529201948552506040805194859003820185208582018252600780875260008051602061397f83398151915293870193845291519095945092508291908083835b6020831061287e5780518252601f19909201916020918201910161285f565b518151600019602094850361010090810a820192831692199390931691909117909252949092019687526040805197889003820188208054601f60026001831615909802909501169590950492830182900482028801820190528187529294509250508301828280156129325780601f1061290757610100808354040283529160200191612932565b820191906000526020600020905b81548152906001019060200180831161291557829003601f168201915b50505050508152602001612944612271565b905281518290600090811061295557fe5b60209081029091018101919091526040805160a08101825260018152815180830183526010815260008051602061395f833981519152818501529281019290925281016129a7610d64610d5f86612072565b81526020016001886040518082805190602001908083835b602083106129de5780518252601f1990920191602091820191016129bf565b51815160209384036101000a60001901801990921691161790529201948552506040805194859003820185208582018252601080875260008051602061395f83398151915293870193845291519095945092508291908083835b60208310612a575780518252601f199092019160209182019101612a38565b518151600019602094850361010090810a820192831692199390931691909117909252949092019687526040805197889003820188208054601f6002600183161590980290950116959095049283018290048202880182019052818752929450925050830182828015612b0b5780601f10612ae057610100808354040283529160200191612b0b565b820191906000526020600020905b815481529060010190602001808311612aee57829003601f168201915b50505050508152602001612b1d612271565b9052815182906001908110612b2e57fe5b602090810290910101529250505092915050565b606080600080606085600160a060020a031663580c2ae96040518163ffffffff1660e060020a028152600401602060405180830381600087803b158015612b8857600080fd5b505af1158015612b9c573d6000803e3d6000fd5b505050506040513d6020811015612bb257600080fd5b5051604080518281526020808402820101909152908015612be757816020015b6060815260200190600190039081612bd25790505b509350600092505b8351831015612dd95785600160a060020a03166312923b65846040518263ffffffff1660e060020a02815260040180828152602001915050602060405180830381600087803b158015612c4157600080fd5b505af1158015612c55573d6000803e3d6000fd5b505050506040513d6020811015612c6b57600080fd5b505160408051808201909152600c81527f7b2261646472657373223a22000000000000000000000000000000000000000060208201529092509050612cc7612cbe610d5f600160a060020a0385166130f7565b610da2836121d1565b9050612d0a612cbe6040805190810160405280601581526020017f222c22636c61696d61626c655f746f6b656e73223a00000000000000000000008152506121d1565b9050612d70612cbe610d5f88600160a060020a03166340860b49866040518263ffffffff1660e060020a0281526004018082600160a060020a0316600160a060020a03168152602001915050602060405180830381600087803b158015610f7a57600080fd5b9050612db3612cbe6040805190810160405280600181526020017f7d000000000000000000000000000000000000000000000000000000000000008152506121d1565b9050808484815181101515612dc457fe5b60209081029091010152600190920191612bef565b509195945050505050565b60005b60208210612e09578251845260209384019390920191601f1990910190612de7565b50905182516020929092036101000a6000190180199091169116179052565b6060808260000151156130d2576040805190810160405280600781526020017f7b226964223a22000000000000000000000000000000000000000000000000008152509050612e7d612cbe84602001516121d1565b9050612ec0612cbe6040805190810160405280600181526020017f22000000000000000000000000000000000000000000000000000000000000008152506121d1565b60a08401515190915015612f2757612f0f612cbe6040805190810160405280600b81526020017f2c2022616374696f6e223a0000000000000000000000000000000000000000008152506121d1565b9050612f24612cbe610d5f8560a0015161323a565b90505b60c08301515115612f8b57612f73612cbe6040805190810160405280600a81526020017f2c20227461626c65223a000000000000000000000000000000000000000000008152506121d1565b9050612f88612cbe610d5f8560c001516133dd565b90505b612fcc612cbe6040805190810160405280600981526020017f2c2274797065223a2200000000000000000000000000000000000000000000008152506121d1565b9050612fde612cbe84604001516121d1565b9050613021612cbe6040805190810160405280600b81526020017f222c226c6162656c223a220000000000000000000000000000000000000000008152506121d1565b9050613033612cbe84606001516121d1565b9050613076612cbe6040805190810160405280600981526020017f222c2264617461223a00000000000000000000000000000000000000000000008152506121d1565b9050613088612cbe84608001516121d1565b90506130cb612cbe6040805190810160405280600181526020017f7d000000000000000000000000000000000000000000000000000000000000008152506121d1565b91506121f4565b604080518082019091526004815260e260020a631b9d5b1b02602082015291506121f4565b60408051602a80825260608083019093528291600091829182916020820161054080388339505081519195507f300000000000000000000000000000000000000000000000000000000000000091869150600090811061315357fe5b906020010190600160f860020a031916908160001a90535083517f7800000000000000000000000000000000000000000000000000000000000000908590600190811061319c57fe5b906020010190600160f860020a031916908160001a905350859250600091505b602882101561323057506030600f8316016039600160a060020a03821611156131e3576027015b8060f860020a0284836028036001018151811015156131fe57fe5b906020010190600160f860020a031916908160001a9053506010600160a060020a0384160492506001909101906131bc565b5091949350505050565b6060808260000151156130d2576040805190810160405280600c81526020017f7b2261646472657373223a220000000000000000000000000000000000000000815250905061329b612cbe610d5f8560200151600160a060020a03166130f7565b90506132de612cbe6040805190810160405280601681526020017f222c2266756e6374696f6e53656c6563746f72223a22000000000000000000008152506121d1565b90506132f0612cbe84604001516121d1565b9050613333612cbe6040805190810160405280600e81526020017f222c22617267756d656e7473223a0000000000000000000000000000000000008152506121d1565b9050613345612cbe84606001516121d1565b9050613388612cbe6040805190810160405280600c81526020017f2c22636f6e6669726d223a2200000000000000000000000000000000000000008152506121d1565b905061339a612cbe84608001516121d1565b90506130cb612cbe6040805190810160405280600281526020017f227d0000000000000000000000000000000000000000000000000000000000008152506121d1565b6060806000808460000151156135b557505060408051808201909152600c81527f7b22636f6c756d6e73223a5b0000000000000000000000000000000000000000602082015290506000805b8460200151518110156134ab5760008211156134735761347061346760408051908101604052806001815260200160fa60020a600b028152506121d1565b610da2856121d1565b92505b61349d613467610d5f87602001518481518110151561348e57fe5b906020019060200201516135de565b925060019182019101613429565b6134ec6134676040805190810160405280600a81526020017f5d2c22726f7773223a5b000000000000000000000000000000000000000000008152506121d1565b925060009150600090505b84604001515181101561356d5760008211156135385761353561346760408051908101604052806001815260200160fa60020a600b028152506121d1565b92505b61355f61346786604001518381518110151561355057fe5b906020019060200201516121d1565b9250600191820191016134f7565b6135ae6134676040805190810160405280600281526020017f5d7d0000000000000000000000000000000000000000000000000000000000008152506121d1565b93506135d6565b604080518082019091526004815260e260020a631b9d5b1b02602082015293505b505050919050565b6060808260000151156130d2576040805190810160405280600781526020017f7b226964223a22000000000000000000000000000000000000000000000000008152509050613633612cbe84602001516121d1565b9050613676612cbe6040805190810160405280600181526020017f22000000000000000000000000000000000000000000000000000000000000008152506121d1565b60808401515190915015613707576136ac612cbe60408051908101604052806001815260200160fa60020a600b028152506121d1565b90506136ef612cbe6040805190810160405280600981526020017f22616374696f6e223a00000000000000000000000000000000000000000000008152506121d1565b9050613704612cbe610d5f856080015161323a565b90505b613748612cbe6040805190810160405280600981526020017f2c2274797065223a2200000000000000000000000000000000000000000000008152506121d1565b905061375a612cbe84604001516121d1565b905061379d612cbe6040805190810160405280600b81526020017f222c226c6162656c223a220000000000000000000000000000000000000000008152506121d1565b905061339a612cbe84606001516121d1565b828054600181600116156101000203166002900490600052602060002090601f016020900481019282601f106137f057805160ff191683800117855561381d565b8280016001018555821561381d579182015b8281111561381d578251825591602001919060010190613802565b50613829929150613944565b5090565b60a06040519081016040528060608152602001606081526020016060815260200160008152602001606081525090565b6101a060405190810160405280600015158152602001606081526020016060815260200160608152602001606081526020016138976138c0565b81526020016138a46138ed565b905290565b604080518082019091526000808252602082015290565b6040805160a081018252600080825260208201526060918101829052818101829052608081019190915290565b60606040519081016040528060001515815260200160608152602001606081525090565b610120604051908101604052806000151581526020016060815260200160608152602001606081526020016138a46138c0565b6122c191905b80821115613829576000815560010161394a5600636c61696d61626c655f746f6b656e73000000000000000000000000000000006164647265737300000000000000000000000000000000000000000000000000636c61696d000000000000000000000000000000000000000000000000000000a165627a7a723058202222fe2eaccae07b122bf3a1b51283912bb19df4712718e7e6cb46829c3848760029",
  "source": "pragma solidity ^0.4.24;\n\nimport \"zeppelin-solidity/contracts/token/ERC20/DetailedERC20.sol\";\nimport \"tokenboost-solidity/contracts/widget/Localizable.sol\";\nimport \"tokenboost-solidity/contracts/widget/Widgets.sol\";\nimport \"../ClaimableTokenDistributionStrategy.sol\";\n\ncontract ClaimableTokenDistributionStrategyRenderer is Localizable {\n    using Widgets for Widgets.Widget;\n    using Elements for Elements.Element;\n    using strings for *;\n    using UintUtils for uint;\n    using AddressUtils for address;\n\n    string public constant CLAIMABLE_TOKENS = \"claimable_tokens\";\n    string public constant CLAIMABLE_TOKENS_SHORT_DESC = \"claimable_short_desc\";\n    string public constant CLAIMABLE_TOKENS_LONG_DESC = \"claimable_long_desc\";\n    string public constant ADDRESS = \"address\";\n    string public constant CLAIM = \"claim\";\n    string public constant CLAIM_SHORT_DESC = \"claim_short_desc\";\n    string public constant CLAIM_LONG_DESC = \"claim_long_desc\";\n    string public constant CLAIM_CONFIRM = \"claim_confirm\";\n\n    function adminWidgets(string _locale, ClaimableTokenDistributionStrategy _strategy) public view returns (string) {\n        return string(abi.encodePacked(\"[\", _claimableTokensWidget(_locale, _strategy), \"]\"));\n    }\n\n    function _claimableTokensWidget(string _locale, ClaimableTokenDistributionStrategy _strategy) private view returns (string json) {\n        Elements.Element[] memory elements = new Elements.Element[](1);\n        elements[0] = Elements.Element(\n            true,\n            CLAIMABLE_TOKENS,\n            \"table\",\n            resources[_locale][CLAIMABLE_TOKENS],\n            \"null\",\n            Actions.empty(),\n            Tables.Table(true, _columns(_locale, _strategy), _rows(_locale, _strategy))\n        );\n        Widgets.Widget memory widget = Widgets.Widget(\n            resources[_locale][CLAIMABLE_TOKENS],\n            resources[_locale][CLAIMABLE_TOKENS_SHORT_DESC],\n            resources[_locale][CLAIMABLE_TOKENS_LONG_DESC],\n            8,\n            elements\n        );\n        return widget.toJson();\n    }\n\n    function _columns(string _locale, ClaimableTokenDistributionStrategy _strategy) private view returns (Tables.Column[]) {\n        DetailedERC20 erc20 = DetailedERC20(_strategy.sale().token());\n        uint256 decimals = uint256(erc20.decimals());\n        Tables.Column[] memory columns = new Tables.Column[](2);\n        columns[0] = Tables.Column(\n            true,\n            ADDRESS,\n            \"address\",\n            resources[_locale][ADDRESS],\n            Actions.empty()\n        );\n        columns[1] = Tables.Column(\n            true,\n            CLAIMABLE_TOKENS,\n            \"token\".toSlice().concat(decimals.toString().toSlice()),\n            resources[_locale][CLAIMABLE_TOKENS],\n            Actions.empty()\n        );\n        return columns;\n    }\n\n    function _rows(string _locale, ClaimableTokenDistributionStrategy _strategy) private view returns (string[]) {\n        string[] memory rows = new string[](_strategy.numberOfPurchasers());\n        for (uint i = 0; i < rows.length; i++) {\n            address purchaser = _strategy.purchasers(i);\n            string memory row = '{\"address\":\"';\n            row = row.toSlice().concat(purchaser.toString().toSlice());\n            row = row.toSlice().concat('\",\"claimable_tokens\":'.toSlice());\n            row = row.toSlice().concat(_strategy.claimableTokensOf(purchaser).toString().toSlice());\n            row = row.toSlice().concat('}'.toSlice());\n            rows[i] = row;\n        }\n        return rows;\n    }\n\n    function userWidgets(string _locale, ClaimableTokenDistributionStrategy _strategy) public view returns (string) {\n        return string(abi.encodePacked(\"[\", _claimWidget(_locale, _strategy), \"]\"));\n    }\n\n    function _claimWidget(string _locale, ClaimableTokenDistributionStrategy _strategy) private view returns (string json) {\n        if (_strategy.sale().finished()) {\n            Elements.Element[] memory elements = new Elements.Element[](2);\n            DetailedERC20 erc20 = DetailedERC20(_strategy.sale().token());\n            uint256 decimals = uint256(erc20.decimals());\n            elements[0] = Elements.Element(\n                true,\n                CLAIMABLE_TOKENS,\n                \"token\".toSlice().concat(decimals.toString().toSlice()),\n                resources[_locale][CLAIMABLE_TOKENS],\n                _strategy.claimableTokensOf(tx.origin).toString(),\n                Actions.empty(),\n                Tables.empty()\n            );\n            elements[1] = Elements.Element(\n                true,\n                CLAIM,\n                \"button\",\n                resources[_locale][CLAIM],\n                \"null\",\n                Actions.Action(\n                    true,\n                    address(_strategy),\n                    \"claimTokens()\",\n                    '[]',\n                    resources[_locale][CLAIM_CONFIRM]\n                ),\n                Tables.empty()\n            );\n            Widgets.Widget memory widget = Widgets.Widget(\n                resources[_locale][CLAIM],\n                resources[_locale][CLAIM_SHORT_DESC],\n                resources[_locale][CLAIM_LONG_DESC],\n                4,\n                elements\n            );\n            return widget.toJson();\n        } else {\n            return \"\";\n        }\n    }\n\n    function inputs(string _locale, ClaimableTokenDistributionStrategy _strategy) public view returns (string) {\n        return \"[]\";\n    }\n}\n",
  "sourcePath": "/Users/yoonjae/SolidityProjects/tokenboost-solidity-erc20sale-strategies/contracts/strategy/sale/erc20/claimable-token-distribution/widget/ClaimableTokenDistributionStrategyRenderer.sol",
  "compiler": {
    "name": "solc",
    "version": "0.4.24+commit.e67f0147.Emscripten.clang"
  },
  "schemaVersion": "2.0.1",
  "updatedAt": "2018-10-11T22:24:15.464Z"
}