{
  "contractName": "CoinbaseUSDPriceStrategy",
  "abi": [
    {
      "constant": true,
      "inputs": [
        {
          "name": "_interfaceId",
          "type": "bytes4"
        }
      ],
      "name": "supportsInterface",
      "outputs": [
        {
          "name": "",
          "type": "bool"
        }
      ],
      "payable": false,
      "stateMutability": "view",
      "type": "function"
    },
    {
      "constant": true,
      "inputs": [],
      "name": "activated",
      "outputs": [
        {
          "name": "",
          "type": "bool"
        }
      ],
      "payable": false,
      "stateMutability": "view",
      "type": "function"
    },
    {
      "constant": true,
      "inputs": [],
      "name": "InterfaceId_ERC165",
      "outputs": [
        {
          "name": "",
          "type": "bytes4"
        }
      ],
      "payable": false,
      "stateMutability": "view",
      "type": "function"
    },
    {
      "constant": false,
      "inputs": [],
      "name": "deactivate",
      "outputs": [
        {
          "name": "",
          "type": "bool"
        }
      ],
      "payable": false,
      "stateMutability": "nonpayable",
      "type": "function"
    },
    {
      "constant": true,
      "inputs": [],
      "name": "InterfaceId_Strategy",
      "outputs": [
        {
          "name": "",
          "type": "bytes4"
        }
      ],
      "payable": false,
      "stateMutability": "view",
      "type": "function"
    },
    {
      "constant": true,
      "inputs": [],
      "name": "sale",
      "outputs": [
        {
          "name": "",
          "type": "address"
        }
      ],
      "payable": false,
      "stateMutability": "view",
      "type": "function"
    },
    {
      "constant": true,
      "inputs": [],
      "name": "template",
      "outputs": [
        {
          "name": "",
          "type": "address"
        }
      ],
      "payable": false,
      "stateMutability": "view",
      "type": "function"
    },
    {
      "constant": false,
      "inputs": [],
      "name": "renounceOwnership",
      "outputs": [],
      "payable": false,
      "stateMutability": "nonpayable",
      "type": "function"
    },
    {
      "constant": true,
      "inputs": [],
      "name": "renderer",
      "outputs": [
        {
          "name": "",
          "type": "address"
        }
      ],
      "payable": false,
      "stateMutability": "view",
      "type": "function"
    },
    {
      "constant": true,
      "inputs": [],
      "name": "owner",
      "outputs": [
        {
          "name": "",
          "type": "address"
        }
      ],
      "payable": false,
      "stateMutability": "view",
      "type": "function"
    },
    {
      "constant": true,
      "inputs": [],
      "name": "centsPerToken",
      "outputs": [
        {
          "name": "",
          "type": "uint256"
        }
      ],
      "payable": false,
      "stateMutability": "view",
      "type": "function"
    },
    {
      "constant": true,
      "inputs": [],
      "name": "InterfaceId_ERC20SaleStrategy",
      "outputs": [
        {
          "name": "",
          "type": "bytes4"
        }
      ],
      "payable": false,
      "stateMutability": "view",
      "type": "function"
    },
    {
      "constant": true,
      "inputs": [],
      "name": "tokensPerEth",
      "outputs": [
        {
          "name": "",
          "type": "uint256"
        }
      ],
      "payable": false,
      "stateMutability": "view",
      "type": "function"
    },
    {
      "constant": true,
      "inputs": [],
      "name": "InterfaceId_SaleStrategy",
      "outputs": [
        {
          "name": "",
          "type": "bytes4"
        }
      ],
      "payable": false,
      "stateMutability": "view",
      "type": "function"
    },
    {
      "constant": false,
      "inputs": [
        {
          "name": "_newOwner",
          "type": "address"
        }
      ],
      "name": "transferOwnership",
      "outputs": [],
      "payable": false,
      "stateMutability": "nonpayable",
      "type": "function"
    },
    {
      "constant": true,
      "inputs": [],
      "name": "InterfaceId_Contract",
      "outputs": [
        {
          "name": "",
          "type": "bytes4"
        }
      ],
      "payable": false,
      "stateMutability": "view",
      "type": "function"
    },
    {
      "inputs": [
        {
          "name": "_owner",
          "type": "address"
        },
        {
          "name": "_sale",
          "type": "address"
        }
      ],
      "payable": false,
      "stateMutability": "nonpayable",
      "type": "constructor"
    },
    {
      "anonymous": false,
      "inputs": [
        {
          "indexed": false,
          "name": "centsPerEth",
          "type": "uint256"
        },
        {
          "indexed": false,
          "name": "centsPerToken",
          "type": "uint256"
        },
        {
          "indexed": false,
          "name": "tokensPerEth",
          "type": "uint256"
        }
      ],
      "name": "PriceCalculated",
      "type": "event"
    },
    {
      "anonymous": false,
      "inputs": [
        {
          "indexed": true,
          "name": "previousOwner",
          "type": "address"
        }
      ],
      "name": "OwnershipRenounced",
      "type": "event"
    },
    {
      "anonymous": false,
      "inputs": [
        {
          "indexed": true,
          "name": "previousOwner",
          "type": "address"
        },
        {
          "indexed": true,
          "name": "newOwner",
          "type": "address"
        }
      ],
      "name": "OwnershipTransferred",
      "type": "event"
    },
    {
      "constant": false,
      "inputs": [
        {
          "name": "_centsPerToken",
          "type": "uint256"
        }
      ],
      "name": "update",
      "outputs": [],
      "payable": false,
      "stateMutability": "nonpayable",
      "type": "function"
    },
    {
      "constant": false,
      "inputs": [],
      "name": "activate",
      "outputs": [
        {
          "name": "",
          "type": "bool"
        }
      ],
      "payable": false,
      "stateMutability": "nonpayable",
      "type": "function"
    },
    {
      "constant": false,
      "inputs": [
        {
          "name": "myid",
          "type": "bytes32"
        },
        {
          "name": "result",
          "type": "string"
        }
      ],
      "name": "__callback",
      "outputs": [],
      "payable": false,
      "stateMutability": "nonpayable",
      "type": "function"
    },
    {
      "constant": false,
      "inputs": [
        {
          "name": "_myid",
          "type": "bytes32"
        },
        {
          "name": "_result",
          "type": "string"
        },
        {
          "name": "_proof",
          "type": "bytes"
        }
      ],
      "name": "__callback",
      "outputs": [],
      "payable": false,
      "stateMutability": "nonpayable",
      "type": "function"
    },
    {
      "constant": true,
      "inputs": [],
      "name": "started",
      "outputs": [
        {
          "name": "",
          "type": "bool"
        }
      ],
      "payable": false,
      "stateMutability": "view",
      "type": "function"
    },
    {
      "constant": true,
      "inputs": [],
      "name": "successful",
      "outputs": [
        {
          "name": "",
          "type": "bool"
        }
      ],
      "payable": false,
      "stateMutability": "view",
      "type": "function"
    },
    {
      "constant": true,
      "inputs": [],
      "name": "finished",
      "outputs": [
        {
          "name": "",
          "type": "bool"
        }
      ],
      "payable": false,
      "stateMutability": "view",
      "type": "function"
    },
    {
      "constant": true,
      "inputs": [
        {
          "name": "_purchaser",
          "type": "address"
        },
        {
          "name": "_weiAmount",
          "type": "uint256"
        }
      ],
      "name": "purchasable",
      "outputs": [
        {
          "name": "",
          "type": "bool"
        }
      ],
      "payable": false,
      "stateMutability": "view",
      "type": "function"
    },
    {
      "constant": true,
      "inputs": [
        {
          "name": "_purchaser",
          "type": "address"
        },
        {
          "name": "_weiAmount",
          "type": "uint256"
        }
      ],
      "name": "tokenRate",
      "outputs": [
        {
          "name": "",
          "type": "uint256"
        }
      ],
      "payable": false,
      "stateMutability": "view",
      "type": "function"
    },
    {
      "constant": false,
      "inputs": [
        {
          "name": "_purchaser",
          "type": "address"
        },
        {
          "name": "_tokenAmount",
          "type": "uint256"
        }
      ],
      "name": "supplyTokens",
      "outputs": [
        {
          "name": "",
          "type": "bool"
        }
      ],
      "payable": false,
      "stateMutability": "nonpayable",
      "type": "function"
    },
    {
      "constant": false,
      "inputs": [
        {
          "name": "_purchaser",
          "type": "address"
        },
        {
          "name": "_tokenAmount",
          "type": "uint256"
        }
      ],
      "name": "receivesTokens",
      "outputs": [
        {
          "name": "",
          "type": "bool"
        }
      ],
      "payable": false,
      "stateMutability": "nonpayable",
      "type": "function"
    },
    {
      "constant": true,
      "inputs": [
        {
          "name": "locale",
          "type": "string"
        }
      ],
      "name": "adminWidgets",
      "outputs": [
        {
          "name": "json",
          "type": "string"
        }
      ],
      "payable": false,
      "stateMutability": "view",
      "type": "function"
    },
    {
      "constant": true,
      "inputs": [
        {
          "name": "locale",
          "type": "string"
        }
      ],
      "name": "userWidgets",
      "outputs": [
        {
          "name": "json",
          "type": "string"
        }
      ],
      "payable": false,
      "stateMutability": "view",
      "type": "function"
    },
    {
      "constant": true,
      "inputs": [
        {
          "name": "locale",
          "type": "string"
        }
      ],
      "name": "inputs",
      "outputs": [
        {
          "name": "json",
          "type": "string"
        }
      ],
      "payable": false,
      "stateMutability": "view",
      "type": "function"
    }
  ],
  "bytecode": "0x60806040523480156200001157600080fd5b5060405160408062001d5783398101604052805160209091015160008054600160a060020a03191633179055818181818180620000777f01ffc9a700000000000000000000000000000000000000000000000000000000640100000000620001ca810204565b600160a060020a03811615156200008d57600080fd5b6002805433600160a060020a03199182161790915560008054909116600160a060020a038316179055620000ea7f6125ede500000000000000000000000000000000000000000000000000000000640100000000620001ca810204565b506200011f7f6e30192500000000000000000000000000000000000000000000000000000000640100000000620001ca810204565b5060038054600160a060020a031916600160a060020a0383161790556200016f7f04c8123d00000000000000000000000000000000000000000000000000000000640100000000620001ca810204565b505060048054600160a060020a031916600160a060020a038316179055620001c07fa0d0304b00000000000000000000000000000000000000000000000000000000640100000000620001ca810204565b505050506200023a565b7fffffffff000000000000000000000000000000000000000000000000000000008082161415620001fa57600080fd5b7fffffffff00000000000000000000000000000000000000000000000000000000166000908152600160208190526040909120805460ff19169091179055565b611b0d806200024a6000396000f3006080604052600436106101665763ffffffff60e060020a60003504166301bd3411811461016b57806301ffc9a7146102395780630f15f4c014610284578063186601ca1461029957806319fa8f50146102ae5780631f2698ab146102f557806327dc297e1461030a57806338bbfa501461036a5780634f9a82d61461040657806351b42b001461042a5780635589530e1461043f578063587775e81461047557806364b630d8146104995780636ad1fe02146104ae5780636f2ddd93146104df578063715018a6146104f457806382ab890a146105095780638ada6b0f146105215780638da5cb5b146105365780638f3b6b841461054b578063908ba64814610560578063944ac32b146105b95780639a9e3fd8146102f5578063a3a8fd2c146105ce578063bef4876b146102f5578063cbdd69b514610627578063ce30824e1461063c578063e67c864614610475578063f2fde38b14610651578063fbf964eb14610672575b600080fd5b34801561017757600080fd5b506040805160206004803580820135601f81018490048402850184019095528484526101c49436949293602493928401919081908401838280828437509497506106879650505050505050565b6040805160208082528351818301528351919283929083019185019080838360005b838110156101fe5781810151838201526020016101e6565b50505050905090810190601f16801561022b5780820380516001836020036101000a031916815260200191505b509250505060405180910390f35b34801561024557600080fd5b506102707bffffffffffffffffffffffffffffffffffffffffffffffffffffffff19600435166107f0565b604080519115158252519081900360200190f35b34801561029057600080fd5b50610270610824565b3480156102a557600080fd5b5061027061099e565b3480156102ba57600080fd5b506102c36109bf565b604080517bffffffffffffffffffffffffffffffffffffffffffffffffffffffff199092168252519081900360200190f35b34801561030157600080fd5b506102706109e3565b34801561031657600080fd5b5060408051602060046024803582810135601f81018590048502860185019096528585526103689583359536956044949193909101919081908401838280828437509497506109e89650505050505050565b005b34801561037657600080fd5b5060408051602060046024803582810135601f810185900485028601850190965285855261036895833595369560449491939091019190819084018382808284375050604080516020601f89358b018035918201839004830284018301909452808352979a999881019791965091820194509250829150840183828082843750949750610a089650505050505050565b34801561041257600080fd5b50610270600160a060020a0360043516602435610acd565b34801561043657600080fd5b50610270610ad5565b34801561044b57600080fd5b50610463600160a060020a0360043516602435610b9a565b60408051918252519081900360200190f35b34801561048157600080fd5b50610270600160a060020a0360043516602435610ba2565b3480156104a557600080fd5b506102c3610baa565b3480156104ba57600080fd5b506104c3610bce565b60408051600160a060020a039092168252519081900360200190f35b3480156104eb57600080fd5b506104c3610bdd565b34801561050057600080fd5b50610368610bec565b34801561051557600080fd5b50610368600435610c4b565b34801561052d57600080fd5b506104c3610cf8565b34801561054257600080fd5b506104c3610d10565b34801561055757600080fd5b50610463610d1f565b34801561056c57600080fd5b506040805160206004803580820135601f81018490048402850184019095528484526101c4943694929360249392840191908190840183828082843750949750610d259650505050505050565b3480156105c557600080fd5b506102c3610db2565b3480156105da57600080fd5b506040805160206004803580820135601f81018490048402850184019095528484526101c4943694929360249392840191908190840183828082843750949750610dd69650505050505050565b34801561063357600080fd5b50610463610e63565b34801561064857600080fd5b506102c3610e69565b34801561065d57600080fd5b50610368600160a060020a0360043516610e8d565b34801561067e57600080fd5b506102c3610eb0565b604080517fbf3bed54000000000000000000000000000000000000000000000000000000008152306024820181905260048201928352835160448301528351606093735f5f436f696e62617365555344507269636553009363bf3bed549387939092918291606490910190602086019080838360005b838110156107155781810151838201526020016106fd565b50505050905090810190601f1680156107425780820380516001836020036101000a031916815260200191505b509350505050600060405180830381600087803b15801561076257600080fd5b505af1158015610776573d6000803e3d6000fd5b505050506040513d6000823e601f3d908101601f19168201604052602081101561079f57600080fd5b8101908080516401000000008111156107b757600080fd5b820160208101848111156107ca57600080fd5b81516401000000008111828201871017156107e457600080fd5b50909695505050505050565b7bffffffffffffffffffffffffffffffffffffffffffffffffffffffff191660009081526001602052604090205460ff1690565b60008054600160a060020a0316331461083c57600080fd5b600360009054906101000a9004600160a060020a0316600160a060020a031663186601ca6040518163ffffffff1660e060020a028152600401602060405180830381600087803b15801561088f57600080fd5b505af11580156108a3573d6000803e3d6000fd5b505050506040513d60208110156108b957600080fd5b5051156108c557600080fd5b600b546000106108d457600080fd5b6109956040805190810160405280600381526020017f55524c0000000000000000000000000000000000000000000000000000000000815250608060405190810160405280604181526020017f6a736f6e2868747470733a2f2f6170692e636f696e626173652e636f6d2f763281526020017f2f7072696365732f4554482d5553442f73706f74292e646174612e616d6f756e81526020017f7400000000000000000000000000000000000000000000000000000000000000815250610ed4565b50600190505b90565b60025474010000000000000000000000000000000000000000900460ff1681565b7f01ffc9a70000000000000000000000000000000000000000000000000000000081565b600090565b604080516000815260208101909152610a049083908390610a08565b5050565b6000610a126112cb565b600160a060020a03163314610a2657600080fd5b610a318360026114c0565b9050610a48600b548261167a90919063ffffffff16565b600a819055600b546040805184815260208101929092528181019290925290517f313f45dd6c7fce10495e78d7f1d9d68a82e9a86c3db5e879c2e89b10c28b6f0d9181900360600190a150506002805474ff00000000000000000000000000000000000000001916740100000000000000000000000000000000000000001790555050565b600192915050565b60008054600160a060020a03163314610aed57600080fd5b600360009054906101000a9004600160a060020a0316600160a060020a031663186601ca6040518163ffffffff1660e060020a028152600401602060405180830381600087803b158015610b4057600080fd5b505af1158015610b54573d6000803e3d6000fd5b505050506040513d6020811015610b6a57600080fd5b505115610b7657600080fd5b506002805474ff000000000000000000000000000000000000000019169055600190565b5050600a5490565b600092915050565b7f6e3019250000000000000000000000000000000000000000000000000000000081565b600454600160a060020a031681565b600254600160a060020a031681565b600054600160a060020a03163314610c0357600080fd5b60008054604051600160a060020a03909116917ff8df31144d9c2f0f6b59d69b8b98abd5459d07f2742c4df920b25aae33c6482091a260008054600160a060020a0319169055565b600054600160a060020a03163314610c6257600080fd5b600360009054906101000a9004600160a060020a0316600160a060020a031663186601ca6040518163ffffffff1660e060020a028152600401602060405180830381600087803b158015610cb557600080fd5b505af1158015610cc9573d6000803e3d6000fd5b505050506040513d6020811015610cdf57600080fd5b505115610ceb57600080fd5b600b819055610a04610824565b735f5f436f696e626173655553445072696365530081565b600054600160a060020a031681565b600b5481565b604080517fe77cee3d000000000000000000000000000000000000000000000000000000008152306024820181905260048201928352835160448301528351606093735f5f436f696e62617365555344507269636553009363e77cee3d938793909291829160649091019060208601908083836000838110156107155781810151838201526020016106fd565b7fa0d0304b0000000000000000000000000000000000000000000000000000000081565b604080517fe9499555000000000000000000000000000000000000000000000000000000008152306024820181905260048201928352835160448301528351606093735f5f436f696e62617365555344507269636553009363e9499555938793909291829160649091019060208601908083836000838110156107155781810151838201526020016106fd565b600a5481565b7f04c8123d0000000000000000000000000000000000000000000000000000000081565b600054600160a060020a03163314610ea457600080fd5b610ead8161168f565b50565b7f6125ede50000000000000000000000000000000000000000000000000000000081565b6005546000908190600160a060020a03161580610f035750600554610f0190600160a060020a03166116ff565b155b15610f1457610f126000611703565b505b600560009054906101000a9004600160a060020a0316600160a060020a03166338cc48316040518163ffffffff1660e060020a028152600401602060405180830381600087803b158015610f6757600080fd5b505af1158015610f7b573d6000803e3d6000fd5b505050506040513d6020811015610f9157600080fd5b5051600654600160a060020a0390811691161461104757600560009054906101000a9004600160a060020a0316600160a060020a03166338cc48316040518163ffffffff1660e060020a028152600401602060405180830381600087803b158015610ffb57600080fd5b505af115801561100f573d6000803e3d6000fd5b505050506040513d602081101561102557600080fd5b505160068054600160a060020a031916600160a060020a039092169190911790555b6006546040517f524f3889000000000000000000000000000000000000000000000000000000008152602060048201818152875160248401528751600160a060020a039094169363524f388993899383926044909201919085019080838360005b838110156110c05781810151838201526020016110a8565b50505050905090810190601f1680156110ed5780820380516001836020036101000a031916815260200191505b5092505050602060405180830381600087803b15801561110c57600080fd5b505af1158015611120573d6000803e3d6000fd5b505050506040513d602081101561113657600080fd5b50519050670de0b6b3a764000062030d403a020181111561115a57600091506112c4565b6006546040517fadf59f99000000000000000000000000000000000000000000000000000000008152600060048201818152606060248401908152885160648501528851600160a060020a039095169463adf59f99948794938b938b939192909160448201916084019060208701908083838b5b838110156111e65781810151838201526020016111ce565b50505050905090810190601f1680156112135780820380516001836020036101000a031916815260200191505b50838103825284518152845160209182019186019080838360005b8381101561124657818101518382015260200161122e565b50505050905090810190601f1680156112735780820380516001836020036101000a031916815260200191505b50955050505050506020604051808303818588803b15801561129457600080fd5b505af11580156112a8573d6000803e3d6000fd5b50505050506040513d60208110156112bf57600080fd5b505191505b5092915050565b600554600090600160a060020a031615806112f857506005546112f690600160a060020a03166116ff565b155b15611309576113076000611703565b505b600560009054906101000a9004600160a060020a0316600160a060020a03166338cc48316040518163ffffffff1660e060020a028152600401602060405180830381600087803b15801561135c57600080fd5b505af1158015611370573d6000803e3d6000fd5b505050506040513d602081101561138657600080fd5b5051600654600160a060020a0390811691161461143c57600560009054906101000a9004600160a060020a0316600160a060020a03166338cc48316040518163ffffffff1660e060020a028152600401602060405180830381600087803b1580156113f057600080fd5b505af1158015611404573d6000803e3d6000fd5b505050506040513d602081101561141a57600080fd5b505160068054600160a060020a031916600160a060020a039092169190911790555b600660009054906101000a9004600160a060020a0316600160a060020a031663c281d19e6040518163ffffffff1660e060020a028152600401602060405180830381600087803b15801561148f57600080fd5b505af11580156114a3573d6000803e3d6000fd5b505050506040513d60208110156114b957600080fd5b5051905090565b6000828180805b835181101561165d5783517f30000000000000000000000000000000000000000000000000000000000000009085908390811061150057fe5b90602001015160f860020a900460f860020a027effffffffffffffffffffffffffffffffffffffffffffffffffffffffffffff1916101580156115a6575083517f39000000000000000000000000000000000000000000000000000000000000009085908390811061156e57fe5b90602001015160f860020a900460f860020a027effffffffffffffffffffffffffffffffffffffffffffffffffffffffffffff191611155b156115ff5781156115c5578515156115bd5761165d565b600019909501945b600a83029250603084828151811015156115db57fe5b90602001015160f860020a900460f860020a0260f860020a90040383019250611655565b838181518110151561160d57fe5b90602001015160f860020a900460f860020a027effffffffffffffffffffffffffffffffffffffffffffffffffffffffffffff1916602e60f860020a02141561165557600191505b6001016114c7565b600086111561166f5785600a0a830292505b509095945050505050565b6000818381151561168757fe5b049392505050565b600160a060020a03811615156116a457600080fd5b60008054604051600160a060020a03808516939216917f8be0079c531659141344cd1fd0a4f28419497f9722a3daafe3b4186f6b6457e091a360008054600160a060020a031916600160a060020a0392909216919091179055565b3b90565b600061170d611713565b92915050565b600080611733731d3b2638a7cc9f2cb3d298a3da7a90b67e5506ed6116ff565b11156117a45760058054600160a060020a031916731d3b2638a7cc9f2cb3d298a3da7a90b67e5506ed17905560408051808201909152600b81527f6574685f6d61696e6e6574000000000000000000000000000000000000000000602082015261179c90611a3b565b50600161099b565b60006117c373c03a2615d5efaf5f49f60b7bb6583eaec212fdf16116ff565b111561182c5760058054600160a060020a03191673c03a2615d5efaf5f49f60b7bb6583eaec212fdf117905560408051808201909152600c81527f6574685f726f707374656e330000000000000000000000000000000000000000602082015261179c90611a3b565b600061184b73b7a07bcf2ba2f2703b24c0691b5278999c59ac7e6116ff565b11156118b45760058054600160a060020a03191673b7a07bcf2ba2f2703b24c0691b5278999c59ac7e17905560408051808201909152600981527f6574685f6b6f76616e0000000000000000000000000000000000000000000000602082015261179c90611a3b565b60006118d373146500cfd35b22e4a392fe0adc06de1a1368ed486116ff565b111561193c5760058054600160a060020a03191673146500cfd35b22e4a392fe0adc06de1a1368ed4817905560408051808201909152600b81527f6574685f72696e6b656279000000000000000000000000000000000000000000602082015261179c90611a3b565b600061195b736f485c8bf6fc43ea212e93bbf8ce046c7f1cb4756116ff565b111561198f575060058054600160a060020a031916736f485c8bf6fc43ea212e93bbf8ce046c7f1cb475179055600161099b565b60006119ae7320e12a1f859b3feae5fb2a0a32c18f5a65555bbf6116ff565b11156119e2575060058054600160a060020a0319167320e12a1f859b3feae5fb2a0a32c18f5a65555bbf179055600161099b565b6000611a017351efaf4c8b3c9afbd5ab9f4bbc82784ab6ef8faa6116ff565b1115611a35575060058054600160a060020a0319167351efaf4c8b3c9afbd5ab9f4bbc82784ab6ef8faa179055600161099b565b50600090565b8051610a04906007906020840190828054600181600116156101000203166002900490600052602060002090601f016020900481019282601f10611a8a57805160ff1916838001178555611ab7565b82800160010185558215611ab7579182015b82811115611ab7578251825591602001919060010190611a9c565b50611ac3929150611ac7565b5090565b61099b91905b80821115611ac35760008155600101611acd5600a165627a7a723058202c39d33724fa3b33ed0b4e96235982d78e28448a79bc9041ab87723e167fc6480029",
  "source": "pragma solidity ^0.4.24;\n\nimport \"oraclize-api/contracts/usingOraclize.sol\";\nimport \"tokenboost-solidity/contracts/strategy/sale/erc20/ERC20SaleStrategy.sol\";\nimport \"tokenboost-solidity/contracts/widget/Renderable.sol\";\nimport \"./widget/CoinbaseUSDPriceStrategyRenderer.sol\";\n\ncontract CoinbaseUSDPriceStrategy is ERC20SaleStrategy, Renderable, usingOraclize {\n    using SafeMath for uint;\n\n    CoinbaseUSDPriceStrategyRenderer public constant renderer = CoinbaseUSDPriceStrategyRenderer(address(bytes20(\"__CoinbaseUSDPriceS\")));\n\n    event PriceCalculated(uint256 centsPerEth, uint256 centsPerToken, uint256 tokensPerEth);\n\n    uint256 public tokensPerEth;\n    uint256 public centsPerToken;\n\n    constructor(address _owner, ERC20Sale _sale) public ERC20SaleStrategy(_owner, _sale) {\n    }\n\n    function update(uint256 _centsPerToken) public onlyOwner whenSaleNotActivated {\n        centsPerToken = _centsPerToken;\n        activate();\n    }\n\n    function activate() onlyOwner whenSaleNotActivated public returns (bool) {\n        require(centsPerToken > 0);\n        oraclize_query(\"URL\", \"json(https://api.coinbase.com/v2/prices/ETH-USD/spot).data.amount\");\n        return true;\n    }\n\n    function __callback(bytes32 _myid, string _result, bytes _proof) {\n        require(msg.sender == oraclize_cbAddress());\n\n        uint256 centsPerEth = parseInt(_result, 2);\n        tokensPerEth = centsPerEth.div(centsPerToken);\n\n        emit PriceCalculated(centsPerEth, centsPerToken, tokensPerEth);\n\n        activated = true;\n    }\n\n    function started() public view returns (bool) {\n        return false;\n    }\n\n    function successful() public view returns (bool) {\n        return false;\n    }\n\n    function finished() public view returns (bool) {\n        return false;\n    }\n\n    function purchasable(address _purchaser, uint256 _weiAmount) public view returns (bool) {\n        return true;\n    }\n\n    function tokenRate(address _purchaser, uint256 _weiAmount) public view returns (uint256) {\n        return tokensPerEth;\n    }\n\n    function supplyTokens(address _purchaser, uint256 _tokenAmount) public returns (bool) {\n        return false;\n    }\n\n    function receivesTokens(address _purchaser, uint256 _tokenAmount) public returns (bool) {\n        return false;\n    }\n\n    function adminWidgets(string locale) public view returns (string json) {\n        return renderer.adminWidgets(locale, this);\n    }\n\n    function userWidgets(string locale) public view returns (string json) {\n        return renderer.userWidgets(locale, this);\n    }\n\n    function inputs(string locale) public view returns (string json) {\n        return renderer.inputs(locale, this);\n    }\n}\n",
  "sourcePath": "/Users/yoonjae/SolidityProjects/tokenboost-solidity-erc20sale-strategies/contracts/strategy/sale/erc20/coinbase-usd-price/CoinbaseUSDPriceStrategy.sol",
  "compiler": {
    "name": "solc",
    "version": "0.4.24+commit.e67f0147.Emscripten.clang"
  },
  "schemaVersion": "2.0.1",
  "updatedAt": "2018-10-19T08:14:14.476Z"
}