{
  "contractName": "CoinbaseUSDPriceStrategy",
  "abi": [
    {
      "constant": true,
      "inputs": [
        {
          "name": "_interfaceId",
          "type": "bytes4"
        }
      ],
      "name": "supportsInterface",
      "outputs": [
        {
          "name": "",
          "type": "bool"
        }
      ],
      "payable": false,
      "stateMutability": "view",
      "type": "function"
    },
    {
      "constant": true,
      "inputs": [],
      "name": "activated",
      "outputs": [
        {
          "name": "",
          "type": "bool"
        }
      ],
      "payable": false,
      "stateMutability": "view",
      "type": "function"
    },
    {
      "constant": true,
      "inputs": [],
      "name": "InterfaceId_ERC165",
      "outputs": [
        {
          "name": "",
          "type": "bytes4"
        }
      ],
      "payable": false,
      "stateMutability": "view",
      "type": "function"
    },
    {
      "constant": false,
      "inputs": [],
      "name": "deactivate",
      "outputs": [
        {
          "name": "",
          "type": "bool"
        }
      ],
      "payable": false,
      "stateMutability": "nonpayable",
      "type": "function"
    },
    {
      "constant": true,
      "inputs": [],
      "name": "InterfaceId_Strategy",
      "outputs": [
        {
          "name": "",
          "type": "bytes4"
        }
      ],
      "payable": false,
      "stateMutability": "view",
      "type": "function"
    },
    {
      "constant": true,
      "inputs": [],
      "name": "sale",
      "outputs": [
        {
          "name": "",
          "type": "address"
        }
      ],
      "payable": false,
      "stateMutability": "view",
      "type": "function"
    },
    {
      "constant": true,
      "inputs": [],
      "name": "template",
      "outputs": [
        {
          "name": "",
          "type": "address"
        }
      ],
      "payable": false,
      "stateMutability": "view",
      "type": "function"
    },
    {
      "constant": false,
      "inputs": [],
      "name": "renounceOwnership",
      "outputs": [],
      "payable": false,
      "stateMutability": "nonpayable",
      "type": "function"
    },
    {
      "constant": true,
      "inputs": [],
      "name": "renderer",
      "outputs": [
        {
          "name": "",
          "type": "address"
        }
      ],
      "payable": false,
      "stateMutability": "view",
      "type": "function"
    },
    {
      "constant": true,
      "inputs": [],
      "name": "owner",
      "outputs": [
        {
          "name": "",
          "type": "address"
        }
      ],
      "payable": false,
      "stateMutability": "view",
      "type": "function"
    },
    {
      "constant": true,
      "inputs": [],
      "name": "centsPerToken",
      "outputs": [
        {
          "name": "",
          "type": "uint256"
        }
      ],
      "payable": false,
      "stateMutability": "view",
      "type": "function"
    },
    {
      "constant": true,
      "inputs": [],
      "name": "InterfaceId_ERC20SaleStrategy",
      "outputs": [
        {
          "name": "",
          "type": "bytes4"
        }
      ],
      "payable": false,
      "stateMutability": "view",
      "type": "function"
    },
    {
      "constant": true,
      "inputs": [],
      "name": "tokensPerEth",
      "outputs": [
        {
          "name": "",
          "type": "uint256"
        }
      ],
      "payable": false,
      "stateMutability": "view",
      "type": "function"
    },
    {
      "constant": true,
      "inputs": [],
      "name": "InterfaceId_SaleStrategy",
      "outputs": [
        {
          "name": "",
          "type": "bytes4"
        }
      ],
      "payable": false,
      "stateMutability": "view",
      "type": "function"
    },
    {
      "constant": false,
      "inputs": [
        {
          "name": "_newOwner",
          "type": "address"
        }
      ],
      "name": "transferOwnership",
      "outputs": [],
      "payable": false,
      "stateMutability": "nonpayable",
      "type": "function"
    },
    {
      "constant": true,
      "inputs": [],
      "name": "InterfaceId_Contract",
      "outputs": [
        {
          "name": "",
          "type": "bytes4"
        }
      ],
      "payable": false,
      "stateMutability": "view",
      "type": "function"
    },
    {
      "inputs": [
        {
          "name": "_owner",
          "type": "address"
        },
        {
          "name": "_sale",
          "type": "address"
        }
      ],
      "payable": false,
      "stateMutability": "nonpayable",
      "type": "constructor"
    },
    {
      "anonymous": false,
      "inputs": [
        {
          "indexed": false,
          "name": "centsPerEth",
          "type": "uint256"
        },
        {
          "indexed": false,
          "name": "centsPerToken",
          "type": "uint256"
        },
        {
          "indexed": false,
          "name": "tokensPerEth",
          "type": "uint256"
        }
      ],
      "name": "PriceCalculated",
      "type": "event"
    },
    {
      "anonymous": false,
      "inputs": [
        {
          "indexed": true,
          "name": "previousOwner",
          "type": "address"
        }
      ],
      "name": "OwnershipRenounced",
      "type": "event"
    },
    {
      "anonymous": false,
      "inputs": [
        {
          "indexed": true,
          "name": "previousOwner",
          "type": "address"
        },
        {
          "indexed": true,
          "name": "newOwner",
          "type": "address"
        }
      ],
      "name": "OwnershipTransferred",
      "type": "event"
    },
    {
      "constant": false,
      "inputs": [
        {
          "name": "_centsPerToken",
          "type": "uint256"
        }
      ],
      "name": "update",
      "outputs": [],
      "payable": false,
      "stateMutability": "nonpayable",
      "type": "function"
    },
    {
      "constant": false,
      "inputs": [],
      "name": "activate",
      "outputs": [
        {
          "name": "",
          "type": "bool"
        }
      ],
      "payable": false,
      "stateMutability": "nonpayable",
      "type": "function"
    },
    {
      "constant": false,
      "inputs": [
        {
          "name": "myid",
          "type": "bytes32"
        },
        {
          "name": "result",
          "type": "string"
        }
      ],
      "name": "__callback",
      "outputs": [],
      "payable": false,
      "stateMutability": "nonpayable",
      "type": "function"
    },
    {
      "constant": false,
      "inputs": [
        {
          "name": "_myid",
          "type": "bytes32"
        },
        {
          "name": "_result",
          "type": "string"
        },
        {
          "name": "_proof",
          "type": "bytes"
        }
      ],
      "name": "__callback",
      "outputs": [],
      "payable": false,
      "stateMutability": "nonpayable",
      "type": "function"
    },
    {
      "constant": true,
      "inputs": [],
      "name": "started",
      "outputs": [
        {
          "name": "",
          "type": "bool"
        }
      ],
      "payable": false,
      "stateMutability": "view",
      "type": "function"
    },
    {
      "constant": true,
      "inputs": [],
      "name": "successful",
      "outputs": [
        {
          "name": "",
          "type": "bool"
        }
      ],
      "payable": false,
      "stateMutability": "view",
      "type": "function"
    },
    {
      "constant": true,
      "inputs": [],
      "name": "finished",
      "outputs": [
        {
          "name": "",
          "type": "bool"
        }
      ],
      "payable": false,
      "stateMutability": "view",
      "type": "function"
    },
    {
      "constant": true,
      "inputs": [
        {
          "name": "_purchaser",
          "type": "address"
        },
        {
          "name": "_weiAmount",
          "type": "uint256"
        }
      ],
      "name": "purchasable",
      "outputs": [
        {
          "name": "",
          "type": "bool"
        }
      ],
      "payable": false,
      "stateMutability": "view",
      "type": "function"
    },
    {
      "constant": true,
      "inputs": [
        {
          "name": "_purchaser",
          "type": "address"
        },
        {
          "name": "_weiAmount",
          "type": "uint256"
        }
      ],
      "name": "tokenRate",
      "outputs": [
        {
          "name": "",
          "type": "uint256"
        }
      ],
      "payable": false,
      "stateMutability": "view",
      "type": "function"
    },
    {
      "constant": false,
      "inputs": [
        {
          "name": "_purchaser",
          "type": "address"
        },
        {
          "name": "_tokenAmount",
          "type": "uint256"
        }
      ],
      "name": "supplyTokens",
      "outputs": [
        {
          "name": "",
          "type": "bool"
        }
      ],
      "payable": false,
      "stateMutability": "nonpayable",
      "type": "function"
    },
    {
      "constant": false,
      "inputs": [
        {
          "name": "_purchaser",
          "type": "address"
        },
        {
          "name": "_tokenAmount",
          "type": "uint256"
        }
      ],
      "name": "receivesTokens",
      "outputs": [
        {
          "name": "",
          "type": "bool"
        }
      ],
      "payable": false,
      "stateMutability": "nonpayable",
      "type": "function"
    },
    {
      "constant": true,
      "inputs": [
        {
          "name": "locale",
          "type": "string"
        }
      ],
      "name": "adminWidgets",
      "outputs": [
        {
          "name": "json",
          "type": "string"
        }
      ],
      "payable": false,
      "stateMutability": "view",
      "type": "function"
    },
    {
      "constant": true,
      "inputs": [
        {
          "name": "locale",
          "type": "string"
        }
      ],
      "name": "userWidgets",
      "outputs": [
        {
          "name": "json",
          "type": "string"
        }
      ],
      "payable": false,
      "stateMutability": "view",
      "type": "function"
    },
    {
      "constant": true,
      "inputs": [
        {
          "name": "locale",
          "type": "string"
        }
      ],
      "name": "inputs",
      "outputs": [
        {
          "name": "json",
          "type": "string"
        }
      ],
      "payable": false,
      "stateMutability": "view",
      "type": "function"
    }
  ],
  "bytecode": "0x60806040523480156200001157600080fd5b5060405160408062001d2b83398101604052805160209091015160008054600160a060020a03191633179055818181818180620000777f01ffc9a700000000000000000000000000000000000000000000000000000000640100000000620001ca810204565b600160a060020a03811615156200008d57600080fd5b6002805433600160a060020a03199182161790915560008054909116600160a060020a038316179055620000ea7f6125ede500000000000000000000000000000000000000000000000000000000640100000000620001ca810204565b506200011f7f6e30192500000000000000000000000000000000000000000000000000000000640100000000620001ca810204565b5060038054600160a060020a031916600160a060020a0383161790556200016f7f04c8123d00000000000000000000000000000000000000000000000000000000640100000000620001ca810204565b505060048054600160a060020a031916600160a060020a038316179055620001c07fa0d0304b00000000000000000000000000000000000000000000000000000000640100000000620001ca810204565b505050506200023a565b7fffffffff000000000000000000000000000000000000000000000000000000008082161415620001fa57600080fd5b7fffffffff00000000000000000000000000000000000000000000000000000000166000908152600160208190526040909120805460ff19169091179055565b611ae1806200024a6000396000f3006080604052600436106101665763ffffffff60e060020a60003504166301bd3411811461016b57806301ffc9a7146102395780630f15f4c014610284578063186601ca1461029957806319fa8f50146102ae5780631f2698ab146102f557806327dc297e1461030a57806338bbfa501461036a5780634f9a82d61461040657806351b42b001461042a5780635589530e1461043f578063587775e81461040657806364b630d8146104755780636ad1fe021461048a5780636f2ddd93146104bb578063715018a6146104d057806382ab890a146104e55780638ada6b0f146104fd5780638da5cb5b146105125780638f3b6b8414610527578063908ba6481461053c578063944ac32b146105955780639a9e3fd8146102f5578063a3a8fd2c146105aa578063bef4876b146102f5578063cbdd69b514610603578063ce30824e14610618578063e67c864614610406578063f2fde38b1461062d578063fbf964eb1461064e575b600080fd5b34801561017757600080fd5b506040805160206004803580820135601f81018490048402850184019095528484526101c49436949293602493928401919081908401838280828437509497506106639650505050505050565b6040805160208082528351818301528351919283929083019185019080838360005b838110156101fe5781810151838201526020016101e6565b50505050905090810190601f16801561022b5780820380516001836020036101000a031916815260200191505b509250505060405180910390f35b34801561024557600080fd5b506102707bffffffffffffffffffffffffffffffffffffffffffffffffffffffff19600435166107cc565b604080519115158252519081900360200190f35b34801561029057600080fd5b50610270610800565b3480156102a557600080fd5b5061027061097a565b3480156102ba57600080fd5b506102c361099b565b604080517bffffffffffffffffffffffffffffffffffffffffffffffffffffffff199092168252519081900360200190f35b34801561030157600080fd5b506102706109bf565b34801561031657600080fd5b5060408051602060046024803582810135601f81018590048502860185019096528585526103689583359536956044949193909101919081908401838280828437509497506109c49650505050505050565b005b34801561037657600080fd5b5060408051602060046024803582810135601f810185900485028601850190965285855261036895833595369560449491939091019190819084018382808284375050604080516020601f89358b018035918201839004830284018301909452808352979a9998810197919650918201945092508291508401838280828437509497506109e49650505050505050565b34801561041257600080fd5b50610270600160a060020a0360043516602435610aa9565b34801561043657600080fd5b50610270610ab1565b34801561044b57600080fd5b50610463600160a060020a0360043516602435610b76565b60408051918252519081900360200190f35b34801561048157600080fd5b506102c3610b7e565b34801561049657600080fd5b5061049f610ba2565b60408051600160a060020a039092168252519081900360200190f35b3480156104c757600080fd5b5061049f610bb1565b3480156104dc57600080fd5b50610368610bc0565b3480156104f157600080fd5b50610368600435610c1f565b34801561050957600080fd5b5061049f610ccc565b34801561051e57600080fd5b5061049f610ce4565b34801561053357600080fd5b50610463610cf3565b34801561054857600080fd5b506040805160206004803580820135601f81018490048402850184019095528484526101c4943694929360249392840191908190840183828082843750949750610cf99650505050505050565b3480156105a157600080fd5b506102c3610d86565b3480156105b657600080fd5b506040805160206004803580820135601f81018490048402850184019095528484526101c4943694929360249392840191908190840183828082843750949750610daa9650505050505050565b34801561060f57600080fd5b50610463610e37565b34801561062457600080fd5b506102c3610e3d565b34801561063957600080fd5b50610368600160a060020a0360043516610e61565b34801561065a57600080fd5b506102c3610e84565b604080517fbf3bed54000000000000000000000000000000000000000000000000000000008152306024820181905260048201928352835160448301528351606093735f5f436f696e62617365555344507269636553009363bf3bed549387939092918291606490910190602086019080838360005b838110156106f15781810151838201526020016106d9565b50505050905090810190601f16801561071e5780820380516001836020036101000a031916815260200191505b509350505050600060405180830381600087803b15801561073e57600080fd5b505af1158015610752573d6000803e3d6000fd5b505050506040513d6000823e601f3d908101601f19168201604052602081101561077b57600080fd5b81019080805164010000000081111561079357600080fd5b820160208101848111156107a657600080fd5b81516401000000008111828201871017156107c057600080fd5b50909695505050505050565b7bffffffffffffffffffffffffffffffffffffffffffffffffffffffff191660009081526001602052604090205460ff1690565b60008054600160a060020a0316331461081857600080fd5b600360009054906101000a9004600160a060020a0316600160a060020a031663186601ca6040518163ffffffff1660e060020a028152600401602060405180830381600087803b15801561086b57600080fd5b505af115801561087f573d6000803e3d6000fd5b505050506040513d602081101561089557600080fd5b5051156108a157600080fd5b600b546000106108b057600080fd5b6109716040805190810160405280600381526020017f55524c0000000000000000000000000000000000000000000000000000000000815250608060405190810160405280604181526020017f6a736f6e2868747470733a2f2f6170692e636f696e626173652e636f6d2f763281526020017f2f7072696365732f4554482d5553442f73706f74292e646174612e616d6f756e81526020017f7400000000000000000000000000000000000000000000000000000000000000815250610ea8565b50600190505b90565b60025474010000000000000000000000000000000000000000900460ff1681565b7f01ffc9a70000000000000000000000000000000000000000000000000000000081565b600090565b6040805160008152602081019091526109e090839083906109e4565b5050565b60006109ee61129f565b600160a060020a03163314610a0257600080fd5b610a0d836002611494565b9050610a24600b548261164e90919063ffffffff16565b600a819055600b546040805184815260208101929092528181019290925290517f313f45dd6c7fce10495e78d7f1d9d68a82e9a86c3db5e879c2e89b10c28b6f0d9181900360600190a150506002805474ff00000000000000000000000000000000000000001916740100000000000000000000000000000000000000001790555050565b600092915050565b60008054600160a060020a03163314610ac957600080fd5b600360009054906101000a9004600160a060020a0316600160a060020a031663186601ca6040518163ffffffff1660e060020a028152600401602060405180830381600087803b158015610b1c57600080fd5b505af1158015610b30573d6000803e3d6000fd5b505050506040513d6020811015610b4657600080fd5b505115610b5257600080fd5b506002805474ff000000000000000000000000000000000000000019169055600190565b5050600a5490565b7f6e3019250000000000000000000000000000000000000000000000000000000081565b600454600160a060020a031681565b600254600160a060020a031681565b600054600160a060020a03163314610bd757600080fd5b60008054604051600160a060020a03909116917ff8df31144d9c2f0f6b59d69b8b98abd5459d07f2742c4df920b25aae33c6482091a260008054600160a060020a0319169055565b600054600160a060020a03163314610c3657600080fd5b600360009054906101000a9004600160a060020a0316600160a060020a031663186601ca6040518163ffffffff1660e060020a028152600401602060405180830381600087803b158015610c8957600080fd5b505af1158015610c9d573d6000803e3d6000fd5b505050506040513d6020811015610cb357600080fd5b505115610cbf57600080fd5b600b8190556109e0610800565b735f5f436f696e626173655553445072696365530081565b600054600160a060020a031681565b600b5481565b604080517fe77cee3d000000000000000000000000000000000000000000000000000000008152306024820181905260048201928352835160448301528351606093735f5f436f696e62617365555344507269636553009363e77cee3d938793909291829160649091019060208601908083836000838110156106f15781810151838201526020016106d9565b7fa0d0304b0000000000000000000000000000000000000000000000000000000081565b604080517fe9499555000000000000000000000000000000000000000000000000000000008152306024820181905260048201928352835160448301528351606093735f5f436f696e62617365555344507269636553009363e9499555938793909291829160649091019060208601908083836000838110156106f15781810151838201526020016106d9565b600a5481565b7f04c8123d0000000000000000000000000000000000000000000000000000000081565b600054600160a060020a03163314610e7857600080fd5b610e8181611663565b50565b7f6125ede50000000000000000000000000000000000000000000000000000000081565b6005546000908190600160a060020a03161580610ed75750600554610ed590600160a060020a03166116d3565b155b15610ee857610ee660006116d7565b505b600560009054906101000a9004600160a060020a0316600160a060020a03166338cc48316040518163ffffffff1660e060020a028152600401602060405180830381600087803b158015610f3b57600080fd5b505af1158015610f4f573d6000803e3d6000fd5b505050506040513d6020811015610f6557600080fd5b5051600654600160a060020a0390811691161461101b57600560009054906101000a9004600160a060020a0316600160a060020a03166338cc48316040518163ffffffff1660e060020a028152600401602060405180830381600087803b158015610fcf57600080fd5b505af1158015610fe3573d6000803e3d6000fd5b505050506040513d6020811015610ff957600080fd5b505160068054600160a060020a031916600160a060020a039092169190911790555b6006546040517f524f3889000000000000000000000000000000000000000000000000000000008152602060048201818152875160248401528751600160a060020a039094169363524f388993899383926044909201919085019080838360005b8381101561109457818101518382015260200161107c565b50505050905090810190601f1680156110c15780820380516001836020036101000a031916815260200191505b5092505050602060405180830381600087803b1580156110e057600080fd5b505af11580156110f4573d6000803e3d6000fd5b505050506040513d602081101561110a57600080fd5b50519050670de0b6b3a764000062030d403a020181111561112e5760009150611298565b6006546040517fadf59f99000000000000000000000000000000000000000000000000000000008152600060048201818152606060248401908152885160648501528851600160a060020a039095169463adf59f99948794938b938b939192909160448201916084019060208701908083838b5b838110156111ba5781810151838201526020016111a2565b50505050905090810190601f1680156111e75780820380516001836020036101000a031916815260200191505b50838103825284518152845160209182019186019080838360005b8381101561121a578181015183820152602001611202565b50505050905090810190601f1680156112475780820380516001836020036101000a031916815260200191505b50955050505050506020604051808303818588803b15801561126857600080fd5b505af115801561127c573d6000803e3d6000fd5b50505050506040513d602081101561129357600080fd5b505191505b5092915050565b600554600090600160a060020a031615806112cc57506005546112ca90600160a060020a03166116d3565b155b156112dd576112db60006116d7565b505b600560009054906101000a9004600160a060020a0316600160a060020a03166338cc48316040518163ffffffff1660e060020a028152600401602060405180830381600087803b15801561133057600080fd5b505af1158015611344573d6000803e3d6000fd5b505050506040513d602081101561135a57600080fd5b5051600654600160a060020a0390811691161461141057600560009054906101000a9004600160a060020a0316600160a060020a03166338cc48316040518163ffffffff1660e060020a028152600401602060405180830381600087803b1580156113c457600080fd5b505af11580156113d8573d6000803e3d6000fd5b505050506040513d60208110156113ee57600080fd5b505160068054600160a060020a031916600160a060020a039092169190911790555b600660009054906101000a9004600160a060020a0316600160a060020a031663c281d19e6040518163ffffffff1660e060020a028152600401602060405180830381600087803b15801561146357600080fd5b505af1158015611477573d6000803e3d6000fd5b505050506040513d602081101561148d57600080fd5b5051905090565b6000828180805b83518110156116315783517f3000000000000000000000000000000000000000000000000000000000000000908590839081106114d457fe5b90602001015160f860020a900460f860020a027effffffffffffffffffffffffffffffffffffffffffffffffffffffffffffff19161015801561157a575083517f39000000000000000000000000000000000000000000000000000000000000009085908390811061154257fe5b90602001015160f860020a900460f860020a027effffffffffffffffffffffffffffffffffffffffffffffffffffffffffffff191611155b156115d35781156115995785151561159157611631565b600019909501945b600a83029250603084828151811015156115af57fe5b90602001015160f860020a900460f860020a0260f860020a90040383019250611629565b83818151811015156115e157fe5b90602001015160f860020a900460f860020a027effffffffffffffffffffffffffffffffffffffffffffffffffffffffffffff1916602e60f860020a02141561162957600191505b60010161149b565b60008611156116435785600a0a830292505b509095945050505050565b6000818381151561165b57fe5b049392505050565b600160a060020a038116151561167857600080fd5b60008054604051600160a060020a03808516939216917f8be0079c531659141344cd1fd0a4f28419497f9722a3daafe3b4186f6b6457e091a360008054600160a060020a031916600160a060020a0392909216919091179055565b3b90565b60006116e16116e7565b92915050565b600080611707731d3b2638a7cc9f2cb3d298a3da7a90b67e5506ed6116d3565b11156117785760058054600160a060020a031916731d3b2638a7cc9f2cb3d298a3da7a90b67e5506ed17905560408051808201909152600b81527f6574685f6d61696e6e6574000000000000000000000000000000000000000000602082015261177090611a0f565b506001610977565b600061179773c03a2615d5efaf5f49f60b7bb6583eaec212fdf16116d3565b11156118005760058054600160a060020a03191673c03a2615d5efaf5f49f60b7bb6583eaec212fdf117905560408051808201909152600c81527f6574685f726f707374656e330000000000000000000000000000000000000000602082015261177090611a0f565b600061181f73b7a07bcf2ba2f2703b24c0691b5278999c59ac7e6116d3565b11156118885760058054600160a060020a03191673b7a07bcf2ba2f2703b24c0691b5278999c59ac7e17905560408051808201909152600981527f6574685f6b6f76616e0000000000000000000000000000000000000000000000602082015261177090611a0f565b60006118a773146500cfd35b22e4a392fe0adc06de1a1368ed486116d3565b11156119105760058054600160a060020a03191673146500cfd35b22e4a392fe0adc06de1a1368ed4817905560408051808201909152600b81527f6574685f72696e6b656279000000000000000000000000000000000000000000602082015261177090611a0f565b600061192f736f485c8bf6fc43ea212e93bbf8ce046c7f1cb4756116d3565b1115611963575060058054600160a060020a031916736f485c8bf6fc43ea212e93bbf8ce046c7f1cb4751790556001610977565b60006119827320e12a1f859b3feae5fb2a0a32c18f5a65555bbf6116d3565b11156119b6575060058054600160a060020a0319167320e12a1f859b3feae5fb2a0a32c18f5a65555bbf1790556001610977565b60006119d57351efaf4c8b3c9afbd5ab9f4bbc82784ab6ef8faa6116d3565b1115611a09575060058054600160a060020a0319167351efaf4c8b3c9afbd5ab9f4bbc82784ab6ef8faa1790556001610977565b50600090565b80516109e0906007906020840190828054600181600116156101000203166002900490600052602060002090601f016020900481019282601f10611a5e57805160ff1916838001178555611a8b565b82800160010185558215611a8b579182015b82811115611a8b578251825591602001919060010190611a70565b50611a97929150611a9b565b5090565b61097791905b80821115611a975760008155600101611aa15600a165627a7a72305820f018fcdaa9082bd80a6b5c7c3d4aafc4abb2ebf4a39d32b6c68f603c1c70aef70029",
  "source": "pragma solidity ^0.4.24;\n\nimport \"oraclize-api/contracts/usingOraclize.sol\";\nimport \"tokenboost-solidity/contracts/strategy/sale/erc20/ERC20SaleStrategy.sol\";\nimport \"tokenboost-solidity/contracts/widget/Renderable.sol\";\nimport \"./widget/CoinbaseUSDPriceStrategyRenderer.sol\";\n\ncontract CoinbaseUSDPriceStrategy is ERC20SaleStrategy, Renderable, usingOraclize {\n    using SafeMath for uint;\n\n    CoinbaseUSDPriceStrategyRenderer public constant renderer = CoinbaseUSDPriceStrategyRenderer(address(bytes20(\"__CoinbaseUSDPriceS\")));\n\n    event PriceCalculated(uint256 centsPerEth, uint256 centsPerToken, uint256 tokensPerEth);\n\n    uint256 public tokensPerEth;\n    uint256 public centsPerToken;\n\n    constructor(address _owner, ERC20Sale _sale) public ERC20SaleStrategy(_owner, _sale) {\n    }\n\n    function update(uint256 _centsPerToken) public onlyOwner whenSaleNotActivated {\n        centsPerToken = _centsPerToken;\n        activate();\n    }\n\n    function activate() onlyOwner whenSaleNotActivated public returns (bool) {\n        require(centsPerToken > 0);\n        oraclize_query(\"URL\", \"json(https://api.coinbase.com/v2/prices/ETH-USD/spot).data.amount\");\n        return true;\n    }\n\n    function __callback(bytes32 _myid, string _result, bytes _proof) {\n        require(msg.sender == oraclize_cbAddress());\n\n        uint256 centsPerEth = parseInt(_result, 2);\n        tokensPerEth = centsPerEth.div(centsPerToken);\n\n        emit PriceCalculated(centsPerEth, centsPerToken, tokensPerEth);\n\n        activated = true;\n    }\n\n    function started() public view returns (bool) {\n        return false;\n    }\n\n    function successful() public view returns (bool) {\n        return false;\n    }\n\n    function finished() public view returns (bool) {\n        return false;\n    }\n\n    function purchasable(address _purchaser, uint256 _weiAmount) public view returns (bool) {\n        return false;\n    }\n\n    function tokenRate(address _purchaser, uint256 _weiAmount) public view returns (uint256) {\n        return tokensPerEth;\n    }\n\n    function supplyTokens(address _purchaser, uint256 _tokenAmount) public returns (bool) {\n        return false;\n    }\n\n    function receivesTokens(address _purchaser, uint256 _tokenAmount) public returns (bool) {\n        return false;\n    }\n\n    function adminWidgets(string locale) public view returns (string json) {\n        return renderer.adminWidgets(locale, this);\n    }\n\n    function userWidgets(string locale) public view returns (string json) {\n        return renderer.userWidgets(locale, this);\n    }\n\n    function inputs(string locale) public view returns (string json) {\n        return renderer.inputs(locale, this);\n    }\n}\n",
  "sourcePath": "/Users/yoonjae/SolidityProjects/tokenboost-solidity-erc20sale-strategies/contracts/strategy/sale/erc20/coinbase-usd-price/CoinbaseUSDPriceStrategy.sol",
  "compiler": {
    "name": "solc",
    "version": "0.4.24+commit.e67f0147.Emscripten.clang"
  },
  "schemaVersion": "2.0.1",
  "updatedAt": "2018-10-11T14:20:59.175Z"
}