{
  "contractName": "CoinbaseUSDPriceStrategyRenderer",
  "abi": [
    {
      "constant": false,
      "inputs": [],
      "name": "renounceOwnership",
      "outputs": [],
      "payable": false,
      "stateMutability": "nonpayable",
      "type": "function"
    },
    {
      "constant": true,
      "inputs": [],
      "name": "SHORT_DESC",
      "outputs": [
        {
          "name": "",
          "type": "string"
        }
      ],
      "payable": false,
      "stateMutability": "view",
      "type": "function"
    },
    {
      "constant": true,
      "inputs": [],
      "name": "owner",
      "outputs": [
        {
          "name": "",
          "type": "address"
        }
      ],
      "payable": false,
      "stateMutability": "view",
      "type": "function"
    },
    {
      "constant": true,
      "inputs": [],
      "name": "LONG_DESC",
      "outputs": [
        {
          "name": "",
          "type": "string"
        }
      ],
      "payable": false,
      "stateMutability": "view",
      "type": "function"
    },
    {
      "constant": true,
      "inputs": [],
      "name": "UPDATE_CONFIRM",
      "outputs": [
        {
          "name": "",
          "type": "string"
        }
      ],
      "payable": false,
      "stateMutability": "view",
      "type": "function"
    },
    {
      "constant": true,
      "inputs": [],
      "name": "TOKEN_PRICE",
      "outputs": [
        {
          "name": "",
          "type": "string"
        }
      ],
      "payable": false,
      "stateMutability": "view",
      "type": "function"
    },
    {
      "constant": true,
      "inputs": [],
      "name": "UPDATE",
      "outputs": [
        {
          "name": "",
          "type": "string"
        }
      ],
      "payable": false,
      "stateMutability": "view",
      "type": "function"
    },
    {
      "constant": false,
      "inputs": [
        {
          "name": "locale",
          "type": "string"
        },
        {
          "name": "key",
          "type": "string"
        },
        {
          "name": "value",
          "type": "string"
        }
      ],
      "name": "setResource",
      "outputs": [],
      "payable": false,
      "stateMutability": "nonpayable",
      "type": "function"
    },
    {
      "constant": false,
      "inputs": [
        {
          "name": "_newOwner",
          "type": "address"
        }
      ],
      "name": "transferOwnership",
      "outputs": [],
      "payable": false,
      "stateMutability": "nonpayable",
      "type": "function"
    },
    {
      "constant": true,
      "inputs": [
        {
          "name": "locale",
          "type": "string"
        },
        {
          "name": "key",
          "type": "string"
        }
      ],
      "name": "resource",
      "outputs": [
        {
          "name": "",
          "type": "string"
        }
      ],
      "payable": false,
      "stateMutability": "view",
      "type": "function"
    },
    {
      "anonymous": false,
      "inputs": [
        {
          "indexed": true,
          "name": "previousOwner",
          "type": "address"
        }
      ],
      "name": "OwnershipRenounced",
      "type": "event"
    },
    {
      "anonymous": false,
      "inputs": [
        {
          "indexed": true,
          "name": "previousOwner",
          "type": "address"
        },
        {
          "indexed": true,
          "name": "newOwner",
          "type": "address"
        }
      ],
      "name": "OwnershipTransferred",
      "type": "event"
    },
    {
      "constant": true,
      "inputs": [
        {
          "name": "_locale",
          "type": "string"
        },
        {
          "name": "_strategy",
          "type": "address"
        }
      ],
      "name": "adminWidgets",
      "outputs": [
        {
          "name": "",
          "type": "string"
        }
      ],
      "payable": false,
      "stateMutability": "view",
      "type": "function"
    },
    {
      "constant": true,
      "inputs": [
        {
          "name": "_locale",
          "type": "string"
        },
        {
          "name": "_strategy",
          "type": "address"
        }
      ],
      "name": "userWidgets",
      "outputs": [
        {
          "name": "",
          "type": "string"
        }
      ],
      "payable": false,
      "stateMutability": "view",
      "type": "function"
    },
    {
      "constant": true,
      "inputs": [
        {
          "name": "_locale",
          "type": "string"
        },
        {
          "name": "_strategy",
          "type": "address"
        }
      ],
      "name": "inputs",
      "outputs": [
        {
          "name": "",
          "type": "string"
        }
      ],
      "payable": false,
      "stateMutability": "view",
      "type": "function"
    }
  ],
  "bytecode": "0x608060405260008054600160a060020a03191633179055612eb6806100256000396000f3006080604052600436106100ab5763ffffffff60e060020a600035041663715018a681146100b05780638b582712146100c75780638da5cb5b14610151578063ac5c6e1214610182578063b07b3c7814610197578063bf3bed54146101ac578063d2d8cb6714610210578063d30f6e2014610225578063e77cee3d1461023a578063e94995551461029e578063ed3487fe14610302578063f2fde38b146103d7578063f65a5c1b146103f8575b600080fd5b3480156100bc57600080fd5b506100c561048f565b005b3480156100d357600080fd5b506100dc6104fb565b6040805160208082528351818301528351919283929083019185019080838360005b838110156101165781810151838201526020016100fe565b50505050905090810190601f1680156101435780820380516001836020036101000a031916815260200191505b509250505060405180910390f35b34801561015d57600080fd5b50610166610532565b60408051600160a060020a039092168252519081900360200190f35b34801561018e57600080fd5b506100dc610541565b3480156101a357600080fd5b506100dc610578565b3480156101b857600080fd5b506040805160206004803580820135601f81018490048402850184019095528484526100dc94369492936024939284019190819084018382808284375094975050509235600160a060020a031693506105af92505050565b34801561021c57600080fd5b506100dc6110a6565b34801561023157600080fd5b506100dc6110cb565b34801561024657600080fd5b506040805160206004803580820135601f81018490048402850184019095528484526100dc94369492936024939284019190819084018382808284375094975050509235600160a060020a031693506110f092505050565b3480156102aa57600080fd5b506040805160206004803580820135601f81018490048402850184019095528484526100dc94369492936024939284019190819084018382808284375094975050509235600160a060020a031693506112ed92505050565b34801561030e57600080fd5b506040805160206004803580820135601f81018490048402850184019095528484526100c594369492936024939284019190819084018382808284375050604080516020601f89358b018035918201839004830284018301909452808352979a99988101979196509182019450925082915084018382808284375050604080516020601f89358b018035918201839004830284018301909452808352979a9998810197919650918201945092508291508401838280828437509497506113009650505050505050565b3480156103e357600080fd5b506100c5600160a060020a03600435166113ed565b34801561040457600080fd5b506040805160206004803580820135601f81018490048402850184019095528484526100dc94369492936024939284019190819084018382808284375050604080516020601f89358b018035918201839004830284018301909452808352979a9998810197919650918201945092508291508401838280828437509497506114109650505050505050565b600054600160a060020a031633146104a657600080fd5b60008054604051600160a060020a03909116917ff8df31144d9c2f0f6b59d69b8b98abd5459d07f2742c4df920b25aae33c6482091a26000805473ffffffffffffffffffffffffffffffffffffffff19169055565b60408051808201909152600a81527f73686f72745f6465736300000000000000000000000000000000000000000000602082015281565b600054600160a060020a031681565b60408051808201909152600981527f6c6f6e675f646573630000000000000000000000000000000000000000000000602082015281565b60408051808201909152600e81527f7570646174655f636f6e6669726d000000000000000000000000000000000000602082015281565b60408051600380825260808201909252606091829160009183918391816020015b6105d8612c9b565b8152602001906001900390816105d057905050935085600160a060020a0316636ad1fe026040518163ffffffff1660e060020a028152600401602060405180830381600087803b15801561062b57600080fd5b505af115801561063f573d6000803e3d6000fd5b505050506040513d602081101561065557600080fd5b5051604080517ffc0c546a0000000000000000000000000000000000000000000000000000000081529051600160a060020a039092169163fc0c546a916004808201926020929091908290030181600087803b1580156106b457600080fd5b505af11580156106c8573d6000803e3d6000fd5b505050506040513d60208110156106de57600080fd5b50516040805160e081018252600180825282518084018452600b8152600080516020612e4b8339815191526020828101919091528381019190915283518085018552600681527f6e756d6265720000000000000000000000000000000000000000000000000000818301528385015292518b519497509193606085019391928c92909182918401908083835b602083106107895780518252601f19909201916020918201910161076a565b51815160209384036101000a60001901801990921691161790529201948552506040805194859003820185208582018252600b808752600080516020612e4b83398151915293870193845291519095945092508291908083835b602083106108025780518252601f1990920191602091820191016107e3565b518151600019602094850361010090810a820192831692199390931691909117909252949092019687526040805197889003820188208054601f60026001831615909802909501169590950492830182900482028801820190528187529294509250508301828280156108b65780601f1061088b576101008083540402835291602001916108b6565b820191906000526020600020905b81548152906001019060200180831161089957829003601f168201915b5050505050815260200161093288600160a060020a031663cbdd69b56040518163ffffffff1660e060020a028152600401602060405180830381600087803b15801561090157600080fd5b505af1158015610915573d6000803e3d6000fd5b505050506040513d602081101561092b57600080fd5b5051611561565b815260200161093f6116c0565b815260200161094c611713565b905284518590600090811061095d57fe5b9060200190602002018190525060e060405190810160405280600115158152602001604080519081016040528060068152602001600080516020612e6b83398151915281525081526020016040805190810160405280600481526020017f74657874000000000000000000000000000000000000000000000000000000008152508152602001610b00610a246040805190810160405280600681526020017f202f2045544800000000000000000000000000000000000000000000000000008152506117a0565b610af487600160a060020a03166395d89b416040518163ffffffff1660e060020a028152600401600060405180830381600087803b158015610a6557600080fd5b505af1158015610a79573d6000803e3d6000fd5b505050506040513d6000823e601f3d908101601f191682016040526020811015610aa257600080fd5b810190808051640100000000811115610aba57600080fd5b82016020810184811115610acd57600080fd5b8151640100000000811182820187101715610ae757600080fd5b50509291905050506117a0565b9063ffffffff6117c916565b815260200160408051908101604052806004815260200160e260020a631b9d5b1b028152508152602001610b326116c0565b8152602001610b3f611713565b9052845185906001908110610b5057fe5b9060200190602002018190525060e060405190810160405280600115158152602001604080519081016040528060068152602001600080516020612e6b83398151915281525081526020016040805190810160405280600681526020017f627574746f6e000000000000000000000000000000000000000000000000000081525081526020016001896040518082805190602001908083835b60208310610c085780518252601f199092019160209182019101610be9565b51815160209384036101000a600019018019909216911617905292019485525060408051948590038201852085820182526006808752600080516020612e6b83398151915293870193845291519095945092508291908083835b60208310610c815780518252601f199092019160209182019101610c62565b518151600019602094850361010090810a820192831692199390931691909117909252949092019687526040805197889003820188208054601f6002600183161590980290950116959095049283018290048202880182019052818752929450925050830182828015610d355780601f10610d0a57610100808354040283529160200191610d35565b820191906000526020600020905b815481529060010190602001808311610d1857829003601f168201915b5050505050815260200160408051908101604052806004815260200160e260020a631b9d5b1b02815250815260200160a06040519081016040528060011515815260200189600160a060020a031681526020016040805190810160405280600f81526020017f7570646174652875696e7432353629000000000000000000000000000000000081525081526020016040805190810160405280600f81526020017f5b22746f6b656e5f7072696365225d0000000000000000000000000000000000815250815260200160018b6040518082805190602001908083835b60208310610e305780518252601f199092019160209182019101610e11565b51815160209384036101000a60001901801990921691161790529201948552506040805194859003820185208582018252600e8087527f7570646174655f636f6e6669726d00000000000000000000000000000000000093870193845291519095945092508291908083835b60208310610ebb5780518252601f199092019160209182019101610e9c565b518151600019602094850361010090810a820192831692199390931691909117909252949092019687526040805197889003820188208054601f6002600183161590980290950116959095049283018290048202880182019052818752929450925050830182828015610f6f5780601f10610f4457610100808354040283529160200191610f6f565b820191906000526020600020905b815481529060010190602001808311610f5257829003601f168201915b50505050508152508152602001610f84611713565b9052845185906002908110610f9557fe5b906020019060200201819052506040805190810160405280600181526020017f5b000000000000000000000000000000000000000000000000000000000000008152509150600090505b835181101561105a5760008111156110255761102261101960408051908101604052806001815260200160fa60020a600b028152506117a0565b610af4846117a0565b91505b61105061101961104b868481518110151561103c57fe5b90602001906020020151611840565b6117a0565b9150600101610fdf565b61109b6110196040805190810160405280600181526020017f5d000000000000000000000000000000000000000000000000000000000000008152506117a0565b979650505050505050565b60408051808201909152600b8152600080516020612e4b833981519152602082015281565b6040805180820190915260068152600080516020612e6b833981519152602082015281565b606081600160a060020a0316636ad1fe026040518163ffffffff1660e060020a028152600401602060405180830381600087803b15801561113057600080fd5b505af1158015611144573d6000803e3d6000fd5b505050506040513d602081101561115a57600080fd5b5051604080517f186601ca0000000000000000000000000000000000000000000000000000000081529051600160a060020a039092169163186601ca916004808201926020929091908290030181600087803b1580156111b957600080fd5b505af11580156111cd573d6000803e3d6000fd5b505050506040513d60208110156111e357600080fd5b5051156112b1576111f48383611b18565b60405160200180807f5b0000000000000000000000000000000000000000000000000000000000000081525060010182805190602001908083835b6020831061124e5780518252601f19909201916020918201910161122f565b6001836020036101000a038019825116818451168082178552505050505050905001807f5d0000000000000000000000000000000000000000000000000000000000000081525060010191505060405160208183030381529060405290506112e7565b5060408051808201909152600281527f5b5d00000000000000000000000000000000000000000000000000000000000060208201525b92915050565b60606112f983836110f0565b9392505050565b600054600160a060020a0316331461131757600080fd5b806001846040518082805190602001908083835b6020831061134a5780518252601f19909201916020918201910161132b565b51815160209384036101000a6000190180199092169116179052920194855250604051938490038101842087519094889450925082918401908083835b602083106113a65780518252601f199092019160209182019101611387565b51815160209384036101000a600019018019909216911617905292019485525060405193849003810190932084516113e79591949190910192509050612ce7565b50505050565b600054600160a060020a0316331461140457600080fd5b61140d816122dd565b50565b60606001836040518082805190602001908083835b602083106114445780518252601f199092019160209182019101611425565b51815160209384036101000a6000190180199092169116179052920194855250604051938490038101842086519094879450925082918401908083835b602083106114a05780518252601f199092019160209182019101611481565b518151600019602094850361010090810a820192831692199390931691909117909252949092019687526040805197889003820188208054601f60026001831615909802909501169590950492830182900482028801820190528187529294509250508301828280156115545780601f1061152957610100808354040283529160200191611554565b820191906000526020600020905b81548152906001019060200180831161153757829003601f168201915b5050505050905092915050565b606080600081818515156115aa5760408051808201909152600181527f3000000000000000000000000000000000000000000000000000000000000000602082015294506116b7565b6040805160208082528183019092529080820161040080388339019050509350600092505b600086111561161c57600a860660300160f860020a0284848151811015156115f357fe5b906020010190600160f860020a031916908160001a905350600a860495506001909201916115cf565b60408051848152601f19601f8601168101602001909152600019840193801561164f578160200160208202803883390190505b509150600090505b81518110156116b35783516000198401938591811061167257fe5b90602001015160f860020a900460f860020a02828281518110151561169357fe5b906020010190600160f860020a031916908160001a905350600101611657565b8194505b50505050919050565b6116c8612d65565b506040805160a0810182526000808252602080830182905283518082018552828152838501528351808201855282815260608401528351908101909352825260808101919091525b90565b61171b612d92565b6040805160608101825260008082528251818152602081810190945291928301919061175d565b61174a612db6565b8152602001906001900390816117425790505b508152602001600060405190808252806020026020018201604052801561179857816020015b60608152602001906001900390816117835790505b509052905090565b6117a8612de9565b50604080518082019091528151815260208281019082018190525b50919050565b606080600083600001518560000151016040519080825280601f01601f191660200182016040528015611806578160200160208202803883390190505b509150602082019050611822818660200151876000015161235a565b845160208501518551611838928401919061235a565b509392505050565b606080826000015115611af3576040805190810160405280600781526020017f7b226964223a2200000000000000000000000000000000000000000000000000815250905061189e61189584602001516117a0565b610af4836117a0565b90506118e16118956040805190810160405280600181526020017f22000000000000000000000000000000000000000000000000000000000000008152506117a0565b60a08401515190915015611948576119306118956040805190810160405280600b81526020017f2c2022616374696f6e223a0000000000000000000000000000000000000000008152506117a0565b905061194561189561104b8560a0015161239e565b90505b60c083015151156119ac576119946118956040805190810160405280600a81526020017f2c20227461626c65223a000000000000000000000000000000000000000000008152506117a0565b90506119a961189561104b8560c00151612541565b90505b6119ed6118956040805190810160405280600981526020017f2c2274797065223a2200000000000000000000000000000000000000000000008152506117a0565b90506119ff61189584604001516117a0565b9050611a426118956040805190810160405280600b81526020017f222c226c6162656c223a220000000000000000000000000000000000000000008152506117a0565b9050611a5461189584606001516117a0565b9050611a976118956040805190810160405280600981526020017f222c2264617461223a00000000000000000000000000000000000000000000008152506117a0565b9050611aa961189584608001516117a0565b9050611aec6118956040805190810160405280600181526020017f7d000000000000000000000000000000000000000000000000000000000000008152506117a0565b91506117c3565b604080518082019091526004815260e260020a631b9d5b1b02602082015291506117c3565b60608060006060611b27612e00565b60408051600180825281830190925290816020015b611b44612c9b565b815260200190600190039081611b3c57905050935085600160a060020a0316636ad1fe026040518163ffffffff1660e060020a028152600401602060405180830381600087803b158015611b9757600080fd5b505af1158015611bab573d6000803e3d6000fd5b505050506040513d6020811015611bc157600080fd5b5051604080517ffc0c546a0000000000000000000000000000000000000000000000000000000081529051600160a060020a039092169163fc0c546a916004808201926020929091908290030181600087803b158015611c2057600080fd5b505af1158015611c34573d6000803e3d6000fd5b505050506040513d6020811015611c4a57600080fd5b5051604080517f95d89b410000000000000000000000000000000000000000000000000000000081529051919450611d3a91611cb291600160a060020a038716916395d89b419160048082019260009290919082900301818387803b158015610a6557600080fd5b610af461104b611cf66040805190810160405280600181526020017f20000000000000000000000000000000000000000000000000000000000000008152506117a0565b610af461104b8c600160a060020a031663cbdd69b56040518163ffffffff1660e060020a028152600401602060405180830381600087803b15801561090157600080fd5b915060e0604051908101604052806001151581526020016040805190810160405280600b8152602001600080516020612e4b83398151915281525081526020016040805190810160405280600481526020017f74657874000000000000000000000000000000000000000000000000000000008152508152602001611dff611dc1856117a0565b610af46040805190810160405280600881526020017f3120455448203d200000000000000000000000000000000000000000000000008152506117a0565b815260200160408051908101604052806004815260200160e260020a631b9d5b1b028152508152602001611e316116c0565b8152602001611e3e611713565b9052845185906000908110611e4f57fe5b9060200190602002018190525060a0604051908101604052806001896040518082805190602001908083835b60208310611e9a5780518252601f199092019160209182019101611e7b565b51815160209384036101000a60001901801990921691161790529201948552506040805194859003820185208582018252600b808752600080516020612e4b83398151915293870193845291519095945092508291908083835b60208310611f135780518252601f199092019160209182019101611ef4565b518151600019602094850361010090810a820192831692199390931691909117909252949092019687526040805197889003820188208054601f6002600183161590980290950116959095049283018290048202880182019052818752929450925050830182828015611fc75780601f10611f9c57610100808354040283529160200191611fc7565b820191906000526020600020905b815481529060010190602001808311611faa57829003601f168201915b505050505081526020016001896040518082805190602001908083835b602083106120035780518252601f199092019160209182019101611fe4565b51815160209384036101000a60001901801990921691161790529201948552506040805194859003820185208582018252600a8087527f73686f72745f646573630000000000000000000000000000000000000000000093870193845291519095945092508291908083835b6020831061208e5780518252601f19909201916020918201910161206f565b518151600019602094850361010090810a820192831692199390931691909117909252949092019687526040805197889003820188208054601f60026001831615909802909501169590950492830182900482028801820190528187529294509250508301828280156121425780601f1061211757610100808354040283529160200191612142565b820191906000526020600020905b81548152906001019060200180831161212557829003601f168201915b505050505081526020016001896040518082805190602001908083835b6020831061217e5780518252601f19909201916020918201910161215f565b51815160209384036101000a6000190180199092169116179052920194855250604080519485900382018520858201825260098087527f6c6f6e675f64657363000000000000000000000000000000000000000000000093870193845291519095945092508291908083835b602083106122095780518252601f1990920191602091820191016121ea565b518151600019602094850361010090810a820192831692199390931691909117909252949092019687526040805197889003820188208054601f60026001831615909802909501169590950492830182900482028801820190528187529294509250508301828280156122bd5780601f10612292576101008083540402835291602001916122bd565b820191906000526020600020905b8154815290600101906020018083116122a057829003601f168201915b505050505081526020016004815260200185815250905061109b81612742565b600160a060020a03811615156122f257600080fd5b60008054604051600160a060020a03808516939216917f8be0079c531659141344cd1fd0a4f28419497f9722a3daafe3b4186f6b6457e091a36000805473ffffffffffffffffffffffffffffffffffffffff1916600160a060020a0392909216919091179055565b60005b6020821061237f578251845260209384019390920191601f199091019061235d565b50905182516020929092036101000a6000190180199091169116179052565b606080826000015115611af3576040805190810160405280600c81526020017f7b2261646472657373223a22000000000000000000000000000000000000000081525090506123ff61189561104b8560200151600160a060020a0316612987565b90506124426118956040805190810160405280601681526020017f222c2266756e6374696f6e53656c6563746f72223a22000000000000000000008152506117a0565b905061245461189584604001516117a0565b90506124976118956040805190810160405280600e81526020017f222c22617267756d656e7473223a0000000000000000000000000000000000008152506117a0565b90506124a961189584606001516117a0565b90506124ec6118956040805190810160405280600c81526020017f2c22636f6e6669726d223a2200000000000000000000000000000000000000008152506117a0565b90506124fe61189584608001516117a0565b9050611aec6118956040805190810160405280600281526020017f227d0000000000000000000000000000000000000000000000000000000000008152506117a0565b60608060008084600001511561271957505060408051808201909152600c81527f7b22636f6c756d6e73223a5b0000000000000000000000000000000000000000602082015290506000805b84602001515181101561260f5760008211156125d7576125d46125cb60408051908101604052806001815260200160fa60020a600b028152506117a0565b610af4856117a0565b92505b6126016125cb61104b8760200151848151811015156125f257fe5b90602001906020020151612aca565b92506001918201910161258d565b6126506125cb6040805190810160405280600a81526020017f5d2c22726f7773223a5b000000000000000000000000000000000000000000008152506117a0565b925060009150600090505b8460400151518110156126d157600082111561269c576126996125cb60408051908101604052806001815260200160fa60020a600b028152506117a0565b92505b6126c36125cb8660400151838151811015156126b457fe5b906020019060200201516117a0565b92506001918201910161265b565b6127126125cb6040805190810160405280600281526020017f5d7d0000000000000000000000000000000000000000000000000000000000008152506117a0565b935061273a565b604080518082019091526004815260e260020a631b9d5b1b02602082015293505b505050919050565b60408051808201909152600a81527f7b227469746c65223a2200000000000000000000000000000000000000000000602082015281516060919060009061278c90611019906117a0565b91506127cf6110196040805190810160405280600f81526020017f222c2273686f727444657363223a2200000000000000000000000000000000008152506117a0565b91506127e161101985602001516117a0565b91506128246110196040805190810160405280600e81526020017f222c226c6f6e6744657363223a220000000000000000000000000000000000008152506117a0565b915061283661101985604001516117a0565b91506128796110196040805190810160405280600a81526020017f222c227769647468223a000000000000000000000000000000000000000000008152506117a0565b915061288e61101961104b8660600151611561565b91506128d16110196040805190810160405280600d81526020017f2c22656c656d656e7473223a5b000000000000000000000000000000000000008152506117a0565b9150600090505b83608001515181101561293e5760008111156129195761291661101960408051908101604052806001815260200160fa60020a600b028152506117a0565b91505b61293461101961104b86608001518481518110151561103c57fe5b91506001016128d8565b61297f6110196040805190810160405280600281526020017f5d7d0000000000000000000000000000000000000000000000000000000000008152506117a0565b949350505050565b60408051602a80825260608083019093528291600091829182916020820161054080388339505081519195507f30000000000000000000000000000000000000000000000000000000000000009186915060009081106129e357fe5b906020010190600160f860020a031916908160001a90535083517f78000000000000000000000000000000000000000000000000000000000000009085906001908110612a2c57fe5b906020010190600160f860020a031916908160001a905350859250600091505b6028821015612ac057506030600f8316016039600160a060020a0382161115612a73576027015b8060f860020a028483602803600101815181101515612a8e57fe5b906020010190600160f860020a031916908160001a9053506010600160a060020a038416049250600190910190612a4c565b5091949350505050565b606080826000015115611af3576040805190810160405280600781526020017f7b226964223a22000000000000000000000000000000000000000000000000008152509050612b1f61189584602001516117a0565b9050612b626118956040805190810160405280600181526020017f22000000000000000000000000000000000000000000000000000000000000008152506117a0565b60808401515190915015612bf357612b9861189560408051908101604052806001815260200160fa60020a600b028152506117a0565b9050612bdb6118956040805190810160405280600981526020017f22616374696f6e223a00000000000000000000000000000000000000000000008152506117a0565b9050612bf061189561104b856080015161239e565b90505b612c346118956040805190810160405280600981526020017f2c2274797065223a2200000000000000000000000000000000000000000000008152506117a0565b9050612c4661189584604001516117a0565b9050612c896118956040805190810160405280600b81526020017f222c226c6162656c223a220000000000000000000000000000000000000000008152506117a0565b90506124fe61189584606001516117a0565b6101a06040519081016040528060001515815260200160608152602001606081526020016060815260200160608152602001612cd5612d65565b8152602001612ce2612d92565b905290565b828054600181600116156101000203166002900490600052602060002090601f016020900481019282601f10612d2857805160ff1916838001178555612d55565b82800160010185558215612d55579182015b82811115612d55578251825591602001919060010190612d3a565b50612d61929150612e30565b5090565b6040805160a081018252600080825260208201526060918101829052818101829052608081019190915290565b60606040519081016040528060001515815260200160608152602001606081525090565b61012060405190810160405280600015158152602001606081526020016060815260200160608152602001612ce2612d65565b604080518082019091526000808252602082015290565b60a06040519081016040528060608152602001606081526020016060815260200160008152602001606081525090565b61171091905b80821115612d615760008155600101612e365600746f6b656e5f70726963650000000000000000000000000000000000000000007570646174650000000000000000000000000000000000000000000000000000a165627a7a72305820ede10b72b782b47f5474ed5dc6bd1a1557f43b87e570028bac833a2d5cf0babf0029",
  "source": "pragma solidity ^0.4.24;\n\nimport \"zeppelin-solidity/contracts/token/ERC20/DetailedERC20.sol\";\nimport \"tokenboost-solidity/contracts/widget/Localizable.sol\";\nimport \"tokenboost-solidity/contracts/widget/Widgets.sol\";\nimport \"../CoinbaseUSDPriceStrategy.sol\";\n\ncontract CoinbaseUSDPriceStrategyRenderer is Localizable {\n    using Widgets for Widgets.Widget;\n    using Elements for Elements.Element;\n    using UintUtils for uint;\n    using strings for *;\n\n    string public constant TOKEN_PRICE = \"token_price\";\n    string public constant SHORT_DESC = \"short_desc\";\n    string public constant LONG_DESC = \"long_desc\";\n    string public constant UPDATE = \"update\";\n    string public constant UPDATE_CONFIRM = \"update_confirm\";\n\n    function adminWidgets(string _locale, CoinbaseUSDPriceStrategy _strategy) public view returns (string) {\n        return userWidgets(_locale, _strategy);\n    }\n\n    function userWidgets(string _locale, CoinbaseUSDPriceStrategy _strategy) public view returns (string) {\n        if (_strategy.sale().activated()) {\n            return string(abi.encodePacked(\"[\", _tokenPriceWidget(_locale, _strategy), \"]\"));\n        } else {\n            return \"[]\";\n        }\n    }\n\n    function _tokenPriceWidget(string _locale, CoinbaseUSDPriceStrategy _strategy) private view returns (string json) {\n        Elements.Element[] memory elements = new Elements.Element[](1);\n        DetailedERC20 erc20 = DetailedERC20(_strategy.sale().token());\n        string memory tokensPerEth = _strategy.tokensPerEth().toString().toSlice().concat(\" \".toSlice()).toSlice().concat(erc20.symbol().toSlice());\n        elements[0] = Elements.Element(\n            true,\n            TOKEN_PRICE,\n            \"text\",\n            '1 ETH = '.toSlice().concat(tokensPerEth.toSlice()),\n            \"null\",\n            Actions.empty(),\n            Tables.empty()\n        );\n        Widgets.Widget memory widget = Widgets.Widget(\n            resources[_locale][TOKEN_PRICE],\n            resources[_locale][SHORT_DESC],\n            resources[_locale][LONG_DESC],\n            4,\n            elements\n        );\n        return widget.toJson();\n    }\n\n    function inputs(string _locale, CoinbaseUSDPriceStrategy _strategy) public view returns (string) {\n        Elements.Element[] memory elements = new Elements.Element[](3);\n        DetailedERC20 erc20 = DetailedERC20(_strategy.sale().token());\n        elements[0] = Elements.Element(\n            true,\n            TOKEN_PRICE,\n            \"number\",\n            resources[_locale][TOKEN_PRICE],\n            _strategy.tokensPerEth().toString(),\n            Actions.empty(),\n            Tables.empty()\n        );\n        elements[1] = Elements.Element(\n            true,\n            UPDATE,\n            \"text\",\n            erc20.symbol().toSlice().concat(\" / ETH\".toSlice()),\n            \"null\",\n            Actions.empty(),\n            Tables.empty()\n        );\n        elements[2] = Elements.Element(\n            true,\n            UPDATE,\n            \"button\",\n            resources[_locale][UPDATE],\n            \"null\",\n            Actions.Action(\n                true,\n                address(_strategy),\n                \"update(uint256)\",\n                '[\"token_price\"]',\n                resources[_locale][UPDATE_CONFIRM]\n            ),\n            Tables.empty()\n        );\n        string memory json = \"[\";\n        for (uint i = 0; i < elements.length; i++) {\n            if (i > 0) {\n                json = json.toSlice().concat(','.toSlice());\n            }\n            json = json.toSlice().concat(elements[i].toJson().toSlice());\n        }\n        return json.toSlice().concat(']'.toSlice());\n    }\n}\n",
  "sourcePath": "/Users/yoonjae/SolidityProjects/tokenboost-solidity-erc20sale-strategies/contracts/strategy/sale/erc20/coinbase-usd-price/widget/CoinbaseUSDPriceStrategyRenderer.sol",
  "compiler": {
    "name": "solc",
    "version": "0.4.24+commit.e67f0147.Emscripten.clang"
  },
  "schemaVersion": "2.0.1",
  "updatedAt": "2018-10-11T14:20:59.184Z"
}