{
  "contractName": "Contract",
  "abi": [
    {
      "constant": true,
      "inputs": [
        {
          "name": "_interfaceId",
          "type": "bytes4"
        }
      ],
      "name": "supportsInterface",
      "outputs": [
        {
          "name": "",
          "type": "bool"
        }
      ],
      "payable": false,
      "stateMutability": "view",
      "type": "function"
    },
    {
      "constant": true,
      "inputs": [],
      "name": "InterfaceId_ERC165",
      "outputs": [
        {
          "name": "",
          "type": "bytes4"
        }
      ],
      "payable": false,
      "stateMutability": "view",
      "type": "function"
    },
    {
      "constant": true,
      "inputs": [],
      "name": "template",
      "outputs": [
        {
          "name": "",
          "type": "address"
        }
      ],
      "payable": false,
      "stateMutability": "view",
      "type": "function"
    },
    {
      "constant": false,
      "inputs": [],
      "name": "renounceOwnership",
      "outputs": [],
      "payable": false,
      "stateMutability": "nonpayable",
      "type": "function"
    },
    {
      "constant": true,
      "inputs": [],
      "name": "owner",
      "outputs": [
        {
          "name": "",
          "type": "address"
        }
      ],
      "payable": false,
      "stateMutability": "view",
      "type": "function"
    },
    {
      "constant": false,
      "inputs": [
        {
          "name": "_newOwner",
          "type": "address"
        }
      ],
      "name": "transferOwnership",
      "outputs": [],
      "payable": false,
      "stateMutability": "nonpayable",
      "type": "function"
    },
    {
      "constant": true,
      "inputs": [],
      "name": "InterfaceId_Contract",
      "outputs": [
        {
          "name": "",
          "type": "bytes4"
        }
      ],
      "payable": false,
      "stateMutability": "view",
      "type": "function"
    },
    {
      "inputs": [
        {
          "name": "_owner",
          "type": "address"
        }
      ],
      "payable": false,
      "stateMutability": "nonpayable",
      "type": "constructor"
    },
    {
      "anonymous": false,
      "inputs": [
        {
          "indexed": true,
          "name": "previousOwner",
          "type": "address"
        }
      ],
      "name": "OwnershipRenounced",
      "type": "event"
    },
    {
      "anonymous": false,
      "inputs": [
        {
          "indexed": true,
          "name": "previousOwner",
          "type": "address"
        },
        {
          "indexed": true,
          "name": "newOwner",
          "type": "address"
        }
      ],
      "name": "OwnershipTransferred",
      "type": "event"
    }
  ],
  "bytecode": "0x608060405234801561001057600080fd5b506040516020806104d8833981016040525160008054600160a060020a031916331790556100667f01ffc9a7000000000000000000000000000000000000000000000000000000006401000000006100dc810204565b600160a060020a038116151561007b57600080fd5b6002805433600160a060020a03199182161790915560008054909116600160a060020a0383161790556100d67f6125ede5000000000000000000000000000000000000000000000000000000006401000000006100dc810204565b5061014b565b7fffffffff00000000000000000000000000000000000000000000000000000000808216141561010b57600080fd5b7fffffffff00000000000000000000000000000000000000000000000000000000166000908152600160208190526040909120805460ff19169091179055565b61037e8061015a6000396000f3006080604052600436106100825763ffffffff7c010000000000000000000000000000000000000000000000000000000060003504166301ffc9a7811461008757806319fa8f50146100d25780636f2ddd9314610119578063715018a61461014a5780638da5cb5b14610161578063f2fde38b14610176578063fbf964eb14610197575b600080fd5b34801561009357600080fd5b506100be7bffffffffffffffffffffffffffffffffffffffffffffffffffffffff19600435166101ac565b604080519115158252519081900360200190f35b3480156100de57600080fd5b506100e76101e0565b604080517bffffffffffffffffffffffffffffffffffffffffffffffffffffffff199092168252519081900360200190f35b34801561012557600080fd5b5061012e610204565b60408051600160a060020a039092168252519081900360200190f35b34801561015657600080fd5b5061015f610213565b005b34801561016d57600080fd5b5061012e61027f565b34801561018257600080fd5b5061015f600160a060020a036004351661028e565b3480156101a357600080fd5b506100e76102b1565b7bffffffffffffffffffffffffffffffffffffffffffffffffffffffff191660009081526001602052604090205460ff1690565b7f01ffc9a70000000000000000000000000000000000000000000000000000000081565b600254600160a060020a031681565b600054600160a060020a0316331461022a57600080fd5b60008054604051600160a060020a03909116917ff8df31144d9c2f0f6b59d69b8b98abd5459d07f2742c4df920b25aae33c6482091a26000805473ffffffffffffffffffffffffffffffffffffffff19169055565b600054600160a060020a031681565b600054600160a060020a031633146102a557600080fd5b6102ae816102d5565b50565b7f6125ede50000000000000000000000000000000000000000000000000000000081565b600160a060020a03811615156102ea57600080fd5b60008054604051600160a060020a03808516939216917f8be0079c531659141344cd1fd0a4f28419497f9722a3daafe3b4186f6b6457e091a36000805473ffffffffffffffffffffffffffffffffffffffff1916600160a060020a03929092169190911790555600a165627a7a7230582062aef1aa6fc51d3311877ade39a99adff7df16226af59b18b04f40c5412509a10029",
  "source": "pragma solidity ^0.4.24;\n\nimport \"zeppelin-solidity/contracts/ownership/Ownable.sol\";\nimport \"zeppelin-solidity/contracts/introspection/SupportsInterfaceWithLookup.sol\";\nimport \"./template/Template.sol\";\n\ncontract Contract is Ownable, SupportsInterfaceWithLookup {\n    /**\n     * @notice this.owner.selector ^ this.renounceOwnership.selector ^ this.transferOwnership.selector\n        ^ this.template.selector\n     */\n    bytes4 public constant InterfaceId_Contract = 0x6125ede5;\n\n    Template public template;\n\n    constructor(address _owner) public {\n        require(_owner != address(0));\n\n        template = Template(msg.sender);\n        owner = _owner;\n\n        _registerInterface(InterfaceId_Contract);\n    }\n}\n",
  "sourcePath": "tokenboost-solidity/contracts/Contract.sol",
  "compiler": {
    "name": "solc",
    "version": "0.4.24+commit.e67f0147.Emscripten.clang"
  },
  "schemaVersion": "2.0.1",
  "updatedAt": "2018-10-19T10:29:33.595Z"
}