{
  "contractName": "ERC20Sale",
  "abi": [
    {
      "constant": true,
      "inputs": [
        {
          "name": "_interfaceId",
          "type": "bytes4"
        }
      ],
      "name": "supportsInterface",
      "outputs": [
        {
          "name": "",
          "type": "bool"
        }
      ],
      "payable": false,
      "stateMutability": "view",
      "type": "function"
    },
    {
      "constant": true,
      "inputs": [],
      "name": "name",
      "outputs": [
        {
          "name": "",
          "type": "string"
        }
      ],
      "payable": false,
      "stateMutability": "view",
      "type": "function"
    },
    {
      "constant": true,
      "inputs": [],
      "name": "numberOfStrategies",
      "outputs": [
        {
          "name": "",
          "type": "uint256"
        }
      ],
      "payable": false,
      "stateMutability": "view",
      "type": "function"
    },
    {
      "constant": false,
      "inputs": [],
      "name": "activate",
      "outputs": [
        {
          "name": "",
          "type": "bool"
        }
      ],
      "payable": false,
      "stateMutability": "nonpayable",
      "type": "function"
    },
    {
      "constant": true,
      "inputs": [
        {
          "name": "index",
          "type": "uint256"
        }
      ],
      "name": "strategyAt",
      "outputs": [
        {
          "name": "",
          "type": "address"
        }
      ],
      "payable": false,
      "stateMutability": "view",
      "type": "function"
    },
    {
      "constant": true,
      "inputs": [],
      "name": "activated",
      "outputs": [
        {
          "name": "",
          "type": "bool"
        }
      ],
      "payable": false,
      "stateMutability": "view",
      "type": "function"
    },
    {
      "constant": true,
      "inputs": [],
      "name": "InterfaceId_ERC165",
      "outputs": [
        {
          "name": "",
          "type": "bytes4"
        }
      ],
      "payable": false,
      "stateMutability": "view",
      "type": "function"
    },
    {
      "constant": true,
      "inputs": [],
      "name": "started",
      "outputs": [
        {
          "name": "",
          "type": "bool"
        }
      ],
      "payable": false,
      "stateMutability": "view",
      "type": "function"
    },
    {
      "constant": true,
      "inputs": [],
      "name": "InterfaceId_ERC20Sale",
      "outputs": [
        {
          "name": "",
          "type": "bytes4"
        }
      ],
      "payable": false,
      "stateMutability": "view",
      "type": "function"
    },
    {
      "constant": true,
      "inputs": [],
      "name": "whitepaperUrl",
      "outputs": [
        {
          "name": "",
          "type": "string"
        }
      ],
      "payable": false,
      "stateMutability": "view",
      "type": "function"
    },
    {
      "constant": true,
      "inputs": [],
      "name": "numberOfActivatedStrategies",
      "outputs": [
        {
          "name": "",
          "type": "uint256"
        }
      ],
      "payable": false,
      "stateMutability": "view",
      "type": "function"
    },
    {
      "constant": false,
      "inputs": [],
      "name": "withdraw",
      "outputs": [
        {
          "name": "",
          "type": "bool"
        }
      ],
      "payable": false,
      "stateMutability": "nonpayable",
      "type": "function"
    },
    {
      "constant": true,
      "inputs": [],
      "name": "weiRaised",
      "outputs": [
        {
          "name": "",
          "type": "uint256"
        }
      ],
      "payable": false,
      "stateMutability": "view",
      "type": "function"
    },
    {
      "constant": true,
      "inputs": [
        {
          "name": "index",
          "type": "uint256"
        }
      ],
      "name": "activatedStrategyAt",
      "outputs": [
        {
          "name": "",
          "type": "address"
        }
      ],
      "payable": false,
      "stateMutability": "view",
      "type": "function"
    },
    {
      "constant": true,
      "inputs": [],
      "name": "template",
      "outputs": [
        {
          "name": "",
          "type": "address"
        }
      ],
      "payable": false,
      "stateMutability": "view",
      "type": "function"
    },
    {
      "constant": false,
      "inputs": [],
      "name": "renounceOwnership",
      "outputs": [],
      "payable": false,
      "stateMutability": "nonpayable",
      "type": "function"
    },
    {
      "constant": true,
      "inputs": [],
      "name": "projectDescription",
      "outputs": [
        {
          "name": "",
          "type": "string"
        }
      ],
      "payable": false,
      "stateMutability": "view",
      "type": "function"
    },
    {
      "constant": false,
      "inputs": [
        {
          "name": "_template",
          "type": "address"
        },
        {
          "name": "_bytecode",
          "type": "bytes"
        }
      ],
      "name": "addStrategy",
      "outputs": [],
      "payable": true,
      "stateMutability": "payable",
      "type": "function"
    },
    {
      "constant": true,
      "inputs": [],
      "name": "owner",
      "outputs": [
        {
          "name": "",
          "type": "address"
        }
      ],
      "payable": false,
      "stateMutability": "view",
      "type": "function"
    },
    {
      "constant": true,
      "inputs": [],
      "name": "logoUrl",
      "outputs": [
        {
          "name": "",
          "type": "string"
        }
      ],
      "payable": false,
      "stateMutability": "view",
      "type": "function"
    },
    {
      "constant": true,
      "inputs": [],
      "name": "projectName",
      "outputs": [
        {
          "name": "",
          "type": "string"
        }
      ],
      "payable": false,
      "stateMutability": "view",
      "type": "function"
    },
    {
      "constant": true,
      "inputs": [],
      "name": "successful",
      "outputs": [
        {
          "name": "",
          "type": "bool"
        }
      ],
      "payable": false,
      "stateMutability": "view",
      "type": "function"
    },
    {
      "constant": true,
      "inputs": [],
      "name": "projectSummary",
      "outputs": [
        {
          "name": "",
          "type": "string"
        }
      ],
      "payable": false,
      "stateMutability": "view",
      "type": "function"
    },
    {
      "constant": true,
      "inputs": [],
      "name": "websiteUrl",
      "outputs": [
        {
          "name": "",
          "type": "string"
        }
      ],
      "payable": false,
      "stateMutability": "view",
      "type": "function"
    },
    {
      "constant": false,
      "inputs": [],
      "name": "claimRefund",
      "outputs": [
        {
          "name": "",
          "type": "bool"
        }
      ],
      "payable": false,
      "stateMutability": "nonpayable",
      "type": "function"
    },
    {
      "constant": true,
      "inputs": [],
      "name": "finished",
      "outputs": [
        {
          "name": "",
          "type": "bool"
        }
      ],
      "payable": false,
      "stateMutability": "view",
      "type": "function"
    },
    {
      "constant": true,
      "inputs": [],
      "name": "withdrawn",
      "outputs": [
        {
          "name": "",
          "type": "bool"
        }
      ],
      "payable": false,
      "stateMutability": "view",
      "type": "function"
    },
    {
      "constant": true,
      "inputs": [
        {
          "name": "_purchaser",
          "type": "address"
        }
      ],
      "name": "paymentOf",
      "outputs": [
        {
          "name": "weiAmount",
          "type": "uint256"
        }
      ],
      "payable": false,
      "stateMutability": "view",
      "type": "function"
    },
    {
      "constant": true,
      "inputs": [],
      "name": "InterfaceId_Sale",
      "outputs": [
        {
          "name": "",
          "type": "bytes4"
        }
      ],
      "payable": false,
      "stateMutability": "view",
      "type": "function"
    },
    {
      "constant": true,
      "inputs": [],
      "name": "coverImageUrl",
      "outputs": [
        {
          "name": "",
          "type": "string"
        }
      ],
      "payable": false,
      "stateMutability": "view",
      "type": "function"
    },
    {
      "constant": false,
      "inputs": [
        {
          "name": "_newOwner",
          "type": "address"
        }
      ],
      "name": "transferOwnership",
      "outputs": [],
      "payable": false,
      "stateMutability": "nonpayable",
      "type": "function"
    },
    {
      "constant": true,
      "inputs": [],
      "name": "InterfaceId_Contract",
      "outputs": [
        {
          "name": "",
          "type": "bytes4"
        }
      ],
      "payable": false,
      "stateMutability": "view",
      "type": "function"
    },
    {
      "constant": true,
      "inputs": [],
      "name": "token",
      "outputs": [
        {
          "name": "",
          "type": "address"
        }
      ],
      "payable": false,
      "stateMutability": "view",
      "type": "function"
    },
    {
      "inputs": [
        {
          "name": "_owner",
          "type": "address"
        },
        {
          "name": "_projectName",
          "type": "string"
        },
        {
          "name": "_name",
          "type": "string"
        },
        {
          "name": "_token",
          "type": "address"
        }
      ],
      "payable": false,
      "stateMutability": "nonpayable",
      "type": "constructor"
    },
    {
      "payable": true,
      "stateMutability": "payable",
      "type": "fallback"
    },
    {
      "anonymous": false,
      "inputs": [
        {
          "indexed": true,
          "name": "purchaser",
          "type": "address"
        },
        {
          "indexed": false,
          "name": "weiAmount",
          "type": "uint256"
        },
        {
          "indexed": false,
          "name": "tokenAmount",
          "type": "uint256"
        }
      ],
      "name": "TokenPurchase",
      "type": "event"
    },
    {
      "anonymous": false,
      "inputs": [
        {
          "indexed": true,
          "name": "previousOwner",
          "type": "address"
        }
      ],
      "name": "OwnershipRenounced",
      "type": "event"
    },
    {
      "anonymous": false,
      "inputs": [
        {
          "indexed": true,
          "name": "previousOwner",
          "type": "address"
        },
        {
          "indexed": true,
          "name": "newOwner",
          "type": "address"
        }
      ],
      "name": "OwnershipTransferred",
      "type": "event"
    },
    {
      "constant": false,
      "inputs": [
        {
          "name": "_projectName",
          "type": "string"
        },
        {
          "name": "_projectSummary",
          "type": "string"
        },
        {
          "name": "_projectDescription",
          "type": "string"
        },
        {
          "name": "_logoUrl",
          "type": "string"
        },
        {
          "name": "_coverImageUrl",
          "type": "string"
        },
        {
          "name": "_websiteUrl",
          "type": "string"
        },
        {
          "name": "_whitepaperUrl",
          "type": "string"
        },
        {
          "name": "_name",
          "type": "string"
        },
        {
          "name": "_token",
          "type": "address"
        }
      ],
      "name": "update",
      "outputs": [],
      "payable": false,
      "stateMutability": "nonpayable",
      "type": "function"
    },
    {
      "constant": false,
      "inputs": [
        {
          "name": "_projectName",
          "type": "string"
        },
        {
          "name": "_projectSummary",
          "type": "string"
        },
        {
          "name": "_projectDescription",
          "type": "string"
        },
        {
          "name": "_logoUrl",
          "type": "string"
        },
        {
          "name": "_coverImageUrl",
          "type": "string"
        },
        {
          "name": "_websiteUrl",
          "type": "string"
        },
        {
          "name": "_whitepaperUrl",
          "type": "string"
        },
        {
          "name": "_name",
          "type": "string"
        }
      ],
      "name": "update",
      "outputs": [],
      "payable": false,
      "stateMutability": "nonpayable",
      "type": "function"
    }
  ],
  "bytecode": "0x60806040523480156200001157600080fd5b50604051620022c8380380620022c88339810160409081528151602083015191830151606084015160008054600160a060020a031916331790559193928301920190838383826200008b7f01ffc9a7000000000000000000000000000000000000000000000000000000006401000000006200018d810204565b600160a060020a0381161515620000a157600080fd5b6002805433600160a060020a03199182161790915560008054909116600160a060020a038316179055620000fe7f6125ede5000000000000000000000000000000000000000000000000000000006401000000006200018d810204565b50815162000114906003906020850190620001fd565b5080516200012a90600a906020840190620001fd565b506200015f7f8139792d000000000000000000000000000000000000000000000000000000006401000000006200018d810204565b505060108054600160a060020a031916600160a060020a03939093169290921790915550620002a292505050565b7fffffffff000000000000000000000000000000000000000000000000000000008082161415620001bd57600080fd5b7fffffffff00000000000000000000000000000000000000000000000000000000166000908152600160208190526040909120805460ff19169091179055565b828054600181600116156101000203166002900490600052602060002090601f016020900481019282601f106200024057805160ff191683800117855562000270565b8280016001018555821562000270579182015b828111156200027057825182559160200191906001019062000253565b506200027e92915062000282565b5090565b6200029f91905b808211156200027e576000815560010162000289565b90565b61201680620002b26000396000f30060806040526004361061019d5763ffffffff60e060020a60003504166301ffc9a7811461026757806306fdde03146102b25780630956e5a61461033c5780630f15f4c0146103635780630fc8c0b614610378578063148cb6e6146103ac578063186601ca146105c457806319fa8f50146105d95780631f2698ab1461062057806327f6c75a146106355780632c7a72f81461064a578063334ff6321461065f5780633ccfd60b146106745780634042b66f146106895780635027a9161461069e5780636f2ddd93146106b6578063715018a6146106cb578063755f047b146106e05780637aeedf2a146106f55780638da5cb5b1461074f578063993d77af146107645780639a33e300146107795780639a9e3fd81461078e5780639ec318bf146107a3578063abb5ca09146107b8578063b5545a3c146107cd578063bef4876b146107e2578063c80ec522146107f7578063cf7c2b311461080c578063d04be2da1461082d578063dea53c2014610842578063df1c5c7c14610857578063f2fde38b14610a62578063fbf964eb14610a83578063fc0c546a14610a98575b600254600090819060a060020a900460ff1615156101ba57600080fd5b6101c2610aad565b156101cc57600080fd5b6101d4610b8a565b15156101df57600080fd5b6101e834610c66565b15156101f357600080fd5b6101fd3334610d4f565b61020634610dd0565b91506102123383610ecb565b905061021e8183610fb4565b151561022957600080fd5b6040805134815260208101849052815133927fcd60aa75dea3072fbc07ae6d7d856b5dc5f4eee88854f5b4abf7b680ef8bc50f928290030190a25050005b34801561027357600080fd5b5061029e7bffffffffffffffffffffffffffffffffffffffffffffffffffffffff196004351661109d565b604080519115158252519081900360200190f35b3480156102be57600080fd5b506102c76110d1565b6040805160208082528351818301528351919283929083019185019080838360005b838110156103015781810151838201526020016102e9565b50505050905090810190601f16801561032e5780820380516001836020036101000a031916815260200191505b509250505060405180910390f35b34801561034857600080fd5b5061035161115f565b60408051918252519081900360200190f35b34801561036f57600080fd5b5061029e611166565b34801561038457600080fd5b506103906004356112a1565b60408051600160a060020a039092168252519081900360200190f35b3480156103b857600080fd5b506040805160206004803580820135601f81018490048402850184019095528484526105c294369492936024939284019190819084018382808284375050604080516020601f89358b018035918201839004830284018301909452808352979a99988101979196509182019450925082915084018382808284375050604080516020601f89358b018035918201839004830284018301909452808352979a99988101979196509182019450925082915084018382808284375050604080516020601f89358b018035918201839004830284018301909452808352979a99988101979196509182019450925082915084018382808284375050604080516020601f89358b018035918201839004830284018301909452808352979a99988101979196509182019450925082915084018382808284375050604080516020601f89358b018035918201839004830284018301909452808352979a99988101979196509182019450925082915084018382808284375050604080516020601f89358b018035918201839004830284018301909452808352979a99988101979196509182019450925082915084018382808284375050604080516020601f89358b018035918201839004830284018301909452808352979a99988101979196509182019450925082915084018382808284375094975050509235600160a060020a031693506112cd92505050565b005b3480156105d057600080fd5b5061029e611314565b3480156105e557600080fd5b506105ee611324565b604080517bffffffffffffffffffffffffffffffffffffffffffffffffffffffff199092168252519081900360200190f35b34801561062c57600080fd5b5061029e610b8a565b34801561064157600080fd5b506105ee611348565b34801561065657600080fd5b506102c761136c565b34801561066b57600080fd5b506103516113c7565b34801561068057600080fd5b5061029e6113cd565b34801561069557600080fd5b50610351611476565b3480156106aa57600080fd5b5061039060043561147c565b3480156106c257600080fd5b5061039061148d565b3480156106d757600080fd5b506105c261149c565b3480156106ec57600080fd5b506102c7611508565b60408051602060046024803582810135601f81018590048502860185019096528585526105c2958335600160a060020a03169536956044949193909101919081908401838280828437509497506115639650505050505050565b34801561075b57600080fd5b506103906118d6565b34801561077057600080fd5b506102c76118e5565b34801561078557600080fd5b506102c7611940565b34801561079a57600080fd5b5061029e61199b565b3480156107af57600080fd5b506102c7611a6f565b3480156107c457600080fd5b506102c7611aca565b3480156107d957600080fd5b5061029e611b25565b3480156107ee57600080fd5b5061029e610aad565b34801561080357600080fd5b5061029e611bc9565b34801561081857600080fd5b50610351600160a060020a0360043516611bd2565b34801561083957600080fd5b506105ee611bed565b34801561084e57600080fd5b506102c7611c11565b34801561086357600080fd5b506040805160206004803580820135601f81018490048402850184019095528484526105c294369492936024939284019190819084018382808284375050604080516020601f89358b018035918201839004830284018301909452808352979a99988101979196509182019450925082915084018382808284375050604080516020601f89358b018035918201839004830284018301909452808352979a99988101979196509182019450925082915084018382808284375050604080516020601f89358b018035918201839004830284018301909452808352979a99988101979196509182019450925082915084018382808284375050604080516020601f89358b018035918201839004830284018301909452808352979a99988101979196509182019450925082915084018382808284375050604080516020601f89358b018035918201839004830284018301909452808352979a99988101979196509182019450925082915084018382808284375050604080516020601f89358b018035918201839004830284018301909452808352979a99988101979196509182019450925082915084018382808284375050604080516020601f89358b018035918201839004830284018301909452808352979a999881019791965091820194509250829150840183828082843750949750611c6c9650505050505050565b348015610a6e57600080fd5b506105c2600160a060020a0360043516611d44565b348015610a8f57600080fd5b506105ee611d67565b348015610aa457600080fd5b50610390611d8b565b6000806000610aba610b8a565b1515610ac95760009250610b85565b5060009050805b600e54811015610b81578180610b775750600e805482908110610aef57fe5b9060005260206000200160009054906101000a9004600160a060020a0316600160a060020a031663bef4876b6040518163ffffffff1660e060020a028152600401602060405180830381600087803b158015610b4a57600080fd5b505af1158015610b5e573d6000803e3d6000fd5b505050506040513d6020811015610b7457600080fd5b50515b9150600101610ad0565b8192505b505090565b6000806000600260149054906101000a900460ff161515610bae5760009250610b85565b5060009050805b600e54811015610b81578180610c5c5750600e805482908110610bd457fe5b9060005260206000200160009054906101000a9004600160a060020a0316600160a060020a0316631f2698ab6040518163ffffffff1660e060020a028152600401602060405180830381600087803b158015610c2f57600080fd5b505af1158015610c43573d6000803e3d6000fd5b505050506040513d6020811015610c5957600080fd5b50515b9150600101610bb5565b6000600181805b600e54821015610d4657600e805483908110610c8557fe5b600091825260209091200154600160a060020a03169050828015610d395750604080517f4f9a82d6000000000000000000000000000000000000000000000000000000008152336004820152602481018790529051600160a060020a03831691634f9a82d69160448083019260209291908290030181600087803b158015610d0c57600080fd5b505af1158015610d20573d6000803e3d6000fd5b505050506040513d6020811015610d3657600080fd5b50515b9250600190910190610c6d565b50909392505050565b610d57610aad565b15610d6157600080fd5b610d69610b8a565b1515610d7457600080fd5b600160a060020a0382166000908152600f6020526040902054610d9d908263ffffffff611d9a16565b600160a060020a0383166000908152600f6020526040902055600b54610dc9908263ffffffff611d9a16565b600b555050565b6000818180805b600e54831015610ec157600e805484908110610def57fe5b6000918252602080832090910154604080517f5589530e000000000000000000000000000000000000000000000000000000008152336004820152602481018b90529051600160a060020a0390921695508593635589530e9360448084019491939192918390030190829087803b158015610e6957600080fd5b505af1158015610e7d573d6000803e3d6000fd5b505050506040513d6020811015610e9357600080fd5b5051905060008111610ea457600080fd5b610eb4848263ffffffff611dad16565b9350600190920191610dd7565b5091949350505050565b600080805b600e54821015610fa857600e805483908110610ee857fe5b6000918252602080832090910154604080517fe67c8646000000000000000000000000000000000000000000000000000000008152600160a060020a038a81166004830152602482018a90529151919092169450849363e67c864693604480850194919392918390030190829087803b158015610f6457600080fd5b505af1158015610f78573d6000803e3d6000fd5b505050506040513d6020811015610f8e57600080fd5b505115610f9d57809250610fac565b600190910190610ed0565b8492505b505092915050565b600080805b600e5482101561109257600e805483908110610fd157fe5b6000918252602080832090910154604080517f587775e8000000000000000000000000000000000000000000000000000000008152600160a060020a038a81166004830152602482018a90529151919092169450849363587775e893604480850194919392918390030190829087803b15801561104d57600080fd5b505af1158015611061573d6000803e3d6000fd5b505050506040513d602081101561107757600080fd5b5051156110875760019250610fac565b600190910190610fb9565b506000949350505050565b7bffffffffffffffffffffffffffffffffffffffffffffffffffffffff191660009081526001602052604090205460ff1690565b600a805460408051602060026001851615610100026000190190941693909304601f810184900484028201840190925281815292918301828280156111575780601f1061112c57610100808354040283529160200191611157565b820191906000526020600020905b81548152906001019060200180831161113a57829003601f168201915b505050505081565b600d545b90565b6000805481908190600160a060020a0316331461118257600080fd5b600091505b600d5482101561129257600d80548390811061119f57fe5b9060005260206000200160009054906101000a9004600160a060020a0316905080600160a060020a031663186601ca6040518163ffffffff1660e060020a028152600401602060405180830381600087803b1580156111fd57600080fd5b505af1158015611211573d6000803e3d6000fd5b505050506040513d602081101561122757600080fd5b50511561128757600e80546001810182556000919091527fbb7b4a454dc3493923482f07822329ed19e8244eff582cc204f8554c3620c3fd01805473ffffffffffffffffffffffffffffffffffffffff1916600160a060020a0383161790555b600190910190611187565b61129a611dd6565b9250505090565b6000600d828154811015156112b257fe5b600091825260209091200154600160a060020a031692915050565b6112dd8989898989898989611c6c565b6010805473ffffffffffffffffffffffffffffffffffffffff1916600160a060020a03929092169190911790555050505050505050565b60025460a060020a900460ff1681565b7f01ffc9a70000000000000000000000000000000000000000000000000000000081565b7f95b5cfcb0000000000000000000000000000000000000000000000000000000081565b6009805460408051602060026001851615610100026000190190941693909304601f810184900484028201840190925281815292918301828280156111575780601f1061112c57610100808354040283529160200191611157565b600e5490565b60008054600160a060020a031633146113e557600080fd5b60025460a060020a900460ff1615156113fd57600080fd5b600c5460ff161561140d57600080fd5b611415610aad565b151561142057600080fd5b61142861199b565b151561143357600080fd5b600c805460ff19166001179055600b54604051339180156108fc02916000818181858888f1935050505015801561146e573d6000803e3d6000fd5b506001905090565b600b5481565b6000600e828154811015156112b257fe5b600254600160a060020a031681565b600054600160a060020a031633146114b357600080fd5b60008054604051600160a060020a03909116917ff8df31144d9c2f0f6b59d69b8b98abd5459d07f2742c4df920b25aae33c6482091a26000805473ffffffffffffffffffffffffffffffffffffffff19169055565b6005805460408051602060026001851615610100026000190190941693909304601f810184900484028201840190925281815292918301828280156111575780601f1061112c57610100808354040283529160200191611157565b6000805460609190600160a060020a0316331461157f57600080fd5b60025460a060020a900460ff161561159657600080fd5b604080517f01ffc9a70000000000000000000000000000000000000000000000000000000080825260048201529051600160a060020a038616916301ffc9a79160248083019260209291908290030181600087803b1580156115f757600080fd5b505af115801561160b573d6000803e3d6000fd5b505050506040513d602081101561162157600080fd5b5051151561162e57600080fd5b604080517f01ffc9a70000000000000000000000000000000000000000000000000000000081527fd48445ff0000000000000000000000000000000000000000000000000000000060048201529051600160a060020a038616916301ffc9a79160248083019260209291908290030181600087803b1580156116af57600080fd5b505af11580156116c3573d6000803e3d6000fd5b505050506040513d60208110156116d957600080fd5b505115156116e657600080fd5b6116ef84611dff565b15156116fa57600080fd5b60408051336020808301919091523082840152825180830384018152606083018085527f6535b4a500000000000000000000000000000000000000000000000000000000905260648301938452865160a48401528651909550600160a060020a03881693636535b4a593349389938993928392608482019260c4909201919087019080838360005b8381101561179a578181015183820152602001611782565b50505050905090810190601f1680156117c75780820380516001836020036101000a031916815260200191505b50838103825284518152845160209182019186019080838360005b838110156117fa5781810151838201526020016117e2565b50505050905090810190601f1680156118275780820380516001836020036101000a031916815260200191505b509450505050506020604051808303818588803b15801561184757600080fd5b505af115801561185b573d6000803e3d6000fd5b50505050506040513d602081101561187257600080fd5b5051600d80546001810182556000919091527fd7b6990105719101dabeb77144f2a3385c8033acd3af97e9423a695e81ad1eb501805473ffffffffffffffffffffffffffffffffffffffff1916600160a060020a0390921691909117905550505050565b600054600160a060020a031681565b6006805460408051602060026001851615610100026000190190941693909304601f810184900484028201840190925281815292918301828280156111575780601f1061112c57610100808354040283529160200191611157565b6003805460408051602060026001851615610100026000190190941693909304601f810184900484028201840190925281815292918301828280156111575780601f1061112c57610100808354040283529160200191611157565b60008060006119a8610b8a565b15156119b75760009250610b85565b5060009050805b600e54811015610b81578180611a655750600e8054829081106119dd57fe5b9060005260206000200160009054906101000a9004600160a060020a0316600160a060020a0316639a9e3fd86040518163ffffffff1660e060020a028152600401602060405180830381600087803b158015611a3857600080fd5b505af1158015611a4c573d6000803e3d6000fd5b505050506040513d6020811015611a6257600080fd5b50515b91506001016119be565b6004805460408051602060026001851615610100026000190190941693909304601f810184900484028201840190925281815292918301828280156111575780601f1061112c57610100808354040283529160200191611157565b6008805460408051602060026001851615610100026000190190941693909304601f810184900484028201840190925281815292918301828280156111575780601f1061112c57610100808354040283529160200191611157565b600254600090819060a060020a900460ff161515611b4257600080fd5b611b4a610aad565b1515611b5557600080fd5b611b5d61199b565b15611b6757600080fd5b50336000908152600f6020526040812054908111611b8457600080fd5b336000818152600f60205260408082208290555183156108fc0291849190818181858888f19350505050158015611bbf573d6000803e3d6000fd5b50600191505b5090565b600c5460ff1681565b600160a060020a03166000908152600f602052604090205490565b7f8139792d0000000000000000000000000000000000000000000000000000000081565b6007805460408051602060026001851615610100026000190190941693909304601f810184900484028201840190925281815292918301828280156111575780601f1061112c57610100808354040283529160200191611157565b600054600160a060020a03163314611c8357600080fd5b60025460a060020a900460ff1615611c9a57600080fd5b8751611cad9060039060208b0190611f5c565b508651611cc19060049060208a0190611f5c565b508551611cd5906005906020890190611f5c565b508451611ce9906006906020880190611f5c565b508351611cfd906007906020870190611f5c565b508251611d11906008906020860190611f5c565b508151611d25906009906020850190611f5c565b508051611d3990600a906020840190611f5c565b505050505050505050565b600054600160a060020a03163314611d5b57600080fd5b611d6481611edf565b50565b7f6125ede50000000000000000000000000000000000000000000000000000000081565b601054600160a060020a031681565b81810182811015611da757fe5b92915050565b6000821515611dbe57506000611da7565b50818102818382811515611dce57fe5b0414611da757fe5b6002805474ff0000000000000000000000000000000000000000191660a060020a179055600190565b600080805b600d54821015611ed357600d805483908110611e1c57fe5b9060005260206000200160009054906101000a9004600160a060020a0316905083600160a060020a031681600160a060020a0316636f2ddd936040518163ffffffff1660e060020a028152600401602060405180830381600087803b158015611e8457600080fd5b505af1158015611e98573d6000803e3d6000fd5b505050506040513d6020811015611eae57600080fd5b5051600160a060020a03161415611ec85760009250611ed8565b600190910190611e04565b600192505b5050919050565b600160a060020a0381161515611ef457600080fd5b60008054604051600160a060020a03808516939216917f8be0079c531659141344cd1fd0a4f28419497f9722a3daafe3b4186f6b6457e091a36000805473ffffffffffffffffffffffffffffffffffffffff1916600160a060020a0392909216919091179055565b828054600181600116156101000203166002900490600052602060002090601f016020900481019282601f10611f9d57805160ff1916838001178555611fca565b82800160010185558215611fca579182015b82811115611fca578251825591602001919060010190611faf565b50611bc5926111639250905b80821115611bc55760008155600101611fd65600a165627a7a72305820e353b7d0540bfdc8281ac7817487d7854a0a4a52f16be26fa00790d08f0686e40029",
  "source": "pragma solidity ^0.4.24;\n\nimport \"zeppelin-solidity/contracts/math/SafeMath.sol\";\nimport \"zeppelin-solidity/contracts/token/ERC20/ERC20.sol\";\nimport \"../Sale.sol\";\nimport \"../../utils/strings.sol\";\nimport \"../../strategy/sale/erc20/ERC20SaleStrategy.sol\";\n\ncontract ERC20Sale is Sale {\n    using SafeMath for uint256;\n    using strings for *;\n\n    /**\n     * @notice this.owner.selector ^ this.renounceOwnership.selector ^ this.transferOwnership.selector\n        ^ this.template.selector ^ this.activate.selector\n        ^ this.projectName.selector ^ this.projectSummary.selector ^ this.projectDescription.selector\n        ^ this.logoUrl.selector ^ this.coverImageUrl.selector ^ this.websiteUrl.selector ^ this.whitepaperUrl.selector\n        ^ this.name.selector ^ this.weiRaised.selector ^ this.withdrawn.selector ^ this.ready.selector\n        ^ this.started.selector ^ this.successful.selector ^ this.finished.selector ^ this.paymentOf.selector\n        ^ bytes4(keccak256(\"update(string,string,string,string,string,string,string,string)\"))\n        ^ bytes4(keccak256(\"update(string,string,string,string,string,string,string,string,address)\"))\n        ^ this.addStrategy.selector ^ this.numberOfStrategies.selector ^ this.strategyAt.selector\n        ^ this.numberOfActivatedStrategies.selector ^ this.activatedStrategyAt.selector\n        ^ this.withdraw.selector ^ this.claimRefund.selector\n     */\n    bytes4 public constant InterfaceId_ERC20Sale = 0x95b5cfcb;\n\n    event TokenPurchase(\n        address indexed purchaser,\n        uint256 weiAmount,\n        uint256 tokenAmount\n    );\n\n    ERC20 public token;\n\n    constructor(\n        address _owner,\n        string _projectName,\n        string _name,\n        ERC20 _token\n    ) public Sale(_owner, _projectName, _name) {\n        token = _token;\n    }\n\n    function update(\n        string _projectName,\n        string _projectSummary,\n        string _projectDescription,\n        string _logoUrl,\n        string _coverImageUrl,\n        string _websiteUrl,\n        string _whitepaperUrl,\n        string _name,\n        ERC20 _token\n    ) public {\n        super.update(\n            _projectName,\n            _projectSummary,\n            _projectDescription,\n            _logoUrl,\n            _coverImageUrl,\n            _websiteUrl,\n            _whitepaperUrl,\n            _name\n        );\n        token = _token;\n    }\n\n    function() whenActivated external payable {\n        require(!finished());\n        require(started());\n        require(_purchasable(msg.value));\n\n        increasePaymentOf(msg.sender, msg.value);\n\n        uint256 tokenAmount = _getTokenAmount(msg.value);\n        address tokenReceiver = _tokenReceiver(msg.sender, tokenAmount);\n        require(_supplyTokens(tokenReceiver, tokenAmount));\n\n        emit TokenPurchase(msg.sender, msg.value, tokenAmount);\n    }\n\n    function _purchasable(uint256 _weiAmount) private view returns (bool) {\n        bool p = true;\n        for (uint i = 0; i < activatedStrategies.length; i++) {\n            ERC20SaleStrategy strategy = ERC20SaleStrategy(activatedStrategies[i]);\n            p = p && strategy.purchasable(msg.sender, _weiAmount);\n        }\n        return p;\n    }\n\n    function _getTokenAmount(uint256 _weiAmount) private view returns (uint256) {\n        uint256 tokenAmount = _weiAmount;\n        for (uint i = 0; i < activatedStrategies.length; i++) {\n            ERC20SaleStrategy strategy = ERC20SaleStrategy(activatedStrategies[i]);\n            uint256 rate = strategy.tokenRate(msg.sender, _weiAmount);\n            require(rate > 0);\n\n            tokenAmount = tokenAmount.mul(rate);\n        }\n        return tokenAmount;\n    }\n\n    function _tokenReceiver(address _purchaser, uint256 _tokenAmount) private view returns (address) {\n        for (uint i = 0; i < activatedStrategies.length; i++) {\n            ERC20SaleStrategy strategy = ERC20SaleStrategy(activatedStrategies[i]);\n            if (strategy.receivesTokens(_purchaser, _tokenAmount)) {\n                return address(strategy);\n            }\n        }\n        return _purchaser;\n    }\n\n    function _supplyTokens(address _to, uint256 _tokenAmount) private returns (bool) {\n        for (uint i = 0; i < activatedStrategies.length; i++) {\n            ERC20SaleStrategy strategy = ERC20SaleStrategy(activatedStrategies[i]);\n            if (strategy.supplyTokens(_to, _tokenAmount)) {\n                return true;\n            }\n        }\n        return false;\n    }\n}\n",
  "sourcePath": "tokenboost-solidity/contracts/sale/erc20/ERC20Sale.sol",
  "compiler": {
    "name": "solc",
    "version": "0.4.24+commit.e67f0147.Emscripten.clang"
  },
  "schemaVersion": "2.0.1",
  "updatedAt": "2018-10-19T10:29:33.634Z"
}