{
  "contractName": "FixedPriceStrategy",
  "abi": [
    {
      "constant": true,
      "inputs": [
        {
          "name": "_interfaceId",
          "type": "bytes4"
        }
      ],
      "name": "supportsInterface",
      "outputs": [
        {
          "name": "",
          "type": "bool"
        }
      ],
      "payable": false,
      "stateMutability": "view",
      "type": "function"
    },
    {
      "constant": true,
      "inputs": [],
      "name": "activated",
      "outputs": [
        {
          "name": "",
          "type": "bool"
        }
      ],
      "payable": false,
      "stateMutability": "view",
      "type": "function"
    },
    {
      "constant": true,
      "inputs": [],
      "name": "InterfaceId_ERC165",
      "outputs": [
        {
          "name": "",
          "type": "bytes4"
        }
      ],
      "payable": false,
      "stateMutability": "view",
      "type": "function"
    },
    {
      "constant": false,
      "inputs": [],
      "name": "deactivate",
      "outputs": [
        {
          "name": "",
          "type": "bool"
        }
      ],
      "payable": false,
      "stateMutability": "nonpayable",
      "type": "function"
    },
    {
      "constant": true,
      "inputs": [],
      "name": "InterfaceId_Strategy",
      "outputs": [
        {
          "name": "",
          "type": "bytes4"
        }
      ],
      "payable": false,
      "stateMutability": "view",
      "type": "function"
    },
    {
      "constant": true,
      "inputs": [],
      "name": "sale",
      "outputs": [
        {
          "name": "",
          "type": "address"
        }
      ],
      "payable": false,
      "stateMutability": "view",
      "type": "function"
    },
    {
      "constant": true,
      "inputs": [],
      "name": "template",
      "outputs": [
        {
          "name": "",
          "type": "address"
        }
      ],
      "payable": false,
      "stateMutability": "view",
      "type": "function"
    },
    {
      "constant": false,
      "inputs": [],
      "name": "renounceOwnership",
      "outputs": [],
      "payable": false,
      "stateMutability": "nonpayable",
      "type": "function"
    },
    {
      "constant": true,
      "inputs": [],
      "name": "renderer",
      "outputs": [
        {
          "name": "",
          "type": "address"
        }
      ],
      "payable": false,
      "stateMutability": "view",
      "type": "function"
    },
    {
      "constant": true,
      "inputs": [],
      "name": "owner",
      "outputs": [
        {
          "name": "",
          "type": "address"
        }
      ],
      "payable": false,
      "stateMutability": "view",
      "type": "function"
    },
    {
      "constant": true,
      "inputs": [],
      "name": "InterfaceId_ERC20SaleStrategy",
      "outputs": [
        {
          "name": "",
          "type": "bytes4"
        }
      ],
      "payable": false,
      "stateMutability": "view",
      "type": "function"
    },
    {
      "constant": true,
      "inputs": [],
      "name": "tokensPerEth",
      "outputs": [
        {
          "name": "",
          "type": "uint256"
        }
      ],
      "payable": false,
      "stateMutability": "view",
      "type": "function"
    },
    {
      "constant": true,
      "inputs": [],
      "name": "InterfaceId_SaleStrategy",
      "outputs": [
        {
          "name": "",
          "type": "bytes4"
        }
      ],
      "payable": false,
      "stateMutability": "view",
      "type": "function"
    },
    {
      "constant": false,
      "inputs": [
        {
          "name": "_newOwner",
          "type": "address"
        }
      ],
      "name": "transferOwnership",
      "outputs": [],
      "payable": false,
      "stateMutability": "nonpayable",
      "type": "function"
    },
    {
      "constant": true,
      "inputs": [],
      "name": "InterfaceId_Contract",
      "outputs": [
        {
          "name": "",
          "type": "bytes4"
        }
      ],
      "payable": false,
      "stateMutability": "view",
      "type": "function"
    },
    {
      "inputs": [
        {
          "name": "_owner",
          "type": "address"
        },
        {
          "name": "_sale",
          "type": "address"
        }
      ],
      "payable": false,
      "stateMutability": "nonpayable",
      "type": "constructor"
    },
    {
      "anonymous": false,
      "inputs": [
        {
          "indexed": true,
          "name": "previousOwner",
          "type": "address"
        }
      ],
      "name": "OwnershipRenounced",
      "type": "event"
    },
    {
      "anonymous": false,
      "inputs": [
        {
          "indexed": true,
          "name": "previousOwner",
          "type": "address"
        },
        {
          "indexed": true,
          "name": "newOwner",
          "type": "address"
        }
      ],
      "name": "OwnershipTransferred",
      "type": "event"
    },
    {
      "constant": false,
      "inputs": [
        {
          "name": "_tokensPerEth",
          "type": "uint256"
        }
      ],
      "name": "update",
      "outputs": [],
      "payable": false,
      "stateMutability": "nonpayable",
      "type": "function"
    },
    {
      "constant": false,
      "inputs": [],
      "name": "activate",
      "outputs": [
        {
          "name": "",
          "type": "bool"
        }
      ],
      "payable": false,
      "stateMutability": "nonpayable",
      "type": "function"
    },
    {
      "constant": true,
      "inputs": [],
      "name": "started",
      "outputs": [
        {
          "name": "",
          "type": "bool"
        }
      ],
      "payable": false,
      "stateMutability": "view",
      "type": "function"
    },
    {
      "constant": true,
      "inputs": [],
      "name": "successful",
      "outputs": [
        {
          "name": "",
          "type": "bool"
        }
      ],
      "payable": false,
      "stateMutability": "view",
      "type": "function"
    },
    {
      "constant": true,
      "inputs": [],
      "name": "finished",
      "outputs": [
        {
          "name": "",
          "type": "bool"
        }
      ],
      "payable": false,
      "stateMutability": "view",
      "type": "function"
    },
    {
      "constant": true,
      "inputs": [
        {
          "name": "_purchaser",
          "type": "address"
        },
        {
          "name": "_weiAmount",
          "type": "uint256"
        }
      ],
      "name": "purchasable",
      "outputs": [
        {
          "name": "",
          "type": "bool"
        }
      ],
      "payable": false,
      "stateMutability": "view",
      "type": "function"
    },
    {
      "constant": true,
      "inputs": [
        {
          "name": "_purchaser",
          "type": "address"
        },
        {
          "name": "_weiAmount",
          "type": "uint256"
        }
      ],
      "name": "tokenRate",
      "outputs": [
        {
          "name": "",
          "type": "uint256"
        }
      ],
      "payable": false,
      "stateMutability": "view",
      "type": "function"
    },
    {
      "constant": false,
      "inputs": [
        {
          "name": "_purchaser",
          "type": "address"
        },
        {
          "name": "_tokenAmount",
          "type": "uint256"
        }
      ],
      "name": "supplyTokens",
      "outputs": [
        {
          "name": "",
          "type": "bool"
        }
      ],
      "payable": false,
      "stateMutability": "nonpayable",
      "type": "function"
    },
    {
      "constant": false,
      "inputs": [
        {
          "name": "_purchaser",
          "type": "address"
        },
        {
          "name": "_tokenAmount",
          "type": "uint256"
        }
      ],
      "name": "receivesTokens",
      "outputs": [
        {
          "name": "",
          "type": "bool"
        }
      ],
      "payable": false,
      "stateMutability": "nonpayable",
      "type": "function"
    },
    {
      "constant": true,
      "inputs": [
        {
          "name": "locale",
          "type": "string"
        }
      ],
      "name": "adminWidgets",
      "outputs": [
        {
          "name": "json",
          "type": "string"
        }
      ],
      "payable": false,
      "stateMutability": "view",
      "type": "function"
    },
    {
      "constant": true,
      "inputs": [
        {
          "name": "locale",
          "type": "string"
        }
      ],
      "name": "userWidgets",
      "outputs": [
        {
          "name": "json",
          "type": "string"
        }
      ],
      "payable": false,
      "stateMutability": "view",
      "type": "function"
    },
    {
      "constant": true,
      "inputs": [
        {
          "name": "locale",
          "type": "string"
        }
      ],
      "name": "inputs",
      "outputs": [
        {
          "name": "json",
          "type": "string"
        }
      ],
      "payable": false,
      "stateMutability": "view",
      "type": "function"
    }
  ],
  "bytecode": "0x608060405234801561001057600080fd5b50604051604080610f4483398101604052805160209091015160008054600160a060020a031916331790558181818181806100737f01ffc9a7000000000000000000000000000000000000000000000000000000006401000000006101bc810204565b600160a060020a038116151561008857600080fd5b6002805433600160a060020a03199182161790915560008054909116600160a060020a0383161790556100e37f6125ede5000000000000000000000000000000000000000000000000000000006401000000006101bc810204565b506101167f6e301925000000000000000000000000000000000000000000000000000000006401000000006101bc810204565b5060038054600160a060020a031916600160a060020a0383161790556101647f04c8123d000000000000000000000000000000000000000000000000000000006401000000006101bc810204565b505060048054600160a060020a031916600160a060020a0383161790556101b37fa0d0304b000000000000000000000000000000000000000000000000000000006401000000006101bc810204565b5050505061022b565b7fffffffff0000000000000000000000000000000000000000000000000000000080821614156101eb57600080fd5b7fffffffff00000000000000000000000000000000000000000000000000000000166000908152600160208190526040909120805460ff19169091179055565b610d0a8061023a6000396000f3006080604052600436106101455763ffffffff60e060020a60003504166301bd3411811461014a57806301ffc9a7146102185780630f15f4c014610263578063186601ca1461027857806319fa8f501461028d5780631f2698ab146102d45780634f9a82d6146102e957806351b42b001461030d5780635589530e14610322578063587775e81461035857806364b630d81461037c5780636ad1fe02146103915780636f2ddd93146103c2578063715018a6146103d757806382ab890a146103ee5780638ada6b0f146104065780638da5cb5b1461041b578063908ba64814610430578063944ac32b146104895780639a9e3fd8146102d4578063a3a8fd2c1461049e578063bef4876b146102d4578063cbdd69b5146104f7578063ce30824e1461050c578063e67c864614610358578063f2fde38b14610521578063fbf964eb14610542575b600080fd5b34801561015657600080fd5b506040805160206004803580820135601f81018490048402850184019095528484526101a39436949293602493928401919081908401838280828437509497506105579650505050505050565b6040805160208082528351818301528351919283929083019185019080838360005b838110156101dd5781810151838201526020016101c5565b50505050905090810190601f16801561020a5780820380516001836020036101000a031916815260200191505b509250505060405180910390f35b34801561022457600080fd5b5061024f7bffffffffffffffffffffffffffffffffffffffffffffffffffffffff19600435166106c0565b604080519115158252519081900360200190f35b34801561026f57600080fd5b5061024f6106f4565b34801561028457600080fd5b5061024f610713565b34801561029957600080fd5b506102a2610734565b604080517bffffffffffffffffffffffffffffffffffffffffffffffffffffffff199092168252519081900360200190f35b3480156102e057600080fd5b5061024f610758565b3480156102f557600080fd5b5061024f600160a060020a036004351660243561075d565b34801561031957600080fd5b5061024f610765565b34801561032e57600080fd5b50610346600160a060020a036004351660243561082a565b60408051918252519081900360200190f35b34801561036457600080fd5b5061024f600160a060020a0360043516602435610832565b34801561038857600080fd5b506102a261083a565b34801561039d57600080fd5b506103a661085e565b60408051600160a060020a039092168252519081900360200190f35b3480156103ce57600080fd5b506103a661086d565b3480156103e357600080fd5b506103ec61087c565b005b3480156103fa57600080fd5b506103ec6004356108e8565b34801561041257600080fd5b506103a6610999565b34801561042757600080fd5b506103a66109b1565b34801561043c57600080fd5b506040805160206004803580820135601f81018490048402850184019095528484526101a39436949293602493928401919081908401838280828437509497506109c09650505050505050565b34801561049557600080fd5b506102a2610a4d565b3480156104aa57600080fd5b506040805160206004803580820135601f81018490048402850184019095528484526101a3943694929360249392840191908190840183828082843750949750610a719650505050505050565b34801561050357600080fd5b50610346610afe565b34801561051857600080fd5b506102a2610b04565b34801561052d57600080fd5b506103ec600160a060020a0360043516610b28565b34801561054e57600080fd5b506102a2610b4b565b604080517fbf3bed54000000000000000000000000000000000000000000000000000000008152306024820181905260048201928352835160448301528351606093735f5f4669786564507269636553747261746567799363bf3bed549387939092918291606490910190602086019080838360005b838110156105e55781810151838201526020016105cd565b50505050905090810190601f1680156106125780820380516001836020036101000a031916815260200191505b509350505050600060405180830381600087803b15801561063257600080fd5b505af1158015610646573d6000803e3d6000fd5b505050506040513d6000823e601f3d908101601f19168201604052602081101561066f57600080fd5b81019080805164010000000081111561068757600080fd5b8201602081018481111561069a57600080fd5b81516401000000008111828201871017156106b457600080fd5b50909695505050505050565b7bffffffffffffffffffffffffffffffffffffffffffffffffffffffff191660009081526001602052604090205460ff1690565b60008060055411151561070657600080fd5b61070e610b6f565b905090565b60025474010000000000000000000000000000000000000000900460ff1681565b7f01ffc9a70000000000000000000000000000000000000000000000000000000081565b600090565b600192915050565b60008054600160a060020a0316331461077d57600080fd5b600360009054906101000a9004600160a060020a0316600160a060020a031663186601ca6040518163ffffffff1660e060020a028152600401602060405180830381600087803b1580156107d057600080fd5b505af11580156107e4573d6000803e3d6000fd5b505050506040513d60208110156107fa57600080fd5b50511561080657600080fd5b506002805474ff000000000000000000000000000000000000000019169055600190565b505060055490565b600092915050565b7f6e3019250000000000000000000000000000000000000000000000000000000081565b600454600160a060020a031681565b600254600160a060020a031681565b600054600160a060020a0316331461089357600080fd5b60008054604051600160a060020a03909116917ff8df31144d9c2f0f6b59d69b8b98abd5459d07f2742c4df920b25aae33c6482091a26000805473ffffffffffffffffffffffffffffffffffffffff19169055565b600054600160a060020a031633146108ff57600080fd5b600360009054906101000a9004600160a060020a0316600160a060020a031663186601ca6040518163ffffffff1660e060020a028152600401602060405180830381600087803b15801561095257600080fd5b505af1158015610966573d6000803e3d6000fd5b505050506040513d602081101561097c57600080fd5b50511561098857600080fd5b60058190556109956106f4565b5050565b735f5f46697865645072696365537472617465677981565b600054600160a060020a031681565b604080517fe77cee3d000000000000000000000000000000000000000000000000000000008152306024820181905260048201928352835160448301528351606093735f5f4669786564507269636553747261746567799363e77cee3d938793909291829160649091019060208601908083836000838110156105e55781810151838201526020016105cd565b7fa0d0304b0000000000000000000000000000000000000000000000000000000081565b604080517fe9499555000000000000000000000000000000000000000000000000000000008152306024820181905260048201928352835160448301528351606093735f5f4669786564507269636553747261746567799363e9499555938793909291829160649091019060208601908083836000838110156105e55781810151838201526020016105cd565b60055481565b7f04c8123d0000000000000000000000000000000000000000000000000000000081565b600054600160a060020a03163314610b3f57600080fd5b610b4881610c0c565b50565b7f6125ede50000000000000000000000000000000000000000000000000000000081565b600354604080517f186601ca0000000000000000000000000000000000000000000000000000000081529051600092600160a060020a03169163186601ca91600480830192602092919082900301818787803b158015610bce57600080fd5b505af1158015610be2573d6000803e3d6000fd5b505050506040513d6020811015610bf857600080fd5b505115610c0457600080fd5b61070e610c89565b600160a060020a0381161515610c2157600080fd5b60008054604051600160a060020a03808516939216917f8be0079c531659141344cd1fd0a4f28419497f9722a3daafe3b4186f6b6457e091a36000805473ffffffffffffffffffffffffffffffffffffffff1916600160a060020a0392909216919091179055565b60008054600160a060020a03163314610ca157600080fd5b61070e6002805474ff00000000000000000000000000000000000000001916740100000000000000000000000000000000000000001790556001905600a165627a7a72305820d4c6f6e0e486c54f4bfa32f41420fb294c5452728785b4085e10e73fd02a96de0029",
  "source": "pragma solidity ^0.4.24;\n\nimport \"tokenboost-solidity/contracts/strategy/sale/erc20/ERC20SaleStrategy.sol\";\nimport \"tokenboost-solidity/contracts/widget/Renderable.sol\";\nimport \"./widget/FixedPriceStrategyRenderer.sol\";\n\ncontract FixedPriceStrategy is ERC20SaleStrategy, Renderable {\n    FixedPriceStrategyRenderer public constant renderer = FixedPriceStrategyRenderer(address(bytes20(\"__FixedPriceStrategy\")));\n\n    uint256 public tokensPerEth;\n\n    constructor(address _owner, ERC20Sale _sale) public ERC20SaleStrategy(_owner, _sale) {\n    }\n\n    function update(uint256 _tokensPerEth) public onlyOwner whenSaleNotActivated {\n        tokensPerEth = _tokensPerEth;\n        activate();\n    }\n\n    function activate() public returns (bool) {\n        require(tokensPerEth > 0);\n        return super.activate();\n    }\n\n    function started() public view returns (bool) {\n        return false;\n    }\n\n    function successful() public view returns (bool) {\n        return false;\n    }\n\n    function finished() public view returns (bool) {\n        return false;\n    }\n\n    function purchasable(address _purchaser, uint256 _weiAmount) public view returns (bool) {\n        return true;\n    }\n\n    function tokenRate(address _purchaser, uint256 _weiAmount) public view returns (uint256) {\n        return tokensPerEth;\n    }\n\n    function supplyTokens(address _purchaser, uint256 _tokenAmount) public returns (bool) {\n        return false;\n    }\n\n    function receivesTokens(address _purchaser, uint256 _tokenAmount) public returns (bool) {\n        return false;\n    }\n\n    function adminWidgets(string locale) public view returns (string json) {\n        return renderer.adminWidgets(locale, this);\n    }\n\n    function userWidgets(string locale) public view returns (string json) {\n        return renderer.userWidgets(locale, this);\n    }\n\n    function inputs(string locale) public view returns (string json) {\n        return renderer.inputs(locale, this);\n    }\n}\n",
  "sourcePath": "/Users/yoonjae/SolidityProjects/tokenboost-solidity-erc20sale-strategies/contracts/strategy/sale/erc20/fixed-price/FixedPriceStrategy.sol",
  "compiler": {
    "name": "solc",
    "version": "0.4.24+commit.e67f0147.Emscripten.clang"
  },
  "schemaVersion": "2.0.1",
  "updatedAt": "2018-10-19T10:29:33.592Z"
}