{
  "contractName": "FixedPriceStrategyRenderer",
  "abi": [
    {
      "constant": true,
      "inputs": [],
      "name": "TOKEN_PRICE_LABEL",
      "outputs": [
        {
          "name": "",
          "type": "string"
        }
      ],
      "payable": false,
      "stateMutability": "view",
      "type": "function"
    },
    {
      "constant": false,
      "inputs": [],
      "name": "renounceOwnership",
      "outputs": [],
      "payable": false,
      "stateMutability": "nonpayable",
      "type": "function"
    },
    {
      "constant": true,
      "inputs": [],
      "name": "SHORT_DESC",
      "outputs": [
        {
          "name": "",
          "type": "string"
        }
      ],
      "payable": false,
      "stateMutability": "view",
      "type": "function"
    },
    {
      "constant": true,
      "inputs": [],
      "name": "owner",
      "outputs": [
        {
          "name": "",
          "type": "address"
        }
      ],
      "payable": false,
      "stateMutability": "view",
      "type": "function"
    },
    {
      "constant": true,
      "inputs": [],
      "name": "LONG_DESC",
      "outputs": [
        {
          "name": "",
          "type": "string"
        }
      ],
      "payable": false,
      "stateMutability": "view",
      "type": "function"
    },
    {
      "constant": true,
      "inputs": [],
      "name": "UPDATE_CONFIRM",
      "outputs": [
        {
          "name": "",
          "type": "string"
        }
      ],
      "payable": false,
      "stateMutability": "view",
      "type": "function"
    },
    {
      "constant": true,
      "inputs": [],
      "name": "TOKEN_PRICE",
      "outputs": [
        {
          "name": "",
          "type": "string"
        }
      ],
      "payable": false,
      "stateMutability": "view",
      "type": "function"
    },
    {
      "constant": true,
      "inputs": [],
      "name": "UPDATE",
      "outputs": [
        {
          "name": "",
          "type": "string"
        }
      ],
      "payable": false,
      "stateMutability": "view",
      "type": "function"
    },
    {
      "constant": false,
      "inputs": [
        {
          "name": "locale",
          "type": "string"
        },
        {
          "name": "key",
          "type": "string"
        },
        {
          "name": "value",
          "type": "string"
        }
      ],
      "name": "setResource",
      "outputs": [],
      "payable": false,
      "stateMutability": "nonpayable",
      "type": "function"
    },
    {
      "constant": false,
      "inputs": [
        {
          "name": "_newOwner",
          "type": "address"
        }
      ],
      "name": "transferOwnership",
      "outputs": [],
      "payable": false,
      "stateMutability": "nonpayable",
      "type": "function"
    },
    {
      "constant": true,
      "inputs": [
        {
          "name": "locale",
          "type": "string"
        },
        {
          "name": "key",
          "type": "string"
        }
      ],
      "name": "resource",
      "outputs": [
        {
          "name": "",
          "type": "string"
        }
      ],
      "payable": false,
      "stateMutability": "view",
      "type": "function"
    },
    {
      "anonymous": false,
      "inputs": [
        {
          "indexed": true,
          "name": "previousOwner",
          "type": "address"
        }
      ],
      "name": "OwnershipRenounced",
      "type": "event"
    },
    {
      "anonymous": false,
      "inputs": [
        {
          "indexed": true,
          "name": "previousOwner",
          "type": "address"
        },
        {
          "indexed": true,
          "name": "newOwner",
          "type": "address"
        }
      ],
      "name": "OwnershipTransferred",
      "type": "event"
    },
    {
      "constant": true,
      "inputs": [
        {
          "name": "_locale",
          "type": "string"
        },
        {
          "name": "_strategy",
          "type": "address"
        }
      ],
      "name": "adminWidgets",
      "outputs": [
        {
          "name": "json",
          "type": "string"
        }
      ],
      "payable": false,
      "stateMutability": "view",
      "type": "function"
    },
    {
      "constant": true,
      "inputs": [
        {
          "name": "_locale",
          "type": "string"
        },
        {
          "name": "_strategy",
          "type": "address"
        }
      ],
      "name": "userWidgets",
      "outputs": [
        {
          "name": "json",
          "type": "string"
        }
      ],
      "payable": false,
      "stateMutability": "view",
      "type": "function"
    },
    {
      "constant": true,
      "inputs": [
        {
          "name": "_locale",
          "type": "string"
        },
        {
          "name": "_strategy",
          "type": "address"
        }
      ],
      "name": "inputs",
      "outputs": [
        {
          "name": "",
          "type": "string"
        }
      ],
      "payable": false,
      "stateMutability": "view",
      "type": "function"
    }
  ],
  "bytecode": "0x608060405260008054600160a060020a03191633179055612d8f806100256000396000f3006080604052600436106100b65763ffffffff60e060020a6000350416631564e4e181146100bb578063715018a6146101455780638b5827121461015c5780638da5cb5b14610171578063ac5c6e12146101a2578063b07b3c78146101b7578063bf3bed54146101cc578063d2d8cb6714610230578063d30f6e2014610245578063e77cee3d1461025a578063e9499555146102be578063ed3487fe14610322578063f2fde38b146103f7578063f65a5c1b14610418575b600080fd5b3480156100c757600080fd5b506100d06104af565b6040805160208082528351818301528351919283929083019185019080838360005b8381101561010a5781810151838201526020016100f2565b50505050905090810190601f1680156101375780820380516001836020036101000a031916815260200191505b509250505060405180910390f35b34801561015157600080fd5b5061015a6104e6565b005b34801561016857600080fd5b506100d0610552565b34801561017d57600080fd5b50610186610589565b60408051600160a060020a039092168252519081900360200190f35b3480156101ae57600080fd5b506100d0610598565b3480156101c357600080fd5b506100d06105cf565b3480156101d857600080fd5b506040805160206004803580820135601f81018490048402850184019095528484526100d094369492936024939284019190819084018382808284375094975050509235600160a060020a0316935061060692505050565b34801561023c57600080fd5b506100d0610e6d565b34801561025157600080fd5b506100d0610e92565b34801561026657600080fd5b506040805160206004803580820135601f81018490048402850184019095528484526100d094369492936024939284019190819084018382808284375094975050509235600160a060020a03169350610ec992505050565b3480156102ca57600080fd5b506040805160206004803580820135601f81018490048402850184019095528484526100d094369492936024939284019190819084018382808284375094975050509235600160a060020a03169350610f9592505050565b34801561032e57600080fd5b506040805160206004803580820135601f810184900484028501840190955284845261015a94369492936024939284019190819084018382808284375050604080516020601f89358b018035918201839004830284018301909452808352979a99988101979196509182019450925082915084018382808284375050604080516020601f89358b018035918201839004830284018301909452808352979a999881019791965091820194509250829150840183828082843750949750610fa39650505050505050565b34801561040357600080fd5b5061015a600160a060020a0360043516611090565b34801561042457600080fd5b506040805160206004803580820135601f81018490048402850184019095528484526100d094369492936024939284019190819084018382808284375050604080516020601f89358b018035918201839004830284018301909452808352979a9998810197919650918201945092508291508401838280828437509497506110b39650505050505050565b60408051808201909152601181527f746f6b656e5f70726963655f6c6162656c000000000000000000000000000000602082015281565b600054600160a060020a031633146104fd57600080fd5b60008054604051600160a060020a03909116917ff8df31144d9c2f0f6b59d69b8b98abd5459d07f2742c4df920b25aae33c6482091a26000805473ffffffffffffffffffffffffffffffffffffffff19169055565b60408051808201909152600a81527f73686f72745f6465736300000000000000000000000000000000000000000000602082015281565b600054600160a060020a031681565b60408051808201909152600981527f6c6f6e675f646573630000000000000000000000000000000000000000000000602082015281565b60408051808201909152600e81527f7570646174655f636f6e6669726d000000000000000000000000000000000000602082015281565b60408051600280825260608281019093528291829160009190816020015b61062c612b94565b81526020019060019003908161062457905050925060e0604051908101604052806001151581526020016040805190810160405280600b8152602001600080516020612d4483398151915281525081526020016040805190810160405280600a81526020017f6e756d626572456469740000000000000000000000000000000000000000000081525081526020016001886040518082805190602001908083835b602083106106ec5780518252601f1990920191602091820191016106cd565b51815160209384036101000a6000190180199092169116179052920194855250604080519485900382018520858201825260118087527f746f6b656e5f70726963655f6c6162656c00000000000000000000000000000093870193845291519095945092508291908083835b602083106107775780518252601f199092019160209182019101610758565b518151600019602094850361010090810a820192831692199390931691909117909252949092019687526040805197889003820188208054601f600260018316159098029095011695909504928301829004820288018201905281875292945092505083018282801561082b5780601f106108005761010080835404028352916020019161082b565b820191906000526020600020905b81548152906001019060200180831161080e57829003601f168201915b505050505081526020016108a787600160a060020a031663cbdd69b56040518163ffffffff1660e060020a028152600401602060405180830381600087803b15801561087657600080fd5b505af115801561088a573d6000803e3d6000fd5b505050506040513d60208110156108a057600080fd5b5051611204565b81526020016108b4611363565b81526020016108c16113b6565b90528351849060009081106108d257fe5b9060200190602002018190525060e0604051908101604052806001151581526020016040805190810160405280600681526020017f757064617465000000000000000000000000000000000000000000000000000081525081526020016040805190810160405280600681526020017f627574746f6e000000000000000000000000000000000000000000000000000081525081526020016001886040518082805190602001908083835b6020831061099c5780518252601f19909201916020918201910161097d565b51815160209384036101000a6000190180199092169116179052920194855250604080519485900382018520858201825260068087527f757064617465000000000000000000000000000000000000000000000000000093870193845291519095945092508291908083835b60208310610a275780518252601f199092019160209182019101610a08565b518151600019602094850361010090810a820192831692199390931691909117909252949092019687526040805197889003820188208054601f6002600183161590980290950116959095049283018290048202880182019052818752929450925050830182828015610adb5780601f10610ab057610100808354040283529160200191610adb565b820191906000526020600020905b815481529060010190602001808311610abe57829003601f168201915b505050505081526020016040805190810160405280600481526020017f6e756c6c00000000000000000000000000000000000000000000000000000000815250815260200160a06040519081016040528060011515815260200188600160a060020a031681526020016040805190810160405280600f81526020017f7570646174652875696e7432353629000000000000000000000000000000000081525081526020016040805190810160405280600f81526020017f5b22746f6b656e5f7072696365225d0000000000000000000000000000000000815250815260200160018a6040518082805190602001908083835b60208310610bec5780518252601f199092019160209182019101610bcd565b51815160209384036101000a60001901801990921691161790529201948552506040805194859003820185208582018252600e8087527f7570646174655f636f6e6669726d00000000000000000000000000000000000093870193845291519095945092508291908083835b60208310610c775780518252601f199092019160209182019101610c58565b518151600019602094850361010090810a820192831692199390931691909117909252949092019687526040805197889003820188208054601f6002600183161590980290950116959095049283018290048202880182019052818752929450925050830182828015610d2b5780601f10610d0057610100808354040283529160200191610d2b565b820191906000526020600020905b815481529060010190602001808311610d0e57829003601f168201915b50505050508152508152602001610d406113b6565b9052835184906001908110610d5157fe5b906020019060200201819052506040805190810160405280600181526020017f5b000000000000000000000000000000000000000000000000000000000000008152509150600090505b8251811015610e22576000811115610ded57610dea610dd560408051908101604052806001815260200160fa60020a600b02815250611443565b610dde84611443565b9063ffffffff61146c16565b91505b610e18610dd5610e138584815181101515610e0457fe5b906020019060200201516114e3565b611443565b9150600101610d9b565b610e63610dd56040805190810160405280600181526020017f5d00000000000000000000000000000000000000000000000000000000000000815250611443565b9695505050505050565b60408051808201909152600b8152600080516020612d44833981519152602082015281565b60408051808201909152600681527f7570646174650000000000000000000000000000000000000000000000000000602082015281565b6060610ed7838360006117b8565b60405160200180807f5b0000000000000000000000000000000000000000000000000000000000000081525060010182805190602001908083835b60208310610f315780518252601f199092019160209182019101610f12565b6001836020036101000a038019825116818451168082178552505050505050905001807f5d00000000000000000000000000000000000000000000000000000000000000815250600101915050604051602081830303815290604052905092915050565b6060610ed7838360016117b8565b600054600160a060020a03163314610fba57600080fd5b806001846040518082805190602001908083835b60208310610fed5780518252601f199092019160209182019101610fce565b51815160209384036101000a6000190180199092169116179052920194855250604051938490038101842087519094889450925082918401908083835b602083106110495780518252601f19909201916020918201910161102a565b51815160209384036101000a6000190180199092169116179052920194855250604051938490038101909320845161108a9591949190910192509050612be0565b50505050565b600054600160a060020a031633146110a757600080fd5b6110b081612175565b50565b60606001836040518082805190602001908083835b602083106110e75780518252601f1990920191602091820191016110c8565b51815160209384036101000a6000190180199092169116179052920194855250604051938490038101842086519094879450925082918401908083835b602083106111435780518252601f199092019160209182019101611124565b518151600019602094850361010090810a820192831692199390931691909117909252949092019687526040805197889003820188208054601f60026001831615909802909501169590950492830182900482028801820190528187529294509250508301828280156111f75780601f106111cc576101008083540402835291602001916111f7565b820191906000526020600020905b8154815290600101906020018083116111da57829003601f168201915b5050505050905092915050565b6060806000818185151561124d5760408051808201909152600181527f30000000000000000000000000000000000000000000000000000000000000006020820152945061135a565b6040805160208082528183019092529080820161040080388339019050509350600092505b60008611156112bf57600a860660300160f860020a02848481518110151561129657fe5b906020010190600160f860020a031916908160001a905350600a86049550600190920191611272565b60408051848152601f19601f860116810160200190915260001984019380156112f2578160200160208202803883390190505b509150600090505b81518110156113565783516000198401938591811061131557fe5b90602001015160f860020a900460f860020a02828281518110151561133657fe5b906020010190600160f860020a031916908160001a9053506001016112fa565b8194505b50505050919050565b61136b612c5e565b506040805160a0810182526000808252602080830182905283518082018552828152838501528351808201855282815260608401528351908101909352825260808101919091525b90565b6113be612c8b565b60408051606081018252600080825282518181526020818101909452919283019190611400565b6113ed612caf565b8152602001906001900390816113e55790505b508152602001600060405190808252806020026020018201604052801561143b57816020015b60608152602001906001900390816114265790505b509052905090565b61144b612ce2565b50604080518082019091528151815260208281019082018190525b50919050565b606080600083600001518560000151016040519080825280601f01601f1916602001820160405280156114a9578160200160208202803883390190505b5091506020820190506114c581866020015187600001516121f2565b8451602085015185516114db92840191906121f2565b509392505050565b60608082600001511561177d576040805190810160405280600781526020017f7b226964223a220000000000000000000000000000000000000000000000000081525090506115416115388460200151611443565b610dde83611443565b905061156b61153860408051908101604052806001815260200160f960020a601102815250611443565b60a084015151909150156115d2576115ba6115386040805190810160405280600b81526020017f2c2022616374696f6e223a000000000000000000000000000000000000000000815250611443565b90506115cf611538610e138560a00151612236565b90505b60c083015151156116365761161e6115386040805190810160405280600a81526020017f2c20227461626c65223a00000000000000000000000000000000000000000000815250611443565b9050611633611538610e138560c001516123d9565b90505b6116776115386040805190810160405280600981526020017f2c2274797065223a220000000000000000000000000000000000000000000000815250611443565b90506116896115388460400151611443565b90506116cc6115386040805190810160405280600b81526020017f222c226c6162656c223a22000000000000000000000000000000000000000000815250611443565b90506116de6115388460600151611443565b90506117216115386040805190810160405280600981526020017f222c2264617461223a0000000000000000000000000000000000000000000000815250611443565b90506117336115388460800151611443565b90506117766115386040805190810160405280600181526020017f7d00000000000000000000000000000000000000000000000000000000000000815250611443565b9150611466565b60408051808201909152600481527f6e756c6c0000000000000000000000000000000000000000000000000000000060208201529150611466565b606080600060606117c7612cf9565b85806118c2575086600160a060020a0316636ad1fe026040518163ffffffff1660e060020a028152600401602060405180830381600087803b15801561180c57600080fd5b505af1158015611820573d6000803e3d6000fd5b505050506040513d602081101561183657600080fd5b5051604080517f186601ca0000000000000000000000000000000000000000000000000000000081529051600160a060020a039092169163186601ca916004808201926020929091908290030181600087803b15801561189557600080fd5b505af11580156118a9573d6000803e3d6000fd5b505050506040513d60208110156118bf57600080fd5b50515b156121585760408051600180825281830190925290816020015b6118e4612b94565b8152602001906001900390816118dc57905050935086600160a060020a0316636ad1fe026040518163ffffffff1660e060020a028152600401602060405180830381600087803b15801561193757600080fd5b505af115801561194b573d6000803e3d6000fd5b505050506040513d602081101561196157600080fd5b5051604080517ffc0c546a0000000000000000000000000000000000000000000000000000000081529051600160a060020a039092169163fc0c546a916004808201926020929091908290030181600087803b1580156119c057600080fd5b505af11580156119d4573d6000803e3d6000fd5b505050506040513d60208110156119ea57600080fd5b5051604080517fcbdd69b50000000000000000000000000000000000000000000000000000000081529051919450611a4e91600160a060020a038a169163cbdd69b59160048083019260209291908290030181600087803b15801561087657600080fd5b83600160a060020a03166395d89b416040518163ffffffff1660e060020a028152600401600060405180830381600087803b158015611a8c57600080fd5b505af1158015611aa0573d6000803e3d6000fd5b505050506040513d6000823e601f3d908101601f191682016040526020811015611ac957600080fd5b810190808051640100000000811115611ae157600080fd5b82016020810184811115611af457600080fd5b8151640100000000811182820187101715611b0e57600080fd5b505092919050505060405160200180807f3120455448203d2000000000000000000000000000000000000000000000000081525060080183805190602001908083835b60208310611b705780518252601f199092019160209182019101611b51565b6001836020036101000a038019825116818451168082178552505050505050905001807f200000000000000000000000000000000000000000000000000000000000000081525060010182805190602001908083835b60208310611be55780518252601f199092019160209182019101611bc6565b51815160209384036101000a60001901801990921691161790526040805192909401828103601f1901835260e0810185526001815284518086018652600b8152600080516020612d44833981519152818401528183015284518086018652600481527f746578740000000000000000000000000000000000000000000000000000000081840152818601528451918201909452600081526060840152965090935050608083019150611c989050846125f0565b8152602001611ca5611363565b8152602001611cb26113b6565b9052845185906000908110611cc357fe5b9060200190602002018190525060a06040519081016040528060018a6040518082805190602001908083835b60208310611d0e5780518252601f199092019160209182019101611cef565b51815160209384036101000a60001901801990921691161790529201948552506040805194859003820185208582018252600b808752600080516020612d4483398151915293870193845291519095945092508291908083835b60208310611d875780518252601f199092019160209182019101611d68565b518151600019602094850361010090810a820192831692199390931691909117909252949092019687526040805197889003820188208054601f6002600183161590980290950116959095049283018290048202880182019052818752929450925050830182828015611e3b5780601f10611e1057610100808354040283529160200191611e3b565b820191906000526020600020905b815481529060010190602001808311611e1e57829003601f168201915b5050505050815260200160018a6040518082805190602001908083835b60208310611e775780518252601f199092019160209182019101611e58565b51815160209384036101000a60001901801990921691161790529201948552506040805194859003820185208582018252600a8087527f73686f72745f646573630000000000000000000000000000000000000000000093870193845291519095945092508291908083835b60208310611f025780518252601f199092019160209182019101611ee3565b518151600019602094850361010090810a820192831692199390931691909117909252949092019687526040805197889003820188208054601f6002600183161590980290950116959095049283018290048202880182019052818752929450925050830182828015611fb65780601f10611f8b57610100808354040283529160200191611fb6565b820191906000526020600020905b815481529060010190602001808311611f9957829003601f168201915b5050505050815260200160018a6040518082805190602001908083835b60208310611ff25780518252601f199092019160209182019101611fd3565b51815160209384036101000a6000190180199092169116179052920194855250604080519485900382018520858201825260098087527f6c6f6e675f64657363000000000000000000000000000000000000000000000093870193845291519095945092508291908083835b6020831061207d5780518252601f19909201916020918201910161205e565b518151600019602094850361010090810a820192831692199390931691909117909252949092019687526040805197889003820188208054601f60026001831615909802909501169590950492830182900482028801820190528187529294509250508301828280156121315780601f1061210657610100808354040283529160200191612131565b820191906000526020600020905b81548152906001019060200180831161211457829003601f168201915b505050505081526020016004815260200185815250905061215181612654565b945061216a565b60408051602081019091526000815294505b505050509392505050565b600160a060020a038116151561218a57600080fd5b60008054604051600160a060020a03808516939216917f8be0079c531659141344cd1fd0a4f28419497f9722a3daafe3b4186f6b6457e091a36000805473ffffffffffffffffffffffffffffffffffffffff1916600160a060020a0392909216919091179055565b60005b60208210612217578251845260209384019390920191601f19909101906121f5565b50905182516020929092036101000a6000190180199091169116179052565b60608082600001511561177d576040805190810160405280600c81526020017f7b2261646472657373223a2200000000000000000000000000000000000000008152509050612297611538610e138560200151600160a060020a0316612899565b90506122da6115386040805190810160405280601681526020017f222c2266756e6374696f6e53656c6563746f72223a2200000000000000000000815250611443565b90506122ec6115388460400151611443565b905061232f6115386040805190810160405280600e81526020017f222c22617267756d656e7473223a000000000000000000000000000000000000815250611443565b90506123416115388460600151611443565b90506123846115386040805190810160405280600c81526020017f2c22636f6e6669726d223a220000000000000000000000000000000000000000815250611443565b90506123966115388460800151611443565b90506117766115386040805190810160405280600281526020017f227d000000000000000000000000000000000000000000000000000000000000815250611443565b6060806000808460000151156125b157505060408051808201909152600c81527f7b22636f6c756d6e73223a5b0000000000000000000000000000000000000000602082015290506000805b8460200151518110156124a757600082111561246f5761246c61246360408051908101604052806001815260200160fa60020a600b02815250611443565b610dde85611443565b92505b612499612463610e1387602001518481518110151561248a57fe5b906020019060200201516129dc565b925060019182019101612425565b6124e86124636040805190810160405280600a81526020017f5d2c22726f7773223a5b00000000000000000000000000000000000000000000815250611443565b925060009150600090505b8460400151518110156125695760008211156125345761253161246360408051908101604052806001815260200160fa60020a600b02815250611443565b92505b61255b61246386604001518381518110151561254c57fe5b90602001906020020151611443565b9250600191820191016124f3565b6125aa6124636040805190810160405280600281526020017f5d7d000000000000000000000000000000000000000000000000000000000000815250611443565b93506125e8565b60408051808201909152600481527f6e756c6c00000000000000000000000000000000000000000000000000000000602082015293505b505050919050565b606061264e61261a60408051908101604052806001815260200160f960020a601102815250611443565b610dde610e1361262986611443565b610dde60408051908101604052806001815260200160f960020a601102815250611443565b92915050565b60408051808201909152600a81527f7b227469746c65223a2200000000000000000000000000000000000000000000602082015281516060919060009061269e90610dd590611443565b91506126e1610dd56040805190810160405280600f81526020017f222c2273686f727444657363223a220000000000000000000000000000000000815250611443565b91506126f3610dd58560200151611443565b9150612736610dd56040805190810160405280600e81526020017f222c226c6f6e6744657363223a22000000000000000000000000000000000000815250611443565b9150612748610dd58560400151611443565b915061278b610dd56040805190810160405280600a81526020017f222c227769647468223a00000000000000000000000000000000000000000000815250611443565b91506127a0610dd5610e138660600151611204565b91506127e3610dd56040805190810160405280600d81526020017f2c22656c656d656e7473223a5b00000000000000000000000000000000000000815250611443565b9150600090505b83608001515181101561285057600081111561282b57612828610dd560408051908101604052806001815260200160fa60020a600b02815250611443565b91505b612846610dd5610e13866080015184815181101515610e0457fe5b91506001016127ea565b612891610dd56040805190810160405280600281526020017f5d7d000000000000000000000000000000000000000000000000000000000000815250611443565b949350505050565b60408051602a80825260608083019093528291600091829182916020820161054080388339505081519195507f30000000000000000000000000000000000000000000000000000000000000009186915060009081106128f557fe5b906020010190600160f860020a031916908160001a90535083517f7800000000000000000000000000000000000000000000000000000000000000908590600190811061293e57fe5b906020010190600160f860020a031916908160001a905350859250600091505b60288210156129d257506030600f8316016039600160a060020a0382161115612985576027015b8060f860020a0284836028036001018151811015156129a057fe5b906020010190600160f860020a031916908160001a9053506010600160a060020a03841604925060019091019061295e565b5091949350505050565b60608082600001511561177d576040805190810160405280600781526020017f7b226964223a22000000000000000000000000000000000000000000000000008152509050612a316115388460200151611443565b9050612a5b61153860408051908101604052806001815260200160f960020a601102815250611443565b60808401515190915015612aec57612a9161153860408051908101604052806001815260200160fa60020a600b02815250611443565b9050612ad46115386040805190810160405280600981526020017f22616374696f6e223a0000000000000000000000000000000000000000000000815250611443565b9050612ae9611538610e138560800151612236565b90505b612b2d6115386040805190810160405280600981526020017f2c2274797065223a220000000000000000000000000000000000000000000000815250611443565b9050612b3f6115388460400151611443565b9050612b826115386040805190810160405280600b81526020017f222c226c6162656c223a22000000000000000000000000000000000000000000815250611443565b90506123966115388460600151611443565b6101a06040519081016040528060001515815260200160608152602001606081526020016060815260200160608152602001612bce612c5e565b8152602001612bdb612c8b565b905290565b828054600181600116156101000203166002900490600052602060002090601f016020900481019282601f10612c2157805160ff1916838001178555612c4e565b82800160010185558215612c4e579182015b82811115612c4e578251825591602001919060010190612c33565b50612c5a929150612d29565b5090565b6040805160a081018252600080825260208201526060918101829052818101829052608081019190915290565b60606040519081016040528060001515815260200160608152602001606081525090565b61012060405190810160405280600015158152602001606081526020016060815260200160608152602001612bdb612c5e565b604080518082019091526000808252602082015290565b60a06040519081016040528060608152602001606081526020016060815260200160008152602001606081525090565b6113b391905b80821115612c5a5760008155600101612d2f5600746f6b656e5f7072696365000000000000000000000000000000000000000000a165627a7a7230582053b97d238e5b712ba171b0c543c5f91f417cb4f959bb12d21427f47ba23a08f40029",
  "source": "pragma solidity ^0.4.24;\n\nimport \"zeppelin-solidity/contracts/token/ERC20/DetailedERC20.sol\";\nimport \"tokenboost-solidity/contracts/widget/Localizable.sol\";\nimport \"tokenboost-solidity/contracts/widget/Widgets.sol\";\nimport \"tokenboost-solidity/contracts/utils/StringUtils.sol\";\nimport \"../FixedPriceStrategy.sol\";\n\ncontract FixedPriceStrategyRenderer is Localizable {\n    using Widgets for Widgets.Widget;\n    using Elements for Elements.Element;\n    using UintUtils for uint;\n    using StringUtils for string;\n    using strings for *;\n\n    string public constant TOKEN_PRICE = \"token_price\";\n    string public constant TOKEN_PRICE_LABEL = \"token_price_label\";\n    string public constant SHORT_DESC = \"short_desc\";\n    string public constant LONG_DESC = \"long_desc\";\n    string public constant UPDATE = \"update\";\n    string public constant UPDATE_CONFIRM = \"update_confirm\";\n\n    function adminWidgets(string _locale, FixedPriceStrategy _strategy) public view returns (string json) {\n        return string(abi.encodePacked(\"[\", _tokenPriceWidget(_locale, _strategy, true), \"]\"));\n    }\n\n    function userWidgets(string _locale, FixedPriceStrategy _strategy) public view returns (string json) {\n        return string(abi.encodePacked(\"[\", _tokenPriceWidget(_locale, _strategy, false), \"]\"));\n    }\n\n    function _tokenPriceWidget(string _locale, FixedPriceStrategy _strategy, bool _admin) private view returns (string json) {\n        if (_admin || _strategy.sale().activated()) {\n            Elements.Element[] memory elements = new Elements.Element[](1);\n            DetailedERC20 erc20 = DetailedERC20(_strategy.sale().token());\n            string memory tokensPerEth = string(abi.encodePacked(\"1 ETH = \", _strategy.tokensPerEth().toString(), \" \", erc20.symbol()));\n            elements[0] = Elements.Element(\n                true,\n                TOKEN_PRICE,\n                \"text\",\n                \"\",\n                tokensPerEth.quoted(),\n                Actions.empty(),\n                Tables.empty()\n            );\n            Widgets.Widget memory widget = Widgets.Widget(\n                resources[_locale][TOKEN_PRICE],\n                resources[_locale][SHORT_DESC],\n                resources[_locale][LONG_DESC],\n                4,\n                elements\n            );\n            return widget.toJson();\n        } else {\n            return \"\";\n        }\n    }\n\n    function inputs(string _locale, FixedPriceStrategy _strategy) public view returns (string) {\n        Elements.Element[] memory elements = new Elements.Element[](2);\n        elements[0] = Elements.Element(\n            true,\n            TOKEN_PRICE,\n            \"numberEdit\",\n            resources[_locale][TOKEN_PRICE_LABEL],\n            _strategy.tokensPerEth().toString(),\n            Actions.empty(),\n            Tables.empty()\n        );\n        elements[1] = Elements.Element(\n            true,\n            UPDATE,\n            \"button\",\n            resources[_locale][UPDATE],\n            \"null\",\n            Actions.Action(\n                true,\n                address(_strategy),\n                \"update(uint256)\",\n                '[\"token_price\"]',\n                resources[_locale][UPDATE_CONFIRM]\n            ),\n            Tables.empty()\n        );\n        string memory json = \"[\";\n        for (uint i = 0; i < elements.length; i++) {\n            if (i > 0) {\n                json = json.toSlice().concat(','.toSlice());\n            }\n            json = json.toSlice().concat(elements[i].toJson().toSlice());\n        }\n        return json.toSlice().concat(']'.toSlice());\n    }\n}\n",
  "sourcePath": "/Users/yoonjae/SolidityProjects/tokenboost-solidity-erc20sale-strategies/contracts/strategy/sale/erc20/fixed-price/widget/FixedPriceStrategyRenderer.sol",
  "compiler": {
    "name": "solc",
    "version": "0.4.24+commit.e67f0147.Emscripten.clang"
  },
  "schemaVersion": "2.0.1",
  "updatedAt": "2018-10-19T10:30:17.445Z"
}