{
  "contractName": "FixedPriceStrategyRenderer",
  "abi": [
    {
      "constant": true,
      "inputs": [],
      "name": "TOKEN_PRICE_LABEL",
      "outputs": [
        {
          "name": "",
          "type": "string"
        }
      ],
      "payable": false,
      "stateMutability": "view",
      "type": "function"
    },
    {
      "constant": false,
      "inputs": [],
      "name": "renounceOwnership",
      "outputs": [],
      "payable": false,
      "stateMutability": "nonpayable",
      "type": "function"
    },
    {
      "constant": true,
      "inputs": [],
      "name": "SHORT_DESC",
      "outputs": [
        {
          "name": "",
          "type": "string"
        }
      ],
      "payable": false,
      "stateMutability": "view",
      "type": "function"
    },
    {
      "constant": true,
      "inputs": [],
      "name": "owner",
      "outputs": [
        {
          "name": "",
          "type": "address"
        }
      ],
      "payable": false,
      "stateMutability": "view",
      "type": "function"
    },
    {
      "constant": true,
      "inputs": [],
      "name": "LONG_DESC",
      "outputs": [
        {
          "name": "",
          "type": "string"
        }
      ],
      "payable": false,
      "stateMutability": "view",
      "type": "function"
    },
    {
      "constant": true,
      "inputs": [],
      "name": "UPDATE_CONFIRM",
      "outputs": [
        {
          "name": "",
          "type": "string"
        }
      ],
      "payable": false,
      "stateMutability": "view",
      "type": "function"
    },
    {
      "constant": true,
      "inputs": [],
      "name": "TOKEN_PRICE",
      "outputs": [
        {
          "name": "",
          "type": "string"
        }
      ],
      "payable": false,
      "stateMutability": "view",
      "type": "function"
    },
    {
      "constant": true,
      "inputs": [],
      "name": "UPDATE",
      "outputs": [
        {
          "name": "",
          "type": "string"
        }
      ],
      "payable": false,
      "stateMutability": "view",
      "type": "function"
    },
    {
      "constant": false,
      "inputs": [
        {
          "name": "locale",
          "type": "string"
        },
        {
          "name": "key",
          "type": "string"
        },
        {
          "name": "value",
          "type": "string"
        }
      ],
      "name": "setResource",
      "outputs": [],
      "payable": false,
      "stateMutability": "nonpayable",
      "type": "function"
    },
    {
      "constant": false,
      "inputs": [
        {
          "name": "_newOwner",
          "type": "address"
        }
      ],
      "name": "transferOwnership",
      "outputs": [],
      "payable": false,
      "stateMutability": "nonpayable",
      "type": "function"
    },
    {
      "constant": true,
      "inputs": [
        {
          "name": "locale",
          "type": "string"
        },
        {
          "name": "key",
          "type": "string"
        }
      ],
      "name": "resource",
      "outputs": [
        {
          "name": "",
          "type": "string"
        }
      ],
      "payable": false,
      "stateMutability": "view",
      "type": "function"
    },
    {
      "anonymous": false,
      "inputs": [
        {
          "indexed": true,
          "name": "previousOwner",
          "type": "address"
        }
      ],
      "name": "OwnershipRenounced",
      "type": "event"
    },
    {
      "anonymous": false,
      "inputs": [
        {
          "indexed": true,
          "name": "previousOwner",
          "type": "address"
        },
        {
          "indexed": true,
          "name": "newOwner",
          "type": "address"
        }
      ],
      "name": "OwnershipTransferred",
      "type": "event"
    },
    {
      "constant": true,
      "inputs": [
        {
          "name": "_locale",
          "type": "string"
        },
        {
          "name": "_strategy",
          "type": "address"
        }
      ],
      "name": "adminWidgets",
      "outputs": [
        {
          "name": "json",
          "type": "string"
        }
      ],
      "payable": false,
      "stateMutability": "view",
      "type": "function"
    },
    {
      "constant": true,
      "inputs": [
        {
          "name": "_locale",
          "type": "string"
        },
        {
          "name": "_strategy",
          "type": "address"
        }
      ],
      "name": "userWidgets",
      "outputs": [
        {
          "name": "json",
          "type": "string"
        }
      ],
      "payable": false,
      "stateMutability": "view",
      "type": "function"
    },
    {
      "constant": true,
      "inputs": [
        {
          "name": "_locale",
          "type": "string"
        },
        {
          "name": "_strategy",
          "type": "address"
        }
      ],
      "name": "inputs",
      "outputs": [
        {
          "name": "",
          "type": "string"
        }
      ],
      "payable": false,
      "stateMutability": "view",
      "type": "function"
    }
  ],
  "bytecode": "0x608060405260008054600160a060020a03191633179055612cd6806100256000396000f3006080604052600436106100b65763ffffffff60e060020a6000350416631564e4e181146100bb578063715018a6146101455780638b5827121461015c5780638da5cb5b14610171578063ac5c6e12146101a2578063b07b3c78146101b7578063bf3bed54146101cc578063d2d8cb6714610230578063d30f6e2014610245578063e77cee3d1461025a578063e9499555146102be578063ed3487fe14610322578063f2fde38b146103f7578063f65a5c1b14610418575b600080fd5b3480156100c757600080fd5b506100d06104af565b6040805160208082528351818301528351919283929083019185019080838360005b8381101561010a5781810151838201526020016100f2565b50505050905090810190601f1680156101375780820380516001836020036101000a031916815260200191505b509250505060405180910390f35b34801561015157600080fd5b5061015a6104e6565b005b34801561016857600080fd5b506100d0610552565b34801561017d57600080fd5b50610186610589565b60408051600160a060020a039092168252519081900360200190f35b3480156101ae57600080fd5b506100d0610598565b3480156101c357600080fd5b506100d06105cf565b3480156101d857600080fd5b506040805160206004803580820135601f81018490048402850184019095528484526100d094369492936024939284019190819084018382808284375094975050509235600160a060020a0316935061060692505050565b34801561023c57600080fd5b506100d0610e57565b34801561025157600080fd5b506100d0610e7c565b34801561026657600080fd5b506040805160206004803580820135601f81018490048402850184019095528484526100d094369492936024939284019190819084018382808284375094975050509235600160a060020a03169350610eb392505050565b3480156102ca57600080fd5b506040805160206004803580820135601f81018490048402850184019095528484526100d094369492936024939284019190819084018382808284375094975050509235600160a060020a03169350610f7f92505050565b34801561032e57600080fd5b506040805160206004803580820135601f810184900484028501840190955284845261015a94369492936024939284019190819084018382808284375050604080516020601f89358b018035918201839004830284018301909452808352979a99988101979196509182019450925082915084018382808284375050604080516020601f89358b018035918201839004830284018301909452808352979a999881019791965091820194509250829150840183828082843750949750610f8d9650505050505050565b34801561040357600080fd5b5061015a600160a060020a036004351661107a565b34801561042457600080fd5b506040805160206004803580820135601f81018490048402850184019095528484526100d094369492936024939284019190819084018382808284375050604080516020601f89358b018035918201839004830284018301909452808352979a99988101979196509182019450925082915084018382808284375094975061109d9650505050505050565b60408051808201909152601181527f746f6b656e5f70726963655f6c6162656c000000000000000000000000000000602082015281565b600054600160a060020a031633146104fd57600080fd5b60008054604051600160a060020a03909116917ff8df31144d9c2f0f6b59d69b8b98abd5459d07f2742c4df920b25aae33c6482091a26000805473ffffffffffffffffffffffffffffffffffffffff19169055565b60408051808201909152600a81527f73686f72745f6465736300000000000000000000000000000000000000000000602082015281565b600054600160a060020a031681565b60408051808201909152600981527f6c6f6e675f646573630000000000000000000000000000000000000000000000602082015281565b60408051808201909152600e81527f7570646174655f636f6e6669726d000000000000000000000000000000000000602082015281565b60408051600280825260608281019093528291829160009190816020015b61062c612adb565b81526020019060019003908161062457905050925060e0604051908101604052806001151581526020016040805190810160405280600b8152602001600080516020612c8b83398151915281525081526020016040805190810160405280600a81526020017f6e756d626572456469740000000000000000000000000000000000000000000081525081526020016001886040518082805190602001908083835b602083106106ec5780518252601f1990920191602091820191016106cd565b51815160209384036101000a6000190180199092169116179052920194855250604080519485900382018520858201825260118087527f746f6b656e5f70726963655f6c6162656c00000000000000000000000000000093870193845291519095945092508291908083835b602083106107775780518252601f199092019160209182019101610758565b518151600019602094850361010090810a820192831692199390931691909117909252949092019687526040805197889003820188208054601f600260018316159098029095011695909504928301829004820288018201905281875292945092505083018282801561082b5780601f106108005761010080835404028352916020019161082b565b820191906000526020600020905b81548152906001019060200180831161080e57829003601f168201915b505050505081526020016108a787600160a060020a031663cbdd69b56040518163ffffffff1660e060020a028152600401602060405180830381600087803b15801561087657600080fd5b505af115801561088a573d6000803e3d6000fd5b505050506040513d60208110156108a057600080fd5b50516111ee565b81526020016108b461134d565b81526020016108c16113a0565b90528351849060009081106108d257fe5b9060200190602002018190525060e0604051908101604052806001151581526020016040805190810160405280600681526020017f757064617465000000000000000000000000000000000000000000000000000081525081526020016040805190810160405280600681526020017f627574746f6e000000000000000000000000000000000000000000000000000081525081526020016001886040518082805190602001908083835b6020831061099c5780518252601f19909201916020918201910161097d565b51815160209384036101000a6000190180199092169116179052920194855250604080519485900382018520858201825260068087527f757064617465000000000000000000000000000000000000000000000000000093870193845291519095945092508291908083835b60208310610a275780518252601f199092019160209182019101610a08565b518151600019602094850361010090810a820192831692199390931691909117909252949092019687526040805197889003820188208054601f6002600183161590980290950116959095049283018290048202880182019052818752929450925050830182828015610adb5780601f10610ab057610100808354040283529160200191610adb565b820191906000526020600020905b815481529060010190602001808311610abe57829003601f168201915b5050505050815260200160408051908101604052806004815260200160e260020a631b9d5b1b02815250815260200160a06040519081016040528060011515815260200188600160a060020a031681526020016040805190810160405280600f81526020017f7570646174652875696e7432353629000000000000000000000000000000000081525081526020016040805190810160405280600f81526020017f5b22746f6b656e5f7072696365225d0000000000000000000000000000000000815250815260200160018a6040518082805190602001908083835b60208310610bd65780518252601f199092019160209182019101610bb7565b51815160209384036101000a60001901801990921691161790529201948552506040805194859003820185208582018252600e8087527f7570646174655f636f6e6669726d00000000000000000000000000000000000093870193845291519095945092508291908083835b60208310610c615780518252601f199092019160209182019101610c42565b518151600019602094850361010090810a820192831692199390931691909117909252949092019687526040805197889003820188208054601f6002600183161590980290950116959095049283018290048202880182019052818752929450925050830182828015610d155780601f10610cea57610100808354040283529160200191610d15565b820191906000526020600020905b815481529060010190602001808311610cf857829003601f168201915b50505050508152508152602001610d2a6113a0565b9052835184906001908110610d3b57fe5b906020019060200201819052506040805190810160405280600181526020017f5b000000000000000000000000000000000000000000000000000000000000008152509150600090505b8251811015610e0c576000811115610dd757610dd4610dbf60408051908101604052806001815260200160fa60020a600b0281525061142d565b610dc88461142d565b9063ffffffff61145616565b91505b610e02610dbf610dfd8584815181101515610dee57fe5b906020019060200201516114cd565b61142d565b9150600101610d85565b610e4d610dbf6040805190810160405280600181526020017f5d0000000000000000000000000000000000000000000000000000000000000081525061142d565b9695505050505050565b60408051808201909152600b8152600080516020612c8b833981519152602082015281565b60408051808201909152600681527f7570646174650000000000000000000000000000000000000000000000000000602082015281565b6060610ec1838360006117a5565b60405160200180807f5b0000000000000000000000000000000000000000000000000000000000000081525060010182805190602001908083835b60208310610f1b5780518252601f199092019160209182019101610efc565b6001836020036101000a038019825116818451168082178552505050505050905001807f5d00000000000000000000000000000000000000000000000000000000000000815250600101915050604051602081830303815290604052905092915050565b6060610ec1838360016117a5565b600054600160a060020a03163314610fa457600080fd5b806001846040518082805190602001908083835b60208310610fd75780518252601f199092019160209182019101610fb8565b51815160209384036101000a6000190180199092169116179052920194855250604051938490038101842087519094889450925082918401908083835b602083106110335780518252601f199092019160209182019101611014565b51815160209384036101000a600019018019909216911617905292019485525060405193849003810190932084516110749591949190910192509050612b27565b50505050565b600054600160a060020a0316331461109157600080fd5b61109a8161211d565b50565b60606001836040518082805190602001908083835b602083106110d15780518252601f1990920191602091820191016110b2565b51815160209384036101000a6000190180199092169116179052920194855250604051938490038101842086519094879450925082918401908083835b6020831061112d5780518252601f19909201916020918201910161110e565b518151600019602094850361010090810a820192831692199390931691909117909252949092019687526040805197889003820188208054601f60026001831615909802909501169590950492830182900482028801820190528187529294509250508301828280156111e15780601f106111b6576101008083540402835291602001916111e1565b820191906000526020600020905b8154815290600101906020018083116111c457829003601f168201915b5050505050905092915050565b606080600081818515156112375760408051808201909152600181527f300000000000000000000000000000000000000000000000000000000000000060208201529450611344565b6040805160208082528183019092529080820161040080388339019050509350600092505b60008611156112a957600a860660300160f860020a02848481518110151561128057fe5b906020010190600160f860020a031916908160001a905350600a8604955060019092019161125c565b60408051848152601f19601f860116810160200190915260001984019380156112dc578160200160208202803883390190505b509150600090505b8151811015611340578351600019840193859181106112ff57fe5b90602001015160f860020a900460f860020a02828281518110151561132057fe5b906020010190600160f860020a031916908160001a9053506001016112e4565b8194505b50505050919050565b611355612ba5565b506040805160a0810182526000808252602080830182905283518082018552828152838501528351808201855282815260608401528351908101909352825260808101919091525b90565b6113a8612bd2565b604080516060810182526000808252825181815260208181019094529192830191906113ea565b6113d7612bf6565b8152602001906001900390816113cf5790505b508152602001600060405190808252806020026020018201604052801561142557816020015b60608152602001906001900390816114105790505b509052905090565b611435612c29565b50604080518082019091528151815260208281019082018190525b50919050565b606080600083600001518560000151016040519080825280601f01601f191660200182016040528015611493578160200160208202803883390190505b5091506020820190506114af818660200151876000015161219a565b8451602085015185516114c5928401919061219a565b509392505050565b606080826000015115611780576040805190810160405280600781526020017f7b226964223a2200000000000000000000000000000000000000000000000000815250905061152b611522846020015161142d565b610dc88361142d565b905061156e6115226040805190810160405280600181526020017f220000000000000000000000000000000000000000000000000000000000000081525061142d565b60a084015151909150156115d5576115bd6115226040805190810160405280600b81526020017f2c2022616374696f6e223a00000000000000000000000000000000000000000081525061142d565b90506115d2611522610dfd8560a001516121de565b90505b60c08301515115611639576116216115226040805190810160405280600a81526020017f2c20227461626c65223a0000000000000000000000000000000000000000000081525061142d565b9050611636611522610dfd8560c00151612381565b90505b61167a6115226040805190810160405280600981526020017f2c2274797065223a22000000000000000000000000000000000000000000000081525061142d565b905061168c611522846040015161142d565b90506116cf6115226040805190810160405280600b81526020017f222c226c6162656c223a2200000000000000000000000000000000000000000081525061142d565b90506116e1611522846060015161142d565b90506117246115226040805190810160405280600981526020017f222c2264617461223a000000000000000000000000000000000000000000000081525061142d565b9050611736611522846080015161142d565b90506117796115226040805190810160405280600181526020017f7d0000000000000000000000000000000000000000000000000000000000000081525061142d565b9150611450565b604080518082019091526004815260e260020a631b9d5b1b0260208201529150611450565b606080600060606117b4612c40565b85806118af575086600160a060020a0316636ad1fe026040518163ffffffff1660e060020a028152600401602060405180830381600087803b1580156117f957600080fd5b505af115801561180d573d6000803e3d6000fd5b505050506040513d602081101561182357600080fd5b5051604080517f186601ca0000000000000000000000000000000000000000000000000000000081529051600160a060020a039092169163186601ca916004808201926020929091908290030181600087803b15801561188257600080fd5b505af1158015611896573d6000803e3d6000fd5b505050506040513d60208110156118ac57600080fd5b50515b156121005760408051600180825281830190925290816020015b6118d1612adb565b8152602001906001900390816118c957905050935086600160a060020a0316636ad1fe026040518163ffffffff1660e060020a028152600401602060405180830381600087803b15801561192457600080fd5b505af1158015611938573d6000803e3d6000fd5b505050506040513d602081101561194e57600080fd5b5051604080517ffc0c546a0000000000000000000000000000000000000000000000000000000081529051600160a060020a039092169163fc0c546a916004808201926020929091908290030181600087803b1580156119ad57600080fd5b505af11580156119c1573d6000803e3d6000fd5b505050506040513d60208110156119d757600080fd5b5051604080517f95d89b410000000000000000000000000000000000000000000000000000000081529051919450611b5691611ace91600160a060020a038716916395d89b419160048082019260009290919082900301818387803b158015611a3f57600080fd5b505af1158015611a53573d6000803e3d6000fd5b505050506040513d6000823e601f3d908101601f191682016040526020811015611a7c57600080fd5b810190808051640100000000811115611a9457600080fd5b82016020810184811115611aa757600080fd5b8151640100000000811182820187101715611ac157600080fd5b505092919050505061142d565b610dc8610dfd611b126040805190810160405280600181526020017f200000000000000000000000000000000000000000000000000000000000000081525061142d565b610dc8610dfd8d600160a060020a031663cbdd69b56040518163ffffffff1660e060020a028152600401602060405180830381600087803b15801561087657600080fd5b915060e0604051908101604052806001151581526020016040805190810160405280600b8152602001600080516020612c8b83398151915281525081526020016040805190810160405280600481526020017f74657874000000000000000000000000000000000000000000000000000000008152508152602001611c1b611bdd8561142d565b610dc86040805190810160405280600881526020017f3120455448203d2000000000000000000000000000000000000000000000000081525061142d565b815260200160408051908101604052806004815260200160e260020a631b9d5b1b028152508152602001611c4d61134d565b8152602001611c5a6113a0565b9052845185906000908110611c6b57fe5b9060200190602002018190525060a06040519081016040528060018a6040518082805190602001908083835b60208310611cb65780518252601f199092019160209182019101611c97565b51815160209384036101000a60001901801990921691161790529201948552506040805194859003820185208582018252600b808752600080516020612c8b83398151915293870193845291519095945092508291908083835b60208310611d2f5780518252601f199092019160209182019101611d10565b518151600019602094850361010090810a820192831692199390931691909117909252949092019687526040805197889003820188208054601f6002600183161590980290950116959095049283018290048202880182019052818752929450925050830182828015611de35780601f10611db857610100808354040283529160200191611de3565b820191906000526020600020905b815481529060010190602001808311611dc657829003601f168201915b5050505050815260200160018a6040518082805190602001908083835b60208310611e1f5780518252601f199092019160209182019101611e00565b51815160209384036101000a60001901801990921691161790529201948552506040805194859003820185208582018252600a8087527f73686f72745f646573630000000000000000000000000000000000000000000093870193845291519095945092508291908083835b60208310611eaa5780518252601f199092019160209182019101611e8b565b518151600019602094850361010090810a820192831692199390931691909117909252949092019687526040805197889003820188208054601f6002600183161590980290950116959095049283018290048202880182019052818752929450925050830182828015611f5e5780601f10611f3357610100808354040283529160200191611f5e565b820191906000526020600020905b815481529060010190602001808311611f4157829003601f168201915b5050505050815260200160018a6040518082805190602001908083835b60208310611f9a5780518252601f199092019160209182019101611f7b565b51815160209384036101000a6000190180199092169116179052920194855250604080519485900382018520858201825260098087527f6c6f6e675f64657363000000000000000000000000000000000000000000000093870193845291519095945092508291908083835b602083106120255780518252601f199092019160209182019101612006565b518151600019602094850361010090810a820192831692199390931691909117909252949092019687526040805197889003820188208054601f60026001831615909802909501169590950492830182900482028801820190528187529294509250508301828280156120d95780601f106120ae576101008083540402835291602001916120d9565b820191906000526020600020905b8154815290600101906020018083116120bc57829003601f168201915b50505050508152602001600481526020018581525090506120f981612582565b9450612112565b60408051602081019091526000815294505b505050509392505050565b600160a060020a038116151561213257600080fd5b60008054604051600160a060020a03808516939216917f8be0079c531659141344cd1fd0a4f28419497f9722a3daafe3b4186f6b6457e091a36000805473ffffffffffffffffffffffffffffffffffffffff1916600160a060020a0392909216919091179055565b60005b602082106121bf578251845260209384019390920191601f199091019061219d565b50905182516020929092036101000a6000190180199091169116179052565b606080826000015115611780576040805190810160405280600c81526020017f7b2261646472657373223a220000000000000000000000000000000000000000815250905061223f611522610dfd8560200151600160a060020a03166127c7565b90506122826115226040805190810160405280601681526020017f222c2266756e6374696f6e53656c6563746f72223a220000000000000000000081525061142d565b9050612294611522846040015161142d565b90506122d76115226040805190810160405280600e81526020017f222c22617267756d656e7473223a00000000000000000000000000000000000081525061142d565b90506122e9611522846060015161142d565b905061232c6115226040805190810160405280600c81526020017f2c22636f6e6669726d223a22000000000000000000000000000000000000000081525061142d565b905061233e611522846080015161142d565b90506117796115226040805190810160405280600281526020017f227d00000000000000000000000000000000000000000000000000000000000081525061142d565b60608060008084600001511561255957505060408051808201909152600c81527f7b22636f6c756d6e73223a5b0000000000000000000000000000000000000000602082015290506000805b84602001515181101561244f5760008211156124175761241461240b60408051908101604052806001815260200160fa60020a600b0281525061142d565b610dc88561142d565b92505b61244161240b610dfd87602001518481518110151561243257fe5b9060200190602002015161290a565b9250600191820191016123cd565b61249061240b6040805190810160405280600a81526020017f5d2c22726f7773223a5b0000000000000000000000000000000000000000000081525061142d565b925060009150600090505b8460400151518110156125115760008211156124dc576124d961240b60408051908101604052806001815260200160fa60020a600b0281525061142d565b92505b61250361240b8660400151838151811015156124f457fe5b9060200190602002015161142d565b92506001918201910161249b565b61255261240b6040805190810160405280600281526020017f5d7d00000000000000000000000000000000000000000000000000000000000081525061142d565b935061257a565b604080518082019091526004815260e260020a631b9d5b1b02602082015293505b505050919050565b60408051808201909152600a81527f7b227469746c65223a220000000000000000000000000000000000000000000060208201528151606091906000906125cc90610dbf9061142d565b915061260f610dbf6040805190810160405280600f81526020017f222c2273686f727444657363223a22000000000000000000000000000000000081525061142d565b9150612621610dbf856020015161142d565b9150612664610dbf6040805190810160405280600e81526020017f222c226c6f6e6744657363223a2200000000000000000000000000000000000081525061142d565b9150612676610dbf856040015161142d565b91506126b9610dbf6040805190810160405280600a81526020017f222c227769647468223a0000000000000000000000000000000000000000000081525061142d565b91506126ce610dbf610dfd86606001516111ee565b9150612711610dbf6040805190810160405280600d81526020017f2c22656c656d656e7473223a5b0000000000000000000000000000000000000081525061142d565b9150600090505b83608001515181101561277e57600081111561275957612756610dbf60408051908101604052806001815260200160fa60020a600b0281525061142d565b91505b612774610dbf610dfd866080015184815181101515610dee57fe5b9150600101612718565b6127bf610dbf6040805190810160405280600281526020017f5d7d00000000000000000000000000000000000000000000000000000000000081525061142d565b949350505050565b60408051602a80825260608083019093528291600091829182916020820161054080388339505081519195507f300000000000000000000000000000000000000000000000000000000000000091869150600090811061282357fe5b906020010190600160f860020a031916908160001a90535083517f7800000000000000000000000000000000000000000000000000000000000000908590600190811061286c57fe5b906020010190600160f860020a031916908160001a905350859250600091505b602882101561290057506030600f8316016039600160a060020a03821611156128b3576027015b8060f860020a0284836028036001018151811015156128ce57fe5b906020010190600160f860020a031916908160001a9053506010600160a060020a03841604925060019091019061288c565b5091949350505050565b606080826000015115611780576040805190810160405280600781526020017f7b226964223a2200000000000000000000000000000000000000000000000000815250905061295f611522846020015161142d565b90506129a26115226040805190810160405280600181526020017f220000000000000000000000000000000000000000000000000000000000000081525061142d565b60808401515190915015612a33576129d861152260408051908101604052806001815260200160fa60020a600b0281525061142d565b9050612a1b6115226040805190810160405280600981526020017f22616374696f6e223a000000000000000000000000000000000000000000000081525061142d565b9050612a30611522610dfd85608001516121de565b90505b612a746115226040805190810160405280600981526020017f2c2274797065223a22000000000000000000000000000000000000000000000081525061142d565b9050612a86611522846040015161142d565b9050612ac96115226040805190810160405280600b81526020017f222c226c6162656c223a2200000000000000000000000000000000000000000081525061142d565b905061233e611522846060015161142d565b6101a06040519081016040528060001515815260200160608152602001606081526020016060815260200160608152602001612b15612ba5565b8152602001612b22612bd2565b905290565b828054600181600116156101000203166002900490600052602060002090601f016020900481019282601f10612b6857805160ff1916838001178555612b95565b82800160010185558215612b95579182015b82811115612b95578251825591602001919060010190612b7a565b50612ba1929150612c70565b5090565b6040805160a081018252600080825260208201526060918101829052818101829052608081019190915290565b60606040519081016040528060001515815260200160608152602001606081525090565b61012060405190810160405280600015158152602001606081526020016060815260200160608152602001612b22612ba5565b604080518082019091526000808252602082015290565b60a06040519081016040528060608152602001606081526020016060815260200160008152602001606081525090565b61139d91905b80821115612ba15760008155600101612c765600746f6b656e5f7072696365000000000000000000000000000000000000000000a165627a7a72305820a59880030aa36f59d8e5aa28584a9940e526adac15daf0dc9152462eefdd56ed0029",
  "source": "pragma solidity ^0.4.24;\n\nimport \"zeppelin-solidity/contracts/token/ERC20/DetailedERC20.sol\";\nimport \"tokenboost-solidity/contracts/widget/Localizable.sol\";\nimport \"tokenboost-solidity/contracts/widget/Widgets.sol\";\nimport \"../FixedPriceStrategy.sol\";\n\ncontract FixedPriceStrategyRenderer is Localizable {\n    using Widgets for Widgets.Widget;\n    using Elements for Elements.Element;\n    using UintUtils for uint;\n    using strings for *;\n\n    string public constant TOKEN_PRICE = \"token_price\";\n    string public constant TOKEN_PRICE_LABEL = \"token_price_label\";\n    string public constant SHORT_DESC = \"short_desc\";\n    string public constant LONG_DESC = \"long_desc\";\n    string public constant UPDATE = \"update\";\n    string public constant UPDATE_CONFIRM = \"update_confirm\";\n\n    function adminWidgets(string _locale, FixedPriceStrategy _strategy) public view returns (string json) {\n        return string(abi.encodePacked(\"[\", _tokenPriceWidget(_locale, _strategy, true), \"]\"));\n    }\n\n    function userWidgets(string _locale, FixedPriceStrategy _strategy) public view returns (string json) {\n        return string(abi.encodePacked(\"[\", _tokenPriceWidget(_locale, _strategy, false), \"]\"));\n    }\n\n    function _tokenPriceWidget(string _locale, FixedPriceStrategy _strategy, bool _admin) private view returns (string json) {\n        if (_admin || _strategy.sale().activated()) {\n            Elements.Element[] memory elements = new Elements.Element[](1);\n            DetailedERC20 erc20 = DetailedERC20(_strategy.sale().token());\n            string memory tokensPerEth = _strategy.tokensPerEth().toString().toSlice().concat(\" \".toSlice()).toSlice().concat(erc20.symbol().toSlice());\n            elements[0] = Elements.Element(\n                true,\n                TOKEN_PRICE,\n                \"text\",\n                '1 ETH = '.toSlice().concat(tokensPerEth.toSlice()),\n                \"null\",\n                Actions.empty(),\n                Tables.empty()\n            );\n            Widgets.Widget memory widget = Widgets.Widget(\n                resources[_locale][TOKEN_PRICE],\n                resources[_locale][SHORT_DESC],\n                resources[_locale][LONG_DESC],\n                4,\n                elements\n            );\n            return widget.toJson();\n        } else {\n            return \"\";\n        }\n    }\n\n    function inputs(string _locale, FixedPriceStrategy _strategy) public view returns (string) {\n        Elements.Element[] memory elements = new Elements.Element[](2);\n        elements[0] = Elements.Element(\n            true,\n            TOKEN_PRICE,\n            \"numberEdit\",\n            resources[_locale][TOKEN_PRICE_LABEL],\n            _strategy.tokensPerEth().toString(),\n            Actions.empty(),\n            Tables.empty()\n        );\n        elements[1] = Elements.Element(\n            true,\n            UPDATE,\n            \"button\",\n            resources[_locale][UPDATE],\n            \"null\",\n            Actions.Action(\n                true,\n                address(_strategy),\n                \"update(uint256)\",\n                '[\"token_price\"]',\n                resources[_locale][UPDATE_CONFIRM]\n            ),\n            Tables.empty()\n        );\n        string memory json = \"[\";\n        for (uint i = 0; i < elements.length; i++) {\n            if (i > 0) {\n                json = json.toSlice().concat(','.toSlice());\n            }\n            json = json.toSlice().concat(elements[i].toJson().toSlice());\n        }\n        return json.toSlice().concat(']'.toSlice());\n    }\n}\n",
  "sourcePath": "/Users/yoonjae/SolidityProjects/tokenboost-solidity-erc20sale-strategies/contracts/strategy/sale/erc20/fixed-price/widget/FixedPriceStrategyRenderer.sol",
  "compiler": {
    "name": "solc",
    "version": "0.4.24+commit.e67f0147.Emscripten.clang"
  },
  "schemaVersion": "2.0.1",
  "updatedAt": "2018-10-11T22:58:24.934Z"
}