{
  "contractName": "IndividualCapStrategyRenderer",
  "abi": [
    {
      "constant": true,
      "inputs": [],
      "name": "MY_CAP_SHORT_DESC",
      "outputs": [
        {
          "name": "",
          "type": "string"
        }
      ],
      "payable": false,
      "stateMutability": "view",
      "type": "function"
    },
    {
      "constant": true,
      "inputs": [],
      "name": "INDIVIDUAL_CAP_SHORT_DESC",
      "outputs": [
        {
          "name": "",
          "type": "string"
        }
      ],
      "payable": false,
      "stateMutability": "view",
      "type": "function"
    },
    {
      "constant": true,
      "inputs": [],
      "name": "MY_CAP",
      "outputs": [
        {
          "name": "",
          "type": "string"
        }
      ],
      "payable": false,
      "stateMutability": "view",
      "type": "function"
    },
    {
      "constant": true,
      "inputs": [],
      "name": "MY_CAP_LONG_DESC",
      "outputs": [
        {
          "name": "",
          "type": "string"
        }
      ],
      "payable": false,
      "stateMutability": "view",
      "type": "function"
    },
    {
      "constant": false,
      "inputs": [],
      "name": "renounceOwnership",
      "outputs": [],
      "payable": false,
      "stateMutability": "nonpayable",
      "type": "function"
    },
    {
      "constant": true,
      "inputs": [],
      "name": "owner",
      "outputs": [
        {
          "name": "",
          "type": "address"
        }
      ],
      "payable": false,
      "stateMutability": "view",
      "type": "function"
    },
    {
      "constant": true,
      "inputs": [],
      "name": "INDIVIDUAL_CAP",
      "outputs": [
        {
          "name": "",
          "type": "string"
        }
      ],
      "payable": false,
      "stateMutability": "view",
      "type": "function"
    },
    {
      "constant": true,
      "inputs": [],
      "name": "UPDATE_CONFIRM",
      "outputs": [
        {
          "name": "",
          "type": "string"
        }
      ],
      "payable": false,
      "stateMutability": "view",
      "type": "function"
    },
    {
      "constant": true,
      "inputs": [],
      "name": "UPDATE",
      "outputs": [
        {
          "name": "",
          "type": "string"
        }
      ],
      "payable": false,
      "stateMutability": "view",
      "type": "function"
    },
    {
      "constant": false,
      "inputs": [
        {
          "name": "locale",
          "type": "string"
        },
        {
          "name": "key",
          "type": "string"
        },
        {
          "name": "value",
          "type": "string"
        }
      ],
      "name": "setResource",
      "outputs": [],
      "payable": false,
      "stateMutability": "nonpayable",
      "type": "function"
    },
    {
      "constant": true,
      "inputs": [],
      "name": "INDIVIDUAL_CAP_LONG_DESC",
      "outputs": [
        {
          "name": "",
          "type": "string"
        }
      ],
      "payable": false,
      "stateMutability": "view",
      "type": "function"
    },
    {
      "constant": false,
      "inputs": [
        {
          "name": "_newOwner",
          "type": "address"
        }
      ],
      "name": "transferOwnership",
      "outputs": [],
      "payable": false,
      "stateMutability": "nonpayable",
      "type": "function"
    },
    {
      "constant": true,
      "inputs": [
        {
          "name": "locale",
          "type": "string"
        },
        {
          "name": "key",
          "type": "string"
        }
      ],
      "name": "resource",
      "outputs": [
        {
          "name": "",
          "type": "string"
        }
      ],
      "payable": false,
      "stateMutability": "view",
      "type": "function"
    },
    {
      "anonymous": false,
      "inputs": [
        {
          "indexed": true,
          "name": "previousOwner",
          "type": "address"
        }
      ],
      "name": "OwnershipRenounced",
      "type": "event"
    },
    {
      "anonymous": false,
      "inputs": [
        {
          "indexed": true,
          "name": "previousOwner",
          "type": "address"
        },
        {
          "indexed": true,
          "name": "newOwner",
          "type": "address"
        }
      ],
      "name": "OwnershipTransferred",
      "type": "event"
    },
    {
      "constant": true,
      "inputs": [
        {
          "name": "_locale",
          "type": "string"
        },
        {
          "name": "_strategy",
          "type": "address"
        }
      ],
      "name": "adminWidgets",
      "outputs": [
        {
          "name": "",
          "type": "string"
        }
      ],
      "payable": false,
      "stateMutability": "view",
      "type": "function"
    },
    {
      "constant": true,
      "inputs": [
        {
          "name": "_locale",
          "type": "string"
        },
        {
          "name": "_strategy",
          "type": "address"
        }
      ],
      "name": "userWidgets",
      "outputs": [
        {
          "name": "",
          "type": "string"
        }
      ],
      "payable": false,
      "stateMutability": "view",
      "type": "function"
    },
    {
      "constant": true,
      "inputs": [
        {
          "name": "_locale",
          "type": "string"
        },
        {
          "name": "_strategy",
          "type": "address"
        }
      ],
      "name": "inputs",
      "outputs": [
        {
          "name": "",
          "type": "string"
        }
      ],
      "payable": false,
      "stateMutability": "view",
      "type": "function"
    }
  ],
  "bytecode": "0x608060405260008054600160a060020a031916331790556133c6806100256000396000f3006080604052600436106100cc5763ffffffff60e060020a600035041663150edf7e81146100d15780632b1a09651461015b57806337eec5a014610170578063392e55ae14610185578063715018a61461019a5780638da5cb5b146101b1578063a8d29405146101e2578063b07b3c78146101f7578063bf3bed541461020c578063d30f6e2014610270578063e77cee3d14610285578063e9499555146102e9578063ed3487fe1461034d578063ef7ea62714610422578063f2fde38b14610437578063f65a5c1b14610458575b600080fd5b3480156100dd57600080fd5b506100e66104ef565b6040805160208082528351818301528351919283929083019185019080838360005b83811015610120578181015183820152602001610108565b50505050905090810190601f16801561014d5780820380516001836020036101000a031916815260200191505b509250505060405180910390f35b34801561016757600080fd5b506100e6610526565b34801561017c57600080fd5b506100e661055d565b34801561019157600080fd5b506100e6610582565b3480156101a657600080fd5b506101af6105b9565b005b3480156101bd57600080fd5b506101c6610625565b60408051600160a060020a039092168252519081900360200190f35b3480156101ee57600080fd5b506100e6610634565b34801561020357600080fd5b506100e6610659565b34801561021857600080fd5b506040805160206004803580820135601f81018490048402850184019095528484526100e694369492936024939284019190819084018382808284375094975050509235600160a060020a0316935061069092505050565b34801561027c57600080fd5b506100e6610ee5565b34801561029157600080fd5b506040805160206004803580820135601f81018490048402850184019095528484526100e694369492936024939284019190819084018382808284375094975050509235600160a060020a03169350610f1c92505050565b3480156102f557600080fd5b506040805160206004803580820135601f81018490048402850184019095528484526100e694369492936024939284019190819084018382808284375094975050509235600160a060020a03169350610fb792505050565b34801561035957600080fd5b506040805160206004803580820135601f81018490048402850184019095528484526101af94369492936024939284019190819084018382808284375050604080516020601f89358b018035918201839004830284018301909452808352979a99988101979196509182019450925082915084018382808284375050604080516020601f89358b018035918201839004830284018301909452808352979a999881019791965091820194509250829150840183828082843750949750610ffe9650505050505050565b34801561042e57600080fd5b506100e66110eb565b34801561044357600080fd5b506101af600160a060020a0360043516611122565b34801561046457600080fd5b506040805160206004803580820135601f81018490048402850184019095528484526100e694369492936024939284019190819084018382808284375050604080516020601f89358b018035918201839004830284018301909452808352979a9998810197919650918201945092508291508401838280828437509497506111459650505050505050565b60408051808201909152601181527f6d795f6361705f73686f72745f64657363000000000000000000000000000000602082015281565b60408051808201909152601981527f696e646976696475616c5f6361705f73686f72745f6465736300000000000000602082015281565b604080518082019091526006815260008051602061335b833981519152602082015281565b60408051808201909152601081527f6d795f6361705f6c6f6e675f6465736300000000000000000000000000000000602082015281565b600054600160a060020a031633146105d057600080fd5b60008054604051600160a060020a03909116917ff8df31144d9c2f0f6b59d69b8b98abd5459d07f2742c4df920b25aae33c6482091a26000805473ffffffffffffffffffffffffffffffffffffffff19169055565b600054600160a060020a031681565b60408051808201909152600e815260008051602061337b833981519152602082015281565b60408051808201909152600e81527f7570646174655f636f6e6669726d000000000000000000000000000000000000602082015281565b60408051600280825260608281019093528291829160009190816020015b6106b66131ab565b8152602001906001900390816106ae57905050925060e0604051908101604052806001151581526020016040805190810160405280600e815260200160008051602061337b83398151915281525081526020016040805190810160405280600781526020017f657468456469740000000000000000000000000000000000000000000000000081525081526020016001886040518082805190602001908083835b602083106107765780518252601f199092019160209182019101610757565b51815160209384036101000a60001901801990921691161790529201948552506040805194859003820185208582018252600e80875260008051602061337b83398151915293870193845291519095945092508291908083835b602083106107ef5780518252601f1990920191602091820191016107d0565b518151600019602094850361010090810a820192831692199390931691909117909252949092019687526040805197889003820188208054601f60026001831615909802909501169590950492830182900482028801820190528187529294509250508301828280156108a35780601f10610878576101008083540402835291602001916108a3565b820191906000526020600020905b81548152906001019060200180831161088657829003601f168201915b5050505050815260200161091f87600160a060020a0316630276650b6040518163ffffffff1660e060020a028152600401602060405180830381600087803b1580156108ee57600080fd5b505af1158015610902573d6000803e3d6000fd5b505050506040513d602081101561091857600080fd5b5051611296565b815260200161092c6113f5565b8152602001610939611448565b905283518490600090811061094a57fe5b9060200190602002018190525060e0604051908101604052806001151581526020016040805190810160405280600681526020017f757064617465000000000000000000000000000000000000000000000000000081525081526020016040805190810160405280600681526020017f627574746f6e000000000000000000000000000000000000000000000000000081525081526020016001886040518082805190602001908083835b60208310610a145780518252601f1990920191602091820191016109f5565b51815160209384036101000a6000190180199092169116179052920194855250604080519485900382018520858201825260068087527f757064617465000000000000000000000000000000000000000000000000000093870193845291519095945092508291908083835b60208310610a9f5780518252601f199092019160209182019101610a80565b518151600019602094850361010090810a820192831692199390931691909117909252949092019687526040805197889003820188208054601f6002600183161590980290950116959095049283018290048202880182019052818752929450925050830182828015610b535780601f10610b2857610100808354040283529160200191610b53565b820191906000526020600020905b815481529060010190602001808311610b3657829003601f168201915b505050505081526020016040805190810160405280600481526020017f6e756c6c00000000000000000000000000000000000000000000000000000000815250815260200160a06040519081016040528060011515815260200188600160a060020a031681526020016040805190810160405280600f81526020017f7570646174652875696e7432353629000000000000000000000000000000000081525081526020016040805190810160405280601281526020017f5b22696e646976696475616c5f636170225d0000000000000000000000000000815250815260200160018a6040518082805190602001908083835b60208310610c645780518252601f199092019160209182019101610c45565b51815160209384036101000a60001901801990921691161790529201948552506040805194859003820185208582018252600e8087527f7570646174655f636f6e6669726d00000000000000000000000000000000000093870193845291519095945092508291908083835b60208310610cef5780518252601f199092019160209182019101610cd0565b518151600019602094850361010090810a820192831692199390931691909117909252949092019687526040805197889003820188208054601f6002600183161590980290950116959095049283018290048202880182019052818752929450925050830182828015610da35780601f10610d7857610100808354040283529160200191610da3565b820191906000526020600020905b815481529060010190602001808311610d8657829003601f168201915b50505050508152508152602001610db8611448565b9052835184906001908110610dc957fe5b906020019060200201819052506040805190810160405280600181526020017f5b000000000000000000000000000000000000000000000000000000000000008152509150600090505b8251811015610e9a576000811115610e6557610e62610e4d60408051908101604052806001815260200160fa60020a600b028152506114d5565b610e56846114d5565b9063ffffffff6114fe16565b91505b610e90610e4d610e8b8584815181101515610e7c57fe5b90602001906020020151611575565b6114d5565b9150600101610e13565b610edb610e4d6040805190810160405280600181526020017f5d000000000000000000000000000000000000000000000000000000000000008152506114d5565b9695505050505050565b60408051808201909152600681527f7570646174650000000000000000000000000000000000000000000000000000602082015281565b60408051808201909152600181527f5b000000000000000000000000000000000000000000000000000000000000006020820152606090610f6c610f63610e8b868661185a565b610e56836114d5565b9050610faf610f636040805190810160405280600181526020017f5d000000000000000000000000000000000000000000000000000000000000008152506114d5565b949350505050565b60408051808201909152600181527f5b000000000000000000000000000000000000000000000000000000000000006020820152606090610f6c610f63610e8b86866120bd565b600054600160a060020a0316331461101557600080fd5b806001846040518082805190602001908083835b602083106110485780518252601f199092019160209182019101611029565b51815160209384036101000a6000190180199092169116179052920194855250604051938490038101842087519094889450925082918401908083835b602083106110a45780518252601f199092019160209182019101611085565b51815160209384036101000a600019018019909216911617905292019485525060405193849003810190932084516110e595919491909101925090506131f7565b50505050565b60408051808201909152601881527f696e646976696475616c5f6361705f6c6f6e675f646573630000000000000000602082015281565b600054600160a060020a0316331461113957600080fd5b611142816127df565b50565b60606001836040518082805190602001908083835b602083106111795780518252601f19909201916020918201910161115a565b51815160209384036101000a6000190180199092169116179052920194855250604051938490038101842086519094879450925082918401908083835b602083106111d55780518252601f1990920191602091820191016111b6565b518151600019602094850361010090810a820192831692199390931691909117909252949092019687526040805197889003820188208054601f60026001831615909802909501169590950492830182900482028801820190528187529294509250508301828280156112895780601f1061125e57610100808354040283529160200191611289565b820191906000526020600020905b81548152906001019060200180831161126c57829003601f168201915b5050505050905092915050565b606080600081818515156112df5760408051808201909152600181527f3000000000000000000000000000000000000000000000000000000000000000602082015294506113ec565b6040805160208082528183019092529080820161040080388339019050509350600092505b600086111561135157600a860660300160f860020a02848481518110151561132857fe5b906020010190600160f860020a031916908160001a905350600a86049550600190920191611304565b60408051848152601f19601f86011681016020019091526000198401938015611384578160200160208202803883390190505b509150600090505b81518110156113e8578351600019840193859181106113a757fe5b90602001015160f860020a900460f860020a0282828151811015156113c857fe5b906020010190600160f860020a031916908160001a90535060010161138c565b8194505b50505050919050565b6113fd613275565b506040805160a0810182526000808252602080830182905283518082018552828152838501528351808201855282815260608401528351908101909352825260808101919091525b90565b6114506132a2565b60408051606081018252600080825282518181526020818101909452919283019190611492565b61147f6132c6565b8152602001906001900390816114775790505b50815260200160006040519080825280602002602001820160405280156114cd57816020015b60608152602001906001900390816114b85790505b509052905090565b6114dd6132f9565b50604080518082019091528151815260208281019082018190525b50919050565b606080600083600001518560000151016040519080825280601f01601f19166020018201604052801561153b578160200160208202803883390190505b509150602082019050611557818660200151876000015161285c565b84516020850151855161156d928401919061285c565b509392505050565b60608082600001511561181f576040805190810160405280600781526020017f7b226964223a220000000000000000000000000000000000000000000000000081525090506115ca610f6384602001516114d5565b905061160d610f636040805190810160405280600181526020017f22000000000000000000000000000000000000000000000000000000000000008152506114d5565b60a084015151909150156116745761165c610f636040805190810160405280600b81526020017f2c2022616374696f6e223a0000000000000000000000000000000000000000008152506114d5565b9050611671610f63610e8b8560a001516128a0565b90505b60c083015151156116d8576116c0610f636040805190810160405280600a81526020017f2c20227461626c65223a000000000000000000000000000000000000000000008152506114d5565b90506116d5610f63610e8b8560c00151612a43565b90505b611719610f636040805190810160405280600981526020017f2c2274797065223a2200000000000000000000000000000000000000000000008152506114d5565b905061172b610f6384604001516114d5565b905061176e610f636040805190810160405280600b81526020017f222c226c6162656c223a220000000000000000000000000000000000000000008152506114d5565b9050611780610f6384606001516114d5565b90506117c3610f636040805190810160405280600981526020017f222c2264617461223a00000000000000000000000000000000000000000000008152506114d5565b90506117d5610f6384608001516114d5565b9050611818610f636040805190810160405280600181526020017f7d000000000000000000000000000000000000000000000000000000000000008152506114d5565b91506114f8565b60408051808201909152600481527f6e756c6c00000000000000000000000000000000000000000000000000000000602082015291506114f8565b6060806000611867613310565b60408051600180825281830190925290816020015b6118846131ab565b81526020019060019003908161187c57905050925084600160a060020a0316636ad1fe026040518163ffffffff1660e060020a028152600401602060405180830381600087803b1580156118d757600080fd5b505af11580156118eb573d6000803e3d6000fd5b505050506040513d602081101561190157600080fd5b5051604080517fcf7c2b310000000000000000000000000000000000000000000000000000000081523260048201529051600160a060020a039092169163cf7c2b31916024808201926020929091908290030181600087803b15801561196657600080fd5b505af115801561197a573d6000803e3d6000fd5b505050506040513d602081101561199057600080fd5b5051604080517f0276650b0000000000000000000000000000000000000000000000000000000081529051600160a060020a03881691630276650b9160048083019260209291908290030181600087803b1580156119ed57600080fd5b505af1158015611a01573d6000803e3d6000fd5b505050506040513d6020811015611a1757600080fd5b50516040805160e0810182526001808252825180840184526006815260008051602061335b8339815191526020828101919091528381019190915283518085018552600381527f6574680000000000000000000000000000000000000000000000000000000000818301528385015292518b519590940396509093606085019391928b929182918401908083835b60208310611ac45780518252601f199092019160209182019101611aa5565b51815160209384036101000a60001901801990921691161790529201948552506040805194859003820185208582018252600680875260008051602061335b83398151915293870193845291519095945092508291908083835b60208310611b3d5780518252601f199092019160209182019101611b1e565b518151600019602094850361010090810a820192831692199390931691909117909252949092019687526040805197889003820188208054601f6002600183161590980290950116959095049283018290048202880182019052818752929450925050830182828015611bf15780601f10611bc657610100808354040283529160200191611bf1565b820191906000526020600020905b815481529060010190602001808311611bd457829003601f168201915b50505050508152602001611c0484611296565b8152602001611c116113f5565b8152602001611c1e611448565b9052835184906000908110611c2f57fe5b9060200190602002018190525060a0604051908101604052806001886040518082805190602001908083835b60208310611c7a5780518252601f199092019160209182019101611c5b565b51815160209384036101000a60001901801990921691161790529201948552506040805194859003820185208582018252600680875260008051602061335b83398151915293870193845291519095945092508291908083835b60208310611cf35780518252601f199092019160209182019101611cd4565b518151600019602094850361010090810a820192831692199390931691909117909252949092019687526040805197889003820188208054601f6002600183161590980290950116959095049283018290048202880182019052818752929450925050830182828015611da75780601f10611d7c57610100808354040283529160200191611da7565b820191906000526020600020905b815481529060010190602001808311611d8a57829003601f168201915b505050505081526020016001886040518082805190602001908083835b60208310611de35780518252601f199092019160209182019101611dc4565b51815160209384036101000a6000190180199092169116179052920194855250604080519485900382018520858201825260118087527f6d795f6361705f73686f72745f6465736300000000000000000000000000000093870193845291519095945092508291908083835b60208310611e6e5780518252601f199092019160209182019101611e4f565b518151600019602094850361010090810a820192831692199390931691909117909252949092019687526040805197889003820188208054601f6002600183161590980290950116959095049283018290048202880182019052818752929450925050830182828015611f225780601f10611ef757610100808354040283529160200191611f22565b820191906000526020600020905b815481529060010190602001808311611f0557829003601f168201915b505050505081526020016001886040518082805190602001908083835b60208310611f5e5780518252601f199092019160209182019101611f3f565b51815160209384036101000a6000190180199092169116179052920194855250604080519485900382018520858201825260108087527f6d795f6361705f6c6f6e675f646573630000000000000000000000000000000093870193845291519095945092508291908083835b60208310611fe95780518252601f199092019160209182019101611fca565b518151600019602094850361010090810a820192831692199390931691909117909252949092019687526040805197889003820188208054601f600260018316159098029095011695909504928301829004820288018201905281875292945092505083018282801561209d5780601f106120725761010080835404028352916020019161209d565b820191906000526020600020905b81548152906001019060200180831161208057829003601f168201915b5050505050815260200160048152602001848152509050610edb81612c5a565b6060806120c8613310565b60408051600180825281830190925290816020015b6120e56131ab565b8152602001906001900390816120dd57905050915060e0604051908101604052806001151581526020016040805190810160405280600e815260200160008051602061337b83398151915281525081526020016040805190810160405280600381526020017f657468000000000000000000000000000000000000000000000000000000000081525081526020016001876040518082805190602001908083835b602083106121a55780518252601f199092019160209182019101612186565b51815160209384036101000a60001901801990921691161790529201948552506040805194859003820185208582018252600e80875260008051602061337b83398151915293870193845291519095945092508291908083835b6020831061221e5780518252601f1990920191602091820191016121ff565b518151600019602094850361010090810a820192831692199390931691909117909252949092019687526040805197889003820188208054601f60026001831615909802909501169590950492830182900482028801820190528187529294509250508301828280156122d25780601f106122a7576101008083540402835291602001916122d2565b820191906000526020600020905b8154815290600101906020018083116122b557829003601f168201915b5050505050815260200161231d86600160a060020a0316630276650b6040518163ffffffff1660e060020a028152600401602060405180830381600087803b1580156108ee57600080fd5b815260200161232a6113f5565b8152602001612337611448565b905282518390600090811061234857fe5b9060200190602002018190525060a0604051908101604052806001876040518082805190602001908083835b602083106123935780518252601f199092019160209182019101612374565b51815160209384036101000a60001901801990921691161790529201948552506040805194859003820185208582018252600e80875260008051602061337b83398151915293870193845291519095945092508291908083835b6020831061240c5780518252601f1990920191602091820191016123ed565b518151600019602094850361010090810a820192831692199390931691909117909252949092019687526040805197889003820188208054601f60026001831615909802909501169590950492830182900482028801820190528187529294509250508301828280156124c05780601f10612495576101008083540402835291602001916124c0565b820191906000526020600020905b8154815290600101906020018083116124a357829003601f168201915b505050505081526020016001876040518082805190602001908083835b602083106124fc5780518252601f1990920191602091820191016124dd565b51815160209384036101000a6000190180199092169116179052920194855250604080519485900382018520858201825260198087527f696e646976696475616c5f6361705f73686f72745f646573630000000000000093870193845291519095945092508291908083835b602083106125875780518252601f199092019160209182019101612568565b518151600019602094850361010090810a820192831692199390931691909117909252949092019687526040805197889003820188208054601f600260018316159098029095011695909504928301829004820288018201905281875292945092505083018282801561263b5780601f106126105761010080835404028352916020019161263b565b820191906000526020600020905b81548152906001019060200180831161261e57829003601f168201915b505050505081526020016001876040518082805190602001908083835b602083106126775780518252601f199092019160209182019101612658565b51815160209384036101000a6000190180199092169116179052920194855250604080519485900382018520858201825260188087527f696e646976696475616c5f6361705f6c6f6e675f64657363000000000000000093870193845291519095945092508291908083835b602083106127025780518252601f1990920191602091820191016126e3565b518151600019602094850361010090810a820192831692199390931691909117909252949092019687526040805197889003820188208054601f60026001831615909802909501169590950492830182900482028801820190528187529294509250508301828280156127b65780601f1061278b576101008083540402835291602001916127b6565b820191906000526020600020905b81548152906001019060200180831161279957829003601f168201915b50505050508152602001600481526020018381525090506127d681612c5a565b95945050505050565b600160a060020a03811615156127f457600080fd5b60008054604051600160a060020a03808516939216917f8be0079c531659141344cd1fd0a4f28419497f9722a3daafe3b4186f6b6457e091a36000805473ffffffffffffffffffffffffffffffffffffffff1916600160a060020a0392909216919091179055565b60005b60208210612881578251845260209384019390920191601f199091019061285f565b50905182516020929092036101000a6000190180199091169116179052565b60608082600001511561181f576040805190810160405280600c81526020017f7b2261646472657373223a2200000000000000000000000000000000000000008152509050612901610f63610e8b8560200151600160a060020a0316612e97565b9050612944610f636040805190810160405280601681526020017f222c2266756e6374696f6e53656c6563746f72223a22000000000000000000008152506114d5565b9050612956610f6384604001516114d5565b9050612999610f636040805190810160405280600e81526020017f222c22617267756d656e7473223a0000000000000000000000000000000000008152506114d5565b90506129ab610f6384606001516114d5565b90506129ee610f636040805190810160405280600c81526020017f2c22636f6e6669726d223a2200000000000000000000000000000000000000008152506114d5565b9050612a00610f6384608001516114d5565b9050611818610f636040805190810160405280600281526020017f227d0000000000000000000000000000000000000000000000000000000000008152506114d5565b606080600080846000015115612c1b57505060408051808201909152600c81527f7b22636f6c756d6e73223a5b0000000000000000000000000000000000000000602082015290506000805b846020015151811015612b11576000821115612ad957612ad6612acd60408051908101604052806001815260200160fa60020a600b028152506114d5565b610e56856114d5565b92505b612b03612acd610e8b876020015184815181101515612af457fe5b90602001906020020151612fda565b925060019182019101612a8f565b612b52612acd6040805190810160405280600a81526020017f5d2c22726f7773223a5b000000000000000000000000000000000000000000008152506114d5565b925060009150600090505b846040015151811015612bd3576000821115612b9e57612b9b612acd60408051908101604052806001815260200160fa60020a600b028152506114d5565b92505b612bc5612acd866040015183815181101515612bb657fe5b906020019060200201516114d5565b925060019182019101612b5d565b612c14612acd6040805190810160405280600281526020017f5d7d0000000000000000000000000000000000000000000000000000000000008152506114d5565b9350612c52565b60408051808201909152600481527f6e756c6c00000000000000000000000000000000000000000000000000000000602082015293505b505050919050565b60408051808201909152600a81527f7b227469746c65223a22000000000000000000000000000000000000000000006020820152815160609190600090612ca490610e4d906114d5565b9150612ce7610e4d6040805190810160405280600f81526020017f222c2273686f727444657363223a2200000000000000000000000000000000008152506114d5565b9150612cf9610e4d85602001516114d5565b9150612d3c610e4d6040805190810160405280600e81526020017f222c226c6f6e6744657363223a220000000000000000000000000000000000008152506114d5565b9150612d4e610e4d85604001516114d5565b9150612d91610e4d6040805190810160405280600a81526020017f222c227769647468223a000000000000000000000000000000000000000000008152506114d5565b9150612da6610e4d610e8b8660600151611296565b9150612de9610e4d6040805190810160405280600d81526020017f2c22656c656d656e7473223a5b000000000000000000000000000000000000008152506114d5565b9150600090505b836080015151811015612e56576000811115612e3157612e2e610e4d60408051908101604052806001815260200160fa60020a600b028152506114d5565b91505b612e4c610e4d610e8b866080015184815181101515610e7c57fe5b9150600101612df0565b610faf610e4d6040805190810160405280600281526020017f5d7d0000000000000000000000000000000000000000000000000000000000008152506114d5565b60408051602a80825260608083019093528291600091829182916020820161054080388339505081519195507f3000000000000000000000000000000000000000000000000000000000000000918691506000908110612ef357fe5b906020010190600160f860020a031916908160001a90535083517f78000000000000000000000000000000000000000000000000000000000000009085906001908110612f3c57fe5b906020010190600160f860020a031916908160001a905350859250600091505b6028821015612fd057506030600f8316016039600160a060020a0382161115612f83576027015b8060f860020a028483602803600101815181101515612f9e57fe5b906020010190600160f860020a031916908160001a9053506010600160a060020a038416049250600190910190612f5c565b5091949350505050565b60608082600001511561181f576040805190810160405280600781526020017f7b226964223a2200000000000000000000000000000000000000000000000000815250905061302f610f6384602001516114d5565b9050613072610f636040805190810160405280600181526020017f22000000000000000000000000000000000000000000000000000000000000008152506114d5565b60808401515190915015613103576130a8610f6360408051908101604052806001815260200160fa60020a600b028152506114d5565b90506130eb610f636040805190810160405280600981526020017f22616374696f6e223a00000000000000000000000000000000000000000000008152506114d5565b9050613100610f63610e8b85608001516128a0565b90505b613144610f636040805190810160405280600981526020017f2c2274797065223a2200000000000000000000000000000000000000000000008152506114d5565b9050613156610f6384604001516114d5565b9050613199610f636040805190810160405280600b81526020017f222c226c6162656c223a220000000000000000000000000000000000000000008152506114d5565b9050612a00610f6384606001516114d5565b6101a060405190810160405280600015158152602001606081526020016060815260200160608152602001606081526020016131e5613275565b81526020016131f26132a2565b905290565b828054600181600116156101000203166002900490600052602060002090601f016020900481019282601f1061323857805160ff1916838001178555613265565b82800160010185558215613265579182015b8281111561326557825182559160200191906001019061324a565b50613271929150613340565b5090565b6040805160a081018252600080825260208201526060918101829052818101829052608081019190915290565b60606040519081016040528060001515815260200160608152602001606081525090565b610120604051908101604052806000151581526020016060815260200160608152602001606081526020016131f2613275565b604080518082019091526000808252602082015290565b60a06040519081016040528060608152602001606081526020016060815260200160008152602001606081525090565b61144591905b80821115613271576000815560010161334656006d795f6361700000000000000000000000000000000000000000000000000000696e646976696475616c5f636170000000000000000000000000000000000000a165627a7a72305820918fbb35a7e728f04f19973bedf6faa1048f16f4f429acb5a6392c330f218da90029",
  "source": "pragma solidity ^0.4.24;\n\nimport \"tokenboost-solidity/contracts/widget/Localizable.sol\";\nimport \"tokenboost-solidity/contracts/widget/Widgets.sol\";\nimport \"../IndividualCapStrategy.sol\";\n\ncontract IndividualCapStrategyRenderer is Localizable {\n    using Widgets for Widgets.Widget;\n    using Elements for Elements.Element;\n    using strings for *;\n    using UintUtils for uint;\n    using AddressUtils for address;\n\n    string public constant INDIVIDUAL_CAP = \"individual_cap\";\n    string public constant INDIVIDUAL_CAP_SHORT_DESC = \"individual_cap_short_desc\";\n    string public constant INDIVIDUAL_CAP_LONG_DESC = \"individual_cap_long_desc\";\n    string public constant MY_CAP = \"my_cap\";\n    string public constant MY_CAP_SHORT_DESC = \"my_cap_short_desc\";\n    string public constant MY_CAP_LONG_DESC = \"my_cap_long_desc\";\n    string public constant UPDATE = \"update\";\n    string public constant UPDATE_CONFIRM = \"update_confirm\";\n\n    function adminWidgets(string _locale, IndividualCapStrategy _strategy) public view returns (string) {\n        string memory json = \"[\";\n        json = json.toSlice().concat(_capWidget(_locale, _strategy).toSlice());\n        return json.toSlice().concat(\"]\".toSlice());\n    }\n\n    function _capWidget(string _locale, IndividualCapStrategy _strategy) private view returns (string json) {\n        Elements.Element[] memory elements = new Elements.Element[](1);\n        elements[0] = Elements.Element(\n            true,\n            INDIVIDUAL_CAP,\n            \"eth\",\n            resources[_locale][INDIVIDUAL_CAP],\n            _strategy.individualCap().toString(),\n            Actions.empty(),\n            Tables.empty()\n        );\n        Widgets.Widget memory widget = Widgets.Widget(\n            resources[_locale][INDIVIDUAL_CAP],\n            resources[_locale][INDIVIDUAL_CAP_SHORT_DESC],\n            resources[_locale][INDIVIDUAL_CAP_LONG_DESC],\n            4,\n            elements\n        );\n        return widget.toJson();\n    }\n\n    function userWidgets(string _locale, IndividualCapStrategy _strategy) public view returns (string) {\n        string memory json = \"[\";\n        json = json.toSlice().concat(_myCapWidget(_locale, _strategy).toSlice());\n        return json.toSlice().concat(\"]\".toSlice());\n    }\n\n    function _myCapWidget(string _locale, IndividualCapStrategy _strategy) private view returns (string json) {\n        Elements.Element[] memory elements = new Elements.Element[](1);\n        uint256 myCap = _strategy.individualCap() - _strategy.sale().paymentOf(tx.origin);\n        elements[0] = Elements.Element(\n            true,\n            MY_CAP,\n            \"eth\",\n            resources[_locale][MY_CAP],\n            myCap.toString(),\n            Actions.empty(),\n            Tables.empty()\n        );\n        Widgets.Widget memory widget = Widgets.Widget(\n            resources[_locale][MY_CAP],\n            resources[_locale][MY_CAP_SHORT_DESC],\n            resources[_locale][MY_CAP_LONG_DESC],\n            4,\n            elements\n        );\n        return widget.toJson();\n    }\n\n    function inputs(string _locale, IndividualCapStrategy _strategy) public view returns (string) {\n        Elements.Element[] memory elements = new Elements.Element[](2);\n        elements[0] = Elements.Element(\n            true,\n            INDIVIDUAL_CAP,\n            \"ethEdit\",\n            resources[_locale][INDIVIDUAL_CAP],\n            _strategy.individualCap().toString(),\n            Actions.empty(),\n            Tables.empty()\n        );\n        elements[1] = Elements.Element(\n            true,\n            UPDATE,\n            \"button\",\n            resources[_locale][UPDATE],\n            \"null\",\n            Actions.Action(\n                true,\n                address(_strategy),\n                \"update(uint256)\",\n                '[\"individual_cap\"]',\n                resources[_locale][UPDATE_CONFIRM]\n            ),\n            Tables.empty()\n        );\n        string memory json = \"[\";\n        for (uint i = 0; i < elements.length; i++) {\n            if (i > 0) {\n                json = json.toSlice().concat(','.toSlice());\n            }\n            json = json.toSlice().concat(elements[i].toJson().toSlice());\n        }\n        return json.toSlice().concat(']'.toSlice());\n    }\n}\n",
  "sourcePath": "/Users/yoonjae/SolidityProjects/tokenboost-solidity-erc20sale-strategies/contracts/strategy/sale/erc20/individual-cap/widget/IndividualCapStrategyRenderer.sol",
  "compiler": {
    "name": "solc",
    "version": "0.4.24+commit.e67f0147.Emscripten.clang"
  },
  "schemaVersion": "2.0.1",
  "updatedAt": "2018-10-11T18:36:10.588Z"
}