{
  "contractName": "IndividualCapStrategy",
  "abi": [
    {
      "constant": true,
      "inputs": [
        {
          "name": "_interfaceId",
          "type": "bytes4"
        }
      ],
      "name": "supportsInterface",
      "outputs": [
        {
          "name": "",
          "type": "bool"
        }
      ],
      "payable": false,
      "stateMutability": "view",
      "type": "function"
    },
    {
      "constant": true,
      "inputs": [],
      "name": "individualCap",
      "outputs": [
        {
          "name": "",
          "type": "uint256"
        }
      ],
      "payable": false,
      "stateMutability": "view",
      "type": "function"
    },
    {
      "constant": true,
      "inputs": [],
      "name": "activated",
      "outputs": [
        {
          "name": "",
          "type": "bool"
        }
      ],
      "payable": false,
      "stateMutability": "view",
      "type": "function"
    },
    {
      "constant": true,
      "inputs": [],
      "name": "InterfaceId_ERC165",
      "outputs": [
        {
          "name": "",
          "type": "bytes4"
        }
      ],
      "payable": false,
      "stateMutability": "view",
      "type": "function"
    },
    {
      "constant": false,
      "inputs": [],
      "name": "deactivate",
      "outputs": [
        {
          "name": "",
          "type": "bool"
        }
      ],
      "payable": false,
      "stateMutability": "nonpayable",
      "type": "function"
    },
    {
      "constant": true,
      "inputs": [],
      "name": "InterfaceId_Strategy",
      "outputs": [
        {
          "name": "",
          "type": "bytes4"
        }
      ],
      "payable": false,
      "stateMutability": "view",
      "type": "function"
    },
    {
      "constant": true,
      "inputs": [],
      "name": "sale",
      "outputs": [
        {
          "name": "",
          "type": "address"
        }
      ],
      "payable": false,
      "stateMutability": "view",
      "type": "function"
    },
    {
      "constant": true,
      "inputs": [],
      "name": "template",
      "outputs": [
        {
          "name": "",
          "type": "address"
        }
      ],
      "payable": false,
      "stateMutability": "view",
      "type": "function"
    },
    {
      "constant": false,
      "inputs": [],
      "name": "renounceOwnership",
      "outputs": [],
      "payable": false,
      "stateMutability": "nonpayable",
      "type": "function"
    },
    {
      "constant": true,
      "inputs": [],
      "name": "renderer",
      "outputs": [
        {
          "name": "",
          "type": "address"
        }
      ],
      "payable": false,
      "stateMutability": "view",
      "type": "function"
    },
    {
      "constant": true,
      "inputs": [],
      "name": "owner",
      "outputs": [
        {
          "name": "",
          "type": "address"
        }
      ],
      "payable": false,
      "stateMutability": "view",
      "type": "function"
    },
    {
      "constant": true,
      "inputs": [],
      "name": "InterfaceId_ERC20SaleStrategy",
      "outputs": [
        {
          "name": "",
          "type": "bytes4"
        }
      ],
      "payable": false,
      "stateMutability": "view",
      "type": "function"
    },
    {
      "constant": true,
      "inputs": [],
      "name": "InterfaceId_SaleStrategy",
      "outputs": [
        {
          "name": "",
          "type": "bytes4"
        }
      ],
      "payable": false,
      "stateMutability": "view",
      "type": "function"
    },
    {
      "constant": false,
      "inputs": [
        {
          "name": "_newOwner",
          "type": "address"
        }
      ],
      "name": "transferOwnership",
      "outputs": [],
      "payable": false,
      "stateMutability": "nonpayable",
      "type": "function"
    },
    {
      "constant": true,
      "inputs": [],
      "name": "InterfaceId_Contract",
      "outputs": [
        {
          "name": "",
          "type": "bytes4"
        }
      ],
      "payable": false,
      "stateMutability": "view",
      "type": "function"
    },
    {
      "inputs": [
        {
          "name": "_owner",
          "type": "address"
        },
        {
          "name": "_sale",
          "type": "address"
        }
      ],
      "payable": false,
      "stateMutability": "nonpayable",
      "type": "constructor"
    },
    {
      "anonymous": false,
      "inputs": [
        {
          "indexed": true,
          "name": "previousOwner",
          "type": "address"
        }
      ],
      "name": "OwnershipRenounced",
      "type": "event"
    },
    {
      "anonymous": false,
      "inputs": [
        {
          "indexed": true,
          "name": "previousOwner",
          "type": "address"
        },
        {
          "indexed": true,
          "name": "newOwner",
          "type": "address"
        }
      ],
      "name": "OwnershipTransferred",
      "type": "event"
    },
    {
      "constant": false,
      "inputs": [
        {
          "name": "_individualCap",
          "type": "uint256"
        }
      ],
      "name": "update",
      "outputs": [],
      "payable": false,
      "stateMutability": "nonpayable",
      "type": "function"
    },
    {
      "constant": false,
      "inputs": [],
      "name": "activate",
      "outputs": [
        {
          "name": "",
          "type": "bool"
        }
      ],
      "payable": false,
      "stateMutability": "nonpayable",
      "type": "function"
    },
    {
      "constant": true,
      "inputs": [],
      "name": "started",
      "outputs": [
        {
          "name": "",
          "type": "bool"
        }
      ],
      "payable": false,
      "stateMutability": "view",
      "type": "function"
    },
    {
      "constant": true,
      "inputs": [],
      "name": "successful",
      "outputs": [
        {
          "name": "",
          "type": "bool"
        }
      ],
      "payable": false,
      "stateMutability": "view",
      "type": "function"
    },
    {
      "constant": true,
      "inputs": [],
      "name": "finished",
      "outputs": [
        {
          "name": "",
          "type": "bool"
        }
      ],
      "payable": false,
      "stateMutability": "view",
      "type": "function"
    },
    {
      "constant": true,
      "inputs": [
        {
          "name": "_purchaser",
          "type": "address"
        },
        {
          "name": "_weiAmount",
          "type": "uint256"
        }
      ],
      "name": "purchasable",
      "outputs": [
        {
          "name": "",
          "type": "bool"
        }
      ],
      "payable": false,
      "stateMutability": "view",
      "type": "function"
    },
    {
      "constant": true,
      "inputs": [
        {
          "name": "_purchaser",
          "type": "address"
        },
        {
          "name": "_weiAmount",
          "type": "uint256"
        }
      ],
      "name": "tokenRate",
      "outputs": [
        {
          "name": "",
          "type": "uint256"
        }
      ],
      "payable": false,
      "stateMutability": "view",
      "type": "function"
    },
    {
      "constant": false,
      "inputs": [
        {
          "name": "_purchaser",
          "type": "address"
        },
        {
          "name": "_tokenAmount",
          "type": "uint256"
        }
      ],
      "name": "supplyTokens",
      "outputs": [
        {
          "name": "",
          "type": "bool"
        }
      ],
      "payable": false,
      "stateMutability": "nonpayable",
      "type": "function"
    },
    {
      "constant": false,
      "inputs": [
        {
          "name": "_purchaser",
          "type": "address"
        },
        {
          "name": "_tokenAmount",
          "type": "uint256"
        }
      ],
      "name": "receivesTokens",
      "outputs": [
        {
          "name": "",
          "type": "bool"
        }
      ],
      "payable": false,
      "stateMutability": "nonpayable",
      "type": "function"
    },
    {
      "constant": true,
      "inputs": [
        {
          "name": "locale",
          "type": "string"
        }
      ],
      "name": "adminWidgets",
      "outputs": [
        {
          "name": "json",
          "type": "string"
        }
      ],
      "payable": false,
      "stateMutability": "view",
      "type": "function"
    },
    {
      "constant": true,
      "inputs": [
        {
          "name": "locale",
          "type": "string"
        }
      ],
      "name": "userWidgets",
      "outputs": [
        {
          "name": "json",
          "type": "string"
        }
      ],
      "payable": false,
      "stateMutability": "view",
      "type": "function"
    },
    {
      "constant": true,
      "inputs": [
        {
          "name": "locale",
          "type": "string"
        }
      ],
      "name": "inputs",
      "outputs": [
        {
          "name": "json",
          "type": "string"
        }
      ],
      "payable": false,
      "stateMutability": "view",
      "type": "function"
    }
  ],
  "bytecode": "0x608060405234801561001057600080fd5b50604051604080610fea83398101604052805160209091015160008054600160a060020a031916331790558181818181806100737f01ffc9a7000000000000000000000000000000000000000000000000000000006401000000006101a7810204565b6002805433600160a060020a03199182161790915560008054909116600160a060020a0383161790556100ce7f6125ede5000000000000000000000000000000000000000000000000000000006401000000006101a7810204565b506101017f6e301925000000000000000000000000000000000000000000000000000000006401000000006101a7810204565b5060038054600160a060020a031916600160a060020a03831617905561014f7f04c8123d000000000000000000000000000000000000000000000000000000006401000000006101a7810204565b505060048054600160a060020a031916600160a060020a03831617905561019e7fa0d0304b000000000000000000000000000000000000000000000000000000006401000000006101a7810204565b50505050610216565b7fffffffff0000000000000000000000000000000000000000000000000000000080821614156101d657600080fd5b7fffffffff00000000000000000000000000000000000000000000000000000000166000908152600160208190526040909120805460ff19169091179055565b610dc5806102256000396000f3006080604052600436106101455763ffffffff60e060020a60003504166301bd3411811461014a57806301ffc9a7146102185780630276650b146102635780630f15f4c01461028a578063186601ca1461029f57806319fa8f50146102b45780631f2698ab146102fb5780634f9a82d61461031057806351b42b00146103345780635589530e14610349578063587775e81461036d57806364b630d8146103915780636ad1fe02146103a65780636f2ddd93146103d7578063715018a6146103ec57806382ab890a146104035780638ada6b0f1461041b5780638da5cb5b14610430578063908ba64814610445578063944ac32b1461049e5780639a9e3fd8146102fb578063a3a8fd2c146104b3578063bef4876b146102fb578063ce30824e1461050c578063e67c86461461036d578063f2fde38b14610521578063fbf964eb14610542575b600080fd5b34801561015657600080fd5b506040805160206004803580820135601f81018490048402850184019095528484526101a39436949293602493928401919081908401838280828437509497506105579650505050505050565b6040805160208082528351818301528351919283929083019185019080838360005b838110156101dd5781810151838201526020016101c5565b50505050905090810190601f16801561020a5780820380516001836020036101000a031916815260200191505b509250505060405180910390f35b34801561022457600080fd5b5061024f7bffffffffffffffffffffffffffffffffffffffffffffffffffffffff19600435166106c0565b604080519115158252519081900360200190f35b34801561026f57600080fd5b506102786106f4565b60408051918252519081900360200190f35b34801561029657600080fd5b5061024f6106fa565b3480156102ab57600080fd5b5061024f610719565b3480156102c057600080fd5b506102c961073a565b604080517bffffffffffffffffffffffffffffffffffffffffffffffffffffffff199092168252519081900360200190f35b34801561030757600080fd5b5061024f61075e565b34801561031c57600080fd5b5061024f600160a060020a0360043516602435610763565b34801561034057600080fd5b5061024f61081b565b34801561035557600080fd5b50610278600160a060020a03600435166024356108e0565b34801561037957600080fd5b5061024f600160a060020a03600435166024356108e0565b34801561039d57600080fd5b506102c96108e8565b3480156103b257600080fd5b506103bb61090c565b60408051600160a060020a039092168252519081900360200190f35b3480156103e357600080fd5b506103bb61091b565b3480156103f857600080fd5b5061040161092a565b005b34801561040f57600080fd5b50610401600435610996565b34801561042757600080fd5b506103bb610a47565b34801561043c57600080fd5b506103bb610a5f565b34801561045157600080fd5b506040805160206004803580820135601f81018490048402850184019095528484526101a3943694929360249392840191908190840183828082843750949750610a6e9650505050505050565b3480156104aa57600080fd5b506102c9610afb565b3480156104bf57600080fd5b506040805160206004803580820135601f81018490048402850184019095528484526101a3943694929360249392840191908190840183828082843750949750610b1f9650505050505050565b34801561051857600080fd5b506102c9610bac565b34801561052d57600080fd5b50610401600160a060020a0360043516610bd0565b34801561054e57600080fd5b506102c9610bf3565b604080517fbf3bed54000000000000000000000000000000000000000000000000000000008152306024820181905260048201928352835160448301528351606093735f5f496e646976696475616c43617053747261749363bf3bed549387939092918291606490910190602086019080838360005b838110156105e55781810151838201526020016105cd565b50505050905090810190601f1680156106125780820380516001836020036101000a031916815260200191505b509350505050600060405180830381600087803b15801561063257600080fd5b505af1158015610646573d6000803e3d6000fd5b505050506040513d6000823e601f3d908101601f19168201604052602081101561066f57600080fd5b81019080805164010000000081111561068757600080fd5b8201602081018481111561069a57600080fd5b81516401000000008111828201871017156106b457600080fd5b50909695505050505050565b7bffffffffffffffffffffffffffffffffffffffffffffffffffffffff191660009081526001602052604090205460ff1690565b60055481565b60008060055411151561070c57600080fd5b610714610c17565b905090565b60025474010000000000000000000000000000000000000000900460ff1681565b7f01ffc9a70000000000000000000000000000000000000000000000000000000081565b600090565b60048054604080517fcf7c2b31000000000000000000000000000000000000000000000000000000008152600160a060020a038681169482019490945290516000938493169163cf7c2b3191602480830192602092919082900301818787803b1580156107cf57600080fd5b505af11580156107e3573d6000803e3d6000fd5b505050506040513d60208110156107f957600080fd5b5051600554909150610811828563ffffffff610cb416565b1115949350505050565b60008054600160a060020a0316331461083357600080fd5b600360009054906101000a9004600160a060020a0316600160a060020a031663186601ca6040518163ffffffff1660e060020a028152600401602060405180830381600087803b15801561088657600080fd5b505af115801561089a573d6000803e3d6000fd5b505050506040513d60208110156108b057600080fd5b5051156108bc57600080fd5b506002805474ff000000000000000000000000000000000000000019169055600190565b600092915050565b7f6e3019250000000000000000000000000000000000000000000000000000000081565b600454600160a060020a031681565b600254600160a060020a031681565b600054600160a060020a0316331461094157600080fd5b60008054604051600160a060020a03909116917ff8df31144d9c2f0f6b59d69b8b98abd5459d07f2742c4df920b25aae33c6482091a26000805473ffffffffffffffffffffffffffffffffffffffff19169055565b600054600160a060020a031633146109ad57600080fd5b600360009054906101000a9004600160a060020a0316600160a060020a031663186601ca6040518163ffffffff1660e060020a028152600401602060405180830381600087803b158015610a0057600080fd5b505af1158015610a14573d6000803e3d6000fd5b505050506040513d6020811015610a2a57600080fd5b505115610a3657600080fd5b6005819055610a436106fa565b5050565b735f5f496e646976696475616c436170537472617481565b600054600160a060020a031681565b604080517fe77cee3d000000000000000000000000000000000000000000000000000000008152306024820181905260048201928352835160448301528351606093735f5f496e646976696475616c43617053747261749363e77cee3d938793909291829160649091019060208601908083836000838110156105e55781810151838201526020016105cd565b7fa0d0304b0000000000000000000000000000000000000000000000000000000081565b604080517fe9499555000000000000000000000000000000000000000000000000000000008152306024820181905260048201928352835160448301528351606093735f5f496e646976696475616c43617053747261749363e9499555938793909291829160649091019060208601908083836000838110156105e55781810151838201526020016105cd565b7f04c8123d0000000000000000000000000000000000000000000000000000000081565b600054600160a060020a03163314610be757600080fd5b610bf081610cc7565b50565b7f6125ede50000000000000000000000000000000000000000000000000000000081565b600354604080517f186601ca0000000000000000000000000000000000000000000000000000000081529051600092600160a060020a03169163186601ca91600480830192602092919082900301818787803b158015610c7657600080fd5b505af1158015610c8a573d6000803e3d6000fd5b505050506040513d6020811015610ca057600080fd5b505115610cac57600080fd5b610714610d44565b81810182811015610cc157fe5b92915050565b600160a060020a0381161515610cdc57600080fd5b60008054604051600160a060020a03808516939216917f8be0079c531659141344cd1fd0a4f28419497f9722a3daafe3b4186f6b6457e091a36000805473ffffffffffffffffffffffffffffffffffffffff1916600160a060020a0392909216919091179055565b60008054600160a060020a03163314610d5c57600080fd5b6107146002805474ff00000000000000000000000000000000000000001916740100000000000000000000000000000000000000001790556001905600a165627a7a72305820c322c14c717f1a06d0f1c63005fefcba1b8792c129b4ab535e025104d6e917550029",
  "source": "pragma solidity ^0.4.24;\n\nimport \"tokenboost-solidity/contracts/strategy/sale/erc20/ERC20SaleStrategy.sol\";\nimport \"tokenboost-solidity/contracts/widget/Renderable.sol\";\nimport \"./widget/IndividualCapStrategyRenderer.sol\";\n\ncontract IndividualCapStrategy is ERC20SaleStrategy, Renderable {\n    using SafeMath for uint;\n\n    IndividualCapStrategyRenderer public constant renderer = IndividualCapStrategyRenderer(address(bytes20(\"__IndividualCapStrat\")));\n\n    uint256 public individualCap;\n\n    constructor(address _owner, ERC20Sale _sale) public ERC20SaleStrategy(_owner, _sale) {\n    }\n\n    function update(uint256 _individualCap) public onlyOwner whenSaleNotActivated {\n        individualCap = _individualCap;\n        activate();\n    }\n\n    function activate() public returns (bool) {\n        require(individualCap > 0);\n        return super.activate();\n    }\n\n    function started() public view returns (bool) {\n        return false;\n    }\n\n    function successful() public view returns (bool) {\n        return false;\n    }\n\n    function finished() public view returns (bool) {\n        return false;\n    }\n\n    function purchasable(address _purchaser, uint256 _weiAmount) public view returns (bool) {\n        uint256 payment = sale.paymentOf(_purchaser);\n        return payment.add(_weiAmount) <= individualCap;\n    }\n\n    function tokenRate(address _purchaser, uint256 _weiAmount) public view returns (uint256) {\n        return 0;\n    }\n\n    function supplyTokens(address _purchaser, uint256 _tokenAmount) public returns (bool) {\n        return false;\n    }\n\n    function receivesTokens(address _purchaser, uint256 _tokenAmount) public returns (bool) {\n        return false;\n    }\n\n    function adminWidgets(string locale) public view returns (string json) {\n        return renderer.adminWidgets(locale, this);\n    }\n\n    function userWidgets(string locale) public view returns (string json) {\n        return renderer.userWidgets(locale, this);\n    }\n\n    function inputs(string locale) public view returns (string json) {\n        return renderer.inputs(locale, this);\n    }\n}\n",
  "sourcePath": "/Users/yoonjae/SolidityProjects/tokenboost-solidity-erc20sale-strategies/contracts/strategy/sale/erc20/individual-cap/IndividualCapStrategy.sol",
  "compiler": {
    "name": "solc",
    "version": "0.4.24+commit.e67f0147.Emscripten.clang"
  },
  "schemaVersion": "2.0.1",
  "updatedAt": "2018-10-07T03:23:37.715Z"
}