{
  "contractName": "ManualStartFinishStrategy",
  "abi": [
    {
      "constant": true,
      "inputs": [
        {
          "name": "_interfaceId",
          "type": "bytes4"
        }
      ],
      "name": "supportsInterface",
      "outputs": [
        {
          "name": "",
          "type": "bool"
        }
      ],
      "payable": false,
      "stateMutability": "view",
      "type": "function"
    },
    {
      "constant": false,
      "inputs": [],
      "name": "activate",
      "outputs": [
        {
          "name": "",
          "type": "bool"
        }
      ],
      "payable": false,
      "stateMutability": "nonpayable",
      "type": "function"
    },
    {
      "constant": true,
      "inputs": [],
      "name": "activated",
      "outputs": [
        {
          "name": "",
          "type": "bool"
        }
      ],
      "payable": false,
      "stateMutability": "view",
      "type": "function"
    },
    {
      "constant": true,
      "inputs": [],
      "name": "InterfaceId_ERC165",
      "outputs": [
        {
          "name": "",
          "type": "bytes4"
        }
      ],
      "payable": false,
      "stateMutability": "view",
      "type": "function"
    },
    {
      "constant": true,
      "inputs": [],
      "name": "finishedAt",
      "outputs": [
        {
          "name": "",
          "type": "uint256"
        }
      ],
      "payable": false,
      "stateMutability": "view",
      "type": "function"
    },
    {
      "constant": false,
      "inputs": [],
      "name": "deactivate",
      "outputs": [
        {
          "name": "",
          "type": "bool"
        }
      ],
      "payable": false,
      "stateMutability": "nonpayable",
      "type": "function"
    },
    {
      "constant": true,
      "inputs": [],
      "name": "InterfaceId_Strategy",
      "outputs": [
        {
          "name": "",
          "type": "bytes4"
        }
      ],
      "payable": false,
      "stateMutability": "view",
      "type": "function"
    },
    {
      "constant": true,
      "inputs": [],
      "name": "sale",
      "outputs": [
        {
          "name": "",
          "type": "address"
        }
      ],
      "payable": false,
      "stateMutability": "view",
      "type": "function"
    },
    {
      "constant": true,
      "inputs": [],
      "name": "template",
      "outputs": [
        {
          "name": "",
          "type": "address"
        }
      ],
      "payable": false,
      "stateMutability": "view",
      "type": "function"
    },
    {
      "constant": false,
      "inputs": [],
      "name": "renounceOwnership",
      "outputs": [],
      "payable": false,
      "stateMutability": "nonpayable",
      "type": "function"
    },
    {
      "constant": true,
      "inputs": [],
      "name": "renderer",
      "outputs": [
        {
          "name": "",
          "type": "address"
        }
      ],
      "payable": false,
      "stateMutability": "view",
      "type": "function"
    },
    {
      "constant": true,
      "inputs": [],
      "name": "owner",
      "outputs": [
        {
          "name": "",
          "type": "address"
        }
      ],
      "payable": false,
      "stateMutability": "view",
      "type": "function"
    },
    {
      "constant": true,
      "inputs": [],
      "name": "InterfaceId_ERC20SaleStrategy",
      "outputs": [
        {
          "name": "",
          "type": "bytes4"
        }
      ],
      "payable": false,
      "stateMutability": "view",
      "type": "function"
    },
    {
      "constant": true,
      "inputs": [],
      "name": "InterfaceId_SaleStrategy",
      "outputs": [
        {
          "name": "",
          "type": "bytes4"
        }
      ],
      "payable": false,
      "stateMutability": "view",
      "type": "function"
    },
    {
      "constant": true,
      "inputs": [],
      "name": "startedAt",
      "outputs": [
        {
          "name": "",
          "type": "uint256"
        }
      ],
      "payable": false,
      "stateMutability": "view",
      "type": "function"
    },
    {
      "constant": false,
      "inputs": [
        {
          "name": "_newOwner",
          "type": "address"
        }
      ],
      "name": "transferOwnership",
      "outputs": [],
      "payable": false,
      "stateMutability": "nonpayable",
      "type": "function"
    },
    {
      "constant": true,
      "inputs": [],
      "name": "InterfaceId_Contract",
      "outputs": [
        {
          "name": "",
          "type": "bytes4"
        }
      ],
      "payable": false,
      "stateMutability": "view",
      "type": "function"
    },
    {
      "inputs": [
        {
          "name": "_owner",
          "type": "address"
        },
        {
          "name": "_sale",
          "type": "address"
        }
      ],
      "payable": false,
      "stateMutability": "nonpayable",
      "type": "constructor"
    },
    {
      "anonymous": false,
      "inputs": [
        {
          "indexed": true,
          "name": "previousOwner",
          "type": "address"
        }
      ],
      "name": "OwnershipRenounced",
      "type": "event"
    },
    {
      "anonymous": false,
      "inputs": [
        {
          "indexed": true,
          "name": "previousOwner",
          "type": "address"
        },
        {
          "indexed": true,
          "name": "newOwner",
          "type": "address"
        }
      ],
      "name": "OwnershipTransferred",
      "type": "event"
    },
    {
      "constant": false,
      "inputs": [],
      "name": "start",
      "outputs": [],
      "payable": false,
      "stateMutability": "nonpayable",
      "type": "function"
    },
    {
      "constant": false,
      "inputs": [],
      "name": "finish",
      "outputs": [],
      "payable": false,
      "stateMutability": "nonpayable",
      "type": "function"
    },
    {
      "constant": true,
      "inputs": [],
      "name": "started",
      "outputs": [
        {
          "name": "",
          "type": "bool"
        }
      ],
      "payable": false,
      "stateMutability": "view",
      "type": "function"
    },
    {
      "constant": true,
      "inputs": [],
      "name": "successful",
      "outputs": [
        {
          "name": "",
          "type": "bool"
        }
      ],
      "payable": false,
      "stateMutability": "view",
      "type": "function"
    },
    {
      "constant": true,
      "inputs": [],
      "name": "finished",
      "outputs": [
        {
          "name": "",
          "type": "bool"
        }
      ],
      "payable": false,
      "stateMutability": "view",
      "type": "function"
    },
    {
      "constant": true,
      "inputs": [
        {
          "name": "_purchaser",
          "type": "address"
        },
        {
          "name": "_weiAmount",
          "type": "uint256"
        }
      ],
      "name": "purchasable",
      "outputs": [
        {
          "name": "",
          "type": "bool"
        }
      ],
      "payable": false,
      "stateMutability": "view",
      "type": "function"
    },
    {
      "constant": true,
      "inputs": [
        {
          "name": "_purchaser",
          "type": "address"
        },
        {
          "name": "_weiAmount",
          "type": "uint256"
        }
      ],
      "name": "tokenRate",
      "outputs": [
        {
          "name": "",
          "type": "uint256"
        }
      ],
      "payable": false,
      "stateMutability": "view",
      "type": "function"
    },
    {
      "constant": false,
      "inputs": [
        {
          "name": "_purchaser",
          "type": "address"
        },
        {
          "name": "_tokenAmount",
          "type": "uint256"
        }
      ],
      "name": "supplyTokens",
      "outputs": [
        {
          "name": "",
          "type": "bool"
        }
      ],
      "payable": false,
      "stateMutability": "nonpayable",
      "type": "function"
    },
    {
      "constant": false,
      "inputs": [
        {
          "name": "_purchaser",
          "type": "address"
        },
        {
          "name": "_tokenAmount",
          "type": "uint256"
        }
      ],
      "name": "receivesTokens",
      "outputs": [
        {
          "name": "",
          "type": "bool"
        }
      ],
      "payable": false,
      "stateMutability": "nonpayable",
      "type": "function"
    },
    {
      "constant": true,
      "inputs": [
        {
          "name": "locale",
          "type": "string"
        }
      ],
      "name": "adminWidgets",
      "outputs": [
        {
          "name": "json",
          "type": "string"
        }
      ],
      "payable": false,
      "stateMutability": "view",
      "type": "function"
    },
    {
      "constant": true,
      "inputs": [
        {
          "name": "locale",
          "type": "string"
        }
      ],
      "name": "userWidgets",
      "outputs": [
        {
          "name": "json",
          "type": "string"
        }
      ],
      "payable": false,
      "stateMutability": "view",
      "type": "function"
    },
    {
      "constant": true,
      "inputs": [
        {
          "name": "locale",
          "type": "string"
        }
      ],
      "name": "inputs",
      "outputs": [
        {
          "name": "json",
          "type": "string"
        }
      ],
      "payable": false,
      "stateMutability": "view",
      "type": "function"
    }
  ],
  "bytecode": "0x608060405234801561001057600080fd5b5060405160408061122583398101604052805160209091015160008054600160a060020a031916331790558181818181806100737f01ffc9a7000000000000000000000000000000000000000000000000000000006401000000006101e4810204565b600160a060020a038116151561008857600080fd5b6002805433600160a060020a03199182161790915560008054909116600160a060020a0383161790556100e37f6125ede5000000000000000000000000000000000000000000000000000000006401000000006101e4810204565b506101167f6e301925000000000000000000000000000000000000000000000000000000006401000000006101e4810204565b5060038054600160a060020a031916600160a060020a0383161790556101647f04c8123d000000000000000000000000000000000000000000000000000000006401000000006101e4810204565b505060048054600160a060020a031916600160a060020a0383161790556101b37fa0d0304b000000000000000000000000000000000000000000000000000000006401000000006101e4810204565b50506002805460a060020a60ff02191674010000000000000000000000000000000000000000179055506102539050565b7fffffffff00000000000000000000000000000000000000000000000000000000808216141561021357600080fd5b7fffffffff00000000000000000000000000000000000000000000000000000000166000908152600160208190526040909120805460ff19169091179055565b610fc3806102626000396000f30060806040526004361061015b5763ffffffff60e060020a60003504166301bd3411811461016057806301ffc9a71461022e5780630f15f4c014610279578063186601ca1461028e57806319fa8f50146102a35780631f2698ab146102ea57806347d54bff146102ff5780634f9a82d61461032657806351b42b001461034a5780635589530e1461035f578063587775e81461038357806364b630d8146103a75780636ad1fe02146103bc5780636f2ddd93146103ed578063715018a6146104025780638ada6b0f146104195780638da5cb5b1461042e578063908ba64814610443578063944ac32b1461049c5780639a9e3fd8146104b1578063a3a8fd2c146104c6578063be9a65551461051f578063bef4876b14610534578063ce30824e14610549578063d56b28891461055e578063e67c864614610383578063f21f537d14610573578063f2fde38b14610588578063fbf964eb146105a9575b600080fd5b34801561016c57600080fd5b506040805160206004803580820135601f81018490048402850184019095528484526101b99436949293602493928401919081908401838280828437509497506105be9650505050505050565b6040805160208082528351818301528351919283929083019185019080838360005b838110156101f35781810151838201526020016101db565b50505050905090810190601f1680156102205780820380516001836020036101000a031916815260200191505b509250505060405180910390f35b34801561023a57600080fd5b506102657bffffffffffffffffffffffffffffffffffffffffffffffffffffffff1960043516610727565b604080519115158252519081900360200190f35b34801561028557600080fd5b5061026561075b565b34801561029a57600080fd5b506102656107fd565b3480156102af57600080fd5b506102b861081e565b604080517bffffffffffffffffffffffffffffffffffffffffffffffffffffffff199092168252519081900360200190f35b3480156102f657600080fd5b50610265610842565b34801561030b57600080fd5b5061031461084b565b60408051918252519081900360200190f35b34801561033257600080fd5b50610265600160a060020a0360043516602435610851565b34801561035657600080fd5b50610265610859565b34801561036b57600080fd5b50610314600160a060020a036004351660243561091e565b34801561038f57600080fd5b50610265600160a060020a036004351660243561091e565b3480156103b357600080fd5b506102b8610926565b3480156103c857600080fd5b506103d161094a565b60408051600160a060020a039092168252519081900360200190f35b3480156103f957600080fd5b506103d1610959565b34801561040e57600080fd5b50610417610968565b005b34801561042557600080fd5b506103d16109d4565b34801561043a57600080fd5b506103d16109ec565b34801561044f57600080fd5b506040805160206004803580820135601f81018490048402850184019095528484526101b99436949293602493928401919081908401838280828437509497506109fb9650505050505050565b3480156104a857600080fd5b506102b8610a88565b3480156104bd57600080fd5b50610265610aac565b3480156104d257600080fd5b506040805160206004803580820135601f81018490048402850184019095528484526101b9943694929360249392840191908190840183828082843750949750610ab19650505050505050565b34801561052b57600080fd5b50610417610b3e565b34801561054057600080fd5b50610265610c78565b34801561055557600080fd5b506102b8610c81565b34801561056a57600080fd5b50610417610ca5565b34801561057f57600080fd5b50610314610e73565b34801561059457600080fd5b50610417600160a060020a0360043516610e79565b3480156105b557600080fd5b506102b8610e9c565b604080517fbf3bed54000000000000000000000000000000000000000000000000000000008152306024820181905260048201928352835160448301528351606093735f5f4d616e75616c537461727446696e697368539363bf3bed549387939092918291606490910190602086019080838360005b8381101561064c578181015183820152602001610634565b50505050905090810190601f1680156106795780820380516001836020036101000a031916815260200191505b509350505050600060405180830381600087803b15801561069957600080fd5b505af11580156106ad573d6000803e3d6000fd5b505050506040513d6000823e601f3d908101601f1916820160405260208110156106d657600080fd5b8101908080516401000000008111156106ee57600080fd5b8201602081018481111561070157600080fd5b815164010000000081118282018710171561071b57600080fd5b50909695505050505050565b7bffffffffffffffffffffffffffffffffffffffffffffffffffffffff191660009081526001602052604090205460ff1690565b600354604080517f186601ca0000000000000000000000000000000000000000000000000000000081529051600092600160a060020a03169163186601ca91600480830192602092919082900301818787803b1580156107ba57600080fd5b505af11580156107ce573d6000803e3d6000fd5b505050506040513d60208110156107e457600080fd5b5051156107f057600080fd5b6107f8610ec0565b905090565b60025474010000000000000000000000000000000000000000900460ff1681565b7f01ffc9a70000000000000000000000000000000000000000000000000000000081565b60055460001090565b60065481565b600192915050565b60008054600160a060020a0316331461087157600080fd5b600360009054906101000a9004600160a060020a0316600160a060020a031663186601ca6040518163ffffffff1660e060020a028152600401602060405180830381600087803b1580156108c457600080fd5b505af11580156108d8573d6000803e3d6000fd5b505050506040513d60208110156108ee57600080fd5b5051156108fa57600080fd5b506002805474ff000000000000000000000000000000000000000019169055600190565b600092915050565b7f6e3019250000000000000000000000000000000000000000000000000000000081565b600454600160a060020a031681565b600254600160a060020a031681565b600054600160a060020a0316331461097f57600080fd5b60008054604051600160a060020a03909116917ff8df31144d9c2f0f6b59d69b8b98abd5459d07f2742c4df920b25aae33c6482091a26000805473ffffffffffffffffffffffffffffffffffffffff19169055565b735f5f4d616e75616c537461727446696e6973685381565b600054600160a060020a031681565b604080517fe77cee3d000000000000000000000000000000000000000000000000000000008152306024820181905260048201928352835160448301528351606093735f5f4d616e75616c537461727446696e697368539363e77cee3d9387939092918291606490910190602086019080838360008381101561064c578181015183820152602001610634565b7fa0d0304b0000000000000000000000000000000000000000000000000000000081565b600090565b604080517fe9499555000000000000000000000000000000000000000000000000000000008152306024820181905260048201928352835160448301528351606093735f5f4d616e75616c537461727446696e697368539363e94995559387939092918291606490910190602086019080838360008381101561064c578181015183820152602001610634565b600054600160a060020a03163314610b5557600080fd5b600360009054906101000a9004600160a060020a0316600160a060020a031663186601ca6040518163ffffffff1660e060020a028152600401602060405180830381600087803b158015610ba857600080fd5b505af1158015610bbc573d6000803e3d6000fd5b505050506040513d6020811015610bd257600080fd5b50511515610bdf57600080fd5b60048054604080517f1f2698ab0000000000000000000000000000000000000000000000000000000081529051600160a060020a0390921692631f2698ab9282820192602092908290030181600087803b158015610c3c57600080fd5b505af1158015610c50573d6000803e3d6000fd5b505050506040513d6020811015610c6657600080fd5b505115610c7257600080fd5b42600555565b60065460001090565b7f04c8123d0000000000000000000000000000000000000000000000000000000081565b600054600160a060020a03163314610cbc57600080fd5b600360009054906101000a9004600160a060020a0316600160a060020a031663186601ca6040518163ffffffff1660e060020a028152600401602060405180830381600087803b158015610d0f57600080fd5b505af1158015610d23573d6000803e3d6000fd5b505050506040513d6020811015610d3957600080fd5b50511515610d4657600080fd5b60048054604080517fbef4876b0000000000000000000000000000000000000000000000000000000081529051600160a060020a039092169263bef4876b9282820192602092908290030181600087803b158015610da357600080fd5b505af1158015610db7573d6000803e3d6000fd5b505050506040513d6020811015610dcd57600080fd5b505115610dd957600080fd5b60048054604080517f1f2698ab0000000000000000000000000000000000000000000000000000000081529051600160a060020a0390921692631f2698ab9282820192602092908290030181600087803b158015610e3657600080fd5b505af1158015610e4a573d6000803e3d6000fd5b505050506040513d6020811015610e6057600080fd5b50511515610e6d57600080fd5b42600655565b60055481565b600054600160a060020a03163314610e9057600080fd5b610e9981610ee0565b50565b7f6125ede50000000000000000000000000000000000000000000000000000000081565b60008054600160a060020a03163314610ed857600080fd5b6107f8610f5d565b600160a060020a0381161515610ef557600080fd5b60008054604051600160a060020a03808516939216917f8be0079c531659141344cd1fd0a4f28419497f9722a3daafe3b4186f6b6457e091a36000805473ffffffffffffffffffffffffffffffffffffffff1916600160a060020a0392909216919091179055565b6002805474ff00000000000000000000000000000000000000001916740100000000000000000000000000000000000000001790556001905600a165627a7a72305820dfc631b80c9a23fd80f7d18c990a91669e1367e1f6d03875064a384665910dec0029",
  "source": "pragma solidity ^0.4.24;\n\nimport \"tokenboost-solidity/contracts/strategy/sale/erc20/ERC20SaleStrategy.sol\";\nimport \"tokenboost-solidity/contracts/widget/Renderable.sol\";\nimport \"./widget/ManualStartFinishStrategyRenderer.sol\";\n\ncontract ManualStartFinishStrategy is ERC20SaleStrategy, Renderable {\n    ManualStartFinishStrategyRenderer public constant renderer = ManualStartFinishStrategyRenderer(address(bytes20(\"__ManualStartFinishS\")));\n\n    uint public startedAt;\n    uint public finishedAt;\n\n    constructor(address _owner, ERC20Sale _sale) public ERC20SaleStrategy(_owner, _sale) {\n        activated = true;\n    }\n\n    function start() public onlyOwner whenSaleActivated {\n        require(!sale.started());\n        startedAt = now;\n    }\n\n    function finish() public onlyOwner whenSaleActivated {\n        require(!sale.finished());\n        require(sale.started());\n        finishedAt = now;\n    }\n\n    function started() public view returns (bool) {\n        return startedAt > 0;\n    }\n\n    function successful() public view returns (bool) {\n        return false;\n    }\n\n    function finished() public view returns (bool) {\n        return finishedAt > 0;\n    }\n\n    function purchasable(address _purchaser, uint256 _weiAmount) public view returns (bool) {\n        return true;\n    }\n\n    function tokenRate(address _purchaser, uint256 _weiAmount) public view returns (uint256) {\n        return 0;\n    }\n\n    function supplyTokens(address _purchaser, uint256 _tokenAmount) public returns (bool) {\n        return false;\n    }\n\n    function receivesTokens(address _purchaser, uint256 _tokenAmount) public returns (bool) {\n        return false;\n    }\n\n    function adminWidgets(string locale) public view returns (string json) {\n        return renderer.adminWidgets(locale, this);\n    }\n\n    function userWidgets(string locale) public view returns (string json) {\n        return renderer.userWidgets(locale, this);\n    }\n\n    function inputs(string locale) public view returns (string json) {\n        return renderer.inputs(locale, this);\n    }\n}\n",
  "sourcePath": "/Users/yoonjae/SolidityProjects/tokenboost-solidity-erc20sale-strategies/contracts/strategy/sale/erc20/manual-start-finish/ManualStartFinishStrategy.sol",
  "compiler": {
    "name": "solc",
    "version": "0.4.24+commit.e67f0147.Emscripten.clang"
  },
  "schemaVersion": "2.0.1",
  "updatedAt": "2018-10-19T08:14:14.503Z"
}