{
  "contractName": "ManualStartFinishStrategyRenderer",
  "abi": [
    {
      "constant": true,
      "inputs": [],
      "name": "STARTED_AT",
      "outputs": [
        {
          "name": "",
          "type": "string"
        }
      ],
      "payable": false,
      "stateMutability": "view",
      "type": "function"
    },
    {
      "constant": true,
      "inputs": [],
      "name": "STARTED_AT_LONG_DESC",
      "outputs": [
        {
          "name": "",
          "type": "string"
        }
      ],
      "payable": false,
      "stateMutability": "view",
      "type": "function"
    },
    {
      "constant": true,
      "inputs": [],
      "name": "START_CONFIRM",
      "outputs": [
        {
          "name": "",
          "type": "string"
        }
      ],
      "payable": false,
      "stateMutability": "view",
      "type": "function"
    },
    {
      "constant": true,
      "inputs": [],
      "name": "START_LONG_DESC",
      "outputs": [
        {
          "name": "",
          "type": "string"
        }
      ],
      "payable": false,
      "stateMutability": "view",
      "type": "function"
    },
    {
      "constant": true,
      "inputs": [],
      "name": "FINISH_SHORT_DESC",
      "outputs": [
        {
          "name": "",
          "type": "string"
        }
      ],
      "payable": false,
      "stateMutability": "view",
      "type": "function"
    },
    {
      "constant": true,
      "inputs": [],
      "name": "FINISH_LONG_DESC",
      "outputs": [
        {
          "name": "",
          "type": "string"
        }
      ],
      "payable": false,
      "stateMutability": "view",
      "type": "function"
    },
    {
      "constant": true,
      "inputs": [],
      "name": "STARTED_AT_SHORT_DESC",
      "outputs": [
        {
          "name": "",
          "type": "string"
        }
      ],
      "payable": false,
      "stateMutability": "view",
      "type": "function"
    },
    {
      "constant": true,
      "inputs": [],
      "name": "START_SHORT_DESC",
      "outputs": [
        {
          "name": "",
          "type": "string"
        }
      ],
      "payable": false,
      "stateMutability": "view",
      "type": "function"
    },
    {
      "constant": false,
      "inputs": [],
      "name": "renounceOwnership",
      "outputs": [],
      "payable": false,
      "stateMutability": "nonpayable",
      "type": "function"
    },
    {
      "constant": true,
      "inputs": [],
      "name": "FINISH",
      "outputs": [
        {
          "name": "",
          "type": "string"
        }
      ],
      "payable": false,
      "stateMutability": "view",
      "type": "function"
    },
    {
      "constant": true,
      "inputs": [],
      "name": "owner",
      "outputs": [
        {
          "name": "",
          "type": "address"
        }
      ],
      "payable": false,
      "stateMutability": "view",
      "type": "function"
    },
    {
      "constant": true,
      "inputs": [],
      "name": "FINISHED_AT_SHORT_DESC",
      "outputs": [
        {
          "name": "",
          "type": "string"
        }
      ],
      "payable": false,
      "stateMutability": "view",
      "type": "function"
    },
    {
      "constant": true,
      "inputs": [],
      "name": "FINISH_CONFIRM",
      "outputs": [
        {
          "name": "",
          "type": "string"
        }
      ],
      "payable": false,
      "stateMutability": "view",
      "type": "function"
    },
    {
      "constant": true,
      "inputs": [],
      "name": "FINISHED_AT_LONG_DESC",
      "outputs": [
        {
          "name": "",
          "type": "string"
        }
      ],
      "payable": false,
      "stateMutability": "view",
      "type": "function"
    },
    {
      "constant": true,
      "inputs": [],
      "name": "START",
      "outputs": [
        {
          "name": "",
          "type": "string"
        }
      ],
      "payable": false,
      "stateMutability": "view",
      "type": "function"
    },
    {
      "constant": true,
      "inputs": [],
      "name": "FINISHED_AT",
      "outputs": [
        {
          "name": "",
          "type": "string"
        }
      ],
      "payable": false,
      "stateMutability": "view",
      "type": "function"
    },
    {
      "constant": false,
      "inputs": [
        {
          "name": "locale",
          "type": "string"
        },
        {
          "name": "key",
          "type": "string"
        },
        {
          "name": "value",
          "type": "string"
        }
      ],
      "name": "setResource",
      "outputs": [],
      "payable": false,
      "stateMutability": "nonpayable",
      "type": "function"
    },
    {
      "constant": false,
      "inputs": [
        {
          "name": "_newOwner",
          "type": "address"
        }
      ],
      "name": "transferOwnership",
      "outputs": [],
      "payable": false,
      "stateMutability": "nonpayable",
      "type": "function"
    },
    {
      "constant": true,
      "inputs": [
        {
          "name": "locale",
          "type": "string"
        },
        {
          "name": "key",
          "type": "string"
        }
      ],
      "name": "resource",
      "outputs": [
        {
          "name": "",
          "type": "string"
        }
      ],
      "payable": false,
      "stateMutability": "view",
      "type": "function"
    },
    {
      "anonymous": false,
      "inputs": [
        {
          "indexed": true,
          "name": "previousOwner",
          "type": "address"
        }
      ],
      "name": "OwnershipRenounced",
      "type": "event"
    },
    {
      "anonymous": false,
      "inputs": [
        {
          "indexed": true,
          "name": "previousOwner",
          "type": "address"
        },
        {
          "indexed": true,
          "name": "newOwner",
          "type": "address"
        }
      ],
      "name": "OwnershipTransferred",
      "type": "event"
    },
    {
      "constant": true,
      "inputs": [
        {
          "name": "_locale",
          "type": "string"
        },
        {
          "name": "_strategy",
          "type": "address"
        }
      ],
      "name": "adminWidgets",
      "outputs": [
        {
          "name": "",
          "type": "string"
        }
      ],
      "payable": false,
      "stateMutability": "view",
      "type": "function"
    },
    {
      "constant": true,
      "inputs": [
        {
          "name": "_locale",
          "type": "string"
        },
        {
          "name": "_strategy",
          "type": "address"
        }
      ],
      "name": "userWidgets",
      "outputs": [
        {
          "name": "json",
          "type": "string"
        }
      ],
      "payable": false,
      "stateMutability": "view",
      "type": "function"
    },
    {
      "constant": true,
      "inputs": [
        {
          "name": "_locale",
          "type": "string"
        },
        {
          "name": "_strategy",
          "type": "address"
        }
      ],
      "name": "inputs",
      "outputs": [
        {
          "name": "json",
          "type": "string"
        }
      ],
      "payable": false,
      "stateMutability": "view",
      "type": "function"
    }
  ],
  "bytecode": "0x608060405260008054600160a060020a03191633179055614272806100256000396000f30060806040526004361061010e5763ffffffff60e060020a6000350416630a9bb92f8114610113578063393934471461019d57806339f97cae146101b25780633b5a5b09146101c75780633c193d13146101dc578063403d4666146101f157806344e63b8e14610206578063656602b71461021b578063715018a61461023057806372d193e2146102475780638da5cb5b1461025c5780639220e0cb1461028d57806398f9ccf2146102a2578063aa5edc25146102b7578063ba9a061a146102cc578063bf3bed54146102e1578063daddf01614610345578063e77cee3d146102e1578063e94995551461035a578063ed3487fe146103be578063f2fde38b14610493578063f65a5c1b146104b4575b600080fd5b34801561011f57600080fd5b5061012861054b565b6040805160208082528351818301528351919283929083019185019080838360005b8381101561016257818101518382015260200161014a565b50505050905090810190601f16801561018f5780820380516001836020036101000a031916815260200191505b509250505060405180910390f35b3480156101a957600080fd5b50610128610582565b3480156101be57600080fd5b506101286105b9565b3480156101d357600080fd5b506101286105f0565b3480156101e857600080fd5b50610128610627565b3480156101fd57600080fd5b5061012861065e565b34801561021257600080fd5b50610128610695565b34801561022757600080fd5b506101286106cc565b34801561023c57600080fd5b50610245610703565b005b34801561025357600080fd5b5061012861076f565b34801561026857600080fd5b50610271610794565b60408051600160a060020a039092168252519081900360200190f35b34801561029957600080fd5b506101286107a3565b3480156102ae57600080fd5b506101286107da565b3480156102c357600080fd5b50610128610811565b3480156102d857600080fd5b50610128610848565b3480156102ed57600080fd5b506040805160206004803580820135601f810184900484028501840190955284845261012894369492936024939284019190819084018382808284375094975050509235600160a060020a0316935061086d92505050565b34801561035157600080fd5b506101286108a6565b34801561036657600080fd5b506040805160206004803580820135601f810184900484028501840190955284845261012894369492936024939284019190819084018382808284375094975050509235600160a060020a031693506108dd92505050565b3480156103ca57600080fd5b506040805160206004803580820135601f810184900484028501840190955284845261024594369492936024939284019190819084018382808284375050604080516020601f89358b018035918201839004830284018301909452808352979a99988101979196509182019450925082915084018382808284375050604080516020601f89358b018035918201839004830284018301909452808352979a999881019791965091820194509250829150840183828082843750949750610a529650505050505050565b34801561049f57600080fd5b50610245600160a060020a0360043516610b3f565b3480156104c057600080fd5b506040805160206004803580820135601f810184900484028501840190955284845261012894369492936024939284019190819084018382808284375050604080516020601f89358b018035918201839004830284018301909452808352979a999881019791965091820194509250829150840183828082843750949750610b629650505050505050565b60408051808201909152600a81527f737461727465645f617400000000000000000000000000000000000000000000602082015281565b60408051808201909152601481527f737461727465645f61745f6c6f6e675f64657363000000000000000000000000602082015281565b60408051808201909152600d81527f73746172745f636f6e6669726d00000000000000000000000000000000000000602082015281565b60408051808201909152600f81527f73746172745f6c6f6e675f646573630000000000000000000000000000000000602082015281565b60408051808201909152601181527f66696e6973685f73686f72745f64657363000000000000000000000000000000602082015281565b60408051808201909152601081527f66696e6973685f6c6f6e675f6465736300000000000000000000000000000000602082015281565b60408051808201909152601581527f737461727465645f61745f73686f72745f646573630000000000000000000000602082015281565b60408051808201909152601081527f73746172745f73686f72745f6465736300000000000000000000000000000000602082015281565b600054600160a060020a0316331461071a57600080fd5b60008054604051600160a060020a03909116917ff8df31144d9c2f0f6b59d69b8b98abd5459d07f2742c4df920b25aae33c6482091a26000805473ffffffffffffffffffffffffffffffffffffffff19169055565b6040805180820190915260068152600080516020614207833981519152602082015281565b600054600160a060020a031681565b60408051808201909152601681527f66696e69736865645f61745f73686f72745f6465736300000000000000000000602082015281565b60408051808201909152600e81527f66696e6973685f636f6e6669726d000000000000000000000000000000000000602082015281565b60408051808201909152601581527f66696e69736865645f61745f6c6f6e675f646573630000000000000000000000602082015281565b6040805180820190915260058152600080516020614227833981519152602082015281565b505060408051808201909152600281527f5b5d000000000000000000000000000000000000000000000000000000000000602082015290565b60408051808201909152600b81527f66696e69736865645f6174000000000000000000000000000000000000000000602082015281565b60608060006108ea614033565b600060606040805190810160405280600181526020017f5b000000000000000000000000000000000000000000000000000000000000008152509450600093506080604051908101604052806109408a8a610cb3565b815260200161094f8a8a6117b5565b815260200161095e8a8a611ecd565b815260200161096d8a8a6129ba565b90529250600091505b6004821015610a055782826004811061098b57fe5b602002015190506000815111156109fa5760008411156109e5576109e26109cd60408051908101604052806001815260200160fa60020a600b028152506130a1565b6109d6876130a1565b9063ffffffff6130ca16565b94505b6109f16109cd826130a1565b94506001909301925b600190910190610976565b610a466109cd6040805190810160405280600181526020017f5d000000000000000000000000000000000000000000000000000000000000008152506130a1565b98975050505050505050565b600054600160a060020a03163314610a6957600080fd5b806001846040518082805190602001908083835b60208310610a9c5780518252601f199092019160209182019101610a7d565b51815160209384036101000a6000190180199092169116179052920194855250604051938490038101842087519094889450925082918401908083835b60208310610af85780518252601f199092019160209182019101610ad9565b51815160209384036101000a60001901801990921691161790529201948552506040519384900381019093208451610b39959194919091019250905061405b565b50505050565b600054600160a060020a03163314610b5657600080fd5b610b5f81613141565b50565b60606001836040518082805190602001908083835b60208310610b965780518252601f199092019160209182019101610b77565b51815160209384036101000a6000190180199092169116179052920194855250604051938490038101842086519094879450925082918401908083835b60208310610bf25780518252601f199092019160209182019101610bd3565b518151600019602094850361010090810a820192831692199390931691909117909252949092019687526040805197889003820188208054601f6002600183161590980290950116959095049283018290048202880182019052818752929450925050830182828015610ca65780601f10610c7b57610100808354040283529160200191610ca6565b820191906000526020600020905b815481529060010190602001808311610c8957829003601f168201915b5050505050905092915050565b606080610cbe6140d9565b83600160a060020a0316636ad1fe026040518163ffffffff1660e060020a028152600401602060405180830381600087803b158015610cfc57600080fd5b505af1158015610d10573d6000803e3d6000fd5b505050506040513d6020811015610d2657600080fd5b50516040805160e160020a630c3300e50281529051600160a060020a039092169163186601ca916004808201926020929091908290030181600087803b158015610d6f57600080fd5b505af1158015610d83573d6000803e3d6000fd5b505050506040513d6020811015610d9957600080fd5b50518015610e97575083600160a060020a0316636ad1fe026040518163ffffffff1660e060020a028152600401602060405180830381600087803b158015610de057600080fd5b505af1158015610df4573d6000803e3d6000fd5b505050506040513d6020811015610e0a57600080fd5b5051604080517f1f2698ab0000000000000000000000000000000000000000000000000000000081529051600160a060020a0390921691631f2698ab916004808201926020929091908290030181600087803b158015610e6957600080fd5b505af1158015610e7d573d6000803e3d6000fd5b505050506040513d6020811015610e9357600080fd5b5051155b1561179b5760408051600180825281830190925290816020015b610eb9614109565b815260200190600190039081610eb157905050915060e06040519081016040528060011515815260200160408051908101604052806005815260200160008051602061422783398151915281525081526020016040805190810160405280600681526020017f627574746f6e000000000000000000000000000000000000000000000000000081525081526020016001876040518082805190602001908083835b60208310610f795780518252601f199092019160209182019101610f5a565b51815160209384036101000a60001901801990921691161790529201948552506040805194859003820185208582018252600580875260008051602061422783398151915293870193845291519095945092508291908083835b60208310610ff25780518252601f199092019160209182019101610fd3565b518151600019602094850361010090810a820192831692199390931691909117909252949092019687526040805197889003820188208054601f60026001831615909802909501169590950492830182900482028801820190528187529294509250508301828280156110a65780601f1061107b576101008083540402835291602001916110a6565b820191906000526020600020905b81548152906001019060200180831161108957829003601f168201915b5050505050815260200160408051908101604052806004815260200160e260020a631b9d5b1b02815250815260200160a06040519081016040528060011515815260200187600160a060020a031681526020016040805190810160405280600781526020017f737461727428290000000000000000000000000000000000000000000000000081525081526020016040805190810160405280600281526020017f5b5d00000000000000000000000000000000000000000000000000000000000081525081526020016001896040518082805190602001908083835b602083106111a15780518252601f199092019160209182019101611182565b51815160209384036101000a60001901801990921691161790529201948552506040805194859003820185208582018252600d8087527f73746172745f636f6e6669726d0000000000000000000000000000000000000093870193845291519095945092508291908083835b6020831061122c5780518252601f19909201916020918201910161120d565b518151600019602094850361010090810a820192831692199390931691909117909252949092019687526040805197889003820188208054601f60026001831615909802909501169590950492830182900482028801820190528187529294509250508301828280156112e05780601f106112b5576101008083540402835291602001916112e0565b820191906000526020600020905b8154815290600101906020018083116112c357829003601f168201915b505050505081525081526020016112f56131be565b905282518390600090811061130657fe5b9060200190602002018190525060a0604051908101604052806001876040518082805190602001908083835b602083106113515780518252601f199092019160209182019101611332565b51815160209384036101000a60001901801990921691161790529201948552506040805194859003820185208582018252600580875260008051602061422783398151915293870193845291519095945092508291908083835b602083106113ca5780518252601f1990920191602091820191016113ab565b518151600019602094850361010090810a820192831692199390931691909117909252949092019687526040805197889003820188208054601f600260018316159098029095011695909504928301829004820288018201905281875292945092505083018282801561147e5780601f106114535761010080835404028352916020019161147e565b820191906000526020600020905b81548152906001019060200180831161146157829003601f168201915b505050505081526020016001876040518082805190602001908083835b602083106114ba5780518252601f19909201916020918201910161149b565b51815160209384036101000a6000190180199092169116179052920194855250604080519485900382018520858201825260108087527f73746172745f73686f72745f646573630000000000000000000000000000000093870193845291519095945092508291908083835b602083106115455780518252601f199092019160209182019101611526565b518151600019602094850361010090810a820192831692199390931691909117909252949092019687526040805197889003820188208054601f60026001831615909802909501169590950492830182900482028801820190528187529294509250508301828280156115f95780601f106115ce576101008083540402835291602001916115f9565b820191906000526020600020905b8154815290600101906020018083116115dc57829003601f168201915b505050505081526020016001876040518082805190602001908083835b602083106116355780518252601f199092019160209182019101611616565b51815160209384036101000a60001901801990921691161790529201948552506040805194859003820185208582018252600f8087527f73746172745f6c6f6e675f64657363000000000000000000000000000000000093870193845291519095945092508291908083835b602083106116c05780518252601f1990920191602091820191016116a1565b518151600019602094850361010090810a820192831692199390931691909117909252949092019687526040805197889003820188208054601f60026001831615909802909501169590950492830182900482028801820190528187529294509250508301828280156117745780601f1061174957610100808354040283529160200191611774565b820191906000526020600020905b81548152906001019060200180831161175757829003601f168201915b50505050508152602001600481526020018381525090506117948161324c565b92506117ad565b60408051602081019091526000815292505b505092915050565b6060806117c06140d9565b83600160a060020a0316636ad1fe026040518163ffffffff1660e060020a028152600401602060405180830381600087803b1580156117fe57600080fd5b505af1158015611812573d6000803e3d6000fd5b505050506040513d602081101561182857600080fd5b50516040805160e160020a630c3300e50281529051600160a060020a039092169163186601ca916004808201926020929091908290030181600087803b15801561187157600080fd5b505af1158015611885573d6000803e3d6000fd5b505050506040513d602081101561189b57600080fd5b50518015611998575083600160a060020a0316636ad1fe026040518163ffffffff1660e060020a028152600401602060405180830381600087803b1580156118e257600080fd5b505af11580156118f6573d6000803e3d6000fd5b505050506040513d602081101561190c57600080fd5b5051604080517f1f2698ab0000000000000000000000000000000000000000000000000000000081529051600160a060020a0390921691631f2698ab916004808201926020929091908290030181600087803b15801561196b57600080fd5b505af115801561197f573d6000803e3d6000fd5b505050506040513d602081101561199557600080fd5b50515b1561179b5760408051600180825281830190925290816020015b6119ba614109565b8152602001906001900390816119b257905050915060e0604051908101604052806001151581526020016040805190810160405280600a81526020017f737461727465645f61740000000000000000000000000000000000000000000081525081526020016040805190810160405280600981526020017f74696d657374616d700000000000000000000000000000000000000000000000815250815260200160408051908101604052806004815260200160e260020a631b9d5b1b028152508152602001611af186600160a060020a031663f21f537d6040518163ffffffff1660e060020a028152600401602060405180830381600087803b158015611ac057600080fd5b505af1158015611ad4573d6000803e3d6000fd5b505050506040513d6020811015611aea57600080fd5b50516134ae565b8152602001611afe61360d565b8152602001611b0b6131be565b9052825183906000908110611b1c57fe5b9060200190602002018190525060a0604051908101604052806001876040518082805190602001908083835b60208310611b675780518252601f199092019160209182019101611b48565b51815160209384036101000a60001901801990921691161790529201948552506040805194859003820185208582018252600a8087527f737461727465645f61740000000000000000000000000000000000000000000093870193845291519095945092508291908083835b60208310611bf25780518252601f199092019160209182019101611bd3565b518151600019602094850361010090810a820192831692199390931691909117909252949092019687526040805197889003820188208054601f6002600183161590980290950116959095049283018290048202880182019052818752929450925050830182828015611ca65780601f10611c7b57610100808354040283529160200191611ca6565b820191906000526020600020905b815481529060010190602001808311611c8957829003601f168201915b505050505081526020016001876040518082805190602001908083835b60208310611ce25780518252601f199092019160209182019101611cc3565b51815160209384036101000a6000190180199092169116179052920194855250604080519485900382018520858201825260158087527f737461727465645f61745f73686f72745f64657363000000000000000000000093870193845291519095945092508291908083835b60208310611d6d5780518252601f199092019160209182019101611d4e565b518151600019602094850361010090810a820192831692199390931691909117909252949092019687526040805197889003820188208054601f6002600183161590980290950116959095049283018290048202880182019052818752929450925050830182828015611e215780601f10611df657610100808354040283529160200191611e21565b820191906000526020600020905b815481529060010190602001808311611e0457829003601f168201915b505050505081526020016001876040518082805190602001908083835b60208310611e5d5780518252601f199092019160209182019101611e3e565b51815160209384036101000a6000190180199092169116179052920194855250604080519485900382018520858201825260148087527f737461727465645f61745f6c6f6e675f6465736300000000000000000000000093870193845291519095945092508291908083836116c0565b606080611ed86140d9565b83600160a060020a0316636ad1fe026040518163ffffffff1660e060020a028152600401602060405180830381600087803b158015611f1657600080fd5b505af1158015611f2a573d6000803e3d6000fd5b505050506040513d6020811015611f4057600080fd5b50516040805160e160020a630c3300e50281529051600160a060020a039092169163186601ca916004808201926020929091908290030181600087803b158015611f8957600080fd5b505af1158015611f9d573d6000803e3d6000fd5b505050506040513d6020811015611fb357600080fd5b505180156120b0575083600160a060020a0316636ad1fe026040518163ffffffff1660e060020a028152600401602060405180830381600087803b158015611ffa57600080fd5b505af115801561200e573d6000803e3d6000fd5b505050506040513d602081101561202457600080fd5b5051604080517f1f2698ab0000000000000000000000000000000000000000000000000000000081529051600160a060020a0390921691631f2698ab916004808201926020929091908290030181600087803b15801561208357600080fd5b505af1158015612097573d6000803e3d6000fd5b505050506040513d60208110156120ad57600080fd5b50515b80156121ac575083600160a060020a0316636ad1fe026040518163ffffffff1660e060020a028152600401602060405180830381600087803b1580156120f557600080fd5b505af1158015612109573d6000803e3d6000fd5b505050506040513d602081101561211f57600080fd5b5051604080517fbef4876b0000000000000000000000000000000000000000000000000000000081529051600160a060020a039092169163bef4876b916004808201926020929091908290030181600087803b15801561217e57600080fd5b505af1158015612192573d6000803e3d6000fd5b505050506040513d60208110156121a857600080fd5b5051155b1561179b5760408051600180825281830190925290816020015b6121ce614109565b8152602001906001900390816121c657905050915060e06040519081016040528060011515815260200160408051908101604052806006815260200160008051602061420783398151915281525081526020016040805190810160405280600681526020017f627574746f6e000000000000000000000000000000000000000000000000000081525081526020016001876040518082805190602001908083835b6020831061228e5780518252601f19909201916020918201910161226f565b51815160209384036101000a60001901801990921691161790529201948552506040805194859003820185208582018252600680875260008051602061420783398151915293870193845291519095945092508291908083835b602083106123075780518252601f1990920191602091820191016122e8565b518151600019602094850361010090810a820192831692199390931691909117909252949092019687526040805197889003820188208054601f60026001831615909802909501169590950492830182900482028801820190528187529294509250508301828280156123bb5780601f10612390576101008083540402835291602001916123bb565b820191906000526020600020905b81548152906001019060200180831161239e57829003601f168201915b5050505050815260200160408051908101604052806004815260200160e260020a631b9d5b1b02815250815260200160a06040519081016040528060011515815260200187600160a060020a031681526020016040805190810160405280600881526020017f66696e697368282900000000000000000000000000000000000000000000000081525081526020016040805190810160405280600281526020017f5b5d00000000000000000000000000000000000000000000000000000000000081525081526020016001896040518082805190602001908083835b602083106124b65780518252601f199092019160209182019101612497565b51815160209384036101000a60001901801990921691161790529201948552506040805194859003820185208582018252600e8087527f66696e6973685f636f6e6669726d00000000000000000000000000000000000093870193845291519095945092508291908083835b602083106125415780518252601f199092019160209182019101612522565b518151600019602094850361010090810a820192831692199390931691909117909252949092019687526040805197889003820188208054601f60026001831615909802909501169590950492830182900482028801820190528187529294509250508301828280156125f55780601f106125ca576101008083540402835291602001916125f5565b820191906000526020600020905b8154815290600101906020018083116125d857829003601f168201915b5050505050815250815260200161260a6131be565b905282518390600090811061261b57fe5b9060200190602002018190525060a0604051908101604052806001876040518082805190602001908083835b602083106126665780518252601f199092019160209182019101612647565b51815160209384036101000a60001901801990921691161790529201948552506040805194859003820185208582018252600680875260008051602061420783398151915293870193845291519095945092508291908083835b602083106126df5780518252601f1990920191602091820191016126c0565b518151600019602094850361010090810a820192831692199390931691909117909252949092019687526040805197889003820188208054601f60026001831615909802909501169590950492830182900482028801820190528187529294509250508301828280156127935780601f1061276857610100808354040283529160200191612793565b820191906000526020600020905b81548152906001019060200180831161277657829003601f168201915b505050505081526020016001876040518082805190602001908083835b602083106127cf5780518252601f1990920191602091820191016127b0565b51815160209384036101000a6000190180199092169116179052920194855250604080519485900382018520858201825260118087527f66696e6973685f73686f72745f6465736300000000000000000000000000000093870193845291519095945092508291908083835b6020831061285a5780518252601f19909201916020918201910161283b565b518151600019602094850361010090810a820192831692199390931691909117909252949092019687526040805197889003820188208054601f600260018316159098029095011695909504928301829004820288018201905281875292945092505083018282801561290e5780601f106128e35761010080835404028352916020019161290e565b820191906000526020600020905b8154815290600101906020018083116128f157829003601f168201915b505050505081526020016001876040518082805190602001908083835b6020831061294a5780518252601f19909201916020918201910161292b565b51815160209384036101000a6000190180199092169116179052920194855250604080519485900382018520858201825260108087527f66696e6973685f6c6f6e675f646573630000000000000000000000000000000093870193845291519095945092508291908083836116c0565b6060806129c56140d9565b83600160a060020a0316636ad1fe026040518163ffffffff1660e060020a028152600401602060405180830381600087803b158015612a0357600080fd5b505af1158015612a17573d6000803e3d6000fd5b505050506040513d6020811015612a2d57600080fd5b50516040805160e160020a630c3300e50281529051600160a060020a039092169163186601ca916004808201926020929091908290030181600087803b158015612a7657600080fd5b505af1158015612a8a573d6000803e3d6000fd5b505050506040513d6020811015612aa057600080fd5b50518015612b9d575083600160a060020a0316636ad1fe026040518163ffffffff1660e060020a028152600401602060405180830381600087803b158015612ae757600080fd5b505af1158015612afb573d6000803e3d6000fd5b505050506040513d6020811015612b1157600080fd5b5051604080517fbef4876b0000000000000000000000000000000000000000000000000000000081529051600160a060020a039092169163bef4876b916004808201926020929091908290030181600087803b158015612b7057600080fd5b505af1158015612b84573d6000803e3d6000fd5b505050506040513d6020811015612b9a57600080fd5b50515b1561179b5760408051600180825281830190925290816020015b612bbf614109565b815260200190600190039081612bb757905050915060e0604051908101604052806001151581526020016040805190810160405280600b81526020017f66696e69736865645f617400000000000000000000000000000000000000000081525081526020016040805190810160405280600981526020017f74696d657374616d700000000000000000000000000000000000000000000000815250815260200160408051908101604052806004815260200160e260020a631b9d5b1b028152508152602001612cc586600160a060020a03166347d54bff6040518163ffffffff1660e060020a028152600401602060405180830381600087803b158015611ac057600080fd5b8152602001612cd261360d565b8152602001612cdf6131be565b9052825183906000908110612cf057fe5b9060200190602002018190525060a0604051908101604052806001876040518082805190602001908083835b60208310612d3b5780518252601f199092019160209182019101612d1c565b51815160209384036101000a60001901801990921691161790529201948552506040805194859003820185208582018252600b8087527f66696e69736865645f617400000000000000000000000000000000000000000093870193845291519095945092508291908083835b60208310612dc65780518252601f199092019160209182019101612da7565b518151600019602094850361010090810a820192831692199390931691909117909252949092019687526040805197889003820188208054601f6002600183161590980290950116959095049283018290048202880182019052818752929450925050830182828015612e7a5780601f10612e4f57610100808354040283529160200191612e7a565b820191906000526020600020905b815481529060010190602001808311612e5d57829003601f168201915b505050505081526020016001876040518082805190602001908083835b60208310612eb65780518252601f199092019160209182019101612e97565b51815160209384036101000a6000190180199092169116179052920194855250604080519485900382018520858201825260168087527f66696e69736865645f61745f73686f72745f646573630000000000000000000093870193845291519095945092508291908083835b60208310612f415780518252601f199092019160209182019101612f22565b518151600019602094850361010090810a820192831692199390931691909117909252949092019687526040805197889003820188208054601f6002600183161590980290950116959095049283018290048202880182019052818752929450925050830182828015612ff55780601f10612fca57610100808354040283529160200191612ff5565b820191906000526020600020905b815481529060010190602001808311612fd857829003601f168201915b505050505081526020016001876040518082805190602001908083835b602083106130315780518252601f199092019160209182019101613012565b51815160209384036101000a6000190180199092169116179052920194855250604080519485900382018520858201825260158087527f66696e69736865645f61745f6c6f6e675f64657363000000000000000000000093870193845291519095945092508291908083836116c0565b6130a9614155565b50604080518082019091528151815260208281019082018190525b50919050565b606080600083600001518560000151016040519080825280601f01601f191660200182016040528015613107578160200160208202803883390190505b509150602082019050613123818660200151876000015161365f565b845160208501518551613139928401919061365f565b509392505050565b600160a060020a038116151561315657600080fd5b60008054604051600160a060020a03808516939216917f8be0079c531659141344cd1fd0a4f28419497f9722a3daafe3b4186f6b6457e091a36000805473ffffffffffffffffffffffffffffffffffffffff1916600160a060020a0392909216919091179055565b6131c661416c565b60408051606081018252600080825282518181526020818101909452919283019190613208565b6131f5614190565b8152602001906001900390816131ed5790505b508152602001600060405190808252806020026020018201604052801561324357816020015b606081526020019060019003908161322e5790505b50905290505b90565b60408051808201909152600a81527f7b227469746c65223a2200000000000000000000000000000000000000000000602082015281516060919060009061329f90613296906130a1565b6109d6846130a1565b91506132e26132966040805190810160405280600f81526020017f222c2273686f727444657363223a2200000000000000000000000000000000008152506130a1565b91506132f461329685602001516130a1565b91506133376132966040805190810160405280600e81526020017f222c226c6f6e6744657363223a220000000000000000000000000000000000008152506130a1565b915061334961329685604001516130a1565b915061338c6132966040805190810160405280600a81526020017f222c227769647468223a000000000000000000000000000000000000000000008152506130a1565b91506133a66132966133a186606001516134ae565b6130a1565b91506133e96132966040805190810160405280600d81526020017f2c22656c656d656e7473223a5b000000000000000000000000000000000000008152506130a1565b9150600090505b8360800151518110156134655760008111156134315761342e61329660408051908101604052806001815260200160fa60020a600b028152506130a1565b91505b61345b6132966133a186608001518481518110151561344c57fe5b906020019060200201516136a3565b91506001016133f0565b6134a66132966040805190810160405280600281526020017f5d7d0000000000000000000000000000000000000000000000000000000000008152506130a1565b949350505050565b606080600081818515156134f75760408051808201909152600181527f300000000000000000000000000000000000000000000000000000000000000060208201529450613604565b6040805160208082528183019092529080820161040080388339019050509350600092505b600086111561356957600a860660300160f860020a02848481518110151561354057fe5b906020010190600160f860020a031916908160001a905350600a8604955060019092019161351c565b60408051848152601f19601f8601168101602001909152600019840193801561359c578160200160208202803883390190505b509150600090505b8151811015613600578351600019840193859181106135bf57fe5b90602001015160f860020a900460f860020a0282828151811015156135e057fe5b906020010190600160f860020a031916908160001a9053506001016135a4565b8194505b50505050919050565b6136156141bf565b506040805160a08101825260008082526020808301829052835180820185528281528385015283518082018552828152606084015283519081019093528252608081019190915290565b60005b60208210613684578251845260209384019390920191601f1990910190613662565b50905182516020929092036101000a6000190180199091169116179052565b606080826000015115613956576040805190810160405280600781526020017f7b226964223a220000000000000000000000000000000000000000000000000081525090506137016136f884602001516130a1565b6109d6836130a1565b90506137446136f86040805190810160405280600181526020017f22000000000000000000000000000000000000000000000000000000000000008152506130a1565b60a084015151909150156137ab576137936136f86040805190810160405280600b81526020017f2c2022616374696f6e223a0000000000000000000000000000000000000000008152506130a1565b90506137a86136f86133a18560a0015161397b565b90505b60c0830151511561380f576137f76136f86040805190810160405280600a81526020017f2c20227461626c65223a000000000000000000000000000000000000000000008152506130a1565b905061380c6136f86133a18560c00151613b1e565b90505b6138506136f86040805190810160405280600981526020017f2c2274797065223a2200000000000000000000000000000000000000000000008152506130a1565b90506138626136f884604001516130a1565b90506138a56136f86040805190810160405280600b81526020017f222c226c6162656c223a220000000000000000000000000000000000000000008152506130a1565b90506138b76136f884606001516130a1565b90506138fa6136f86040805190810160405280600981526020017f222c2264617461223a00000000000000000000000000000000000000000000008152506130a1565b905061390c6136f884608001516130a1565b905061394f6136f86040805190810160405280600181526020017f7d000000000000000000000000000000000000000000000000000000000000008152506130a1565b91506130c4565b604080518082019091526004815260e260020a631b9d5b1b02602082015291506130c4565b606080826000015115613956576040805190810160405280600c81526020017f7b2261646472657373223a22000000000000000000000000000000000000000081525090506139dc6136f86133a18560200151600160a060020a0316613d1f565b9050613a1f6136f86040805190810160405280601681526020017f222c2266756e6374696f6e53656c6563746f72223a22000000000000000000008152506130a1565b9050613a316136f884604001516130a1565b9050613a746136f86040805190810160405280600e81526020017f222c22617267756d656e7473223a0000000000000000000000000000000000008152506130a1565b9050613a866136f884606001516130a1565b9050613ac96136f86040805190810160405280600c81526020017f2c22636f6e6669726d223a2200000000000000000000000000000000000000008152506130a1565b9050613adb6136f884608001516130a1565b905061394f6136f86040805190810160405280600281526020017f227d0000000000000000000000000000000000000000000000000000000000008152506130a1565b606080600080846000015115613cf657505060408051808201909152600c81527f7b22636f6c756d6e73223a5b0000000000000000000000000000000000000000602082015290506000805b846020015151811015613bec576000821115613bb457613bb1613ba860408051908101604052806001815260200160fa60020a600b028152506130a1565b6109d6856130a1565b92505b613bde613ba86133a1876020015184815181101515613bcf57fe5b90602001906020020151613e62565b925060019182019101613b6a565b613c2d613ba86040805190810160405280600a81526020017f5d2c22726f7773223a5b000000000000000000000000000000000000000000008152506130a1565b925060009150600090505b846040015151811015613cae576000821115613c7957613c76613ba860408051908101604052806001815260200160fa60020a600b028152506130a1565b92505b613ca0613ba8866040015183815181101515613c9157fe5b906020019060200201516130a1565b925060019182019101613c38565b613cef613ba86040805190810160405280600281526020017f5d7d0000000000000000000000000000000000000000000000000000000000008152506130a1565b9350613d17565b604080518082019091526004815260e260020a631b9d5b1b02602082015293505b505050919050565b60408051602a80825260608083019093528291600091829182916020820161054080388339505081519195507f3000000000000000000000000000000000000000000000000000000000000000918691506000908110613d7b57fe5b906020010190600160f860020a031916908160001a90535083517f78000000000000000000000000000000000000000000000000000000000000009085906001908110613dc457fe5b906020010190600160f860020a031916908160001a905350859250600091505b6028821015613e5857506030600f8316016039600160a060020a0382161115613e0b576027015b8060f860020a028483602803600101815181101515613e2657fe5b906020010190600160f860020a031916908160001a9053506010600160a060020a038416049250600190910190613de4565b5091949350505050565b606080826000015115613956576040805190810160405280600781526020017f7b226964223a22000000000000000000000000000000000000000000000000008152509050613eb76136f884602001516130a1565b9050613efa6136f86040805190810160405280600181526020017f22000000000000000000000000000000000000000000000000000000000000008152506130a1565b60808401515190915015613f8b57613f306136f860408051908101604052806001815260200160fa60020a600b028152506130a1565b9050613f736136f86040805190810160405280600981526020017f22616374696f6e223a00000000000000000000000000000000000000000000008152506130a1565b9050613f886136f86133a1856080015161397b565b90505b613fcc6136f86040805190810160405280600981526020017f2c2274797065223a2200000000000000000000000000000000000000000000008152506130a1565b9050613fde6136f884604001516130a1565b90506140216136f86040805190810160405280600b81526020017f222c226c6162656c223a220000000000000000000000000000000000000000008152506130a1565b9050613adb6136f884606001516130a1565b6080604051908101604052806004905b60608152602001906001900390816140435790505090565b828054600181600116156101000203166002900490600052602060002090601f016020900481019282601f1061409c57805160ff19168380011785556140c9565b828001600101855582156140c9579182015b828111156140c95782518255916020019190600101906140ae565b506140d59291506141ec565b5090565b60a06040519081016040528060608152602001606081526020016060815260200160008152602001606081525090565b6101a060405190810160405280600015158152602001606081526020016060815260200160608152602001606081526020016141436141bf565b815260200161415061416c565b905290565b604080518082019091526000808252602082015290565b60606040519081016040528060001515815260200160608152602001606081525090565b610120604051908101604052806000151581526020016060815260200160608152602001606081526020016141505b6040805160a081018252600080825260208201526060918101829052818101829052608081019190915290565b61324991905b808211156140d557600081556001016141f2560066696e69736800000000000000000000000000000000000000000000000000007374617274000000000000000000000000000000000000000000000000000000a165627a7a72305820822607a6bc7adc60b14f0bfea69e06e3d3346e4e2a2cec5a325720744ce060340029",
  "source": "pragma solidity ^0.4.24;\n\nimport \"tokenboost-solidity/contracts/widget/Localizable.sol\";\nimport \"tokenboost-solidity/contracts/widget/Widgets.sol\";\nimport \"../ManualStartFinishStrategy.sol\";\n\ncontract ManualStartFinishStrategyRenderer is Localizable {\n    using Widgets for Widgets.Widget;\n    using strings for *;\n    using UintUtils for uint;\n\n    string public constant START = \"start\";\n    string public constant START_SHORT_DESC = \"start_short_desc\";\n    string public constant START_LONG_DESC = \"start_long_desc\";\n    string public constant START_CONFIRM = \"start_confirm\";\n    string public constant STARTED_AT = \"started_at\";\n    string public constant STARTED_AT_SHORT_DESC = \"started_at_short_desc\";\n    string public constant STARTED_AT_LONG_DESC = \"started_at_long_desc\";\n    string public constant FINISH = \"finish\";\n    string public constant FINISH_SHORT_DESC = \"finish_short_desc\";\n    string public constant FINISH_LONG_DESC = \"finish_long_desc\";\n    string public constant FINISH_CONFIRM = \"finish_confirm\";\n    string public constant FINISHED_AT = \"finished_at\";\n    string public constant FINISHED_AT_SHORT_DESC = \"finished_at_short_desc\";\n    string public constant FINISHED_AT_LONG_DESC = \"finished_at_long_desc\";\n\n    function adminWidgets(string _locale, ManualStartFinishStrategy _strategy) public view returns (string) {\n        string memory json = \"[\";\n        uint length = 0;\n        string[4] memory widgets = [\n        _startButtonWidget(_locale, _strategy),\n        _startedAtWidget(_locale, _strategy),\n        _finishButtonWidget(_locale, _strategy),\n        _finishedAtWidget(_locale, _strategy)\n        ];\n        for (uint i = 0; i < widgets.length; i++) {\n            string memory widget = widgets[i];\n            if (bytes(widget).length > 0) {\n                if (length > 0) {\n                    json = json.toSlice().concat(\",\".toSlice());\n                }\n                json = json.toSlice().concat(widget.toSlice());\n                length++;\n            }\n        }\n        return json.toSlice().concat(\"]\".toSlice());\n    }\n\n    function _startButtonWidget(string _locale, ManualStartFinishStrategy _strategy) private view returns (string json) {\n        if (_strategy.sale().activated() && !_strategy.sale().started()) {\n            Elements.Element[] memory elements = new Elements.Element[](1);\n            elements[0] = Elements.Element(\n                true,\n                START,\n                \"button\",\n                resources[_locale][START],\n                \"null\",\n                Actions.Action(\n                    true,\n                    address(_strategy),\n                    \"start()\",\n                    \"[]\",\n                    resources[_locale][START_CONFIRM]\n                ),\n                Tables.empty()\n            );\n            Widgets.Widget memory widget = Widgets.Widget(\n                resources[_locale][START],\n                resources[_locale][START_SHORT_DESC],\n                resources[_locale][START_LONG_DESC],\n                4,\n                elements\n            );\n            return widget.toJson();\n        } else {\n            return \"\";\n        }\n    }\n\n    function _startedAtWidget(string _locale, ManualStartFinishStrategy _strategy) private view returns (string json) {\n        if (_strategy.sale().activated() && _strategy.sale().started()) {\n            Elements.Element[] memory elements = new Elements.Element[](1);\n            elements[0] = Elements.Element(\n                true,\n                STARTED_AT,\n                \"timestamp\",\n                \"null\",\n                _strategy.startedAt().toString(),\n                Actions.empty(),\n                Tables.empty()\n            );\n            Widgets.Widget memory widget = Widgets.Widget(\n                resources[_locale][STARTED_AT],\n                resources[_locale][STARTED_AT_SHORT_DESC],\n                resources[_locale][STARTED_AT_LONG_DESC],\n                4,\n                elements\n            );\n            return widget.toJson();\n        } else {\n            return \"\";\n        }\n    }\n\n    function _finishButtonWidget(string _locale, ManualStartFinishStrategy _strategy) private view returns (string json) {\n        if (_strategy.sale().activated() && _strategy.sale().started() && !_strategy.sale().finished()) {\n            Elements.Element[] memory elements = new Elements.Element[](1);\n            elements[0] = Elements.Element(\n                true,\n                FINISH,\n                \"button\",\n                resources[_locale][FINISH],\n                \"null\",\n                Actions.Action(\n                    true,\n                    address(_strategy),\n                    \"finish()\",\n                    \"[]\",\n                    resources[_locale][FINISH_CONFIRM]\n                ),\n                Tables.empty()\n            );\n            Widgets.Widget memory widget = Widgets.Widget(\n                resources[_locale][FINISH],\n                resources[_locale][FINISH_SHORT_DESC],\n                resources[_locale][FINISH_LONG_DESC],\n                4,\n                elements\n            );\n            return widget.toJson();\n        } else {\n            return \"\";\n        }\n    }\n\n    function _finishedAtWidget(string _locale, ManualStartFinishStrategy _strategy) private view returns (string json) {\n        if (_strategy.sale().activated() && _strategy.sale().finished()) {\n            Elements.Element[] memory elements = new Elements.Element[](1);\n            elements[0] = Elements.Element(\n                true,\n                FINISHED_AT,\n                \"timestamp\",\n                \"null\",\n                _strategy.finishedAt().toString(),\n                Actions.empty(),\n                Tables.empty()\n            );\n            Widgets.Widget memory widget = Widgets.Widget(\n                resources[_locale][FINISHED_AT],\n                resources[_locale][FINISHED_AT_SHORT_DESC],\n                resources[_locale][FINISHED_AT_LONG_DESC],\n                4,\n                elements\n            );\n            return widget.toJson();\n        } else {\n            return \"\";\n        }\n    }\n\n    function userWidgets(string _locale, ManualStartFinishStrategy _strategy) public view returns (string json) {\n        return \"[]\";\n    }\n\n    function inputs(string _locale, ManualStartFinishStrategy _strategy) public view returns (string json) {\n        return \"[]\";\n    }\n}\n",
  "sourcePath": "/Users/yoonjae/SolidityProjects/tokenboost-solidity-erc20sale-strategies/contracts/strategy/sale/erc20/manual-start-finish/widget/ManualStartFinishStrategyRenderer.sol",
  "compiler": {
    "name": "solc",
    "version": "0.4.24+commit.e67f0147.Emscripten.clang"
  },
  "schemaVersion": "2.0.1",
  "updatedAt": "2018-10-11T18:36:59.650Z"
}