{
  "contractName": "MintedTokenSupplyStrategy",
  "abi": [
    {
      "constant": true,
      "inputs": [
        {
          "name": "_interfaceId",
          "type": "bytes4"
        }
      ],
      "name": "supportsInterface",
      "outputs": [
        {
          "name": "",
          "type": "bool"
        }
      ],
      "payable": false,
      "stateMutability": "view",
      "type": "function"
    },
    {
      "constant": false,
      "inputs": [],
      "name": "activate",
      "outputs": [
        {
          "name": "",
          "type": "bool"
        }
      ],
      "payable": false,
      "stateMutability": "nonpayable",
      "type": "function"
    },
    {
      "constant": true,
      "inputs": [],
      "name": "activated",
      "outputs": [
        {
          "name": "",
          "type": "bool"
        }
      ],
      "payable": false,
      "stateMutability": "view",
      "type": "function"
    },
    {
      "constant": true,
      "inputs": [],
      "name": "InterfaceId_ERC165",
      "outputs": [
        {
          "name": "",
          "type": "bytes4"
        }
      ],
      "payable": false,
      "stateMutability": "view",
      "type": "function"
    },
    {
      "constant": false,
      "inputs": [],
      "name": "deactivate",
      "outputs": [
        {
          "name": "",
          "type": "bool"
        }
      ],
      "payable": false,
      "stateMutability": "nonpayable",
      "type": "function"
    },
    {
      "constant": true,
      "inputs": [],
      "name": "InterfaceId_Strategy",
      "outputs": [
        {
          "name": "",
          "type": "bytes4"
        }
      ],
      "payable": false,
      "stateMutability": "view",
      "type": "function"
    },
    {
      "constant": true,
      "inputs": [],
      "name": "sale",
      "outputs": [
        {
          "name": "",
          "type": "address"
        }
      ],
      "payable": false,
      "stateMutability": "view",
      "type": "function"
    },
    {
      "constant": true,
      "inputs": [],
      "name": "template",
      "outputs": [
        {
          "name": "",
          "type": "address"
        }
      ],
      "payable": false,
      "stateMutability": "view",
      "type": "function"
    },
    {
      "constant": false,
      "inputs": [],
      "name": "renounceOwnership",
      "outputs": [],
      "payable": false,
      "stateMutability": "nonpayable",
      "type": "function"
    },
    {
      "constant": true,
      "inputs": [],
      "name": "renderer",
      "outputs": [
        {
          "name": "",
          "type": "address"
        }
      ],
      "payable": false,
      "stateMutability": "view",
      "type": "function"
    },
    {
      "constant": true,
      "inputs": [],
      "name": "owner",
      "outputs": [
        {
          "name": "",
          "type": "address"
        }
      ],
      "payable": false,
      "stateMutability": "view",
      "type": "function"
    },
    {
      "constant": true,
      "inputs": [],
      "name": "InterfaceId_ERC20SaleStrategy",
      "outputs": [
        {
          "name": "",
          "type": "bytes4"
        }
      ],
      "payable": false,
      "stateMutability": "view",
      "type": "function"
    },
    {
      "constant": true,
      "inputs": [],
      "name": "InterfaceId_SaleStrategy",
      "outputs": [
        {
          "name": "",
          "type": "bytes4"
        }
      ],
      "payable": false,
      "stateMutability": "view",
      "type": "function"
    },
    {
      "constant": false,
      "inputs": [
        {
          "name": "_newOwner",
          "type": "address"
        }
      ],
      "name": "transferOwnership",
      "outputs": [],
      "payable": false,
      "stateMutability": "nonpayable",
      "type": "function"
    },
    {
      "constant": true,
      "inputs": [],
      "name": "InterfaceId_Contract",
      "outputs": [
        {
          "name": "",
          "type": "bytes4"
        }
      ],
      "payable": false,
      "stateMutability": "view",
      "type": "function"
    },
    {
      "inputs": [
        {
          "name": "_owner",
          "type": "address"
        },
        {
          "name": "_sale",
          "type": "address"
        }
      ],
      "payable": false,
      "stateMutability": "nonpayable",
      "type": "constructor"
    },
    {
      "anonymous": false,
      "inputs": [
        {
          "indexed": true,
          "name": "previousOwner",
          "type": "address"
        }
      ],
      "name": "OwnershipRenounced",
      "type": "event"
    },
    {
      "anonymous": false,
      "inputs": [
        {
          "indexed": true,
          "name": "previousOwner",
          "type": "address"
        },
        {
          "indexed": true,
          "name": "newOwner",
          "type": "address"
        }
      ],
      "name": "OwnershipTransferred",
      "type": "event"
    },
    {
      "constant": true,
      "inputs": [],
      "name": "started",
      "outputs": [
        {
          "name": "",
          "type": "bool"
        }
      ],
      "payable": false,
      "stateMutability": "view",
      "type": "function"
    },
    {
      "constant": true,
      "inputs": [],
      "name": "successful",
      "outputs": [
        {
          "name": "",
          "type": "bool"
        }
      ],
      "payable": false,
      "stateMutability": "view",
      "type": "function"
    },
    {
      "constant": true,
      "inputs": [],
      "name": "finished",
      "outputs": [
        {
          "name": "",
          "type": "bool"
        }
      ],
      "payable": false,
      "stateMutability": "view",
      "type": "function"
    },
    {
      "constant": true,
      "inputs": [
        {
          "name": "_purchaser",
          "type": "address"
        },
        {
          "name": "_weiAmount",
          "type": "uint256"
        }
      ],
      "name": "purchasable",
      "outputs": [
        {
          "name": "",
          "type": "bool"
        }
      ],
      "payable": false,
      "stateMutability": "view",
      "type": "function"
    },
    {
      "constant": true,
      "inputs": [
        {
          "name": "_purchaser",
          "type": "address"
        },
        {
          "name": "_weiAmount",
          "type": "uint256"
        }
      ],
      "name": "tokenRate",
      "outputs": [
        {
          "name": "",
          "type": "uint256"
        }
      ],
      "payable": false,
      "stateMutability": "view",
      "type": "function"
    },
    {
      "constant": false,
      "inputs": [
        {
          "name": "_purchaser",
          "type": "address"
        },
        {
          "name": "_tokenAmount",
          "type": "uint256"
        }
      ],
      "name": "supplyTokens",
      "outputs": [
        {
          "name": "",
          "type": "bool"
        }
      ],
      "payable": false,
      "stateMutability": "nonpayable",
      "type": "function"
    },
    {
      "constant": false,
      "inputs": [
        {
          "name": "_purchaser",
          "type": "address"
        },
        {
          "name": "_tokenAmount",
          "type": "uint256"
        }
      ],
      "name": "receivesTokens",
      "outputs": [
        {
          "name": "",
          "type": "bool"
        }
      ],
      "payable": false,
      "stateMutability": "nonpayable",
      "type": "function"
    },
    {
      "constant": true,
      "inputs": [
        {
          "name": "locale",
          "type": "string"
        }
      ],
      "name": "adminWidgets",
      "outputs": [
        {
          "name": "json",
          "type": "string"
        }
      ],
      "payable": false,
      "stateMutability": "view",
      "type": "function"
    },
    {
      "constant": true,
      "inputs": [
        {
          "name": "locale",
          "type": "string"
        }
      ],
      "name": "userWidgets",
      "outputs": [
        {
          "name": "json",
          "type": "string"
        }
      ],
      "payable": false,
      "stateMutability": "view",
      "type": "function"
    },
    {
      "constant": true,
      "inputs": [
        {
          "name": "locale",
          "type": "string"
        }
      ],
      "name": "inputs",
      "outputs": [
        {
          "name": "json",
          "type": "string"
        }
      ],
      "payable": false,
      "stateMutability": "view",
      "type": "function"
    }
  ],
  "bytecode": "0x608060405234801561001057600080fd5b50604051604080610fe583398101604052805160209091015160008054600160a060020a031916331790558181818181806100737f01ffc9a7000000000000000000000000000000000000000000000000000000006401000000006101e4810204565b600160a060020a038116151561008857600080fd5b6002805433600160a060020a03199182161790915560008054909116600160a060020a0383161790556100e37f6125ede5000000000000000000000000000000000000000000000000000000006401000000006101e4810204565b506101167f6e301925000000000000000000000000000000000000000000000000000000006401000000006101e4810204565b5060038054600160a060020a031916600160a060020a0383161790556101647f04c8123d000000000000000000000000000000000000000000000000000000006401000000006101e4810204565b505060048054600160a060020a031916600160a060020a0383161790556101b37fa0d0304b000000000000000000000000000000000000000000000000000000006401000000006101e4810204565b50506002805460a060020a60ff02191674010000000000000000000000000000000000000000179055506102539050565b7fffffffff00000000000000000000000000000000000000000000000000000000808216141561021357600080fd5b7fffffffff00000000000000000000000000000000000000000000000000000000166000908152600160208190526040909120805460ff19169091179055565b610d83806102626000396000f3006080604052600436106101485763ffffffff7c010000000000000000000000000000000000000000000000000000000060003504166301bd3411811461014d57806301ffc9a71461021b5780630f15f4c014610266578063186601ca1461027b57806319fa8f50146102905780631f2698ab146102d75780634f9a82d6146102ec57806351b42b00146103105780635589530e14610325578063587775e81461035b57806364b630d81461037f5780636ad1fe02146103945780636f2ddd93146103c5578063715018a6146103da5780638ada6b0f146103f15780638da5cb5b14610406578063908ba6481461041b578063944ac32b146104745780639a9e3fd8146102d7578063a3a8fd2c14610489578063bef4876b146102d7578063ce30824e146104e2578063e67c8646146104f7578063f2fde38b1461051b578063fbf964eb1461053c575b600080fd5b34801561015957600080fd5b506040805160206004803580820135601f81018490048402850184019095528484526101a69436949293602493928401919081908401838280828437509497506105519650505050505050565b6040805160208082528351818301528351919283929083019185019080838360005b838110156101e05781810151838201526020016101c8565b50505050905090810190601f16801561020d5780820380516001836020036101000a031916815260200191505b509250505060405180910390f35b34801561022757600080fd5b506102527bffffffffffffffffffffffffffffffffffffffffffffffffffffffff19600435166106ba565b604080519115158252519081900360200190f35b34801561027257600080fd5b506102526106ee565b34801561028757600080fd5b50610252610790565b34801561029c57600080fd5b506102a56107b1565b604080517bffffffffffffffffffffffffffffffffffffffffffffffffffffffff199092168252519081900360200190f35b3480156102e357600080fd5b506102526107d5565b3480156102f857600080fd5b50610252600160a060020a03600435166024356107da565b34801561031c57600080fd5b506102526107e2565b34801561033157600080fd5b50610349600160a060020a03600435166024356108c0565b60408051918252519081900360200190f35b34801561036757600080fd5b50610252600160a060020a03600435166024356108c8565b34801561038b57600080fd5b506102a5610a02565b3480156103a057600080fd5b506103a9610a26565b60408051600160a060020a039092168252519081900360200190f35b3480156103d157600080fd5b506103a9610a35565b3480156103e657600080fd5b506103ef610a44565b005b3480156103fd57600080fd5b506103a9610ab0565b34801561041257600080fd5b506103a9610ac8565b34801561042757600080fd5b506040805160206004803580820135601f81018490048402850184019095528484526101a6943694929360249392840191908190840183828082843750949750610ad79650505050505050565b34801561048057600080fd5b506102a5610b64565b34801561049557600080fd5b506040805160206004803580820135601f81018490048402850184019095528484526101a6943694929360249392840191908190840183828082843750949750610b889650505050505050565b3480156104ee57600080fd5b506102a5610c15565b34801561050357600080fd5b50610252600160a060020a03600435166024356108c0565b34801561052757600080fd5b506103ef600160a060020a0360043516610c39565b34801561054857600080fd5b506102a5610c5c565b604080517fbf3bed54000000000000000000000000000000000000000000000000000000008152306024820181905260048201928352835160448301528351606093735f5f4d696e746564546f6b656e537570706c79539363bf3bed549387939092918291606490910190602086019080838360005b838110156105df5781810151838201526020016105c7565b50505050905090810190601f16801561060c5780820380516001836020036101000a031916815260200191505b509350505050600060405180830381600087803b15801561062c57600080fd5b505af1158015610640573d6000803e3d6000fd5b505050506040513d6000823e601f3d908101601f19168201604052602081101561066957600080fd5b81019080805164010000000081111561068157600080fd5b8201602081018481111561069457600080fd5b81516401000000008111828201871017156106ae57600080fd5b50909695505050505050565b7bffffffffffffffffffffffffffffffffffffffffffffffffffffffff191660009081526001602052604090205460ff1690565b600354604080517f186601ca0000000000000000000000000000000000000000000000000000000081529051600092600160a060020a03169163186601ca91600480830192602092919082900301818787803b15801561074d57600080fd5b505af1158015610761573d6000803e3d6000fd5b505050506040513d602081101561077757600080fd5b50511561078357600080fd5b61078b610c80565b905090565b60025474010000000000000000000000000000000000000000900460ff1681565b7f01ffc9a70000000000000000000000000000000000000000000000000000000081565b600090565b600192915050565b60008054600160a060020a031633146107fa57600080fd5b600360009054906101000a9004600160a060020a0316600160a060020a031663186601ca6040518163ffffffff167c0100000000000000000000000000000000000000000000000000000000028152600401602060405180830381600087803b15801561086657600080fd5b505af115801561087a573d6000803e3d6000fd5b505050506040513d602081101561089057600080fd5b50511561089c57600080fd5b506002805474ff000000000000000000000000000000000000000019169055600190565b600092915050565b60048054604080517ffc0c546a00000000000000000000000000000000000000000000000000000000815290516000938493600160a060020a03169263fc0c546a928183019260209282900301818787803b15801561092657600080fd5b505af115801561093a573d6000803e3d6000fd5b505050506040513d602081101561095057600080fd5b5051604080517f40c10f19000000000000000000000000000000000000000000000000000000008152600160a060020a038781166004830152602482018790529151929350908316916340c10f19916044808201926020929091908290030181600087803b1580156109c157600080fd5b505af11580156109d5573d6000803e3d6000fd5b505050506040513d60208110156109eb57600080fd5b505115156109f857600080fd5b5060019392505050565b7f6e3019250000000000000000000000000000000000000000000000000000000081565b600454600160a060020a031681565b600254600160a060020a031681565b600054600160a060020a03163314610a5b57600080fd5b60008054604051600160a060020a03909116917ff8df31144d9c2f0f6b59d69b8b98abd5459d07f2742c4df920b25aae33c6482091a26000805473ffffffffffffffffffffffffffffffffffffffff19169055565b735f5f4d696e746564546f6b656e537570706c795381565b600054600160a060020a031681565b604080517fe77cee3d000000000000000000000000000000000000000000000000000000008152306024820181905260048201928352835160448301528351606093735f5f4d696e746564546f6b656e537570706c79539363e77cee3d938793909291829160649091019060208601908083836000838110156105df5781810151838201526020016105c7565b7fa0d0304b0000000000000000000000000000000000000000000000000000000081565b604080517fe9499555000000000000000000000000000000000000000000000000000000008152306024820181905260048201928352835160448301528351606093735f5f4d696e746564546f6b656e537570706c79539363e9499555938793909291829160649091019060208601908083836000838110156105df5781810151838201526020016105c7565b7f04c8123d0000000000000000000000000000000000000000000000000000000081565b600054600160a060020a03163314610c5057600080fd5b610c5981610ca0565b50565b7f6125ede50000000000000000000000000000000000000000000000000000000081565b60008054600160a060020a03163314610c9857600080fd5b61078b610d1d565b600160a060020a0381161515610cb557600080fd5b60008054604051600160a060020a03808516939216917f8be0079c531659141344cd1fd0a4f28419497f9722a3daafe3b4186f6b6457e091a36000805473ffffffffffffffffffffffffffffffffffffffff1916600160a060020a0392909216919091179055565b6002805474ff00000000000000000000000000000000000000001916740100000000000000000000000000000000000000001790556001905600a165627a7a7230582006870d68be33a7aaf6be774c3c2b45cb8d30ae2f0063c6806b09d1ee3dab67fa0029",
  "source": "pragma solidity ^0.4.24;\n\nimport \"zeppelin-solidity/contracts/token/ERC20/MintableToken.sol\";\nimport \"tokenboost-solidity/contracts/strategy/sale/erc20/ERC20SaleStrategy.sol\";\nimport \"tokenboost-solidity/contracts/widget/Renderable.sol\";\nimport \"tokenboost-solidity/contracts/utils/UintUtils.sol\";\nimport \"./widget/MintedTokenSupplyStrategyRenderer.sol\";\n\ncontract MintedTokenSupplyStrategy is ERC20SaleStrategy, Renderable {\n    using SafeMath for uint;\n    using UintUtils for uint;\n\n    MintedTokenSupplyStrategyRenderer public constant renderer = MintedTokenSupplyStrategyRenderer(address(bytes20(\"__MintedTokenSupplyS\")));\n\n    constructor(address _owner, ERC20Sale _sale) public ERC20SaleStrategy(_owner, _sale) {\n        activated = true;\n    }\n\n    function started() public view returns (bool) {\n        return false;\n    }\n\n    function successful() public view returns (bool) {\n        return false;\n    }\n\n    function finished() public view returns (bool) {\n        return false;\n    }\n\n    function purchasable(address _purchaser, uint256 _weiAmount) public view returns (bool) {\n        return true;\n    }\n\n    function tokenRate(address _purchaser, uint256 _weiAmount) public view returns (uint256) {\n        return 0;\n    }\n\n    function supplyTokens(address _purchaser, uint256 _tokenAmount) public returns (bool) {\n        MintableToken mintableToken = MintableToken(sale.token());\n        require(mintableToken.mint(_purchaser, _tokenAmount));\n        return true;\n    }\n\n    function receivesTokens(address _purchaser, uint256 _tokenAmount) public returns (bool) {\n        return false;\n    }\n\n    function adminWidgets(string locale) public view returns (string json) {\n        return renderer.adminWidgets(locale, this);\n    }\n\n    function userWidgets(string locale) public view returns (string json) {\n        return renderer.userWidgets(locale, this);\n    }\n\n    function inputs(string locale) public view returns (string json) {\n        return renderer.inputs(locale, this);\n    }\n}\n",
  "sourcePath": "/Users/yoonjae/SolidityProjects/tokenboost-solidity-erc20sale-strategies/contracts/strategy/sale/erc20/minted-token/MintedTokenSupplyStrategy.sol",
  "compiler": {
    "name": "solc",
    "version": "0.4.24+commit.e67f0147.Emscripten.clang"
  },
  "schemaVersion": "2.0.1",
  "updatedAt": "2018-10-19T08:14:14.505Z"
}