{
  "contractName": "MintedTokenSupplyStrategyRenderer",
  "abi": [
    {
      "constant": true,
      "inputs": [],
      "name": "SET_MINTER_SHORT_DESC",
      "outputs": [
        {
          "name": "",
          "type": "string"
        }
      ],
      "payable": false,
      "stateMutability": "view",
      "type": "function"
    },
    {
      "constant": true,
      "inputs": [],
      "name": "SET_MINTER_CONFIRM",
      "outputs": [
        {
          "name": "",
          "type": "string"
        }
      ],
      "payable": false,
      "stateMutability": "view",
      "type": "function"
    },
    {
      "constant": true,
      "inputs": [],
      "name": "STRATEGY_ADDRESS",
      "outputs": [
        {
          "name": "",
          "type": "string"
        }
      ],
      "payable": false,
      "stateMutability": "view",
      "type": "function"
    },
    {
      "constant": true,
      "inputs": [],
      "name": "SET_MINTER_LONG_DESC",
      "outputs": [
        {
          "name": "",
          "type": "string"
        }
      ],
      "payable": false,
      "stateMutability": "view",
      "type": "function"
    },
    {
      "constant": true,
      "inputs": [],
      "name": "SET_MINTER",
      "outputs": [
        {
          "name": "",
          "type": "string"
        }
      ],
      "payable": false,
      "stateMutability": "view",
      "type": "function"
    },
    {
      "constant": false,
      "inputs": [],
      "name": "renounceOwnership",
      "outputs": [],
      "payable": false,
      "stateMutability": "nonpayable",
      "type": "function"
    },
    {
      "constant": true,
      "inputs": [],
      "name": "owner",
      "outputs": [
        {
          "name": "",
          "type": "address"
        }
      ],
      "payable": false,
      "stateMutability": "view",
      "type": "function"
    },
    {
      "constant": false,
      "inputs": [
        {
          "name": "locale",
          "type": "string"
        },
        {
          "name": "key",
          "type": "string"
        },
        {
          "name": "value",
          "type": "string"
        }
      ],
      "name": "setResource",
      "outputs": [],
      "payable": false,
      "stateMutability": "nonpayable",
      "type": "function"
    },
    {
      "constant": false,
      "inputs": [
        {
          "name": "_newOwner",
          "type": "address"
        }
      ],
      "name": "transferOwnership",
      "outputs": [],
      "payable": false,
      "stateMutability": "nonpayable",
      "type": "function"
    },
    {
      "constant": true,
      "inputs": [
        {
          "name": "locale",
          "type": "string"
        },
        {
          "name": "key",
          "type": "string"
        }
      ],
      "name": "resource",
      "outputs": [
        {
          "name": "",
          "type": "string"
        }
      ],
      "payable": false,
      "stateMutability": "view",
      "type": "function"
    },
    {
      "anonymous": false,
      "inputs": [
        {
          "indexed": true,
          "name": "previousOwner",
          "type": "address"
        }
      ],
      "name": "OwnershipRenounced",
      "type": "event"
    },
    {
      "anonymous": false,
      "inputs": [
        {
          "indexed": true,
          "name": "previousOwner",
          "type": "address"
        },
        {
          "indexed": true,
          "name": "newOwner",
          "type": "address"
        }
      ],
      "name": "OwnershipTransferred",
      "type": "event"
    },
    {
      "constant": true,
      "inputs": [
        {
          "name": "_locale",
          "type": "string"
        },
        {
          "name": "_strategy",
          "type": "address"
        }
      ],
      "name": "adminWidgets",
      "outputs": [
        {
          "name": "",
          "type": "string"
        }
      ],
      "payable": false,
      "stateMutability": "view",
      "type": "function"
    },
    {
      "constant": true,
      "inputs": [
        {
          "name": "_locale",
          "type": "string"
        },
        {
          "name": "_strategy",
          "type": "address"
        }
      ],
      "name": "userWidgets",
      "outputs": [
        {
          "name": "json",
          "type": "string"
        }
      ],
      "payable": false,
      "stateMutability": "view",
      "type": "function"
    },
    {
      "constant": true,
      "inputs": [
        {
          "name": "_locale",
          "type": "string"
        },
        {
          "name": "_strategy",
          "type": "address"
        }
      ],
      "name": "inputs",
      "outputs": [
        {
          "name": "",
          "type": "string"
        }
      ],
      "payable": false,
      "stateMutability": "view",
      "type": "function"
    }
  ],
  "bytecode": "0x608060405260008054600160a060020a03191633179055612957806100256000396000f3006080604052600436106100ab5763ffffffff60e060020a60003504166309cac2b581146100b05780633610fc8c1461013a5780634cb08fff1461014f5780635b8efff41461016457806360e4103f14610179578063715018a61461018e5780638da5cb5b146101a5578063bf3bed54146101d6578063e77cee3d146101d6578063e94995551461023a578063ed3487fe1461029e578063f2fde38b14610373578063f65a5c1b14610394575b600080fd5b3480156100bc57600080fd5b506100c561042b565b6040805160208082528351818301528351919283929083019185019080838360005b838110156100ff5781810151838201526020016100e7565b50505050905090810190601f16801561012c5780820380516001836020036101000a031916815260200191505b509250505060405180910390f35b34801561014657600080fd5b506100c5610462565b34801561015b57600080fd5b506100c5610499565b34801561017057600080fd5b506100c56104d0565b34801561018557600080fd5b506100c5610507565b34801561019a57600080fd5b506101a361052c565b005b3480156101b157600080fd5b506101ba610598565b60408051600160a060020a039092168252519081900360200190f35b3480156101e257600080fd5b506040805160206004803580820135601f81018490048402850184019095528484526100c594369492936024939284019190819084018382808284375094975050509235600160a060020a031693506105a792505050565b34801561024657600080fd5b506040805160206004803580820135601f81018490048402850184019095528484526100c594369492936024939284019190819084018382808284375094975050509235600160a060020a031693506105e092505050565b3480156102aa57600080fd5b506040805160206004803580820135601f81018490048402850184019095528484526101a394369492936024939284019190819084018382808284375050604080516020601f89358b018035918201839004830284018301909452808352979a99988101979196509182019450925082915084018382808284375050604080516020601f89358b018035918201839004830284018301909452808352979a9998810197919650918201945092508291508401838280828437509497506106aa9650505050505050565b34801561037f57600080fd5b506101a3600160a060020a0360043516610797565b3480156103a057600080fd5b506040805160206004803580820135601f81018490048402850184019095528484526100c594369492936024939284019190819084018382808284375050604080516020601f89358b018035918201839004830284018301909452808352979a9998810197919650918201945092508291508401838280828437509497506107ba9650505050505050565b60408051808201909152601581527f7365745f6d696e7465725f73686f72745f646573630000000000000000000000602082015281565b60408051808201909152601281527f7365745f6d696e7465725f636f6e6669726d0000000000000000000000000000602082015281565b60408051808201909152601081527f73747261746567795f6164647265737300000000000000000000000000000000602082015281565b60408051808201909152601481527f7365745f6d696e7465725f6c6f6e675f64657363000000000000000000000000602082015281565b60408051808201909152600a815260008051602061290c833981519152602082015281565b600054600160a060020a0316331461054357600080fd5b60008054604051600160a060020a03909116917ff8df31144d9c2f0f6b59d69b8b98abd5459d07f2742c4df920b25aae33c6482091a26000805473ffffffffffffffffffffffffffffffffffffffff19169055565b600054600160a060020a031681565b505060408051808201909152600281527f5b5d000000000000000000000000000000000000000000000000000000000000602082015290565b60606105ec838361090b565b60405160200180807f5b0000000000000000000000000000000000000000000000000000000000000081525060010182805190602001908083835b602083106106465780518252601f199092019160209182019101610627565b6001836020036101000a038019825116818451168082178552505050505050905001807f5d00000000000000000000000000000000000000000000000000000000000000815250600101915050604051602081830303815290604052905092915050565b600054600160a060020a031633146106c157600080fd5b806001846040518082805190602001908083835b602083106106f45780518252601f1990920191602091820191016106d5565b51815160209384036101000a6000190180199092169116179052920194855250604051938490038101842087519094889450925082918401908083835b602083106107505780518252601f199092019160209182019101610731565b51815160209384036101000a60001901801990921691161790529201948552506040519384900381019093208451610791959194919091019250905061275c565b50505050565b600054600160a060020a031633146107ae57600080fd5b6107b781611761565b50565b60606001836040518082805190602001908083835b602083106107ee5780518252601f1990920191602091820191016107cf565b51815160209384036101000a6000190180199092169116179052920194855250604051938490038101842086519094879450925082918401908083835b6020831061084a5780518252601f19909201916020918201910161082b565b518151600019602094850361010090810a820192831692199390931691909117909252949092019687526040805197889003820188208054601f60026001831615909802909501169590950492830182900482028801820190528187529294509250508301828280156108fe5780601f106108d3576101008083540402835291602001916108fe565b820191906000526020600020905b8154815290600101906020018083116108e157829003601f168201915b5050505050905092915050565b6060600060606109196127da565b84600160a060020a0316636ad1fe026040518163ffffffff1660e060020a028152600401602060405180830381600087803b15801561095757600080fd5b505af115801561096b573d6000803e3d6000fd5b505050506040513d602081101561098157600080fd5b5051604080517ffc0c546a0000000000000000000000000000000000000000000000000000000081529051600160a060020a039092169163fc0c546a916004808201926020929091908290030181600087803b1580156109e057600080fd5b505af11580156109f4573d6000803e3d6000fd5b505050506040513d6020811015610a0a57600080fd5b5051604080517f92afc33a0000000000000000000000000000000000000000000000000000000081529051919450600160a060020a0385169163217fe6c691889184916392afc33a91600480830192600092919082900301818387803b158015610a7357600080fd5b505af1158015610a87573d6000803e3d6000fd5b505050506040513d6000823e601f3d908101601f191682016040526020811015610ab057600080fd5b810190808051640100000000811115610ac857600080fd5b82016020810184811115610adb57600080fd5b8151640100000000811182820187101715610af557600080fd5b50506040805160e060020a63ffffffff8916028152600160a060020a0387166004820190815260248201928352835160448301528351939650945090925060640190602085019080838360005b83811015610b5a578181015183820152602001610b42565b50505050905090810190601f168015610b875780820380516001836020036101000a031916815260200191505b509350505050602060405180830381600087803b158015610ba757600080fd5b505af1158015610bbb573d6000803e3d6000fd5b505050506040513d6020811015610bd157600080fd5b505115610bee576040805160208101909152600081529350611758565b6040805160028082526060820190925290816020015b610c0c61280a565b815260200190600190039081610c0457905050915060e0604051908101604052806001151581526020016040805190810160405280601081526020017f73747261746567795f616464726573730000000000000000000000000000000081525081526020016040805190810160405280600781526020017f616464726573730000000000000000000000000000000000000000000000000081525081526020016001886040518082805190602001908083835b60208310610cde5780518252601f199092019160209182019101610cbf565b51815160209384036101000a6000190180199092169116179052920194855250604080519485900382018520858201825260108087527f73747261746567795f616464726573730000000000000000000000000000000093870193845291519095945092508291908083835b60208310610d695780518252601f199092019160209182019101610d4a565b518151600019602094850361010090810a820192831692199390931691909117909252949092019687526040805197889003820188208054601f6002600183161590980290950116959095049283018290048202880182019052818752929450925050830182828015610e1d5780601f10610df257610100808354040283529160200191610e1d565b820191906000526020600020905b815481529060010190602001808311610e0057829003601f168201915b50505050508152602001610e41610e3c88600160a060020a03166117de565b611924565b8152602001610e4e611999565b8152602001610e5b6119ec565b9052825183906000908110610e6c57fe5b9060200190602002018190525060e0604051908101604052806001151581526020016040805190810160405280600a815260200160008051602061290c83398151915281525081526020016040805190810160405280600681526020017f627574746f6e000000000000000000000000000000000000000000000000000081525081526020016001886040518082805190602001908083835b60208310610f245780518252601f199092019160209182019101610f05565b51815160209384036101000a60001901801990921691161790529201948552506040805194859003820185208582018252600a80875260008051602061290c83398151915293870193845291519095945092508291908083835b60208310610f9d5780518252601f199092019160209182019101610f7e565b518151600019602094850361010090810a820192831692199390931691909117909252949092019687526040805197889003820188208054601f60026001831615909802909501169590950492830182900482028801820190528187529294509250508301828280156110515780601f1061102657610100808354040283529160200191611051565b820191906000526020600020905b81548152906001019060200180831161103457829003601f168201915b505050505081526020016040805190810160405280600481526020017f6e756c6c00000000000000000000000000000000000000000000000000000000815250815260200160a06040519081016040528060011515815260200186600160a060020a031681526020016040805190810160405280601281526020017f6164644d696e746572286164647265737329000000000000000000000000000081525081526020016040805190810160405280601481526020017f5b2273747261746567795f61646472657373225d000000000000000000000000815250815260200160018a6040518082805190602001908083835b602083106111625780518252601f199092019160209182019101611143565b51815160209384036101000a6000190180199092169116179052920194855250604080519485900382018520858201825260128087527f7365745f6d696e7465725f636f6e6669726d000000000000000000000000000093870193845291519095945092508291908083835b602083106111ed5780518252601f1990920191602091820191016111ce565b518151600019602094850361010090810a820192831692199390931691909117909252949092019687526040805197889003820188208054601f60026001831615909802909501169590950492830182900482028801820190528187529294509250508301828280156112a15780601f10611276576101008083540402835291602001916112a1565b820191906000526020600020905b81548152906001019060200180831161128457829003601f168201915b505050505081525081526020016112b66119ec565b90528251839060019081106112c757fe5b9060200190602002018190525060a0604051908101604052806001886040518082805190602001908083835b602083106113125780518252601f1990920191602091820191016112f3565b51815160209384036101000a60001901801990921691161790529201948552506040805194859003820185208582018252600a80875260008051602061290c83398151915293870193845291519095945092508291908083835b6020831061138b5780518252601f19909201916020918201910161136c565b518151600019602094850361010090810a820192831692199390931691909117909252949092019687526040805197889003820188208054601f600260018316159098029095011695909504928301829004820288018201905281875292945092505083018282801561143f5780601f106114145761010080835404028352916020019161143f565b820191906000526020600020905b81548152906001019060200180831161142257829003601f168201915b505050505081526020016001886040518082805190602001908083835b6020831061147b5780518252601f19909201916020918201910161145c565b51815160209384036101000a6000190180199092169116179052920194855250604080519485900382018520858201825260158087527f7365745f6d696e7465725f73686f72745f64657363000000000000000000000093870193845291519095945092508291908083835b602083106115065780518252601f1990920191602091820191016114e7565b518151600019602094850361010090810a820192831692199390931691909117909252949092019687526040805197889003820188208054601f60026001831615909802909501169590950492830182900482028801820190528187529294509250508301828280156115ba5780601f1061158f576101008083540402835291602001916115ba565b820191906000526020600020905b81548152906001019060200180831161159d57829003601f168201915b505050505081526020016001886040518082805190602001908083835b602083106115f65780518252601f1990920191602091820191016115d7565b51815160209384036101000a6000190180199092169116179052920194855250604080519485900382018520858201825260148087527f7365745f6d696e7465725f6c6f6e675f6465736300000000000000000000000093870193845291519095945092508291908083835b602083106116815780518252601f199092019160209182019101611662565b518151600019602094850361010090810a820192831692199390931691909117909252949092019687526040805197889003820188208054601f60026001831615909802909501169590950492830182900482028801820190528187529294509250508301828280156117355780601f1061170a57610100808354040283529160200191611735565b820191906000526020600020905b81548152906001019060200180831161171857829003601f168201915b505050505081526020016004815260200183815250905061175581611a79565b93505b50505092915050565b600160a060020a038116151561177657600080fd5b60008054604051600160a060020a03808516939216917f8be0079c531659141344cd1fd0a4f28419497f9722a3daafe3b4186f6b6457e091a36000805473ffffffffffffffffffffffffffffffffffffffff1916600160a060020a0392909216919091179055565b60408051602a80825260608083019093528291600091829182916020820161054080388339505081519195507f300000000000000000000000000000000000000000000000000000000000000091869150600090811061183a57fe5b906020010190600160f860020a031916908160001a90535083517f7800000000000000000000000000000000000000000000000000000000000000908590600190811061188357fe5b906020010190600160f860020a031916908160001a905350859250600091505b602882101561191757506030600f8316016039600160a060020a03821611156118ca576027015b8060f860020a0284836028036001018151811015156118e557fe5b906020010190600160f860020a031916908160001a9053506010600160a060020a0384160492506001909101906118a3565b8394505b50505050919050565b606061199361194e60408051908101604052806001815260200160f960020a601102815250611cd6565b61198261198e61195d86611cd6565b61198260408051908101604052806001815260200160f960020a601102815250611cd6565b9063ffffffff611cff16565b611cd6565b92915050565b6119a1612856565b506040805160a0810182526000808252602080830182905283518082018552828152838501528351808201855282815260608401528351908101909352825260808101919091525b90565b6119f4612883565b60408051606081018252600080825282518181526020818101909452919283019190611a36565b611a236128a7565b815260200190600190039081611a1b5790505b5081526020016000604051908082528060200260200182016040528015611a7157816020015b6060815260200190600190039081611a5c5790505b509052905090565b60408051808201909152600a81527f7b227469746c65223a22000000000000000000000000000000000000000000006020820152815160609190600090611acc90611ac390611cd6565b61198284611cd6565b9150611b0f611ac36040805190810160405280600f81526020017f222c2273686f727444657363223a220000000000000000000000000000000000815250611cd6565b9150611b21611ac38560200151611cd6565b9150611b64611ac36040805190810160405280600e81526020017f222c226c6f6e6744657363223a22000000000000000000000000000000000000815250611cd6565b9150611b76611ac38560400151611cd6565b9150611bb9611ac36040805190810160405280600a81526020017f222c227769647468223a00000000000000000000000000000000000000000000815250611cd6565b9150611bce611ac361198e8660600151611d76565b9150611c11611ac36040805190810160405280600d81526020017f2c22656c656d656e7473223a5b00000000000000000000000000000000000000815250611cd6565b9150600090505b836080015151811015611c8d576000811115611c5957611c56611ac360408051908101604052806001815260200160fa60020a600b02815250611cd6565b91505b611c83611ac361198e866080015184815181101515611c7457fe5b90602001906020020151611ed1565b9150600101611c18565b611cce611ac36040805190810160405280600281526020017f5d7d000000000000000000000000000000000000000000000000000000000000815250611cd6565b949350505050565b611cde6128da565b50604080518082019091528151815260208281019082018190525b50919050565b606080600083600001518560000151016040519080825280601f01601f191660200182016040528015611d3c578160200160208202803883390190505b509150602082019050611d5881866020015187600001516121a6565b845160208501518551611d6e92840191906121a6565b509392505050565b60608060008181851515611dbf5760408051808201909152600181527f30000000000000000000000000000000000000000000000000000000000000006020820152945061191b565b6040805160208082528183019092529080820161040080388339019050509350600092505b6000861115611e3157600a860660300160f860020a028484815181101515611e0857fe5b906020010190600160f860020a031916908160001a905350600a86049550600190920191611de4565b60408051848152601f19601f86011681016020019091526000198401938015611e64578160200160208202803883390190505b509150600090505b8151811015611ec857835160001984019385918110611e8757fe5b90602001015160f860020a900460f860020a028282815181101515611ea857fe5b906020010190600160f860020a031916908160001a905350600101611e6c565b50949350505050565b60608082600001511561216b576040805190810160405280600781526020017f7b226964223a22000000000000000000000000000000000000000000000000008152509050611f2f611f268460200151611cd6565b61198283611cd6565b9050611f59611f2660408051908101604052806001815260200160f960020a601102815250611cd6565b60a08401515190915015611fc057611fa8611f266040805190810160405280600b81526020017f2c2022616374696f6e223a000000000000000000000000000000000000000000815250611cd6565b9050611fbd611f2661198e8560a001516121ea565b90505b60c083015151156120245761200c611f266040805190810160405280600a81526020017f2c20227461626c65223a00000000000000000000000000000000000000000000815250611cd6565b9050612021611f2661198e8560c0015161238d565b90505b612065611f266040805190810160405280600981526020017f2c2274797065223a220000000000000000000000000000000000000000000000815250611cd6565b9050612077611f268460400151611cd6565b90506120ba611f266040805190810160405280600b81526020017f222c226c6162656c223a22000000000000000000000000000000000000000000815250611cd6565b90506120cc611f268460600151611cd6565b905061210f611f266040805190810160405280600981526020017f222c2264617461223a0000000000000000000000000000000000000000000000815250611cd6565b9050612121611f268460800151611cd6565b9050612164611f266040805190810160405280600181526020017f7d00000000000000000000000000000000000000000000000000000000000000815250611cd6565b9150611cf9565b60408051808201909152600481527f6e756c6c0000000000000000000000000000000000000000000000000000000060208201529150611cf9565b60005b602082106121cb578251845260209384019390920191601f19909101906121a9565b50905182516020929092036101000a6000190180199091169116179052565b60608082600001511561216b576040805190810160405280600c81526020017f7b2261646472657373223a220000000000000000000000000000000000000000815250905061224b611f2661198e8560200151600160a060020a03166117de565b905061228e611f266040805190810160405280601681526020017f222c2266756e6374696f6e53656c6563746f72223a2200000000000000000000815250611cd6565b90506122a0611f268460400151611cd6565b90506122e3611f266040805190810160405280600e81526020017f222c22617267756d656e7473223a000000000000000000000000000000000000815250611cd6565b90506122f5611f268460600151611cd6565b9050612338611f266040805190810160405280600c81526020017f2c22636f6e6669726d223a220000000000000000000000000000000000000000815250611cd6565b905061234a611f268460800151611cd6565b9050612164611f266040805190810160405280600281526020017f227d000000000000000000000000000000000000000000000000000000000000815250611cd6565b60608060008084600001511561256557505060408051808201909152600c81527f7b22636f6c756d6e73223a5b0000000000000000000000000000000000000000602082015290506000805b84602001515181101561245b5760008211156124235761242061241760408051908101604052806001815260200160fa60020a600b02815250611cd6565b61198285611cd6565b92505b61244d61241761198e87602001518481518110151561243e57fe5b906020019060200201516125a4565b9250600191820191016123d9565b61249c6124176040805190810160405280600a81526020017f5d2c22726f7773223a5b00000000000000000000000000000000000000000000815250611cd6565b925060009150600090505b84604001515181101561251d5760008211156124e8576124e561241760408051908101604052806001815260200160fa60020a600b02815250611cd6565b92505b61250f61241786604001518381518110151561250057fe5b90602001906020020151611cd6565b9250600191820191016124a7565b61255e6124176040805190810160405280600281526020017f5d7d000000000000000000000000000000000000000000000000000000000000815250611cd6565b935061259c565b60408051808201909152600481527f6e756c6c00000000000000000000000000000000000000000000000000000000602082015293505b505050919050565b60608082600001511561216b576040805190810160405280600781526020017f7b226964223a220000000000000000000000000000000000000000000000000081525090506125f9611f268460200151611cd6565b9050612623611f2660408051908101604052806001815260200160f960020a601102815250611cd6565b608084015151909150156126b457612659611f2660408051908101604052806001815260200160fa60020a600b02815250611cd6565b905061269c611f266040805190810160405280600981526020017f22616374696f6e223a0000000000000000000000000000000000000000000000815250611cd6565b90506126b1611f2661198e85608001516121ea565b90505b6126f5611f266040805190810160405280600981526020017f2c2274797065223a220000000000000000000000000000000000000000000000815250611cd6565b9050612707611f268460400151611cd6565b905061274a611f266040805190810160405280600b81526020017f222c226c6162656c223a22000000000000000000000000000000000000000000815250611cd6565b905061234a611f268460600151611cd6565b828054600181600116156101000203166002900490600052602060002090601f016020900481019282601f1061279d57805160ff19168380011785556127ca565b828001600101855582156127ca579182015b828111156127ca5782518255916020019190600101906127af565b506127d69291506128f1565b5090565b60a06040519081016040528060608152602001606081526020016060815260200160008152602001606081525090565b6101a06040519081016040528060001515815260200160608152602001606081526020016060815260200160608152602001612844612856565b8152602001612851612883565b905290565b6040805160a081018252600080825260208201526060918101829052818101829052608081019190915290565b60606040519081016040528060001515815260200160608152602001606081525090565b61012060405190810160405280600015158152602001606081526020016060815260200160608152602001612851612856565b604080518082019091526000808252602082015290565b6119e991905b808211156127d657600081556001016128f756007365745f6d696e74657200000000000000000000000000000000000000000000a165627a7a72305820e932326c3473a8963b79c717f31dd4cd1a56f1e6381155a079bf7053def9d0430029",
  "source": "pragma solidity ^0.4.24;\n\nimport \"tokenboost-solidity/contracts/widget/Localizable.sol\";\nimport \"tokenboost-solidity/contracts/widget/Widgets.sol\";\nimport \"tokenboost-solidity/contracts/utils/StringUtils.sol\";\nimport \"tokenboost-solidity-erc20token/contracts/token/erc20/ERC20Token.sol\";\nimport \"../MintedTokenSupplyStrategy.sol\";\n\ncontract MintedTokenSupplyStrategyRenderer is Localizable {\n    using Widgets for Widgets.Widget;\n    using Elements for Elements.Element;\n    using strings for *;\n    using AddressUtils for address;\n    using StringUtils for string;\n\n    string public constant STRATEGY_ADDRESS = \"strategy_address\";\n    string public constant SET_MINTER = \"set_minter\";\n    string public constant SET_MINTER_SHORT_DESC = \"set_minter_short_desc\";\n    string public constant SET_MINTER_LONG_DESC = \"set_minter_long_desc\";\n    string public constant SET_MINTER_CONFIRM = \"set_minter_confirm\";\n\n    function adminWidgets(string _locale, MintedTokenSupplyStrategy _strategy) public view returns (string) {\n        return string(abi.encodePacked(\"[\", _setMinterWidget(_locale, _strategy), \"]\"));\n    }\n\n    function _setMinterWidget(string _locale, MintedTokenSupplyStrategy _strategy) private view returns (string json) {\n        ERC20Token token = ERC20Token(_strategy.sale().token());\n        if (token.hasRole(_strategy, token.ROLE_MINTER())) {\n            return \"\";\n        } else {\n            Elements.Element[] memory elements = new Elements.Element[](2);\n            elements[0] = Elements.Element(\n                true,\n                STRATEGY_ADDRESS,\n                \"address\",\n                resources[_locale][STRATEGY_ADDRESS],\n                address(_strategy).toString().quoted(),\n                Actions.empty(),\n                Tables.empty()\n            );\n            elements[1] = Elements.Element(\n                true,\n                SET_MINTER,\n                \"button\",\n                resources[_locale][SET_MINTER],\n                \"null\",\n                Actions.Action(\n                    true,\n                    token,\n                    \"addMinter(address)\",\n                    '[\"strategy_address\"]',\n                    resources[_locale][SET_MINTER_CONFIRM]\n                ),\n                Tables.empty()\n            );\n            Widgets.Widget memory widget = Widgets.Widget(\n                resources[_locale][SET_MINTER],\n                resources[_locale][SET_MINTER_SHORT_DESC],\n                resources[_locale][SET_MINTER_LONG_DESC],\n                4,\n                elements\n            );\n            return widget.toJson();\n        }\n    }\n\n    function userWidgets(string _locale, MintedTokenSupplyStrategy _strategy) public view returns (string json) {\n        return \"[]\";\n    }\n\n    function inputs(string _locale, MintedTokenSupplyStrategy _strategy) public view returns (string) {\n        return \"[]\";\n    }\n}\n",
  "sourcePath": "/Users/yoonjae/SolidityProjects/tokenboost-solidity-erc20sale-strategies/contracts/strategy/sale/erc20/minted-token/widget/MintedTokenSupplyStrategyRenderer.sol",
  "compiler": {
    "name": "solc",
    "version": "0.4.24+commit.e67f0147.Emscripten.clang"
  },
  "schemaVersion": "2.0.1",
  "updatedAt": "2018-10-19T08:15:19.681Z"
}