{
  "contractName": "SoftHardCapStrategyRenderer",
  "abi": [
    {
      "constant": true,
      "inputs": [],
      "name": "SOFT_CAP_LONG_DESC",
      "outputs": [
        {
          "name": "",
          "type": "string"
        }
      ],
      "payable": false,
      "stateMutability": "view",
      "type": "function"
    },
    {
      "constant": true,
      "inputs": [],
      "name": "HARD_CAP_LEFT_SHORT_DESC",
      "outputs": [
        {
          "name": "",
          "type": "string"
        }
      ],
      "payable": false,
      "stateMutability": "view",
      "type": "function"
    },
    {
      "constant": true,
      "inputs": [],
      "name": "HARD_CAP_SHORT_DESC",
      "outputs": [
        {
          "name": "",
          "type": "string"
        }
      ],
      "payable": false,
      "stateMutability": "view",
      "type": "function"
    },
    {
      "constant": true,
      "inputs": [],
      "name": "HARD_CAP",
      "outputs": [
        {
          "name": "",
          "type": "string"
        }
      ],
      "payable": false,
      "stateMutability": "view",
      "type": "function"
    },
    {
      "constant": true,
      "inputs": [],
      "name": "HARD_CAP_LEFT_LONG_DESC",
      "outputs": [
        {
          "name": "",
          "type": "string"
        }
      ],
      "payable": false,
      "stateMutability": "view",
      "type": "function"
    },
    {
      "constant": false,
      "inputs": [],
      "name": "renounceOwnership",
      "outputs": [],
      "payable": false,
      "stateMutability": "nonpayable",
      "type": "function"
    },
    {
      "constant": true,
      "inputs": [],
      "name": "owner",
      "outputs": [
        {
          "name": "",
          "type": "address"
        }
      ],
      "payable": false,
      "stateMutability": "view",
      "type": "function"
    },
    {
      "constant": true,
      "inputs": [],
      "name": "SOFT_CAP_LEFT_LONG_DESC",
      "outputs": [
        {
          "name": "",
          "type": "string"
        }
      ],
      "payable": false,
      "stateMutability": "view",
      "type": "function"
    },
    {
      "constant": true,
      "inputs": [],
      "name": "UPDATE_CONFIRM",
      "outputs": [
        {
          "name": "",
          "type": "string"
        }
      ],
      "payable": false,
      "stateMutability": "view",
      "type": "function"
    },
    {
      "constant": true,
      "inputs": [],
      "name": "SOFT_CAP",
      "outputs": [
        {
          "name": "",
          "type": "string"
        }
      ],
      "payable": false,
      "stateMutability": "view",
      "type": "function"
    },
    {
      "constant": true,
      "inputs": [],
      "name": "HARD_CAP_LEFT",
      "outputs": [
        {
          "name": "",
          "type": "string"
        }
      ],
      "payable": false,
      "stateMutability": "view",
      "type": "function"
    },
    {
      "constant": true,
      "inputs": [],
      "name": "HARD_CAP_LONG_DESC",
      "outputs": [
        {
          "name": "",
          "type": "string"
        }
      ],
      "payable": false,
      "stateMutability": "view",
      "type": "function"
    },
    {
      "constant": true,
      "inputs": [],
      "name": "SOFT_CAP_LEFT_SHORT_DESC",
      "outputs": [
        {
          "name": "",
          "type": "string"
        }
      ],
      "payable": false,
      "stateMutability": "view",
      "type": "function"
    },
    {
      "constant": true,
      "inputs": [],
      "name": "UPDATE",
      "outputs": [
        {
          "name": "",
          "type": "string"
        }
      ],
      "payable": false,
      "stateMutability": "view",
      "type": "function"
    },
    {
      "constant": true,
      "inputs": [],
      "name": "SOFT_CAP_SHORT_DESC",
      "outputs": [
        {
          "name": "",
          "type": "string"
        }
      ],
      "payable": false,
      "stateMutability": "view",
      "type": "function"
    },
    {
      "constant": false,
      "inputs": [
        {
          "name": "locale",
          "type": "string"
        },
        {
          "name": "key",
          "type": "string"
        },
        {
          "name": "value",
          "type": "string"
        }
      ],
      "name": "setResource",
      "outputs": [],
      "payable": false,
      "stateMutability": "nonpayable",
      "type": "function"
    },
    {
      "constant": false,
      "inputs": [
        {
          "name": "_newOwner",
          "type": "address"
        }
      ],
      "name": "transferOwnership",
      "outputs": [],
      "payable": false,
      "stateMutability": "nonpayable",
      "type": "function"
    },
    {
      "constant": true,
      "inputs": [],
      "name": "SOFT_CAP_LEFT",
      "outputs": [
        {
          "name": "",
          "type": "string"
        }
      ],
      "payable": false,
      "stateMutability": "view",
      "type": "function"
    },
    {
      "constant": true,
      "inputs": [
        {
          "name": "locale",
          "type": "string"
        },
        {
          "name": "key",
          "type": "string"
        }
      ],
      "name": "resource",
      "outputs": [
        {
          "name": "",
          "type": "string"
        }
      ],
      "payable": false,
      "stateMutability": "view",
      "type": "function"
    },
    {
      "anonymous": false,
      "inputs": [
        {
          "indexed": true,
          "name": "previousOwner",
          "type": "address"
        }
      ],
      "name": "OwnershipRenounced",
      "type": "event"
    },
    {
      "anonymous": false,
      "inputs": [
        {
          "indexed": true,
          "name": "previousOwner",
          "type": "address"
        },
        {
          "indexed": true,
          "name": "newOwner",
          "type": "address"
        }
      ],
      "name": "OwnershipTransferred",
      "type": "event"
    },
    {
      "constant": true,
      "inputs": [
        {
          "name": "_locale",
          "type": "string"
        },
        {
          "name": "_strategy",
          "type": "address"
        }
      ],
      "name": "adminWidgets",
      "outputs": [
        {
          "name": "",
          "type": "string"
        }
      ],
      "payable": false,
      "stateMutability": "view",
      "type": "function"
    },
    {
      "constant": true,
      "inputs": [
        {
          "name": "_locale",
          "type": "string"
        },
        {
          "name": "_strategy",
          "type": "address"
        }
      ],
      "name": "userWidgets",
      "outputs": [
        {
          "name": "",
          "type": "string"
        }
      ],
      "payable": false,
      "stateMutability": "view",
      "type": "function"
    },
    {
      "constant": true,
      "inputs": [
        {
          "name": "_locale",
          "type": "string"
        },
        {
          "name": "_strategy",
          "type": "address"
        }
      ],
      "name": "inputs",
      "outputs": [
        {
          "name": "",
          "type": "string"
        }
      ],
      "payable": false,
      "stateMutability": "view",
      "type": "function"
    }
  ],
  "bytecode": "0x608060405260008054600160a060020a03191633179055614810806100256000396000f30060806040526004361061010e5763ffffffff60e060020a60003504166311a1df3b811461011357806313676f861461019d5780631fb09296146101b25780633a03171c146101c75780633a0594e0146101dc578063715018a6146101f15780638da5cb5b146102085780639b81b80714610239578063b07b3c781461024e578063b652dc2f14610263578063bf3bed5414610278578063c8f3f99b146102dc578063cd7d65f4146102f1578063cee5992314610306578063d30f6e201461031b578063dd5aaf6f14610330578063e77cee3d14610345578063e9499555146103a9578063ed3487fe1461040d578063f2fde38b146104e2578063f4c7786e14610503578063f65a5c1b14610518575b600080fd5b34801561011f57600080fd5b506101286105af565b6040805160208082528351818301528351919283929083019185019080838360005b8381101561016257818101518382015260200161014a565b50505050905090810190601f16801561018f5780820380516001836020036101000a031916815260200191505b509250505060405180910390f35b3480156101a957600080fd5b506101286105e6565b3480156101be57600080fd5b5061012861061d565b3480156101d357600080fd5b50610128610654565b3480156101e857600080fd5b50610128610679565b3480156101fd57600080fd5b506102066106b0565b005b34801561021457600080fd5b5061021d61071c565b60408051600160a060020a039092168252519081900360200190f35b34801561024557600080fd5b5061012861072b565b34801561025a57600080fd5b50610128610762565b34801561026f57600080fd5b50610128610799565b34801561028457600080fd5b506040805160206004803580820135601f810184900484028501840190955284845261012894369492936024939284019190819084018382808284375094975050509235600160a060020a031693506107be92505050565b3480156102e857600080fd5b50610128611270565b3480156102fd57600080fd5b506101286112a7565b34801561031257600080fd5b506101286112de565b34801561032757600080fd5b50610128611315565b34801561033c57600080fd5b5061012861134c565b34801561035157600080fd5b506040805160206004803580820135601f810184900484028501840190955284845261012894369492936024939284019190819084018382808284375094975050509235600160a060020a0316935061138392505050565b3480156103b557600080fd5b506040805160206004803580820135601f810184900484028501840190955284845261012894369492936024939284019190819084018382808284375094975050509235600160a060020a031693506114f492505050565b34801561041957600080fd5b506040805160206004803580820135601f810184900484028501840190955284845261020694369492936024939284019190819084018382808284375050604080516020601f89358b018035918201839004830284018301909452808352979a99988101979196509182019450925082915084018382808284375050604080516020601f89358b018035918201839004830284018301909452808352979a99988101979196509182019450925082915084018382808284375094975061160f9650505050505050565b3480156104ee57600080fd5b50610206600160a060020a03600435166116fc565b34801561050f57600080fd5b5061012861171f565b34801561052457600080fd5b506040805160206004803580820135601f810184900484028501840190955284845261012894369492936024939284019190819084018382808284375050604080516020601f89358b018035918201839004830284018301909452808352979a9998810197919650918201945092508291508401838280828437509497506117569650505050505050565b60408051808201909152601281527f736f66745f6361705f6c6f6e675f646573630000000000000000000000000000602082015281565b60408051808201909152601881527f686172645f6361705f6c6566745f73686f72745f646573630000000000000000602082015281565b60408051808201909152601381527f686172645f6361705f73686f72745f6465736300000000000000000000000000602082015281565b60408051808201909152600881526000805160206147a5833981519152602082015281565b60408051808201909152601781527f686172645f6361705f6c6566745f6c6f6e675f64657363000000000000000000602082015281565b600054600160a060020a031633146106c757600080fd5b60008054604051600160a060020a03909116917ff8df31144d9c2f0f6b59d69b8b98abd5459d07f2742c4df920b25aae33c6482091a26000805473ffffffffffffffffffffffffffffffffffffffff19169055565b600054600160a060020a031681565b60408051808201909152601781527f736f66745f6361705f6c6566745f6c6f6e675f64657363000000000000000000602082015281565b60408051808201909152600e81527f7570646174655f636f6e6669726d000000000000000000000000000000000000602082015281565b60408051808201909152600881526000805160206147c5833981519152602082015281565b604080516003808252608082019092526060918291829160009190816020015b6107e66145cd565b8152602001906001900390816107de57905050925060e0604051908101604052806001151581526020016040805190810160405280600881526020016000805160206147c583398151915281525081526020016040805190810160405280600781526020017f657468456469740000000000000000000000000000000000000000000000000081525081526020016001886040518082805190602001908083835b602083106108a65780518252601f199092019160209182019101610887565b51815160209384036101000a6000190180199092169116179052920194855250604080519485900382018520858201825260088087526000805160206147c583398151915293870193845291519095945092508291908083835b6020831061091f5780518252601f199092019160209182019101610900565b518151600019602094850361010090810a820192831692199390931691909117909252949092019687526040805197889003820188208054601f60026001831615909802909501169590950492830182900482028801820190528187529294509250508301828280156109d35780601f106109a8576101008083540402835291602001916109d3565b820191906000526020600020905b8154815290600101906020018083116109b657829003601f168201915b50505050508152602001610a4f87600160a060020a031663906a26e06040518163ffffffff1660e060020a028152600401602060405180830381600087803b158015610a1e57600080fd5b505af1158015610a32573d6000803e3d6000fd5b505050506040513d6020811015610a4857600080fd5b50516118a7565b8152602001610a5c611a06565b8152602001610a69611a59565b9052835184906000908110610a7a57fe5b9060200190602002018190525060e0604051908101604052806001151581526020016040805190810160405280600881526020016000805160206147a583398151915281525081526020016040805190810160405280600781526020017f657468456469740000000000000000000000000000000000000000000000000081525081526020016001886040518082805190602001908083835b60208310610b325780518252601f199092019160209182019101610b13565b51815160209384036101000a6000190180199092169116179052920194855250604080519485900382018520858201825260088087526000805160206147a583398151915293870193845291519095945092508291908083835b60208310610bab5780518252601f199092019160209182019101610b8c565b518151600019602094850361010090810a820192831692199390931691909117909252949092019687526040805197889003820188208054601f6002600183161590980290950116959095049283018290048202880182019052818752929450925050830182828015610c5f5780601f10610c3457610100808354040283529160200191610c5f565b820191906000526020600020905b815481529060010190602001808311610c4257829003601f168201915b50505050508152602001610caa87600160a060020a031663fb86a4046040518163ffffffff1660e060020a028152600401602060405180830381600087803b158015610a1e57600080fd5b8152602001610cb7611a06565b8152602001610cc4611a59565b9052835184906001908110610cd557fe5b9060200190602002018190525060e0604051908101604052806001151581526020016040805190810160405280600681526020017f757064617465000000000000000000000000000000000000000000000000000081525081526020016040805190810160405280600681526020017f627574746f6e000000000000000000000000000000000000000000000000000081525081526020016001886040518082805190602001908083835b60208310610d9f5780518252601f199092019160209182019101610d80565b51815160209384036101000a6000190180199092169116179052920194855250604080519485900382018520858201825260068087527f757064617465000000000000000000000000000000000000000000000000000093870193845291519095945092508291908083835b60208310610e2a5780518252601f199092019160209182019101610e0b565b518151600019602094850361010090810a820192831692199390931691909117909252949092019687526040805197889003820188208054601f6002600183161590980290950116959095049283018290048202880182019052818752929450925050830182828015610ede5780601f10610eb357610100808354040283529160200191610ede565b820191906000526020600020905b815481529060010190602001808311610ec157829003601f168201915b505050505081526020016040805190810160405280600481526020017f6e756c6c00000000000000000000000000000000000000000000000000000000815250815260200160a06040519081016040528060011515815260200188600160a060020a031681526020016040805190810160405280601781526020017f7570646174652875696e743235362c75696e743235362900000000000000000081525081526020016040805190810160405280601781526020017f5b22736f66745f636170222c22686172645f636170225d000000000000000000815250815260200160018a6040518082805190602001908083835b60208310610fef5780518252601f199092019160209182019101610fd0565b51815160209384036101000a60001901801990921691161790529201948552506040805194859003820185208582018252600e8087527f7570646174655f636f6e6669726d00000000000000000000000000000000000093870193845291519095945092508291908083835b6020831061107a5780518252601f19909201916020918201910161105b565b518151600019602094850361010090810a820192831692199390931691909117909252949092019687526040805197889003820188208054601f600260018316159098029095011695909504928301829004820288018201905281875292945092505083018282801561112e5780601f106111035761010080835404028352916020019161112e565b820191906000526020600020905b81548152906001019060200180831161111157829003601f168201915b50505050508152508152602001611143611a59565b905283518490600290811061115457fe5b906020019060200201819052506040805190810160405280600181526020017f5b000000000000000000000000000000000000000000000000000000000000008152509150600090505b82518110156112255760008111156111f0576111ed6111d860408051908101604052806001815260200160fa60020a600b02815250611ae6565b6111e184611ae6565b9063ffffffff611b0f16565b91505b61121b6111d8611216858481518110151561120757fe5b90602001906020020151611b86565b611ae6565b915060010161119e565b6112666111d86040805190810160405280600181526020017f5d00000000000000000000000000000000000000000000000000000000000000815250611ae6565b9695505050505050565b60408051808201909152600d81527f686172645f6361705f6c65667400000000000000000000000000000000000000602082015281565b60408051808201909152601281527f686172645f6361705f6c6f6e675f646573630000000000000000000000000000602082015281565b60408051808201909152601881527f736f66745f6361705f6c6566745f73686f72745f646573630000000000000000602082015281565b60408051808201909152600681527f7570646174650000000000000000000000000000000000000000000000000000602082015281565b60408051808201909152601381527f736f66745f6361705f73686f72745f6465736300000000000000000000000000602082015281565b6060806000611390614619565b600060606040805190810160405280600181526020017f5b000000000000000000000000000000000000000000000000000000000000008152509450600093506080604051908101604052806113e88a8a6000611e74565b81526020016113f98a8a600061252f565b815260200161140a8a8a6000612ad9565b815260200161141b8a8a60006133f2565b90529250600091505b60048210156114a75782826004811061143957fe5b6020020151905060008151111561149c5760008411156114875761148461147b60408051908101604052806001815260200160fa60020a600b02815250611ae6565b6111e187611ae6565b94505b61149361147b82611ae6565b94506001909301925b600190910190611424565b6114e861147b6040805190810160405280600181526020017f5d00000000000000000000000000000000000000000000000000000000000000815250611ae6565b98975050505050505050565b6060806000611501614619565b600060606040805190810160405280600181526020017f5b000000000000000000000000000000000000000000000000000000000000008152509450600093506080604051908101604052806115598a8a6001611e74565b815260200161156a8a8a600161252f565b815260200161157b8a8a6001612ad9565b815260200161158c8a8a60016133f2565b90529250600091505b60048210156114a7578282600481106115aa57fe5b602002015190506000815111156116045760008411156115ef576115ec61147b60408051908101604052806001815260200160fa60020a600b02815250611ae6565b94505b6115fb61147b82611ae6565b94506001909301925b600190910190611595565b600054600160a060020a0316331461162657600080fd5b806001846040518082805190602001908083835b602083106116595780518252601f19909201916020918201910161163a565b51815160209384036101000a6000190180199092169116179052920194855250604051938490038101842087519094889450925082918401908083835b602083106116b55780518252601f199092019160209182019101611696565b51815160209384036101000a600019018019909216911617905292019485525060405193849003810190932084516116f69591949190910192509050614641565b50505050565b600054600160a060020a0316331461171357600080fd5b61171c81613bf9565b50565b60408051808201909152600d81527f736f66745f6361705f6c65667400000000000000000000000000000000000000602082015281565b60606001836040518082805190602001908083835b6020831061178a5780518252601f19909201916020918201910161176b565b51815160209384036101000a6000190180199092169116179052920194855250604051938490038101842086519094879450925082918401908083835b602083106117e65780518252601f1990920191602091820191016117c7565b518151600019602094850361010090810a820192831692199390931691909117909252949092019687526040805197889003820188208054601f600260018316159098029095011695909504928301829004820288018201905281875292945092505083018282801561189a5780601f1061186f5761010080835404028352916020019161189a565b820191906000526020600020905b81548152906001019060200180831161187d57829003601f168201915b5050505050905092915050565b606080600081818515156118f05760408051808201909152600181527f3000000000000000000000000000000000000000000000000000000000000000602082015294506119fd565b6040805160208082528183019092529080820161040080388339019050509350600092505b600086111561196257600a860660300160f860020a02848481518110151561193957fe5b906020010190600160f860020a031916908160001a905350600a86049550600190920191611915565b60408051848152601f19601f86011681016020019091526000198401938015611995578160200160208202803883390190505b509150600090505b81518110156119f9578351600019840193859181106119b857fe5b90602001015160f860020a900460f860020a0282828151811015156119d957fe5b906020010190600160f860020a031916908160001a90535060010161199d565b8194505b50505050919050565b611a0e6146bf565b506040805160a0810182526000808252602080830182905283518082018552828152838501528351808201855282815260608401528351908101909352825260808101919091525b90565b611a616146ec565b60408051606081018252600080825282518181526020818101909452919283019190611aa3565b611a90614710565b815260200190600190039081611a885790505b5081526020016000604051908082528060200260200182016040528015611ade57816020015b6060815260200190600190039081611ac95790505b509052905090565b611aee614743565b50604080518082019091528151815260208281019082018190525b50919050565b606080600083600001518560000151016040519080825280601f01601f191660200182016040528015611b4c578160200160208202803883390190505b509150602082019050611b688186602001518760000151613c76565b845160208501518551611b7e9284019190613c76565b509392505050565b606080826000015115611e39576040805190810160405280600781526020017f7b226964223a22000000000000000000000000000000000000000000000000008152509050611be4611bdb8460200151611ae6565b6111e183611ae6565b9050611c27611bdb6040805190810160405280600181526020017f2200000000000000000000000000000000000000000000000000000000000000815250611ae6565b60a08401515190915015611c8e57611c76611bdb6040805190810160405280600b81526020017f2c2022616374696f6e223a000000000000000000000000000000000000000000815250611ae6565b9050611c8b611bdb6112168560a00151613cba565b90505b60c08301515115611cf257611cda611bdb6040805190810160405280600a81526020017f2c20227461626c65223a00000000000000000000000000000000000000000000815250611ae6565b9050611cef611bdb6112168560c00151613e5d565b90505b611d33611bdb6040805190810160405280600981526020017f2c2274797065223a220000000000000000000000000000000000000000000000815250611ae6565b9050611d45611bdb8460400151611ae6565b9050611d88611bdb6040805190810160405280600b81526020017f222c226c6162656c223a22000000000000000000000000000000000000000000815250611ae6565b9050611d9a611bdb8460600151611ae6565b9050611ddd611bdb6040805190810160405280600981526020017f222c2264617461223a0000000000000000000000000000000000000000000000815250611ae6565b9050611def611bdb8460800151611ae6565b9050611e32611bdb6040805190810160405280600181526020017f7d00000000000000000000000000000000000000000000000000000000000000815250611ae6565b9150611b09565b60408051808201909152600481527f6e756c6c0000000000000000000000000000000000000000000000000000000060208201529150611b09565b606080611e7f61475a565b8380611f64575084600160a060020a0316636ad1fe026040518163ffffffff1660e060020a028152600401602060405180830381600087803b158015611ec457600080fd5b505af1158015611ed8573d6000803e3d6000fd5b505050506040513d6020811015611eee57600080fd5b50516040805160e160020a630c3300e50281529051600160a060020a039092169163186601ca916004808201926020929091908290030181600087803b158015611f3757600080fd5b505af1158015611f4b573d6000803e3d6000fd5b505050506040513d6020811015611f6157600080fd5b50515b156125145760408051600180825281830190925290816020015b611f866145cd565b815260200190600190039081611f7e57905050915060e0604051908101604052806001151581526020016040805190810160405280600881526020016000805160206147c5833981519152815250815260200160408051908101604052806003815260200160eb60020a620cae8d0281525081526020016020604051908101604052806000815250815260200161205487600160a060020a031663906a26e06040518163ffffffff1660e060020a028152600401602060405180830381600087803b158015610a1e57600080fd5b8152602001612061611a06565b815260200161206e611a59565b905282518390600090811061207f57fe5b9060200190602002018190525060a0604051908101604052806001886040518082805190602001908083835b602083106120ca5780518252601f1990920191602091820191016120ab565b51815160209384036101000a6000190180199092169116179052920194855250604080519485900382018520858201825260088087526000805160206147c583398151915293870193845291519095945092508291908083835b602083106121435780518252601f199092019160209182019101612124565b518151600019602094850361010090810a820192831692199390931691909117909252949092019687526040805197889003820188208054601f60026001831615909802909501169590950492830182900482028801820190528187529294509250508301828280156121f75780601f106121cc576101008083540402835291602001916121f7565b820191906000526020600020905b8154815290600101906020018083116121da57829003601f168201915b505050505081526020016001886040518082805190602001908083835b602083106122335780518252601f199092019160209182019101612214565b51815160209384036101000a6000190180199092169116179052920194855250604080519485900382018520858201825260138087527f736f66745f6361705f73686f72745f646573630000000000000000000000000093870193845291519095945092508291908083835b602083106122be5780518252601f19909201916020918201910161229f565b518151600019602094850361010090810a820192831692199390931691909117909252949092019687526040805197889003820188208054601f60026001831615909802909501169590950492830182900482028801820190528187529294509250508301828280156123725780601f1061234757610100808354040283529160200191612372565b820191906000526020600020905b81548152906001019060200180831161235557829003601f168201915b505050505081526020016001886040518082805190602001908083835b602083106123ae5780518252601f19909201916020918201910161238f565b51815160209384036101000a6000190180199092169116179052920194855250604080519485900382018520858201825260128087527f736f66745f6361705f6c6f6e675f64657363000000000000000000000000000093870193845291519095945092508291908083835b602083106124395780518252601f19909201916020918201910161241a565b518151600019602094850361010090810a820192831692199390931691909117909252949092019687526040805197889003820188208054601f60026001831615909802909501169590950492830182900482028801820190528187529294509250508301828280156124ed5780601f106124c2576101008083540402835291602001916124ed565b820191906000526020600020905b8154815290600101906020018083116124d057829003601f168201915b505050505081526020016004815260200183815250905061250d81614074565b9250612526565b60408051602081019091526000815292505b50509392505050565b60608061253a61475a565b838061261f575084600160a060020a0316636ad1fe026040518163ffffffff1660e060020a028152600401602060405180830381600087803b15801561257f57600080fd5b505af1158015612593573d6000803e3d6000fd5b505050506040513d60208110156125a957600080fd5b50516040805160e160020a630c3300e50281529051600160a060020a039092169163186601ca916004808201926020929091908290030181600087803b1580156125f257600080fd5b505af1158015612606573d6000803e3d6000fd5b505050506040513d602081101561261c57600080fd5b50515b156125145760408051600180825281830190925290816020015b6126416145cd565b81526020019060019003908161263957905050915060e0604051908101604052806001151581526020016040805190810160405280600881526020016000805160206147a5833981519152815250815260200160408051908101604052806003815260200160eb60020a620cae8d0281525081526020016020604051908101604052806000815250815260200161270f87600160a060020a031663fb86a4046040518163ffffffff1660e060020a028152600401602060405180830381600087803b158015610a1e57600080fd5b815260200161271c611a06565b8152602001612729611a59565b905282518390600090811061273a57fe5b9060200190602002018190525060a0604051908101604052806001886040518082805190602001908083835b602083106127855780518252601f199092019160209182019101612766565b51815160209384036101000a6000190180199092169116179052920194855250604080519485900382018520858201825260088087526000805160206147a583398151915293870193845291519095945092508291908083835b602083106127fe5780518252601f1990920191602091820191016127df565b518151600019602094850361010090810a820192831692199390931691909117909252949092019687526040805197889003820188208054601f60026001831615909802909501169590950492830182900482028801820190528187529294509250508301828280156128b25780601f10612887576101008083540402835291602001916128b2565b820191906000526020600020905b81548152906001019060200180831161289557829003601f168201915b505050505081526020016001886040518082805190602001908083835b602083106128ee5780518252601f1990920191602091820191016128cf565b51815160209384036101000a6000190180199092169116179052920194855250604080519485900382018520858201825260138087527f686172645f6361705f73686f72745f646573630000000000000000000000000093870193845291519095945092508291908083835b602083106129795780518252601f19909201916020918201910161295a565b518151600019602094850361010090810a820192831692199390931691909117909252949092019687526040805197889003820188208054601f6002600183161590980290950116959095049283018290048202880182019052818752929450925050830182828015612a2d5780601f10612a0257610100808354040283529160200191612a2d565b820191906000526020600020905b815481529060010190602001808311612a1057829003601f168201915b505050505081526020016001886040518082805190602001908083835b60208310612a695780518252601f199092019160209182019101612a4a565b51815160209384036101000a6000190180199092169116179052920194855250604080519485900382018520858201825260128087527f686172645f6361705f6c6f6e675f6465736300000000000000000000000000009387019384529151909594509250829190808383612439565b6060806000612ae661475a565b8480612cc6575085600160a060020a0316636ad1fe026040518163ffffffff1660e060020a028152600401602060405180830381600087803b158015612b2b57600080fd5b505af1158015612b3f573d6000803e3d6000fd5b505050506040513d6020811015612b5557600080fd5b50516040805160e160020a630c3300e50281529051600160a060020a039092169163186601ca916004808201926020929091908290030181600087803b158015612b9e57600080fd5b505af1158015612bb2573d6000803e3d6000fd5b505050506040513d6020811015612bc857600080fd5b50518015612cc6575085600160a060020a0316636ad1fe026040518163ffffffff1660e060020a028152600401602060405180830381600087803b158015612c0f57600080fd5b505af1158015612c23573d6000803e3d6000fd5b505050506040513d6020811015612c3957600080fd5b5051604080517f9a9e3fd80000000000000000000000000000000000000000000000000000000081529051600160a060020a0390921691639a9e3fd8916004808201926020929091908290030181600087803b158015612c9857600080fd5b505af1158015612cac573d6000803e3d6000fd5b505050506040513d6020811015612cc257600080fd5b5051155b156133d65760408051600180825281830190925290816020015b612ce86145cd565b815260200190600190039081612ce057905050925085600160a060020a0316636ad1fe026040518163ffffffff1660e060020a028152600401602060405180830381600087803b158015612d3b57600080fd5b505af1158015612d4f573d6000803e3d6000fd5b505050506040513d6020811015612d6557600080fd5b5051604080517f4042b66f0000000000000000000000000000000000000000000000000000000081529051600160a060020a0390921691634042b66f916004808201926020929091908290030181600087803b158015612dc457600080fd5b505af1158015612dd8573d6000803e3d6000fd5b505050506040513d6020811015612dee57600080fd5b5051604080517f906a26e00000000000000000000000000000000000000000000000000000000081529051600160a060020a0389169163906a26e09160048083019260209291908290030181600087803b158015612e4b57600080fd5b505af1158015612e5f573d6000803e3d6000fd5b505050506040513d6020811015612e7557600080fd5b50516040805160e0810182526001815281518083018352600d81527f736f66745f6361705f6c6566740000000000000000000000000000000000000060208281019190915282810191909152825180840184526003815260eb60020a620cae8d0281830152828401528251908101909252600082526060810191909152919003925060808101612f04846118a7565b8152602001612f11611a06565b8152602001612f1e611a59565b9052835184906000908110612f2f57fe5b9060200190602002018190525060a0604051908101604052806001896040518082805190602001908083835b60208310612f7a5780518252601f199092019160209182019101612f5b565b51815160209384036101000a60001901801990921691161790529201948552506040805194859003820185208582018252600d8087527f736f66745f6361705f6c6566740000000000000000000000000000000000000093870193845291519095945092508291908083835b602083106130055780518252601f199092019160209182019101612fe6565b518151600019602094850361010090810a820192831692199390931691909117909252949092019687526040805197889003820188208054601f60026001831615909802909501169590950492830182900482028801820190528187529294509250508301828280156130b95780601f1061308e576101008083540402835291602001916130b9565b820191906000526020600020905b81548152906001019060200180831161309c57829003601f168201915b505050505081526020016001896040518082805190602001908083835b602083106130f55780518252601f1990920191602091820191016130d6565b51815160209384036101000a6000190180199092169116179052920194855250604080519485900382018520858201825260188087527f736f66745f6361705f6c6566745f73686f72745f64657363000000000000000093870193845291519095945092508291908083835b602083106131805780518252601f199092019160209182019101613161565b518151600019602094850361010090810a820192831692199390931691909117909252949092019687526040805197889003820188208054601f60026001831615909802909501169590950492830182900482028801820190528187529294509250508301828280156132345780601f1061320957610100808354040283529160200191613234565b820191906000526020600020905b81548152906001019060200180831161321757829003601f168201915b505050505081526020016001896040518082805190602001908083835b602083106132705780518252601f199092019160209182019101613251565b51815160209384036101000a6000190180199092169116179052920194855250604080519485900382018520858201825260178087527f736f66745f6361705f6c6566745f6c6f6e675f6465736300000000000000000093870193845291519095945092508291908083835b602083106132fb5780518252601f1990920191602091820191016132dc565b518151600019602094850361010090810a820192831692199390931691909117909252949092019687526040805197889003820188208054601f60026001831615909802909501169590950492830182900482028801820190528187529294509250508301828280156133af5780601f10613384576101008083540402835291602001916133af565b820191906000526020600020905b81548152906001019060200180831161339257829003601f168201915b50505050508152602001600481526020018481525090506133cf81614074565b93506133e8565b60408051602081019091526000815293505b5050509392505050565b60608060006133ff61475a565b84806135df575085600160a060020a0316636ad1fe026040518163ffffffff1660e060020a028152600401602060405180830381600087803b15801561344457600080fd5b505af1158015613458573d6000803e3d6000fd5b505050506040513d602081101561346e57600080fd5b50516040805160e160020a630c3300e50281529051600160a060020a039092169163186601ca916004808201926020929091908290030181600087803b1580156134b757600080fd5b505af11580156134cb573d6000803e3d6000fd5b505050506040513d60208110156134e157600080fd5b505180156135df575085600160a060020a0316636ad1fe026040518163ffffffff1660e060020a028152600401602060405180830381600087803b15801561352857600080fd5b505af115801561353c573d6000803e3d6000fd5b505050506040513d602081101561355257600080fd5b5051604080517fbef4876b0000000000000000000000000000000000000000000000000000000081529051600160a060020a039092169163bef4876b916004808201926020929091908290030181600087803b1580156135b157600080fd5b505af11580156135c5573d6000803e3d6000fd5b505050506040513d60208110156135db57600080fd5b5051155b156133d65760408051600180825281830190925290816020015b6136016145cd565b8152602001906001900390816135f957905050925085600160a060020a0316636ad1fe026040518163ffffffff1660e060020a028152600401602060405180830381600087803b15801561365457600080fd5b505af1158015613668573d6000803e3d6000fd5b505050506040513d602081101561367e57600080fd5b5051604080517f4042b66f0000000000000000000000000000000000000000000000000000000081529051600160a060020a0390921691634042b66f916004808201926020929091908290030181600087803b1580156136dd57600080fd5b505af11580156136f1573d6000803e3d6000fd5b505050506040513d602081101561370757600080fd5b5051604080517ffb86a4040000000000000000000000000000000000000000000000000000000081529051600160a060020a0389169163fb86a4049160048083019260209291908290030181600087803b15801561376457600080fd5b505af1158015613778573d6000803e3d6000fd5b505050506040513d602081101561378e57600080fd5b50516040805160e0810182526001815281518083018352600d81527f686172645f6361705f6c6566740000000000000000000000000000000000000060208281019190915282810191909152825180840184526003815260eb60020a620cae8d028183015282840152825190810190925260008252606081019190915291900392506080810161381d846118a7565b815260200161382a611a06565b8152602001613837611a59565b905283518490600090811061384857fe5b9060200190602002018190525060a0604051908101604052806001896040518082805190602001908083835b602083106138935780518252601f199092019160209182019101613874565b51815160209384036101000a60001901801990921691161790529201948552506040805194859003820185208582018252600d8087527f686172645f6361705f6c6566740000000000000000000000000000000000000093870193845291519095945092508291908083835b6020831061391e5780518252601f1990920191602091820191016138ff565b518151600019602094850361010090810a820192831692199390931691909117909252949092019687526040805197889003820188208054601f60026001831615909802909501169590950492830182900482028801820190528187529294509250508301828280156139d25780601f106139a7576101008083540402835291602001916139d2565b820191906000526020600020905b8154815290600101906020018083116139b557829003601f168201915b505050505081526020016001896040518082805190602001908083835b60208310613a0e5780518252601f1990920191602091820191016139ef565b51815160209384036101000a6000190180199092169116179052920194855250604080519485900382018520858201825260188087527f686172645f6361705f6c6566745f73686f72745f64657363000000000000000093870193845291519095945092508291908083835b60208310613a995780518252601f199092019160209182019101613a7a565b518151600019602094850361010090810a820192831692199390931691909117909252949092019687526040805197889003820188208054601f6002600183161590980290950116959095049283018290048202880182019052818752929450925050830182828015613b4d5780601f10613b2257610100808354040283529160200191613b4d565b820191906000526020600020905b815481529060010190602001808311613b3057829003601f168201915b505050505081526020016001896040518082805190602001908083835b60208310613b895780518252601f199092019160209182019101613b6a565b51815160209384036101000a6000190180199092169116179052920194855250604080519485900382018520858201825260178087527f686172645f6361705f6c6566745f6c6f6e675f6465736300000000000000000093870193845291519095945092508291908083836132fb565b600160a060020a0381161515613c0e57600080fd5b60008054604051600160a060020a03808516939216917f8be0079c531659141344cd1fd0a4f28419497f9722a3daafe3b4186f6b6457e091a36000805473ffffffffffffffffffffffffffffffffffffffff1916600160a060020a0392909216919091179055565b60005b60208210613c9b578251845260209384019390920191601f1990910190613c79565b50905182516020929092036101000a6000190180199091169116179052565b606080826000015115611e39576040805190810160405280600c81526020017f7b2261646472657373223a2200000000000000000000000000000000000000008152509050613d1b611bdb6112168560200151600160a060020a03166142b9565b9050613d5e611bdb6040805190810160405280601681526020017f222c2266756e6374696f6e53656c6563746f72223a2200000000000000000000815250611ae6565b9050613d70611bdb8460400151611ae6565b9050613db3611bdb6040805190810160405280600e81526020017f222c22617267756d656e7473223a000000000000000000000000000000000000815250611ae6565b9050613dc5611bdb8460600151611ae6565b9050613e08611bdb6040805190810160405280600c81526020017f2c22636f6e6669726d223a220000000000000000000000000000000000000000815250611ae6565b9050613e1a611bdb8460800151611ae6565b9050611e32611bdb6040805190810160405280600281526020017f227d000000000000000000000000000000000000000000000000000000000000815250611ae6565b60608060008084600001511561403557505060408051808201909152600c81527f7b22636f6c756d6e73223a5b0000000000000000000000000000000000000000602082015290506000805b846020015151811015613f2b576000821115613ef357613ef0613ee760408051908101604052806001815260200160fa60020a600b02815250611ae6565b6111e185611ae6565b92505b613f1d613ee7611216876020015184815181101515613f0e57fe5b906020019060200201516143fc565b925060019182019101613ea9565b613f6c613ee76040805190810160405280600a81526020017f5d2c22726f7773223a5b00000000000000000000000000000000000000000000815250611ae6565b925060009150600090505b846040015151811015613fed576000821115613fb857613fb5613ee760408051908101604052806001815260200160fa60020a600b02815250611ae6565b92505b613fdf613ee7866040015183815181101515613fd057fe5b90602001906020020151611ae6565b925060019182019101613f77565b61402e613ee76040805190810160405280600281526020017f5d7d000000000000000000000000000000000000000000000000000000000000815250611ae6565b935061406c565b60408051808201909152600481527f6e756c6c00000000000000000000000000000000000000000000000000000000602082015293505b505050919050565b60408051808201909152600a81527f7b227469746c65223a220000000000000000000000000000000000000000000060208201528151606091906000906140be906111d890611ae6565b91506141016111d86040805190810160405280600f81526020017f222c2273686f727444657363223a220000000000000000000000000000000000815250611ae6565b91506141136111d88560200151611ae6565b91506141566111d86040805190810160405280600e81526020017f222c226c6f6e6744657363223a22000000000000000000000000000000000000815250611ae6565b91506141686111d88560400151611ae6565b91506141ab6111d86040805190810160405280600a81526020017f222c227769647468223a00000000000000000000000000000000000000000000815250611ae6565b91506141c06111d861121686606001516118a7565b91506142036111d86040805190810160405280600d81526020017f2c22656c656d656e7473223a5b00000000000000000000000000000000000000815250611ae6565b9150600090505b83608001515181101561427057600081111561424b576142486111d860408051908101604052806001815260200160fa60020a600b02815250611ae6565b91505b6142666111d861121686608001518481518110151561120757fe5b915060010161420a565b6142b16111d86040805190810160405280600281526020017f5d7d000000000000000000000000000000000000000000000000000000000000815250611ae6565b949350505050565b60408051602a80825260608083019093528291600091829182916020820161054080388339505081519195507f300000000000000000000000000000000000000000000000000000000000000091869150600090811061431557fe5b906020010190600160f860020a031916908160001a90535083517f7800000000000000000000000000000000000000000000000000000000000000908590600190811061435e57fe5b906020010190600160f860020a031916908160001a905350859250600091505b60288210156143f257506030600f8316016039600160a060020a03821611156143a5576027015b8060f860020a0284836028036001018151811015156143c057fe5b906020010190600160f860020a031916908160001a9053506010600160a060020a03841604925060019091019061437e565b5091949350505050565b606080826000015115611e39576040805190810160405280600781526020017f7b226964223a22000000000000000000000000000000000000000000000000008152509050614451611bdb8460200151611ae6565b9050614494611bdb6040805190810160405280600181526020017f2200000000000000000000000000000000000000000000000000000000000000815250611ae6565b60808401515190915015614525576144ca611bdb60408051908101604052806001815260200160fa60020a600b02815250611ae6565b905061450d611bdb6040805190810160405280600981526020017f22616374696f6e223a0000000000000000000000000000000000000000000000815250611ae6565b9050614522611bdb6112168560800151613cba565b90505b614566611bdb6040805190810160405280600981526020017f2c2274797065223a220000000000000000000000000000000000000000000000815250611ae6565b9050614578611bdb8460400151611ae6565b90506145bb611bdb6040805190810160405280600b81526020017f222c226c6162656c223a22000000000000000000000000000000000000000000815250611ae6565b9050613e1a611bdb8460600151611ae6565b6101a060405190810160405280600015158152602001606081526020016060815260200160608152602001606081526020016146076146bf565b81526020016146146146ec565b905290565b6080604051908101604052806004905b60608152602001906001900390816146295790505090565b828054600181600116156101000203166002900490600052602060002090601f016020900481019282601f1061468257805160ff19168380011785556146af565b828001600101855582156146af579182015b828111156146af578251825591602001919060010190614694565b506146bb92915061478a565b5090565b6040805160a081018252600080825260208201526060918101829052818101829052608081019190915290565b60606040519081016040528060001515815260200160608152602001606081525090565b610120604051908101604052806000151581526020016060815260200160608152602001606081526020016146146146bf565b604080518082019091526000808252602082015290565b60a06040519081016040528060608152602001606081526020016060815260200160008152602001606081525090565b611a5691905b808211156146bb57600081556001016147905600686172645f636170000000000000000000000000000000000000000000000000736f66745f636170000000000000000000000000000000000000000000000000a165627a7a72305820b34b4617ae4347bc3c1116098fa37b600739bea329ebaa948d7690a1ed301f530029",
  "source": "pragma solidity ^0.4.24;\n\nimport \"tokenboost-solidity/contracts/widget/Localizable.sol\";\nimport \"tokenboost-solidity/contracts/widget/Widgets.sol\";\nimport \"../SoftHardCapStrategy.sol\";\n\ncontract SoftHardCapStrategyRenderer is Localizable {\n    using Widgets for Widgets.Widget;\n    using Elements for Elements.Element;\n    using strings for *;\n    using UintUtils for uint;\n\n    string public constant SOFT_CAP = \"soft_cap\";\n    string public constant SOFT_CAP_SHORT_DESC = \"soft_cap_short_desc\";\n    string public constant SOFT_CAP_LONG_DESC = \"soft_cap_long_desc\";\n    string public constant HARD_CAP = \"hard_cap\";\n    string public constant HARD_CAP_SHORT_DESC = \"hard_cap_short_desc\";\n    string public constant HARD_CAP_LONG_DESC = \"hard_cap_long_desc\";\n    string public constant SOFT_CAP_LEFT = \"soft_cap_left\";\n    string public constant SOFT_CAP_LEFT_SHORT_DESC = \"soft_cap_left_short_desc\";\n    string public constant SOFT_CAP_LEFT_LONG_DESC = \"soft_cap_left_long_desc\";\n    string public constant HARD_CAP_LEFT = \"hard_cap_left\";\n    string public constant HARD_CAP_LEFT_SHORT_DESC = \"hard_cap_left_short_desc\";\n    string public constant HARD_CAP_LEFT_LONG_DESC = \"hard_cap_left_long_desc\";\n    string public constant UPDATE = \"update\";\n    string public constant UPDATE_CONFIRM = \"update_confirm\";\n\n    function adminWidgets(string _locale, SoftHardCapStrategy _strategy) public view returns (string) {\n        string memory json = \"[\";\n        uint length = 0;\n        string[4] memory widgets = [\n        _softCapWidget(_locale, _strategy, true),\n        _hardCapWidget(_locale, _strategy, true),\n        _softCapLeftWidget(_locale, _strategy, true),\n        _hardCapLeftWidget(_locale, _strategy, true)\n        ];\n        for (uint i = 0; i < widgets.length; i++) {\n            string memory widget = widgets[i];\n            if (bytes(widget).length > 0) {\n                if (length > 0) {\n                    json = json.toSlice().concat(\",\".toSlice());\n                }\n                json = json.toSlice().concat(widget.toSlice());\n                length++;\n            }\n        }\n        return json.toSlice().concat(\"]\".toSlice());\n    }\n\n    function userWidgets(string _locale, SoftHardCapStrategy _strategy) public view returns (string) {\n        string memory json = \"[\";\n        uint length = 0;\n        string[4] memory widgets = [\n        _softCapWidget(_locale, _strategy, false),\n        _hardCapWidget(_locale, _strategy, false),\n        _softCapLeftWidget(_locale, _strategy, false),\n        _hardCapLeftWidget(_locale, _strategy, false)\n        ];\n        for (uint i = 0; i < widgets.length; i++) {\n            string memory widget = widgets[i];\n            if (bytes(widget).length > 0) {\n                if (length > 0) {\n                    json = json.toSlice().concat(\",\".toSlice());\n                }\n                json = json.toSlice().concat(widget.toSlice());\n                length++;\n            }\n        }\n        return json.toSlice().concat(\"]\".toSlice());\n    }\n\n    function _softCapWidget(string _locale, SoftHardCapStrategy _strategy, bool _admin) private view returns (string json) {\n        if (_admin || _strategy.sale().activated()) {\n            Elements.Element[] memory elements = new Elements.Element[](1);\n            elements[0] = Elements.Element(\n                true,\n                SOFT_CAP,\n                \"eth\",\n                \"\",\n                _strategy.softCap().toString(),\n                Actions.empty(),\n                Tables.empty()\n            );\n            Widgets.Widget memory widget = Widgets.Widget(\n                resources[_locale][SOFT_CAP],\n                resources[_locale][SOFT_CAP_SHORT_DESC],\n                resources[_locale][SOFT_CAP_LONG_DESC],\n                4,\n                elements\n            );\n            return widget.toJson();\n        } else {\n            return \"\";\n        }\n    }\n\n    function _hardCapWidget(string _locale, SoftHardCapStrategy _strategy, bool _admin) private view returns (string json) {\n        if (_admin || _strategy.sale().activated()) {\n            Elements.Element[] memory elements = new Elements.Element[](1);\n            elements[0] = Elements.Element(\n                true,\n                HARD_CAP,\n                \"eth\",\n                \"\",\n                _strategy.hardCap().toString(),\n                Actions.empty(),\n                Tables.empty()\n            );\n            Widgets.Widget memory widget = Widgets.Widget(\n                resources[_locale][HARD_CAP],\n                resources[_locale][HARD_CAP_SHORT_DESC],\n                resources[_locale][HARD_CAP_LONG_DESC],\n                4,\n                elements\n            );\n            return widget.toJson();\n        } else {\n            return \"\";\n        }\n    }\n\n    function _softCapLeftWidget(string _locale, SoftHardCapStrategy _strategy, bool _admin) private view returns (string json) {\n        if (_admin || _strategy.sale().activated() && !_strategy.sale().successful()) {\n            Elements.Element[] memory elements = new Elements.Element[](1);\n            uint256 left = _strategy.softCap() - _strategy.sale().weiRaised();\n            elements[0] = Elements.Element(\n                true,\n                SOFT_CAP_LEFT,\n                \"eth\",\n                \"\",\n                left.toString(),\n                Actions.empty(),\n                Tables.empty()\n            );\n            Widgets.Widget memory widget = Widgets.Widget(\n                resources[_locale][SOFT_CAP_LEFT],\n                resources[_locale][SOFT_CAP_LEFT_SHORT_DESC],\n                resources[_locale][SOFT_CAP_LEFT_LONG_DESC],\n                4,\n                elements\n            );\n            return widget.toJson();\n        } else {\n            return \"\";\n        }\n    }\n\n    function _hardCapLeftWidget(string _locale, SoftHardCapStrategy _strategy, bool _admin) private view returns (string json) {\n        if (_admin || _strategy.sale().activated() && !_strategy.sale().finished()) {\n            Elements.Element[] memory elements = new Elements.Element[](1);\n            uint256 left = _strategy.hardCap() - _strategy.sale().weiRaised();\n            elements[0] = Elements.Element(\n                true,\n                HARD_CAP_LEFT,\n                \"eth\",\n                \"\",\n                left.toString(),\n                Actions.empty(),\n                Tables.empty()\n            );\n            Widgets.Widget memory widget = Widgets.Widget(\n                resources[_locale][HARD_CAP_LEFT],\n                resources[_locale][HARD_CAP_LEFT_SHORT_DESC],\n                resources[_locale][HARD_CAP_LEFT_LONG_DESC],\n                4,\n                elements\n            );\n            return widget.toJson();\n        } else {\n            return \"\";\n        }\n    }\n\n    function inputs(string _locale, SoftHardCapStrategy _strategy) public view returns (string) {\n        Elements.Element[] memory elements = new Elements.Element[](3);\n        elements[0] = Elements.Element(\n            true,\n            SOFT_CAP,\n            \"ethEdit\",\n            resources[_locale][SOFT_CAP],\n            _strategy.softCap().toString(),\n            Actions.empty(),\n            Tables.empty()\n        );\n        elements[1] = Elements.Element(\n            true,\n            HARD_CAP,\n            \"ethEdit\",\n            resources[_locale][HARD_CAP],\n            _strategy.hardCap().toString(),\n            Actions.empty(),\n            Tables.empty()\n        );\n        elements[2] = Elements.Element(\n            true,\n            UPDATE,\n            \"button\",\n            resources[_locale][UPDATE],\n            \"null\",\n            Actions.Action(\n                true,\n                address(_strategy),\n                \"update(uint256,uint256)\",\n                '[\"soft_cap\",\"hard_cap\"]',\n                resources[_locale][UPDATE_CONFIRM]\n            ),\n            Tables.empty()\n        );\n        string memory json = \"[\";\n        for (uint i = 0; i < elements.length; i++) {\n            if (i > 0) {\n                json = json.toSlice().concat(','.toSlice());\n            }\n            json = json.toSlice().concat(elements[i].toJson().toSlice());\n        }\n        return json.toSlice().concat(']'.toSlice());\n    }\n}\n",
  "sourcePath": "/Users/yoonjae/SolidityProjects/tokenboost-solidity-erc20sale-strategies/contracts/strategy/sale/erc20/soft-hard-cap/widget/SoftHardCapStrategyRenderer.sol",
  "compiler": {
    "name": "solc",
    "version": "0.4.24+commit.e67f0147.Emscripten.clang"
  },
  "schemaVersion": "2.0.1",
  "updatedAt": "2018-10-23T18:51:22.037Z"
}