{
  "contractName": "SoftHardCapStrategyRenderer",
  "abi": [
    {
      "constant": true,
      "inputs": [],
      "name": "SOFT_CAP_LONG_DESC",
      "outputs": [
        {
          "name": "",
          "type": "string"
        }
      ],
      "payable": false,
      "stateMutability": "view",
      "type": "function"
    },
    {
      "constant": true,
      "inputs": [],
      "name": "HARD_CAP_LEFT_SHORT_DESC",
      "outputs": [
        {
          "name": "",
          "type": "string"
        }
      ],
      "payable": false,
      "stateMutability": "view",
      "type": "function"
    },
    {
      "constant": true,
      "inputs": [],
      "name": "HARD_CAP_SHORT_DESC",
      "outputs": [
        {
          "name": "",
          "type": "string"
        }
      ],
      "payable": false,
      "stateMutability": "view",
      "type": "function"
    },
    {
      "constant": true,
      "inputs": [],
      "name": "HARD_CAP",
      "outputs": [
        {
          "name": "",
          "type": "string"
        }
      ],
      "payable": false,
      "stateMutability": "view",
      "type": "function"
    },
    {
      "constant": true,
      "inputs": [],
      "name": "HARD_CAP_LEFT_LONG_DESC",
      "outputs": [
        {
          "name": "",
          "type": "string"
        }
      ],
      "payable": false,
      "stateMutability": "view",
      "type": "function"
    },
    {
      "constant": false,
      "inputs": [],
      "name": "renounceOwnership",
      "outputs": [],
      "payable": false,
      "stateMutability": "nonpayable",
      "type": "function"
    },
    {
      "constant": true,
      "inputs": [],
      "name": "owner",
      "outputs": [
        {
          "name": "",
          "type": "address"
        }
      ],
      "payable": false,
      "stateMutability": "view",
      "type": "function"
    },
    {
      "constant": true,
      "inputs": [],
      "name": "SOFT_CAP_LEFT_LONG_DESC",
      "outputs": [
        {
          "name": "",
          "type": "string"
        }
      ],
      "payable": false,
      "stateMutability": "view",
      "type": "function"
    },
    {
      "constant": true,
      "inputs": [],
      "name": "UPDATE_CONFIRM",
      "outputs": [
        {
          "name": "",
          "type": "string"
        }
      ],
      "payable": false,
      "stateMutability": "view",
      "type": "function"
    },
    {
      "constant": true,
      "inputs": [],
      "name": "SOFT_CAP",
      "outputs": [
        {
          "name": "",
          "type": "string"
        }
      ],
      "payable": false,
      "stateMutability": "view",
      "type": "function"
    },
    {
      "constant": true,
      "inputs": [],
      "name": "HARD_CAP_LEFT",
      "outputs": [
        {
          "name": "",
          "type": "string"
        }
      ],
      "payable": false,
      "stateMutability": "view",
      "type": "function"
    },
    {
      "constant": true,
      "inputs": [],
      "name": "HARD_CAP_LONG_DESC",
      "outputs": [
        {
          "name": "",
          "type": "string"
        }
      ],
      "payable": false,
      "stateMutability": "view",
      "type": "function"
    },
    {
      "constant": true,
      "inputs": [],
      "name": "SOFT_CAP_LEFT_SHORT_DESC",
      "outputs": [
        {
          "name": "",
          "type": "string"
        }
      ],
      "payable": false,
      "stateMutability": "view",
      "type": "function"
    },
    {
      "constant": true,
      "inputs": [],
      "name": "UPDATE",
      "outputs": [
        {
          "name": "",
          "type": "string"
        }
      ],
      "payable": false,
      "stateMutability": "view",
      "type": "function"
    },
    {
      "constant": true,
      "inputs": [],
      "name": "SOFT_CAP_SHORT_DESC",
      "outputs": [
        {
          "name": "",
          "type": "string"
        }
      ],
      "payable": false,
      "stateMutability": "view",
      "type": "function"
    },
    {
      "constant": false,
      "inputs": [
        {
          "name": "locale",
          "type": "string"
        },
        {
          "name": "key",
          "type": "string"
        },
        {
          "name": "value",
          "type": "string"
        }
      ],
      "name": "setResource",
      "outputs": [],
      "payable": false,
      "stateMutability": "nonpayable",
      "type": "function"
    },
    {
      "constant": false,
      "inputs": [
        {
          "name": "_newOwner",
          "type": "address"
        }
      ],
      "name": "transferOwnership",
      "outputs": [],
      "payable": false,
      "stateMutability": "nonpayable",
      "type": "function"
    },
    {
      "constant": true,
      "inputs": [],
      "name": "SOFT_CAP_LEFT",
      "outputs": [
        {
          "name": "",
          "type": "string"
        }
      ],
      "payable": false,
      "stateMutability": "view",
      "type": "function"
    },
    {
      "constant": true,
      "inputs": [
        {
          "name": "locale",
          "type": "string"
        },
        {
          "name": "key",
          "type": "string"
        }
      ],
      "name": "resource",
      "outputs": [
        {
          "name": "",
          "type": "string"
        }
      ],
      "payable": false,
      "stateMutability": "view",
      "type": "function"
    },
    {
      "anonymous": false,
      "inputs": [
        {
          "indexed": true,
          "name": "previousOwner",
          "type": "address"
        }
      ],
      "name": "OwnershipRenounced",
      "type": "event"
    },
    {
      "anonymous": false,
      "inputs": [
        {
          "indexed": true,
          "name": "previousOwner",
          "type": "address"
        },
        {
          "indexed": true,
          "name": "newOwner",
          "type": "address"
        }
      ],
      "name": "OwnershipTransferred",
      "type": "event"
    },
    {
      "constant": true,
      "inputs": [
        {
          "name": "_locale",
          "type": "string"
        },
        {
          "name": "_strategy",
          "type": "address"
        }
      ],
      "name": "adminWidgets",
      "outputs": [
        {
          "name": "",
          "type": "string"
        }
      ],
      "payable": false,
      "stateMutability": "view",
      "type": "function"
    },
    {
      "constant": true,
      "inputs": [
        {
          "name": "_locale",
          "type": "string"
        },
        {
          "name": "_strategy",
          "type": "address"
        }
      ],
      "name": "userWidgets",
      "outputs": [
        {
          "name": "",
          "type": "string"
        }
      ],
      "payable": false,
      "stateMutability": "view",
      "type": "function"
    },
    {
      "constant": true,
      "inputs": [
        {
          "name": "_locale",
          "type": "string"
        },
        {
          "name": "_strategy",
          "type": "address"
        }
      ],
      "name": "inputs",
      "outputs": [
        {
          "name": "",
          "type": "string"
        }
      ],
      "payable": false,
      "stateMutability": "view",
      "type": "function"
    }
  ],
  "bytecode": "0x608060405260008054600160a060020a031916331790556148d6806100256000396000f30060806040526004361061010e5763ffffffff60e060020a60003504166311a1df3b811461011357806313676f861461019d5780631fb09296146101b25780633a03171c146101c75780633a0594e0146101dc578063715018a6146101f15780638da5cb5b146102085780639b81b80714610239578063b07b3c781461024e578063b652dc2f14610263578063bf3bed5414610278578063c8f3f99b146102dc578063cd7d65f4146102f1578063cee5992314610306578063d30f6e201461031b578063dd5aaf6f14610330578063e77cee3d14610345578063e9499555146103a9578063ed3487fe1461040d578063f2fde38b146104e2578063f4c7786e14610503578063f65a5c1b14610518575b600080fd5b34801561011f57600080fd5b506101286105af565b6040805160208082528351818301528351919283929083019185019080838360005b8381101561016257818101518382015260200161014a565b50505050905090810190601f16801561018f5780820380516001836020036101000a031916815260200191505b509250505060405180910390f35b3480156101a957600080fd5b506101286105e6565b3480156101be57600080fd5b5061012861061d565b3480156101d357600080fd5b50610128610654565b3480156101e857600080fd5b50610128610679565b3480156101fd57600080fd5b506102066106b0565b005b34801561021457600080fd5b5061021d61071c565b60408051600160a060020a039092168252519081900360200190f35b34801561024557600080fd5b5061012861072b565b34801561025a57600080fd5b50610128610762565b34801561026f57600080fd5b50610128610799565b34801561028457600080fd5b506040805160206004803580820135601f810184900484028501840190955284845261012894369492936024939284019190819084018382808284375094975050509235600160a060020a031693506107be92505050565b3480156102e857600080fd5b5061012861125a565b3480156102fd57600080fd5b5061012861127f565b34801561031257600080fd5b506101286112b6565b34801561032757600080fd5b506101286112ed565b34801561033c57600080fd5b50610128611324565b34801561035157600080fd5b506040805160206004803580820135601f810184900484028501840190955284845261012894369492936024939284019190819084018382808284375094975050509235600160a060020a0316935061135b92505050565b3480156103b557600080fd5b506040805160206004803580820135601f810184900484028501840190955284845261012894369492936024939284019190819084018382808284375094975050509235600160a060020a031693506114cc92505050565b34801561041957600080fd5b506040805160206004803580820135601f810184900484028501840190955284845261020694369492936024939284019190819084018382808284375050604080516020601f89358b018035918201839004830284018301909452808352979a99988101979196509182019450925082915084018382808284375050604080516020601f89358b018035918201839004830284018301909452808352979a9998810197919650918201945092508291508401838280828437509497506115e79650505050505050565b3480156104ee57600080fd5b50610206600160a060020a03600435166116d4565b34801561050f57600080fd5b506101286116f7565b34801561052457600080fd5b506040805160206004803580820135601f810184900484028501840190955284845261012894369492936024939284019190819084018382808284375050604080516020601f89358b018035918201839004830284018301909452808352979a99988101979196509182019450925082915084018382808284375094975061171c9650505050505050565b60408051808201909152601281527f736f66745f6361705f6c6f6e675f646573630000000000000000000000000000602082015281565b60408051808201909152601881527f686172645f6361705f6c6566745f73686f72745f646573630000000000000000602082015281565b60408051808201909152601381527f686172645f6361705f73686f72745f6465736300000000000000000000000000602082015281565b604080518082019091526008815260008051602061484b833981519152602082015281565b60408051808201909152601781527f686172645f6361705f6c6566745f6c6f6e675f64657363000000000000000000602082015281565b600054600160a060020a031633146106c757600080fd5b60008054604051600160a060020a03909116917ff8df31144d9c2f0f6b59d69b8b98abd5459d07f2742c4df920b25aae33c6482091a26000805473ffffffffffffffffffffffffffffffffffffffff19169055565b600054600160a060020a031681565b60408051808201909152601781527f736f66745f6361705f6c6566745f6c6f6e675f64657363000000000000000000602082015281565b60408051808201909152600e81527f7570646174655f636f6e6669726d000000000000000000000000000000000000602082015281565b604080518082019091526008815260008051602061486b833981519152602082015281565b604080516003808252608082019092526060918291829160009190816020015b6107e6614653565b8152602001906001900390816107de57905050925060e06040519081016040528060011515815260200160408051908101604052806008815260200160008051602061486b83398151915281525081526020016040805190810160405280600781526020017f657468456469740000000000000000000000000000000000000000000000000081525081526020016001886040518082805190602001908083835b602083106108a65780518252601f199092019160209182019101610887565b51815160209384036101000a60001901801990921691161790529201948552506040805194859003820185208582018252600880875260008051602061486b83398151915293870193845291519095945092508291908083835b6020831061091f5780518252601f199092019160209182019101610900565b518151600019602094850361010090810a820192831692199390931691909117909252949092019687526040805197889003820188208054601f60026001831615909802909501169590950492830182900482028801820190528187529294509250508301828280156109d35780601f106109a8576101008083540402835291602001916109d3565b820191906000526020600020905b8154815290600101906020018083116109b657829003601f168201915b50505050508152602001610a4f87600160a060020a031663906a26e06040518163ffffffff1660e060020a028152600401602060405180830381600087803b158015610a1e57600080fd5b505af1158015610a32573d6000803e3d6000fd5b505050506040513d6020811015610a4857600080fd5b505161186d565b8152602001610a5c6119cc565b8152602001610a69611a1f565b9052835184906000908110610a7a57fe5b9060200190602002018190525060e06040519081016040528060011515815260200160408051908101604052806008815260200160008051602061484b83398151915281525081526020016040805190810160405280600781526020017f657468456469740000000000000000000000000000000000000000000000000081525081526020016001886040518082805190602001908083835b60208310610b325780518252601f199092019160209182019101610b13565b51815160209384036101000a60001901801990921691161790529201948552506040805194859003820185208582018252600880875260008051602061484b83398151915293870193845291519095945092508291908083835b60208310610bab5780518252601f199092019160209182019101610b8c565b518151600019602094850361010090810a820192831692199390931691909117909252949092019687526040805197889003820188208054601f6002600183161590980290950116959095049283018290048202880182019052818752929450925050830182828015610c5f5780601f10610c3457610100808354040283529160200191610c5f565b820191906000526020600020905b815481529060010190602001808311610c4257829003601f168201915b50505050508152602001610caa87600160a060020a031663fb86a4046040518163ffffffff1660e060020a028152600401602060405180830381600087803b158015610a1e57600080fd5b8152602001610cb76119cc565b8152602001610cc4611a1f565b9052835184906001908110610cd557fe5b9060200190602002018190525060e0604051908101604052806001151581526020016040805190810160405280600681526020017f757064617465000000000000000000000000000000000000000000000000000081525081526020016040805190810160405280600681526020017f627574746f6e000000000000000000000000000000000000000000000000000081525081526020016001886040518082805190602001908083835b60208310610d9f5780518252601f199092019160209182019101610d80565b51815160209384036101000a6000190180199092169116179052920194855250604080519485900382018520858201825260068087527f757064617465000000000000000000000000000000000000000000000000000093870193845291519095945092508291908083835b60208310610e2a5780518252601f199092019160209182019101610e0b565b518151600019602094850361010090810a820192831692199390931691909117909252949092019687526040805197889003820188208054601f6002600183161590980290950116959095049283018290048202880182019052818752929450925050830182828015610ede5780601f10610eb357610100808354040283529160200191610ede565b820191906000526020600020905b815481529060010190602001808311610ec157829003601f168201915b5050505050815260200160408051908101604052806004815260200160e260020a631b9d5b1b02815250815260200160a06040519081016040528060011515815260200188600160a060020a031681526020016040805190810160405280601781526020017f7570646174652875696e743235362c75696e743235362900000000000000000081525081526020016040805190810160405280601781526020017f5b22736f66745f636170222c22686172645f636170225d000000000000000000815250815260200160018a6040518082805190602001908083835b60208310610fd95780518252601f199092019160209182019101610fba565b51815160209384036101000a60001901801990921691161790529201948552506040805194859003820185208582018252600e8087527f7570646174655f636f6e6669726d00000000000000000000000000000000000093870193845291519095945092508291908083835b602083106110645780518252601f199092019160209182019101611045565b518151600019602094850361010090810a820192831692199390931691909117909252949092019687526040805197889003820188208054601f60026001831615909802909501169590950492830182900482028801820190528187529294509250508301828280156111185780601f106110ed57610100808354040283529160200191611118565b820191906000526020600020905b8154815290600101906020018083116110fb57829003601f168201915b5050505050815250815260200161112d611a1f565b905283518490600290811061113e57fe5b906020019060200201819052506040805190810160405280600181526020017f5b000000000000000000000000000000000000000000000000000000000000008152509150600090505b825181101561120f5760008111156111da576111d76111c260408051908101604052806001815260200160fa60020a600b02815250611aac565b6111cb84611aac565b9063ffffffff611ad516565b91505b6112056111c261120085848151811015156111f157fe5b90602001906020020151611b4c565b611aac565b9150600101611188565b6112506111c26040805190810160405280600181526020017f5d00000000000000000000000000000000000000000000000000000000000000815250611aac565b9695505050505050565b60408051808201909152600d815260008051602061488b833981519152602082015281565b60408051808201909152601281527f686172645f6361705f6c6f6e675f646573630000000000000000000000000000602082015281565b60408051808201909152601881527f736f66745f6361705f6c6566745f73686f72745f646573630000000000000000602082015281565b60408051808201909152600681527f7570646174650000000000000000000000000000000000000000000000000000602082015281565b60408051808201909152601381527f736f66745f6361705f73686f72745f6465736300000000000000000000000000602082015281565b606080600061136861469f565b600060606040805190810160405280600181526020017f5b000000000000000000000000000000000000000000000000000000000000008152509450600093506080604051908101604052806113c08a8a6000611e24565b81526020016113d18a8a6000612504565b81526020016113e28a8a6000612ad3565b81526020016113f38a8a600061343d565b90529250600091505b600482101561147f5782826004811061141157fe5b6020020151905060008151111561147457600084111561145f5761145c61145360408051908101604052806001815260200160fa60020a600b02815250611aac565b6111cb87611aac565b94505b61146b61145382611aac565b94506001909301925b6001909101906113fc565b6114c06114536040805190810160405280600181526020017f5d00000000000000000000000000000000000000000000000000000000000000815250611aac565b98975050505050505050565b60608060006114d961469f565b600060606040805190810160405280600181526020017f5b000000000000000000000000000000000000000000000000000000000000008152509450600093506080604051908101604052806115318a8a6001611e24565b81526020016115428a8a6001612504565b81526020016115538a8a6001612ad3565b81526020016115648a8a600161343d565b90529250600091505b600482101561147f5782826004811061158257fe5b602002015190506000815111156115dc5760008411156115c7576115c461145360408051908101604052806001815260200160fa60020a600b02815250611aac565b94505b6115d361145382611aac565b94506001909301925b60019091019061156d565b600054600160a060020a031633146115fe57600080fd5b806001846040518082805190602001908083835b602083106116315780518252601f199092019160209182019101611612565b51815160209384036101000a6000190180199092169116179052920194855250604051938490038101842087519094889450925082918401908083835b6020831061168d5780518252601f19909201916020918201910161166e565b51815160209384036101000a600019018019909216911617905292019485525060405193849003810190932084516116ce95919491909101925090506146c7565b50505050565b600054600160a060020a031633146116eb57600080fd5b6116f481613c95565b50565b60408051808201909152600d815260008051602061482b833981519152602082015281565b60606001836040518082805190602001908083835b602083106117505780518252601f199092019160209182019101611731565b51815160209384036101000a6000190180199092169116179052920194855250604051938490038101842086519094879450925082918401908083835b602083106117ac5780518252601f19909201916020918201910161178d565b518151600019602094850361010090810a820192831692199390931691909117909252949092019687526040805197889003820188208054601f60026001831615909802909501169590950492830182900482028801820190528187529294509250508301828280156118605780601f1061183557610100808354040283529160200191611860565b820191906000526020600020905b81548152906001019060200180831161184357829003601f168201915b5050505050905092915050565b606080600081818515156118b65760408051808201909152600181527f3000000000000000000000000000000000000000000000000000000000000000602082015294506119c3565b6040805160208082528183019092529080820161040080388339019050509350600092505b600086111561192857600a860660300160f860020a0284848151811015156118ff57fe5b906020010190600160f860020a031916908160001a905350600a860495506001909201916118db565b60408051848152601f19601f8601168101602001909152600019840193801561195b578160200160208202803883390190505b509150600090505b81518110156119bf5783516000198401938591811061197e57fe5b90602001015160f860020a900460f860020a02828281518110151561199f57fe5b906020010190600160f860020a031916908160001a905350600101611963565b8194505b50505050919050565b6119d4614745565b506040805160a0810182526000808252602080830182905283518082018552828152838501528351808201855282815260608401528351908101909352825260808101919091525b90565b611a27614772565b60408051606081018252600080825282518181526020818101909452919283019190611a69565b611a56614796565b815260200190600190039081611a4e5790505b5081526020016000604051908082528060200260200182016040528015611aa457816020015b6060815260200190600190039081611a8f5790505b509052905090565b611ab46147c9565b50604080518082019091528151815260208281019082018190525b50919050565b606080600083600001518560000151016040519080825280601f01601f191660200182016040528015611b12578160200160208202803883390190505b509150602082019050611b2e8186602001518760000151613d12565b845160208501518551611b449284019190613d12565b509392505050565b606080826000015115611dff576040805190810160405280600781526020017f7b226964223a22000000000000000000000000000000000000000000000000008152509050611baa611ba18460200151611aac565b6111cb83611aac565b9050611bed611ba16040805190810160405280600181526020017f2200000000000000000000000000000000000000000000000000000000000000815250611aac565b60a08401515190915015611c5457611c3c611ba16040805190810160405280600b81526020017f2c2022616374696f6e223a000000000000000000000000000000000000000000815250611aac565b9050611c51611ba16112008560a00151613d56565b90505b60c08301515115611cb857611ca0611ba16040805190810160405280600a81526020017f2c20227461626c65223a00000000000000000000000000000000000000000000815250611aac565b9050611cb5611ba16112008560c00151613ef9565b90505b611cf9611ba16040805190810160405280600981526020017f2c2274797065223a220000000000000000000000000000000000000000000000815250611aac565b9050611d0b611ba18460400151611aac565b9050611d4e611ba16040805190810160405280600b81526020017f222c226c6162656c223a22000000000000000000000000000000000000000000815250611aac565b9050611d60611ba18460600151611aac565b9050611da3611ba16040805190810160405280600981526020017f222c2264617461223a0000000000000000000000000000000000000000000000815250611aac565b9050611db5611ba18460800151611aac565b9050611df8611ba16040805190810160405280600181526020017f7d00000000000000000000000000000000000000000000000000000000000000815250611aac565b9150611acf565b604080518082019091526004815260e260020a631b9d5b1b0260208201529150611acf565b606080611e2f6147e0565b8380611f2a575084600160a060020a0316636ad1fe026040518163ffffffff1660e060020a028152600401602060405180830381600087803b158015611e7457600080fd5b505af1158015611e88573d6000803e3d6000fd5b505050506040513d6020811015611e9e57600080fd5b5051604080517f186601ca0000000000000000000000000000000000000000000000000000000081529051600160a060020a039092169163186601ca916004808201926020929091908290030181600087803b158015611efd57600080fd5b505af1158015611f11573d6000803e3d6000fd5b505050506040513d6020811015611f2757600080fd5b50515b156124e95760408051600180825281830190925290816020015b611f4c614653565b815260200190600190039081611f4457905050915060e06040519081016040528060011515815260200160408051908101604052806008815260200160008051602061486b833981519152815250815260200160408051908101604052806003815260200160eb60020a620cae8d02815250815260200160408051908101604052806004815260200160e260020a631b9d5b1b02815250815260200161202987600160a060020a031663906a26e06040518163ffffffff1660e060020a028152600401602060405180830381600087803b158015610a1e57600080fd5b81526020016120366119cc565b8152602001612043611a1f565b905282518390600090811061205457fe5b9060200190602002018190525060a0604051908101604052806001886040518082805190602001908083835b6020831061209f5780518252601f199092019160209182019101612080565b51815160209384036101000a60001901801990921691161790529201948552506040805194859003820185208582018252600880875260008051602061486b83398151915293870193845291519095945092508291908083835b602083106121185780518252601f1990920191602091820191016120f9565b518151600019602094850361010090810a820192831692199390931691909117909252949092019687526040805197889003820188208054601f60026001831615909802909501169590950492830182900482028801820190528187529294509250508301828280156121cc5780601f106121a1576101008083540402835291602001916121cc565b820191906000526020600020905b8154815290600101906020018083116121af57829003601f168201915b505050505081526020016001886040518082805190602001908083835b602083106122085780518252601f1990920191602091820191016121e9565b51815160209384036101000a6000190180199092169116179052920194855250604080519485900382018520858201825260138087527f736f66745f6361705f73686f72745f646573630000000000000000000000000093870193845291519095945092508291908083835b602083106122935780518252601f199092019160209182019101612274565b518151600019602094850361010090810a820192831692199390931691909117909252949092019687526040805197889003820188208054601f60026001831615909802909501169590950492830182900482028801820190528187529294509250508301828280156123475780601f1061231c57610100808354040283529160200191612347565b820191906000526020600020905b81548152906001019060200180831161232a57829003601f168201915b505050505081526020016001886040518082805190602001908083835b602083106123835780518252601f199092019160209182019101612364565b51815160209384036101000a6000190180199092169116179052920194855250604080519485900382018520858201825260128087527f736f66745f6361705f6c6f6e675f64657363000000000000000000000000000093870193845291519095945092508291908083835b6020831061240e5780518252601f1990920191602091820191016123ef565b518151600019602094850361010090810a820192831692199390931691909117909252949092019687526040805197889003820188208054601f60026001831615909802909501169590950492830182900482028801820190528187529294509250508301828280156124c25780601f10612497576101008083540402835291602001916124c2565b820191906000526020600020905b8154815290600101906020018083116124a557829003601f168201915b50505050508152602001600481526020018381525090506124e2816140fa565b92506124fb565b60408051602081019091526000815292505b50509392505050565b60608061250f6147e0565b838061260a575084600160a060020a0316636ad1fe026040518163ffffffff1660e060020a028152600401602060405180830381600087803b15801561255457600080fd5b505af1158015612568573d6000803e3d6000fd5b505050506040513d602081101561257e57600080fd5b5051604080517f186601ca0000000000000000000000000000000000000000000000000000000081529051600160a060020a039092169163186601ca916004808201926020929091908290030181600087803b1580156125dd57600080fd5b505af11580156125f1573d6000803e3d6000fd5b505050506040513d602081101561260757600080fd5b50515b156124e95760408051600180825281830190925290816020015b61262c614653565b81526020019060019003908161262457905050915060e06040519081016040528060011515815260200160408051908101604052806008815260200160008051602061484b833981519152815250815260200160408051908101604052806003815260200160eb60020a620cae8d02815250815260200160408051908101604052806004815260200160e260020a631b9d5b1b02815250815260200161270987600160a060020a031663fb86a4046040518163ffffffff1660e060020a028152600401602060405180830381600087803b158015610a1e57600080fd5b81526020016127166119cc565b8152602001612723611a1f565b905282518390600090811061273457fe5b9060200190602002018190525060a0604051908101604052806001886040518082805190602001908083835b6020831061277f5780518252601f199092019160209182019101612760565b51815160209384036101000a60001901801990921691161790529201948552506040805194859003820185208582018252600880875260008051602061484b83398151915293870193845291519095945092508291908083835b602083106127f85780518252601f1990920191602091820191016127d9565b518151600019602094850361010090810a820192831692199390931691909117909252949092019687526040805197889003820188208054601f60026001831615909802909501169590950492830182900482028801820190528187529294509250508301828280156128ac5780601f10612881576101008083540402835291602001916128ac565b820191906000526020600020905b81548152906001019060200180831161288f57829003601f168201915b505050505081526020016001886040518082805190602001908083835b602083106128e85780518252601f1990920191602091820191016128c9565b51815160209384036101000a6000190180199092169116179052920194855250604080519485900382018520858201825260138087527f686172645f6361705f73686f72745f646573630000000000000000000000000093870193845291519095945092508291908083835b602083106129735780518252601f199092019160209182019101612954565b518151600019602094850361010090810a820192831692199390931691909117909252949092019687526040805197889003820188208054601f6002600183161590980290950116959095049283018290048202880182019052818752929450925050830182828015612a275780601f106129fc57610100808354040283529160200191612a27565b820191906000526020600020905b815481529060010190602001808311612a0a57829003601f168201915b505050505081526020016001886040518082805190602001908083835b60208310612a635780518252601f199092019160209182019101612a44565b51815160209384036101000a6000190180199092169116179052920194855250604080519485900382018520858201825260128087527f686172645f6361705f6c6f6e675f646573630000000000000000000000000000938701938452915190959450925082919080838361240e565b6060806000612ae06147e0565b8480612bdc575085600160a060020a0316636ad1fe026040518163ffffffff1660e060020a028152600401602060405180830381600087803b158015612b2557600080fd5b505af1158015612b39573d6000803e3d6000fd5b505050506040513d6020811015612b4f57600080fd5b5051604080517f9a9e3fd80000000000000000000000000000000000000000000000000000000081529051600160a060020a0390921691639a9e3fd8916004808201926020929091908290030181600087803b158015612bae57600080fd5b505af1158015612bc2573d6000803e3d6000fd5b505050506040513d6020811015612bd857600080fd5b5051155b156134215760408051600180825281830190925290816020015b612bfe614653565b815260200190600190039081612bf657905050925085600160a060020a0316636ad1fe026040518163ffffffff1660e060020a028152600401602060405180830381600087803b158015612c5157600080fd5b505af1158015612c65573d6000803e3d6000fd5b505050506040513d6020811015612c7b57600080fd5b5051604080517f4042b66f0000000000000000000000000000000000000000000000000000000081529051600160a060020a0390921691634042b66f916004808201926020929091908290030181600087803b158015612cda57600080fd5b505af1158015612cee573d6000803e3d6000fd5b505050506040513d6020811015612d0457600080fd5b5051604080517f906a26e00000000000000000000000000000000000000000000000000000000081529051600160a060020a0389169163906a26e09160048083019260209291908290030181600087803b158015612d6157600080fd5b505af1158015612d75573d6000803e3d6000fd5b505050506040513d6020811015612d8b57600080fd5b50516040805160e081018252600180825282518084018452600d815260008051602061482b83398151915260208281019190915283810191909152835180850185526003815260eb60020a620cae8d02818301528385015292518c519590940396509093606085019391928c929182918401908083835b60208310612e215780518252601f199092019160209182019101612e02565b51815160209384036101000a60001901801990921691161790529201948552506040805194859003820185208582018252600d80875260008051602061482b83398151915293870193845291519095945092508291908083835b60208310612e9a5780518252601f199092019160209182019101612e7b565b518151600019602094850361010090810a820192831692199390931691909117909252949092019687526040805197889003820188208054601f6002600183161590980290950116959095049283018290048202880182019052818752929450925050830182828015612f4e5780601f10612f2357610100808354040283529160200191612f4e565b820191906000526020600020905b815481529060010190602001808311612f3157829003601f168201915b50505050508152602001612f618461186d565b8152602001612f6e6119cc565b8152602001612f7b611a1f565b9052835184906000908110612f8c57fe5b9060200190602002018190525060a0604051908101604052806001896040518082805190602001908083835b60208310612fd75780518252601f199092019160209182019101612fb8565b51815160209384036101000a60001901801990921691161790529201948552506040805194859003820185208582018252600d80875260008051602061482b83398151915293870193845291519095945092508291908083835b602083106130505780518252601f199092019160209182019101613031565b518151600019602094850361010090810a820192831692199390931691909117909252949092019687526040805197889003820188208054601f60026001831615909802909501169590950492830182900482028801820190528187529294509250508301828280156131045780601f106130d957610100808354040283529160200191613104565b820191906000526020600020905b8154815290600101906020018083116130e757829003601f168201915b505050505081526020016001896040518082805190602001908083835b602083106131405780518252601f199092019160209182019101613121565b51815160209384036101000a6000190180199092169116179052920194855250604080519485900382018520858201825260188087527f736f66745f6361705f6c6566745f73686f72745f64657363000000000000000093870193845291519095945092508291908083835b602083106131cb5780518252601f1990920191602091820191016131ac565b518151600019602094850361010090810a820192831692199390931691909117909252949092019687526040805197889003820188208054601f600260018316159098029095011695909504928301829004820288018201905281875292945092505083018282801561327f5780601f106132545761010080835404028352916020019161327f565b820191906000526020600020905b81548152906001019060200180831161326257829003601f168201915b505050505081526020016001896040518082805190602001908083835b602083106132bb5780518252601f19909201916020918201910161329c565b51815160209384036101000a6000190180199092169116179052920194855250604080519485900382018520858201825260178087527f736f66745f6361705f6c6566745f6c6f6e675f6465736300000000000000000093870193845291519095945092508291908083835b602083106133465780518252601f199092019160209182019101613327565b518151600019602094850361010090810a820192831692199390931691909117909252949092019687526040805197889003820188208054601f60026001831615909802909501169590950492830182900482028801820190528187529294509250508301828280156133fa5780601f106133cf576101008083540402835291602001916133fa565b820191906000526020600020905b8154815290600101906020018083116133dd57829003601f168201915b505050505081526020016004815260200184815250905061341a816140fa565b9350613433565b60408051602081019091526000815293505b5050509392505050565b606080600061344a6147e0565b8480613546575085600160a060020a0316636ad1fe026040518163ffffffff1660e060020a028152600401602060405180830381600087803b15801561348f57600080fd5b505af11580156134a3573d6000803e3d6000fd5b505050506040513d60208110156134b957600080fd5b5051604080517fbef4876b0000000000000000000000000000000000000000000000000000000081529051600160a060020a039092169163bef4876b916004808201926020929091908290030181600087803b15801561351857600080fd5b505af115801561352c573d6000803e3d6000fd5b505050506040513d602081101561354257600080fd5b5051155b156134215760408051600180825281830190925290816020015b613568614653565b81526020019060019003908161356057905050925085600160a060020a0316636ad1fe026040518163ffffffff1660e060020a028152600401602060405180830381600087803b1580156135bb57600080fd5b505af11580156135cf573d6000803e3d6000fd5b505050506040513d60208110156135e557600080fd5b5051604080517f4042b66f0000000000000000000000000000000000000000000000000000000081529051600160a060020a0390921691634042b66f916004808201926020929091908290030181600087803b15801561364457600080fd5b505af1158015613658573d6000803e3d6000fd5b505050506040513d602081101561366e57600080fd5b5051604080517ffb86a4040000000000000000000000000000000000000000000000000000000081529051600160a060020a0389169163fb86a4049160048083019260209291908290030181600087803b1580156136cb57600080fd5b505af11580156136df573d6000803e3d6000fd5b505050506040513d60208110156136f557600080fd5b50516040805160e081018252600180825282518084018452600d815260008051602061488b83398151915260208281019190915283810191909152835180850185526003815260eb60020a620cae8d02818301528385015292518c519590940396509093606085019391928c929182918401908083835b6020831061378b5780518252601f19909201916020918201910161376c565b51815160209384036101000a60001901801990921691161790529201948552506040805194859003820185208582018252600d80875260008051602061488b83398151915293870193845291519095945092508291908083835b602083106138045780518252601f1990920191602091820191016137e5565b518151600019602094850361010090810a820192831692199390931691909117909252949092019687526040805197889003820188208054601f60026001831615909802909501169590950492830182900482028801820190528187529294509250508301828280156138b85780601f1061388d576101008083540402835291602001916138b8565b820191906000526020600020905b81548152906001019060200180831161389b57829003601f168201915b505050505081526020016138cb8461186d565b81526020016138d86119cc565b81526020016138e5611a1f565b90528351849060009081106138f657fe5b9060200190602002018190525060a0604051908101604052806001896040518082805190602001908083835b602083106139415780518252601f199092019160209182019101613922565b51815160209384036101000a60001901801990921691161790529201948552506040805194859003820185208582018252600d80875260008051602061488b83398151915293870193845291519095945092508291908083835b602083106139ba5780518252601f19909201916020918201910161399b565b518151600019602094850361010090810a820192831692199390931691909117909252949092019687526040805197889003820188208054601f6002600183161590980290950116959095049283018290048202880182019052818752929450925050830182828015613a6e5780601f10613a4357610100808354040283529160200191613a6e565b820191906000526020600020905b815481529060010190602001808311613a5157829003601f168201915b505050505081526020016001896040518082805190602001908083835b60208310613aaa5780518252601f199092019160209182019101613a8b565b51815160209384036101000a6000190180199092169116179052920194855250604080519485900382018520858201825260188087527f686172645f6361705f6c6566745f73686f72745f64657363000000000000000093870193845291519095945092508291908083835b60208310613b355780518252601f199092019160209182019101613b16565b518151600019602094850361010090810a820192831692199390931691909117909252949092019687526040805197889003820188208054601f6002600183161590980290950116959095049283018290048202880182019052818752929450925050830182828015613be95780601f10613bbe57610100808354040283529160200191613be9565b820191906000526020600020905b815481529060010190602001808311613bcc57829003601f168201915b505050505081526020016001896040518082805190602001908083835b60208310613c255780518252601f199092019160209182019101613c06565b51815160209384036101000a6000190180199092169116179052920194855250604080519485900382018520858201825260178087527f686172645f6361705f6c6566745f6c6f6e675f646573630000000000000000009387019384529151909594509250829190808383613346565b600160a060020a0381161515613caa57600080fd5b60008054604051600160a060020a03808516939216917f8be0079c531659141344cd1fd0a4f28419497f9722a3daafe3b4186f6b6457e091a36000805473ffffffffffffffffffffffffffffffffffffffff1916600160a060020a0392909216919091179055565b60005b60208210613d37578251845260209384019390920191601f1990910190613d15565b50905182516020929092036101000a6000190180199091169116179052565b606080826000015115611dff576040805190810160405280600c81526020017f7b2261646472657373223a2200000000000000000000000000000000000000008152509050613db7611ba16112008560200151600160a060020a031661433f565b9050613dfa611ba16040805190810160405280601681526020017f222c2266756e6374696f6e53656c6563746f72223a2200000000000000000000815250611aac565b9050613e0c611ba18460400151611aac565b9050613e4f611ba16040805190810160405280600e81526020017f222c22617267756d656e7473223a000000000000000000000000000000000000815250611aac565b9050613e61611ba18460600151611aac565b9050613ea4611ba16040805190810160405280600c81526020017f2c22636f6e6669726d223a220000000000000000000000000000000000000000815250611aac565b9050613eb6611ba18460800151611aac565b9050611df8611ba16040805190810160405280600281526020017f227d000000000000000000000000000000000000000000000000000000000000815250611aac565b6060806000808460000151156140d157505060408051808201909152600c81527f7b22636f6c756d6e73223a5b0000000000000000000000000000000000000000602082015290506000805b846020015151811015613fc7576000821115613f8f57613f8c613f8360408051908101604052806001815260200160fa60020a600b02815250611aac565b6111cb85611aac565b92505b613fb9613f83611200876020015184815181101515613faa57fe5b90602001906020020151614482565b925060019182019101613f45565b614008613f836040805190810160405280600a81526020017f5d2c22726f7773223a5b00000000000000000000000000000000000000000000815250611aac565b925060009150600090505b84604001515181101561408957600082111561405457614051613f8360408051908101604052806001815260200160fa60020a600b02815250611aac565b92505b61407b613f8386604001518381518110151561406c57fe5b90602001906020020151611aac565b925060019182019101614013565b6140ca613f836040805190810160405280600281526020017f5d7d000000000000000000000000000000000000000000000000000000000000815250611aac565b93506140f2565b604080518082019091526004815260e260020a631b9d5b1b02602082015293505b505050919050565b60408051808201909152600a81527f7b227469746c65223a22000000000000000000000000000000000000000000006020820152815160609190600090614144906111c290611aac565b91506141876111c26040805190810160405280600f81526020017f222c2273686f727444657363223a220000000000000000000000000000000000815250611aac565b91506141996111c28560200151611aac565b91506141dc6111c26040805190810160405280600e81526020017f222c226c6f6e6744657363223a22000000000000000000000000000000000000815250611aac565b91506141ee6111c28560400151611aac565b91506142316111c26040805190810160405280600a81526020017f222c227769647468223a00000000000000000000000000000000000000000000815250611aac565b91506142466111c2611200866060015161186d565b91506142896111c26040805190810160405280600d81526020017f2c22656c656d656e7473223a5b00000000000000000000000000000000000000815250611aac565b9150600090505b8360800151518110156142f65760008111156142d1576142ce6111c260408051908101604052806001815260200160fa60020a600b02815250611aac565b91505b6142ec6111c26112008660800151848151811015156111f157fe5b9150600101614290565b6143376111c26040805190810160405280600281526020017f5d7d000000000000000000000000000000000000000000000000000000000000815250611aac565b949350505050565b60408051602a80825260608083019093528291600091829182916020820161054080388339505081519195507f300000000000000000000000000000000000000000000000000000000000000091869150600090811061439b57fe5b906020010190600160f860020a031916908160001a90535083517f780000000000000000000000000000000000000000000000000000000000000090859060019081106143e457fe5b906020010190600160f860020a031916908160001a905350859250600091505b602882101561447857506030600f8316016039600160a060020a038216111561442b576027015b8060f860020a02848360280360010181518110151561444657fe5b906020010190600160f860020a031916908160001a9053506010600160a060020a038416049250600190910190614404565b5091949350505050565b606080826000015115611dff576040805190810160405280600781526020017f7b226964223a220000000000000000000000000000000000000000000000000081525090506144d7611ba18460200151611aac565b905061451a611ba16040805190810160405280600181526020017f2200000000000000000000000000000000000000000000000000000000000000815250611aac565b608084015151909150156145ab57614550611ba160408051908101604052806001815260200160fa60020a600b02815250611aac565b9050614593611ba16040805190810160405280600981526020017f22616374696f6e223a0000000000000000000000000000000000000000000000815250611aac565b90506145a8611ba16112008560800151613d56565b90505b6145ec611ba16040805190810160405280600981526020017f2c2274797065223a220000000000000000000000000000000000000000000000815250611aac565b90506145fe611ba18460400151611aac565b9050614641611ba16040805190810160405280600b81526020017f222c226c6162656c223a22000000000000000000000000000000000000000000815250611aac565b9050613eb6611ba18460600151611aac565b6101a0604051908101604052806000151581526020016060815260200160608152602001606081526020016060815260200161468d614745565b815260200161469a614772565b905290565b6080604051908101604052806004905b60608152602001906001900390816146af5790505090565b828054600181600116156101000203166002900490600052602060002090601f016020900481019282601f1061470857805160ff1916838001178555614735565b82800160010185558215614735579182015b8281111561473557825182559160200191906001019061471a565b50614741929150614810565b5090565b6040805160a081018252600080825260208201526060918101829052818101829052608081019190915290565b60606040519081016040528060001515815260200160608152602001606081525090565b6101206040519081016040528060001515815260200160608152602001606081526020016060815260200161469a614745565b604080518082019091526000808252602082015290565b60a06040519081016040528060608152602001606081526020016060815260200160008152602001606081525090565b611a1c91905b8082111561474157600081556001016148165600736f66745f6361705f6c65667400000000000000000000000000000000000000686172645f636170000000000000000000000000000000000000000000000000736f66745f636170000000000000000000000000000000000000000000000000686172645f6361705f6c65667400000000000000000000000000000000000000a165627a7a72305820a80f33135a260b613c9be737513157e080de277df684e10fcfcf901dad78989d0029",
  "source": "pragma solidity ^0.4.24;\n\nimport \"tokenboost-solidity/contracts/widget/Localizable.sol\";\nimport \"tokenboost-solidity/contracts/widget/Widgets.sol\";\nimport \"../SoftHardCapStrategy.sol\";\n\ncontract SoftHardCapStrategyRenderer is Localizable {\n    using Widgets for Widgets.Widget;\n    using Elements for Elements.Element;\n    using strings for *;\n    using UintUtils for uint;\n\n    string public constant SOFT_CAP = \"soft_cap\";\n    string public constant SOFT_CAP_SHORT_DESC = \"soft_cap_short_desc\";\n    string public constant SOFT_CAP_LONG_DESC = \"soft_cap_long_desc\";\n    string public constant HARD_CAP = \"hard_cap\";\n    string public constant HARD_CAP_SHORT_DESC = \"hard_cap_short_desc\";\n    string public constant HARD_CAP_LONG_DESC = \"hard_cap_long_desc\";\n    string public constant SOFT_CAP_LEFT = \"soft_cap_left\";\n    string public constant SOFT_CAP_LEFT_SHORT_DESC = \"soft_cap_left_short_desc\";\n    string public constant SOFT_CAP_LEFT_LONG_DESC = \"soft_cap_left_long_desc\";\n    string public constant HARD_CAP_LEFT = \"hard_cap_left\";\n    string public constant HARD_CAP_LEFT_SHORT_DESC = \"hard_cap_left_short_desc\";\n    string public constant HARD_CAP_LEFT_LONG_DESC = \"hard_cap_left_long_desc\";\n    string public constant UPDATE = \"update\";\n    string public constant UPDATE_CONFIRM = \"update_confirm\";\n\n    function adminWidgets(string _locale, SoftHardCapStrategy _strategy) public view returns (string) {\n        string memory json = \"[\";\n        uint length = 0;\n        string[4] memory widgets = [\n        _softCapWidget(_locale, _strategy, true),\n        _hardCapWidget(_locale, _strategy, true),\n        _softCapLeftWidget(_locale, _strategy, true),\n        _hardCapLeftWidget(_locale, _strategy, true)\n        ];\n        for (uint i = 0; i < widgets.length; i++) {\n            string memory widget = widgets[i];\n            if (bytes(widget).length > 0) {\n                if (length > 0) {\n                    json = json.toSlice().concat(\",\".toSlice());\n                }\n                json = json.toSlice().concat(widget.toSlice());\n                length++;\n            }\n        }\n        return json.toSlice().concat(\"]\".toSlice());\n    }\n\n    function userWidgets(string _locale, SoftHardCapStrategy _strategy) public view returns (string) {\n        string memory json = \"[\";\n        uint length = 0;\n        string[4] memory widgets = [\n        _softCapWidget(_locale, _strategy, false),\n        _hardCapWidget(_locale, _strategy, false),\n        _softCapLeftWidget(_locale, _strategy, false),\n        _hardCapLeftWidget(_locale, _strategy, false)\n        ];\n        for (uint i = 0; i < widgets.length; i++) {\n            string memory widget = widgets[i];\n            if (bytes(widget).length > 0) {\n                if (length > 0) {\n                    json = json.toSlice().concat(\",\".toSlice());\n                }\n                json = json.toSlice().concat(widget.toSlice());\n                length++;\n            }\n        }\n        return json.toSlice().concat(\"]\".toSlice());\n    }\n\n    function _softCapWidget(string _locale, SoftHardCapStrategy _strategy, bool _admin) private view returns (string json) {\n        if (_admin || _strategy.sale().activated()) {\n            Elements.Element[] memory elements = new Elements.Element[](1);\n            elements[0] = Elements.Element(\n                true,\n                SOFT_CAP,\n                \"eth\",\n                \"null\",\n                _strategy.softCap().toString(),\n                Actions.empty(),\n                Tables.empty()\n            );\n            Widgets.Widget memory widget = Widgets.Widget(\n                resources[_locale][SOFT_CAP],\n                resources[_locale][SOFT_CAP_SHORT_DESC],\n                resources[_locale][SOFT_CAP_LONG_DESC],\n                4,\n                elements\n            );\n            return widget.toJson();\n        } else {\n            return \"\";\n        }\n    }\n\n    function _hardCapWidget(string _locale, SoftHardCapStrategy _strategy, bool _admin) private view returns (string json) {\n        if (_admin || _strategy.sale().activated()) {\n            Elements.Element[] memory elements = new Elements.Element[](1);\n            elements[0] = Elements.Element(\n                true,\n                HARD_CAP,\n                \"eth\",\n                \"null\",\n                _strategy.hardCap().toString(),\n                Actions.empty(),\n                Tables.empty()\n            );\n            Widgets.Widget memory widget = Widgets.Widget(\n                resources[_locale][HARD_CAP],\n                resources[_locale][HARD_CAP_SHORT_DESC],\n                resources[_locale][HARD_CAP_LONG_DESC],\n                4,\n                elements\n            );\n            return widget.toJson();\n        } else {\n            return \"\";\n        }\n    }\n\n    function _softCapLeftWidget(string _locale, SoftHardCapStrategy _strategy, bool _admin) private view returns (string json) {\n        if (_admin || !_strategy.sale().successful()) {\n            Elements.Element[] memory elements = new Elements.Element[](1);\n            uint256 left = _strategy.softCap() - _strategy.sale().weiRaised();\n            elements[0] = Elements.Element(\n                true,\n                SOFT_CAP_LEFT,\n                \"eth\",\n                resources[_locale][SOFT_CAP_LEFT],\n                left.toString(),\n                Actions.empty(),\n                Tables.empty()\n            );\n            Widgets.Widget memory widget = Widgets.Widget(\n                resources[_locale][SOFT_CAP_LEFT],\n                resources[_locale][SOFT_CAP_LEFT_SHORT_DESC],\n                resources[_locale][SOFT_CAP_LEFT_LONG_DESC],\n                4,\n                elements\n            );\n            return widget.toJson();\n        } else {\n            return \"\";\n        }\n    }\n\n    function _hardCapLeftWidget(string _locale, SoftHardCapStrategy _strategy, bool _admin) private view returns (string json) {\n        if (_admin || !_strategy.sale().finished()) {\n            Elements.Element[] memory elements = new Elements.Element[](1);\n            uint256 left = _strategy.hardCap() - _strategy.sale().weiRaised();\n            elements[0] = Elements.Element(\n                true,\n                HARD_CAP_LEFT,\n                \"eth\",\n                resources[_locale][HARD_CAP_LEFT],\n                left.toString(),\n                Actions.empty(),\n                Tables.empty()\n            );\n            Widgets.Widget memory widget = Widgets.Widget(\n                resources[_locale][HARD_CAP_LEFT],\n                resources[_locale][HARD_CAP_LEFT_SHORT_DESC],\n                resources[_locale][HARD_CAP_LEFT_LONG_DESC],\n                4,\n                elements\n            );\n            return widget.toJson();\n        } else {\n            return \"\";\n        }\n    }\n\n    function inputs(string _locale, SoftHardCapStrategy _strategy) public view returns (string) {\n        Elements.Element[] memory elements = new Elements.Element[](3);\n        elements[0] = Elements.Element(\n            true,\n            SOFT_CAP,\n            \"ethEdit\",\n            resources[_locale][SOFT_CAP],\n            _strategy.softCap().toString(),\n            Actions.empty(),\n            Tables.empty()\n        );\n        elements[1] = Elements.Element(\n            true,\n            HARD_CAP,\n            \"ethEdit\",\n            resources[_locale][HARD_CAP],\n            _strategy.hardCap().toString(),\n            Actions.empty(),\n            Tables.empty()\n        );\n        elements[2] = Elements.Element(\n            true,\n            UPDATE,\n            \"button\",\n            resources[_locale][UPDATE],\n            \"null\",\n            Actions.Action(\n                true,\n                address(_strategy),\n                \"update(uint256,uint256)\",\n                '[\"soft_cap\",\"hard_cap\"]',\n                resources[_locale][UPDATE_CONFIRM]\n            ),\n            Tables.empty()\n        );\n        string memory json = \"[\";\n        for (uint i = 0; i < elements.length; i++) {\n            if (i > 0) {\n                json = json.toSlice().concat(','.toSlice());\n            }\n            json = json.toSlice().concat(elements[i].toJson().toSlice());\n        }\n        return json.toSlice().concat(']'.toSlice());\n    }\n}\n",
  "sourcePath": "/Users/yoonjae/SolidityProjects/tokenboost-solidity-erc20sale-strategies/contracts/strategy/sale/erc20/soft-hard-cap/widget/SoftHardCapStrategyRenderer.sol",
  "compiler": {
    "name": "solc",
    "version": "0.4.24+commit.e67f0147.Emscripten.clang"
  },
  "schemaVersion": "2.0.1",
  "updatedAt": "2018-10-11T18:37:48.961Z"
}