{
  "contractName": "SoftHardCapStrategy",
  "abi": [
    {
      "constant": true,
      "inputs": [
        {
          "name": "_interfaceId",
          "type": "bytes4"
        }
      ],
      "name": "supportsInterface",
      "outputs": [
        {
          "name": "",
          "type": "bool"
        }
      ],
      "payable": false,
      "stateMutability": "view",
      "type": "function"
    },
    {
      "constant": true,
      "inputs": [],
      "name": "activated",
      "outputs": [
        {
          "name": "",
          "type": "bool"
        }
      ],
      "payable": false,
      "stateMutability": "view",
      "type": "function"
    },
    {
      "constant": true,
      "inputs": [],
      "name": "InterfaceId_ERC165",
      "outputs": [
        {
          "name": "",
          "type": "bytes4"
        }
      ],
      "payable": false,
      "stateMutability": "view",
      "type": "function"
    },
    {
      "constant": false,
      "inputs": [],
      "name": "deactivate",
      "outputs": [
        {
          "name": "",
          "type": "bool"
        }
      ],
      "payable": false,
      "stateMutability": "nonpayable",
      "type": "function"
    },
    {
      "constant": true,
      "inputs": [],
      "name": "InterfaceId_Strategy",
      "outputs": [
        {
          "name": "",
          "type": "bytes4"
        }
      ],
      "payable": false,
      "stateMutability": "view",
      "type": "function"
    },
    {
      "constant": true,
      "inputs": [],
      "name": "sale",
      "outputs": [
        {
          "name": "",
          "type": "address"
        }
      ],
      "payable": false,
      "stateMutability": "view",
      "type": "function"
    },
    {
      "constant": true,
      "inputs": [],
      "name": "template",
      "outputs": [
        {
          "name": "",
          "type": "address"
        }
      ],
      "payable": false,
      "stateMutability": "view",
      "type": "function"
    },
    {
      "constant": false,
      "inputs": [],
      "name": "renounceOwnership",
      "outputs": [],
      "payable": false,
      "stateMutability": "nonpayable",
      "type": "function"
    },
    {
      "constant": true,
      "inputs": [],
      "name": "renderer",
      "outputs": [
        {
          "name": "",
          "type": "address"
        }
      ],
      "payable": false,
      "stateMutability": "view",
      "type": "function"
    },
    {
      "constant": true,
      "inputs": [],
      "name": "owner",
      "outputs": [
        {
          "name": "",
          "type": "address"
        }
      ],
      "payable": false,
      "stateMutability": "view",
      "type": "function"
    },
    {
      "constant": true,
      "inputs": [],
      "name": "softCap",
      "outputs": [
        {
          "name": "",
          "type": "uint256"
        }
      ],
      "payable": false,
      "stateMutability": "view",
      "type": "function"
    },
    {
      "constant": true,
      "inputs": [],
      "name": "InterfaceId_ERC20SaleStrategy",
      "outputs": [
        {
          "name": "",
          "type": "bytes4"
        }
      ],
      "payable": false,
      "stateMutability": "view",
      "type": "function"
    },
    {
      "constant": true,
      "inputs": [],
      "name": "InterfaceId_SaleStrategy",
      "outputs": [
        {
          "name": "",
          "type": "bytes4"
        }
      ],
      "payable": false,
      "stateMutability": "view",
      "type": "function"
    },
    {
      "constant": false,
      "inputs": [
        {
          "name": "_newOwner",
          "type": "address"
        }
      ],
      "name": "transferOwnership",
      "outputs": [],
      "payable": false,
      "stateMutability": "nonpayable",
      "type": "function"
    },
    {
      "constant": true,
      "inputs": [],
      "name": "hardCap",
      "outputs": [
        {
          "name": "",
          "type": "uint256"
        }
      ],
      "payable": false,
      "stateMutability": "view",
      "type": "function"
    },
    {
      "constant": true,
      "inputs": [],
      "name": "InterfaceId_Contract",
      "outputs": [
        {
          "name": "",
          "type": "bytes4"
        }
      ],
      "payable": false,
      "stateMutability": "view",
      "type": "function"
    },
    {
      "inputs": [
        {
          "name": "_owner",
          "type": "address"
        },
        {
          "name": "_sale",
          "type": "address"
        }
      ],
      "payable": false,
      "stateMutability": "nonpayable",
      "type": "constructor"
    },
    {
      "anonymous": false,
      "inputs": [
        {
          "indexed": true,
          "name": "previousOwner",
          "type": "address"
        }
      ],
      "name": "OwnershipRenounced",
      "type": "event"
    },
    {
      "anonymous": false,
      "inputs": [
        {
          "indexed": true,
          "name": "previousOwner",
          "type": "address"
        },
        {
          "indexed": true,
          "name": "newOwner",
          "type": "address"
        }
      ],
      "name": "OwnershipTransferred",
      "type": "event"
    },
    {
      "constant": false,
      "inputs": [
        {
          "name": "_softCap",
          "type": "uint256"
        },
        {
          "name": "_hardCap",
          "type": "uint256"
        }
      ],
      "name": "update",
      "outputs": [],
      "payable": false,
      "stateMutability": "nonpayable",
      "type": "function"
    },
    {
      "constant": false,
      "inputs": [],
      "name": "activate",
      "outputs": [
        {
          "name": "",
          "type": "bool"
        }
      ],
      "payable": false,
      "stateMutability": "nonpayable",
      "type": "function"
    },
    {
      "constant": true,
      "inputs": [],
      "name": "started",
      "outputs": [
        {
          "name": "",
          "type": "bool"
        }
      ],
      "payable": false,
      "stateMutability": "view",
      "type": "function"
    },
    {
      "constant": true,
      "inputs": [],
      "name": "successful",
      "outputs": [
        {
          "name": "",
          "type": "bool"
        }
      ],
      "payable": false,
      "stateMutability": "view",
      "type": "function"
    },
    {
      "constant": true,
      "inputs": [],
      "name": "finished",
      "outputs": [
        {
          "name": "",
          "type": "bool"
        }
      ],
      "payable": false,
      "stateMutability": "view",
      "type": "function"
    },
    {
      "constant": true,
      "inputs": [
        {
          "name": "_purchaser",
          "type": "address"
        },
        {
          "name": "_weiAmount",
          "type": "uint256"
        }
      ],
      "name": "purchasable",
      "outputs": [
        {
          "name": "",
          "type": "bool"
        }
      ],
      "payable": false,
      "stateMutability": "view",
      "type": "function"
    },
    {
      "constant": true,
      "inputs": [
        {
          "name": "_purchaser",
          "type": "address"
        },
        {
          "name": "_weiAmount",
          "type": "uint256"
        }
      ],
      "name": "tokenRate",
      "outputs": [
        {
          "name": "",
          "type": "uint256"
        }
      ],
      "payable": false,
      "stateMutability": "view",
      "type": "function"
    },
    {
      "constant": false,
      "inputs": [
        {
          "name": "_purchaser",
          "type": "address"
        },
        {
          "name": "_tokenAmount",
          "type": "uint256"
        }
      ],
      "name": "supplyTokens",
      "outputs": [
        {
          "name": "",
          "type": "bool"
        }
      ],
      "payable": false,
      "stateMutability": "nonpayable",
      "type": "function"
    },
    {
      "constant": false,
      "inputs": [
        {
          "name": "_purchaser",
          "type": "address"
        },
        {
          "name": "_tokenAmount",
          "type": "uint256"
        }
      ],
      "name": "receivesTokens",
      "outputs": [
        {
          "name": "",
          "type": "bool"
        }
      ],
      "payable": false,
      "stateMutability": "nonpayable",
      "type": "function"
    },
    {
      "constant": true,
      "inputs": [
        {
          "name": "locale",
          "type": "string"
        }
      ],
      "name": "adminWidgets",
      "outputs": [
        {
          "name": "json",
          "type": "string"
        }
      ],
      "payable": false,
      "stateMutability": "view",
      "type": "function"
    },
    {
      "constant": true,
      "inputs": [
        {
          "name": "locale",
          "type": "string"
        }
      ],
      "name": "userWidgets",
      "outputs": [
        {
          "name": "json",
          "type": "string"
        }
      ],
      "payable": false,
      "stateMutability": "view",
      "type": "function"
    },
    {
      "constant": true,
      "inputs": [
        {
          "name": "locale",
          "type": "string"
        }
      ],
      "name": "inputs",
      "outputs": [
        {
          "name": "json",
          "type": "string"
        }
      ],
      "payable": false,
      "stateMutability": "view",
      "type": "function"
    }
  ],
  "bytecode": "0x608060405234801561001057600080fd5b5060405160408061113c83398101604052805160209091015160008054600160a060020a031916331790558181818181806100737f01ffc9a7000000000000000000000000000000000000000000000000000000006401000000006101bc810204565b600160a060020a038116151561008857600080fd5b6002805433600160a060020a03199182161790915560008054909116600160a060020a0383161790556100e37f6125ede5000000000000000000000000000000000000000000000000000000006401000000006101bc810204565b506101167f6e301925000000000000000000000000000000000000000000000000000000006401000000006101bc810204565b5060038054600160a060020a031916600160a060020a0383161790556101647f04c8123d000000000000000000000000000000000000000000000000000000006401000000006101bc810204565b505060048054600160a060020a031916600160a060020a0383161790556101b37fa0d0304b000000000000000000000000000000000000000000000000000000006401000000006101bc810204565b5050505061022b565b7fffffffff0000000000000000000000000000000000000000000000000000000080821614156101eb57600080fd5b7fffffffff00000000000000000000000000000000000000000000000000000000166000908152600160208190526040909120805460ff19169091179055565b610f028061023a6000396000f3006080604052600436106101505763ffffffff60e060020a60003504166301bd3411811461015557806301ffc9a7146102235780630f15f4c01461026e578063186601ca1461028357806319fa8f50146102985780631f2698ab146102df5780632fb565e8146102f45780634f9a82d61461031157806351b42b00146103355780635589530e1461034a578063587775e81461038057806364b630d8146103a45780636ad1fe02146103b95780636f2ddd93146103ea578063715018a6146103ff5780638ada6b0f146104145780638da5cb5b14610429578063906a26e01461043e578063908ba64814610453578063944ac32b146104ac5780639a9e3fd8146104c1578063a3a8fd2c146104d6578063bef4876b1461052f578063ce30824e14610544578063e67c864614610380578063f2fde38b14610559578063fb86a4041461057a578063fbf964eb1461058f575b600080fd5b34801561016157600080fd5b506040805160206004803580820135601f81018490048402850184019095528484526101ae9436949293602493928401919081908401838280828437509497506105a49650505050505050565b6040805160208082528351818301528351919283929083019185019080838360005b838110156101e85781810151838201526020016101d0565b50505050905090810190601f1680156102155780820380516001836020036101000a031916815260200191505b509250505060405180910390f35b34801561022f57600080fd5b5061025a7bffffffffffffffffffffffffffffffffffffffffffffffffffffffff196004351661070d565b604080519115158252519081900360200190f35b34801561027a57600080fd5b5061025a610741565b34801561028f57600080fd5b5061025a61076f565b3480156102a457600080fd5b506102ad610790565b604080517bffffffffffffffffffffffffffffffffffffffffffffffffffffffff199092168252519081900360200190f35b3480156102eb57600080fd5b5061025a6107b4565b34801561030057600080fd5b5061030f6004356024356107b9565b005b34801561031d57600080fd5b5061025a600160a060020a0360043516602435610870565b34801561034157600080fd5b5061025a61091a565b34801561035657600080fd5b5061036e600160a060020a03600435166024356109df565b60408051918252519081900360200190f35b34801561038c57600080fd5b5061025a600160a060020a03600435166024356109df565b3480156103b057600080fd5b506102ad6109e7565b3480156103c557600080fd5b506103ce610a0b565b60408051600160a060020a039092168252519081900360200190f35b3480156103f657600080fd5b506103ce610a1a565b34801561040b57600080fd5b5061030f610a29565b34801561042057600080fd5b506103ce610a95565b34801561043557600080fd5b506103ce610aad565b34801561044a57600080fd5b5061036e610abc565b34801561045f57600080fd5b506040805160206004803580820135601f81018490048402850184019095528484526101ae943694929360249392840191908190840183828082843750949750610ac29650505050505050565b3480156104b857600080fd5b506102ad610b4f565b3480156104cd57600080fd5b5061025a610b73565b3480156104e257600080fd5b506040805160206004803580820135601f81018490048402850184019095528484526101ae943694929360249392840191908190840183828082843750949750610bfe9650505050505050565b34801561053b57600080fd5b5061025a610c8b565b34801561055057600080fd5b506102ad610ce3565b34801561056557600080fd5b5061030f600160a060020a0360043516610d07565b34801561058657600080fd5b5061036e610d2a565b34801561059b57600080fd5b506102ad610d30565b604080517fbf3bed54000000000000000000000000000000000000000000000000000000008152306024820181905260048201928352835160448301528351606093735f5f536f667448617264436170537472617465679363bf3bed549387939092918291606490910190602086019080838360005b8381101561063257818101518382015260200161061a565b50505050905090810190601f16801561065f5780820380516001836020036101000a031916815260200191505b509350505050600060405180830381600087803b15801561067f57600080fd5b505af1158015610693573d6000803e3d6000fd5b505050506040513d6000823e601f3d908101601f1916820160405260208110156106bc57600080fd5b8101908080516401000000008111156106d457600080fd5b820160208101848111156106e757600080fd5b815164010000000081118282018710171561070157600080fd5b50909695505050505050565b7bffffffffffffffffffffffffffffffffffffffffffffffffffffffff191660009081526001602052604090205460ff1690565b60008060055411151561075357600080fd5b60065460001061076257600080fd5b61076a610d54565b905090565b60025474010000000000000000000000000000000000000000900460ff1681565b7f01ffc9a70000000000000000000000000000000000000000000000000000000081565b600090565b600054600160a060020a031633146107d057600080fd5b600360009054906101000a9004600160a060020a0316600160a060020a031663186601ca6040518163ffffffff1660e060020a028152600401602060405180830381600087803b15801561082357600080fd5b505af1158015610837573d6000803e3d6000fd5b505050506040513d602081101561084d57600080fd5b50511561085957600080fd5b6005829055600681905561086b610741565b505050565b60048054604080517f4042b66f00000000000000000000000000000000000000000000000000000000815290516000938493600160a060020a031692634042b66f928183019260209282900301818787803b1580156108ce57600080fd5b505af11580156108e2573d6000803e3d6000fd5b505050506040513d60208110156108f857600080fd5b5051600654909150610910828563ffffffff610df116565b1115949350505050565b60008054600160a060020a0316331461093257600080fd5b600360009054906101000a9004600160a060020a0316600160a060020a031663186601ca6040518163ffffffff1660e060020a028152600401602060405180830381600087803b15801561098557600080fd5b505af1158015610999573d6000803e3d6000fd5b505050506040513d60208110156109af57600080fd5b5051156109bb57600080fd5b506002805474ff000000000000000000000000000000000000000019169055600190565b600092915050565b7f6e3019250000000000000000000000000000000000000000000000000000000081565b600454600160a060020a031681565b600254600160a060020a031681565b600054600160a060020a03163314610a4057600080fd5b60008054604051600160a060020a03909116917ff8df31144d9c2f0f6b59d69b8b98abd5459d07f2742c4df920b25aae33c6482091a26000805473ffffffffffffffffffffffffffffffffffffffff19169055565b735f5f536f6674486172644361705374726174656781565b600054600160a060020a031681565b60055481565b604080517fe77cee3d000000000000000000000000000000000000000000000000000000008152306024820181905260048201928352835160448301528351606093735f5f536f667448617264436170537472617465679363e77cee3d9387939092918291606490910190602086019080838360008381101561063257818101518382015260200161061a565b7fa0d0304b0000000000000000000000000000000000000000000000000000000081565b6000600554600460009054906101000a9004600160a060020a0316600160a060020a0316634042b66f6040518163ffffffff1660e060020a028152600401602060405180830381600087803b158015610bcb57600080fd5b505af1158015610bdf573d6000803e3d6000fd5b505050506040513d6020811015610bf557600080fd5b50511015905090565b604080517fe9499555000000000000000000000000000000000000000000000000000000008152306024820181905260048201928352835160448301528351606093735f5f536f667448617264436170537472617465679363e94995559387939092918291606490910190602086019080838360008381101561063257818101518382015260200161061a565b6000600654600460009054906101000a9004600160a060020a0316600160a060020a0316634042b66f6040518163ffffffff1660e060020a028152600401602060405180830381600087803b158015610bcb57600080fd5b7f04c8123d0000000000000000000000000000000000000000000000000000000081565b600054600160a060020a03163314610d1e57600080fd5b610d2781610e04565b50565b60065481565b7f6125ede50000000000000000000000000000000000000000000000000000000081565b600354604080517f186601ca0000000000000000000000000000000000000000000000000000000081529051600092600160a060020a03169163186601ca91600480830192602092919082900301818787803b158015610db357600080fd5b505af1158015610dc7573d6000803e3d6000fd5b505050506040513d6020811015610ddd57600080fd5b505115610de957600080fd5b61076a610e81565b81810182811015610dfe57fe5b92915050565b600160a060020a0381161515610e1957600080fd5b60008054604051600160a060020a03808516939216917f8be0079c531659141344cd1fd0a4f28419497f9722a3daafe3b4186f6b6457e091a36000805473ffffffffffffffffffffffffffffffffffffffff1916600160a060020a0392909216919091179055565b60008054600160a060020a03163314610e9957600080fd5b61076a6002805474ff00000000000000000000000000000000000000001916740100000000000000000000000000000000000000001790556001905600a165627a7a72305820b39c9340d452fbf47cd0fe5540104adc36bcb4f9a5d940022c4b8d1331825d2a0029",
  "source": "pragma solidity ^0.4.24;\n\nimport \"tokenboost-solidity/contracts/strategy/sale/erc20/ERC20SaleStrategy.sol\";\nimport \"tokenboost-solidity/contracts/widget/Renderable.sol\";\nimport \"./widget/SoftHardCapStrategyRenderer.sol\";\n\ncontract SoftHardCapStrategy is ERC20SaleStrategy, Renderable {\n    using SafeMath for uint;\n\n    SoftHardCapStrategyRenderer public constant renderer = SoftHardCapStrategyRenderer(address(bytes20(\"__SoftHardCapStrateg\")));\n\n    uint public softCap;\n    uint public hardCap;\n\n    constructor(address _owner, ERC20Sale _sale) public ERC20SaleStrategy(_owner, _sale) {\n    }\n\n    function update(uint256 _softCap, uint256 _hardCap) public onlyOwner whenSaleNotActivated {\n        softCap = _softCap;\n        hardCap = _hardCap;\n        activate();\n    }\n\n    function activate() public returns (bool) {\n        require(softCap > 0);\n        require(hardCap > 0);\n        return super.activate();\n    }\n\n    function started() public view returns (bool) {\n        return false;\n    }\n\n    function successful() public view returns (bool) {\n        return sale.weiRaised() >= softCap;\n    }\n\n    function finished() public view returns (bool) {\n        return sale.weiRaised() >= hardCap;\n    }\n\n    function purchasable(address _purchaser, uint256 _weiAmount) public view returns (bool) {\n        uint256 raised = sale.weiRaised();\n        return raised.add(_weiAmount) <= hardCap;\n    }\n\n    function tokenRate(address _purchaser, uint256 _weiAmount) public view returns (uint256) {\n        return 0;\n    }\n\n    function supplyTokens(address _purchaser, uint256 _tokenAmount) public returns (bool) {\n        return false;\n    }\n\n    function receivesTokens(address _purchaser, uint256 _tokenAmount) public returns (bool) {\n        return false;\n    }\n\n    function adminWidgets(string locale) public view returns (string json) {\n        return renderer.adminWidgets(locale, this);\n    }\n\n    function userWidgets(string locale) public view returns (string json) {\n        return renderer.userWidgets(locale, this);\n    }\n\n    function inputs(string locale) public view returns (string json) {\n        return renderer.inputs(locale, this);\n    }\n}\n",
  "sourcePath": "/Users/yoonjae/SolidityProjects/tokenboost-solidity-erc20sale-strategies/contracts/strategy/sale/erc20/soft-hard-cap/SoftHardCapStrategy.sol",
  "compiler": {
    "name": "solc",
    "version": "0.4.24+commit.e67f0147.Emscripten.clang"
  },
  "schemaVersion": "2.0.1",
  "updatedAt": "2018-10-17T15:45:18.660Z"
}