{
  "contractName": "StrategyTemplate",
  "abi": [
    {
      "constant": true,
      "inputs": [
        {
          "name": "_interfaceId",
          "type": "bytes4"
        }
      ],
      "name": "supportsInterface",
      "outputs": [
        {
          "name": "",
          "type": "bool"
        }
      ],
      "payable": false,
      "stateMutability": "view",
      "type": "function"
    },
    {
      "constant": true,
      "inputs": [],
      "name": "InterfaceId_ERC165",
      "outputs": [
        {
          "name": "",
          "type": "bytes4"
        }
      ],
      "payable": false,
      "stateMutability": "view",
      "type": "function"
    },
    {
      "constant": true,
      "inputs": [],
      "name": "beneficiary",
      "outputs": [
        {
          "name": "",
          "type": "address"
        }
      ],
      "payable": false,
      "stateMutability": "view",
      "type": "function"
    },
    {
      "constant": true,
      "inputs": [],
      "name": "bytecodeHash",
      "outputs": [
        {
          "name": "",
          "type": "bytes32"
        }
      ],
      "payable": false,
      "stateMutability": "view",
      "type": "function"
    },
    {
      "constant": true,
      "inputs": [
        {
          "name": "_locale",
          "type": "string"
        }
      ],
      "name": "name",
      "outputs": [
        {
          "name": "",
          "type": "string"
        }
      ],
      "payable": false,
      "stateMutability": "view",
      "type": "function"
    },
    {
      "constant": true,
      "inputs": [],
      "name": "InterfaceId_Template",
      "outputs": [
        {
          "name": "",
          "type": "bytes4"
        }
      ],
      "payable": false,
      "stateMutability": "view",
      "type": "function"
    },
    {
      "constant": false,
      "inputs": [],
      "name": "renounceOwnership",
      "outputs": [],
      "payable": false,
      "stateMutability": "nonpayable",
      "type": "function"
    },
    {
      "constant": true,
      "inputs": [
        {
          "name": "_locale",
          "type": "string"
        }
      ],
      "name": "description",
      "outputs": [
        {
          "name": "",
          "type": "string"
        }
      ],
      "payable": false,
      "stateMutability": "view",
      "type": "function"
    },
    {
      "constant": true,
      "inputs": [],
      "name": "owner",
      "outputs": [
        {
          "name": "",
          "type": "address"
        }
      ],
      "payable": false,
      "stateMutability": "view",
      "type": "function"
    },
    {
      "constant": true,
      "inputs": [],
      "name": "price",
      "outputs": [
        {
          "name": "",
          "type": "uint256"
        }
      ],
      "payable": false,
      "stateMutability": "view",
      "type": "function"
    },
    {
      "constant": false,
      "inputs": [
        {
          "name": "_locale",
          "type": "string"
        },
        {
          "name": "_name",
          "type": "string"
        },
        {
          "name": "_description",
          "type": "string"
        }
      ],
      "name": "setNameAndDescription",
      "outputs": [],
      "payable": false,
      "stateMutability": "nonpayable",
      "type": "function"
    },
    {
      "constant": false,
      "inputs": [
        {
          "name": "_newOwner",
          "type": "address"
        }
      ],
      "name": "transferOwnership",
      "outputs": [],
      "payable": false,
      "stateMutability": "nonpayable",
      "type": "function"
    },
    {
      "inputs": [
        {
          "name": "_bytecodeHash",
          "type": "bytes32"
        },
        {
          "name": "_price",
          "type": "uint256"
        },
        {
          "name": "_beneficiary",
          "type": "address"
        }
      ],
      "payable": false,
      "stateMutability": "nonpayable",
      "type": "constructor"
    },
    {
      "anonymous": false,
      "inputs": [
        {
          "indexed": true,
          "name": "creator",
          "type": "address"
        },
        {
          "indexed": true,
          "name": "contractAddress",
          "type": "address"
        }
      ],
      "name": "Instantiated",
      "type": "event"
    },
    {
      "anonymous": false,
      "inputs": [
        {
          "indexed": true,
          "name": "previousOwner",
          "type": "address"
        }
      ],
      "name": "OwnershipRenounced",
      "type": "event"
    },
    {
      "anonymous": false,
      "inputs": [
        {
          "indexed": true,
          "name": "previousOwner",
          "type": "address"
        },
        {
          "indexed": true,
          "name": "newOwner",
          "type": "address"
        }
      ],
      "name": "OwnershipTransferred",
      "type": "event"
    },
    {
      "constant": false,
      "inputs": [
        {
          "name": "_bytecode",
          "type": "bytes"
        },
        {
          "name": "_args",
          "type": "bytes"
        }
      ],
      "name": "instantiate",
      "outputs": [
        {
          "name": "contractAddress",
          "type": "address"
        }
      ],
      "payable": true,
      "stateMutability": "payable",
      "type": "function"
    }
  ],
  "bytecode": "0x608060405234801561001057600080fd5b50604051606080610ed083398101604090815281516020830151919092015160008054600160a060020a031916331790558282826100767f01ffc9a7000000000000000000000000000000000000000000000000000000006401000000006100f8810204565b6004839055600582905560068054600160a060020a031916600160a060020a03831617905560008211156100bb57600654600160a060020a031615156100bb57600080fd5b6100ed7fd48445ff000000000000000000000000000000000000000000000000000000006401000000006100f8810204565b505050505050610167565b7fffffffff00000000000000000000000000000000000000000000000000000000808216141561012757600080fd5b7fffffffff00000000000000000000000000000000000000000000000000000000166000908152600160208190526040909120805460ff19169091179055565b610d5a806101766000396000f3006080604052600436106100c45763ffffffff7c010000000000000000000000000000000000000000000000000000000060003504166301ffc9a781146100c957806319fa8f501461011457806338af3eed1461015b578063420c6a2c1461018c5780635b43bc99146101b35780636535b4a5146102815780636e63d1091461030b578063715018a61461032057806388255199146103375780638da5cb5b14610390578063a035b1fe146103a5578063b649c913146103ba578063f2fde38b1461048f575b600080fd5b3480156100d557600080fd5b506101007bffffffffffffffffffffffffffffffffffffffffffffffffffffffff19600435166104b0565b604080519115158252519081900360200190f35b34801561012057600080fd5b506101296104e4565b604080517bffffffffffffffffffffffffffffffffffffffffffffffffffffffff199092168252519081900360200190f35b34801561016757600080fd5b506101706104f2565b60408051600160a060020a039092168252519081900360200190f35b34801561019857600080fd5b506101a1610501565b60408051918252519081900360200190f35b3480156101bf57600080fd5b506040805160206004803580820135601f810184900484028501840190955284845261020c9436949293602493928401919081908401838280828437509497506105079650505050505050565b6040805160208082528351818301528351919283929083019185019080838360005b8381101561024657818101518382015260200161022e565b50505050905090810190601f1680156102735780820380516001836020036101000a031916815260200191505b509250505060405180910390f35b6040805160206004803580820135601f810184900484028501840190955284845261017094369492936024939284019190819084018382808284375050604080516020601f89358b018035918201839004830284018301909452808352979a9998810197919650918201945092508291508401838280828437509497506105fb9650505050505050565b34801561031757600080fd5b506101296106b5565b34801561032c57600080fd5b506103356106d9565b005b34801561034357600080fd5b506040805160206004803580820135601f810184900484028501840190955284845261020c9436949293602493928401919081908401838280828437509497506107459650505050505050565b34801561039c57600080fd5b50610170610778565b3480156103b157600080fd5b506101a1610787565b3480156103c657600080fd5b506040805160206004803580820135601f810184900484028501840190955284845261033594369492936024939284019190819084018382808284375050604080516020601f89358b018035918201839004830284018301909452808352979a99988101979196509182019450925082915084018382808284375050604080516020601f89358b018035918201839004830284018301909452808352979a99988101979196509182019450925082915084018382808284375094975061078d9650505050505050565b34801561049b57600080fd5b50610335600160a060020a0360043516610893565b7bffffffffffffffffffffffffffffffffffffffffffffffffffffffff191660009081526001602052604090205460ff1690565b60e060020a6301ffc9a70281565b600654600160a060020a031681565b60045481565b60606002826040518082805190602001908083835b6020831061053b5780518252601f19909201916020918201910161051c565b518151600019602094850361010090810a820192831692199390931691909117909252949092019687526040805197889003820188208054601f60026001831615909802909501169590950492830182900482028801820190528187529294509250508301828280156105ef5780601f106105c4576101008083540402835291602001916105ef565b820191906000526020600020905b8154815290600101906020018083116105d257829003601f168201915b50505050509050919050565b60008061060884846108b6565b6040805160e060020a6301ffc9a70281527f6e3019250000000000000000000000000000000000000000000000000000000060048201529051919250600160a060020a038316916301ffc9a7916024808201926020929091908290030181600087803b15801561067757600080fd5b505af115801561068b573d6000803e3d6000fd5b505050506040513d60208110156106a157600080fd5b505115156106ae57600080fd5b9392505050565b7fd48445ff0000000000000000000000000000000000000000000000000000000081565b600054600160a060020a031633146106f057600080fd5b60008054604051600160a060020a03909116917ff8df31144d9c2f0f6b59d69b8b98abd5459d07f2742c4df920b25aae33c6482091a26000805473ffffffffffffffffffffffffffffffffffffffff19169055565b60606003826040518082805190602001908083836020831061053b5780518252601f19909201916020918201910161051c565b600054600160a060020a031681565b60055481565b600054600160a060020a031633146107a457600080fd5b816002846040518082805190602001908083835b602083106107d75780518252601f1990920191602091820191016107b8565b51815160209384036101000a600019018019909216911617905292019485525060405193849003810190932084516108189591949190910192509050610c93565b50806003846040518082805190602001908083835b6020831061084c5780518252601f19909201916020918201910161082d565b51815160209384036101000a6000190180199092169116179052920194855250604051938490038101909320845161088d9591949190910192509050610c93565b50505050565b600054600160a060020a031633146108aa57600080fd5b6108b381610c16565b50565b600060606000846040518082805190602001908083835b602083106108ec5780518252601f1990920191602091820191016108cd565b5181516020939093036101000a6000190180199091169216919091179052604051920182900390912060045414925061092791505057600080fd5b84846040516020018083805190602001908083835b6020831061095b5780518252601f19909201916020918201910161093c565b51815160209384036101000a600019018019909216911617905285519190930192850191508083835b602083106109a35780518252601f199092019160209182019101610984565b6001836020036101000a0380198251168184511680821785525050505050509050019250505060405160208183030381529060405291508151602083016000f09250600160a060020a0383161515610a5c57604080517f08c379a000000000000000000000000000000000000000000000000000000000815260206004820152601b60248201527f43616e6e6f7420696e7374616e746961746520636f6e74726163740000000000604482015290519081900360640190fd5b506040805160e060020a6301ffc9a702808252600482015290518391600160a060020a038316916301ffc9a7916024808201926020929091908290030181600087803b158015610aab57600080fd5b505af1158015610abf573d6000803e3d6000fd5b505050506040513d6020811015610ad557600080fd5b50511515610ae257600080fd5b6040805160e060020a6301ffc9a70281527f6125ede50000000000000000000000000000000000000000000000000000000060048201529051600160a060020a038316916301ffc9a79160248083019260209291908290030181600087803b158015610b4d57600080fd5b505af1158015610b61573d6000803e3d6000fd5b505050506040513d6020811015610b7757600080fd5b50511515610b8457600080fd5b60006005541115610bd8576005543414610b9d57600080fd5b600654604051600160a060020a03909116903480156108fc02916000818181858888f19350505050158015610bd6573d6000803e3d6000fd5b505b604051600160a060020a0384169033907f4b9699a19830f077a7203307c78b030d114793c7d90c38f8293304371864b5e190600090a3505092915050565b600160a060020a0381161515610c2b57600080fd5b60008054604051600160a060020a03808516939216917f8be0079c531659141344cd1fd0a4f28419497f9722a3daafe3b4186f6b6457e091a36000805473ffffffffffffffffffffffffffffffffffffffff1916600160a060020a0392909216919091179055565b828054600181600116156101000203166002900490600052602060002090601f016020900481019282601f10610cd457805160ff1916838001178555610d01565b82800160010185558215610d01579182015b82811115610d01578251825591602001919060010190610ce6565b50610d0d929150610d11565b5090565b610d2b91905b80821115610d0d5760008155600101610d17565b905600a165627a7a72305820f226bb8e8cdb9c5065b2e86170870baf811a0e3592619d221fc16b4826cac52d0029",
  "source": "pragma solidity ^0.4.24;\n\nimport \"../Template.sol\";\nimport \"../../strategy/Strategy.sol\";\n\ncontract StrategyTemplate is Template {\n    constructor(\n        bytes32 _bytecodeHash,\n        uint _price,\n        address _beneficiary\n    ) public\n    Template(\n        _bytecodeHash,\n        _price,\n        _beneficiary\n    ) {\n    }\n\n    function instantiate(bytes _bytecode, bytes _args) public payable returns (address contractAddress) {\n        Strategy strategy = Strategy(super.instantiate(_bytecode, _args));\n        // InterfaceId_Strategy\n        require(strategy.supportsInterface(0x6e301925));\n        return strategy;\n    }\n}\n",
  "sourcePath": "tokenboost-solidity/contracts/template/strategy/StrategyTemplate.sol",
  "compiler": {
    "name": "solc",
    "version": "0.4.24+commit.e67f0147.Emscripten.clang"
  },
  "schemaVersion": "2.0.1",
  "updatedAt": "2018-10-11T18:33:08.316Z"
}