{
  "contractName": "TimedStartFinishStrategyRenderer",
  "abi": [
    {
      "constant": true,
      "inputs": [],
      "name": "STARTED_AT",
      "outputs": [
        {
          "name": "",
          "type": "string"
        }
      ],
      "payable": false,
      "stateMutability": "view",
      "type": "function"
    },
    {
      "constant": true,
      "inputs": [],
      "name": "STARTED_AT_LONG_DESC",
      "outputs": [
        {
          "name": "",
          "type": "string"
        }
      ],
      "payable": false,
      "stateMutability": "view",
      "type": "function"
    },
    {
      "constant": true,
      "inputs": [],
      "name": "STARTED_AT_SHORT_DESC",
      "outputs": [
        {
          "name": "",
          "type": "string"
        }
      ],
      "payable": false,
      "stateMutability": "view",
      "type": "function"
    },
    {
      "constant": false,
      "inputs": [],
      "name": "renounceOwnership",
      "outputs": [],
      "payable": false,
      "stateMutability": "nonpayable",
      "type": "function"
    },
    {
      "constant": true,
      "inputs": [],
      "name": "owner",
      "outputs": [
        {
          "name": "",
          "type": "address"
        }
      ],
      "payable": false,
      "stateMutability": "view",
      "type": "function"
    },
    {
      "constant": true,
      "inputs": [],
      "name": "FINISHED_AT_SHORT_DESC",
      "outputs": [
        {
          "name": "",
          "type": "string"
        }
      ],
      "payable": false,
      "stateMutability": "view",
      "type": "function"
    },
    {
      "constant": true,
      "inputs": [],
      "name": "FINISHED_AT_LONG_DESC",
      "outputs": [
        {
          "name": "",
          "type": "string"
        }
      ],
      "payable": false,
      "stateMutability": "view",
      "type": "function"
    },
    {
      "constant": true,
      "inputs": [],
      "name": "UPDATE_CONFIRM",
      "outputs": [
        {
          "name": "",
          "type": "string"
        }
      ],
      "payable": false,
      "stateMutability": "view",
      "type": "function"
    },
    {
      "constant": true,
      "inputs": [],
      "name": "UPDATE",
      "outputs": [
        {
          "name": "",
          "type": "string"
        }
      ],
      "payable": false,
      "stateMutability": "view",
      "type": "function"
    },
    {
      "constant": true,
      "inputs": [],
      "name": "FINISHED_AT",
      "outputs": [
        {
          "name": "",
          "type": "string"
        }
      ],
      "payable": false,
      "stateMutability": "view",
      "type": "function"
    },
    {
      "constant": false,
      "inputs": [
        {
          "name": "locale",
          "type": "string"
        },
        {
          "name": "key",
          "type": "string"
        },
        {
          "name": "value",
          "type": "string"
        }
      ],
      "name": "setResource",
      "outputs": [],
      "payable": false,
      "stateMutability": "nonpayable",
      "type": "function"
    },
    {
      "constant": false,
      "inputs": [
        {
          "name": "_newOwner",
          "type": "address"
        }
      ],
      "name": "transferOwnership",
      "outputs": [],
      "payable": false,
      "stateMutability": "nonpayable",
      "type": "function"
    },
    {
      "constant": true,
      "inputs": [
        {
          "name": "locale",
          "type": "string"
        },
        {
          "name": "key",
          "type": "string"
        }
      ],
      "name": "resource",
      "outputs": [
        {
          "name": "",
          "type": "string"
        }
      ],
      "payable": false,
      "stateMutability": "view",
      "type": "function"
    },
    {
      "anonymous": false,
      "inputs": [
        {
          "indexed": true,
          "name": "previousOwner",
          "type": "address"
        }
      ],
      "name": "OwnershipRenounced",
      "type": "event"
    },
    {
      "anonymous": false,
      "inputs": [
        {
          "indexed": true,
          "name": "previousOwner",
          "type": "address"
        },
        {
          "indexed": true,
          "name": "newOwner",
          "type": "address"
        }
      ],
      "name": "OwnershipTransferred",
      "type": "event"
    },
    {
      "constant": true,
      "inputs": [
        {
          "name": "_locale",
          "type": "string"
        },
        {
          "name": "_strategy",
          "type": "address"
        }
      ],
      "name": "adminWidgets",
      "outputs": [
        {
          "name": "",
          "type": "string"
        }
      ],
      "payable": false,
      "stateMutability": "view",
      "type": "function"
    },
    {
      "constant": true,
      "inputs": [
        {
          "name": "_locale",
          "type": "string"
        },
        {
          "name": "_strategy",
          "type": "address"
        }
      ],
      "name": "userWidgets",
      "outputs": [
        {
          "name": "json",
          "type": "string"
        }
      ],
      "payable": false,
      "stateMutability": "view",
      "type": "function"
    },
    {
      "constant": true,
      "inputs": [
        {
          "name": "_locale",
          "type": "string"
        },
        {
          "name": "_strategy",
          "type": "address"
        }
      ],
      "name": "inputs",
      "outputs": [
        {
          "name": "",
          "type": "string"
        }
      ],
      "payable": false,
      "stateMutability": "view",
      "type": "function"
    }
  ],
  "bytecode": "0x608060405260008054600160a060020a03191633179055613401806100256000396000f3006080604052600436106100cc5763ffffffff60e060020a6000350416630a9bb92f81146100d1578063393934471461015b57806344e63b8e14610170578063715018a6146101855780638da5cb5b1461019c5780639220e0cb146101cd578063aa5edc25146101e2578063b07b3c78146101f7578063bf3bed541461020c578063d30f6e2014610270578063daddf01614610285578063e77cee3d1461029a578063e9499555146102fe578063ed3487fe14610362578063f2fde38b14610437578063f65a5c1b14610458575b600080fd5b3480156100dd57600080fd5b506100e66104ef565b6040805160208082528351818301528351919283929083019185019080838360005b83811015610120578181015183820152602001610108565b50505050905090810190601f16801561014d5780820380516001836020036101000a031916815260200191505b509250505060405180910390f35b34801561016757600080fd5b506100e6610514565b34801561017c57600080fd5b506100e661054b565b34801561019157600080fd5b5061019a610582565b005b3480156101a857600080fd5b506101b16105ee565b60408051600160a060020a039092168252519081900360200190f35b3480156101d957600080fd5b506100e66105fd565b3480156101ee57600080fd5b506100e6610634565b34801561020357600080fd5b506100e661066b565b34801561021857600080fd5b506040805160206004803580820135601f81018490048402850184019095528484526100e694369492936024939284019190819084018382808284375094975050509235600160a060020a031693506106a292505050565b34801561027c57600080fd5b506100e661113e565b34801561029157600080fd5b506100e6611175565b3480156102a657600080fd5b506040805160206004803580820135601f81018490048402850184019095528484526100e694369492936024939284019190819084018382808284375094975050509235600160a060020a0316935061119a92505050565b34801561030a57600080fd5b506040805160206004803580820135601f81018490048402850184019095528484526100e694369492936024939284019190819084018382808284375094975050509235600160a060020a031693506111d392505050565b34801561036e57600080fd5b506040805160206004803580820135601f810184900484028501840190955284845261019a94369492936024939284019190819084018382808284375050604080516020601f89358b018035918201839004830284018301909452808352979a99988101979196509182019450925082915084018382808284375050604080516020601f89358b018035918201839004830284018301909452808352979a99988101979196509182019450925082915084018382808284375094975061131d9650505050505050565b34801561044357600080fd5b5061019a600160a060020a036004351661140a565b34801561046457600080fd5b506040805160206004803580820135601f81018490048402850184019095528484526100e694369492936024939284019190819084018382808284375050604080516020601f89358b018035918201839004830284018301909452808352979a99988101979196509182019450925082915084018382808284375094975061142d9650505050505050565b60408051808201909152600a81526000805160206133b6833981519152602082015281565b60408051808201909152601481527f737461727465645f61745f6c6f6e675f64657363000000000000000000000000602082015281565b60408051808201909152601581527f737461727465645f61745f73686f72745f646573630000000000000000000000602082015281565b600054600160a060020a0316331461059957600080fd5b60008054604051600160a060020a03909116917ff8df31144d9c2f0f6b59d69b8b98abd5459d07f2742c4df920b25aae33c6482091a26000805473ffffffffffffffffffffffffffffffffffffffff19169055565b600054600160a060020a031681565b60408051808201909152601681527f66696e69736865645f61745f73686f72745f6465736300000000000000000000602082015281565b60408051808201909152601581527f66696e69736865645f61745f6c6f6e675f646573630000000000000000000000602082015281565b60408051808201909152600e81527f7570646174655f636f6e6669726d000000000000000000000000000000000000602082015281565b604080516003808252608082019092526060918291829160009190816020015b6106ca6131bf565b8152602001906001900390816106c257905050925060e0604051908101604052806001151581526020016040805190810160405280600a81526020016000805160206133b683398151915281525081526020016040805190810160405280600d81526020017f74696d657374616d70456469740000000000000000000000000000000000000081525081526020016001886040518082805190602001908083835b6020831061078a5780518252601f19909201916020918201910161076b565b51815160209384036101000a60001901801990921691161790529201948552506040805194859003820185208582018252600a8087526000805160206133b683398151915293870193845291519095945092508291908083835b602083106108035780518252601f1990920191602091820191016107e4565b518151600019602094850361010090810a820192831692199390931691909117909252949092019687526040805197889003820188208054601f60026001831615909802909501169590950492830182900482028801820190528187529294509250508301828280156108b75780601f1061088c576101008083540402835291602001916108b7565b820191906000526020600020905b81548152906001019060200180831161089a57829003601f168201915b5050505050815260200161093387600160a060020a031663f21f537d6040518163ffffffff1660e060020a028152600401602060405180830381600087803b15801561090257600080fd5b505af1158015610916573d6000803e3d6000fd5b505050506040513d602081101561092c57600080fd5b505161157e565b81526020016109406116dd565b815260200161094d611730565b905283518490600090811061095e57fe5b9060200190602002018190525060e0604051908101604052806001151581526020016040805190810160405280600b815260200160008051602061339683398151915281525081526020016040805190810160405280600d81526020017f74696d657374616d70456469740000000000000000000000000000000000000081525081526020016001886040518082805190602001908083835b60208310610a165780518252601f1990920191602091820191016109f7565b51815160209384036101000a60001901801990921691161790529201948552506040805194859003820185208582018252600b80875260008051602061339683398151915293870193845291519095945092508291908083835b60208310610a8f5780518252601f199092019160209182019101610a70565b518151600019602094850361010090810a820192831692199390931691909117909252949092019687526040805197889003820188208054601f6002600183161590980290950116959095049283018290048202880182019052818752929450925050830182828015610b435780601f10610b1857610100808354040283529160200191610b43565b820191906000526020600020905b815481529060010190602001808311610b2657829003601f168201915b50505050508152602001610b8e87600160a060020a03166347d54bff6040518163ffffffff1660e060020a028152600401602060405180830381600087803b15801561090257600080fd5b8152602001610b9b6116dd565b8152602001610ba8611730565b9052835184906001908110610bb957fe5b9060200190602002018190525060e0604051908101604052806001151581526020016040805190810160405280600681526020017f757064617465000000000000000000000000000000000000000000000000000081525081526020016040805190810160405280600681526020017f627574746f6e000000000000000000000000000000000000000000000000000081525081526020016001886040518082805190602001908083835b60208310610c835780518252601f199092019160209182019101610c64565b51815160209384036101000a6000190180199092169116179052920194855250604080519485900382018520858201825260068087527f757064617465000000000000000000000000000000000000000000000000000093870193845291519095945092508291908083835b60208310610d0e5780518252601f199092019160209182019101610cef565b518151600019602094850361010090810a820192831692199390931691909117909252949092019687526040805197889003820188208054601f6002600183161590980290950116959095049283018290048202880182019052818752929450925050830182828015610dc25780601f10610d9757610100808354040283529160200191610dc2565b820191906000526020600020905b815481529060010190602001808311610da557829003601f168201915b5050505050815260200160408051908101604052806004815260200160e260020a631b9d5b1b02815250815260200160a06040519081016040528060011515815260200188600160a060020a031681526020016040805190810160405280601781526020017f7570646174652875696e743235362c75696e743235362900000000000000000081525081526020016040805190810160405280601c81526020017f5b22737461727465645f6174222c2266696e69736865645f6174225d00000000815250815260200160018a6040518082805190602001908083835b60208310610ebd5780518252601f199092019160209182019101610e9e565b51815160209384036101000a60001901801990921691161790529201948552506040805194859003820185208582018252600e8087527f7570646174655f636f6e6669726d00000000000000000000000000000000000093870193845291519095945092508291908083835b60208310610f485780518252601f199092019160209182019101610f29565b518151600019602094850361010090810a820192831692199390931691909117909252949092019687526040805197889003820188208054601f6002600183161590980290950116959095049283018290048202880182019052818752929450925050830182828015610ffc5780601f10610fd157610100808354040283529160200191610ffc565b820191906000526020600020905b815481529060010190602001808311610fdf57829003601f168201915b50505050508152508152602001611011611730565b905283518490600290811061102257fe5b906020019060200201819052506040805190810160405280600181526020017f5b000000000000000000000000000000000000000000000000000000000000008152509150600090505b82518110156110f35760008111156110be576110bb6110a660408051908101604052806001815260200160fa60020a600b028152506117bd565b6110af846117bd565b9063ffffffff6117e616565b91505b6110e96110a66110e485848151811015156110d557fe5b90602001906020020151611861565b6117bd565b915060010161106c565b6111346110a66040805190810160405280600181526020017f5d000000000000000000000000000000000000000000000000000000000000008152506117bd565b9695505050505050565b60408051808201909152600681527f7570646174650000000000000000000000000000000000000000000000000000602082015281565b60408051808201909152600b8152600080516020613396833981519152602082015281565b505060408051808201909152600281527f5b5d000000000000000000000000000000000000000000000000000000000000602082015290565b60608060006111e061320b565b600060606040805190810160405280600181526020017f5b0000000000000000000000000000000000000000000000000000000000000081525094506000935060408051908101604052806112358a8a611b39565b81526020016112448a8a612223565b90529250600091505b60028210156112d05782826002811061126257fe5b602002015190506000815111156112c55760008411156112b0576112ad6112a460408051908101604052806001815260200160fa60020a600b028152506117bd565b6110af876117bd565b94505b6112bc6112a4826117bd565b94506001909301925b60019091019061124d565b6113116112a46040805190810160405280600181526020017f5d000000000000000000000000000000000000000000000000000000000000008152506117bd565b98975050505050505050565b600054600160a060020a0316331461133457600080fd5b806001846040518082805190602001908083835b602083106113675780518252601f199092019160209182019101611348565b51815160209384036101000a6000190180199092169116179052920194855250604051938490038101842087519094889450925082918401908083835b602083106113c35780518252601f1990920191602091820191016113a4565b51815160209384036101000a600019018019909216911617905292019485525060405193849003810190932084516114049591949190910192509050613232565b50505050565b600054600160a060020a0316331461142157600080fd5b61142a81612801565b50565b60606001836040518082805190602001908083835b602083106114615780518252601f199092019160209182019101611442565b51815160209384036101000a6000190180199092169116179052920194855250604051938490038101842086519094879450925082918401908083835b602083106114bd5780518252601f19909201916020918201910161149e565b518151600019602094850361010090810a820192831692199390931691909117909252949092019687526040805197889003820188208054601f60026001831615909802909501169590950492830182900482028801820190528187529294509250508301828280156115715780601f1061154657610100808354040283529160200191611571565b820191906000526020600020905b81548152906001019060200180831161155457829003601f168201915b5050505050905092915050565b606080600081818515156115c75760408051808201909152600181527f3000000000000000000000000000000000000000000000000000000000000000602082015294506116d4565b6040805160208082528183019092529080820161040080388339019050509350600092505b600086111561163957600a860660300160f860020a02848481518110151561161057fe5b906020010190600160f860020a031916908160001a905350600a860495506001909201916115ec565b60408051848152601f19601f8601168101602001909152600019840193801561166c578160200160208202803883390190505b509150600090505b81518110156116d05783516000198401938591811061168f57fe5b90602001015160f860020a900460f860020a0282828151811015156116b057fe5b906020010190600160f860020a031916908160001a905350600101611674565b8194505b50505050919050565b6116e56132b0565b506040805160a0810182526000808252602080830182905283518082018552828152838501528351808201855282815260608401528351908101909352825260808101919091525b90565b6117386132dd565b6040805160608101825260008082528251818152602081810190945291928301919061177a565b611767613301565b81526020019060019003908161175f5790505b50815260200160006040519080825280602002602001820160405280156117b557816020015b60608152602001906001900390816117a05790505b509052905090565b6117c5613334565b50604080518082019091528151815260208281019082018190525b50919050565b606080600083600001518560000151016040519080825280601f01601f191660200182016040528015611823578160200160208202803883390190505b50915060208201905061183f818660200151876000015161287e565b845160208501518551611855928401919061287e565b8192505b505092915050565b606080826000015115611b14576040805190810160405280600781526020017f7b226964223a220000000000000000000000000000000000000000000000000081525090506118bf6118b684602001516117bd565b6110af836117bd565b90506119026118b66040805190810160405280600181526020017f22000000000000000000000000000000000000000000000000000000000000008152506117bd565b60a08401515190915015611969576119516118b66040805190810160405280600b81526020017f2c2022616374696f6e223a0000000000000000000000000000000000000000008152506117bd565b90506119666118b66110e48560a001516128c2565b90505b60c083015151156119cd576119b56118b66040805190810160405280600a81526020017f2c20227461626c65223a000000000000000000000000000000000000000000008152506117bd565b90506119ca6118b66110e48560c00151612a65565b90505b611a0e6118b66040805190810160405280600981526020017f2c2274797065223a2200000000000000000000000000000000000000000000008152506117bd565b9050611a206118b684604001516117bd565b9050611a636118b66040805190810160405280600b81526020017f222c226c6162656c223a220000000000000000000000000000000000000000008152506117bd565b9050611a756118b684606001516117bd565b9050611ab86118b66040805190810160405280600981526020017f222c2264617461223a00000000000000000000000000000000000000000000008152506117bd565b9050611aca6118b684608001516117bd565b9050611b0d6118b66040805190810160405280600181526020017f7d000000000000000000000000000000000000000000000000000000000000008152506117bd565b91506117e0565b604080518082019091526004815260e260020a631b9d5b1b02602082015291506117e0565b606080611b4461334b565b83600160a060020a0316636ad1fe026040518163ffffffff1660e060020a028152600401602060405180830381600087803b158015611b8257600080fd5b505af1158015611b96573d6000803e3d6000fd5b505050506040513d6020811015611bac57600080fd5b5051604080517f1f2698ab0000000000000000000000000000000000000000000000000000000081529051600160a060020a0390921691631f2698ab916004808201926020929091908290030181600087803b158015611c0b57600080fd5b505af1158015611c1f573d6000803e3d6000fd5b505050506040513d6020811015611c3557600080fd5b50511561220d5760408051600180825281830190925290816020015b611c596131bf565b815260200190600190039081611c5157905050915060e0604051908101604052806001151581526020016040805190810160405280600a81526020016000805160206133b683398151915281525081526020016040805190810160405280600981526020017f74696d657374616d700000000000000000000000000000000000000000000000815250815260200160408051908101604052806004815260200160e260020a631b9d5b1b028152508152602001611d4d86600160a060020a031663f21f537d6040518163ffffffff1660e060020a028152600401602060405180830381600087803b15801561090257600080fd5b8152602001611d5a6116dd565b8152602001611d67611730565b9052825183906000908110611d7857fe5b9060200190602002018190525060a0604051908101604052806001876040518082805190602001908083835b60208310611dc35780518252601f199092019160209182019101611da4565b51815160209384036101000a60001901801990921691161790529201948552506040805194859003820185208582018252600a8087526000805160206133b683398151915293870193845291519095945092508291908083835b60208310611e3c5780518252601f199092019160209182019101611e1d565b518151600019602094850361010090810a820192831692199390931691909117909252949092019687526040805197889003820188208054601f6002600183161590980290950116959095049283018290048202880182019052818752929450925050830182828015611ef05780601f10611ec557610100808354040283529160200191611ef0565b820191906000526020600020905b815481529060010190602001808311611ed357829003601f168201915b505050505081526020016001876040518082805190602001908083835b60208310611f2c5780518252601f199092019160209182019101611f0d565b51815160209384036101000a6000190180199092169116179052920194855250604080519485900382018520858201825260158087527f737461727465645f61745f73686f72745f64657363000000000000000000000093870193845291519095945092508291908083835b60208310611fb75780518252601f199092019160209182019101611f98565b518151600019602094850361010090810a820192831692199390931691909117909252949092019687526040805197889003820188208054601f600260018316159098029095011695909504928301829004820288018201905281875292945092505083018282801561206b5780601f106120405761010080835404028352916020019161206b565b820191906000526020600020905b81548152906001019060200180831161204e57829003601f168201915b505050505081526020016001876040518082805190602001908083835b602083106120a75780518252601f199092019160209182019101612088565b51815160209384036101000a6000190180199092169116179052920194855250604080519485900382018520858201825260148087527f737461727465645f61745f6c6f6e675f6465736300000000000000000000000093870193845291519095945092508291908083835b602083106121325780518252601f199092019160209182019101612113565b518151600019602094850361010090810a820192831692199390931691909117909252949092019687526040805197889003820188208054601f60026001831615909802909501169590950492830182900482028801820190528187529294509250508301828280156121e65780601f106121bb576101008083540402835291602001916121e6565b820191906000526020600020905b8154815290600101906020018083116121c957829003601f168201915b505050505081526020016004815260200183815250905061220681612c66565b9250611859565b6040805160208101909152600081529250611859565b60608061222e61334b565b83600160a060020a0316636ad1fe026040518163ffffffff1660e060020a028152600401602060405180830381600087803b15801561226c57600080fd5b505af1158015612280573d6000803e3d6000fd5b505050506040513d602081101561229657600080fd5b5051604080517fbef4876b0000000000000000000000000000000000000000000000000000000081529051600160a060020a039092169163bef4876b916004808201926020929091908290030181600087803b1580156122f557600080fd5b505af1158015612309573d6000803e3d6000fd5b505050506040513d602081101561231f57600080fd5b50511561220d5760408051600180825281830190925290816020015b6123436131bf565b81526020019060019003908161233b57905050915060e0604051908101604052806001151581526020016040805190810160405280600b815260200160008051602061339683398151915281525081526020016040805190810160405280600981526020017f74696d657374616d700000000000000000000000000000000000000000000000815250815260200160408051908101604052806004815260200160e260020a631b9d5b1b02815250815260200161243786600160a060020a03166347d54bff6040518163ffffffff1660e060020a028152600401602060405180830381600087803b15801561090257600080fd5b81526020016124446116dd565b8152602001612451611730565b905282518390600090811061246257fe5b9060200190602002018190525060a0604051908101604052806001876040518082805190602001908083835b602083106124ad5780518252601f19909201916020918201910161248e565b51815160209384036101000a60001901801990921691161790529201948552506040805194859003820185208582018252600b80875260008051602061339683398151915293870193845291519095945092508291908083835b602083106125265780518252601f199092019160209182019101612507565b518151600019602094850361010090810a820192831692199390931691909117909252949092019687526040805197889003820188208054601f60026001831615909802909501169590950492830182900482028801820190528187529294509250508301828280156125da5780601f106125af576101008083540402835291602001916125da565b820191906000526020600020905b8154815290600101906020018083116125bd57829003601f168201915b505050505081526020016001876040518082805190602001908083835b602083106126165780518252601f1990920191602091820191016125f7565b51815160209384036101000a6000190180199092169116179052920194855250604080519485900382018520858201825260168087527f66696e69736865645f61745f73686f72745f646573630000000000000000000093870193845291519095945092508291908083835b602083106126a15780518252601f199092019160209182019101612682565b518151600019602094850361010090810a820192831692199390931691909117909252949092019687526040805197889003820188208054601f60026001831615909802909501169590950492830182900482028801820190528187529294509250508301828280156127555780601f1061272a57610100808354040283529160200191612755565b820191906000526020600020905b81548152906001019060200180831161273857829003601f168201915b505050505081526020016001876040518082805190602001908083835b602083106127915780518252601f199092019160209182019101612772565b51815160209384036101000a6000190180199092169116179052920194855250604080519485900382018520858201825260158087527f66696e69736865645f61745f6c6f6e675f6465736300000000000000000000009387019384529151909594509250829190808383612132565b600160a060020a038116151561281657600080fd5b60008054604051600160a060020a03808516939216917f8be0079c531659141344cd1fd0a4f28419497f9722a3daafe3b4186f6b6457e091a36000805473ffffffffffffffffffffffffffffffffffffffff1916600160a060020a0392909216919091179055565b60005b602082106128a3578251845260209384019390920191601f1990910190612881565b50905182516020929092036101000a6000190180199091169116179052565b606080826000015115611b14576040805190810160405280600c81526020017f7b2261646472657373223a22000000000000000000000000000000000000000081525090506129236118b66110e48560200151600160a060020a0316612eab565b90506129666118b66040805190810160405280601681526020017f222c2266756e6374696f6e53656c6563746f72223a22000000000000000000008152506117bd565b90506129786118b684604001516117bd565b90506129bb6118b66040805190810160405280600e81526020017f222c22617267756d656e7473223a0000000000000000000000000000000000008152506117bd565b90506129cd6118b684606001516117bd565b9050612a106118b66040805190810160405280600c81526020017f2c22636f6e6669726d223a2200000000000000000000000000000000000000008152506117bd565b9050612a226118b684608001516117bd565b9050611b0d6118b66040805190810160405280600281526020017f227d0000000000000000000000000000000000000000000000000000000000008152506117bd565b606080600080846000015115612c3d57505060408051808201909152600c81527f7b22636f6c756d6e73223a5b0000000000000000000000000000000000000000602082015290506000805b846020015151811015612b33576000821115612afb57612af8612aef60408051908101604052806001815260200160fa60020a600b028152506117bd565b6110af856117bd565b92505b612b25612aef6110e4876020015184815181101515612b1657fe5b90602001906020020151612fee565b925060019182019101612ab1565b612b74612aef6040805190810160405280600a81526020017f5d2c22726f7773223a5b000000000000000000000000000000000000000000008152506117bd565b925060009150600090505b846040015151811015612bf5576000821115612bc057612bbd612aef60408051908101604052806001815260200160fa60020a600b028152506117bd565b92505b612be7612aef866040015183815181101515612bd857fe5b906020019060200201516117bd565b925060019182019101612b7f565b612c36612aef6040805190810160405280600281526020017f5d7d0000000000000000000000000000000000000000000000000000000000008152506117bd565b9350612c5e565b604080518082019091526004815260e260020a631b9d5b1b02602082015293505b505050919050565b60408051808201909152600a81527f7b227469746c65223a22000000000000000000000000000000000000000000006020820152815160609190600090612cb0906110a6906117bd565b9150612cf36110a66040805190810160405280600f81526020017f222c2273686f727444657363223a2200000000000000000000000000000000008152506117bd565b9150612d056110a685602001516117bd565b9150612d486110a66040805190810160405280600e81526020017f222c226c6f6e6744657363223a220000000000000000000000000000000000008152506117bd565b9150612d5a6110a685604001516117bd565b9150612d9d6110a66040805190810160405280600a81526020017f222c227769647468223a000000000000000000000000000000000000000000008152506117bd565b9150612db26110a66110e4866060015161157e565b9150612df56110a66040805190810160405280600d81526020017f2c22656c656d656e7473223a5b000000000000000000000000000000000000008152506117bd565b9150600090505b836080015151811015612e62576000811115612e3d57612e3a6110a660408051908101604052806001815260200160fa60020a600b028152506117bd565b91505b612e586110a66110e48660800151848151811015156110d557fe5b9150600101612dfc565b612ea36110a66040805190810160405280600281526020017f5d7d0000000000000000000000000000000000000000000000000000000000008152506117bd565b949350505050565b60408051602a80825260608083019093528291600091829182916020820161054080388339505081519195507f3000000000000000000000000000000000000000000000000000000000000000918691506000908110612f0757fe5b906020010190600160f860020a031916908160001a90535083517f78000000000000000000000000000000000000000000000000000000000000009085906001908110612f5057fe5b906020010190600160f860020a031916908160001a905350859250600091505b6028821015612fe457506030600f8316016039600160a060020a0382161115612f97576027015b8060f860020a028483602803600101815181101515612fb257fe5b906020010190600160f860020a031916908160001a9053506010600160a060020a038416049250600190910190612f70565b5091949350505050565b606080826000015115611b14576040805190810160405280600781526020017f7b226964223a220000000000000000000000000000000000000000000000000081525090506130436118b684602001516117bd565b90506130866118b66040805190810160405280600181526020017f22000000000000000000000000000000000000000000000000000000000000008152506117bd565b60808401515190915015613117576130bc6118b660408051908101604052806001815260200160fa60020a600b028152506117bd565b90506130ff6118b66040805190810160405280600981526020017f22616374696f6e223a00000000000000000000000000000000000000000000008152506117bd565b90506131146118b66110e485608001516128c2565b90505b6131586118b66040805190810160405280600981526020017f2c2274797065223a2200000000000000000000000000000000000000000000008152506117bd565b905061316a6118b684604001516117bd565b90506131ad6118b66040805190810160405280600b81526020017f222c226c6162656c223a220000000000000000000000000000000000000000008152506117bd565b9050612a226118b684606001516117bd565b6101a060405190810160405280600015158152602001606081526020016060815260200160608152602001606081526020016131f96132b0565b81526020016132066132dd565b905290565b60408051908101604052806002905b606081526020019060019003908161321a5790505090565b828054600181600116156101000203166002900490600052602060002090601f016020900481019282601f1061327357805160ff19168380011785556132a0565b828001600101855582156132a0579182015b828111156132a0578251825591602001919060010190613285565b506132ac92915061337b565b5090565b6040805160a081018252600080825260208201526060918101829052818101829052608081019190915290565b60606040519081016040528060001515815260200160608152602001606081525090565b610120604051908101604052806000151581526020016060815260200160608152602001606081526020016132066132b0565b604080518082019091526000808252602082015290565b60a06040519081016040528060608152602001606081526020016060815260200160008152602001606081525090565b61172d91905b808211156132ac5760008155600101613381560066696e69736865645f6174000000000000000000000000000000000000000000737461727465645f617400000000000000000000000000000000000000000000a165627a7a723058207b59f43fb63b339788f032859460647e544fa2d30f08e9fa606acd507801d1650029",
  "source": "pragma solidity ^0.4.24;\n\nimport \"tokenboost-solidity/contracts/widget/Localizable.sol\";\nimport \"tokenboost-solidity/contracts/widget/Widgets.sol\";\nimport \"../TimedStartFinishStrategy.sol\";\n\ncontract TimedStartFinishStrategyRenderer is Localizable {\n    using Widgets for Widgets.Widget;\n    using Elements for Elements.Element;\n    using strings for *;\n    using UintUtils for uint;\n\n    string public constant STARTED_AT = \"started_at\";\n    string public constant STARTED_AT_SHORT_DESC = \"started_at_short_desc\";\n    string public constant STARTED_AT_LONG_DESC = \"started_at_long_desc\";\n    string public constant FINISHED_AT = \"finished_at\";\n    string public constant FINISHED_AT_SHORT_DESC = \"finished_at_short_desc\";\n    string public constant FINISHED_AT_LONG_DESC = \"finished_at_long_desc\";\n    string public constant UPDATE = \"update\";\n    string public constant UPDATE_CONFIRM = \"update_confirm\";\n\n    function adminWidgets(string _locale, TimedStartFinishStrategy _strategy) public view returns (string) {\n        string memory json = \"[\";\n        uint length = 0;\n        string[2] memory widgets = [\n        _startedAtWidget(_locale, _strategy),\n        _finishedAtWidget(_locale, _strategy)\n        ];\n        for (uint i = 0; i < widgets.length; i++) {\n            string memory widget = widgets[i];\n            if (bytes(widget).length > 0) {\n                if (length > 0) {\n                    json = json.toSlice().concat(\",\".toSlice());\n                }\n                json = json.toSlice().concat(widget.toSlice());\n                length++;\n            }\n        }\n        return json.toSlice().concat(\"]\".toSlice());\n    }\n\n    function _startedAtWidget(string _locale, TimedStartFinishStrategy _strategy) private view returns (string json) {\n        if (_strategy.sale().started()) {\n            Elements.Element[] memory elements = new Elements.Element[](1);\n            elements[0] = Elements.Element(\n                true,\n                STARTED_AT,\n                \"timestamp\",\n                \"null\",\n                _strategy.startedAt().toString(),\n                Actions.empty(),\n                Tables.empty()\n            );\n            Widgets.Widget memory widget = Widgets.Widget(\n                resources[_locale][STARTED_AT],\n                resources[_locale][STARTED_AT_SHORT_DESC],\n                resources[_locale][STARTED_AT_LONG_DESC],\n                4,\n                elements\n            );\n            return widget.toJson();\n        } else {\n            return \"\";\n        }\n    }\n\n    function _finishedAtWidget(string _locale, TimedStartFinishStrategy _strategy) private view returns (string json) {\n        if (_strategy.sale().finished()) {\n            Elements.Element[] memory elements = new Elements.Element[](1);\n            elements[0] = Elements.Element(\n                true,\n                FINISHED_AT,\n                \"timestamp\",\n                \"null\",\n                _strategy.finishedAt().toString(),\n                Actions.empty(),\n                Tables.empty()\n            );\n            Widgets.Widget memory widget = Widgets.Widget(\n                resources[_locale][FINISHED_AT],\n                resources[_locale][FINISHED_AT_SHORT_DESC],\n                resources[_locale][FINISHED_AT_LONG_DESC],\n                4,\n                elements\n            );\n            return widget.toJson();\n        } else {\n            return \"\";\n        }\n    }\n\n    function userWidgets(string _locale, TimedStartFinishStrategy _strategy) public view returns (string json) {\n        return \"[]\";\n    }\n\n    function inputs(string _locale, TimedStartFinishStrategy _strategy) public view returns (string) {\n        Elements.Element[] memory elements = new Elements.Element[](3);\n        elements[0] = Elements.Element(\n            true,\n            STARTED_AT,\n            \"timestampEdit\",\n            resources[_locale][STARTED_AT],\n            _strategy.startedAt().toString(),\n            Actions.empty(),\n            Tables.empty()\n        );\n        elements[1] = Elements.Element(\n            true,\n            FINISHED_AT,\n            \"timestampEdit\",\n            resources[_locale][FINISHED_AT],\n            _strategy.finishedAt().toString(),\n            Actions.empty(),\n            Tables.empty()\n        );\n        elements[2] = Elements.Element(\n            true,\n            UPDATE,\n            \"button\",\n            resources[_locale][UPDATE],\n            \"null\",\n            Actions.Action(\n                true,\n                address(_strategy),\n                \"update(uint256,uint256)\",\n                '[\"started_at\",\"finished_at\"]',\n                resources[_locale][UPDATE_CONFIRM]\n            ),\n            Tables.empty()\n        );\n        string memory json = \"[\";\n        for (uint i = 0; i < elements.length; i++) {\n            if (i > 0) {\n                json = json.toSlice().concat(','.toSlice());\n            }\n            json = json.toSlice().concat(elements[i].toJson().toSlice());\n        }\n        return json.toSlice().concat(']'.toSlice());\n    }\n}\n",
  "sourcePath": "/Users/yoonjae/SolidityProjects/tokenboost-solidity-erc20sale-strategies/contracts/strategy/sale/erc20/timed-start-finish/widget/TimedStartFinishStrategyRenderer.sol",
  "compiler": {
    "name": "solc",
    "version": "0.4.24+commit.e67f0147.Emscripten.clang"
  },
  "schemaVersion": "2.0.1",
  "updatedAt": "2018-10-11T18:38:08.868Z"
}