{
  "contractName": "TimedStartFinishStrategyRenderer",
  "abi": [
    {
      "constant": true,
      "inputs": [],
      "name": "STARTED_AT",
      "outputs": [
        {
          "name": "",
          "type": "string"
        }
      ],
      "payable": false,
      "stateMutability": "view",
      "type": "function"
    },
    {
      "constant": true,
      "inputs": [],
      "name": "STARTED_AT_LONG_DESC",
      "outputs": [
        {
          "name": "",
          "type": "string"
        }
      ],
      "payable": false,
      "stateMutability": "view",
      "type": "function"
    },
    {
      "constant": true,
      "inputs": [],
      "name": "STARTED_AT_SHORT_DESC",
      "outputs": [
        {
          "name": "",
          "type": "string"
        }
      ],
      "payable": false,
      "stateMutability": "view",
      "type": "function"
    },
    {
      "constant": false,
      "inputs": [],
      "name": "renounceOwnership",
      "outputs": [],
      "payable": false,
      "stateMutability": "nonpayable",
      "type": "function"
    },
    {
      "constant": true,
      "inputs": [],
      "name": "owner",
      "outputs": [
        {
          "name": "",
          "type": "address"
        }
      ],
      "payable": false,
      "stateMutability": "view",
      "type": "function"
    },
    {
      "constant": true,
      "inputs": [],
      "name": "FINISHED_AT_SHORT_DESC",
      "outputs": [
        {
          "name": "",
          "type": "string"
        }
      ],
      "payable": false,
      "stateMutability": "view",
      "type": "function"
    },
    {
      "constant": true,
      "inputs": [],
      "name": "FINISHED_AT_LONG_DESC",
      "outputs": [
        {
          "name": "",
          "type": "string"
        }
      ],
      "payable": false,
      "stateMutability": "view",
      "type": "function"
    },
    {
      "constant": true,
      "inputs": [],
      "name": "UPDATE_CONFIRM",
      "outputs": [
        {
          "name": "",
          "type": "string"
        }
      ],
      "payable": false,
      "stateMutability": "view",
      "type": "function"
    },
    {
      "constant": true,
      "inputs": [],
      "name": "UPDATE",
      "outputs": [
        {
          "name": "",
          "type": "string"
        }
      ],
      "payable": false,
      "stateMutability": "view",
      "type": "function"
    },
    {
      "constant": true,
      "inputs": [],
      "name": "FINISHED_AT",
      "outputs": [
        {
          "name": "",
          "type": "string"
        }
      ],
      "payable": false,
      "stateMutability": "view",
      "type": "function"
    },
    {
      "constant": false,
      "inputs": [
        {
          "name": "locale",
          "type": "string"
        },
        {
          "name": "key",
          "type": "string"
        },
        {
          "name": "value",
          "type": "string"
        }
      ],
      "name": "setResource",
      "outputs": [],
      "payable": false,
      "stateMutability": "nonpayable",
      "type": "function"
    },
    {
      "constant": false,
      "inputs": [
        {
          "name": "_newOwner",
          "type": "address"
        }
      ],
      "name": "transferOwnership",
      "outputs": [],
      "payable": false,
      "stateMutability": "nonpayable",
      "type": "function"
    },
    {
      "constant": true,
      "inputs": [
        {
          "name": "locale",
          "type": "string"
        },
        {
          "name": "key",
          "type": "string"
        }
      ],
      "name": "resource",
      "outputs": [
        {
          "name": "",
          "type": "string"
        }
      ],
      "payable": false,
      "stateMutability": "view",
      "type": "function"
    },
    {
      "anonymous": false,
      "inputs": [
        {
          "indexed": true,
          "name": "previousOwner",
          "type": "address"
        }
      ],
      "name": "OwnershipRenounced",
      "type": "event"
    },
    {
      "anonymous": false,
      "inputs": [
        {
          "indexed": true,
          "name": "previousOwner",
          "type": "address"
        },
        {
          "indexed": true,
          "name": "newOwner",
          "type": "address"
        }
      ],
      "name": "OwnershipTransferred",
      "type": "event"
    },
    {
      "constant": true,
      "inputs": [
        {
          "name": "_locale",
          "type": "string"
        },
        {
          "name": "_strategy",
          "type": "address"
        }
      ],
      "name": "adminWidgets",
      "outputs": [
        {
          "name": "",
          "type": "string"
        }
      ],
      "payable": false,
      "stateMutability": "view",
      "type": "function"
    },
    {
      "constant": true,
      "inputs": [
        {
          "name": "_locale",
          "type": "string"
        },
        {
          "name": "_strategy",
          "type": "address"
        }
      ],
      "name": "userWidgets",
      "outputs": [
        {
          "name": "json",
          "type": "string"
        }
      ],
      "payable": false,
      "stateMutability": "view",
      "type": "function"
    },
    {
      "constant": true,
      "inputs": [
        {
          "name": "_locale",
          "type": "string"
        },
        {
          "name": "_strategy",
          "type": "address"
        }
      ],
      "name": "inputs",
      "outputs": [
        {
          "name": "",
          "type": "string"
        }
      ],
      "payable": false,
      "stateMutability": "view",
      "type": "function"
    }
  ],
  "bytecode": "0x608060405260008054600160a060020a03191633179055613425806100256000396000f3006080604052600436106100cc5763ffffffff60e060020a6000350416630a9bb92f81146100d1578063393934471461015b57806344e63b8e14610170578063715018a6146101855780638da5cb5b1461019c5780639220e0cb146101cd578063aa5edc25146101e2578063b07b3c78146101f7578063bf3bed541461020c578063d30f6e2014610270578063daddf01614610285578063e77cee3d1461029a578063e9499555146102fe578063ed3487fe14610362578063f2fde38b14610437578063f65a5c1b14610458575b600080fd5b3480156100dd57600080fd5b506100e66104ef565b6040805160208082528351818301528351919283929083019185019080838360005b83811015610120578181015183820152602001610108565b50505050905090810190601f16801561014d5780820380516001836020036101000a031916815260200191505b509250505060405180910390f35b34801561016757600080fd5b506100e6610514565b34801561017c57600080fd5b506100e661054b565b34801561019157600080fd5b5061019a610582565b005b3480156101a857600080fd5b506101b16105ee565b60408051600160a060020a039092168252519081900360200190f35b3480156101d957600080fd5b506100e66105fd565b3480156101ee57600080fd5b506100e6610634565b34801561020357600080fd5b506100e661066b565b34801561021857600080fd5b506040805160206004803580820135601f81018490048402850184019095528484526100e694369492936024939284019190819084018382808284375094975050509235600160a060020a031693506106a292505050565b34801561027c57600080fd5b506100e6611154565b34801561029157600080fd5b506100e661118b565b3480156102a657600080fd5b506040805160206004803580820135601f81018490048402850184019095528484526100e694369492936024939284019190819084018382808284375094975050509235600160a060020a031693506111b092505050565b34801561030a57600080fd5b506040805160206004803580820135601f81018490048402850184019095528484526100e694369492936024939284019190819084018382808284375094975050509235600160a060020a031693506111e992505050565b34801561036e57600080fd5b506040805160206004803580820135601f810184900484028501840190955284845261019a94369492936024939284019190819084018382808284375050604080516020601f89358b018035918201839004830284018301909452808352979a99988101979196509182019450925082915084018382808284375050604080516020601f89358b018035918201839004830284018301909452808352979a9998810197919650918201945092508291508401838280828437509497506113339650505050505050565b34801561044357600080fd5b5061019a600160a060020a0360043516611420565b34801561046457600080fd5b506040805160206004803580820135601f81018490048402850184019095528484526100e694369492936024939284019190819084018382808284375050604080516020601f89358b018035918201839004830284018301909452808352979a9998810197919650918201945092508291508401838280828437509497506114439650505050505050565b60408051808201909152600a81526000805160206133da833981519152602082015281565b60408051808201909152601481527f737461727465645f61745f6c6f6e675f64657363000000000000000000000000602082015281565b60408051808201909152601581527f737461727465645f61745f73686f72745f646573630000000000000000000000602082015281565b600054600160a060020a0316331461059957600080fd5b60008054604051600160a060020a03909116917ff8df31144d9c2f0f6b59d69b8b98abd5459d07f2742c4df920b25aae33c6482091a26000805473ffffffffffffffffffffffffffffffffffffffff19169055565b600054600160a060020a031681565b60408051808201909152601681527f66696e69736865645f61745f73686f72745f6465736300000000000000000000602082015281565b60408051808201909152601581527f66696e69736865645f61745f6c6f6e675f646573630000000000000000000000602082015281565b60408051808201909152600e81527f7570646174655f636f6e6669726d000000000000000000000000000000000000602082015281565b604080516003808252608082019092526060918291829160009190816020015b6106ca6131e3565b8152602001906001900390816106c257905050925060e0604051908101604052806001151581526020016040805190810160405280600a81526020016000805160206133da83398151915281525081526020016040805190810160405280600d81526020017f74696d657374616d70456469740000000000000000000000000000000000000081525081526020016001886040518082805190602001908083835b6020831061078a5780518252601f19909201916020918201910161076b565b51815160209384036101000a60001901801990921691161790529201948552506040805194859003820185208582018252600a8087526000805160206133da83398151915293870193845291519095945092508291908083835b602083106108035780518252601f1990920191602091820191016107e4565b518151600019602094850361010090810a820192831692199390931691909117909252949092019687526040805197889003820188208054601f60026001831615909802909501169590950492830182900482028801820190528187529294509250508301828280156108b75780601f1061088c576101008083540402835291602001916108b7565b820191906000526020600020905b81548152906001019060200180831161089a57829003601f168201915b5050505050815260200161093387600160a060020a031663f21f537d6040518163ffffffff1660e060020a028152600401602060405180830381600087803b15801561090257600080fd5b505af1158015610916573d6000803e3d6000fd5b505050506040513d602081101561092c57600080fd5b5051611594565b81526020016109406116f3565b815260200161094d611746565b905283518490600090811061095e57fe5b9060200190602002018190525060e0604051908101604052806001151581526020016040805190810160405280600b81526020016000805160206133ba83398151915281525081526020016040805190810160405280600d81526020017f74696d657374616d70456469740000000000000000000000000000000000000081525081526020016001886040518082805190602001908083835b60208310610a165780518252601f1990920191602091820191016109f7565b51815160209384036101000a60001901801990921691161790529201948552506040805194859003820185208582018252600b8087526000805160206133ba83398151915293870193845291519095945092508291908083835b60208310610a8f5780518252601f199092019160209182019101610a70565b518151600019602094850361010090810a820192831692199390931691909117909252949092019687526040805197889003820188208054601f6002600183161590980290950116959095049283018290048202880182019052818752929450925050830182828015610b435780601f10610b1857610100808354040283529160200191610b43565b820191906000526020600020905b815481529060010190602001808311610b2657829003601f168201915b50505050508152602001610b8e87600160a060020a03166347d54bff6040518163ffffffff1660e060020a028152600401602060405180830381600087803b15801561090257600080fd5b8152602001610b9b6116f3565b8152602001610ba8611746565b9052835184906001908110610bb957fe5b9060200190602002018190525060e0604051908101604052806001151581526020016040805190810160405280600681526020017f757064617465000000000000000000000000000000000000000000000000000081525081526020016040805190810160405280600681526020017f627574746f6e000000000000000000000000000000000000000000000000000081525081526020016001886040518082805190602001908083835b60208310610c835780518252601f199092019160209182019101610c64565b51815160209384036101000a6000190180199092169116179052920194855250604080519485900382018520858201825260068087527f757064617465000000000000000000000000000000000000000000000000000093870193845291519095945092508291908083835b60208310610d0e5780518252601f199092019160209182019101610cef565b518151600019602094850361010090810a820192831692199390931691909117909252949092019687526040805197889003820188208054601f6002600183161590980290950116959095049283018290048202880182019052818752929450925050830182828015610dc25780601f10610d9757610100808354040283529160200191610dc2565b820191906000526020600020905b815481529060010190602001808311610da557829003601f168201915b505050505081526020016040805190810160405280600481526020017f6e756c6c00000000000000000000000000000000000000000000000000000000815250815260200160a06040519081016040528060011515815260200188600160a060020a031681526020016040805190810160405280601781526020017f7570646174652875696e743235362c75696e743235362900000000000000000081525081526020016040805190810160405280601c81526020017f5b22737461727465645f6174222c2266696e69736865645f6174225d00000000815250815260200160018a6040518082805190602001908083835b60208310610ed35780518252601f199092019160209182019101610eb4565b51815160209384036101000a60001901801990921691161790529201948552506040805194859003820185208582018252600e8087527f7570646174655f636f6e6669726d00000000000000000000000000000000000093870193845291519095945092508291908083835b60208310610f5e5780518252601f199092019160209182019101610f3f565b518151600019602094850361010090810a820192831692199390931691909117909252949092019687526040805197889003820188208054601f60026001831615909802909501169590950492830182900482028801820190528187529294509250508301828280156110125780601f10610fe757610100808354040283529160200191611012565b820191906000526020600020905b815481529060010190602001808311610ff557829003601f168201915b50505050508152508152602001611027611746565b905283518490600290811061103857fe5b906020019060200201819052506040805190810160405280600181526020017f5b000000000000000000000000000000000000000000000000000000000000008152509150600090505b82518110156111095760008111156110d4576110d16110bc60408051908101604052806001815260200160fa60020a600b028152506117d3565b6110c5846117d3565b9063ffffffff6117fc16565b91505b6110ff6110bc6110fa85848151811015156110eb57fe5b90602001906020020151611877565b6117d3565b9150600101611082565b61114a6110bc6040805190810160405280600181526020017f5d000000000000000000000000000000000000000000000000000000000000008152506117d3565b9695505050505050565b60408051808201909152600681527f7570646174650000000000000000000000000000000000000000000000000000602082015281565b60408051808201909152600b81526000805160206133ba833981519152602082015281565b505060408051808201909152600281527f5b5d000000000000000000000000000000000000000000000000000000000000602082015290565b60608060006111f661322f565b600060606040805190810160405280600181526020017f5b00000000000000000000000000000000000000000000000000000000000000815250945060009350604080519081016040528061124b8a8a611b65565b815260200161125a8a8a612240565b90529250600091505b60028210156112e65782826002811061127857fe5b602002015190506000815111156112db5760008411156112c6576112c36112ba60408051908101604052806001815260200160fa60020a600b028152506117d3565b6110c5876117d3565b94505b6112d26112ba826117d3565b94506001909301925b600190910190611263565b6113276112ba6040805190810160405280600181526020017f5d000000000000000000000000000000000000000000000000000000000000008152506117d3565b98975050505050505050565b600054600160a060020a0316331461134a57600080fd5b806001846040518082805190602001908083835b6020831061137d5780518252601f19909201916020918201910161135e565b51815160209384036101000a6000190180199092169116179052920194855250604051938490038101842087519094889450925082918401908083835b602083106113d95780518252601f1990920191602091820191016113ba565b51815160209384036101000a6000190180199092169116179052920194855250604051938490038101909320845161141a9591949190910192509050613256565b50505050565b600054600160a060020a0316331461143757600080fd5b6114408161280f565b50565b60606001836040518082805190602001908083835b602083106114775780518252601f199092019160209182019101611458565b51815160209384036101000a6000190180199092169116179052920194855250604051938490038101842086519094879450925082918401908083835b602083106114d35780518252601f1990920191602091820191016114b4565b518151600019602094850361010090810a820192831692199390931691909117909252949092019687526040805197889003820188208054601f60026001831615909802909501169590950492830182900482028801820190528187529294509250508301828280156115875780601f1061155c57610100808354040283529160200191611587565b820191906000526020600020905b81548152906001019060200180831161156a57829003601f168201915b5050505050905092915050565b606080600081818515156115dd5760408051808201909152600181527f3000000000000000000000000000000000000000000000000000000000000000602082015294506116ea565b6040805160208082528183019092529080820161040080388339019050509350600092505b600086111561164f57600a860660300160f860020a02848481518110151561162657fe5b906020010190600160f860020a031916908160001a905350600a86049550600190920191611602565b60408051848152601f19601f86011681016020019091526000198401938015611682578160200160208202803883390190505b509150600090505b81518110156116e6578351600019840193859181106116a557fe5b90602001015160f860020a900460f860020a0282828151811015156116c657fe5b906020010190600160f860020a031916908160001a90535060010161168a565b8194505b50505050919050565b6116fb6132d4565b506040805160a0810182526000808252602080830182905283518082018552828152838501528351808201855282815260608401528351908101909352825260808101919091525b90565b61174e613301565b60408051606081018252600080825282518181526020818101909452919283019190611790565b61177d613325565b8152602001906001900390816117755790505b50815260200160006040519080825280602002602001820160405280156117cb57816020015b60608152602001906001900390816117b65790505b509052905090565b6117db613358565b50604080518082019091528151815260208281019082018190525b50919050565b606080600083600001518560000151016040519080825280601f01601f191660200182016040528015611839578160200160208202803883390190505b509150602082019050611855818660200151876000015161288c565b84516020850151855161186b928401919061288c565b8192505b505092915050565b606080826000015115611b2a576040805190810160405280600781526020017f7b226964223a220000000000000000000000000000000000000000000000000081525090506118d56118cc84602001516117d3565b6110c5836117d3565b90506119186118cc6040805190810160405280600181526020017f22000000000000000000000000000000000000000000000000000000000000008152506117d3565b60a0840151519091501561197f576119676118cc6040805190810160405280600b81526020017f2c2022616374696f6e223a0000000000000000000000000000000000000000008152506117d3565b905061197c6118cc6110fa8560a001516128d0565b90505b60c083015151156119e3576119cb6118cc6040805190810160405280600a81526020017f2c20227461626c65223a000000000000000000000000000000000000000000008152506117d3565b90506119e06118cc6110fa8560c00151612a73565b90505b611a246118cc6040805190810160405280600981526020017f2c2274797065223a2200000000000000000000000000000000000000000000008152506117d3565b9050611a366118cc84604001516117d3565b9050611a796118cc6040805190810160405280600b81526020017f222c226c6162656c223a220000000000000000000000000000000000000000008152506117d3565b9050611a8b6118cc84606001516117d3565b9050611ace6118cc6040805190810160405280600981526020017f222c2264617461223a00000000000000000000000000000000000000000000008152506117d3565b9050611ae06118cc84608001516117d3565b9050611b236118cc6040805190810160405280600181526020017f7d000000000000000000000000000000000000000000000000000000000000008152506117d3565b91506117f6565b60408051808201909152600481527f6e756c6c00000000000000000000000000000000000000000000000000000000602082015291506117f6565b606080611b7061336f565b83600160a060020a0316636ad1fe026040518163ffffffff1660e060020a028152600401602060405180830381600087803b158015611bae57600080fd5b505af1158015611bc2573d6000803e3d6000fd5b505050506040513d6020811015611bd857600080fd5b5051604080517f1f2698ab0000000000000000000000000000000000000000000000000000000081529051600160a060020a0390921691631f2698ab916004808201926020929091908290030181600087803b158015611c3757600080fd5b505af1158015611c4b573d6000803e3d6000fd5b505050506040513d6020811015611c6157600080fd5b50511561222a5760408051600180825281830190925290816020015b611c856131e3565b815260200190600190039081611c7d57905050915060e0604051908101604052806001151581526020016040805190810160405280600a81526020016000805160206133da83398151915281525081526020016040805190810160405280600981526020017f74696d657374616d700000000000000000000000000000000000000000000000815250815260200160206040519081016040528060008152508152602001611d6a86600160a060020a031663f21f537d6040518163ffffffff1660e060020a028152600401602060405180830381600087803b15801561090257600080fd5b8152602001611d776116f3565b8152602001611d84611746565b9052825183906000908110611d9557fe5b9060200190602002018190525060a0604051908101604052806001876040518082805190602001908083835b60208310611de05780518252601f199092019160209182019101611dc1565b51815160209384036101000a60001901801990921691161790529201948552506040805194859003820185208582018252600a8087526000805160206133da83398151915293870193845291519095945092508291908083835b60208310611e595780518252601f199092019160209182019101611e3a565b518151600019602094850361010090810a820192831692199390931691909117909252949092019687526040805197889003820188208054601f6002600183161590980290950116959095049283018290048202880182019052818752929450925050830182828015611f0d5780601f10611ee257610100808354040283529160200191611f0d565b820191906000526020600020905b815481529060010190602001808311611ef057829003601f168201915b505050505081526020016001876040518082805190602001908083835b60208310611f495780518252601f199092019160209182019101611f2a565b51815160209384036101000a6000190180199092169116179052920194855250604080519485900382018520858201825260158087527f737461727465645f61745f73686f72745f64657363000000000000000000000093870193845291519095945092508291908083835b60208310611fd45780518252601f199092019160209182019101611fb5565b518151600019602094850361010090810a820192831692199390931691909117909252949092019687526040805197889003820188208054601f60026001831615909802909501169590950492830182900482028801820190528187529294509250508301828280156120885780601f1061205d57610100808354040283529160200191612088565b820191906000526020600020905b81548152906001019060200180831161206b57829003601f168201915b505050505081526020016001876040518082805190602001908083835b602083106120c45780518252601f1990920191602091820191016120a5565b51815160209384036101000a6000190180199092169116179052920194855250604080519485900382018520858201825260148087527f737461727465645f61745f6c6f6e675f6465736300000000000000000000000093870193845291519095945092508291908083835b6020831061214f5780518252601f199092019160209182019101612130565b518151600019602094850361010090810a820192831692199390931691909117909252949092019687526040805197889003820188208054601f60026001831615909802909501169590950492830182900482028801820190528187529294509250508301828280156122035780601f106121d857610100808354040283529160200191612203565b820191906000526020600020905b8154815290600101906020018083116121e657829003601f168201915b505050505081526020016004815260200183815250905061222381612c8a565b925061186f565b604080516020810190915260008152925061186f565b60608061224b61336f565b83600160a060020a0316636ad1fe026040518163ffffffff1660e060020a028152600401602060405180830381600087803b15801561228957600080fd5b505af115801561229d573d6000803e3d6000fd5b505050506040513d60208110156122b357600080fd5b5051604080517fbef4876b0000000000000000000000000000000000000000000000000000000081529051600160a060020a039092169163bef4876b916004808201926020929091908290030181600087803b15801561231257600080fd5b505af1158015612326573d6000803e3d6000fd5b505050506040513d602081101561233c57600080fd5b50511561222a5760408051600180825281830190925290816020015b6123606131e3565b81526020019060019003908161235857905050915060e0604051908101604052806001151581526020016040805190810160405280600b81526020016000805160206133ba83398151915281525081526020016040805190810160405280600981526020017f74696d657374616d70000000000000000000000000000000000000000000000081525081526020016020604051908101604052806000815250815260200161244586600160a060020a03166347d54bff6040518163ffffffff1660e060020a028152600401602060405180830381600087803b15801561090257600080fd5b81526020016124526116f3565b815260200161245f611746565b905282518390600090811061247057fe5b9060200190602002018190525060a0604051908101604052806001876040518082805190602001908083835b602083106124bb5780518252601f19909201916020918201910161249c565b51815160209384036101000a60001901801990921691161790529201948552506040805194859003820185208582018252600b8087526000805160206133ba83398151915293870193845291519095945092508291908083835b602083106125345780518252601f199092019160209182019101612515565b518151600019602094850361010090810a820192831692199390931691909117909252949092019687526040805197889003820188208054601f60026001831615909802909501169590950492830182900482028801820190528187529294509250508301828280156125e85780601f106125bd576101008083540402835291602001916125e8565b820191906000526020600020905b8154815290600101906020018083116125cb57829003601f168201915b505050505081526020016001876040518082805190602001908083835b602083106126245780518252601f199092019160209182019101612605565b51815160209384036101000a6000190180199092169116179052920194855250604080519485900382018520858201825260168087527f66696e69736865645f61745f73686f72745f646573630000000000000000000093870193845291519095945092508291908083835b602083106126af5780518252601f199092019160209182019101612690565b518151600019602094850361010090810a820192831692199390931691909117909252949092019687526040805197889003820188208054601f60026001831615909802909501169590950492830182900482028801820190528187529294509250508301828280156127635780601f1061273857610100808354040283529160200191612763565b820191906000526020600020905b81548152906001019060200180831161274657829003601f168201915b505050505081526020016001876040518082805190602001908083835b6020831061279f5780518252601f199092019160209182019101612780565b51815160209384036101000a6000190180199092169116179052920194855250604080519485900382018520858201825260158087527f66696e69736865645f61745f6c6f6e675f646573630000000000000000000000938701938452915190959450925082919080838361214f565b600160a060020a038116151561282457600080fd5b60008054604051600160a060020a03808516939216917f8be0079c531659141344cd1fd0a4f28419497f9722a3daafe3b4186f6b6457e091a36000805473ffffffffffffffffffffffffffffffffffffffff1916600160a060020a0392909216919091179055565b60005b602082106128b1578251845260209384019390920191601f199091019061288f565b50905182516020929092036101000a6000190180199091169116179052565b606080826000015115611b2a576040805190810160405280600c81526020017f7b2261646472657373223a22000000000000000000000000000000000000000081525090506129316118cc6110fa8560200151600160a060020a0316612ecf565b90506129746118cc6040805190810160405280601681526020017f222c2266756e6374696f6e53656c6563746f72223a22000000000000000000008152506117d3565b90506129866118cc84604001516117d3565b90506129c96118cc6040805190810160405280600e81526020017f222c22617267756d656e7473223a0000000000000000000000000000000000008152506117d3565b90506129db6118cc84606001516117d3565b9050612a1e6118cc6040805190810160405280600c81526020017f2c22636f6e6669726d223a2200000000000000000000000000000000000000008152506117d3565b9050612a306118cc84608001516117d3565b9050611b236118cc6040805190810160405280600281526020017f227d0000000000000000000000000000000000000000000000000000000000008152506117d3565b606080600080846000015115612c4b57505060408051808201909152600c81527f7b22636f6c756d6e73223a5b0000000000000000000000000000000000000000602082015290506000805b846020015151811015612b41576000821115612b0957612b06612afd60408051908101604052806001815260200160fa60020a600b028152506117d3565b6110c5856117d3565b92505b612b33612afd6110fa876020015184815181101515612b2457fe5b90602001906020020151613012565b925060019182019101612abf565b612b82612afd6040805190810160405280600a81526020017f5d2c22726f7773223a5b000000000000000000000000000000000000000000008152506117d3565b925060009150600090505b846040015151811015612c03576000821115612bce57612bcb612afd60408051908101604052806001815260200160fa60020a600b028152506117d3565b92505b612bf5612afd866040015183815181101515612be657fe5b906020019060200201516117d3565b925060019182019101612b8d565b612c44612afd6040805190810160405280600281526020017f5d7d0000000000000000000000000000000000000000000000000000000000008152506117d3565b9350612c82565b60408051808201909152600481527f6e756c6c00000000000000000000000000000000000000000000000000000000602082015293505b505050919050565b60408051808201909152600a81527f7b227469746c65223a22000000000000000000000000000000000000000000006020820152815160609190600090612cd4906110bc906117d3565b9150612d176110bc6040805190810160405280600f81526020017f222c2273686f727444657363223a2200000000000000000000000000000000008152506117d3565b9150612d296110bc85602001516117d3565b9150612d6c6110bc6040805190810160405280600e81526020017f222c226c6f6e6744657363223a220000000000000000000000000000000000008152506117d3565b9150612d7e6110bc85604001516117d3565b9150612dc16110bc6040805190810160405280600a81526020017f222c227769647468223a000000000000000000000000000000000000000000008152506117d3565b9150612dd66110bc6110fa8660600151611594565b9150612e196110bc6040805190810160405280600d81526020017f2c22656c656d656e7473223a5b000000000000000000000000000000000000008152506117d3565b9150600090505b836080015151811015612e86576000811115612e6157612e5e6110bc60408051908101604052806001815260200160fa60020a600b028152506117d3565b91505b612e7c6110bc6110fa8660800151848151811015156110eb57fe5b9150600101612e20565b612ec76110bc6040805190810160405280600281526020017f5d7d0000000000000000000000000000000000000000000000000000000000008152506117d3565b949350505050565b60408051602a80825260608083019093528291600091829182916020820161054080388339505081519195507f3000000000000000000000000000000000000000000000000000000000000000918691506000908110612f2b57fe5b906020010190600160f860020a031916908160001a90535083517f78000000000000000000000000000000000000000000000000000000000000009085906001908110612f7457fe5b906020010190600160f860020a031916908160001a905350859250600091505b602882101561300857506030600f8316016039600160a060020a0382161115612fbb576027015b8060f860020a028483602803600101815181101515612fd657fe5b906020010190600160f860020a031916908160001a9053506010600160a060020a038416049250600190910190612f94565b5091949350505050565b606080826000015115611b2a576040805190810160405280600781526020017f7b226964223a220000000000000000000000000000000000000000000000000081525090506130676118cc84602001516117d3565b90506130aa6118cc6040805190810160405280600181526020017f22000000000000000000000000000000000000000000000000000000000000008152506117d3565b6080840151519091501561313b576130e06118cc60408051908101604052806001815260200160fa60020a600b028152506117d3565b90506131236118cc6040805190810160405280600981526020017f22616374696f6e223a00000000000000000000000000000000000000000000008152506117d3565b90506131386118cc6110fa85608001516128d0565b90505b61317c6118cc6040805190810160405280600981526020017f2c2274797065223a2200000000000000000000000000000000000000000000008152506117d3565b905061318e6118cc84604001516117d3565b90506131d16118cc6040805190810160405280600b81526020017f222c226c6162656c223a220000000000000000000000000000000000000000008152506117d3565b9050612a306118cc84606001516117d3565b6101a0604051908101604052806000151581526020016060815260200160608152602001606081526020016060815260200161321d6132d4565b815260200161322a613301565b905290565b60408051908101604052806002905b606081526020019060019003908161323e5790505090565b828054600181600116156101000203166002900490600052602060002090601f016020900481019282601f1061329757805160ff19168380011785556132c4565b828001600101855582156132c4579182015b828111156132c45782518255916020019190600101906132a9565b506132d092915061339f565b5090565b6040805160a081018252600080825260208201526060918101829052818101829052608081019190915290565b60606040519081016040528060001515815260200160608152602001606081525090565b6101206040519081016040528060001515815260200160608152602001606081526020016060815260200161322a6132d4565b604080518082019091526000808252602082015290565b60a06040519081016040528060608152602001606081526020016060815260200160008152602001606081525090565b61174391905b808211156132d057600081556001016133a5560066696e69736865645f6174000000000000000000000000000000000000000000737461727465645f617400000000000000000000000000000000000000000000a165627a7a72305820191db937743c97d700c2b77c2e69d4b94e5f58f6bda2f7c90d47d13d826486670029",
  "source": "pragma solidity ^0.4.24;\n\nimport \"tokenboost-solidity/contracts/widget/Localizable.sol\";\nimport \"tokenboost-solidity/contracts/widget/Widgets.sol\";\nimport \"../TimedStartFinishStrategy.sol\";\n\ncontract TimedStartFinishStrategyRenderer is Localizable {\n    using Widgets for Widgets.Widget;\n    using Elements for Elements.Element;\n    using strings for *;\n    using UintUtils for uint;\n\n    string public constant STARTED_AT = \"started_at\";\n    string public constant STARTED_AT_SHORT_DESC = \"started_at_short_desc\";\n    string public constant STARTED_AT_LONG_DESC = \"started_at_long_desc\";\n    string public constant FINISHED_AT = \"finished_at\";\n    string public constant FINISHED_AT_SHORT_DESC = \"finished_at_short_desc\";\n    string public constant FINISHED_AT_LONG_DESC = \"finished_at_long_desc\";\n    string public constant UPDATE = \"update\";\n    string public constant UPDATE_CONFIRM = \"update_confirm\";\n\n    function adminWidgets(string _locale, TimedStartFinishStrategy _strategy) public view returns (string) {\n        string memory json = \"[\";\n        uint length = 0;\n        string[2] memory widgets = [\n        _startedAtWidget(_locale, _strategy),\n        _finishedAtWidget(_locale, _strategy)\n        ];\n        for (uint i = 0; i < widgets.length; i++) {\n            string memory widget = widgets[i];\n            if (bytes(widget).length > 0) {\n                if (length > 0) {\n                    json = json.toSlice().concat(\",\".toSlice());\n                }\n                json = json.toSlice().concat(widget.toSlice());\n                length++;\n            }\n        }\n        return json.toSlice().concat(\"]\".toSlice());\n    }\n\n    function _startedAtWidget(string _locale, TimedStartFinishStrategy _strategy) private view returns (string json) {\n        if (_strategy.sale().started()) {\n            Elements.Element[] memory elements = new Elements.Element[](1);\n            elements[0] = Elements.Element(\n                true,\n                STARTED_AT,\n                \"timestamp\",\n                \"\",\n                _strategy.startedAt().toString(),\n                Actions.empty(),\n                Tables.empty()\n            );\n            Widgets.Widget memory widget = Widgets.Widget(\n                resources[_locale][STARTED_AT],\n                resources[_locale][STARTED_AT_SHORT_DESC],\n                resources[_locale][STARTED_AT_LONG_DESC],\n                4,\n                elements\n            );\n            return widget.toJson();\n        } else {\n            return \"\";\n        }\n    }\n\n    function _finishedAtWidget(string _locale, TimedStartFinishStrategy _strategy) private view returns (string json) {\n        if (_strategy.sale().finished()) {\n            Elements.Element[] memory elements = new Elements.Element[](1);\n            elements[0] = Elements.Element(\n                true,\n                FINISHED_AT,\n                \"timestamp\",\n                \"\",\n                _strategy.finishedAt().toString(),\n                Actions.empty(),\n                Tables.empty()\n            );\n            Widgets.Widget memory widget = Widgets.Widget(\n                resources[_locale][FINISHED_AT],\n                resources[_locale][FINISHED_AT_SHORT_DESC],\n                resources[_locale][FINISHED_AT_LONG_DESC],\n                4,\n                elements\n            );\n            return widget.toJson();\n        } else {\n            return \"\";\n        }\n    }\n\n    function userWidgets(string _locale, TimedStartFinishStrategy _strategy) public view returns (string json) {\n        return \"[]\";\n    }\n\n    function inputs(string _locale, TimedStartFinishStrategy _strategy) public view returns (string) {\n        Elements.Element[] memory elements = new Elements.Element[](3);\n        elements[0] = Elements.Element(\n            true,\n            STARTED_AT,\n            \"timestampEdit\",\n            resources[_locale][STARTED_AT],\n            _strategy.startedAt().toString(),\n            Actions.empty(),\n            Tables.empty()\n        );\n        elements[1] = Elements.Element(\n            true,\n            FINISHED_AT,\n            \"timestampEdit\",\n            resources[_locale][FINISHED_AT],\n            _strategy.finishedAt().toString(),\n            Actions.empty(),\n            Tables.empty()\n        );\n        elements[2] = Elements.Element(\n            true,\n            UPDATE,\n            \"button\",\n            resources[_locale][UPDATE],\n            \"null\",\n            Actions.Action(\n                true,\n                address(_strategy),\n                \"update(uint256,uint256)\",\n                '[\"started_at\",\"finished_at\"]',\n                resources[_locale][UPDATE_CONFIRM]\n            ),\n            Tables.empty()\n        );\n        string memory json = \"[\";\n        for (uint i = 0; i < elements.length; i++) {\n            if (i > 0) {\n                json = json.toSlice().concat(','.toSlice());\n            }\n            json = json.toSlice().concat(elements[i].toJson().toSlice());\n        }\n        return json.toSlice().concat(']'.toSlice());\n    }\n}\n",
  "sourcePath": "/Users/yoonjae/SolidityProjects/tokenboost-solidity-erc20sale-strategies/contracts/strategy/sale/erc20/timed-start-finish/widget/TimedStartFinishStrategyRenderer.sol",
  "compiler": {
    "name": "solc",
    "version": "0.4.24+commit.e67f0147.Emscripten.clang"
  },
  "schemaVersion": "2.0.1",
  "updatedAt": "2018-10-23T18:52:44.457Z"
}