{
  "contractName": "TimedStartFinishStrategy",
  "abi": [
    {
      "constant": true,
      "inputs": [
        {
          "name": "_interfaceId",
          "type": "bytes4"
        }
      ],
      "name": "supportsInterface",
      "outputs": [
        {
          "name": "",
          "type": "bool"
        }
      ],
      "payable": false,
      "stateMutability": "view",
      "type": "function"
    },
    {
      "constant": true,
      "inputs": [],
      "name": "activated",
      "outputs": [
        {
          "name": "",
          "type": "bool"
        }
      ],
      "payable": false,
      "stateMutability": "view",
      "type": "function"
    },
    {
      "constant": true,
      "inputs": [],
      "name": "InterfaceId_ERC165",
      "outputs": [
        {
          "name": "",
          "type": "bytes4"
        }
      ],
      "payable": false,
      "stateMutability": "view",
      "type": "function"
    },
    {
      "constant": true,
      "inputs": [],
      "name": "finishedAt",
      "outputs": [
        {
          "name": "",
          "type": "uint256"
        }
      ],
      "payable": false,
      "stateMutability": "view",
      "type": "function"
    },
    {
      "constant": false,
      "inputs": [],
      "name": "deactivate",
      "outputs": [
        {
          "name": "",
          "type": "bool"
        }
      ],
      "payable": false,
      "stateMutability": "nonpayable",
      "type": "function"
    },
    {
      "constant": true,
      "inputs": [],
      "name": "InterfaceId_Strategy",
      "outputs": [
        {
          "name": "",
          "type": "bytes4"
        }
      ],
      "payable": false,
      "stateMutability": "view",
      "type": "function"
    },
    {
      "constant": true,
      "inputs": [],
      "name": "sale",
      "outputs": [
        {
          "name": "",
          "type": "address"
        }
      ],
      "payable": false,
      "stateMutability": "view",
      "type": "function"
    },
    {
      "constant": true,
      "inputs": [],
      "name": "template",
      "outputs": [
        {
          "name": "",
          "type": "address"
        }
      ],
      "payable": false,
      "stateMutability": "view",
      "type": "function"
    },
    {
      "constant": false,
      "inputs": [],
      "name": "renounceOwnership",
      "outputs": [],
      "payable": false,
      "stateMutability": "nonpayable",
      "type": "function"
    },
    {
      "constant": true,
      "inputs": [],
      "name": "renderer",
      "outputs": [
        {
          "name": "",
          "type": "address"
        }
      ],
      "payable": false,
      "stateMutability": "view",
      "type": "function"
    },
    {
      "constant": true,
      "inputs": [],
      "name": "owner",
      "outputs": [
        {
          "name": "",
          "type": "address"
        }
      ],
      "payable": false,
      "stateMutability": "view",
      "type": "function"
    },
    {
      "constant": true,
      "inputs": [],
      "name": "InterfaceId_ERC20SaleStrategy",
      "outputs": [
        {
          "name": "",
          "type": "bytes4"
        }
      ],
      "payable": false,
      "stateMutability": "view",
      "type": "function"
    },
    {
      "constant": true,
      "inputs": [],
      "name": "InterfaceId_SaleStrategy",
      "outputs": [
        {
          "name": "",
          "type": "bytes4"
        }
      ],
      "payable": false,
      "stateMutability": "view",
      "type": "function"
    },
    {
      "constant": true,
      "inputs": [],
      "name": "startedAt",
      "outputs": [
        {
          "name": "",
          "type": "uint256"
        }
      ],
      "payable": false,
      "stateMutability": "view",
      "type": "function"
    },
    {
      "constant": false,
      "inputs": [
        {
          "name": "_newOwner",
          "type": "address"
        }
      ],
      "name": "transferOwnership",
      "outputs": [],
      "payable": false,
      "stateMutability": "nonpayable",
      "type": "function"
    },
    {
      "constant": true,
      "inputs": [],
      "name": "InterfaceId_Contract",
      "outputs": [
        {
          "name": "",
          "type": "bytes4"
        }
      ],
      "payable": false,
      "stateMutability": "view",
      "type": "function"
    },
    {
      "inputs": [
        {
          "name": "_owner",
          "type": "address"
        },
        {
          "name": "_sale",
          "type": "address"
        }
      ],
      "payable": false,
      "stateMutability": "nonpayable",
      "type": "constructor"
    },
    {
      "anonymous": false,
      "inputs": [
        {
          "indexed": true,
          "name": "previousOwner",
          "type": "address"
        }
      ],
      "name": "OwnershipRenounced",
      "type": "event"
    },
    {
      "anonymous": false,
      "inputs": [
        {
          "indexed": true,
          "name": "previousOwner",
          "type": "address"
        },
        {
          "indexed": true,
          "name": "newOwner",
          "type": "address"
        }
      ],
      "name": "OwnershipTransferred",
      "type": "event"
    },
    {
      "constant": false,
      "inputs": [
        {
          "name": "_startedAt",
          "type": "uint256"
        },
        {
          "name": "_finishedAt",
          "type": "uint256"
        }
      ],
      "name": "update",
      "outputs": [],
      "payable": false,
      "stateMutability": "nonpayable",
      "type": "function"
    },
    {
      "constant": false,
      "inputs": [],
      "name": "activate",
      "outputs": [
        {
          "name": "",
          "type": "bool"
        }
      ],
      "payable": false,
      "stateMutability": "nonpayable",
      "type": "function"
    },
    {
      "constant": true,
      "inputs": [],
      "name": "started",
      "outputs": [
        {
          "name": "",
          "type": "bool"
        }
      ],
      "payable": false,
      "stateMutability": "view",
      "type": "function"
    },
    {
      "constant": true,
      "inputs": [],
      "name": "successful",
      "outputs": [
        {
          "name": "",
          "type": "bool"
        }
      ],
      "payable": false,
      "stateMutability": "view",
      "type": "function"
    },
    {
      "constant": true,
      "inputs": [],
      "name": "finished",
      "outputs": [
        {
          "name": "",
          "type": "bool"
        }
      ],
      "payable": false,
      "stateMutability": "view",
      "type": "function"
    },
    {
      "constant": true,
      "inputs": [
        {
          "name": "_purchaser",
          "type": "address"
        },
        {
          "name": "_weiAmount",
          "type": "uint256"
        }
      ],
      "name": "purchasable",
      "outputs": [
        {
          "name": "",
          "type": "bool"
        }
      ],
      "payable": false,
      "stateMutability": "view",
      "type": "function"
    },
    {
      "constant": true,
      "inputs": [
        {
          "name": "_purchaser",
          "type": "address"
        },
        {
          "name": "_weiAmount",
          "type": "uint256"
        }
      ],
      "name": "tokenRate",
      "outputs": [
        {
          "name": "",
          "type": "uint256"
        }
      ],
      "payable": false,
      "stateMutability": "view",
      "type": "function"
    },
    {
      "constant": false,
      "inputs": [
        {
          "name": "_purchaser",
          "type": "address"
        },
        {
          "name": "_tokenAmount",
          "type": "uint256"
        }
      ],
      "name": "supplyTokens",
      "outputs": [
        {
          "name": "",
          "type": "bool"
        }
      ],
      "payable": false,
      "stateMutability": "nonpayable",
      "type": "function"
    },
    {
      "constant": false,
      "inputs": [
        {
          "name": "_purchaser",
          "type": "address"
        },
        {
          "name": "_tokenAmount",
          "type": "uint256"
        }
      ],
      "name": "receivesTokens",
      "outputs": [
        {
          "name": "",
          "type": "bool"
        }
      ],
      "payable": false,
      "stateMutability": "nonpayable",
      "type": "function"
    },
    {
      "constant": true,
      "inputs": [
        {
          "name": "locale",
          "type": "string"
        }
      ],
      "name": "adminWidgets",
      "outputs": [
        {
          "name": "json",
          "type": "string"
        }
      ],
      "payable": false,
      "stateMutability": "view",
      "type": "function"
    },
    {
      "constant": true,
      "inputs": [
        {
          "name": "locale",
          "type": "string"
        }
      ],
      "name": "userWidgets",
      "outputs": [
        {
          "name": "json",
          "type": "string"
        }
      ],
      "payable": false,
      "stateMutability": "view",
      "type": "function"
    },
    {
      "constant": true,
      "inputs": [
        {
          "name": "locale",
          "type": "string"
        }
      ],
      "name": "inputs",
      "outputs": [
        {
          "name": "json",
          "type": "string"
        }
      ],
      "payable": false,
      "stateMutability": "view",
      "type": "function"
    }
  ],
  "bytecode": "0x608060405234801561001057600080fd5b50604051604080610f7583398101604052805160209091015160008054600160a060020a031916331790558181818181806100737f01ffc9a7000000000000000000000000000000000000000000000000000000006401000000006101a7810204565b6002805433600160a060020a03199182161790915560008054909116600160a060020a0383161790556100ce7f6125ede5000000000000000000000000000000000000000000000000000000006401000000006101a7810204565b506101017f6e301925000000000000000000000000000000000000000000000000000000006401000000006101a7810204565b5060038054600160a060020a031916600160a060020a03831617905561014f7f04c8123d000000000000000000000000000000000000000000000000000000006401000000006101a7810204565b505060048054600160a060020a031916600160a060020a03831617905561019e7fa0d0304b000000000000000000000000000000000000000000000000000000006401000000006101a7810204565b50505050610216565b7fffffffff0000000000000000000000000000000000000000000000000000000080821614156101d657600080fd5b7fffffffff00000000000000000000000000000000000000000000000000000000166000908152600160208190526040909120805460ff19169091179055565b610d50806102256000396000f3006080604052600436106101505763ffffffff60e060020a60003504166301bd3411811461015557806301ffc9a7146102235780630f15f4c01461026e578063186601ca1461028357806319fa8f50146102985780631f2698ab146102df5780632fb565e8146102f457806347d54bff146103115780634f9a82d61461033857806351b42b001461035c5780635589530e14610371578063587775e81461033857806364b630d8146103955780636ad1fe02146103aa5780636f2ddd93146103db578063715018a6146103f05780638ada6b0f146104055780638da5cb5b1461041a578063908ba6481461042f578063944ac32b146104885780639a9e3fd81461049d578063a3a8fd2c146104b2578063bef4876b1461050b578063ce30824e14610520578063e67c864614610338578063f21f537d14610535578063f2fde38b1461054a578063fbf964eb1461056b575b600080fd5b34801561016157600080fd5b506040805160206004803580820135601f81018490048402850184019095528484526101ae9436949293602493928401919081908401838280828437509497506105809650505050505050565b6040805160208082528351818301528351919283929083019185019080838360005b838110156101e85781810151838201526020016101d0565b50505050905090810190601f1680156102155780820380516001836020036101000a031916815260200191505b509250505060405180910390f35b34801561022f57600080fd5b5061025a7bffffffffffffffffffffffffffffffffffffffffffffffffffffffff19600435166106e9565b604080519115158252519081900360200190f35b34801561027a57600080fd5b5061025a61071d565b34801561028f57600080fd5b5061025a61074b565b3480156102a457600080fd5b506102ad61076c565b604080517bffffffffffffffffffffffffffffffffffffffffffffffffffffffff199092168252519081900360200190f35b3480156102eb57600080fd5b5061025a610790565b34801561030057600080fd5b5061030f600435602435610799565b005b34801561031d57600080fd5b50610326610850565b60408051918252519081900360200190f35b34801561034457600080fd5b5061025a600160a060020a0360043516602435610856565b34801561036857600080fd5b5061025a61085e565b34801561037d57600080fd5b50610326600160a060020a0360043516602435610856565b3480156103a157600080fd5b506102ad610923565b3480156103b657600080fd5b506103bf610947565b60408051600160a060020a039092168252519081900360200190f35b3480156103e757600080fd5b506103bf610956565b3480156103fc57600080fd5b5061030f610965565b34801561041157600080fd5b506103bf6109d1565b34801561042657600080fd5b506103bf6109e9565b34801561043b57600080fd5b506040805160206004803580820135601f81018490048402850184019095528484526101ae9436949293602493928401919081908401838280828437509497506109f89650505050505050565b34801561049457600080fd5b506102ad610a85565b3480156104a957600080fd5b5061025a610aa9565b3480156104be57600080fd5b506040805160206004803580820135601f81018490048402850184019095528484526101ae943694929360249392840191908190840183828082843750949750610aae9650505050505050565b34801561051757600080fd5b5061025a610b3b565b34801561052c57600080fd5b506102ad610b44565b34801561054157600080fd5b50610326610b68565b34801561055657600080fd5b5061030f600160a060020a0360043516610b6e565b34801561057757600080fd5b506102ad610b91565b604080517fbf3bed54000000000000000000000000000000000000000000000000000000008152306024820181905260048201928352835160448301528351606093735f5f54696d6564537461727446696e69736853749363bf3bed549387939092918291606490910190602086019080838360005b8381101561060e5781810151838201526020016105f6565b50505050905090810190601f16801561063b5780820380516001836020036101000a031916815260200191505b509350505050600060405180830381600087803b15801561065b57600080fd5b505af115801561066f573d6000803e3d6000fd5b505050506040513d6000823e601f3d908101601f19168201604052602081101561069857600080fd5b8101908080516401000000008111156106b057600080fd5b820160208101848111156106c357600080fd5b81516401000000008111828201871017156106dd57600080fd5b50909695505050505050565b7bffffffffffffffffffffffffffffffffffffffffffffffffffffffff191660009081526001602052604090205460ff1690565b60008060055411151561072f57600080fd5b60065460001061073e57600080fd5b610746610bb5565b905090565b60025474010000000000000000000000000000000000000000900460ff1681565b7f01ffc9a70000000000000000000000000000000000000000000000000000000081565b60055442101590565b600054600160a060020a031633146107b057600080fd5b600360009054906101000a9004600160a060020a0316600160a060020a031663186601ca6040518163ffffffff1660e060020a028152600401602060405180830381600087803b15801561080357600080fd5b505af1158015610817573d6000803e3d6000fd5b505050506040513d602081101561082d57600080fd5b50511561083957600080fd5b6005829055600681905561084b61071d565b505050565b60065481565b600092915050565b60008054600160a060020a0316331461087657600080fd5b600360009054906101000a9004600160a060020a0316600160a060020a031663186601ca6040518163ffffffff1660e060020a028152600401602060405180830381600087803b1580156108c957600080fd5b505af11580156108dd573d6000803e3d6000fd5b505050506040513d60208110156108f357600080fd5b5051156108ff57600080fd5b506002805474ff000000000000000000000000000000000000000019169055600190565b7f6e3019250000000000000000000000000000000000000000000000000000000081565b600454600160a060020a031681565b600254600160a060020a031681565b600054600160a060020a0316331461097c57600080fd5b60008054604051600160a060020a03909116917ff8df31144d9c2f0f6b59d69b8b98abd5459d07f2742c4df920b25aae33c6482091a26000805473ffffffffffffffffffffffffffffffffffffffff19169055565b735f5f54696d6564537461727446696e697368537481565b600054600160a060020a031681565b604080517fe77cee3d000000000000000000000000000000000000000000000000000000008152306024820181905260048201928352835160448301528351606093735f5f54696d6564537461727446696e69736853749363e77cee3d9387939092918291606490910190602086019080838360008381101561060e5781810151838201526020016105f6565b7fa0d0304b0000000000000000000000000000000000000000000000000000000081565b600090565b604080517fe9499555000000000000000000000000000000000000000000000000000000008152306024820181905260048201928352835160448301528351606093735f5f54696d6564537461727446696e69736853749363e94995559387939092918291606490910190602086019080838360008381101561060e5781810151838201526020016105f6565b60065442101590565b7f04c8123d0000000000000000000000000000000000000000000000000000000081565b60055481565b600054600160a060020a03163314610b8557600080fd5b610b8e81610c52565b50565b7f6125ede50000000000000000000000000000000000000000000000000000000081565b600354604080517f186601ca0000000000000000000000000000000000000000000000000000000081529051600092600160a060020a03169163186601ca91600480830192602092919082900301818787803b158015610c1457600080fd5b505af1158015610c28573d6000803e3d6000fd5b505050506040513d6020811015610c3e57600080fd5b505115610c4a57600080fd5b610746610ccf565b600160a060020a0381161515610c6757600080fd5b60008054604051600160a060020a03808516939216917f8be0079c531659141344cd1fd0a4f28419497f9722a3daafe3b4186f6b6457e091a36000805473ffffffffffffffffffffffffffffffffffffffff1916600160a060020a0392909216919091179055565b60008054600160a060020a03163314610ce757600080fd5b6107466002805474ff00000000000000000000000000000000000000001916740100000000000000000000000000000000000000001790556001905600a165627a7a723058207f0f9dd9c2dbe1a5161bfe7d003cdadec8e2cc9dbf0f9fcb99e576042388370f0029",
  "source": "pragma solidity ^0.4.24;\n\nimport \"tokenboost-solidity/contracts/strategy/sale/erc20/ERC20SaleStrategy.sol\";\nimport \"tokenboost-solidity/contracts/widget/Renderable.sol\";\nimport \"./widget/TimedStartFinishStrategyRenderer.sol\";\n\ncontract TimedStartFinishStrategy is ERC20SaleStrategy, Renderable {\n    TimedStartFinishStrategyRenderer public constant renderer = TimedStartFinishStrategyRenderer(address(bytes20(\"__TimedStartFinishSt\")));\n\n    uint public startedAt;\n    uint public finishedAt;\n\n    constructor(address _owner, ERC20Sale _sale) public ERC20SaleStrategy(_owner, _sale) {\n    }\n\n    function update(uint _startedAt, uint _finishedAt) onlyOwner whenSaleNotActivated public {\n        startedAt = _startedAt;\n        finishedAt = _finishedAt;\n        activate();\n    }\n\n    function activate() public returns (bool) {\n        require(startedAt > 0);\n        require(finishedAt > 0);\n        return super.activate();\n    }\n\n    function started() public view returns (bool) {\n        return now >= startedAt;\n    }\n\n    function successful() public view returns (bool) {\n        return false;\n    }\n\n    function finished() public view returns (bool) {\n        return now >= finishedAt;\n    }\n\n    function purchasable(address _purchaser, uint256 _weiAmount) public view returns (bool) {\n        return false;\n    }\n\n    function tokenRate(address _purchaser, uint256 _weiAmount) public view returns (uint256) {\n        return 0;\n    }\n\n    function supplyTokens(address _purchaser, uint256 _tokenAmount) public returns (bool) {\n        return false;\n    }\n\n    function receivesTokens(address _purchaser, uint256 _tokenAmount) public returns (bool) {\n        return false;\n    }\n\n    function adminWidgets(string locale) public view returns (string json) {\n        return renderer.adminWidgets(locale, this);\n    }\n\n    function userWidgets(string locale) public view returns (string json) {\n        return renderer.userWidgets(locale, this);\n    }\n\n    function inputs(string locale) public view returns (string json) {\n        return renderer.inputs(locale, this);\n    }\n}\n",
  "sourcePath": "/Users/yoonjae/SolidityProjects/tokenboost-solidity-erc20sale-strategies/contracts/strategy/sale/erc20/timed-start-finish/TimedStartFinishStrategy.sol",
  "compiler": {
    "name": "solc",
    "version": "0.4.24+commit.e67f0147.Emscripten.clang"
  },
  "schemaVersion": "2.0.1",
  "updatedAt": "2018-10-07T03:23:37.744Z"
}