{
  "contractName": "TransferredTokenSupplyStrategyRenderer",
  "abi": [
    {
      "constant": true,
      "inputs": [],
      "name": "WITHDRAW_UNSOLD_TOKENS_CONFIRM",
      "outputs": [
        {
          "name": "",
          "type": "string"
        }
      ],
      "payable": false,
      "stateMutability": "view",
      "type": "function"
    },
    {
      "constant": true,
      "inputs": [],
      "name": "WITHDRAW_UNSOLD_TOKENS",
      "outputs": [
        {
          "name": "",
          "type": "string"
        }
      ],
      "payable": false,
      "stateMutability": "view",
      "type": "function"
    },
    {
      "constant": true,
      "inputs": [],
      "name": "STRATEGY_ADDRESS",
      "outputs": [
        {
          "name": "",
          "type": "string"
        }
      ],
      "payable": false,
      "stateMutability": "view",
      "type": "function"
    },
    {
      "constant": true,
      "inputs": [],
      "name": "TRANSFER_SHORT_DESC",
      "outputs": [
        {
          "name": "",
          "type": "string"
        }
      ],
      "payable": false,
      "stateMutability": "view",
      "type": "function"
    },
    {
      "constant": false,
      "inputs": [],
      "name": "renounceOwnership",
      "outputs": [],
      "payable": false,
      "stateMutability": "nonpayable",
      "type": "function"
    },
    {
      "constant": true,
      "inputs": [],
      "name": "TRANSFER",
      "outputs": [
        {
          "name": "",
          "type": "string"
        }
      ],
      "payable": false,
      "stateMutability": "view",
      "type": "function"
    },
    {
      "constant": true,
      "inputs": [],
      "name": "TRANSFER_CONFIRM",
      "outputs": [
        {
          "name": "",
          "type": "string"
        }
      ],
      "payable": false,
      "stateMutability": "view",
      "type": "function"
    },
    {
      "constant": true,
      "inputs": [],
      "name": "owner",
      "outputs": [
        {
          "name": "",
          "type": "address"
        }
      ],
      "payable": false,
      "stateMutability": "view",
      "type": "function"
    },
    {
      "constant": true,
      "inputs": [],
      "name": "TRANSFER_LONG_DESC",
      "outputs": [
        {
          "name": "",
          "type": "string"
        }
      ],
      "payable": false,
      "stateMutability": "view",
      "type": "function"
    },
    {
      "constant": true,
      "inputs": [],
      "name": "WITHDRAW_UNSOLD_TOKENS_LONG_DESC",
      "outputs": [
        {
          "name": "",
          "type": "string"
        }
      ],
      "payable": false,
      "stateMutability": "view",
      "type": "function"
    },
    {
      "constant": true,
      "inputs": [],
      "name": "WITHDRAW_UNSOLD_TOKENS_SHORT_DESC",
      "outputs": [
        {
          "name": "",
          "type": "string"
        }
      ],
      "payable": false,
      "stateMutability": "view",
      "type": "function"
    },
    {
      "constant": true,
      "inputs": [],
      "name": "UNSOLD_TOKENS",
      "outputs": [
        {
          "name": "",
          "type": "string"
        }
      ],
      "payable": false,
      "stateMutability": "view",
      "type": "function"
    },
    {
      "constant": true,
      "inputs": [],
      "name": "AMOUNT",
      "outputs": [
        {
          "name": "",
          "type": "string"
        }
      ],
      "payable": false,
      "stateMutability": "view",
      "type": "function"
    },
    {
      "constant": false,
      "inputs": [
        {
          "name": "locale",
          "type": "string"
        },
        {
          "name": "key",
          "type": "string"
        },
        {
          "name": "value",
          "type": "string"
        }
      ],
      "name": "setResource",
      "outputs": [],
      "payable": false,
      "stateMutability": "nonpayable",
      "type": "function"
    },
    {
      "constant": false,
      "inputs": [
        {
          "name": "_newOwner",
          "type": "address"
        }
      ],
      "name": "transferOwnership",
      "outputs": [],
      "payable": false,
      "stateMutability": "nonpayable",
      "type": "function"
    },
    {
      "constant": true,
      "inputs": [
        {
          "name": "locale",
          "type": "string"
        },
        {
          "name": "key",
          "type": "string"
        }
      ],
      "name": "resource",
      "outputs": [
        {
          "name": "",
          "type": "string"
        }
      ],
      "payable": false,
      "stateMutability": "view",
      "type": "function"
    },
    {
      "anonymous": false,
      "inputs": [
        {
          "indexed": true,
          "name": "previousOwner",
          "type": "address"
        }
      ],
      "name": "OwnershipRenounced",
      "type": "event"
    },
    {
      "anonymous": false,
      "inputs": [
        {
          "indexed": true,
          "name": "previousOwner",
          "type": "address"
        },
        {
          "indexed": true,
          "name": "newOwner",
          "type": "address"
        }
      ],
      "name": "OwnershipTransferred",
      "type": "event"
    },
    {
      "constant": true,
      "inputs": [
        {
          "name": "_locale",
          "type": "string"
        },
        {
          "name": "_strategy",
          "type": "address"
        }
      ],
      "name": "adminWidgets",
      "outputs": [
        {
          "name": "",
          "type": "string"
        }
      ],
      "payable": false,
      "stateMutability": "view",
      "type": "function"
    },
    {
      "constant": true,
      "inputs": [
        {
          "name": "_locale",
          "type": "string"
        },
        {
          "name": "_strategy",
          "type": "address"
        }
      ],
      "name": "userWidgets",
      "outputs": [
        {
          "name": "json",
          "type": "string"
        }
      ],
      "payable": false,
      "stateMutability": "view",
      "type": "function"
    },
    {
      "constant": true,
      "inputs": [
        {
          "name": "_locale",
          "type": "string"
        },
        {
          "name": "_strategy",
          "type": "address"
        }
      ],
      "name": "inputs",
      "outputs": [
        {
          "name": "",
          "type": "string"
        }
      ],
      "payable": false,
      "stateMutability": "view",
      "type": "function"
    }
  ],
  "bytecode": "0x608060405260008054600160a060020a03191633179055613d6c806100256000396000f3006080604052600436106100ed5763ffffffff60e060020a60003504166311dbf24881146100f257806321f288751461017c5780634cb08fff14610191578063679211df146101a6578063715018a6146101bb57806376420e1d146101d25780638143b2ea146101e75780638da5cb5b146101fc5780638eba96be1461022d5780639b53d5c914610242578063a85990cf14610257578063bf3bed541461026c578063cbb49924146102d0578063d1789176146102e5578063e77cee3d1461026c578063e9499555146102fa578063ed3487fe1461035e578063f2fde38b14610433578063f65a5c1b14610454575b600080fd5b3480156100fe57600080fd5b506101076104eb565b6040805160208082528351818301528351919283929083019185019080838360005b83811015610141578181015183820152602001610129565b50505050905090810190601f16801561016e5780820380516001836020036101000a031916815260200191505b509250505060405180910390f35b34801561018857600080fd5b50610107610522565b34801561019d57600080fd5b50610107610547565b3480156101b257600080fd5b5061010761057e565b3480156101c757600080fd5b506101d06105b5565b005b3480156101de57600080fd5b50610107610621565b3480156101f357600080fd5b50610107610646565b34801561020857600080fd5b5061021161067d565b60408051600160a060020a039092168252519081900360200190f35b34801561023957600080fd5b5061010761068c565b34801561024e57600080fd5b506101076106c3565b34801561026357600080fd5b506101076106fa565b34801561027857600080fd5b506040805160206004803580820135601f810184900484028501840190955284845261010794369492936024939284019190819084018382808284375094975050509235600160a060020a0316935061073192505050565b3480156102dc57600080fd5b5061010761076a565b3480156102f157600080fd5b506101076107a1565b34801561030657600080fd5b506040805160206004803580820135601f810184900484028501840190955284845261010794369492936024939284019190819084018382808284375094975050509235600160a060020a031693506107d892505050565b34801561036a57600080fd5b506040805160206004803580820135601f81018490048402850184019095528484526101d094369492936024939284019190819084018382808284375050604080516020601f89358b018035918201839004830284018301909452808352979a99988101979196509182019450925082915084018382808284375050604080516020601f89358b018035918201839004830284018301909452808352979a999881019791965091820194509250829150840183828082843750949750610a949650505050505050565b34801561043f57600080fd5b506101d0600160a060020a0360043516610b81565b34801561046057600080fd5b506040805160206004803580820135601f810184900484028501840190955284845261010794369492936024939284019190819084018382808284375050604080516020601f89358b018035918201839004830284018301909452808352979a999881019791965091820194509250829150840183828082843750949750610ba49650505050505050565b60408051808201909152601e81527f77697468647261775f756e736f6c645f746f6b656e735f636f6e6669726d0000602082015281565b6040805180820190915260168152600080516020613d01833981519152602082015281565b60408051808201909152601081527f73747261746567795f6164647265737300000000000000000000000000000000602082015281565b60408051808201909152601381527f7472616e736665725f73686f72745f6465736300000000000000000000000000602082015281565b600054600160a060020a031633146105cc57600080fd5b60008054604051600160a060020a03909116917ff8df31144d9c2f0f6b59d69b8b98abd5459d07f2742c4df920b25aae33c6482091a26000805473ffffffffffffffffffffffffffffffffffffffff19169055565b6040805180820190915260088152600080516020613d21833981519152602082015281565b60408051808201909152600e81527f7570646174655f636f6e6669726d000000000000000000000000000000000000602082015281565b600054600160a060020a031681565b60408051808201909152601281527f7472616e736665725f6c6f6e675f646573630000000000000000000000000000602082015281565b60408051808201909152601781527f756e736f6c645f746f6b656e735f6c6f6e675f64657363000000000000000000602082015281565b60408051808201909152601881527f756e736f6c645f746f6b656e735f73686f72745f646573630000000000000000602082015281565b505060408051808201909152600281527f5b5d000000000000000000000000000000000000000000000000000000000000602082015290565b60408051808201909152600d81527f756e736f6c645f746f6b656e7300000000000000000000000000000000000000602082015281565b60408051808201909152600681527f616d6f756e740000000000000000000000000000000000000000000000000000602082015281565b606060006060600060606000606087600160a060020a0316636ad1fe026040518163ffffffff1660e060020a028152600401602060405180830381600087803b15801561082457600080fd5b505af1158015610838573d6000803e3d6000fd5b505050506040513d602081101561084e57600080fd5b5051604080517fbef4876b0000000000000000000000000000000000000000000000000000000081529051600160a060020a039092169163bef4876b916004808201926020929091908290030181600087803b1580156108ad57600080fd5b505af11580156108c1573d6000803e3d6000fd5b505050506040513d60208110156108d757600080fd5b505160408051808201909152600181527f5b00000000000000000000000000000000000000000000000000000000000000602082015290965094506000935085610922576001610925565b60025b60ff1660405190808252806020026020018201604052801561095b57816020015b60608152602001906001900390816109465790505b5092506109688989610cf5565b83600081518110151561097757fe5b6020908102909101015285156109ab576109918989611d2c565b8360018151811015156109a057fe5b602090810290910101525b600091505b8251821015610a465782828151811015156109c757fe5b906020019060200201519050600081511115610a3b576000841115610a2657610a23610a0e60408051908101604052806001815260200160fa60020a600b02815250612b93565b610a1787612b93565b9063ffffffff612bbc16565b94505b610a32610a0e82612b93565b94506001909301925b6001909101906109b0565b610a87610a0e6040805190810160405280600181526020017f5d00000000000000000000000000000000000000000000000000000000000000815250612b93565b9998505050505050505050565b600054600160a060020a03163314610aab57600080fd5b806001846040518082805190602001908083835b60208310610ade5780518252601f199092019160209182019101610abf565b51815160209384036101000a6000190180199092169116179052920194855250604051938490038101842087519094889450925082918401908083835b60208310610b3a5780518252601f199092019160209182019101610b1b565b51815160209384036101000a60001901801990921691161790529201948552506040519384900381019093208451610b7b9591949190910192509050613b51565b50505050565b600054600160a060020a03163314610b9857600080fd5b610ba181612c33565b50565b60606001836040518082805190602001908083835b60208310610bd85780518252601f199092019160209182019101610bb9565b51815160209384036101000a6000190180199092169116179052920194855250604051938490038101842086519094879450925082918401908083835b60208310610c345780518252601f199092019160209182019101610c15565b518151600019602094850361010090810a820192831692199390931691909117909252949092019687526040805197889003820188208054601f6002600183161590980290950116959095049283018290048202880182019052818752929450925050830182828015610ce85780601f10610cbd57610100808354040283529160200191610ce8565b820191906000526020600020905b815481529060010190602001808311610ccb57829003601f168201915b5050505050905092915050565b606080600080610d03613bcf565b6040805160038082526080820190925290816020015b610d21613bff565b815260200190600190039081610d1957905050935085600160a060020a0316636ad1fe026040518163ffffffff1660e060020a028152600401602060405180830381600087803b158015610d7457600080fd5b505af1158015610d88573d6000803e3d6000fd5b505050506040513d6020811015610d9e57600080fd5b50516040805160e160020a637e062a350281529051600160a060020a039092169163fc0c546a916004808201926020929091908290030181600087803b158015610de757600080fd5b505af1158015610dfb573d6000803e3d6000fd5b505050506040513d6020811015610e1157600080fd5b5051604080517f313ce5670000000000000000000000000000000000000000000000000000000081529051919450600160a060020a0385169163313ce567916004808201926020929091908290030181600087803b158015610e7257600080fd5b505af1158015610e86573d6000803e3d6000fd5b505050506040513d6020811015610e9c57600080fd5b50516040805160e081018252600180825282518084018452601081527f73747261746567795f61646472657373000000000000000000000000000000006020828101919091528381019190915283518085018552600781527f6164647265737300000000000000000000000000000000000000000000000000818301528385015292518b5160ff90951696509193606085019391928c92909182918401908083835b60208310610f5d5780518252601f199092019160209182019101610f3e565b51815160209384036101000a6000190180199092169116179052920194855250604080519485900382018520858201825260108087527f73747261746567795f616464726573730000000000000000000000000000000093870193845291519095945092508291908083835b60208310610fe85780518252601f199092019160209182019101610fc9565b518151600019602094850361010090810a820192831692199390931691909117909252949092019687526040805197889003820188208054601f600260018316159098029095011695909504928301829004820288018201905281875292945092505083018282801561109c5780601f106110715761010080835404028352916020019161109c565b820191906000526020600020905b81548152906001019060200180831161107f57829003601f168201915b505050505081526020016110c06110bb89600160a060020a0316612cb0565b612df6565b81526020016110cd612e5a565b81526020016110da612ead565b90528451859060009081106110eb57fe5b60209081029091018101919091526040805160e0810182526001815281518083018352600681527f616d6f756e7400000000000000000000000000000000000000000000000000008185015292810192909252810161119261115461114f86612f3a565b612b93565b610a176040805190810160405280600981526020017f746f6b656e456469740000000000000000000000000000000000000000000000815250612b93565b81526020016001896040518082805190602001908083835b602083106111c95780518252601f1990920191602091820191016111aa565b51815160209384036101000a6000190180199092169116179052920194855250604080519485900382018520858201825260068087527f616d6f756e74000000000000000000000000000000000000000000000000000093870193845291519095945092508291908083835b602083106112545780518252601f199092019160209182019101611235565b518151600019602094850361010090810a820192831692199390931691909117909252949092019687526040805197889003820188208054601f60026001831615909802909501169590950492830182900482028801820190528187529294509250508301828280156113085780601f106112dd57610100808354040283529160200191611308565b820191906000526020600020905b8154815290600101906020018083116112eb57829003601f168201915b505050505081526020016040805190810160405280600181526020017f30000000000000000000000000000000000000000000000000000000000000008152508152602001611355612e5a565b8152602001611362612ead565b905284518590600190811061137357fe5b9060200190602002018190525060e060405190810160405280600115158152602001604080519081016040528060088152602001600080516020613d2183398151915281525081526020016040805190810160405280600681526020017f627574746f6e000000000000000000000000000000000000000000000000000081525081526020016001896040518082805190602001908083835b6020831061142b5780518252601f19909201916020918201910161140c565b51815160209384036101000a600019018019909216911617905292019485525060408051948590038201852085820182526008808752600080516020613d2183398151915293870193845291519095945092508291908083835b602083106114a45780518252601f199092019160209182019101611485565b518151600019602094850361010090810a820192831692199390931691909117909252949092019687526040805197889003820188208054601f60026001831615909802909501169590950492830182900482028801820190528187529294509250508301828280156115585780601f1061152d57610100808354040283529160200191611558565b820191906000526020600020905b81548152906001019060200180831161153b57829003601f168201915b5050505050815260200160408051908101604052806004815260200160e260020a631b9d5b1b02815250815260200160a06040519081016040528060011515815260200189600160a060020a0316636ad1fe026040518163ffffffff1660e060020a028152600401602060405180830381600087803b1580156115da57600080fd5b505af11580156115ee573d6000803e3d6000fd5b505050506040513d602081101561160457600080fd5b50516040805160e160020a637e062a350281529051600160a060020a039092169163fc0c546a916004808201926020929091908290030181600087803b15801561164d57600080fd5b505af1158015611661573d6000803e3d6000fd5b505050506040513d602081101561167757600080fd5b5051600160a060020a03168152604080518082018252601981527f7472616e7366657228616464726573732c75696e7432353629000000000000006020828101919091528381019190915281518083018352601481527f5b2261646472657373222c22616d6f756e74225d000000000000000000000000818301528284015290518c516060909301926001928e929182918401908083835b6020831061172e5780518252601f19909201916020918201910161170f565b51815160209384036101000a60001901801990921691161790529201948552506040805194859003820185208582018252600e8087527f7570646174655f636f6e6669726d00000000000000000000000000000000000093870193845291519095945092508291908083835b602083106117b95780518252601f19909201916020918201910161179a565b518151600019602094850361010090810a820192831692199390931691909117909252949092019687526040805197889003820188208054601f600260018316159098029095011695909504928301829004820288018201905281875292945092505083018282801561186d5780601f106118425761010080835404028352916020019161186d565b820191906000526020600020905b81548152906001019060200180831161185057829003601f168201915b50505050508152508152602001611882612ead565b905284518590600290811061189357fe5b9060200190602002018190525060a0604051908101604052806001896040518082805190602001908083835b602083106118de5780518252601f1990920191602091820191016118bf565b51815160209384036101000a600019018019909216911617905292019485525060408051948590038201852085820182526008808752600080516020613d2183398151915293870193845291519095945092508291908083835b602083106119575780518252601f199092019160209182019101611938565b518151600019602094850361010090810a820192831692199390931691909117909252949092019687526040805197889003820188208054601f6002600183161590980290950116959095049283018290048202880182019052818752929450925050830182828015611a0b5780601f106119e057610100808354040283529160200191611a0b565b820191906000526020600020905b8154815290600101906020018083116119ee57829003601f168201915b505050505081526020016001896040518082805190602001908083835b60208310611a475780518252601f199092019160209182019101611a28565b51815160209384036101000a6000190180199092169116179052920194855250604080519485900382018520858201825260138087527f7472616e736665725f73686f72745f646573630000000000000000000000000093870193845291519095945092508291908083835b60208310611ad25780518252601f199092019160209182019101611ab3565b518151600019602094850361010090810a820192831692199390931691909117909252949092019687526040805197889003820188208054601f6002600183161590980290950116959095049283018290048202880182019052818752929450925050830182828015611b865780601f10611b5b57610100808354040283529160200191611b86565b820191906000526020600020905b815481529060010190602001808311611b6957829003601f168201915b505050505081526020016001896040518082805190602001908083835b60208310611bc25780518252601f199092019160209182019101611ba3565b51815160209384036101000a6000190180199092169116179052920194855250604080519485900382018520858201825260128087527f7472616e736665725f6c6f6e675f64657363000000000000000000000000000093870193845291519095945092508291908083835b60208310611c4d5780518252601f199092019160209182019101611c2e565b518151600019602094850361010090810a820192831692199390931691909117909252949092019687526040805197889003820188208054601f6002600183161590980290950116959095049283018290048202880182019052818752929450925050830182828015611d015780601f10611cd657610100808354040283529160200191611d01565b820191906000526020600020905b815481529060010190602001808311611ce457829003601f168201915b5050505050815260200160048152602001858152509050611d2181613095565b979650505050505050565b6060806000806000611d3c613bcf565b6040805160028082526060820190925290816020015b611d5a613bff565b815260200190600190039081611d5257905050945086600160a060020a0316636ad1fe026040518163ffffffff1660e060020a028152600401602060405180830381600087803b158015611dad57600080fd5b505af1158015611dc1573d6000803e3d6000fd5b505050506040513d6020811015611dd757600080fd5b50516040805160e160020a637e062a350281529051600160a060020a039092169163fc0c546a916004808201926020929091908290030181600087803b158015611e2057600080fd5b505af1158015611e34573d6000803e3d6000fd5b505050506040513d6020811015611e4a57600080fd5b5051604080517f70a082310000000000000000000000000000000000000000000000000000000081523060048201529051600160a060020a03909216916370a08231916024808201926020929091908290030181600087803b158015611eaf57600080fd5b505af1158015611ec3573d6000803e3d6000fd5b505050506040513d6020811015611ed957600080fd5b5051604080517f6ad1fe020000000000000000000000000000000000000000000000000000000081529051919550600160a060020a03891691636ad1fe02916004808201926020929091908290030181600087803b158015611f3a57600080fd5b505af1158015611f4e573d6000803e3d6000fd5b505050506040513d6020811015611f6457600080fd5b50516040805160e160020a637e062a350281529051600160a060020a039092169163fc0c546a916004808201926020929091908290030181600087803b158015611fad57600080fd5b505af1158015611fc1573d6000803e3d6000fd5b505050506040513d6020811015611fd757600080fd5b5051604080517f313ce5670000000000000000000000000000000000000000000000000000000081529051919450600160a060020a0385169163313ce567916004808201926020929091908290030181600087803b15801561203857600080fd5b505af115801561204c573d6000803e3d6000fd5b505050506040513d602081101561206257600080fd5b50516040805160e0810182526001815281518083018352600d81527f756e736f6c645f746f6b656e730000000000000000000000000000000000000060208281019190915282015260ff909216935081016121006120c261114f86612f3a565b610a176040805190810160405280600581526020017f746f6b656e000000000000000000000000000000000000000000000000000000815250612b93565b815260200160018a6040518082805190602001908083835b602083106121375780518252601f199092019160209182019101612118565b51815160209384036101000a60001901801990921691161790529201948552506040805194859003820185208582018252600d8087527f756e736f6c645f746f6b656e730000000000000000000000000000000000000093870193845291519095945092508291908083835b602083106121c25780518252601f1990920191602091820191016121a3565b518151600019602094850361010090810a820192831692199390931691909117909252949092019687526040805197889003820188208054601f60026001831615909802909501169590950492830182900482028801820190528187529294509250508301828280156122765780601f1061224b57610100808354040283529160200191612276565b820191906000526020600020905b81548152906001019060200180831161225957829003601f168201915b5050505050815260200161228986612f3a565b8152602001612296612e5a565b81526020016122a3612ead565b90528551869060009081106122b457fe5b9060200190602002018190525060e060405190810160405280600115158152602001604080519081016040528060168152602001600080516020613d0183398151915281525081526020016040805190810160405280600681526020017f627574746f6e0000000000000000000000000000000000000000000000000000815250815260200160018a6040518082805190602001908083835b6020831061236c5780518252601f19909201916020918201910161234d565b51815160209384036101000a600019018019909216911617905292019485525060408051948590038201852085820182526016808752600080516020613d0183398151915293870193845291519095945092508291908083835b602083106123e55780518252601f1990920191602091820191016123c6565b518151600019602094850361010090810a820192831692199390931691909117909252949092019687526040805197889003820188208054601f60026001831615909802909501169590950492830182900482028801820190528187529294509250508301828280156124995780601f1061246e57610100808354040283529160200191612499565b820191906000526020600020905b81548152906001019060200180831161247c57829003601f168201915b5050505050815260200160408051908101604052806004815260200160e260020a631b9d5b1b02815250815260200160a0604051908101604052806001151581526020018a600160a060020a031681526020016040805190810160405280601081526020017f7769746864726177546f6b656e7328290000000000000000000000000000000081525081526020016040805190810160405280600281526020017f5b5d000000000000000000000000000000000000000000000000000000000000815250815260200160018c6040518082805190602001908083835b602083106125945780518252601f199092019160209182019101612575565b51815160209384036101000a60001901801990921691161790529201948552506040805194859003820185208582018252601e8087527f77697468647261775f756e736f6c645f746f6b656e735f636f6e6669726d000093870193845291519095945092508291908083835b6020831061261f5780518252601f199092019160209182019101612600565b518151600019602094850361010090810a820192831692199390931691909117909252949092019687526040805197889003820188208054601f60026001831615909802909501169590950492830182900482028801820190528187529294509250508301828280156126d35780601f106126a8576101008083540402835291602001916126d3565b820191906000526020600020905b8154815290600101906020018083116126b657829003601f168201915b505050505081525081526020016126e8612ead565b90528551869060019081106126f957fe5b9060200190602002018190525060a06040519081016040528060018a6040518082805190602001908083835b602083106127445780518252601f199092019160209182019101612725565b51815160209384036101000a600019018019909216911617905292019485525060408051948590038201852085820182526016808752600080516020613d0183398151915293870193845291519095945092508291908083835b602083106127bd5780518252601f19909201916020918201910161279e565b518151600019602094850361010090810a820192831692199390931691909117909252949092019687526040805197889003820188208054601f60026001831615909802909501169590950492830182900482028801820190528187529294509250508301828280156128715780601f1061284657610100808354040283529160200191612871565b820191906000526020600020905b81548152906001019060200180831161285457829003601f168201915b5050505050815260200160018a6040518082805190602001908083835b602083106128ad5780518252601f19909201916020918201910161288e565b51815160209384036101000a6000190180199092169116179052920194855250604080519485900382018520858201825260188087527f756e736f6c645f746f6b656e735f73686f72745f64657363000000000000000093870193845291519095945092508291908083835b602083106129385780518252601f199092019160209182019101612919565b518151600019602094850361010090810a820192831692199390931691909117909252949092019687526040805197889003820188208054601f60026001831615909802909501169590950492830182900482028801820190528187529294509250508301828280156129ec5780601f106129c1576101008083540402835291602001916129ec565b820191906000526020600020905b8154815290600101906020018083116129cf57829003601f168201915b5050505050815260200160018a6040518082805190602001908083835b60208310612a285780518252601f199092019160209182019101612a09565b51815160209384036101000a6000190180199092169116179052920194855250604080519485900382018520858201825260178087527f756e736f6c645f746f6b656e735f6c6f6e675f6465736300000000000000000093870193845291519095945092508291908083835b60208310612ab35780518252601f199092019160209182019101612a94565b518151600019602094850361010090810a820192831692199390931691909117909252949092019687526040805197889003820188208054601f6002600183161590980290950116959095049283018290048202880182019052818752929450925050830182828015612b675780601f10612b3c57610100808354040283529160200191612b67565b820191906000526020600020905b815481529060010190602001808311612b4a57829003601f168201915b5050505050815260200160048152602001868152509050612b8781613095565b98975050505050505050565b612b9b613c4b565b50604080518082019091528151815260208281019082018190525b50919050565b606080600083600001518560000151016040519080825280601f01601f191660200182016040528015612bf9578160200160208202803883390190505b509150602082019050612c1581866020015187600001516132f2565b845160208501518551612c2b92840191906132f2565b509392505050565b600160a060020a0381161515612c4857600080fd5b60008054604051600160a060020a03808516939216917f8be0079c531659141344cd1fd0a4f28419497f9722a3daafe3b4186f6b6457e091a36000805473ffffffffffffffffffffffffffffffffffffffff1916600160a060020a0392909216919091179055565b60408051602a80825260608083019093528291600091829182916020820161054080388339505081519195507f3000000000000000000000000000000000000000000000000000000000000000918691506000908110612d0c57fe5b906020010190600160f860020a031916908160001a90535083517f78000000000000000000000000000000000000000000000000000000000000009085906001908110612d5557fe5b906020010190600160f860020a031916908160001a905350859250600091505b6028821015612de957506030600f8316016039600160a060020a0382161115612d9c576027015b8060f860020a028483602803600101815181101515612db757fe5b906020010190600160f860020a031916908160001a9053506010600160a060020a038416049250600190910190612d75565b8394505b50505050919050565b6060612e54612e2060408051908101604052806001815260200160f960020a601102815250612b93565b610a1761114f612e2f86612b93565b610a1760408051908101604052806001815260200160f960020a601102815250612b93565b92915050565b612e62613c62565b506040805160a0810182526000808252602080830182905283518082018552828152838501528351808201855282815260608401528351908101909352825260808101919091525b90565b612eb5613c8f565b60408051606081018252600080825282518181526020818101909452919283019190612ef7565b612ee4613cb3565b815260200190600190039081612edc5790505b5081526020016000604051908082528060200260200182016040528015612f3257816020015b6060815260200190600190039081612f1d5790505b509052905090565b60608060008181851515612f835760408051808201909152600181527f300000000000000000000000000000000000000000000000000000000000000060208201529450612ded565b6040805160208082528183019092529080820161040080388339019050509350600092505b6000861115612ff557600a860660300160f860020a028484815181101515612fcc57fe5b906020010190600160f860020a031916908160001a905350600a86049550600190920191612fa8565b60408051848152601f19601f86011681016020019091526000198401938015613028578160200160208202803883390190505b509150600090505b815181101561308c5783516000198401938591811061304b57fe5b90602001015160f860020a900460f860020a02828281518110151561306c57fe5b906020010190600160f860020a031916908160001a905350600101613030565b50949350505050565b60408051808201909152600a81527f7b227469746c65223a220000000000000000000000000000000000000000000060208201528151606091906000906130e8906130df90612b93565b610a1784612b93565b915061312b6130df6040805190810160405280600f81526020017f222c2273686f727444657363223a220000000000000000000000000000000000815250612b93565b915061313d6130df8560200151612b93565b91506131806130df6040805190810160405280600e81526020017f222c226c6f6e6744657363223a22000000000000000000000000000000000000815250612b93565b91506131926130df8560400151612b93565b91506131d56130df6040805190810160405280600a81526020017f222c227769647468223a00000000000000000000000000000000000000000000815250612b93565b91506131ea6130df61114f8660600151612f3a565b915061322d6130df6040805190810160405280600d81526020017f2c22656c656d656e7473223a5b00000000000000000000000000000000000000815250612b93565b9150600090505b8360800151518110156132a9576000811115613275576132726130df60408051908101604052806001815260200160fa60020a600b02815250612b93565b91505b61329f6130df61114f86608001518481518110151561329057fe5b90602001906020020151613336565b9150600101613234565b6132ea6130df6040805190810160405280600281526020017f5d7d000000000000000000000000000000000000000000000000000000000000815250612b93565b949350505050565b60005b60208210613317578251845260209384019390920191601f19909101906132f5565b50905182516020929092036101000a6000190180199091169116179052565b6060808260000151156135d0576040805190810160405280600781526020017f7b226964223a2200000000000000000000000000000000000000000000000000815250905061339461338b8460200151612b93565b610a1783612b93565b90506133be61338b60408051908101604052806001815260200160f960020a601102815250612b93565b60a084015151909150156134255761340d61338b6040805190810160405280600b81526020017f2c2022616374696f6e223a000000000000000000000000000000000000000000815250612b93565b905061342261338b61114f8560a001516135f5565b90505b60c083015151156134895761347161338b6040805190810160405280600a81526020017f2c20227461626c65223a00000000000000000000000000000000000000000000815250612b93565b905061348661338b61114f8560c00151613798565b90505b6134ca61338b6040805190810160405280600981526020017f2c2274797065223a220000000000000000000000000000000000000000000000815250612b93565b90506134dc61338b8460400151612b93565b905061351f61338b6040805190810160405280600b81526020017f222c226c6162656c223a22000000000000000000000000000000000000000000815250612b93565b905061353161338b8460600151612b93565b905061357461338b6040805190810160405280600981526020017f222c2264617461223a0000000000000000000000000000000000000000000000815250612b93565b905061358661338b8460800151612b93565b90506135c961338b6040805190810160405280600181526020017f7d00000000000000000000000000000000000000000000000000000000000000815250612b93565b9150612bb6565b604080518082019091526004815260e260020a631b9d5b1b0260208201529150612bb6565b6060808260000151156135d0576040805190810160405280600c81526020017f7b2261646472657373223a220000000000000000000000000000000000000000815250905061365661338b61114f8560200151600160a060020a0316612cb0565b905061369961338b6040805190810160405280601681526020017f222c2266756e6374696f6e53656c6563746f72223a2200000000000000000000815250612b93565b90506136ab61338b8460400151612b93565b90506136ee61338b6040805190810160405280600e81526020017f222c22617267756d656e7473223a000000000000000000000000000000000000815250612b93565b905061370061338b8460600151612b93565b905061374361338b6040805190810160405280600c81526020017f2c22636f6e6669726d223a220000000000000000000000000000000000000000815250612b93565b905061375561338b8460800151612b93565b90506135c961338b6040805190810160405280600281526020017f227d000000000000000000000000000000000000000000000000000000000000815250612b93565b60608060008084600001511561397057505060408051808201909152600c81527f7b22636f6c756d6e73223a5b0000000000000000000000000000000000000000602082015290506000805b84602001515181101561386657600082111561382e5761382b61382260408051908101604052806001815260200160fa60020a600b02815250612b93565b610a1785612b93565b92505b61385861382261114f87602001518481518110151561384957fe5b90602001906020020151613999565b9250600191820191016137e4565b6138a76138226040805190810160405280600a81526020017f5d2c22726f7773223a5b00000000000000000000000000000000000000000000815250612b93565b925060009150600090505b8460400151518110156139285760008211156138f3576138f061382260408051908101604052806001815260200160fa60020a600b02815250612b93565b92505b61391a61382286604001518381518110151561390b57fe5b90602001906020020151612b93565b9250600191820191016138b2565b6139696138226040805190810160405280600281526020017f5d7d000000000000000000000000000000000000000000000000000000000000815250612b93565b9350613991565b604080518082019091526004815260e260020a631b9d5b1b02602082015293505b505050919050565b6060808260000151156135d0576040805190810160405280600781526020017f7b226964223a220000000000000000000000000000000000000000000000000081525090506139ee61338b8460200151612b93565b9050613a1861338b60408051908101604052806001815260200160f960020a601102815250612b93565b60808401515190915015613aa957613a4e61338b60408051908101604052806001815260200160fa60020a600b02815250612b93565b9050613a9161338b6040805190810160405280600981526020017f22616374696f6e223a0000000000000000000000000000000000000000000000815250612b93565b9050613aa661338b61114f85608001516135f5565b90505b613aea61338b6040805190810160405280600981526020017f2c2274797065223a220000000000000000000000000000000000000000000000815250612b93565b9050613afc61338b8460400151612b93565b9050613b3f61338b6040805190810160405280600b81526020017f222c226c6162656c223a22000000000000000000000000000000000000000000815250612b93565b905061375561338b8460600151612b93565b828054600181600116156101000203166002900490600052602060002090601f016020900481019282601f10613b9257805160ff1916838001178555613bbf565b82800160010185558215613bbf579182015b82811115613bbf578251825591602001919060010190613ba4565b50613bcb929150613ce6565b5090565b60a06040519081016040528060608152602001606081526020016060815260200160008152602001606081525090565b6101a06040519081016040528060001515815260200160608152602001606081526020016060815260200160608152602001613c39613c62565b8152602001613c46613c8f565b905290565b604080518082019091526000808252602082015290565b6040805160a081018252600080825260208201526060918101829052818101829052608081019190915290565b60606040519081016040528060001515815260200160608152602001606081525090565b61012060405190810160405280600015158152602001606081526020016060815260200160608152602001613c46613c62565b612eaa91905b80821115613bcb5760008155600101613cec560077697468647261775f756e736f6c645f746f6b656e73000000000000000000007472616e73666572000000000000000000000000000000000000000000000000a165627a7a723058205c12a9b533711697231cf396b6a66f25ffc632758d49360695a6213ace5bfe2b0029",
  "source": "pragma solidity ^0.4.24;\n\nimport \"zeppelin-solidity/contracts/token/ERC20/DetailedERC20.sol\";\nimport \"tokenboost-solidity/contracts/widget/Localizable.sol\";\nimport \"tokenboost-solidity/contracts/widget/Widgets.sol\";\nimport \"tokenboost-solidity/contracts/utils/StringUtils.sol\";\nimport \"../TransferredTokenSupplyStrategy.sol\";\n\ncontract TransferredTokenSupplyStrategyRenderer is Localizable {\n    using Widgets for Widgets.Widget;\n    using Elements for Elements.Element;\n    using strings for *;\n    using UintUtils for uint;\n    using AddressUtils for address;\n    using StringUtils for string;\n\n    string public constant TRANSFER = \"transfer\";\n    string public constant TRANSFER_SHORT_DESC = \"transfer_short_desc\";\n    string public constant TRANSFER_LONG_DESC = \"transfer_long_desc\";\n    string public constant STRATEGY_ADDRESS = \"strategy_address\";\n    string public constant AMOUNT = \"amount\";\n    string public constant TRANSFER_CONFIRM = \"update_confirm\";\n    string public constant UNSOLD_TOKENS = \"unsold_tokens\";\n    string public constant WITHDRAW_UNSOLD_TOKENS = \"withdraw_unsold_tokens\";\n    string public constant WITHDRAW_UNSOLD_TOKENS_SHORT_DESC = \"unsold_tokens_short_desc\";\n    string public constant WITHDRAW_UNSOLD_TOKENS_LONG_DESC = \"unsold_tokens_long_desc\";\n    string public constant WITHDRAW_UNSOLD_TOKENS_CONFIRM = \"withdraw_unsold_tokens_confirm\";\n\n    function adminWidgets(string _locale, TransferredTokenSupplyStrategy _strategy) public view returns (string) {\n        bool finished = _strategy.sale().finished();\n        string memory json = \"[\";\n        uint length = 0;\n        string[] memory widgets = new string[](finished ? 2 : 1);\n        widgets[0] = _transferWidget(_locale, _strategy);\n        if (finished) {\n            widgets[1] = _withdrawTokensWidget(_locale, _strategy);\n        }\n        for (uint i = 0; i < widgets.length; i++) {\n            string memory widget = widgets[i];\n            if (bytes(widget).length > 0) {\n                if (length > 0) {\n                    json = json.toSlice().concat(\",\".toSlice());\n                }\n                json = json.toSlice().concat(widget.toSlice());\n                length++;\n            }\n        }\n        return json.toSlice().concat(\"]\".toSlice());\n    }\n\n    function _transferWidget(string _locale, TransferredTokenSupplyStrategy _strategy) private view returns (string json) {\n        Elements.Element[] memory elements = new Elements.Element[](3);\n        DetailedERC20 erc20 = DetailedERC20(_strategy.sale().token());\n        uint256 decimals = uint256(erc20.decimals());\n        elements[0] = Elements.Element(\n            true,\n            STRATEGY_ADDRESS,\n            \"address\",\n            resources[_locale][STRATEGY_ADDRESS],\n            address(_strategy).toString().quoted(),\n            Actions.empty(),\n            Tables.empty()\n        );\n        elements[1] = Elements.Element(\n            true,\n            AMOUNT,\n            \"tokenEdit\".toSlice().concat(decimals.toString().toSlice()),\n            resources[_locale][AMOUNT],\n            \"0\",\n            Actions.empty(),\n            Tables.empty()\n        );\n        elements[2] = Elements.Element(\n            true,\n            TRANSFER,\n            \"button\",\n            resources[_locale][TRANSFER],\n            \"null\",\n            Actions.Action(\n                true,\n                address(_strategy.sale().token()),\n                \"transfer(address,uint256)\",\n                '[\"address\",\"amount\"]',\n                resources[_locale][TRANSFER_CONFIRM]\n            ),\n            Tables.empty()\n        );\n        Widgets.Widget memory widget = Widgets.Widget(\n            resources[_locale][TRANSFER],\n            resources[_locale][TRANSFER_SHORT_DESC],\n            resources[_locale][TRANSFER_LONG_DESC],\n            4,\n            elements\n        );\n        return widget.toJson();\n    }\n\n    function _withdrawTokensWidget(string _locale, TransferredTokenSupplyStrategy _strategy) private view returns (string json) {\n        Elements.Element[] memory elements = new Elements.Element[](2);\n        uint256 unsoldTokens = _strategy.sale().token().balanceOf(address(this));\n        DetailedERC20 erc20 = DetailedERC20(_strategy.sale().token());\n        uint256 decimals = uint256(erc20.decimals());\n        elements[0] = Elements.Element(\n            true,\n            UNSOLD_TOKENS,\n            \"token\".toSlice().concat(decimals.toString().toSlice()),\n            resources[_locale][UNSOLD_TOKENS],\n            unsoldTokens.toString(),\n            Actions.empty(),\n            Tables.empty()\n        );\n        elements[1] = Elements.Element(\n            true,\n            WITHDRAW_UNSOLD_TOKENS,\n            \"button\",\n            resources[_locale][WITHDRAW_UNSOLD_TOKENS],\n            \"null\",\n            Actions.Action(\n                true,\n                _strategy,\n                'withdrawTokens()',\n                '[]',\n                resources[_locale][WITHDRAW_UNSOLD_TOKENS_CONFIRM]\n            ),\n            Tables.empty()\n        );\n        Widgets.Widget memory widget = Widgets.Widget(\n            resources[_locale][WITHDRAW_UNSOLD_TOKENS],\n            resources[_locale][WITHDRAW_UNSOLD_TOKENS_SHORT_DESC],\n            resources[_locale][WITHDRAW_UNSOLD_TOKENS_LONG_DESC],\n            4,\n            elements\n        );\n        return widget.toJson();\n    }\n\n    function userWidgets(string _locale, TransferredTokenSupplyStrategy _strategy) public view returns (string json) {\n        return \"[]\";\n    }\n\n    function inputs(string _locale, TransferredTokenSupplyStrategy _strategy) public view returns (string) {\n        return \"[]\";\n    }\n}\n",
  "sourcePath": "/Users/yoonjae/SolidityProjects/tokenboost-solidity-erc20sale-strategies/contracts/strategy/sale/erc20/transferred-token-supply/widget/TransferredTokenSupplyStrategyRenderer.sol",
  "compiler": {
    "name": "solc",
    "version": "0.4.24+commit.e67f0147.Emscripten.clang"
  },
  "schemaVersion": "2.0.1",
  "updatedAt": "2018-10-11T18:38:34.767Z"
}