{
  "contractName": "TransferredTokenSupplyStrategyRenderer",
  "abi": [
    {
      "constant": true,
      "inputs": [],
      "name": "WITHDRAW_UNSOLD_TOKENS_CONFIRM",
      "outputs": [
        {
          "name": "",
          "type": "string"
        }
      ],
      "payable": false,
      "stateMutability": "view",
      "type": "function"
    },
    {
      "constant": true,
      "inputs": [],
      "name": "WITHDRAW_UNSOLD_TOKENS",
      "outputs": [
        {
          "name": "",
          "type": "string"
        }
      ],
      "payable": false,
      "stateMutability": "view",
      "type": "function"
    },
    {
      "constant": true,
      "inputs": [],
      "name": "TRANSFERRED_TOKENS",
      "outputs": [
        {
          "name": "",
          "type": "string"
        }
      ],
      "payable": false,
      "stateMutability": "view",
      "type": "function"
    },
    {
      "constant": true,
      "inputs": [],
      "name": "STRATEGY_ADDRESS",
      "outputs": [
        {
          "name": "",
          "type": "string"
        }
      ],
      "payable": false,
      "stateMutability": "view",
      "type": "function"
    },
    {
      "constant": true,
      "inputs": [],
      "name": "TRANSFER_SHORT_DESC",
      "outputs": [
        {
          "name": "",
          "type": "string"
        }
      ],
      "payable": false,
      "stateMutability": "view",
      "type": "function"
    },
    {
      "constant": false,
      "inputs": [],
      "name": "renounceOwnership",
      "outputs": [],
      "payable": false,
      "stateMutability": "nonpayable",
      "type": "function"
    },
    {
      "constant": true,
      "inputs": [],
      "name": "TRANSFER",
      "outputs": [
        {
          "name": "",
          "type": "string"
        }
      ],
      "payable": false,
      "stateMutability": "view",
      "type": "function"
    },
    {
      "constant": true,
      "inputs": [],
      "name": "TRANSFER_CONFIRM",
      "outputs": [
        {
          "name": "",
          "type": "string"
        }
      ],
      "payable": false,
      "stateMutability": "view",
      "type": "function"
    },
    {
      "constant": true,
      "inputs": [],
      "name": "owner",
      "outputs": [
        {
          "name": "",
          "type": "address"
        }
      ],
      "payable": false,
      "stateMutability": "view",
      "type": "function"
    },
    {
      "constant": true,
      "inputs": [],
      "name": "TRANSFER_LONG_DESC",
      "outputs": [
        {
          "name": "",
          "type": "string"
        }
      ],
      "payable": false,
      "stateMutability": "view",
      "type": "function"
    },
    {
      "constant": true,
      "inputs": [],
      "name": "TRANSFERRED_TOKENS_SHORT_DESC",
      "outputs": [
        {
          "name": "",
          "type": "string"
        }
      ],
      "payable": false,
      "stateMutability": "view",
      "type": "function"
    },
    {
      "constant": true,
      "inputs": [],
      "name": "WITHDRAW_UNSOLD_TOKENS_LONG_DESC",
      "outputs": [
        {
          "name": "",
          "type": "string"
        }
      ],
      "payable": false,
      "stateMutability": "view",
      "type": "function"
    },
    {
      "constant": true,
      "inputs": [],
      "name": "WITHDRAW_UNSOLD_TOKENS_SHORT_DESC",
      "outputs": [
        {
          "name": "",
          "type": "string"
        }
      ],
      "payable": false,
      "stateMutability": "view",
      "type": "function"
    },
    {
      "constant": true,
      "inputs": [],
      "name": "TRANSFERRED_TOKENS_LONG_DESC",
      "outputs": [
        {
          "name": "",
          "type": "string"
        }
      ],
      "payable": false,
      "stateMutability": "view",
      "type": "function"
    },
    {
      "constant": true,
      "inputs": [],
      "name": "UNSOLD_TOKENS",
      "outputs": [
        {
          "name": "",
          "type": "string"
        }
      ],
      "payable": false,
      "stateMutability": "view",
      "type": "function"
    },
    {
      "constant": true,
      "inputs": [],
      "name": "AMOUNT",
      "outputs": [
        {
          "name": "",
          "type": "string"
        }
      ],
      "payable": false,
      "stateMutability": "view",
      "type": "function"
    },
    {
      "constant": false,
      "inputs": [
        {
          "name": "locale",
          "type": "string"
        },
        {
          "name": "key",
          "type": "string"
        },
        {
          "name": "value",
          "type": "string"
        }
      ],
      "name": "setResource",
      "outputs": [],
      "payable": false,
      "stateMutability": "nonpayable",
      "type": "function"
    },
    {
      "constant": false,
      "inputs": [
        {
          "name": "_newOwner",
          "type": "address"
        }
      ],
      "name": "transferOwnership",
      "outputs": [],
      "payable": false,
      "stateMutability": "nonpayable",
      "type": "function"
    },
    {
      "constant": true,
      "inputs": [
        {
          "name": "locale",
          "type": "string"
        },
        {
          "name": "key",
          "type": "string"
        }
      ],
      "name": "resource",
      "outputs": [
        {
          "name": "",
          "type": "string"
        }
      ],
      "payable": false,
      "stateMutability": "view",
      "type": "function"
    },
    {
      "anonymous": false,
      "inputs": [
        {
          "indexed": true,
          "name": "previousOwner",
          "type": "address"
        }
      ],
      "name": "OwnershipRenounced",
      "type": "event"
    },
    {
      "anonymous": false,
      "inputs": [
        {
          "indexed": true,
          "name": "previousOwner",
          "type": "address"
        },
        {
          "indexed": true,
          "name": "newOwner",
          "type": "address"
        }
      ],
      "name": "OwnershipTransferred",
      "type": "event"
    },
    {
      "constant": true,
      "inputs": [
        {
          "name": "_locale",
          "type": "string"
        },
        {
          "name": "_strategy",
          "type": "address"
        }
      ],
      "name": "adminWidgets",
      "outputs": [
        {
          "name": "",
          "type": "string"
        }
      ],
      "payable": false,
      "stateMutability": "view",
      "type": "function"
    },
    {
      "constant": true,
      "inputs": [
        {
          "name": "_locale",
          "type": "string"
        },
        {
          "name": "_strategy",
          "type": "address"
        }
      ],
      "name": "userWidgets",
      "outputs": [
        {
          "name": "json",
          "type": "string"
        }
      ],
      "payable": false,
      "stateMutability": "view",
      "type": "function"
    },
    {
      "constant": true,
      "inputs": [
        {
          "name": "_locale",
          "type": "string"
        },
        {
          "name": "_strategy",
          "type": "address"
        }
      ],
      "name": "inputs",
      "outputs": [
        {
          "name": "",
          "type": "string"
        }
      ],
      "payable": false,
      "stateMutability": "view",
      "type": "function"
    }
  ],
  "bytecode": "0x608060405260008054600160a060020a0319163317905561464c806100256000396000f30060806040526004361061010e5763ffffffff60e060020a60003504166311dbf248811461011357806321f288751461019d57806322e3fa30146101b25780634cb08fff146101c7578063679211df146101dc578063715018a6146101f157806376420e1d146102085780638143b2ea1461021d5780638da5cb5b146102325780638eba96be1461026357806390f47847146102785780639b53d5c91461028d578063a85990cf146102a2578063b2f98a86146102b7578063bf3bed54146102cc578063cbb4992414610330578063d178917614610345578063e77cee3d146102cc578063e94995551461035a578063ed3487fe146103be578063f2fde38b14610493578063f65a5c1b146104b4575b600080fd5b34801561011f57600080fd5b5061012861054b565b6040805160208082528351818301528351919283929083019185019080838360005b8381101561016257818101518382015260200161014a565b50505050905090810190601f16801561018f5780820380516001836020036101000a031916815260200191505b509250505060405180910390f35b3480156101a957600080fd5b50610128610582565b3480156101be57600080fd5b506101286105a7565b3480156101d357600080fd5b506101286105de565b3480156101e857600080fd5b50610128610615565b3480156101fd57600080fd5b5061020661064c565b005b34801561021457600080fd5b506101286106b8565b34801561022957600080fd5b506101286106dd565b34801561023e57600080fd5b50610247610714565b60408051600160a060020a039092168252519081900360200190f35b34801561026f57600080fd5b50610128610723565b34801561028457600080fd5b5061012861075a565b34801561029957600080fd5b50610128610791565b3480156102ae57600080fd5b506101286107c8565b3480156102c357600080fd5b506101286107ff565b3480156102d857600080fd5b506040805160206004803580820135601f810184900484028501840190955284845261012894369492936024939284019190819084018382808284375094975050509235600160a060020a0316935061083692505050565b34801561033c57600080fd5b5061012861086f565b34801561035157600080fd5b506101286108a6565b34801561036657600080fd5b506040805160206004803580820135601f810184900484028501840190955284845261012894369492936024939284019190819084018382808284375094975050509235600160a060020a031693506108cb92505050565b3480156103ca57600080fd5b506040805160206004803580820135601f810184900484028501840190955284845261020694369492936024939284019190819084018382808284375050604080516020601f89358b018035918201839004830284018301909452808352979a99988101979196509182019450925082915084018382808284375050604080516020601f89358b018035918201839004830284018301909452808352979a999881019791965091820194509250829150840183828082843750949750610baa9650505050505050565b34801561049f57600080fd5b50610206600160a060020a0360043516610c97565b3480156104c057600080fd5b506040805160206004803580820135601f810184900484028501840190955284845261012894369492936024939284019190819084018382808284375050604080516020601f89358b018035918201839004830284018301909452808352979a999881019791965091820194509250829150840183828082843750949750610cba9650505050505050565b60408051808201909152601e81527f77697468647261775f756e736f6c645f746f6b656e735f636f6e6669726d0000602082015281565b60408051808201909152601681526000805160206145c1833981519152602082015281565b60408051808201909152601281527f7472616e736665727265645f746f6b656e730000000000000000000000000000602082015281565b60408051808201909152601081527f73747261746567795f6164647265737300000000000000000000000000000000602082015281565b60408051808201909152601381527f7472616e736665725f73686f72745f6465736300000000000000000000000000602082015281565b600054600160a060020a0316331461066357600080fd5b60008054604051600160a060020a03909116917ff8df31144d9c2f0f6b59d69b8b98abd5459d07f2742c4df920b25aae33c6482091a26000805473ffffffffffffffffffffffffffffffffffffffff19169055565b60408051808201909152600881526000805160206145e1833981519152602082015281565b60408051808201909152600e81527f7570646174655f636f6e6669726d000000000000000000000000000000000000602082015281565b600054600160a060020a031681565b60408051808201909152601281527f7472616e736665725f6c6f6e675f646573630000000000000000000000000000602082015281565b60408051808201909152601d81527f7472616e736665727265645f746f6b656e735f73686f72745f64657363000000602082015281565b60408051808201909152601781527f756e736f6c645f746f6b656e735f6c6f6e675f64657363000000000000000000602082015281565b60408051808201909152601881527f756e736f6c645f746f6b656e735f73686f72745f646573630000000000000000602082015281565b60408051808201909152601c81527f7472616e736665727265645f746f6b656e735f6c6f6e675f6465736300000000602082015281565b505060408051808201909152600281527f5b5d000000000000000000000000000000000000000000000000000000000000602082015290565b60408051808201909152600d81527f756e736f6c645f746f6b656e7300000000000000000000000000000000000000602082015281565b6040805180820190915260068152600080516020614601833981519152602082015281565b606060006060600060606000606087600160a060020a0316636ad1fe026040518163ffffffff1660e060020a028152600401602060405180830381600087803b15801561091757600080fd5b505af115801561092b573d6000803e3d6000fd5b505050506040513d602081101561094157600080fd5b5051604080517fbef4876b0000000000000000000000000000000000000000000000000000000081529051600160a060020a039092169163bef4876b916004808201926020929091908290030181600087803b1580156109a057600080fd5b505af11580156109b4573d6000803e3d6000fd5b505050506040513d60208110156109ca57600080fd5b505160408051808201909152600181527f5b00000000000000000000000000000000000000000000000000000000000000602082015290965094506000935085610a15576002610a18565b60035b60ff16604051908082528060200260200182016040528015610a4e57816020015b6060815260200190600190039081610a395790505b509250610a5b8989610e0b565b836000815181101515610a6a57fe5b60209081029091010152610a7e8989611715565b836001815181101515610a8d57fe5b602090810290910101528515610ac157610aa78989612629565b836002815181101515610ab657fe5b602090810290910101525b600091505b8251821015610b5c578282815181101515610add57fe5b906020019060200201519050600081511115610b51576000841115610b3c57610b39610b2460408051908101604052806001815260200160fa60020a600b02815250613452565b610b2d87613452565b9063ffffffff61347b16565b94505b610b48610b2482613452565b94506001909301925b600190910190610ac6565b610b9d610b246040805190810160405280600181526020017f5d00000000000000000000000000000000000000000000000000000000000000815250613452565b9998505050505050505050565b600054600160a060020a03163314610bc157600080fd5b806001846040518082805190602001908083835b60208310610bf45780518252601f199092019160209182019101610bd5565b51815160209384036101000a6000190180199092169116179052920194855250604051938490038101842087519094889450925082918401908083835b60208310610c505780518252601f199092019160209182019101610c31565b51815160209384036101000a60001901801990921691161790529201948552506040519384900381019093208451610c919591949190910192509050614411565b50505050565b600054600160a060020a03163314610cae57600080fd5b610cb7816134f2565b50565b60606001836040518082805190602001908083835b60208310610cee5780518252601f199092019160209182019101610ccf565b51815160209384036101000a6000190180199092169116179052920194855250604051938490038101842086519094879450925082918401908083835b60208310610d4a5780518252601f199092019160209182019101610d2b565b518151600019602094850361010090810a820192831692199390931691909117909252949092019687526040805197889003820188208054601f6002600183161590980290950116959095049283018290048202880182019052818752929450925050830182828015610dfe5780601f10610dd357610100808354040283529160200191610dfe565b820191906000526020600020905b815481529060010190602001808311610de157829003601f168201915b5050505050905092915050565b606080600080610e1961448f565b60408051600180825281830190925290816020015b610e366144bf565b815260200190600190039081610e2e57905050935085600160a060020a0316636ad1fe026040518163ffffffff1660e060020a028152600401602060405180830381600087803b158015610e8957600080fd5b505af1158015610e9d573d6000803e3d6000fd5b505050506040513d6020811015610eb357600080fd5b50516040805160e160020a637e062a350281529051600160a060020a039092169163fc0c546a916004808201926020929091908290030181600087803b158015610efc57600080fd5b505af1158015610f10573d6000803e3d6000fd5b505050506040513d6020811015610f2657600080fd5b5051604080517f313ce5670000000000000000000000000000000000000000000000000000000081529051919450600160a060020a0385169163313ce567916004808201926020929091908290030181600087803b158015610f8757600080fd5b505af1158015610f9b573d6000803e3d6000fd5b505050506040513d6020811015610fb157600080fd5b50516040805160e08101825260018152815180830183526006815260008051602061460183398151915260208281019190915282015260ff90921693508101611042611004610fff8661356f565b613452565b610b2d6040805190810160405280600581526020017f746f6b656e000000000000000000000000000000000000000000000000000000815250613452565b81526020016001896040518082805190602001908083835b602083106110795780518252601f19909201916020918201910161105a565b51815160209384036101000a60001901801990921691161790529201948552506040805194859003820185208582018252600680875260008051602061460183398151915293870193845291519095945092508291908083835b602083106110f25780518252601f1990920191602091820191016110d3565b518151600019602094850361010090810a820192831692199390931691909117909252949092019687526040805197889003820188208054601f60026001831615909802909501169590950492830182900482028801820190528187529294509250508301828280156111a65780601f1061117b576101008083540402835291602001916111a6565b820191906000526020600020905b81548152906001019060200180831161118957829003601f168201915b5050505050815260200161123f85600160a060020a03166370a082318a6040518263ffffffff1660e060020a0281526004018082600160a060020a0316600160a060020a03168152602001915050602060405180830381600087803b15801561120e57600080fd5b505af1158015611222573d6000803e3d6000fd5b505050506040513d602081101561123857600080fd5b505161356f565b815260200161124c6136ce565b8152602001611259613721565b905284518590600090811061126a57fe5b9060200190602002018190525060a0604051908101604052806001896040518082805190602001908083835b602083106112b55780518252601f199092019160209182019101611296565b51815160209384036101000a6000190180199092169116179052920194855250604080519485900382018520858201825260128087527f7472616e736665727265645f746f6b656e73000000000000000000000000000093870193845291519095945092508291908083835b602083106113405780518252601f199092019160209182019101611321565b518151600019602094850361010090810a820192831692199390931691909117909252949092019687526040805197889003820188208054601f60026001831615909802909501169590950492830182900482028801820190528187529294509250508301828280156113f45780601f106113c9576101008083540402835291602001916113f4565b820191906000526020600020905b8154815290600101906020018083116113d757829003601f168201915b505050505081526020016001896040518082805190602001908083835b602083106114305780518252601f199092019160209182019101611411565b51815160209384036101000a60001901801990921691161790529201948552506040805194859003820185208582018252601d8087527f7472616e736665727265645f746f6b656e735f73686f72745f6465736300000093870193845291519095945092508291908083835b602083106114bb5780518252601f19909201916020918201910161149c565b518151600019602094850361010090810a820192831692199390931691909117909252949092019687526040805197889003820188208054601f600260018316159098029095011695909504928301829004820288018201905281875292945092505083018282801561156f5780601f106115445761010080835404028352916020019161156f565b820191906000526020600020905b81548152906001019060200180831161155257829003601f168201915b505050505081526020016001896040518082805190602001908083835b602083106115ab5780518252601f19909201916020918201910161158c565b51815160209384036101000a60001901801990921691161790529201948552506040805194859003820185208582018252601c8087527f7472616e736665727265645f746f6b656e735f6c6f6e675f646573630000000093870193845291519095945092508291908083835b602083106116365780518252601f199092019160209182019101611617565b518151600019602094850361010090810a820192831692199390931691909117909252949092019687526040805197889003820188208054601f60026001831615909802909501169590950492830182900482028801820190528187529294509250508301828280156116ea5780601f106116bf576101008083540402835291602001916116ea565b820191906000526020600020905b8154815290600101906020018083116116cd57829003601f168201915b505050505081526020016004815260200185815250905061170a816137ae565b979650505050505050565b60608060008061172361448f565b6040805160038082526080820190925290816020015b6117416144bf565b81526020019060019003908161173957905050935085600160a060020a0316636ad1fe026040518163ffffffff1660e060020a028152600401602060405180830381600087803b15801561179457600080fd5b505af11580156117a8573d6000803e3d6000fd5b505050506040513d60208110156117be57600080fd5b50516040805160e160020a637e062a350281529051600160a060020a039092169163fc0c546a916004808201926020929091908290030181600087803b15801561180757600080fd5b505af115801561181b573d6000803e3d6000fd5b505050506040513d602081101561183157600080fd5b5051604080517f313ce5670000000000000000000000000000000000000000000000000000000081529051919450600160a060020a0385169163313ce567916004808201926020929091908290030181600087803b15801561189257600080fd5b505af11580156118a6573d6000803e3d6000fd5b505050506040513d60208110156118bc57600080fd5b50516040805160e081018252600180825282518084018452601081527f73747261746567795f61646472657373000000000000000000000000000000006020828101919091528381019190915283518085018552600781527f6164647265737300000000000000000000000000000000000000000000000000818301528385015292518b5160ff90951696509193606085019391928c92909182918401908083835b6020831061197d5780518252601f19909201916020918201910161195e565b51815160209384036101000a6000190180199092169116179052920194855250604080519485900382018520858201825260108087527f73747261746567795f616464726573730000000000000000000000000000000093870193845291519095945092508291908083835b60208310611a085780518252601f1990920191602091820191016119e9565b518151600019602094850361010090810a820192831692199390931691909117909252949092019687526040805197889003820188208054601f6002600183161590980290950116959095049283018290048202880182019052818752929450925050830182828015611abc5780601f10611a9157610100808354040283529160200191611abc565b820191906000526020600020905b815481529060010190602001808311611a9f57829003601f168201915b50505050508152602001611ae0611adb89600160a060020a0316613a0b565b613b4e565b8152602001611aed6136ce565b8152602001611afa613721565b9052845185906000908110611b0b57fe5b60209081029091018101919091526040805160e08101825260018152815180830183526006815260008051602061460183398151915281850152928101929092528101611b9b611b5d610fff8661356f565b610b2d6040805190810160405280600981526020017f746f6b656e456469740000000000000000000000000000000000000000000000815250613452565b81526020016001896040518082805190602001908083835b60208310611bd25780518252601f199092019160209182019101611bb3565b51815160209384036101000a60001901801990921691161790529201948552506040805194859003820185208582018252600680875260008051602061460183398151915293870193845291519095945092508291908083835b60208310611c4b5780518252601f199092019160209182019101611c2c565b518151600019602094850361010090810a820192831692199390931691909117909252949092019687526040805197889003820188208054601f6002600183161590980290950116959095049283018290048202880182019052818752929450925050830182828015611cff5780601f10611cd457610100808354040283529160200191611cff565b820191906000526020600020905b815481529060010190602001808311611ce257829003601f168201915b505050505081526020016040805190810160405280600181526020017f30000000000000000000000000000000000000000000000000000000000000008152508152602001611d4c6136ce565b8152602001611d59613721565b9052845185906001908110611d6a57fe5b9060200190602002018190525060e0604051908101604052806001151581526020016040805190810160405280600881526020016000805160206145e183398151915281525081526020016040805190810160405280600681526020017f627574746f6e000000000000000000000000000000000000000000000000000081525081526020016001896040518082805190602001908083835b60208310611e225780518252601f199092019160209182019101611e03565b51815160209384036101000a6000190180199092169116179052920194855250604080519485900382018520858201825260088087526000805160206145e183398151915293870193845291519095945092508291908083835b60208310611e9b5780518252601f199092019160209182019101611e7c565b518151600019602094850361010090810a820192831692199390931691909117909252949092019687526040805197889003820188208054601f6002600183161590980290950116959095049283018290048202880182019052818752929450925050830182828015611f4f5780601f10611f2457610100808354040283529160200191611f4f565b820191906000526020600020905b815481529060010190602001808311611f3257829003601f168201915b5050505050815260200160408051908101604052806004815260200160e260020a631b9d5b1b02815250815260200160a06040519081016040528060011515815260200189600160a060020a0316636ad1fe026040518163ffffffff1660e060020a028152600401602060405180830381600087803b158015611fd157600080fd5b505af1158015611fe5573d6000803e3d6000fd5b505050506040513d6020811015611ffb57600080fd5b50516040805160e160020a637e062a350281529051600160a060020a039092169163fc0c546a916004808201926020929091908290030181600087803b15801561204457600080fd5b505af1158015612058573d6000803e3d6000fd5b505050506040513d602081101561206e57600080fd5b5051600160a060020a03168152604080518082018252601981527f7472616e7366657228616464726573732c75696e7432353629000000000000006020828101919091528381019190915281518083018352601d81527f5b2273747261746567795f61646472657373222c22616d6f756e74225d000000818301528284015290518c516060909301926001928e929182918401908083835b602083106121255780518252601f199092019160209182019101612106565b51815160209384036101000a60001901801990921691161790529201948552506040805194859003820185208582018252600e8087527f7570646174655f636f6e6669726d00000000000000000000000000000000000093870193845291519095945092508291908083835b602083106121b05780518252601f199092019160209182019101612191565b518151600019602094850361010090810a820192831692199390931691909117909252949092019687526040805197889003820188208054601f60026001831615909802909501169590950492830182900482028801820190528187529294509250508301828280156122645780601f1061223957610100808354040283529160200191612264565b820191906000526020600020905b81548152906001019060200180831161224757829003601f168201915b50505050508152508152602001612279613721565b905284518590600290811061228a57fe5b9060200190602002018190525060a0604051908101604052806001896040518082805190602001908083835b602083106122d55780518252601f1990920191602091820191016122b6565b51815160209384036101000a6000190180199092169116179052920194855250604080519485900382018520858201825260088087526000805160206145e183398151915293870193845291519095945092508291908083835b6020831061234e5780518252601f19909201916020918201910161232f565b518151600019602094850361010090810a820192831692199390931691909117909252949092019687526040805197889003820188208054601f60026001831615909802909501169590950492830182900482028801820190528187529294509250508301828280156124025780601f106123d757610100808354040283529160200191612402565b820191906000526020600020905b8154815290600101906020018083116123e557829003601f168201915b505050505081526020016001896040518082805190602001908083835b6020831061243e5780518252601f19909201916020918201910161241f565b51815160209384036101000a6000190180199092169116179052920194855250604080519485900382018520858201825260138087527f7472616e736665725f73686f72745f646573630000000000000000000000000093870193845291519095945092508291908083835b602083106124c95780518252601f1990920191602091820191016124aa565b518151600019602094850361010090810a820192831692199390931691909117909252949092019687526040805197889003820188208054601f600260018316159098029095011695909504928301829004820288018201905281875292945092505083018282801561257d5780601f106125525761010080835404028352916020019161257d565b820191906000526020600020905b81548152906001019060200180831161256057829003601f168201915b505050505081526020016001896040518082805190602001908083835b602083106125b95780518252601f19909201916020918201910161259a565b51815160209384036101000a6000190180199092169116179052920194855250604080519485900382018520858201825260128087527f7472616e736665725f6c6f6e675f6465736300000000000000000000000000009387019384529151909594509250829190808383611636565b606080600080600061263961448f565b6040805160028082526060820190925290816020015b6126576144bf565b81526020019060019003908161264f57905050945086600160a060020a0316636ad1fe026040518163ffffffff1660e060020a028152600401602060405180830381600087803b1580156126aa57600080fd5b505af11580156126be573d6000803e3d6000fd5b505050506040513d60208110156126d457600080fd5b50516040805160e160020a637e062a350281529051600160a060020a039092169163fc0c546a916004808201926020929091908290030181600087803b15801561271d57600080fd5b505af1158015612731573d6000803e3d6000fd5b505050506040513d602081101561274757600080fd5b5051604080517f70a082310000000000000000000000000000000000000000000000000000000081523060048201529051600160a060020a03909216916370a08231916024808201926020929091908290030181600087803b1580156127ac57600080fd5b505af11580156127c0573d6000803e3d6000fd5b505050506040513d60208110156127d657600080fd5b5051604080517f6ad1fe020000000000000000000000000000000000000000000000000000000081529051919550600160a060020a03891691636ad1fe02916004808201926020929091908290030181600087803b15801561283757600080fd5b505af115801561284b573d6000803e3d6000fd5b505050506040513d602081101561286157600080fd5b50516040805160e160020a637e062a350281529051600160a060020a039092169163fc0c546a916004808201926020929091908290030181600087803b1580156128aa57600080fd5b505af11580156128be573d6000803e3d6000fd5b505050506040513d60208110156128d457600080fd5b5051604080517f313ce5670000000000000000000000000000000000000000000000000000000081529051919450600160a060020a0385169163313ce567916004808201926020929091908290030181600087803b15801561293557600080fd5b505af1158015612949573d6000803e3d6000fd5b505050506040513d602081101561295f57600080fd5b50516040805160e0810182526001815281518083018352600d81527f756e736f6c645f746f6b656e730000000000000000000000000000000000000060208281019190915282015260ff909216935081016129bf611004610fff8661356f565b815260200160018a6040518082805190602001908083835b602083106129f65780518252601f1990920191602091820191016129d7565b51815160209384036101000a60001901801990921691161790529201948552506040805194859003820185208582018252600d8087527f756e736f6c645f746f6b656e730000000000000000000000000000000000000093870193845291519095945092508291908083835b60208310612a815780518252601f199092019160209182019101612a62565b518151600019602094850361010090810a820192831692199390931691909117909252949092019687526040805197889003820188208054601f6002600183161590980290950116959095049283018290048202880182019052818752929450925050830182828015612b355780601f10612b0a57610100808354040283529160200191612b35565b820191906000526020600020905b815481529060010190602001808311612b1857829003601f168201915b50505050508152602001612b488661356f565b8152602001612b556136ce565b8152602001612b62613721565b9052855186906000908110612b7357fe5b9060200190602002018190525060e0604051908101604052806001151581526020016040805190810160405280601681526020016000805160206145c183398151915281525081526020016040805190810160405280600681526020017f627574746f6e0000000000000000000000000000000000000000000000000000815250815260200160018a6040518082805190602001908083835b60208310612c2b5780518252601f199092019160209182019101612c0c565b51815160209384036101000a6000190180199092169116179052920194855250604080519485900382018520858201825260168087526000805160206145c183398151915293870193845291519095945092508291908083835b60208310612ca45780518252601f199092019160209182019101612c85565b518151600019602094850361010090810a820192831692199390931691909117909252949092019687526040805197889003820188208054601f6002600183161590980290950116959095049283018290048202880182019052818752929450925050830182828015612d585780601f10612d2d57610100808354040283529160200191612d58565b820191906000526020600020905b815481529060010190602001808311612d3b57829003601f168201915b5050505050815260200160408051908101604052806004815260200160e260020a631b9d5b1b02815250815260200160a0604051908101604052806001151581526020018a600160a060020a031681526020016040805190810160405280601081526020017f7769746864726177546f6b656e7328290000000000000000000000000000000081525081526020016040805190810160405280600281526020017f5b5d000000000000000000000000000000000000000000000000000000000000815250815260200160018c6040518082805190602001908083835b60208310612e535780518252601f199092019160209182019101612e34565b51815160209384036101000a60001901801990921691161790529201948552506040805194859003820185208582018252601e8087527f77697468647261775f756e736f6c645f746f6b656e735f636f6e6669726d000093870193845291519095945092508291908083835b60208310612ede5780518252601f199092019160209182019101612ebf565b518151600019602094850361010090810a820192831692199390931691909117909252949092019687526040805197889003820188208054601f6002600183161590980290950116959095049283018290048202880182019052818752929450925050830182828015612f925780601f10612f6757610100808354040283529160200191612f92565b820191906000526020600020905b815481529060010190602001808311612f7557829003601f168201915b50505050508152508152602001612fa7613721565b9052855186906001908110612fb857fe5b9060200190602002018190525060a06040519081016040528060018a6040518082805190602001908083835b602083106130035780518252601f199092019160209182019101612fe4565b51815160209384036101000a6000190180199092169116179052920194855250604080519485900382018520858201825260168087526000805160206145c183398151915293870193845291519095945092508291908083835b6020831061307c5780518252601f19909201916020918201910161305d565b518151600019602094850361010090810a820192831692199390931691909117909252949092019687526040805197889003820188208054601f60026001831615909802909501169590950492830182900482028801820190528187529294509250508301828280156131305780601f1061310557610100808354040283529160200191613130565b820191906000526020600020905b81548152906001019060200180831161311357829003601f168201915b5050505050815260200160018a6040518082805190602001908083835b6020831061316c5780518252601f19909201916020918201910161314d565b51815160209384036101000a6000190180199092169116179052920194855250604080519485900382018520858201825260188087527f756e736f6c645f746f6b656e735f73686f72745f64657363000000000000000093870193845291519095945092508291908083835b602083106131f75780518252601f1990920191602091820191016131d8565b518151600019602094850361010090810a820192831692199390931691909117909252949092019687526040805197889003820188208054601f60026001831615909802909501169590950492830182900482028801820190528187529294509250508301828280156132ab5780601f10613280576101008083540402835291602001916132ab565b820191906000526020600020905b81548152906001019060200180831161328e57829003601f168201915b5050505050815260200160018a6040518082805190602001908083835b602083106132e75780518252601f1990920191602091820191016132c8565b51815160209384036101000a6000190180199092169116179052920194855250604080519485900382018520858201825260178087527f756e736f6c645f746f6b656e735f6c6f6e675f6465736300000000000000000093870193845291519095945092508291908083835b602083106133725780518252601f199092019160209182019101613353565b518151600019602094850361010090810a820192831692199390931691909117909252949092019687526040805197889003820188208054601f60026001831615909802909501169590950492830182900482028801820190528187529294509250508301828280156134265780601f106133fb57610100808354040283529160200191613426565b820191906000526020600020905b81548152906001019060200180831161340957829003601f168201915b5050505050815260200160048152602001868152509050613446816137ae565b98975050505050505050565b61345a61450b565b50604080518082019091528151815260208281019082018190525b50919050565b606080600083600001518560000151016040519080825280601f01601f1916602001820160405280156134b8578160200160208202803883390190505b5091506020820190506134d48186602001518760000151613bb2565b8451602085015185516134ea9284019190613bb2565b509392505050565b600160a060020a038116151561350757600080fd5b60008054604051600160a060020a03808516939216917f8be0079c531659141344cd1fd0a4f28419497f9722a3daafe3b4186f6b6457e091a36000805473ffffffffffffffffffffffffffffffffffffffff1916600160a060020a0392909216919091179055565b606080600081818515156135b85760408051808201909152600181527f3000000000000000000000000000000000000000000000000000000000000000602082015294506136c5565b6040805160208082528183019092529080820161040080388339019050509350600092505b600086111561362a57600a860660300160f860020a02848481518110151561360157fe5b906020010190600160f860020a031916908160001a905350600a860495506001909201916135dd565b60408051848152601f19601f8601168101602001909152600019840193801561365d578160200160208202803883390190505b509150600090505b81518110156136c15783516000198401938591811061368057fe5b90602001015160f860020a900460f860020a0282828151811015156136a157fe5b906020010190600160f860020a031916908160001a905350600101613665565b8194505b50505050919050565b6136d6614522565b506040805160a0810182526000808252602080830182905283518082018552828152838501528351808201855282815260608401528351908101909352825260808101919091525b90565b61372961454f565b6040805160608101825260008082528251818152602081810190945291928301919061376b565b613758614573565b8152602001906001900390816137505790505b50815260200160006040519080825280602002602001820160405280156137a657816020015b60608152602001906001900390816137915790505b509052905090565b60408051808201909152600a81527f7b227469746c65223a22000000000000000000000000000000000000000000006020820152815160609190600090613801906137f890613452565b610b2d84613452565b91506138446137f86040805190810160405280600f81526020017f222c2273686f727444657363223a220000000000000000000000000000000000815250613452565b91506138566137f88560200151613452565b91506138996137f86040805190810160405280600e81526020017f222c226c6f6e6744657363223a22000000000000000000000000000000000000815250613452565b91506138ab6137f88560400151613452565b91506138ee6137f86040805190810160405280600a81526020017f222c227769647468223a00000000000000000000000000000000000000000000815250613452565b91506139036137f8610fff866060015161356f565b91506139466137f86040805190810160405280600d81526020017f2c22656c656d656e7473223a5b00000000000000000000000000000000000000815250613452565b9150600090505b8360800151518110156139c257600081111561398e5761398b6137f860408051908101604052806001815260200160fa60020a600b02815250613452565b91505b6139b86137f8610fff8660800151848151811015156139a957fe5b90602001906020020151613bf6565b915060010161394d565b613a036137f86040805190810160405280600281526020017f5d7d000000000000000000000000000000000000000000000000000000000000815250613452565b949350505050565b60408051602a80825260608083019093528291600091829182916020820161054080388339505081519195507f3000000000000000000000000000000000000000000000000000000000000000918691506000908110613a6757fe5b906020010190600160f860020a031916908160001a90535083517f78000000000000000000000000000000000000000000000000000000000000009085906001908110613ab057fe5b906020010190600160f860020a031916908160001a905350859250600091505b6028821015613b4457506030600f8316016039600160a060020a0382161115613af7576027015b8060f860020a028483602803600101815181101515613b1257fe5b906020010190600160f860020a031916908160001a9053506010600160a060020a038416049250600190910190613ad0565b5091949350505050565b6060613bac613b7860408051908101604052806001815260200160f960020a601102815250613452565b610b2d610fff613b8786613452565b610b2d60408051908101604052806001815260200160f960020a601102815250613452565b92915050565b60005b60208210613bd7578251845260209384019390920191601f1990910190613bb5565b50905182516020929092036101000a6000190180199091169116179052565b606080826000015115613e90576040805190810160405280600781526020017f7b226964223a22000000000000000000000000000000000000000000000000008152509050613c54613c4b8460200151613452565b610b2d83613452565b9050613c7e613c4b60408051908101604052806001815260200160f960020a601102815250613452565b60a08401515190915015613ce557613ccd613c4b6040805190810160405280600b81526020017f2c2022616374696f6e223a000000000000000000000000000000000000000000815250613452565b9050613ce2613c4b610fff8560a00151613eb5565b90505b60c08301515115613d4957613d31613c4b6040805190810160405280600a81526020017f2c20227461626c65223a00000000000000000000000000000000000000000000815250613452565b9050613d46613c4b610fff8560c00151614058565b90505b613d8a613c4b6040805190810160405280600981526020017f2c2274797065223a220000000000000000000000000000000000000000000000815250613452565b9050613d9c613c4b8460400151613452565b9050613ddf613c4b6040805190810160405280600b81526020017f222c226c6162656c223a22000000000000000000000000000000000000000000815250613452565b9050613df1613c4b8460600151613452565b9050613e34613c4b6040805190810160405280600981526020017f222c2264617461223a0000000000000000000000000000000000000000000000815250613452565b9050613e46613c4b8460800151613452565b9050613e89613c4b6040805190810160405280600181526020017f7d00000000000000000000000000000000000000000000000000000000000000815250613452565b9150613475565b604080518082019091526004815260e260020a631b9d5b1b0260208201529150613475565b606080826000015115613e90576040805190810160405280600c81526020017f7b2261646472657373223a2200000000000000000000000000000000000000008152509050613f16613c4b610fff8560200151600160a060020a0316613a0b565b9050613f59613c4b6040805190810160405280601681526020017f222c2266756e6374696f6e53656c6563746f72223a2200000000000000000000815250613452565b9050613f6b613c4b8460400151613452565b9050613fae613c4b6040805190810160405280600e81526020017f222c22617267756d656e7473223a000000000000000000000000000000000000815250613452565b9050613fc0613c4b8460600151613452565b9050614003613c4b6040805190810160405280600c81526020017f2c22636f6e6669726d223a220000000000000000000000000000000000000000815250613452565b9050614015613c4b8460800151613452565b9050613e89613c4b6040805190810160405280600281526020017f227d000000000000000000000000000000000000000000000000000000000000815250613452565b60608060008084600001511561423057505060408051808201909152600c81527f7b22636f6c756d6e73223a5b0000000000000000000000000000000000000000602082015290506000805b8460200151518110156141265760008211156140ee576140eb6140e260408051908101604052806001815260200160fa60020a600b02815250613452565b610b2d85613452565b92505b6141186140e2610fff87602001518481518110151561410957fe5b90602001906020020151614259565b9250600191820191016140a4565b6141676140e26040805190810160405280600a81526020017f5d2c22726f7773223a5b00000000000000000000000000000000000000000000815250613452565b925060009150600090505b8460400151518110156141e85760008211156141b3576141b06140e260408051908101604052806001815260200160fa60020a600b02815250613452565b92505b6141da6140e28660400151838151811015156141cb57fe5b90602001906020020151613452565b925060019182019101614172565b6142296140e26040805190810160405280600281526020017f5d7d000000000000000000000000000000000000000000000000000000000000815250613452565b9350614251565b604080518082019091526004815260e260020a631b9d5b1b02602082015293505b505050919050565b606080826000015115613e90576040805190810160405280600781526020017f7b226964223a220000000000000000000000000000000000000000000000000081525090506142ae613c4b8460200151613452565b90506142d8613c4b60408051908101604052806001815260200160f960020a601102815250613452565b608084015151909150156143695761430e613c4b60408051908101604052806001815260200160fa60020a600b02815250613452565b9050614351613c4b6040805190810160405280600981526020017f22616374696f6e223a0000000000000000000000000000000000000000000000815250613452565b9050614366613c4b610fff8560800151613eb5565b90505b6143aa613c4b6040805190810160405280600981526020017f2c2274797065223a220000000000000000000000000000000000000000000000815250613452565b90506143bc613c4b8460400151613452565b90506143ff613c4b6040805190810160405280600b81526020017f222c226c6162656c223a22000000000000000000000000000000000000000000815250613452565b9050614015613c4b8460600151613452565b828054600181600116156101000203166002900490600052602060002090601f016020900481019282601f1061445257805160ff191683800117855561447f565b8280016001018555821561447f579182015b8281111561447f578251825591602001919060010190614464565b5061448b9291506145a6565b5090565b60a06040519081016040528060608152602001606081526020016060815260200160008152602001606081525090565b6101a060405190810160405280600015158152602001606081526020016060815260200160608152602001606081526020016144f9614522565b815260200161450661454f565b905290565b604080518082019091526000808252602082015290565b6040805160a081018252600080825260208201526060918101829052818101829052608081019190915290565b60606040519081016040528060001515815260200160608152602001606081525090565b61012060405190810160405280600015158152602001606081526020016060815260200160608152602001614506614522565b61371e91905b8082111561448b57600081556001016145ac560077697468647261775f756e736f6c645f746f6b656e73000000000000000000007472616e73666572000000000000000000000000000000000000000000000000616d6f756e740000000000000000000000000000000000000000000000000000a165627a7a72305820dce7c89d636e16778a35ab3d2e0cb8854d66f96a3801ab78889a242f7814dd150029",
  "source": "pragma solidity ^0.4.24;\n\nimport \"zeppelin-solidity/contracts/token/ERC20/DetailedERC20.sol\";\nimport \"tokenboost-solidity/contracts/widget/Localizable.sol\";\nimport \"tokenboost-solidity/contracts/widget/Widgets.sol\";\nimport \"tokenboost-solidity/contracts/utils/StringUtils.sol\";\nimport \"../TransferredTokenSupplyStrategy.sol\";\n\ncontract TransferredTokenSupplyStrategyRenderer is Localizable {\n    using Widgets for Widgets.Widget;\n    using Elements for Elements.Element;\n    using strings for *;\n    using UintUtils for uint;\n    using AddressUtils for address;\n    using StringUtils for string;\n\n    string public constant TRANSFER = \"transfer\";\n    string public constant TRANSFER_SHORT_DESC = \"transfer_short_desc\";\n    string public constant TRANSFER_LONG_DESC = \"transfer_long_desc\";\n    string public constant TRANSFERRED_TOKENS = \"transferred_tokens\";\n    string public constant TRANSFERRED_TOKENS_SHORT_DESC = \"transferred_tokens_short_desc\";\n    string public constant TRANSFERRED_TOKENS_LONG_DESC = \"transferred_tokens_long_desc\";\n    string public constant STRATEGY_ADDRESS = \"strategy_address\";\n    string public constant AMOUNT = \"amount\";\n    string public constant TRANSFER_CONFIRM = \"update_confirm\";\n    string public constant UNSOLD_TOKENS = \"unsold_tokens\";\n    string public constant WITHDRAW_UNSOLD_TOKENS = \"withdraw_unsold_tokens\";\n    string public constant WITHDRAW_UNSOLD_TOKENS_SHORT_DESC = \"unsold_tokens_short_desc\";\n    string public constant WITHDRAW_UNSOLD_TOKENS_LONG_DESC = \"unsold_tokens_long_desc\";\n    string public constant WITHDRAW_UNSOLD_TOKENS_CONFIRM = \"withdraw_unsold_tokens_confirm\";\n\n    function adminWidgets(string _locale, TransferredTokenSupplyStrategy _strategy) public view returns (string) {\n        bool finished = _strategy.sale().finished();\n        string memory json = \"[\";\n        uint length = 0;\n        string[] memory widgets = new string[](finished ? 3 : 2);\n        widgets[0] = _transferredTokensWidget(_locale, _strategy);\n        widgets[1] = _transferWidget(_locale, _strategy);\n        if (finished) {\n            widgets[2] = _withdrawTokensWidget(_locale, _strategy);\n        }\n        for (uint i = 0; i < widgets.length; i++) {\n            string memory widget = widgets[i];\n            if (bytes(widget).length > 0) {\n                if (length > 0) {\n                    json = json.toSlice().concat(\",\".toSlice());\n                }\n                json = json.toSlice().concat(widget.toSlice());\n                length++;\n            }\n        }\n        return json.toSlice().concat(\"]\".toSlice());\n    }\n\n    function _transferredTokensWidget(string _locale, TransferredTokenSupplyStrategy _strategy) private view returns (string json) {\n        Elements.Element[] memory elements = new Elements.Element[](1);\n        DetailedERC20 erc20 = DetailedERC20(_strategy.sale().token());\n        uint256 decimals = uint256(erc20.decimals());\n        elements[0] = Elements.Element(\n            true,\n            AMOUNT,\n            \"token\".toSlice().concat(decimals.toString().toSlice()),\n            resources[_locale][AMOUNT],\n            erc20.balanceOf(_strategy).toString(),\n            Actions.empty(),\n            Tables.empty()\n        );\n        Widgets.Widget memory widget = Widgets.Widget(\n            resources[_locale][TRANSFERRED_TOKENS],\n            resources[_locale][TRANSFERRED_TOKENS_SHORT_DESC],\n            resources[_locale][TRANSFERRED_TOKENS_LONG_DESC],\n            4,\n            elements\n        );\n        return widget.toJson();\n    }\n\n    function _transferWidget(string _locale, TransferredTokenSupplyStrategy _strategy) private view returns (string json) {\n        Elements.Element[] memory elements = new Elements.Element[](3);\n        DetailedERC20 erc20 = DetailedERC20(_strategy.sale().token());\n        uint256 decimals = uint256(erc20.decimals());\n        elements[0] = Elements.Element(\n            true,\n            STRATEGY_ADDRESS,\n            \"address\",\n            resources[_locale][STRATEGY_ADDRESS],\n            address(_strategy).toString().quoted(),\n            Actions.empty(),\n            Tables.empty()\n        );\n        elements[1] = Elements.Element(\n            true,\n            AMOUNT,\n            \"tokenEdit\".toSlice().concat(decimals.toString().toSlice()),\n            resources[_locale][AMOUNT],\n            \"0\",\n            Actions.empty(),\n            Tables.empty()\n        );\n        elements[2] = Elements.Element(\n            true,\n            TRANSFER,\n            \"button\",\n            resources[_locale][TRANSFER],\n            \"null\",\n            Actions.Action(\n                true,\n                address(_strategy.sale().token()),\n                \"transfer(address,uint256)\",\n                '[\"strategy_address\",\"amount\"]',\n                resources[_locale][TRANSFER_CONFIRM]\n            ),\n            Tables.empty()\n        );\n        Widgets.Widget memory widget = Widgets.Widget(\n            resources[_locale][TRANSFER],\n            resources[_locale][TRANSFER_SHORT_DESC],\n            resources[_locale][TRANSFER_LONG_DESC],\n            4,\n            elements\n        );\n        return widget.toJson();\n    }\n\n    function _withdrawTokensWidget(string _locale, TransferredTokenSupplyStrategy _strategy) private view returns (string json) {\n        Elements.Element[] memory elements = new Elements.Element[](2);\n        uint256 unsoldTokens = _strategy.sale().token().balanceOf(address(this));\n        DetailedERC20 erc20 = DetailedERC20(_strategy.sale().token());\n        uint256 decimals = uint256(erc20.decimals());\n        elements[0] = Elements.Element(\n            true,\n            UNSOLD_TOKENS,\n            \"token\".toSlice().concat(decimals.toString().toSlice()),\n            resources[_locale][UNSOLD_TOKENS],\n            unsoldTokens.toString(),\n            Actions.empty(),\n            Tables.empty()\n        );\n        elements[1] = Elements.Element(\n            true,\n            WITHDRAW_UNSOLD_TOKENS,\n            \"button\",\n            resources[_locale][WITHDRAW_UNSOLD_TOKENS],\n            \"null\",\n            Actions.Action(\n                true,\n                _strategy,\n                'withdrawTokens()',\n                '[]',\n                resources[_locale][WITHDRAW_UNSOLD_TOKENS_CONFIRM]\n            ),\n            Tables.empty()\n        );\n        Widgets.Widget memory widget = Widgets.Widget(\n            resources[_locale][WITHDRAW_UNSOLD_TOKENS],\n            resources[_locale][WITHDRAW_UNSOLD_TOKENS_SHORT_DESC],\n            resources[_locale][WITHDRAW_UNSOLD_TOKENS_LONG_DESC],\n            4,\n            elements\n        );\n        return widget.toJson();\n    }\n\n    function userWidgets(string _locale, TransferredTokenSupplyStrategy _strategy) public view returns (string json) {\n        return \"[]\";\n    }\n\n    function inputs(string _locale, TransferredTokenSupplyStrategy _strategy) public view returns (string) {\n        return \"[]\";\n    }\n}\n",
  "sourcePath": "/Users/yoonjae/SolidityProjects/tokenboost-solidity-erc20sale-strategies/contracts/strategy/sale/erc20/transferred-token-supply/widget/TransferredTokenSupplyStrategyRenderer.sol",
  "compiler": {
    "name": "solc",
    "version": "0.4.24+commit.e67f0147.Emscripten.clang"
  },
  "schemaVersion": "2.0.1",
  "updatedAt": "2018-10-17T16:28:28.383Z"
}