{
  "contractName": "TransferredTokenSupplyStrategy",
  "abi": [
    {
      "constant": true,
      "inputs": [
        {
          "name": "_interfaceId",
          "type": "bytes4"
        }
      ],
      "name": "supportsInterface",
      "outputs": [
        {
          "name": "",
          "type": "bool"
        }
      ],
      "payable": false,
      "stateMutability": "view",
      "type": "function"
    },
    {
      "constant": false,
      "inputs": [],
      "name": "activate",
      "outputs": [
        {
          "name": "",
          "type": "bool"
        }
      ],
      "payable": false,
      "stateMutability": "nonpayable",
      "type": "function"
    },
    {
      "constant": true,
      "inputs": [],
      "name": "activated",
      "outputs": [
        {
          "name": "",
          "type": "bool"
        }
      ],
      "payable": false,
      "stateMutability": "view",
      "type": "function"
    },
    {
      "constant": true,
      "inputs": [],
      "name": "InterfaceId_ERC165",
      "outputs": [
        {
          "name": "",
          "type": "bytes4"
        }
      ],
      "payable": false,
      "stateMutability": "view",
      "type": "function"
    },
    {
      "constant": false,
      "inputs": [],
      "name": "deactivate",
      "outputs": [
        {
          "name": "",
          "type": "bool"
        }
      ],
      "payable": false,
      "stateMutability": "nonpayable",
      "type": "function"
    },
    {
      "constant": true,
      "inputs": [],
      "name": "InterfaceId_Strategy",
      "outputs": [
        {
          "name": "",
          "type": "bytes4"
        }
      ],
      "payable": false,
      "stateMutability": "view",
      "type": "function"
    },
    {
      "constant": true,
      "inputs": [],
      "name": "sale",
      "outputs": [
        {
          "name": "",
          "type": "address"
        }
      ],
      "payable": false,
      "stateMutability": "view",
      "type": "function"
    },
    {
      "constant": true,
      "inputs": [],
      "name": "template",
      "outputs": [
        {
          "name": "",
          "type": "address"
        }
      ],
      "payable": false,
      "stateMutability": "view",
      "type": "function"
    },
    {
      "constant": false,
      "inputs": [],
      "name": "renounceOwnership",
      "outputs": [],
      "payable": false,
      "stateMutability": "nonpayable",
      "type": "function"
    },
    {
      "constant": true,
      "inputs": [],
      "name": "renderer",
      "outputs": [
        {
          "name": "",
          "type": "address"
        }
      ],
      "payable": false,
      "stateMutability": "view",
      "type": "function"
    },
    {
      "constant": true,
      "inputs": [],
      "name": "owner",
      "outputs": [
        {
          "name": "",
          "type": "address"
        }
      ],
      "payable": false,
      "stateMutability": "view",
      "type": "function"
    },
    {
      "constant": true,
      "inputs": [],
      "name": "InterfaceId_ERC20SaleStrategy",
      "outputs": [
        {
          "name": "",
          "type": "bytes4"
        }
      ],
      "payable": false,
      "stateMutability": "view",
      "type": "function"
    },
    {
      "constant": true,
      "inputs": [],
      "name": "InterfaceId_SaleStrategy",
      "outputs": [
        {
          "name": "",
          "type": "bytes4"
        }
      ],
      "payable": false,
      "stateMutability": "view",
      "type": "function"
    },
    {
      "constant": false,
      "inputs": [
        {
          "name": "_newOwner",
          "type": "address"
        }
      ],
      "name": "transferOwnership",
      "outputs": [],
      "payable": false,
      "stateMutability": "nonpayable",
      "type": "function"
    },
    {
      "constant": true,
      "inputs": [],
      "name": "InterfaceId_Contract",
      "outputs": [
        {
          "name": "",
          "type": "bytes4"
        }
      ],
      "payable": false,
      "stateMutability": "view",
      "type": "function"
    },
    {
      "inputs": [
        {
          "name": "_owner",
          "type": "address"
        },
        {
          "name": "_sale",
          "type": "address"
        }
      ],
      "payable": false,
      "stateMutability": "nonpayable",
      "type": "constructor"
    },
    {
      "anonymous": false,
      "inputs": [
        {
          "indexed": true,
          "name": "previousOwner",
          "type": "address"
        }
      ],
      "name": "OwnershipRenounced",
      "type": "event"
    },
    {
      "anonymous": false,
      "inputs": [
        {
          "indexed": true,
          "name": "previousOwner",
          "type": "address"
        },
        {
          "indexed": true,
          "name": "newOwner",
          "type": "address"
        }
      ],
      "name": "OwnershipTransferred",
      "type": "event"
    },
    {
      "constant": false,
      "inputs": [],
      "name": "withdrawTokens",
      "outputs": [
        {
          "name": "",
          "type": "bool"
        }
      ],
      "payable": false,
      "stateMutability": "nonpayable",
      "type": "function"
    },
    {
      "constant": true,
      "inputs": [],
      "name": "started",
      "outputs": [
        {
          "name": "",
          "type": "bool"
        }
      ],
      "payable": false,
      "stateMutability": "view",
      "type": "function"
    },
    {
      "constant": true,
      "inputs": [],
      "name": "successful",
      "outputs": [
        {
          "name": "",
          "type": "bool"
        }
      ],
      "payable": false,
      "stateMutability": "view",
      "type": "function"
    },
    {
      "constant": true,
      "inputs": [],
      "name": "finished",
      "outputs": [
        {
          "name": "",
          "type": "bool"
        }
      ],
      "payable": false,
      "stateMutability": "view",
      "type": "function"
    },
    {
      "constant": true,
      "inputs": [
        {
          "name": "_purchaser",
          "type": "address"
        },
        {
          "name": "_weiAmount",
          "type": "uint256"
        }
      ],
      "name": "purchasable",
      "outputs": [
        {
          "name": "",
          "type": "bool"
        }
      ],
      "payable": false,
      "stateMutability": "view",
      "type": "function"
    },
    {
      "constant": true,
      "inputs": [
        {
          "name": "_purchaser",
          "type": "address"
        },
        {
          "name": "_weiAmount",
          "type": "uint256"
        }
      ],
      "name": "tokenRate",
      "outputs": [
        {
          "name": "",
          "type": "uint256"
        }
      ],
      "payable": false,
      "stateMutability": "view",
      "type": "function"
    },
    {
      "constant": false,
      "inputs": [
        {
          "name": "_purchaser",
          "type": "address"
        },
        {
          "name": "_tokenAmount",
          "type": "uint256"
        }
      ],
      "name": "supplyTokens",
      "outputs": [
        {
          "name": "",
          "type": "bool"
        }
      ],
      "payable": false,
      "stateMutability": "nonpayable",
      "type": "function"
    },
    {
      "constant": false,
      "inputs": [
        {
          "name": "_purchaser",
          "type": "address"
        },
        {
          "name": "_tokenAmount",
          "type": "uint256"
        }
      ],
      "name": "receivesTokens",
      "outputs": [
        {
          "name": "",
          "type": "bool"
        }
      ],
      "payable": false,
      "stateMutability": "nonpayable",
      "type": "function"
    },
    {
      "constant": true,
      "inputs": [
        {
          "name": "locale",
          "type": "string"
        }
      ],
      "name": "adminWidgets",
      "outputs": [
        {
          "name": "json",
          "type": "string"
        }
      ],
      "payable": false,
      "stateMutability": "view",
      "type": "function"
    },
    {
      "constant": true,
      "inputs": [
        {
          "name": "locale",
          "type": "string"
        }
      ],
      "name": "userWidgets",
      "outputs": [
        {
          "name": "json",
          "type": "string"
        }
      ],
      "payable": false,
      "stateMutability": "view",
      "type": "function"
    },
    {
      "constant": true,
      "inputs": [
        {
          "name": "locale",
          "type": "string"
        }
      ],
      "name": "inputs",
      "outputs": [
        {
          "name": "json",
          "type": "string"
        }
      ],
      "payable": false,
      "stateMutability": "view",
      "type": "function"
    }
  ],
  "bytecode": "0x60806040523480156200001157600080fd5b50604051604080620013d183398101604052805160209091015160008054600160a060020a03191633179055818181818180620000777f01ffc9a700000000000000000000000000000000000000000000000000000000640100000000620001f2810204565b600160a060020a03811615156200008d57600080fd5b6002805433600160a060020a03199182161790915560008054909116600160a060020a038316179055620000ea7f6125ede500000000000000000000000000000000000000000000000000000000640100000000620001f2810204565b506200011f7f6e30192500000000000000000000000000000000000000000000000000000000640100000000620001f2810204565b5060038054600160a060020a031916600160a060020a0383161790556200016f7f04c8123d00000000000000000000000000000000000000000000000000000000640100000000620001f2810204565b505060048054600160a060020a031916600160a060020a038316179055620001c07fa0d0304b00000000000000000000000000000000000000000000000000000000640100000000620001f2810204565b50506002805460a060020a60ff0219167401000000000000000000000000000000000000000017905550620002629050565b7fffffffff0000000000000000000000000000000000000000000000000000000080821614156200022257600080fd5b7fffffffff00000000000000000000000000000000000000000000000000000000166000908152600160208190526040909120805460ff19169091179055565b61115f80620002726000396000f30060806040526004361061013a5763ffffffff60e060020a60003504166301bd3411811461013f57806301ffc9a71461020d5780630f15f4c014610258578063186601ca1461026d57806319fa8f50146102825780631f2698ab146102c95780634f9a82d6146102de57806351b42b00146103025780635589530e14610317578063587775e81461034d57806364b630d8146103715780636ad1fe02146103865780636f2ddd93146103b7578063715018a6146103cc5780638ada6b0f146103e35780638d8f2adb146103f85780638da5cb5b1461040d578063908ba64814610422578063944ac32b1461047b5780639a9e3fd8146102c9578063a3a8fd2c14610490578063bef4876b146102c9578063ce30824e146104e9578063e67c8646146104fe578063f2fde38b14610522578063fbf964eb14610543575b600080fd5b34801561014b57600080fd5b506040805160206004803580820135601f81018490048402850184019095528484526101989436949293602493928401919081908401838280828437509497506105589650505050505050565b6040805160208082528351818301528351919283929083019185019080838360005b838110156101d25781810151838201526020016101ba565b50505050905090810190601f1680156101ff5780820380516001836020036101000a031916815260200191505b509250505060405180910390f35b34801561021957600080fd5b506102447bffffffffffffffffffffffffffffffffffffffffffffffffffffffff19600435166106c1565b604080519115158252519081900360200190f35b34801561026457600080fd5b506102446106f5565b34801561027957600080fd5b50610244610797565b34801561028e57600080fd5b506102976107b8565b604080517bffffffffffffffffffffffffffffffffffffffffffffffffffffffff199092168252519081900360200190f35b3480156102d557600080fd5b506102446107dc565b3480156102ea57600080fd5b50610244600160a060020a03600435166024356107e1565b34801561030e57600080fd5b50610244610903565b34801561032357600080fd5b5061033b600160a060020a03600435166024356109c8565b60408051918252519081900360200190f35b34801561035957600080fd5b50610244600160a060020a03600435166024356109d0565b34801561037d57600080fd5b50610297610afd565b34801561039257600080fd5b5061039b610b21565b60408051600160a060020a039092168252519081900360200190f35b3480156103c357600080fd5b5061039b610b30565b3480156103d857600080fd5b506103e1610b3f565b005b3480156103ef57600080fd5b5061039b610bab565b34801561040457600080fd5b50610244610bc3565b34801561041957600080fd5b5061039b610ea4565b34801561042e57600080fd5b506040805160206004803580820135601f8101849004840285018401909552848452610198943694929360249392840191908190840183828082843750949750610eb39650505050505050565b34801561048757600080fd5b50610297610f40565b34801561049c57600080fd5b506040805160206004803580820135601f8101849004840285018401909552848452610198943694929360249392840191908190840183828082843750949750610f649650505050505050565b3480156104f557600080fd5b50610297610ff1565b34801561050a57600080fd5b50610244600160a060020a03600435166024356109c8565b34801561052e57600080fd5b506103e1600160a060020a0360043516611015565b34801561054f57600080fd5b50610297611038565b604080517fbf3bed54000000000000000000000000000000000000000000000000000000008152306024820181905260048201928352835160448301528351606093735f5f5472616e73666572726564546f6b656e53759363bf3bed549387939092918291606490910190602086019080838360005b838110156105e65781810151838201526020016105ce565b50505050905090810190601f1680156106135780820380516001836020036101000a031916815260200191505b509350505050600060405180830381600087803b15801561063357600080fd5b505af1158015610647573d6000803e3d6000fd5b505050506040513d6000823e601f3d908101601f19168201604052602081101561067057600080fd5b81019080805164010000000081111561068857600080fd5b8201602081018481111561069b57600080fd5b81516401000000008111828201871017156106b557600080fd5b50909695505050505050565b7bffffffffffffffffffffffffffffffffffffffffffffffffffffffff191660009081526001602052604090205460ff1690565b600354604080517f186601ca0000000000000000000000000000000000000000000000000000000081529051600092600160a060020a03169163186601ca91600480830192602092919082900301818787803b15801561075457600080fd5b505af1158015610768573d6000803e3d6000fd5b505050506040513d602081101561077e57600080fd5b50511561078a57600080fd5b61079261105c565b905090565b60025474010000000000000000000000000000000000000000900460ff1681565b7f01ffc9a70000000000000000000000000000000000000000000000000000000081565b600090565b60048054604080517ffc0c546a00000000000000000000000000000000000000000000000000000000815290516000938593600160a060020a03169263fc0c546a928183019260209282900301818887803b15801561083f57600080fd5b505af1158015610853573d6000803e3d6000fd5b505050506040513d602081101561086957600080fd5b5051604080517f70a082310000000000000000000000000000000000000000000000000000000081523060048201529051600160a060020a03909216916370a08231916024808201926020929091908290030181600087803b1580156108ce57600080fd5b505af11580156108e2573d6000803e3d6000fd5b505050506040513d60208110156108f857600080fd5b505110159392505050565b60008054600160a060020a0316331461091b57600080fd5b600360009054906101000a9004600160a060020a0316600160a060020a031663186601ca6040518163ffffffff1660e060020a028152600401602060405180830381600087803b15801561096e57600080fd5b505af1158015610982573d6000803e3d6000fd5b505050506040513d602081101561099857600080fd5b5051156109a457600080fd5b506002805474ff000000000000000000000000000000000000000019169055600190565b600092915050565b6000600460009054906101000a9004600160a060020a0316600160a060020a031663fc0c546a6040518163ffffffff1660e060020a028152600401602060405180830381600087803b158015610a2557600080fd5b505af1158015610a39573d6000803e3d6000fd5b505050506040513d6020811015610a4f57600080fd5b5051604080517fa9059cbb000000000000000000000000000000000000000000000000000000008152600160a060020a038681166004830152602482018690529151919092169163a9059cbb9160448083019260209291908290030181600087803b158015610abd57600080fd5b505af1158015610ad1573d6000803e3d6000fd5b505050506040513d6020811015610ae757600080fd5b50511515610af457600080fd5b50600192915050565b7f6e3019250000000000000000000000000000000000000000000000000000000081565b600454600160a060020a031681565b600254600160a060020a031681565b600054600160a060020a03163314610b5657600080fd5b60008054604051600160a060020a03909116917ff8df31144d9c2f0f6b59d69b8b98abd5459d07f2742c4df920b25aae33c6482091a26000805473ffffffffffffffffffffffffffffffffffffffff19169055565b735f5f5472616e73666572726564546f6b656e537581565b600080548190600160a060020a03163314610bdd57600080fd5b60048054604080517f1f2698ab0000000000000000000000000000000000000000000000000000000081529051600160a060020a0390921692631f2698ab9282820192602092908290030181600087803b158015610c3a57600080fd5b505af1158015610c4e573d6000803e3d6000fd5b505050506040513d6020811015610c6457600080fd5b50511580610cf7575060048054604080517fbef4876b0000000000000000000000000000000000000000000000000000000081529051600160a060020a039092169263bef4876b9282820192602092908290030181600087803b158015610cca57600080fd5b505af1158015610cde573d6000803e3d6000fd5b505050506040513d6020811015610cf457600080fd5b50515b1515610d0257600080fd5b60048054604080517ffc0c546a0000000000000000000000000000000000000000000000000000000081529051600160a060020a039092169263fc0c546a9282820192602092908290030181600087803b158015610d5f57600080fd5b505af1158015610d73573d6000803e3d6000fd5b505050506040513d6020811015610d8957600080fd5b5051604080517f70a082310000000000000000000000000000000000000000000000000000000081523060048201529051919250600160a060020a0383169163a9059cbb91339184916370a082319160248083019260209291908290030181600087803b158015610df957600080fd5b505af1158015610e0d573d6000803e3d6000fd5b505050506040513d6020811015610e2357600080fd5b50516040805160e060020a63ffffffff8616028152600160a060020a03909316600484015260248301919091525160448083019260209291908290030181600087803b158015610e7257600080fd5b505af1158015610e86573d6000803e3d6000fd5b505050506040513d6020811015610e9c57600080fd5b505191505090565b600054600160a060020a031681565b604080517fe77cee3d000000000000000000000000000000000000000000000000000000008152306024820181905260048201928352835160448301528351606093735f5f5472616e73666572726564546f6b656e53759363e77cee3d938793909291829160649091019060208601908083836000838110156105e65781810151838201526020016105ce565b7fa0d0304b0000000000000000000000000000000000000000000000000000000081565b604080517fe9499555000000000000000000000000000000000000000000000000000000008152306024820181905260048201928352835160448301528351606093735f5f5472616e73666572726564546f6b656e53759363e9499555938793909291829160649091019060208601908083836000838110156105e65781810151838201526020016105ce565b7f04c8123d0000000000000000000000000000000000000000000000000000000081565b600054600160a060020a0316331461102c57600080fd5b6110358161107c565b50565b7f6125ede50000000000000000000000000000000000000000000000000000000081565b60008054600160a060020a0316331461107457600080fd5b6107926110f9565b600160a060020a038116151561109157600080fd5b60008054604051600160a060020a03808516939216917f8be0079c531659141344cd1fd0a4f28419497f9722a3daafe3b4186f6b6457e091a36000805473ffffffffffffffffffffffffffffffffffffffff1916600160a060020a0392909216919091179055565b6002805474ff00000000000000000000000000000000000000001916740100000000000000000000000000000000000000001790556001905600a165627a7a723058201b38f0d2a80ef014d5e814c6e6fd5118256180785216484f30b5e0ee4bba99fa0029",
  "source": "pragma solidity ^0.4.24;\n\nimport \"tokenboost-solidity/contracts/strategy/sale/erc20/ERC20SaleStrategy.sol\";\nimport \"tokenboost-solidity/contracts/widget/Renderable.sol\";\nimport \"./widget/TransferredTokenSupplyStrategyRenderer.sol\";\n\ncontract TransferredTokenSupplyStrategy is ERC20SaleStrategy, Renderable {\n    TransferredTokenSupplyStrategyRenderer public constant renderer = TransferredTokenSupplyStrategyRenderer(address(bytes20(\"__TransferredTokenSu\")));\n\n    constructor(address _owner, ERC20Sale _sale) public ERC20SaleStrategy(_owner, _sale) {\n        activated = true;\n    }\n\n    function withdrawTokens() onlyOwner public returns (bool) {\n        require(!sale.started() || sale.finished());\n\n        ERC20 token = sale.token();\n        return token.transfer(msg.sender, token.balanceOf(address(this)));\n    }\n\n    function started() public view returns (bool) {\n        return false;\n    }\n\n    function successful() public view returns (bool) {\n        return false;\n    }\n\n    function finished() public view returns (bool) {\n        return false;\n    }\n\n    function purchasable(address _purchaser, uint256 _weiAmount) public view returns (bool) {\n        return sale.token().balanceOf(address(this)) >= _weiAmount;\n    }\n\n    function tokenRate(address _purchaser, uint256 _weiAmount) public view returns (uint256) {\n        return 0;\n    }\n\n    function supplyTokens(address _purchaser, uint256 _tokenAmount) public returns (bool) {\n        require(sale.token().transfer(_purchaser, _tokenAmount));\n        return true;\n    }\n\n    function receivesTokens(address _purchaser, uint256 _tokenAmount) public returns (bool) {\n        return false;\n    }\n\n    function adminWidgets(string locale) public view returns (string json) {\n        return renderer.adminWidgets(locale, this);\n    }\n\n    function userWidgets(string locale) public view returns (string json) {\n        return renderer.userWidgets(locale, this);\n    }\n\n    function inputs(string locale) public view returns (string json) {\n        return renderer.inputs(locale, this);\n    }\n}\n",
  "sourcePath": "/Users/yoonjae/SolidityProjects/tokenboost-solidity-erc20sale-strategies/contracts/strategy/sale/erc20/transferred-token-supply/TransferredTokenSupplyStrategy.sol",
  "compiler": {
    "name": "solc",
    "version": "0.4.24+commit.e67f0147.Emscripten.clang"
  },
  "schemaVersion": "2.0.1",
  "updatedAt": "2018-10-11T15:56:42.635Z"
}