{
  "contractName": "VeriffKycStrategy",
  "abi": [
    {
      "constant": true,
      "inputs": [
        {
          "name": "_interfaceId",
          "type": "bytes4"
        }
      ],
      "name": "supportsInterface",
      "outputs": [
        {
          "name": "",
          "type": "bool"
        }
      ],
      "payable": false,
      "stateMutability": "view",
      "type": "function"
    },
    {
      "constant": false,
      "inputs": [],
      "name": "activate",
      "outputs": [
        {
          "name": "",
          "type": "bool"
        }
      ],
      "payable": false,
      "stateMutability": "nonpayable",
      "type": "function"
    },
    {
      "constant": true,
      "inputs": [],
      "name": "activated",
      "outputs": [
        {
          "name": "",
          "type": "bool"
        }
      ],
      "payable": false,
      "stateMutability": "view",
      "type": "function"
    },
    {
      "constant": true,
      "inputs": [],
      "name": "InterfaceId_ERC165",
      "outputs": [
        {
          "name": "",
          "type": "bytes4"
        }
      ],
      "payable": false,
      "stateMutability": "view",
      "type": "function"
    },
    {
      "constant": false,
      "inputs": [],
      "name": "deactivate",
      "outputs": [
        {
          "name": "",
          "type": "bool"
        }
      ],
      "payable": false,
      "stateMutability": "nonpayable",
      "type": "function"
    },
    {
      "constant": true,
      "inputs": [],
      "name": "InterfaceId_Strategy",
      "outputs": [
        {
          "name": "",
          "type": "bytes4"
        }
      ],
      "payable": false,
      "stateMutability": "view",
      "type": "function"
    },
    {
      "constant": true,
      "inputs": [],
      "name": "sale",
      "outputs": [
        {
          "name": "",
          "type": "address"
        }
      ],
      "payable": false,
      "stateMutability": "view",
      "type": "function"
    },
    {
      "constant": true,
      "inputs": [],
      "name": "template",
      "outputs": [
        {
          "name": "",
          "type": "address"
        }
      ],
      "payable": false,
      "stateMutability": "view",
      "type": "function"
    },
    {
      "constant": false,
      "inputs": [],
      "name": "renounceOwnership",
      "outputs": [],
      "payable": false,
      "stateMutability": "nonpayable",
      "type": "function"
    },
    {
      "constant": true,
      "inputs": [],
      "name": "renderer",
      "outputs": [
        {
          "name": "",
          "type": "address"
        }
      ],
      "payable": false,
      "stateMutability": "view",
      "type": "function"
    },
    {
      "constant": true,
      "inputs": [],
      "name": "owner",
      "outputs": [
        {
          "name": "",
          "type": "address"
        }
      ],
      "payable": false,
      "stateMutability": "view",
      "type": "function"
    },
    {
      "constant": true,
      "inputs": [],
      "name": "kyc",
      "outputs": [
        {
          "name": "",
          "type": "address"
        }
      ],
      "payable": false,
      "stateMutability": "view",
      "type": "function"
    },
    {
      "constant": true,
      "inputs": [],
      "name": "InterfaceId_ERC20SaleStrategy",
      "outputs": [
        {
          "name": "",
          "type": "bytes4"
        }
      ],
      "payable": false,
      "stateMutability": "view",
      "type": "function"
    },
    {
      "constant": true,
      "inputs": [],
      "name": "InterfaceId_SaleStrategy",
      "outputs": [
        {
          "name": "",
          "type": "bytes4"
        }
      ],
      "payable": false,
      "stateMutability": "view",
      "type": "function"
    },
    {
      "constant": false,
      "inputs": [
        {
          "name": "_newOwner",
          "type": "address"
        }
      ],
      "name": "transferOwnership",
      "outputs": [],
      "payable": false,
      "stateMutability": "nonpayable",
      "type": "function"
    },
    {
      "constant": true,
      "inputs": [],
      "name": "InterfaceId_Contract",
      "outputs": [
        {
          "name": "",
          "type": "bytes4"
        }
      ],
      "payable": false,
      "stateMutability": "view",
      "type": "function"
    },
    {
      "inputs": [
        {
          "name": "_owner",
          "type": "address"
        },
        {
          "name": "_sale",
          "type": "address"
        }
      ],
      "payable": false,
      "stateMutability": "nonpayable",
      "type": "constructor"
    },
    {
      "anonymous": false,
      "inputs": [
        {
          "indexed": true,
          "name": "previousOwner",
          "type": "address"
        }
      ],
      "name": "OwnershipRenounced",
      "type": "event"
    },
    {
      "anonymous": false,
      "inputs": [
        {
          "indexed": true,
          "name": "previousOwner",
          "type": "address"
        },
        {
          "indexed": true,
          "name": "newOwner",
          "type": "address"
        }
      ],
      "name": "OwnershipTransferred",
      "type": "event"
    },
    {
      "constant": true,
      "inputs": [],
      "name": "numberOfCountryCodes",
      "outputs": [
        {
          "name": "",
          "type": "uint256"
        }
      ],
      "payable": false,
      "stateMutability": "view",
      "type": "function"
    },
    {
      "constant": true,
      "inputs": [
        {
          "name": "_index",
          "type": "uint256"
        }
      ],
      "name": "countryCodeAt",
      "outputs": [
        {
          "name": "",
          "type": "string"
        }
      ],
      "payable": false,
      "stateMutability": "view",
      "type": "function"
    },
    {
      "constant": false,
      "inputs": [
        {
          "name": "_whitelisted",
          "type": "bool"
        }
      ],
      "name": "update",
      "outputs": [],
      "payable": false,
      "stateMutability": "nonpayable",
      "type": "function"
    },
    {
      "constant": false,
      "inputs": [
        {
          "name": "_code",
          "type": "string"
        }
      ],
      "name": "addCountryCodeToAllow",
      "outputs": [],
      "payable": false,
      "stateMutability": "nonpayable",
      "type": "function"
    },
    {
      "constant": false,
      "inputs": [
        {
          "name": "_code",
          "type": "string"
        }
      ],
      "name": "removeCountryCodeToAllow",
      "outputs": [],
      "payable": false,
      "stateMutability": "nonpayable",
      "type": "function"
    },
    {
      "constant": false,
      "inputs": [
        {
          "name": "_code",
          "type": "string"
        }
      ],
      "name": "addCountryCodeToReject",
      "outputs": [],
      "payable": false,
      "stateMutability": "nonpayable",
      "type": "function"
    },
    {
      "constant": false,
      "inputs": [
        {
          "name": "_code",
          "type": "string"
        }
      ],
      "name": "removeCountryCodeToReject",
      "outputs": [],
      "payable": false,
      "stateMutability": "nonpayable",
      "type": "function"
    },
    {
      "constant": true,
      "inputs": [],
      "name": "started",
      "outputs": [
        {
          "name": "",
          "type": "bool"
        }
      ],
      "payable": false,
      "stateMutability": "view",
      "type": "function"
    },
    {
      "constant": true,
      "inputs": [],
      "name": "successful",
      "outputs": [
        {
          "name": "",
          "type": "bool"
        }
      ],
      "payable": false,
      "stateMutability": "view",
      "type": "function"
    },
    {
      "constant": true,
      "inputs": [],
      "name": "finished",
      "outputs": [
        {
          "name": "",
          "type": "bool"
        }
      ],
      "payable": false,
      "stateMutability": "view",
      "type": "function"
    },
    {
      "constant": true,
      "inputs": [
        {
          "name": "_purchaser",
          "type": "address"
        },
        {
          "name": "_weiAmount",
          "type": "uint256"
        }
      ],
      "name": "purchasable",
      "outputs": [
        {
          "name": "",
          "type": "bool"
        }
      ],
      "payable": false,
      "stateMutability": "view",
      "type": "function"
    },
    {
      "constant": true,
      "inputs": [
        {
          "name": "_purchaser",
          "type": "address"
        },
        {
          "name": "_weiAmount",
          "type": "uint256"
        }
      ],
      "name": "tokenRate",
      "outputs": [
        {
          "name": "",
          "type": "uint256"
        }
      ],
      "payable": false,
      "stateMutability": "view",
      "type": "function"
    },
    {
      "constant": false,
      "inputs": [
        {
          "name": "_purchaser",
          "type": "address"
        },
        {
          "name": "_tokenAmount",
          "type": "uint256"
        }
      ],
      "name": "supplyTokens",
      "outputs": [
        {
          "name": "",
          "type": "bool"
        }
      ],
      "payable": false,
      "stateMutability": "nonpayable",
      "type": "function"
    },
    {
      "constant": false,
      "inputs": [
        {
          "name": "_purchaser",
          "type": "address"
        },
        {
          "name": "_tokenAmount",
          "type": "uint256"
        }
      ],
      "name": "receivesTokens",
      "outputs": [
        {
          "name": "",
          "type": "bool"
        }
      ],
      "payable": false,
      "stateMutability": "nonpayable",
      "type": "function"
    },
    {
      "constant": true,
      "inputs": [
        {
          "name": "locale",
          "type": "string"
        }
      ],
      "name": "adminWidgets",
      "outputs": [
        {
          "name": "json",
          "type": "string"
        }
      ],
      "payable": false,
      "stateMutability": "view",
      "type": "function"
    },
    {
      "constant": true,
      "inputs": [
        {
          "name": "locale",
          "type": "string"
        }
      ],
      "name": "userWidgets",
      "outputs": [
        {
          "name": "json",
          "type": "string"
        }
      ],
      "payable": false,
      "stateMutability": "view",
      "type": "function"
    },
    {
      "constant": true,
      "inputs": [
        {
          "name": "locale",
          "type": "string"
        }
      ],
      "name": "inputs",
      "outputs": [
        {
          "name": "json",
          "type": "string"
        }
      ],
      "payable": false,
      "stateMutability": "view",
      "type": "function"
    }
  ],
  "bytecode": "0x6102a06040526101f2608081815290620018a660a03980516200002b9160059160209091019062000262565b503480156200003957600080fd5b5060405160408062001a9883398101604052805160209091015160008054600160a060020a031916331790558181818181806200009f7f01ffc9a700000000000000000000000000000000000000000000000000000000640100000000620001f2810204565b600160a060020a0381161515620000b557600080fd5b6002805433600160a060020a03199182161790915560008054909116600160a060020a038316179055620001127f6125ede500000000000000000000000000000000000000000000000000000000640100000000620001f2810204565b50620001477f6e30192500000000000000000000000000000000000000000000000000000000640100000000620001f2810204565b5060038054600160a060020a031916600160a060020a038316179055620001977f04c8123d00000000000000000000000000000000000000000000000000000000640100000000620001f2810204565b505060048054600160a060020a031916600160a060020a038316179055620001e87fa0d0304b00000000000000000000000000000000000000000000000000000000640100000000620001f2810204565b5050505062000307565b7fffffffff0000000000000000000000000000000000000000000000000000000080821614156200022257600080fd5b7fffffffff00000000000000000000000000000000000000000000000000000000166000908152600160208190526040909120805460ff19169091179055565b828054600181600116156101000203166002900490600052602060002090601f016020900481019282601f10620002a557805160ff1916838001178555620002d5565b82800160010185558215620002d5579182015b82811115620002d5578251825591602001919060010190620002b8565b50620002e3929150620002e7565b5090565b6200030491905b80821115620002e35760008155600101620002ee565b90565b61158f80620003176000396000f3006080604052600436106101875763ffffffff60e060020a60003504166301bd3411811461018c57806301ffc9a71461025a5780630f15f4c0146102a5578063186601ca146102ba57806319fa8f50146102cf5780631bcae5a1146103165780631f2698ab1461032e5780634d917c9f146103435780634f9a82d61461035f57806351b42b00146103835780635589530e14610398578063587775e8146103ce57806364b630d8146103f25780636ad1fe02146104075780636be01440146104385780636f2ddd9314610491578063715018a6146104a657806373143c2d146104bb5780638ada6b0f146105145780638da5cb5b14610529578063908ba6481461053e57806390d6b45f14610597578063944ac32b146105ac5780639a9e3fd81461032e578063a3a8fd2c146105c1578063a7a90bc71461061a578063b1d85d7a14610673578063bef4876b1461032e578063c584756a146106cc578063ce30824e146106e1578063e67c8646146103ce578063f2fde38b146106f6578063fbf964eb14610717575b600080fd5b34801561019857600080fd5b506040805160206004803580820135601f81018490048402850184019095528484526101e594369492936024939284019190819084018382808284375094975061072c9650505050505050565b6040805160208082528351818301528351919283929083019185019080838360005b8381101561021f578181015183820152602001610207565b50505050905090810190601f16801561024c5780820380516001836020036101000a031916815260200191505b509250505060405180910390f35b34801561026657600080fd5b506102917bffffffffffffffffffffffffffffffffffffffffffffffffffffffff1960043516610895565b604080519115158252519081900360200190f35b3480156102b157600080fd5b506102916108c9565b3480156102c657600080fd5b5061029161096b565b3480156102db57600080fd5b506102e461098c565b604080517bffffffffffffffffffffffffffffffffffffffffffffffffffffffff199092168252519081900360200190f35b34801561032257600080fd5b506101e56004356109b0565b34801561033a57600080fd5b50610291610a5a565b34801561034f57600080fd5b5061035d6004351515610a5f565b005b34801561036b57600080fd5b50610291600160a060020a0360043516602435610b44565b34801561038f57600080fd5b50610291610ec7565b3480156103a457600080fd5b506103bc600160a060020a0360043516602435610f8c565b60408051918252519081900360200190f35b3480156103da57600080fd5b50610291600160a060020a0360043516602435610f8c565b3480156103fe57600080fd5b506102e4610f94565b34801561041357600080fd5b5061041c610fb8565b60408051600160a060020a039092168252519081900360200190f35b34801561044457600080fd5b506040805160206004803580820135601f810184900484028501840190955284845261035d943694929360249392840191908190840183828082843750949750610fc79650505050505050565b34801561049d57600080fd5b5061041c611052565b3480156104b257600080fd5b5061035d611061565b3480156104c757600080fd5b506040805160206004803580820135601f810184900484028501840190955284845261035d9436949293602493928401919081908401838280828437509497506110cd9650505050505050565b34801561052057600080fd5b5061041c611117565b34801561053557600080fd5b5061041c61112f565b34801561054a57600080fd5b506040805160206004803580820135601f81018490048402850184019095528484526101e594369492936024939284019190819084018382808284375094975061113e9650505050505050565b3480156105a357600080fd5b5061041c6111cb565b3480156105b857600080fd5b506102e46111e3565b3480156105cd57600080fd5b506040805160206004803580820135601f81018490048402850184019095528484526101e59436949293602493928401919081908401838280828437509497506112079650505050505050565b34801561062657600080fd5b506040805160206004803580820135601f810184900484028501840190955284845261035d9436949293602493928401919081908401838280828437509497506112949650505050505050565b34801561067f57600080fd5b506040805160206004803580820135601f810184900484028501840190955284845261035d9436949293602493928401919081908401838280828437509497506112de9650505050505050565b3480156106d857600080fd5b506103bc611328565b3480156106ed57600080fd5b506102e461132d565b34801561070257600080fd5b5061035d600160a060020a0360043516611351565b34801561072357600080fd5b506102e4611374565b604080517fbf3bed54000000000000000000000000000000000000000000000000000000008152306024820181905260048201928352835160448301528351606093735f5f5665726966664b79635374726174656779529363bf3bed549387939092918291606490910190602086019080838360005b838110156107ba5781810151838201526020016107a2565b50505050905090810190601f1680156107e75780820380516001836020036101000a031916815260200191505b509350505050600060405180830381600087803b15801561080757600080fd5b505af115801561081b573d6000803e3d6000fd5b505050506040513d6000823e601f3d908101601f19168201604052602081101561084457600080fd5b81019080805164010000000081111561085c57600080fd5b8201602081018481111561086f57600080fd5b815164010000000081118282018710171561088957600080fd5b50909695505050505050565b7bffffffffffffffffffffffffffffffffffffffffffffffffffffffff191660009081526001602052604090205460ff1690565b600354604080517f186601ca0000000000000000000000000000000000000000000000000000000081529051600092600160a060020a03169163186601ca91600480830192602092919082900301818787803b15801561092857600080fd5b505af115801561093c573d6000803e3d6000fd5b505050506040513d602081101561095257600080fd5b50511561095e57600080fd5b610966611398565b905090565b60025474010000000000000000000000000000000000000000900460ff1681565b7f01ffc9a70000000000000000000000000000000000000000000000000000000081565b6005805460408051602060026001851615610100026000190190941693909304601f8101849004840282018401909252818152606093610a549391929091830182828015610a3f5780601f10610a1457610100808354040283529160200191610a3f565b820191906000526020600020905b815481529060010190602001808311610a2257829003601f168201915b505050505083600202846002026002016113b8565b92915050565b600090565b600054600160a060020a03163314610a7657600080fd5b600360009054906101000a9004600160a060020a0316600160a060020a031663186601ca6040518163ffffffff1660e060020a028152600401602060405180830381600087803b158015610ac957600080fd5b505af1158015610add573d6000803e3d6000fd5b505050506040513d6020811015610af357600080fd5b505115610aff57600080fd5b6004805474ff000000000000000000000000000000000000000019167401000000000000000000000000000000000000000083151502179055610b406108c9565b5050565b600060606000600460149054906101000a900460ff1615610d13575060005b610b6b611328565b811015610d0a57610b7b816109b0565b91506006826040518082805190602001908083835b60208310610baf5780518252601f199092019160209182019101610b90565b51815160209384036101000a600019018019909216911617905292019485525060405193849003019092205460ff169150508015610cf45750604080517f98e4dec5000000000000000000000000000000000000000000000000000000008152600160a060020a0387166004820190815260248201928352845160448301528451735f5f5665726966664b79635f5f5f5f5f5f5f5f5f936398e4dec5938a93889390929160640190602085019080838360005b83811015610c7a578181015183820152602001610c62565b50505050905090810190601f168015610ca75780820380516001836020036101000a031916815260200191505b509350505050602060405180830381600087803b158015610cc757600080fd5b505af1158015610cdb573d6000803e3d6000fd5b505050506040513d6020811015610cf157600080fd5b50515b15610d025760019250610ebf565b600101610b63565b60009250610ebf565b5060005b610d1f611328565b811015610d0a57610d2f816109b0565b91506007826040518082805190602001908083835b60208310610d635780518252601f199092019160209182019101610d44565b51815160209384036101000a600019018019909216911617905292019485525060405193849003019092205460ff16159150508015610ea95750604080517f98e4dec5000000000000000000000000000000000000000000000000000000008152600160a060020a0387166004820190815260248201928352845160448301528451735f5f5665726966664b79635f5f5f5f5f5f5f5f5f936398e4dec5938a93889390929160640190602085019080838360005b83811015610e2f578181015183820152602001610e17565b50505050905090810190601f168015610e5c5780820380516001836020036101000a031916815260200191505b509350505050602060405180830381600087803b158015610e7c57600080fd5b505af1158015610e90573d6000803e3d6000fd5b505050506040513d6020811015610ea657600080fd5b50515b15610eb75760019250610ebf565b600101610d17565b505092915050565b60008054600160a060020a03163314610edf57600080fd5b600360009054906101000a9004600160a060020a0316600160a060020a031663186601ca6040518163ffffffff1660e060020a028152600401602060405180830381600087803b158015610f3257600080fd5b505af1158015610f46573d6000803e3d6000fd5b505050506040513d6020811015610f5c57600080fd5b505115610f6857600080fd5b506002805474ff000000000000000000000000000000000000000019169055600190565b600092915050565b7f6e3019250000000000000000000000000000000000000000000000000000000081565b600454600160a060020a031681565b600054600160a060020a03163314610fde57600080fd5b60016007826040518082805190602001908083835b602083106110125780518252601f199092019160209182019101610ff3565b51815160209384036101000a60001901801990921691161790529201948552506040519384900301909220805460ff191693151593909317909255505050565b600254600160a060020a031681565b600054600160a060020a0316331461107857600080fd5b60008054604051600160a060020a03909116917ff8df31144d9c2f0f6b59d69b8b98abd5459d07f2742c4df920b25aae33c6482091a26000805473ffffffffffffffffffffffffffffffffffffffff19169055565b600054600160a060020a031633146110e457600080fd5b6000600782604051808280519060200190808383602083106110125780518252601f199092019160209182019101610ff3565b735f5f5665726966664b796353747261746567795281565b600054600160a060020a031681565b604080517fe77cee3d000000000000000000000000000000000000000000000000000000008152306024820181905260048201928352835160448301528351606093735f5f5665726966664b79635374726174656779529363e77cee3d938793909291829160649091019060208601908083836000838110156107ba5781810151838201526020016107a2565b735f5f5665726966664b79635f5f5f5f5f5f5f5f5f81565b7fa0d0304b0000000000000000000000000000000000000000000000000000000081565b604080517fe9499555000000000000000000000000000000000000000000000000000000008152306024820181905260048201928352835160448301528351606093735f5f5665726966664b79635374726174656779529363e9499555938793909291829160649091019060208601908083836000838110156107ba5781810151838201526020016107a2565b600054600160a060020a031633146112ab57600080fd5b6000600682604051808280519060200190808383602083106110125780518252601f199092019160209182019101610ff3565b600054600160a060020a031633146112f557600080fd5b6001600682604051808280519060200190808383602083106110125780518252601f199092019160209182019101610ff3565b60f990565b7f04c8123d0000000000000000000000000000000000000000000000000000000081565b600054600160a060020a0316331461136857600080fd5b611371816114ac565b50565b7f6125ede50000000000000000000000000000000000000000000000000000000081565b60008054600160a060020a031633146113b057600080fd5b610966611529565b606080606060008692508585036040519080825280601f01601f1916602001820160405280156113f2578160200160208202803883390190505b5091508590505b848110156114a257828181518110151561140f57fe5b9060200101517f010000000000000000000000000000000000000000000000000000000000000090047f0100000000000000000000000000000000000000000000000000000000000000028287830381518110151561146a57fe5b9060200101907effffffffffffffffffffffffffffffffffffffffffffffffffffffffffffff1916908160001a9053506001016113f9565b5095945050505050565b600160a060020a03811615156114c157600080fd5b60008054604051600160a060020a03808516939216917f8be0079c531659141344cd1fd0a4f28419497f9722a3daafe3b4186f6b6457e091a36000805473ffffffffffffffffffffffffffffffffffffffff1916600160a060020a0392909216919091179055565b6002805474ff00000000000000000000000000000000000000001916740100000000000000000000000000000000000000001790556001905600a165627a7a72305820e655023842381b9239fe60dab5888fb921347af7d44228706d26ec2106c8ad98002941444145414641474149414c414d414f4151415241534154415541574158415a42414242424442454246424742484249424a424c424d424e424f4251425242534254425642574259425a4341434343444346434743484349434b434c434d434e434f435243554356435743584359435a4445444a444b444d444f445a45434545454745484552455345544649464a464b464d464f465247414742474447454746474747484749474c474d474e47504751475247534754475547574759484b484d484e48524854485549444945494c494d494e494f49514952495349544a454a4d4a4f4a504b454b474b484b494b4d4b4e4b504b524b574b594b5a4c414c424c434c494c4b4c524c534c544c554c564c594d414d434d444d454d464d474d484d4b4d4c4d4d4d4e4d4f4d504d514d524d534d544d554d564d574d584d594d5a4e414e434e454e464e474e494e4c4e4f4e504e524e554e5a4f4d50415045504650475048504b504c504d504e5052505350545057505951415245524f52535255525753415342534353445345534753485349534a534b534c534d534e534f535253535354535653585359535a54435444544654475448544a544b544c544d544e544f5452545454565457545a55415547554d55535559555a56415643564556475649564e565557465753594559545a415a4d5a57",
  "source": "pragma solidity ^0.4.24;\n\nimport \"tokenboost-solidity/contracts/strategy/sale/erc20/ERC20SaleStrategy.sol\";\nimport \"tokenboost-solidity/contracts/widget/Renderable.sol\";\nimport \"tokenboost-veriff-kyc/contracts/VeriffKyc.sol\";\nimport \"./widget/VeriffKycStrategyRenderer.sol\";\n\ncontract VeriffKycStrategy is ERC20SaleStrategy, Renderable {\n    VeriffKycStrategyRenderer public constant renderer = VeriffKycStrategyRenderer(address(bytes20(\"__VeriffKycStrategyR\")));\n    VeriffKyc public constant kyc = VeriffKyc(address(bytes20(\"__VeriffKyc_________\")));\n\n    bool whitelisted;\n    string countryCodes = \"ADAEAFAGAIALAMAOAQARASATAUAWAXAZBABBBDBEBFBGBHBIBJBLBMBNBOBQBRBSBTBVBWBYBZCACCCDCFCGCHCICKCLCMCNCOCRCUCVCWCXCYCZDEDJDKDMDODZECEEEGEHERESETFIFJFKFMFOFRGAGBGDGEGFGGGHGIGLGMGNGPGQGRGSGTGUGWGYHKHMHNHRHTHUIDIEILIMINIOIQIRISITJEJMJOJPKEKGKHKIKMKNKPKRKWKYKZLALBLCLILKLRLSLTLULVLYMAMCMDMEMFMGMHMKMLMMMNMOMPMQMRMSMTMUMVMWMXMYMZNANCNENFNGNINLNONPNRNUNZOMPAPEPFPGPHPKPLPMPNPRPSPTPWPYQARERORSRURWSASBSCSDSESGSHSISJSKSLSMSNSOSRSSSTSVSXSYSZTCTDTFTGTHTJTKTLTMTNTOTRTTTVTWTZUAUGUMUSUYUZVAVCVEVGVIVNVUWFWSYEYTZAZMZW\";\n    mapping(string => bool) allowedOfCountryCode;\n    mapping(string => bool) rejectedOfCountryCode;\n\n    constructor(address _owner, ERC20Sale _sale) public ERC20SaleStrategy(_owner, _sale) {\n    }\n\n    function numberOfCountryCodes() public view returns (uint) {\n        return 249;\n    }\n\n    function countryCodeAt(uint _index) public view returns (string) {\n        return _substring(countryCodes, _index * 2, _index * 2 + 2);\n    }\n\n    function _substring(string str, uint startIndex, uint endIndex) private view returns (string) {\n        bytes memory strBytes = bytes(str);\n        bytes memory result = new bytes(endIndex-startIndex);\n        for(uint i = startIndex; i < endIndex; i++) {\n            result[i-startIndex] = strBytes[i];\n        }\n        return string(result);\n    }\n\n    function update(bool _whitelisted) onlyOwner whenSaleNotActivated public {\n        whitelisted = _whitelisted;\n        activate();\n    }\n\n    function addCountryCodeToAllow(string _code) onlyOwner public {\n        allowedOfCountryCode[_code] = true;\n    }\n\n    function removeCountryCodeToAllow(string _code) onlyOwner public {\n        allowedOfCountryCode[_code] = false;\n    }\n\n    function addCountryCodeToReject(string _code) onlyOwner public {\n        rejectedOfCountryCode[_code] = true;\n    }\n\n    function removeCountryCodeToReject(string _code) onlyOwner public {\n        rejectedOfCountryCode[_code] = false;\n    }\n\n    function started() public view returns (bool) {\n        return false;\n    }\n\n    function successful() public view returns (bool) {\n        return false;\n    }\n\n    function finished() public view returns (bool) {\n        return false;\n    }\n\n    function purchasable(address _purchaser, uint256 _weiAmount) public view returns (bool) {\n        string memory code;\n        uint i;\n        if (whitelisted) {\n            for (i = 0; i < numberOfCountryCodes(); i++) {\n                code = countryCodeAt(i);\n                if (allowedOfCountryCode[code] && kyc.countryVerified(_purchaser, code)) {\n                    return true;\n                }\n            }\n            return false;\n        } else {\n            for (i = 0; i < numberOfCountryCodes(); i++) {\n                code = countryCodeAt(i);\n                if (!rejectedOfCountryCode[code] && kyc.countryVerified(_purchaser, code)) {\n                    return true;\n                }\n            }\n            return false;\n        }\n    }\n\n    function tokenRate(address _purchaser, uint256 _weiAmount) public view returns (uint256) {\n        return 0;\n    }\n\n    function supplyTokens(address _purchaser, uint256 _tokenAmount) public returns (bool) {\n        return false;\n    }\n\n    function receivesTokens(address _purchaser, uint256 _tokenAmount) public returns (bool) {\n        return false;\n    }\n\n    function adminWidgets(string locale) public view returns (string json) {\n        return renderer.adminWidgets(locale, this);\n    }\n\n    function userWidgets(string locale) public view returns (string json) {\n        return renderer.userWidgets(locale, this);\n    }\n\n    function inputs(string locale) public view returns (string json) {\n        return renderer.inputs(locale, this);\n    }\n}\n",
  "sourcePath": "/Users/yoonjae/SolidityProjects/tokenboost-solidity-erc20sale-strategies/contracts/strategy/sale/erc20/veriff-kyc/VeriffKycStrategy.sol",
  "compiler": {
    "name": "solc",
    "version": "0.4.24+commit.e67f0147.Emscripten.clang"
  },
  "schemaVersion": "2.0.1",
  "updatedAt": "2018-10-11T14:20:59.209Z"
}