{
  "contractName": "VeriffKycStrategyRenderer",
  "abi": [
    {
      "constant": true,
      "inputs": [],
      "name": "START_KYC_SHORT_DESC",
      "outputs": [
        {
          "name": "",
          "type": "string"
        }
      ],
      "payable": false,
      "stateMutability": "view",
      "type": "function"
    },
    {
      "constant": true,
      "inputs": [],
      "name": "START_KYC",
      "outputs": [
        {
          "name": "",
          "type": "string"
        }
      ],
      "payable": false,
      "stateMutability": "view",
      "type": "function"
    },
    {
      "constant": false,
      "inputs": [],
      "name": "renounceOwnership",
      "outputs": [],
      "payable": false,
      "stateMutability": "nonpayable",
      "type": "function"
    },
    {
      "constant": true,
      "inputs": [],
      "name": "BLACKLISTED_DESC",
      "outputs": [
        {
          "name": "",
          "type": "string"
        }
      ],
      "payable": false,
      "stateMutability": "view",
      "type": "function"
    },
    {
      "constant": true,
      "inputs": [],
      "name": "owner",
      "outputs": [
        {
          "name": "",
          "type": "address"
        }
      ],
      "payable": false,
      "stateMutability": "view",
      "type": "function"
    },
    {
      "constant": true,
      "inputs": [],
      "name": "BLACKLISTED",
      "outputs": [
        {
          "name": "",
          "type": "string"
        }
      ],
      "payable": false,
      "stateMutability": "view",
      "type": "function"
    },
    {
      "constant": true,
      "inputs": [],
      "name": "UPDATE_CONFIRM",
      "outputs": [
        {
          "name": "",
          "type": "string"
        }
      ],
      "payable": false,
      "stateMutability": "view",
      "type": "function"
    },
    {
      "constant": true,
      "inputs": [],
      "name": "START_KYC_LONG_DESC",
      "outputs": [
        {
          "name": "",
          "type": "string"
        }
      ],
      "payable": false,
      "stateMutability": "view",
      "type": "function"
    },
    {
      "constant": true,
      "inputs": [],
      "name": "UPDATE",
      "outputs": [
        {
          "name": "",
          "type": "string"
        }
      ],
      "payable": false,
      "stateMutability": "view",
      "type": "function"
    },
    {
      "constant": false,
      "inputs": [
        {
          "name": "locale",
          "type": "string"
        },
        {
          "name": "key",
          "type": "string"
        },
        {
          "name": "value",
          "type": "string"
        }
      ],
      "name": "setResource",
      "outputs": [],
      "payable": false,
      "stateMutability": "nonpayable",
      "type": "function"
    },
    {
      "constant": false,
      "inputs": [
        {
          "name": "_newOwner",
          "type": "address"
        }
      ],
      "name": "transferOwnership",
      "outputs": [],
      "payable": false,
      "stateMutability": "nonpayable",
      "type": "function"
    },
    {
      "constant": true,
      "inputs": [
        {
          "name": "locale",
          "type": "string"
        },
        {
          "name": "key",
          "type": "string"
        }
      ],
      "name": "resource",
      "outputs": [
        {
          "name": "",
          "type": "string"
        }
      ],
      "payable": false,
      "stateMutability": "view",
      "type": "function"
    },
    {
      "inputs": [
        {
          "name": "_adminWidgetRenderer",
          "type": "address"
        }
      ],
      "payable": false,
      "stateMutability": "nonpayable",
      "type": "constructor"
    },
    {
      "anonymous": false,
      "inputs": [
        {
          "indexed": true,
          "name": "previousOwner",
          "type": "address"
        }
      ],
      "name": "OwnershipRenounced",
      "type": "event"
    },
    {
      "anonymous": false,
      "inputs": [
        {
          "indexed": true,
          "name": "previousOwner",
          "type": "address"
        },
        {
          "indexed": true,
          "name": "newOwner",
          "type": "address"
        }
      ],
      "name": "OwnershipTransferred",
      "type": "event"
    },
    {
      "constant": true,
      "inputs": [
        {
          "name": "_locale",
          "type": "string"
        },
        {
          "name": "_strategy",
          "type": "address"
        }
      ],
      "name": "adminWidgets",
      "outputs": [
        {
          "name": "",
          "type": "string"
        }
      ],
      "payable": false,
      "stateMutability": "view",
      "type": "function"
    },
    {
      "constant": true,
      "inputs": [
        {
          "name": "_locale",
          "type": "string"
        },
        {
          "name": "_strategy",
          "type": "address"
        }
      ],
      "name": "userWidgets",
      "outputs": [
        {
          "name": "",
          "type": "string"
        }
      ],
      "payable": false,
      "stateMutability": "view",
      "type": "function"
    },
    {
      "constant": true,
      "inputs": [
        {
          "name": "_locale",
          "type": "string"
        },
        {
          "name": "_strategy",
          "type": "address"
        }
      ],
      "name": "inputs",
      "outputs": [
        {
          "name": "",
          "type": "string"
        }
      ],
      "payable": false,
      "stateMutability": "view",
      "type": "function"
    }
  ],
  "bytecode": "0x608060405234801561001057600080fd5b50604051602080612fa1833981016040525160008054600160a060020a0319908116331790915560028054600160a060020a0390931692909116919091179055612f428061005f6000396000f3006080604052600436106100da5763ffffffff7c0100000000000000000000000000000000000000000000000000000000600035041663627d08b881146100df5780636b17164214610169578063715018a61461017e5780638ce25eaf146101955780638da5cb5b146101aa578063aa8b2ea7146101db578063b07b3c78146101f0578063b26151ac14610205578063bf3bed541461021a578063d30f6e201461027e578063e77cee3d14610293578063e9499555146102f7578063ed3487fe1461035b578063f2fde38b14610430578063f65a5c1b14610451575b600080fd5b3480156100eb57600080fd5b506100f46104e8565b6040805160208082528351818301528351919283929083019185019080838360005b8381101561012e578181015183820152602001610116565b50505050905090810190601f16801561015b5780820380516001836020036101000a031916815260200191505b509250505060405180910390f35b34801561017557600080fd5b506100f461051f565b34801561018a57600080fd5b50610193610544565b005b3480156101a157600080fd5b506100f46105b0565b3480156101b657600080fd5b506101bf6105e7565b60408051600160a060020a039092168252519081900360200190f35b3480156101e757600080fd5b506100f46105f6565b3480156101fc57600080fd5b506100f461062d565b34801561021157600080fd5b506100f4610664565b34801561022657600080fd5b506040805160206004803580820135601f81018490048402850184019095528484526100f494369492936024939284019190819084018382808284375094975050509235600160a060020a0316935061069b92505050565b34801561028a57600080fd5b506100f46111da565b34801561029f57600080fd5b506040805160206004803580820135601f81018490048402850184019095528484526100f494369492936024939284019190819084018382808284375094975050509235600160a060020a0316935061121192505050565b34801561030357600080fd5b506040805160206004803580820135601f81018490048402850184019095528484526100f494369492936024939284019190819084018382808284375094975050509235600160a060020a031693506112db92505050565b34801561036757600080fd5b506040805160206004803580820135601f810184900484028501840190955284845261019394369492936024939284019190819084018382808284375050604080516020601f89358b018035918201839004830284018301909452808352979a99988101979196509182019450925082915084018382808284375050604080516020601f89358b018035918201839004830284018301909452808352979a99988101979196509182019450925082915084018382808284375094975061143f9650505050505050565b34801561043c57600080fd5b50610193600160a060020a036004351661152c565b34801561045d57600080fd5b506040805160206004803580820135601f81018490048402850184019095528484526100f494369492936024939284019190819084018382808284375050604080516020601f89358b018035918201839004830284018301909452808352979a99988101979196509182019450925082915084018382808284375094975061154f9650505050505050565b60408051808201909152601481527f73746172745f6b79635f73686f72745f64657363000000000000000000000000602082015281565b6040805180820190915260098152600080516020612ef7833981519152602082015281565b600054600160a060020a0316331461055b57600080fd5b60008054604051600160a060020a03909116917ff8df31144d9c2f0f6b59d69b8b98abd5459d07f2742c4df920b25aae33c6482091a26000805473ffffffffffffffffffffffffffffffffffffffff19169055565b60408051808201909152601081527f626c61636b6c69737465645f6465736300000000000000000000000000000000602082015281565b600054600160a060020a031681565b60408051808201909152600b81527f626c61636b6c6973746564000000000000000000000000000000000000000000602082015281565b60408051808201909152600b81527f7570646174655f64657363000000000000000000000000000000000000000000602082015281565b60408051808201909152601381527f73746172745f6b79635f6c6f6e675f6465736300000000000000000000000000602082015281565b604080516003808252608082019092526060918291829160009190816020015b6106c3612d47565b8152602001906001900390816106bb57905050925060e0604051908101604052806001151581526020016040805190810160405280601081526020017f626c61636b6c69737465645f646573630000000000000000000000000000000081525081526020016040805190810160405280600481526020017f74657874000000000000000000000000000000000000000000000000000000008152508152602001602060405190810160405280600081525081526020016108f76001896040518082805190602001908083835b602083106107ae5780518252601f19909201916020918201910161078f565b51815160209384036101000a6000190180199092169116179052920194855250604080519485900382018520858201825260108087527f626c61636b6c69737465645f646573630000000000000000000000000000000093870193845291519095945092508291908083835b602083106108395780518252601f19909201916020918201910161081a565b518151600019602094850361010090810a820192831692199390931691909117909252949092019687526040805197889003820188208054601f60026001831615909802909501169590950492830182900482028801820190528187529294509250508301828280156108ed5780601f106108c2576101008083540402835291602001916108ed565b820191906000526020600020905b8154815290600101906020018083116108d057829003601f168201915b50505050506116a0565b8152602001610904611704565b8152602001610911611757565b905283518490600090811061092257fe5b9060200190602002018190525060e0604051908101604052806001151581526020016040805190810160405280600b81526020017f626c61636b6c697374656400000000000000000000000000000000000000000081525081526020016040805190810160405280600681526020017f737769746368000000000000000000000000000000000000000000000000000081525081526020016001886040518082805190602001908083835b602083106109ec5780518252601f1990920191602091820191016109cd565b51815160209384036101000a60001901801990921691161790529201948552506040805194859003820185208582018252600b8087527f626c61636b6c697374656400000000000000000000000000000000000000000093870193845291519095945092508291908083835b60208310610a775780518252601f199092019160209182019101610a58565b518151600019602094850361010090810a820192831692199390931691909117909252949092019687526040805197889003820188208054601f6002600183161590980290950116959095049283018290048202880182019052818752929450925050830182828015610b2b5780601f10610b0057610100808354040283529160200191610b2b565b820191906000526020600020905b815481529060010190602001808311610b0e57829003601f168201915b5050505050815260200186600160a060020a0316635bae9ce96040518163ffffffff167c0100000000000000000000000000000000000000000000000000000000028152600401602060405180830381600087803b158015610b8c57600080fd5b505af1158015610ba0573d6000803e3d6000fd5b505050506040513d6020811015610bb657600080fd5b5051610bf55760408051808201909152600581527f66616c73650000000000000000000000000000000000000000000000000000006020820152610c2a565b60408051808201909152600481527f747275650000000000000000000000000000000000000000000000000000000060208201525b8152602001610c37611704565b8152602001610c44611757565b9052835184906001908110610c5557fe5b9060200190602002018190525060e0604051908101604052806001151581526020016040805190810160405280600681526020017f757064617465000000000000000000000000000000000000000000000000000081525081526020016040805190810160405280600681526020017f627574746f6e000000000000000000000000000000000000000000000000000081525081526020016001886040518082805190602001908083835b60208310610d1f5780518252601f199092019160209182019101610d00565b51815160209384036101000a6000190180199092169116179052920194855250604080519485900382018520858201825260068087527f757064617465000000000000000000000000000000000000000000000000000093870193845291519095945092508291908083835b60208310610daa5780518252601f199092019160209182019101610d8b565b518151600019602094850361010090810a820192831692199390931691909117909252949092019687526040805197889003820188208054601f6002600183161590980290950116959095049283018290048202880182019052818752929450925050830182828015610e5e5780601f10610e3357610100808354040283529160200191610e5e565b820191906000526020600020905b815481529060010190602001808311610e4157829003601f168201915b5050505050815260200160408051908101604052806004815260200160e260020a631b9d5b1b02815250815260200160a06040519081016040528060011515815260200188600160a060020a031681526020016040805190810160405280600c81526020017f75706461746528626f6f6c29000000000000000000000000000000000000000081525081526020016040805190810160405280600f81526020017f5b22626c61636b6c6973746564225d0000000000000000000000000000000000815250815260200160018a6040518082805190602001908083835b60208310610f595780518252601f199092019160209182019101610f3a565b51815160209384036101000a60001901801990921691161790529201948552506040805194859003820185208582018252600b8087527f7570646174655f6465736300000000000000000000000000000000000000000093870193845291519095945092508291908083835b60208310610fe45780518252601f199092019160209182019101610fc5565b518151600019602094850361010090810a820192831692199390931691909117909252949092019687526040805197889003820188208054601f60026001831615909802909501169590950492830182900482028801820190528187529294509250508301828280156110985780601f1061106d57610100808354040283529160200191611098565b820191906000526020600020905b81548152906001019060200180831161107b57829003601f168201915b505050505081525081526020016110ad611757565b90528351849060029081106110be57fe5b906020019060200201819052506040805190810160405280600181526020017f5b000000000000000000000000000000000000000000000000000000000000008152509150600090505b825181101561118f57600081111561115a5761115761114260408051908101604052806001815260200160fa60020a600b028152506117e4565b61114b846117e4565b9063ffffffff61180d16565b91505b611185611142611180858481518110151561117157fe5b90602001906020020151611884565b6117e4565b9150600101611108565b6111d06111426040805190810160405280600181526020017f5d000000000000000000000000000000000000000000000000000000000000008152506117e4565b9695505050505050565b60408051808201909152600681527f7570646174650000000000000000000000000000000000000000000000000000602082015281565b606061121d8383611b43565b60405160200180807f5b0000000000000000000000000000000000000000000000000000000000000081525060010182805190602001908083835b602083106112775780518252601f199092019160209182019101611258565b6001836020036101000a038019825116818451168082178552505050505050905001807f5d00000000000000000000000000000000000000000000000000000000000000815250600101915050604051602081830303815290604052905092915050565b600254604080517fca1a70be000000000000000000000000000000000000000000000000000000008152600160a060020a03848116602483015260048201928352855160448301528551606094919091169263ca1a70be9287928792918291606490910190602086019080838360005b8381101561136357818101518382015260200161134b565b50505050905090810190601f1680156113905780820380516001836020036101000a031916815260200191505b509350505050600060405180830381600087803b1580156113b057600080fd5b505af11580156113c4573d6000803e3d6000fd5b505050506040513d6000823e601f3d908101601f1916820160405260208110156113ed57600080fd5b81019080805164010000000081111561140557600080fd5b8201602081018481111561141857600080fd5b815164010000000081118282018710171561143257600080fd5b5090979650505050505050565b600054600160a060020a0316331461145657600080fd5b806001846040518082805190602001908083835b602083106114895780518252601f19909201916020918201910161146a565b51815160209384036101000a6000190180199092169116179052920194855250604051938490038101842087519094889450925082918401908083835b602083106114e55780518252601f1990920191602091820191016114c6565b51815160209384036101000a600019018019909216911617905292019485525060405193849003810190932084516115269591949190910192509050612d93565b50505050565b600054600160a060020a0316331461154357600080fd5b61154c81612244565b50565b60606001836040518082805190602001908083835b602083106115835780518252601f199092019160209182019101611564565b51815160209384036101000a6000190180199092169116179052920194855250604051938490038101842086519094879450925082918401908083835b602083106115df5780518252601f1990920191602091820191016115c0565b518151600019602094850361010090810a820192831692199390931691909117909252949092019687526040805197889003820188208054601f60026001831615909802909501169590950492830182900482028801820190528187529294509250508301828280156116935780601f1061166857610100808354040283529160200191611693565b820191906000526020600020905b81548152906001019060200180831161167657829003601f168201915b5050505050905092915050565b60606116fe6116ca60408051908101604052806001815260200160f960020a6011028152506117e4565b61114b6111806116d9866117e4565b61114b60408051908101604052806001815260200160f960020a6011028152506117e4565b92915050565b61170c612e11565b506040805160a0810182526000808252602080830182905283518082018552828152838501528351808201855282815260608401528351908101909352825260808101919091525b90565b61175f612e3e565b604080516060810182526000808252825181815260208181019094529192830191906117a1565b61178e612e62565b8152602001906001900390816117865790505b50815260200160006040519080825280602002602001820160405280156117dc57816020015b60608152602001906001900390816117c75790505b509052905090565b6117ec612e95565b50604080518082019091528151815260208281019082018190525b50919050565b606080600083600001518560000151016040519080825280601f01601f19166020018201604052801561184a578160200160208202803883390190505b50915060208201905061186681866020015187600001516122c1565b84516020850151855161187c92840191906122c1565b509392505050565b606080826000015115611b1e576040805190810160405280600781526020017f7b226964223a220000000000000000000000000000000000000000000000000081525090506118e26118d984602001516117e4565b61114b836117e4565b905061190c6118d960408051908101604052806001815260200160f960020a6011028152506117e4565b60a084015151909150156119735761195b6118d96040805190810160405280600b81526020017f2c2022616374696f6e223a0000000000000000000000000000000000000000008152506117e4565b90506119706118d96111808560a00151612305565b90505b60c083015151156119d7576119bf6118d96040805190810160405280600a81526020017f2c20227461626c65223a000000000000000000000000000000000000000000008152506117e4565b90506119d46118d96111808560c001516124a8565b90505b611a186118d96040805190810160405280600981526020017f2c2274797065223a2200000000000000000000000000000000000000000000008152506117e4565b9050611a2a6118d984604001516117e4565b9050611a6d6118d96040805190810160405280600b81526020017f222c226c6162656c223a220000000000000000000000000000000000000000008152506117e4565b9050611a7f6118d984606001516117e4565b9050611ac26118d96040805190810160405280600981526020017f222c2264617461223a00000000000000000000000000000000000000000000008152506117e4565b9050611ad46118d984608001516117e4565b9050611b176118d96040805190810160405280600181526020017f7d000000000000000000000000000000000000000000000000000000000000008152506117e4565b9150611807565b604080518082019091526004815260e260020a631b9d5b1b0260208201529150611807565b606080611b4e612eac565b60408051600180825281830190925290816020015b611b6b612d47565b815260200190600190039081611b6357905050915060e060405190810160405280600115158152602001604080519081016040528060098152602001600080516020612ef783398151915281525081526020016040805190810160405280601181526020017f7665726966662d6b79632d627574746f6e00000000000000000000000000000081525081526020016001876040518082805190602001908083835b60208310611c2b5780518252601f199092019160209182019101611c0c565b51815160209384036101000a600019018019909216911617905292019485525060408051948590038201852085820182526009808752600080516020612ef783398151915293870193845291519095945092508291908083835b60208310611ca45780518252601f199092019160209182019101611c85565b518151600019602094850361010090810a820192831692199390931691909117909252949092019687526040805197889003820188208054601f6002600183161590980290950116959095049283018290048202880182019052818752929450925050830182828015611d585780601f10611d2d57610100808354040283529160200191611d58565b820191906000526020600020905b815481529060010190602001808311611d3b57829003601f168201915b5050505050815260200160408051908101604052806004815260200160e260020a631b9d5b1b028152508152602001611d8f611704565b8152602001611d9c611757565b9052825183906000908110611dad57fe5b9060200190602002018190525060a0604051908101604052806001876040518082805190602001908083835b60208310611df85780518252601f199092019160209182019101611dd9565b51815160209384036101000a600019018019909216911617905292019485525060408051948590038201852085820182526009808752600080516020612ef783398151915293870193845291519095945092508291908083835b60208310611e715780518252601f199092019160209182019101611e52565b518151600019602094850361010090810a820192831692199390931691909117909252949092019687526040805197889003820188208054601f6002600183161590980290950116959095049283018290048202880182019052818752929450925050830182828015611f255780601f10611efa57610100808354040283529160200191611f25565b820191906000526020600020905b815481529060010190602001808311611f0857829003601f168201915b505050505081526020016001876040518082805190602001908083835b60208310611f615780518252601f199092019160209182019101611f42565b51815160209384036101000a6000190180199092169116179052920194855250604080519485900382018520858201825260148087527f73746172745f6b79635f73686f72745f6465736300000000000000000000000093870193845291519095945092508291908083835b60208310611fec5780518252601f199092019160209182019101611fcd565b518151600019602094850361010090810a820192831692199390931691909117909252949092019687526040805197889003820188208054601f60026001831615909802909501169590950492830182900482028801820190528187529294509250508301828280156120a05780601f10612075576101008083540402835291602001916120a0565b820191906000526020600020905b81548152906001019060200180831161208357829003601f168201915b505050505081526020016001876040518082805190602001908083835b602083106120dc5780518252601f1990920191602091820191016120bd565b51815160209384036101000a6000190180199092169116179052920194855250604080519485900382018520858201825260138087527f73746172745f6b79635f6c6f6e675f646573630000000000000000000000000093870193845291519095945092508291908083835b602083106121675780518252601f199092019160209182019101612148565b518151600019602094850361010090810a820192831692199390931691909117909252949092019687526040805197889003820188208054601f600260018316159098029095011695909504928301829004820288018201905281875292945092505083018282801561221b5780601f106121f05761010080835404028352916020019161221b565b820191906000526020600020905b8154815290600101906020018083116121fe57829003601f168201915b505050505081526020016004815260200183815250905061223b816126a9565b95945050505050565b600160a060020a038116151561225957600080fd5b60008054604051600160a060020a03808516939216917f8be0079c531659141344cd1fd0a4f28419497f9722a3daafe3b4186f6b6457e091a36000805473ffffffffffffffffffffffffffffffffffffffff1916600160a060020a0392909216919091179055565b60005b602082106122e6578251845260209384019390920191601f19909101906122c4565b50905182516020929092036101000a6000190180199091169116179052565b606080826000015115611b1e576040805190810160405280600c81526020017f7b2261646472657373223a22000000000000000000000000000000000000000081525090506123666118d96111808560200151600160a060020a03166128ee565b90506123a96118d96040805190810160405280601681526020017f222c2266756e6374696f6e53656c6563746f72223a22000000000000000000008152506117e4565b90506123bb6118d984604001516117e4565b90506123fe6118d96040805190810160405280600e81526020017f222c22617267756d656e7473223a0000000000000000000000000000000000008152506117e4565b90506124106118d984606001516117e4565b90506124536118d96040805190810160405280600c81526020017f2c22636f6e6669726d223a2200000000000000000000000000000000000000008152506117e4565b90506124656118d984608001516117e4565b9050611b176118d96040805190810160405280600281526020017f227d0000000000000000000000000000000000000000000000000000000000008152506117e4565b60608060008084600001511561268057505060408051808201909152600c81527f7b22636f6c756d6e73223a5b0000000000000000000000000000000000000000602082015290506000805b84602001515181101561257657600082111561253e5761253b61253260408051908101604052806001815260200160fa60020a600b028152506117e4565b61114b856117e4565b92505b61256861253261118087602001518481518110151561255957fe5b90602001906020020151612a34565b9250600191820191016124f4565b6125b76125326040805190810160405280600a81526020017f5d2c22726f7773223a5b000000000000000000000000000000000000000000008152506117e4565b925060009150600090505b8460400151518110156126385760008211156126035761260061253260408051908101604052806001815260200160fa60020a600b028152506117e4565b92505b61262a61253286604001518381518110151561261b57fe5b906020019060200201516117e4565b9250600191820191016125c2565b6126796125326040805190810160405280600281526020017f5d7d0000000000000000000000000000000000000000000000000000000000008152506117e4565b93506126a1565b604080518082019091526004815260e260020a631b9d5b1b02602082015293505b505050919050565b60408051808201909152600a81527f7b227469746c65223a220000000000000000000000000000000000000000000060208201528151606091906000906126f390611142906117e4565b91506127366111426040805190810160405280600f81526020017f222c2273686f727444657363223a2200000000000000000000000000000000008152506117e4565b915061274861114285602001516117e4565b915061278b6111426040805190810160405280600e81526020017f222c226c6f6e6744657363223a220000000000000000000000000000000000008152506117e4565b915061279d61114285604001516117e4565b91506127e06111426040805190810160405280600a81526020017f222c227769647468223a000000000000000000000000000000000000000000008152506117e4565b91506127f56111426111808660600151612bec565b91506128386111426040805190810160405280600d81526020017f2c22656c656d656e7473223a5b000000000000000000000000000000000000008152506117e4565b9150600090505b8360800151518110156128a55760008111156128805761287d61114260408051908101604052806001815260200160fa60020a600b028152506117e4565b91505b61289b61114261118086608001518481518110151561117157fe5b915060010161283f565b6128e66111426040805190810160405280600281526020017f5d7d0000000000000000000000000000000000000000000000000000000000008152506117e4565b949350505050565b60408051602a80825260608083019093528291600091829182916020820161054080388339505081519195507f300000000000000000000000000000000000000000000000000000000000000091869150600090811061294a57fe5b906020010190600160f860020a031916908160001a90535083517f7800000000000000000000000000000000000000000000000000000000000000908590600190811061299357fe5b906020010190600160f860020a031916908160001a905350859250600091505b6028821015612a2757506030600f8316016039600160a060020a03821611156129da576027015b8060f860020a0284836028036001018151811015156129f557fe5b906020010190600160f860020a031916908160001a9053506010600160a060020a0384160492506001909101906129b3565b8394505b50505050919050565b606080826000015115611b1e576040805190810160405280600781526020017f7b226964223a22000000000000000000000000000000000000000000000000008152509050612a896118d984602001516117e4565b9050612ab36118d960408051908101604052806001815260200160f960020a6011028152506117e4565b60808401515190915015612b4457612ae96118d960408051908101604052806001815260200160fa60020a600b028152506117e4565b9050612b2c6118d96040805190810160405280600981526020017f22616374696f6e223a00000000000000000000000000000000000000000000008152506117e4565b9050612b416118d96111808560800151612305565b90505b612b856118d96040805190810160405280600981526020017f2c2274797065223a2200000000000000000000000000000000000000000000008152506117e4565b9050612b976118d984604001516117e4565b9050612bda6118d96040805190810160405280600b81526020017f222c226c6162656c223a220000000000000000000000000000000000000000008152506117e4565b90506124656118d984606001516117e4565b60608060008181851515612c355760408051808201909152600181527f300000000000000000000000000000000000000000000000000000000000000060208201529450612a2b565b6040805160208082528183019092529080820161040080388339019050509350600092505b6000861115612ca757600a860660300160f860020a028484815181101515612c7e57fe5b906020010190600160f860020a031916908160001a905350600a86049550600190920191612c5a565b60408051848152601f19601f86011681016020019091526000198401938015612cda578160200160208202803883390190505b509150600090505b8151811015612d3e57835160001984019385918110612cfd57fe5b90602001015160f860020a900460f860020a028282815181101515612d1e57fe5b906020010190600160f860020a031916908160001a905350600101612ce2565b50949350505050565b6101a06040519081016040528060001515815260200160608152602001606081526020016060815260200160608152602001612d81612e11565b8152602001612d8e612e3e565b905290565b828054600181600116156101000203166002900490600052602060002090601f016020900481019282601f10612dd457805160ff1916838001178555612e01565b82800160010185558215612e01579182015b82811115612e01578251825591602001919060010190612de6565b50612e0d929150612edc565b5090565b6040805160a081018252600080825260208201526060918101829052818101829052608081019190915290565b60606040519081016040528060001515815260200160608152602001606081525090565b61012060405190810160405280600015158152602001606081526020016060815260200160608152602001612d8e612e11565b604080518082019091526000808252602082015290565b60a06040519081016040528060608152602001606081526020016060815260200160008152602001606081525090565b61175491905b80821115612e0d5760008155600101612ee2560073746172745f6b79630000000000000000000000000000000000000000000000a165627a7a7230582008307324c001e78822ae07661cbf76a47ee100a43cb4f040e2b46b7cda2134eb0029",
  "source": "pragma solidity ^0.4.24;\n\nimport \"tokenboost-solidity/contracts/widget/Localizable.sol\";\nimport \"tokenboost-solidity/contracts/widget/Widgets.sol\";\nimport \"../VeriffKycStrategy.sol\";\nimport \"./VeriffKycStrategyAdminWidgetRenderer.sol\";\nimport \"tokenboost-solidity/contracts/utils/StringUtils.sol\";\n\ncontract VeriffKycStrategyRenderer is Localizable {\n    using Widgets for Widgets.Widget;\n    using Elements for Elements.Element;\n    using StringUtils for string;\n    using strings for *;\n\n    string public constant START_KYC = \"start_kyc\";\n    string public constant START_KYC_SHORT_DESC = \"start_kyc_short_desc\";\n    string public constant START_KYC_LONG_DESC = \"start_kyc_long_desc\";\n    string public constant BLACKLISTED = \"blacklisted\";\n    string public constant BLACKLISTED_DESC = \"blacklisted_desc\";\n    string public constant UPDATE = \"update\";\n    string public constant UPDATE_CONFIRM = \"update_desc\";\n\n    VeriffKycStrategyAdminWidgetRenderer adminWidgetRenderer;\n\n    constructor(VeriffKycStrategyAdminWidgetRenderer _adminWidgetRenderer) public {\n        adminWidgetRenderer = _adminWidgetRenderer;\n    }\n\n    function adminWidgets(string _locale, VeriffKycStrategy _strategy) public view returns (string) {\n        return adminWidgetRenderer.render(_locale, _strategy);\n    }\n\n    function userWidgets(string _locale, VeriffKycStrategy _strategy) public view returns (string) {\n        return string(abi.encodePacked(\"[\", _processKycWidget(_locale, _strategy), \"]\"));\n    }\n\n    function _processKycWidget(string _locale, VeriffKycStrategy _strategy) private view returns (string json) {\n        Elements.Element[] memory elements = new Elements.Element[](1);\n        elements[0] = Elements.Element(\n            true,\n            START_KYC,\n            \"veriff-kyc-button\",\n            resources[_locale][START_KYC],\n            \"null\",\n            Actions.empty(),\n            Tables.empty()\n        );\n        Widgets.Widget memory widget = Widgets.Widget(\n            resources[_locale][START_KYC],\n            resources[_locale][START_KYC_SHORT_DESC],\n            resources[_locale][START_KYC_LONG_DESC],\n            4,\n            elements\n        );\n        return widget.toJson();\n    }\n\n    function inputs(string _locale, VeriffKycStrategy _strategy) public view returns (string) {\n        Elements.Element[] memory elements = new Elements.Element[](3);\n        elements[0] = Elements.Element(\n            true,\n            BLACKLISTED_DESC,\n            \"text\",\n            \"\",\n            resources[_locale][BLACKLISTED_DESC].quoted(),\n            Actions.empty(),\n            Tables.empty()\n        );\n        elements[1] = Elements.Element(\n            true,\n            BLACKLISTED,\n            \"switch\",\n            resources[_locale][BLACKLISTED],\n            _strategy.blacklisted() ? \"true\" : \"false\",\n            Actions.empty(),\n            Tables.empty()\n        );\n        elements[2] = Elements.Element(\n            true,\n            UPDATE,\n            \"button\",\n            resources[_locale][UPDATE],\n            \"null\",\n            Actions.Action(\n                true,\n                address(_strategy),\n                \"update(bool)\",\n                '[\"blacklisted\"]',\n                resources[_locale][UPDATE_CONFIRM]\n            ),\n            Tables.empty()\n        );\n        string memory json = \"[\";\n        for (uint i = 0; i < elements.length; i++) {\n            if (i > 0) {\n                json = json.toSlice().concat(','.toSlice());\n            }\n            json = json.toSlice().concat(elements[i].toJson().toSlice());\n        }\n        return json.toSlice().concat(']'.toSlice());\n    }\n}\n",
  "sourcePath": "/Users/yoonjae/SolidityProjects/tokenboost-solidity-erc20sale-strategies/contracts/strategy/sale/erc20/veriff-kyc/widget/VeriffKycStrategyRenderer.sol",
  "compiler": {
    "name": "solc",
    "version": "0.4.24+commit.e67f0147.Emscripten.clang"
  },
  "schemaVersion": "2.0.1",
  "updatedAt": "2018-10-22T10:26:02.755Z"
}