{
  "contractName": "VeriffKycStrategyAdminWidgetRenderer",
  "abi": [
    {
      "constant": true,
      "inputs": [],
      "name": "BLACKLISTED_COUNTRIES_SHORT_DESC",
      "outputs": [
        {
          "name": "",
          "type": "string"
        }
      ],
      "payable": false,
      "stateMutability": "view",
      "type": "function"
    },
    {
      "constant": true,
      "inputs": [],
      "name": "WHITELISTED_COUNTRIES_SHORT_DESC",
      "outputs": [
        {
          "name": "",
          "type": "string"
        }
      ],
      "payable": false,
      "stateMutability": "view",
      "type": "function"
    },
    {
      "constant": true,
      "inputs": [],
      "name": "REMOVE",
      "outputs": [
        {
          "name": "",
          "type": "string"
        }
      ],
      "payable": false,
      "stateMutability": "view",
      "type": "function"
    },
    {
      "constant": true,
      "inputs": [],
      "name": "ADD",
      "outputs": [
        {
          "name": "",
          "type": "string"
        }
      ],
      "payable": false,
      "stateMutability": "view",
      "type": "function"
    },
    {
      "constant": true,
      "inputs": [],
      "name": "BLACKLISTED_COUNTRIES_LONG_DESC",
      "outputs": [
        {
          "name": "",
          "type": "string"
        }
      ],
      "payable": false,
      "stateMutability": "view",
      "type": "function"
    },
    {
      "constant": true,
      "inputs": [],
      "name": "COUNTRY_NAME",
      "outputs": [
        {
          "name": "",
          "type": "string"
        }
      ],
      "payable": false,
      "stateMutability": "view",
      "type": "function"
    },
    {
      "constant": false,
      "inputs": [],
      "name": "renounceOwnership",
      "outputs": [],
      "payable": false,
      "stateMutability": "nonpayable",
      "type": "function"
    },
    {
      "constant": true,
      "inputs": [],
      "name": "owner",
      "outputs": [
        {
          "name": "",
          "type": "address"
        }
      ],
      "payable": false,
      "stateMutability": "view",
      "type": "function"
    },
    {
      "constant": true,
      "inputs": [],
      "name": "ADD_CONFIRM",
      "outputs": [
        {
          "name": "",
          "type": "string"
        }
      ],
      "payable": false,
      "stateMutability": "view",
      "type": "function"
    },
    {
      "constant": true,
      "inputs": [],
      "name": "REMOVE_CONFIRM",
      "outputs": [
        {
          "name": "",
          "type": "string"
        }
      ],
      "payable": false,
      "stateMutability": "view",
      "type": "function"
    },
    {
      "constant": true,
      "inputs": [],
      "name": "COUNTRY_CODE",
      "outputs": [
        {
          "name": "",
          "type": "string"
        }
      ],
      "payable": false,
      "stateMutability": "view",
      "type": "function"
    },
    {
      "constant": true,
      "inputs": [],
      "name": "WHITELISTED_COUNTRIES_LONG_DESC",
      "outputs": [
        {
          "name": "",
          "type": "string"
        }
      ],
      "payable": false,
      "stateMutability": "view",
      "type": "function"
    },
    {
      "constant": false,
      "inputs": [
        {
          "name": "locale",
          "type": "string"
        },
        {
          "name": "key",
          "type": "string"
        },
        {
          "name": "value",
          "type": "string"
        }
      ],
      "name": "setResource",
      "outputs": [],
      "payable": false,
      "stateMutability": "nonpayable",
      "type": "function"
    },
    {
      "constant": true,
      "inputs": [],
      "name": "BLACKLISTED_COUNTRIES",
      "outputs": [
        {
          "name": "",
          "type": "string"
        }
      ],
      "payable": false,
      "stateMutability": "view",
      "type": "function"
    },
    {
      "constant": false,
      "inputs": [
        {
          "name": "_newOwner",
          "type": "address"
        }
      ],
      "name": "transferOwnership",
      "outputs": [],
      "payable": false,
      "stateMutability": "nonpayable",
      "type": "function"
    },
    {
      "constant": true,
      "inputs": [
        {
          "name": "locale",
          "type": "string"
        },
        {
          "name": "key",
          "type": "string"
        }
      ],
      "name": "resource",
      "outputs": [
        {
          "name": "",
          "type": "string"
        }
      ],
      "payable": false,
      "stateMutability": "view",
      "type": "function"
    },
    {
      "constant": true,
      "inputs": [],
      "name": "WHITELISTED_COUNTRIES",
      "outputs": [
        {
          "name": "",
          "type": "string"
        }
      ],
      "payable": false,
      "stateMutability": "view",
      "type": "function"
    },
    {
      "anonymous": false,
      "inputs": [
        {
          "indexed": true,
          "name": "previousOwner",
          "type": "address"
        }
      ],
      "name": "OwnershipRenounced",
      "type": "event"
    },
    {
      "anonymous": false,
      "inputs": [
        {
          "indexed": true,
          "name": "previousOwner",
          "type": "address"
        },
        {
          "indexed": true,
          "name": "newOwner",
          "type": "address"
        }
      ],
      "name": "OwnershipTransferred",
      "type": "event"
    },
    {
      "constant": true,
      "inputs": [
        {
          "name": "_locale",
          "type": "string"
        },
        {
          "name": "_strategy",
          "type": "address"
        }
      ],
      "name": "render",
      "outputs": [
        {
          "name": "",
          "type": "string"
        }
      ],
      "payable": false,
      "stateMutability": "view",
      "type": "function"
    }
  ],
  "bytecode": "0x608060405260008054600160a060020a031916331790556135e0806100256000396000f3006080604052600436106100e25763ffffffff60e060020a6000350416631601474b81146100e7578063294d98571461017157806336f656a114610186578063562f9e471461019b57806358fc6897146101b05780636d43ec3e146101c5578063715018a6146101da5780638da5cb5b146101f157806395d87ec714610222578063a52aa8d514610237578063ca1a70be1461024c578063e3e19a68146102b0578063e5aa2b5f146102c5578063ed3487fe146102da578063ed45d12c146103af578063f2fde38b146103c4578063f65a5c1b146103e5578063f6a159001461047c575b600080fd5b3480156100f357600080fd5b506100fc610491565b6040805160208082528351818301528351919283929083019185019080838360005b8381101561013657818101518382015260200161011e565b50505050905090810190601f1680156101635780820380516001836020036101000a031916815260200191505b509250505060405180910390f35b34801561017d57600080fd5b506100fc6104ca565b34801561019257600080fd5b506100fc610503565b3480156101a757600080fd5b506100fc610528565b3480156101bc57600080fd5b506100fc610548565b3480156101d157600080fd5b506100fc61057f565b3480156101e657600080fd5b506101ef6105b6565b005b3480156101fd57600080fd5b50610206610622565b60408051600160a060020a039092168252519081900360200190f35b34801561022e57600080fd5b506100fc610631565b34801561024357600080fd5b506100fc610668565b34801561025857600080fd5b506040805160206004803580820135601f81018490048402850184019095528484526100fc94369492936024939284019190819084018382808284375094975050509235600160a060020a0316935061069f92505050565b3480156102bc57600080fd5b506100fc610845565b3480156102d157600080fd5b506100fc61087c565b3480156102e657600080fd5b506040805160206004803580820135601f81018490048402850184019095528484526101ef94369492936024939284019190819084018382808284375050604080516020601f89358b018035918201839004830284018301909452808352979a99988101979196509182019450925082915084018382808284375050604080516020601f89358b018035918201839004830284018301909452808352979a9998810197919650918201945092508291508401838280828437509497506108b39650505050505050565b3480156103bb57600080fd5b506100fc6109a0565b3480156103d057600080fd5b506101ef600160a060020a03600435166109d7565b3480156103f157600080fd5b506040805160206004803580820135601f81018490048402850184019095528484526100fc94369492936024939284019190819084018382808284375050604080516020601f89358b018035918201839004830284018301909452808352979a9998810197919650918201945092508291508401838280828437509497506109fa9650505050505050565b34801561048857600080fd5b506100fc610b4b565b6040805190810160405280602081526020017f626c61636b6c69737465645f636f756e74726965735f73686f72745f6465736381525081565b6040805190810160405280602081526020017f77686974656c69737465645f636f756e74726965735f73686f72745f6465736381525081565b6040805180820190915260068152600080516020613595833981519152602082015281565b604080518082019091526003815260ea60020a6218591902602082015281565b60408051808201909152601f81527f626c61636b6c69737465645f636f756e74726965735f6c6f6e675f6465736300602082015281565b60408051808201909152600c81527f636f756e7472795f6e616d650000000000000000000000000000000000000000602082015281565b600054600160a060020a031633146105cd57600080fd5b60008054604051600160a060020a03909116917ff8df31144d9c2f0f6b59d69b8b98abd5459d07f2742c4df920b25aae33c6482091a26000805473ffffffffffffffffffffffffffffffffffffffff19169055565b600054600160a060020a031681565b60408051808201909152600b81527f6164645f636f6e6669726d000000000000000000000000000000000000000000602082015281565b60408051808201909152600e81527f72656d6f76655f636f6e6669726d000000000000000000000000000000000000602082015281565b6060600082600160a060020a0316635bae9ce96040518163ffffffff1660e060020a028152600401602060405180830381600087803b1580156106e157600080fd5b505af11580156106f5573d6000803e3d6000fd5b505050506040513d602081101561070b57600080fd5b5051905061071c8484836001610b82565b6107298585846000610b82565b60405160200180807f5b0000000000000000000000000000000000000000000000000000000000000081525060010183805190602001908083835b602083106107835780518252601f199092019160209182019101610764565b6001836020036101000a0380198251168184511680821785525050505050509050018060fa60020a600b0281525060010182805190602001908083835b602083106107df5780518252601f1990920191602091820191016107c0565b6001836020036101000a038019825116818451168082178552505050505050905001807f5d000000000000000000000000000000000000000000000000000000000000008152506001019250505060405160208183030381529060405291505092915050565b60408051808201909152600c81527f636f756e7472795f636f64650000000000000000000000000000000000000000602082015281565b60408051808201909152601f81527f77686974656c69737465645f636f756e74726965735f6c6f6e675f6465736300602082015281565b600054600160a060020a031633146108ca57600080fd5b806001846040518082805190602001908083835b602083106108fd5780518252601f1990920191602091820191016108de565b51815160209384036101000a6000190180199092169116179052920194855250604051938490038101842087519094889450925082918401908083835b602083106109595780518252601f19909201916020918201910161093a565b51815160209384036101000a6000190180199092169116179052920194855250604051938490038101909320845161099a95919491909101925090506133e5565b50505050565b60408051808201909152601581527f626c61636b6c69737465645f636f756e74726965730000000000000000000000602082015281565b600054600160a060020a031633146109ee57600080fd5b6109f7816112a9565b50565b60606001836040518082805190602001908083835b60208310610a2e5780518252601f199092019160209182019101610a0f565b51815160209384036101000a6000190180199092169116179052920194855250604051938490038101842086519094879450925082918401908083835b60208310610a8a5780518252601f199092019160209182019101610a6b565b518151600019602094850361010090810a820192831692199390931691909117909252949092019687526040805197889003820188208054601f6002600183161590980290950116959095049283018290048202880182019052818752929450925050830182828015610b3e5780601f10610b1357610100808354040283529160200191610b3e565b820191906000526020600020905b815481529060010190602001808311610b2157829003601f168201915b5050505050905092915050565b60408051808201909152601581527f77686974656c69737465645f636f756e74726965730000000000000000000000602082015281565b606080610b8d613463565b60408051600180825281830190925290816020015b610baa613493565b815260200190600190039081610ba25750506040805160e08101909152600181529092506020810186610c105760408051808201909152601581527f77686974656c69737465645f636f756e747269657300000000000000000000006020820152610c45565b60408051808201909152601581527f626c61636b6c69737465645f636f756e7472696573000000000000000000000060208201525b81526020016040805190810160405280600581526020017f7461626c650000000000000000000000000000000000000000000000000000008152508152602001602060405190810160405280600081525081526020016040805190810160405280600481526020017f6e756c6c000000000000000000000000000000000000000000000000000000008152508152602001610cde611326565b8152602001606060405190810160405280600115158152602001610d048b8b8b8b611379565b8152602001610d158b8b8b8b611e1d565b90529052825183906000908110610d2857fe5b9060200190602002018190525060a0604051908101604052806001896040518082805190602001908083835b60208310610d735780518252601f199092019160209182019101610d54565b51815160209384036101000a600019018019909216911617905292019485525060405193849003019092209150889050610de05760408051808201909152601581527f77686974656c69737465645f636f756e747269657300000000000000000000006020820152610e15565b60408051808201909152601581527f626c61636b6c69737465645f636f756e7472696573000000000000000000000060208201525b6040518082805190602001908083835b60208310610e445780518252601f199092019160209182019101610e25565b518151600019602094850361010090810a820192831692199390931691909117909252949092019687526040805197889003820188208054601f6002600183161590980290950116959095049283018290048202880182019052818752929450925050830182828015610ef85780601f10610ecd57610100808354040283529160200191610ef8565b820191906000526020600020905b815481529060010190602001808311610edb57829003601f168201915b505050505081526020016001896040518082805190602001908083835b60208310610f345780518252601f199092019160209182019101610f15565b51815160209384036101000a600019018019909216911617905292019485525060405193849003019092209150889050610fa3576040805190810160405280602081526020017f77686974656c69737465645f636f756e74726965735f73686f72745f64657363815250610fda565b6040805190810160405280602081526020017f626c61636b6c69737465645f636f756e74726965735f73686f72745f646573638152505b6040518082805190602001908083835b602083106110095780518252601f199092019160209182019101610fea565b518151600019602094850361010090810a820192831692199390931691909117909252949092019687526040805197889003820188208054601f60026001831615909802909501169590950492830182900482028801820190528187529294509250508301828280156110bd5780601f10611092576101008083540402835291602001916110bd565b820191906000526020600020905b8154815290600101906020018083116110a057829003601f168201915b505050505081526020016001896040518082805190602001908083835b602083106110f95780518252601f1990920191602091820191016110da565b51815160209384036101000a6000190180199092169116179052920194855250604051938490030190922091508890506111665760408051808201909152601f81527f77686974656c69737465645f636f756e74726965735f6c6f6e675f6465736300602082015261119b565b60408051808201909152601f81527f626c61636b6c69737465645f636f756e74726965735f6c6f6e675f646573630060208201525b6040518082805190602001908083835b602083106111ca5780518252601f1990920191602091820191016111ab565b518151600019602094850361010090810a820192831692199390931691909117909252949092019687526040805197889003820188208054601f600260018316159098029095011695909504928301829004820288018201905281875292945092505083018282801561127e5780601f106112535761010080835404028352916020019161127e565b820191906000526020600020905b81548152906001019060200180831161126157829003601f168201915b505050505081526020016006815260200183815250905061129e81612392565b979650505050505050565b600160a060020a03811615156112be57600080fd5b60008054604051600160a060020a03808516939216917f8be0079c531659141344cd1fd0a4f28419497f9722a3daafe3b4186f6b6457e091a36000805473ffffffffffffffffffffffffffffffffffffffff1916600160a060020a0392909216919091179055565b61132e6134df565b506040805160a0810182526000808252602080830182905283518082018552828152838501528351808201855282815260608401528351908101909352825260808101919091525b90565b60408051600380825260808201909252606091829190816020015b61139c61350c565b81526020019060019003908161139457905050905060a0604051908101604052806001151581526020016040805190810160405280600c81526020017f636f756e7472795f6e616d65000000000000000000000000000000000000000081525081526020016040805190810160405280600481526020017f746578740000000000000000000000000000000000000000000000000000000081525081526020016001886040518082805190602001908083835b6020831061146e5780518252601f19909201916020918201910161144f565b51815160209384036101000a60001901801990921691161790529201948552506040805194859003820185208582018252600c8087527f636f756e7472795f6e616d65000000000000000000000000000000000000000093870193845291519095945092508291908083835b602083106114f95780518252601f1990920191602091820191016114da565b518151600019602094850361010090810a820192831692199390931691909117909252949092019687526040805197889003820188208054601f60026001831615909802909501169590950492830182900482028801820190528187529294509250508301828280156115ad5780601f10611582576101008083540402835291602001916115ad565b820191906000526020600020905b81548152906001019060200180831161159057829003601f168201915b505050505081526020016115bf611326565b90528151829060009081106115d057fe5b9060200190602002018190525060a0604051908101604052806001151581526020016040805190810160405280600c81526020017f636f756e7472795f636f6465000000000000000000000000000000000000000081525081526020016040805190810160405280600481526020017f746578740000000000000000000000000000000000000000000000000000000081525081526020016001886040518082805190602001908083835b6020831061169a5780518252601f19909201916020918201910161167b565b51815160209384036101000a60001901801990921691161790529201948552506040805194859003820185208582018252600c8087527f636f756e7472795f636f6465000000000000000000000000000000000000000093870193845291519095945092508291908083835b602083106117255780518252601f199092019160209182019101611706565b518151600019602094850361010090810a820192831692199390931691909117909252949092019687526040805197889003820188208054601f60026001831615909802909501169590950492830182900482028801820190528187529294509250508301828280156117d95780601f106117ae576101008083540402835291602001916117d9565b820191906000526020600020905b8154815290600101906020018083116117bc57829003601f168201915b505050505081526020016117eb611326565b90528151829060019081106117fc57fe5b9060200190602002018190525060a0604051908101604052806001151581526020018461184557604080518082019091526003815260ea60020a62185919026020820152611868565b604080518082019091526006815260008051602061359583398151915260208201525b81526020016040805190810160405280600681526020017f627574746f6e000000000000000000000000000000000000000000000000000081525081526020016001886040518082805190602001908083835b602083106118da5780518252601f1990920191602091820191016118bb565b51815160209384036101000a60001901801990921691161790529201948552506040519384900301909220915086905061193057604080518082019091526003815260ea60020a62185919026020820152611953565b604080518082019091526006815260008051602061359583398151915260208201525b6040518082805190602001908083835b602083106119825780518252601f199092019160209182019101611963565b518151600019602094850361010090810a820192831692199390931691909117909252949092019687526040805197889003820188208054601f6002600183161590980290950116959095049283018290048202880182019052818752929450925050830182828015611a365780601f10611a0b57610100808354040283529160200191611a36565b820191906000526020600020905b815481529060010190602001808311611a1957829003601f168201915b5050505050815260200160a06040519081016040528060011515815260200188600160a060020a0316815260200186611a8b57604080518082019091526003815260ea60020a62185919026020820152611aae565b604080518082019091526006815260008051602061359583398151915260208201525b88611aec5760408051808201909152600581527f416c6c6f770000000000000000000000000000000000000000000000000000006020820152611b21565b60408051808201909152600681527f52656a656374000000000000000000000000000000000000000000000000000060208201525b6040516020018083805190602001908083835b60208310611b535780518252601f199092019160209182019101611b34565b51815160209384036101000a600019018019909216911617905285519190930192850191508083835b60208310611b9b5780518252601f199092019160209182019101611b7c565b6001836020036101000a038019825116818451168082178552505050505050905001807f6564436f756e747279436f646528737472696e672900000000000000000000008152506015019250505060405160208183030381529060405281526020016040805190810160405280601081526020017f5b22636f756e7472795f636f6465225d00000000000000000000000000000000815250815260200160018a6040518082805190602001908083835b60208310611c6a5780518252601f199092019160209182019101611c4b565b51815160209384036101000a600019018019909216911617905292019485525060405193849003019092209150889050611cd75760408051808201909152600b81527f6164645f636f6e6669726d0000000000000000000000000000000000000000006020820152611d0c565b60408051808201909152600e81527f72656d6f76655f636f6e6669726d00000000000000000000000000000000000060208201525b6040518082805190602001908083835b60208310611d3b5780518252601f199092019160209182019101611d1c565b518151600019602094850361010090810a820192831692199390931691909117909252949092019687526040805197889003820188208054601f6002600183161590980290950116959095049283018290048202880182019052818752929450925050830182828015611def5780601f10611dc457610100808354040283529160200191611def565b820191906000526020600020905b815481529060010190602001808311611dd257829003601f168201915b5050505050815250815250816002815181101515611e0957fe5b602090810290910101529050949350505050565b6060600081818181815b89600160a060020a031663c584756a6040518163ffffffff1660e060020a028152600401602060405180830381600087803b158015611e6557600080fd5b505af1158015611e79573d6000803e3d6000fd5b505050506040513d6020811015611e8f57600080fd5b5051861015611f905789600160a060020a0316631bcae5a1876040518263ffffffff1660e060020a02815260040180828152602001915050600060405180830381600087803b158015611ee157600080fd5b505af1158015611ef5573d6000803e3d6000fd5b505050506040513d6000823e601f3d908101601f191682016040526020811015611f1e57600080fd5b810190808051640100000000811115611f3657600080fd5b82016020810184811115611f4957600080fd5b8151640100000000811182820187101715611f6357600080fd5b50509291905050509450611f798a8a8a886125f4565b15611f85576001909301925b600190950194611e27565b83604051908082528060200260200182016040528015611fc457816020015b6060815260200190600190039081611faf5790505b50925060009150600095505b89600160a060020a031663c584756a6040518163ffffffff1660e060020a028152600401602060405180830381600087803b15801561200e57600080fd5b505af1158015612022573d6000803e3d6000fd5b505050506040513d602081101561203857600080fd5b50518610156123835789600160a060020a0316631bcae5a1876040518263ffffffff1660e060020a02815260040180828152602001915050600060405180830381600087803b15801561208a57600080fd5b505af115801561209e573d6000803e3d6000fd5b505050506040513d6000823e601f3d908101601f1916820160405260208110156120c757600080fd5b8101908080516401000000008111156120df57600080fd5b820160208101848111156120f257600080fd5b815164010000000081118282018710171561210c57600080fd5b505092919050505094506121228a8a8a886125f4565b15612378575060408051808201909152601181527f7b22636f756e7472795f636f6465223a22000000000000000000000000000000602082015261217d612168866127ef565b612171836127ef565b9063ffffffff61281816565b90506121c06121686040805190810160405280601281526020017f222c22636f756e7472795f6e616d65223a2200000000000000000000000000008152506127ef565b905061231461216860018d6040518082805190602001908083835b602083106121fa5780518252601f1990920191602091820191016121db565b51815160209384036101000a600019018019909216911617905292019485525060405193849003810184208b5190948c9450925082918401908083835b602083106122565780518252601f199092019160209182019101612237565b518151600019602094850361010090810a820192831692199390931691909117909252949092019687526040805197889003820188208054601f600260018316159098029095011695909504928301829004820288018201905281875292945092505083018282801561230a5780601f106122df5761010080835404028352916020019161230a565b820191906000526020600020905b8154815290600101906020018083116122ed57829003601f168201915b50505050506127ef565b90506123576121686040805190810160405280600281526020017f227d0000000000000000000000000000000000000000000000000000000000008152506127ef565b8351600184019391925082918591811061236d57fe5b602090810290910101525b600190950194611fd0565b50909998505050505050505050565b60408051808201909152600a81527f7b227469746c65223a220000000000000000000000000000000000000000000060208201528151606091906000906123e5906123dc906127ef565b612171846127ef565b91506124286123dc6040805190810160405280600f81526020017f222c2273686f727444657363223a2200000000000000000000000000000000008152506127ef565b915061243a6123dc85602001516127ef565b915061247d6123dc6040805190810160405280600e81526020017f222c226c6f6e6744657363223a220000000000000000000000000000000000008152506127ef565b915061248f6123dc85604001516127ef565b91506124d26123dc6040805190810160405280600a81526020017f222c227769647468223a000000000000000000000000000000000000000000008152506127ef565b91506124ec6123dc6124e7866060015161288f565b6127ef565b915061252f6123dc6040805190810160405280600d81526020017f2c22656c656d656e7473223a5b000000000000000000000000000000000000008152506127ef565b9150600090505b8360800151518110156125ab576000811115612577576125746123dc60408051908101604052806001815260200160fa60020a600b028152506127ef565b91505b6125a16123dc6124e786608001518481518110151561259257fe5b906020019060200201516129ee565b9150600101612536565b6125ec6123dc6040805190810160405280600281526020017f5d7d0000000000000000000000000000000000000000000000000000000000008152506127ef565b949350505050565b60008084156126ef576040517f7f084cd3000000000000000000000000000000000000000000000000000000008152602060048201818152855160248401528551600160a060020a038a1693637f084cd39388939283926044019185019080838360005b83811015612670578181015183820152602001612658565b50505050905090810190601f16801561269d5780820380516001836020036101000a031916815260200191505b5092505050602060405180830381600087803b1580156126bc57600080fd5b505af11580156126d0573d6000803e3d6000fd5b505050506040513d60208110156126e657600080fd5b505190506127dd565b6040517f5775cfd2000000000000000000000000000000000000000000000000000000008152602060048201818152855160248401528551600160a060020a038a1693635775cfd29388939283926044019185019080838360005b8381101561276257818101518382015260200161274a565b50505050905090810190601f16801561278f5780820380516001836020036101000a031916815260200191505b5092505050602060405180830381600087803b1580156127ae57600080fd5b505af11580156127c2573d6000803e3d6000fd5b505050506040513d60208110156127d857600080fd5b505190505b8315156127e657155b95945050505050565b6127f761353f565b50604080518082019091528151815260208281019082018190525b50919050565b606080600083600001518560000151016040519080825280601f01601f191660200182016040528015612855578160200160208202803883390190505b5091506020820190506128718186602001518760000151612cd3565b8451602085015185516128879284019190612cd3565b509392505050565b606080600081818515156128d85760408051808201909152600181527f3000000000000000000000000000000000000000000000000000000000000000602082015294506129e5565b6040805160208082528183019092529080820161040080388339019050509350600092505b600086111561294a57600a860660300160f860020a02848481518110151561292157fe5b906020010190600160f860020a031916908160001a905350600a860495506001909201916128fd565b60408051848152601f19601f8601168101602001909152600019840193801561297d578160200160208202803883390190505b509150600090505b81518110156129e1578351600019840193859181106129a057fe5b90602001015160f860020a900460f860020a0282828151811015156129c157fe5b906020010190600160f860020a031916908160001a905350600101612985565b8194505b50505050919050565b606080826000015115612c98576040805190810160405280600781526020017f7b226964223a22000000000000000000000000000000000000000000000000008152509050612a4361216884602001516127ef565b9050612a866121686040805190810160405280600181526020017f22000000000000000000000000000000000000000000000000000000000000008152506127ef565b60a08401515190915015612aed57612ad56121686040805190810160405280600b81526020017f2c2022616374696f6e223a0000000000000000000000000000000000000000008152506127ef565b9050612aea6121686124e78560a00151612d17565b90505b60c08301515115612b5157612b396121686040805190810160405280600a81526020017f2c20227461626c65223a000000000000000000000000000000000000000000008152506127ef565b9050612b4e6121686124e78560c00151612eba565b90505b612b926121686040805190810160405280600981526020017f2c2274797065223a2200000000000000000000000000000000000000000000008152506127ef565b9050612ba461216884604001516127ef565b9050612be76121686040805190810160405280600b81526020017f222c226c6162656c223a220000000000000000000000000000000000000000008152506127ef565b9050612bf961216884606001516127ef565b9050612c3c6121686040805190810160405280600981526020017f222c2264617461223a00000000000000000000000000000000000000000000008152506127ef565b9050612c4e61216884608001516127ef565b9050612c916121686040805190810160405280600181526020017f7d000000000000000000000000000000000000000000000000000000000000008152506127ef565b9150612812565b60408051808201909152600481527f6e756c6c0000000000000000000000000000000000000000000000000000000060208201529150612812565b60005b60208210612cf8578251845260209384019390920191601f1990910190612cd6565b50905182516020929092036101000a6000190180199091169116179052565b606080826000015115612c98576040805190810160405280600c81526020017f7b2261646472657373223a2200000000000000000000000000000000000000008152509050612d786121686124e78560200151600160a060020a03166130d1565b9050612dbb6121686040805190810160405280601681526020017f222c2266756e6374696f6e53656c6563746f72223a22000000000000000000008152506127ef565b9050612dcd61216884604001516127ef565b9050612e106121686040805190810160405280600e81526020017f222c22617267756d656e7473223a0000000000000000000000000000000000008152506127ef565b9050612e2261216884606001516127ef565b9050612e656121686040805190810160405280600c81526020017f2c22636f6e6669726d223a2200000000000000000000000000000000000000008152506127ef565b9050612e7761216884608001516127ef565b9050612c916121686040805190810160405280600281526020017f227d0000000000000000000000000000000000000000000000000000000000008152506127ef565b60608060008084600001511561309257505060408051808201909152600c81527f7b22636f6c756d6e73223a5b0000000000000000000000000000000000000000602082015290506000805b846020015151811015612f88576000821115612f5057612f4d612f4460408051908101604052806001815260200160fa60020a600b028152506127ef565b612171856127ef565b92505b612f7a612f446124e7876020015184815181101515612f6b57fe5b90602001906020020151613214565b925060019182019101612f06565b612fc9612f446040805190810160405280600a81526020017f5d2c22726f7773223a5b000000000000000000000000000000000000000000008152506127ef565b925060009150600090505b84604001515181101561304a57600082111561301557613012612f4460408051908101604052806001815260200160fa60020a600b028152506127ef565b92505b61303c612f4486604001518381518110151561302d57fe5b906020019060200201516127ef565b925060019182019101612fd4565b61308b612f446040805190810160405280600281526020017f5d7d0000000000000000000000000000000000000000000000000000000000008152506127ef565b93506130c9565b60408051808201909152600481527f6e756c6c00000000000000000000000000000000000000000000000000000000602082015293505b505050919050565b60408051602a80825260608083019093528291600091829182916020820161054080388339505081519195507f300000000000000000000000000000000000000000000000000000000000000091869150600090811061312d57fe5b906020010190600160f860020a031916908160001a90535083517f7800000000000000000000000000000000000000000000000000000000000000908590600190811061317657fe5b906020010190600160f860020a031916908160001a905350859250600091505b602882101561320a57506030600f8316016039600160a060020a03821611156131bd576027015b8060f860020a0284836028036001018151811015156131d857fe5b906020010190600160f860020a031916908160001a9053506010600160a060020a038416049250600190910190613196565b5091949350505050565b606080826000015115612c98576040805190810160405280600781526020017f7b226964223a2200000000000000000000000000000000000000000000000000815250905061326961216884602001516127ef565b90506132ac6121686040805190810160405280600181526020017f22000000000000000000000000000000000000000000000000000000000000008152506127ef565b6080840151519091501561333d576132e261216860408051908101604052806001815260200160fa60020a600b028152506127ef565b90506133256121686040805190810160405280600981526020017f22616374696f6e223a00000000000000000000000000000000000000000000008152506127ef565b905061333a6121686124e78560800151612d17565b90505b61337e6121686040805190810160405280600981526020017f2c2274797065223a2200000000000000000000000000000000000000000000008152506127ef565b905061339061216884604001516127ef565b90506133d36121686040805190810160405280600b81526020017f222c226c6162656c223a220000000000000000000000000000000000000000008152506127ef565b9050612e7761216884606001516127ef565b828054600181600116156101000203166002900490600052602060002090601f016020900481019282601f1061342657805160ff1916838001178555613453565b82800160010185558215613453579182015b82811115613453578251825591602001919060010190613438565b5061345f929150613556565b5090565b60a06040519081016040528060608152602001606081526020016060815260200160008152602001606081525090565b6101a060405190810160405280600015158152602001606081526020016060815260200160608152602001606081526020016134cd6134df565b81526020016134da613570565b905290565b6040805160a081018252600080825260208201526060918101829052818101829052608081019190915290565b610120604051908101604052806000151581526020016060815260200160608152602001606081526020016134da6134df565b604080518082019091526000808252602082015290565b61137691905b8082111561345f576000815560010161355c565b60606040519081016040528060001515815260200160608152602001606081525090560072656d6f76650000000000000000000000000000000000000000000000000000a165627a7a72305820740f2020b971c3f3c7d92a93f92a0f7f949ea2f5fa85312dc05c10e8d5e577140029",
  "source": "pragma solidity ^0.4.24;\n\nimport \"tokenboost-solidity/contracts/widget/Localizable.sol\";\nimport \"tokenboost-solidity/contracts/widget/Widgets.sol\";\nimport \"../VeriffKycStrategy.sol\";\n\ncontract VeriffKycStrategyAdminWidgetRenderer is Localizable {\n    using Widgets for Widgets.Widget;\n    using Elements for Elements.Element;\n    using strings for *;\n\n    string public constant BLACKLISTED_COUNTRIES = \"blacklisted_countries\";\n    string public constant BLACKLISTED_COUNTRIES_SHORT_DESC = \"blacklisted_countries_short_desc\";\n    string public constant BLACKLISTED_COUNTRIES_LONG_DESC = \"blacklisted_countries_long_desc\";\n    string public constant WHITELISTED_COUNTRIES = \"whitelisted_countries\";\n    string public constant WHITELISTED_COUNTRIES_SHORT_DESC = \"whitelisted_countries_short_desc\";\n    string public constant WHITELISTED_COUNTRIES_LONG_DESC = \"whitelisted_countries_long_desc\";\n    string public constant COUNTRY_NAME = \"country_name\";\n    string public constant COUNTRY_CODE = \"country_code\";\n    string public constant ADD = \"add\";\n    string public constant ADD_CONFIRM = \"add_confirm\";\n    string public constant REMOVE = \"remove\";\n    string public constant REMOVE_CONFIRM = \"remove_confirm\";\n\n    function render(string _locale, VeriffKycStrategy _strategy) public view returns (string) {\n        bool blacklisted = _strategy.blacklisted();\n        return string(abi.encodePacked(\"[\", _tableWidget(_locale, _strategy, blacklisted, true),\n            \",\", _tableWidget(_locale, _strategy, blacklisted, false), \"]\"));\n    }\n\n    function _tableWidget(string _locale, VeriffKycStrategy _strategy, bool _blacklist, bool _added) private view returns (string json) {\n        Elements.Element[] memory elements = new Elements.Element[](1);\n        elements[0] = Elements.Element(\n            true,\n            _blacklist ? BLACKLISTED_COUNTRIES : WHITELISTED_COUNTRIES,\n            \"table\",\n            \"\",\n            \"null\",\n            Actions.empty(),\n            Tables.Table(\n                true,\n                _columns(_locale, _strategy, _blacklist, _added),\n                _rows(_locale, _strategy, _blacklist, _added)\n            )\n        );\n        Widgets.Widget memory widget = Widgets.Widget(\n            resources[_locale][_blacklist ? BLACKLISTED_COUNTRIES : WHITELISTED_COUNTRIES],\n            resources[_locale][_blacklist ? BLACKLISTED_COUNTRIES_SHORT_DESC : WHITELISTED_COUNTRIES_SHORT_DESC],\n            resources[_locale][_blacklist ? BLACKLISTED_COUNTRIES_LONG_DESC : WHITELISTED_COUNTRIES_LONG_DESC],\n            6,\n            elements\n        );\n        return widget.toJson();\n    }\n\n    function _columns(string _locale, VeriffKycStrategy _strategy, bool _blacklist, bool _added) private view returns (Tables.Column[]) {\n        Tables.Column[] memory columns = new Tables.Column[](3);\n        columns[0] = Tables.Column(\n            true,\n            COUNTRY_NAME,\n            \"text\",\n            resources[_locale][COUNTRY_NAME],\n            Actions.empty()\n        );\n        columns[1] = Tables.Column(\n            true,\n            COUNTRY_CODE,\n            \"text\",\n            resources[_locale][COUNTRY_CODE],\n            Actions.empty()\n        );\n        columns[2] = Tables.Column(\n            true,\n            _added ? REMOVE : ADD,\n            \"button\",\n            resources[_locale][_added ? REMOVE : ADD],\n            Actions.Action(\n                true,\n                address(_strategy),\n                string(abi.encodePacked((_added ? \"remove\" : \"add\"), (_blacklist ? \"Reject\" : \"Allow\"), \"edCountryCode(string)\")),\n                '[\"country_code\"]',\n                resources[_locale][_added ? REMOVE_CONFIRM : ADD_CONFIRM]\n            )\n        );\n        return columns;\n    }\n\n    function _rows(string _locale, VeriffKycStrategy _strategy, bool _blacklisted, bool _added) private view returns (string[]) {\n        uint i;\n        string memory code;\n        uint number = 0;\n        for (i = 0; i < _strategy.numberOfCountryCodes(); i++) {\n            code = _strategy.countryCodeAt(i);\n            if (_codeIncluded(_strategy, _blacklisted, _added, code)) {\n                number++;\n            }\n        }\n        string[] memory rows = new string[](number);\n        uint count = 0;\n        for (i = 0; i < _strategy.numberOfCountryCodes(); i++) {\n            code = _strategy.countryCodeAt(i);\n            if (_codeIncluded(_strategy, _blacklisted, _added, code)) {\n                string memory row = '{\"country_code\":\"';\n                row = row.toSlice().concat(code.toSlice());\n                row = row.toSlice().concat('\",\"country_name\":\"'.toSlice());\n                row = row.toSlice().concat(resources[_locale][code].toSlice());\n                row = row.toSlice().concat('\"}'.toSlice());\n                rows[count++] = row;\n            }\n        }\n        return rows;\n    }\n\n    function _codeIncluded(VeriffKycStrategy _strategy, bool _blacklisted, bool _added, string _code) private view returns (bool) {\n        bool included;\n        if (_blacklisted) {\n            included = _strategy.countryCodeRejected(_code);\n        } else {\n            included = _strategy.countryCodeAllowed(_code);\n        }\n        if (!_added) {\n            included = !included;\n        }\n        return included;\n    }\n}\n",
  "sourcePath": "/Users/yoonjae/SolidityProjects/tokenboost-solidity-erc20sale-strategies/contracts/strategy/sale/erc20/veriff-kyc/widget/VeriffKycStrategyAdminWidgetRenderer.sol",
  "compiler": {
    "name": "solc",
    "version": "0.4.24+commit.e67f0147.Emscripten.clang"
  },
  "schemaVersion": "2.0.1",
  "updatedAt": "2018-10-23T18:58:05.980Z"
}