{
  "contractName": "VeriffKycStrategyRenderer",
  "abi": [
    {
      "constant": true,
      "inputs": [],
      "name": "START_KYC_SHORT_DESC",
      "outputs": [
        {
          "name": "",
          "type": "string"
        }
      ],
      "payable": false,
      "stateMutability": "view",
      "type": "function"
    },
    {
      "constant": true,
      "inputs": [],
      "name": "START_KYC",
      "outputs": [
        {
          "name": "",
          "type": "string"
        }
      ],
      "payable": false,
      "stateMutability": "view",
      "type": "function"
    },
    {
      "constant": false,
      "inputs": [],
      "name": "renounceOwnership",
      "outputs": [],
      "payable": false,
      "stateMutability": "nonpayable",
      "type": "function"
    },
    {
      "constant": true,
      "inputs": [],
      "name": "owner",
      "outputs": [
        {
          "name": "",
          "type": "address"
        }
      ],
      "payable": false,
      "stateMutability": "view",
      "type": "function"
    },
    {
      "constant": true,
      "inputs": [],
      "name": "START_KYC_LONG_DESC",
      "outputs": [
        {
          "name": "",
          "type": "string"
        }
      ],
      "payable": false,
      "stateMutability": "view",
      "type": "function"
    },
    {
      "constant": false,
      "inputs": [
        {
          "name": "locale",
          "type": "string"
        },
        {
          "name": "key",
          "type": "string"
        },
        {
          "name": "value",
          "type": "string"
        }
      ],
      "name": "setResource",
      "outputs": [],
      "payable": false,
      "stateMutability": "nonpayable",
      "type": "function"
    },
    {
      "constant": false,
      "inputs": [
        {
          "name": "_newOwner",
          "type": "address"
        }
      ],
      "name": "transferOwnership",
      "outputs": [],
      "payable": false,
      "stateMutability": "nonpayable",
      "type": "function"
    },
    {
      "constant": true,
      "inputs": [
        {
          "name": "locale",
          "type": "string"
        },
        {
          "name": "key",
          "type": "string"
        }
      ],
      "name": "resource",
      "outputs": [
        {
          "name": "",
          "type": "string"
        }
      ],
      "payable": false,
      "stateMutability": "view",
      "type": "function"
    },
    {
      "anonymous": false,
      "inputs": [
        {
          "indexed": true,
          "name": "previousOwner",
          "type": "address"
        }
      ],
      "name": "OwnershipRenounced",
      "type": "event"
    },
    {
      "anonymous": false,
      "inputs": [
        {
          "indexed": true,
          "name": "previousOwner",
          "type": "address"
        },
        {
          "indexed": true,
          "name": "newOwner",
          "type": "address"
        }
      ],
      "name": "OwnershipTransferred",
      "type": "event"
    },
    {
      "constant": true,
      "inputs": [
        {
          "name": "_locale",
          "type": "string"
        },
        {
          "name": "_strategy",
          "type": "address"
        }
      ],
      "name": "adminWidgets",
      "outputs": [
        {
          "name": "",
          "type": "string"
        }
      ],
      "payable": false,
      "stateMutability": "view",
      "type": "function"
    },
    {
      "constant": true,
      "inputs": [
        {
          "name": "_locale",
          "type": "string"
        },
        {
          "name": "_strategy",
          "type": "address"
        }
      ],
      "name": "userWidgets",
      "outputs": [
        {
          "name": "",
          "type": "string"
        }
      ],
      "payable": false,
      "stateMutability": "view",
      "type": "function"
    },
    {
      "constant": true,
      "inputs": [
        {
          "name": "_locale",
          "type": "string"
        },
        {
          "name": "_strategy",
          "type": "address"
        }
      ],
      "name": "inputs",
      "outputs": [
        {
          "name": "",
          "type": "string"
        }
      ],
      "payable": false,
      "stateMutability": "view",
      "type": "function"
    }
  ],
  "bytecode": "0x608060405260008054600160a060020a03191633179055612152806100256000396000f3006080604052600436106100ae5763ffffffff7c0100000000000000000000000000000000000000000000000000000000600035041663627d08b881146100b35780636b1716421461013d578063715018a6146101525780638da5cb5b14610169578063b26151ac1461019a578063bf3bed54146101af578063e77cee3d14610213578063e9499555146101af578063ed3487fe14610277578063f2fde38b1461034c578063f65a5c1b1461036d575b600080fd5b3480156100bf57600080fd5b506100c8610404565b6040805160208082528351818301528351919283929083019185019080838360005b838110156101025781810151838201526020016100ea565b50505050905090810190601f16801561012f5780820380516001836020036101000a031916815260200191505b509250505060405180910390f35b34801561014957600080fd5b506100c861043b565b34801561015e57600080fd5b50610167610460565b005b34801561017557600080fd5b5061017e6104cc565b60408051600160a060020a039092168252519081900360200190f35b3480156101a657600080fd5b506100c86104db565b3480156101bb57600080fd5b506040805160206004803580820135601f81018490048402850184019095528484526100c894369492936024939284019190819084018382808284375094975050509235600160a060020a0316935061051292505050565b34801561021f57600080fd5b506040805160206004803580820135601f81018490048402850184019095528484526100c894369492936024939284019190819084018382808284375094975050509235600160a060020a0316935061054b92505050565b34801561028357600080fd5b506040805160206004803580820135601f810184900484028501840190955284845261016794369492936024939284019190819084018382808284375050604080516020601f89358b018035918201839004830284018301909452808352979a99988101979196509182019450925082915084018382808284375050604080516020601f89358b018035918201839004830284018301909452808352979a9998810197919650918201945092508291508401838280828437509497506106159650505050505050565b34801561035857600080fd5b50610167600160a060020a0360043516610702565b34801561037957600080fd5b506040805160206004803580820135601f81018490048402850184019095528484526100c894369492936024939284019190819084018382808284375050604080516020601f89358b018035918201839004830284018301909452808352979a9998810197919650918201945092508291508401838280828437509497506107259650505050505050565b60408051808201909152601481527f73746172745f6b79635f73686f72745f64657363000000000000000000000000602082015281565b6040805180820190915260098152600080516020612107833981519152602082015281565b600054600160a060020a0316331461047757600080fd5b60008054604051600160a060020a03909116917ff8df31144d9c2f0f6b59d69b8b98abd5459d07f2742c4df920b25aae33c6482091a26000805473ffffffffffffffffffffffffffffffffffffffff19169055565b600054600160a060020a031681565b60408051808201909152601381527f73746172745f6b79635f6c6f6e675f6465736300000000000000000000000000602082015281565b505060408051808201909152600281527f5b5d000000000000000000000000000000000000000000000000000000000000602082015290565b60606105578383610876565b60405160200180807f5b0000000000000000000000000000000000000000000000000000000000000081525060010182805190602001908083835b602083106105b15780518252601f199092019160209182019101610592565b6001836020036101000a038019825116818451168082178552505050505050905001807f5d00000000000000000000000000000000000000000000000000000000000000815250600101915050604051602081830303815290604052905092915050565b600054600160a060020a0316331461062c57600080fd5b806001846040518082805190602001908083835b6020831061065f5780518252601f199092019160209182019101610640565b51815160209384036101000a6000190180199092169116179052920194855250604051938490038101842087519094889450925082918401908083835b602083106106bb5780518252601f19909201916020918201910161069c565b51815160209384036101000a600019018019909216911617905292019485525060405193849003810190932084516106fc9591949190910192509050611f57565b50505050565b600054600160a060020a0316331461071957600080fd5b61072281610f8d565b50565b60606001836040518082805190602001908083835b602083106107595780518252601f19909201916020918201910161073a565b51815160209384036101000a6000190180199092169116179052920194855250604051938490038101842086519094879450925082918401908083835b602083106107b55780518252601f199092019160209182019101610796565b518151600019602094850361010090810a820192831692199390931691909117909252949092019687526040805197889003820188208054601f60026001831615909802909501169590950492830182900482028801820190528187529294509250508301828280156108695780601f1061083e57610100808354040283529160200191610869565b820191906000526020600020905b81548152906001019060200180831161084c57829003601f168201915b5050505050905092915050565b606080610881611fd5565b60408051600180825281830190925290816020015b61089e612005565b81526020019060019003908161089657905050915060e06040519081016040528060011515815260200160408051908101604052806009815260200160008051602061210783398151915281525081526020016040805190810160405280601181526020017f7665726966662d6b79632d627574746f6e00000000000000000000000000000081525081526020016001876040518082805190602001908083835b6020831061095e5780518252601f19909201916020918201910161093f565b51815160209384036101000a60001901801990921691161790529201948552506040805194859003820185208582018252600980875260008051602061210783398151915293870193845291519095945092508291908083835b602083106109d75780518252601f1990920191602091820191016109b8565b518151600019602094850361010090810a820192831692199390931691909117909252949092019687526040805197889003820188208054601f6002600183161590980290950116959095049283018290048202880182019052818752929450925050830182828015610a8b5780601f10610a6057610100808354040283529160200191610a8b565b820191906000526020600020905b815481529060010190602001808311610a6e57829003601f168201915b505050505081526020016040805190810160405280600481526020017f6e756c6c000000000000000000000000000000000000000000000000000000008152508152602001610ad861100a565b8152602001610ae561105d565b9052825183906000908110610af657fe5b9060200190602002018190525060a0604051908101604052806001876040518082805190602001908083835b60208310610b415780518252601f199092019160209182019101610b22565b51815160209384036101000a60001901801990921691161790529201948552506040805194859003820185208582018252600980875260008051602061210783398151915293870193845291519095945092508291908083835b60208310610bba5780518252601f199092019160209182019101610b9b565b518151600019602094850361010090810a820192831692199390931691909117909252949092019687526040805197889003820188208054601f6002600183161590980290950116959095049283018290048202880182019052818752929450925050830182828015610c6e5780601f10610c4357610100808354040283529160200191610c6e565b820191906000526020600020905b815481529060010190602001808311610c5157829003601f168201915b505050505081526020016001876040518082805190602001908083835b60208310610caa5780518252601f199092019160209182019101610c8b565b51815160209384036101000a6000190180199092169116179052920194855250604080519485900382018520858201825260148087527f73746172745f6b79635f73686f72745f6465736300000000000000000000000093870193845291519095945092508291908083835b60208310610d355780518252601f199092019160209182019101610d16565b518151600019602094850361010090810a820192831692199390931691909117909252949092019687526040805197889003820188208054601f6002600183161590980290950116959095049283018290048202880182019052818752929450925050830182828015610de95780601f10610dbe57610100808354040283529160200191610de9565b820191906000526020600020905b815481529060010190602001808311610dcc57829003601f168201915b505050505081526020016001876040518082805190602001908083835b60208310610e255780518252601f199092019160209182019101610e06565b51815160209384036101000a6000190180199092169116179052920194855250604080519485900382018520858201825260138087527f73746172745f6b79635f6c6f6e675f646573630000000000000000000000000093870193845291519095945092508291908083835b60208310610eb05780518252601f199092019160209182019101610e91565b518151600019602094850361010090810a820192831692199390931691909117909252949092019687526040805197889003820188208054601f6002600183161590980290950116959095049283018290048202880182019052818752929450925050830182828015610f645780601f10610f3957610100808354040283529160200191610f64565b820191906000526020600020905b815481529060010190602001808311610f4757829003601f168201915b5050505050815260200160048152602001838152509050610f84816110ea565b95945050505050565b600160a060020a0381161515610fa257600080fd5b60008054604051600160a060020a03808516939216917f8be0079c531659141344cd1fd0a4f28419497f9722a3daafe3b4186f6b6457e091a36000805473ffffffffffffffffffffffffffffffffffffffff1916600160a060020a0392909216919091179055565b611012612051565b506040805160a0810182526000808252602080830182905283518082018552828152838501528351808201855282815260608401528351908101909352825260808101919091525b90565b61106561207e565b604080516060810182526000808252825181815260208181019094529192830191906110a7565b6110946120a2565b81526020019060019003908161108c5790505b50815260200160006040519080825280602002602001820160405280156110e257816020015b60608152602001906001900390816110cd5790505b509052905090565b60408051808201909152600a81527f7b227469746c65223a220000000000000000000000000000000000000000000060208201528151606091906000906111499061113490611358565b61113d84611358565b9063ffffffff61138116565b915061118c6111346040805190810160405280600f81526020017f222c2273686f727444657363223a220000000000000000000000000000000000815250611358565b915061119e6111348560200151611358565b91506111e16111346040805190810160405280600e81526020017f222c226c6f6e6744657363223a22000000000000000000000000000000000000815250611358565b91506111f36111348560400151611358565b91506112366111346040805190810160405280600a81526020017f222c227769647468223a00000000000000000000000000000000000000000000815250611358565b915061125061113461124b86606001516113f8565b611358565b91506112936111346040805190810160405280600d81526020017f2c22656c656d656e7473223a5b00000000000000000000000000000000000000815250611358565b9150600090505b83608001515181101561130f5760008111156112db576112d861113460408051908101604052806001815260200160fa60020a600b02815250611358565b91505b61130561113461124b8660800151848151811015156112f657fe5b90602001906020020151611557565b915060010161129a565b6113506111346040805190810160405280600281526020017f5d7d000000000000000000000000000000000000000000000000000000000000815250611358565b949350505050565b6113606120d5565b50604080518082019091528151815260208281019082018190525b50919050565b606080600083600001518560000151016040519080825280601f01601f1916602001820160405280156113be578160200160208202803883390190505b5091506020820190506113da8186602001518760000151611845565b8451602085015185516113f09284019190611845565b509392505050565b606080600081818515156114415760408051808201909152600181527f30000000000000000000000000000000000000000000000000000000000000006020820152945061154e565b6040805160208082528183019092529080820161040080388339019050509350600092505b60008611156114b357600a860660300160f860020a02848481518110151561148a57fe5b906020010190600160f860020a031916908160001a905350600a86049550600190920191611466565b60408051848152601f19601f860116810160200190915260001984019380156114e6578160200160208202803883390190505b509150600090505b815181101561154a5783516000198401938591811061150957fe5b90602001015160f860020a900460f860020a02828281518110151561152a57fe5b906020010190600160f860020a031916908160001a9053506001016114ee565b8194505b50505050919050565b60608082600001511561180a576040805190810160405280600781526020017f7b226964223a220000000000000000000000000000000000000000000000000081525090506115b56115ac8460200151611358565b61113d83611358565b90506115f86115ac6040805190810160405280600181526020017f2200000000000000000000000000000000000000000000000000000000000000815250611358565b60a0840151519091501561165f576116476115ac6040805190810160405280600b81526020017f2c2022616374696f6e223a000000000000000000000000000000000000000000815250611358565b905061165c6115ac61124b8560a00151611889565b90505b60c083015151156116c3576116ab6115ac6040805190810160405280600a81526020017f2c20227461626c65223a00000000000000000000000000000000000000000000815250611358565b90506116c06115ac61124b8560c00151611a2c565b90505b6117046115ac6040805190810160405280600981526020017f2c2274797065223a220000000000000000000000000000000000000000000000815250611358565b90506117166115ac8460400151611358565b90506117596115ac6040805190810160405280600b81526020017f222c226c6162656c223a22000000000000000000000000000000000000000000815250611358565b905061176b6115ac8460600151611358565b90506117ae6115ac6040805190810160405280600981526020017f222c2264617461223a0000000000000000000000000000000000000000000000815250611358565b90506117c06115ac8460800151611358565b90506118036115ac6040805190810160405280600181526020017f7d00000000000000000000000000000000000000000000000000000000000000815250611358565b915061137b565b60408051808201909152600481527f6e756c6c000000000000000000000000000000000000000000000000000000006020820152915061137b565b60005b6020821061186a578251845260209384019390920191601f1990910190611848565b50905182516020929092036101000a6000190180199091169116179052565b60608082600001511561180a576040805190810160405280600c81526020017f7b2261646472657373223a22000000000000000000000000000000000000000081525090506118ea6115ac61124b8560200151600160a060020a0316611c43565b905061192d6115ac6040805190810160405280601681526020017f222c2266756e6374696f6e53656c6563746f72223a2200000000000000000000815250611358565b905061193f6115ac8460400151611358565b90506119826115ac6040805190810160405280600e81526020017f222c22617267756d656e7473223a000000000000000000000000000000000000815250611358565b90506119946115ac8460600151611358565b90506119d76115ac6040805190810160405280600c81526020017f2c22636f6e6669726d223a220000000000000000000000000000000000000000815250611358565b90506119e96115ac8460800151611358565b90506118036115ac6040805190810160405280600281526020017f227d000000000000000000000000000000000000000000000000000000000000815250611358565b606080600080846000015115611c0457505060408051808201909152600c81527f7b22636f6c756d6e73223a5b0000000000000000000000000000000000000000602082015290506000805b846020015151811015611afa576000821115611ac257611abf611ab660408051908101604052806001815260200160fa60020a600b02815250611358565b61113d85611358565b92505b611aec611ab661124b876020015184815181101515611add57fe5b90602001906020020151611d86565b925060019182019101611a78565b611b3b611ab66040805190810160405280600a81526020017f5d2c22726f7773223a5b00000000000000000000000000000000000000000000815250611358565b925060009150600090505b846040015151811015611bbc576000821115611b8757611b84611ab660408051908101604052806001815260200160fa60020a600b02815250611358565b92505b611bae611ab6866040015183815181101515611b9f57fe5b90602001906020020151611358565b925060019182019101611b46565b611bfd611ab66040805190810160405280600281526020017f5d7d000000000000000000000000000000000000000000000000000000000000815250611358565b9350611c3b565b60408051808201909152600481527f6e756c6c00000000000000000000000000000000000000000000000000000000602082015293505b505050919050565b60408051602a80825260608083019093528291600091829182916020820161054080388339505081519195507f3000000000000000000000000000000000000000000000000000000000000000918691506000908110611c9f57fe5b906020010190600160f860020a031916908160001a90535083517f78000000000000000000000000000000000000000000000000000000000000009085906001908110611ce857fe5b906020010190600160f860020a031916908160001a905350859250600091505b6028821015611d7c57506030600f8316016039600160a060020a0382161115611d2f576027015b8060f860020a028483602803600101815181101515611d4a57fe5b906020010190600160f860020a031916908160001a9053506010600160a060020a038416049250600190910190611d08565b5091949350505050565b60608082600001511561180a576040805190810160405280600781526020017f7b226964223a22000000000000000000000000000000000000000000000000008152509050611ddb6115ac8460200151611358565b9050611e1e6115ac6040805190810160405280600181526020017f2200000000000000000000000000000000000000000000000000000000000000815250611358565b60808401515190915015611eaf57611e546115ac60408051908101604052806001815260200160fa60020a600b02815250611358565b9050611e976115ac6040805190810160405280600981526020017f22616374696f6e223a0000000000000000000000000000000000000000000000815250611358565b9050611eac6115ac61124b8560800151611889565b90505b611ef06115ac6040805190810160405280600981526020017f2c2274797065223a220000000000000000000000000000000000000000000000815250611358565b9050611f026115ac8460400151611358565b9050611f456115ac6040805190810160405280600b81526020017f222c226c6162656c223a22000000000000000000000000000000000000000000815250611358565b90506119e96115ac8460600151611358565b828054600181600116156101000203166002900490600052602060002090601f016020900481019282601f10611f9857805160ff1916838001178555611fc5565b82800160010185558215611fc5579182015b82811115611fc5578251825591602001919060010190611faa565b50611fd19291506120ec565b5090565b60a06040519081016040528060608152602001606081526020016060815260200160008152602001606081525090565b6101a0604051908101604052806000151581526020016060815260200160608152602001606081526020016060815260200161203f612051565b815260200161204c61207e565b905290565b6040805160a081018252600080825260208201526060918101829052818101829052608081019190915290565b60606040519081016040528060001515815260200160608152602001606081525090565b6101206040519081016040528060001515815260200160608152602001606081526020016060815260200161204c612051565b604080518082019091526000808252602082015290565b61105a91905b80821115611fd157600081556001016120f2560073746172745f6b79630000000000000000000000000000000000000000000000a165627a7a72305820ad457df5efdb1e37fc32487c12de5a0d9fb5c78809c7a33e4c94a0ba9ebd558e0029",
  "source": "pragma solidity ^0.4.24;\n\nimport \"tokenboost-solidity/contracts/widget/Localizable.sol\";\nimport \"tokenboost-solidity/contracts/widget/Widgets.sol\";\nimport \"../VeriffKycStrategy.sol\";\n\ncontract VeriffKycStrategyRenderer is Localizable {\n    using Widgets for Widgets.Widget;\n    using Elements for Elements.Element;\n    using strings for *;\n    using UintUtils for uint;\n    using AddressUtils for address;\n\n    string public constant START_KYC = \"start_kyc\";\n    string public constant START_KYC_SHORT_DESC = \"start_kyc_short_desc\";\n    string public constant START_KYC_LONG_DESC = \"start_kyc_long_desc\";\n\n    function adminWidgets(string _locale, VeriffKycStrategy _strategy) public view returns (string) {\n        return \"[]\";\n    }\n\n    function userWidgets(string _locale, VeriffKycStrategy _strategy) public view returns (string) {\n        return string(abi.encodePacked(\"[\", _processKycWidget(_locale, _strategy), \"]\"));\n    }\n\n    function _processKycWidget(string _locale, VeriffKycStrategy _strategy) private view returns (string json) {\n        Elements.Element[] memory elements = new Elements.Element[](1);\n        elements[0] = Elements.Element(\n            true,\n            START_KYC,\n            \"veriff-kyc-button\",\n            resources[_locale][START_KYC],\n            \"null\",\n            Actions.empty(),\n            Tables.empty()\n        );\n        Widgets.Widget memory widget = Widgets.Widget(\n            resources[_locale][START_KYC],\n            resources[_locale][START_KYC_SHORT_DESC],\n            resources[_locale][START_KYC_LONG_DESC],\n            4,\n            elements\n        );\n        return widget.toJson();\n    }\n\n    function inputs(string _locale, VeriffKycStrategy _strategy) public view returns (string) {\n        return \"[]\";\n    }\n}\n",
  "sourcePath": "/Users/yoonjae/SolidityProjects/tokenboost-solidity-erc20sale-strategies/contracts/strategy/sale/erc20/veriff-kyc/widget/VeriffKycStrategyRenderer.sol",
  "compiler": {
    "name": "solc",
    "version": "0.4.24+commit.e67f0147.Emscripten.clang"
  },
  "schemaVersion": "2.0.1",
  "updatedAt": "2018-10-11T14:20:59.201Z"
}