{
  "contractName": "VeriffKycStrategy",
  "abi": [
    {
      "constant": true,
      "inputs": [
        {
          "name": "_interfaceId",
          "type": "bytes4"
        }
      ],
      "name": "supportsInterface",
      "outputs": [
        {
          "name": "",
          "type": "bool"
        }
      ],
      "payable": false,
      "stateMutability": "view",
      "type": "function"
    },
    {
      "constant": false,
      "inputs": [],
      "name": "activate",
      "outputs": [
        {
          "name": "",
          "type": "bool"
        }
      ],
      "payable": false,
      "stateMutability": "nonpayable",
      "type": "function"
    },
    {
      "constant": true,
      "inputs": [],
      "name": "activated",
      "outputs": [
        {
          "name": "",
          "type": "bool"
        }
      ],
      "payable": false,
      "stateMutability": "view",
      "type": "function"
    },
    {
      "constant": true,
      "inputs": [],
      "name": "InterfaceId_ERC165",
      "outputs": [
        {
          "name": "",
          "type": "bytes4"
        }
      ],
      "payable": false,
      "stateMutability": "view",
      "type": "function"
    },
    {
      "constant": false,
      "inputs": [],
      "name": "deactivate",
      "outputs": [
        {
          "name": "",
          "type": "bool"
        }
      ],
      "payable": false,
      "stateMutability": "nonpayable",
      "type": "function"
    },
    {
      "constant": true,
      "inputs": [],
      "name": "blacklisted",
      "outputs": [
        {
          "name": "",
          "type": "bool"
        }
      ],
      "payable": false,
      "stateMutability": "view",
      "type": "function"
    },
    {
      "constant": true,
      "inputs": [],
      "name": "InterfaceId_Strategy",
      "outputs": [
        {
          "name": "",
          "type": "bytes4"
        }
      ],
      "payable": false,
      "stateMutability": "view",
      "type": "function"
    },
    {
      "constant": true,
      "inputs": [],
      "name": "sale",
      "outputs": [
        {
          "name": "",
          "type": "address"
        }
      ],
      "payable": false,
      "stateMutability": "view",
      "type": "function"
    },
    {
      "constant": true,
      "inputs": [],
      "name": "template",
      "outputs": [
        {
          "name": "",
          "type": "address"
        }
      ],
      "payable": false,
      "stateMutability": "view",
      "type": "function"
    },
    {
      "constant": false,
      "inputs": [],
      "name": "renounceOwnership",
      "outputs": [],
      "payable": false,
      "stateMutability": "nonpayable",
      "type": "function"
    },
    {
      "constant": true,
      "inputs": [],
      "name": "renderer",
      "outputs": [
        {
          "name": "",
          "type": "address"
        }
      ],
      "payable": false,
      "stateMutability": "view",
      "type": "function"
    },
    {
      "constant": true,
      "inputs": [],
      "name": "owner",
      "outputs": [
        {
          "name": "",
          "type": "address"
        }
      ],
      "payable": false,
      "stateMutability": "view",
      "type": "function"
    },
    {
      "constant": true,
      "inputs": [],
      "name": "kyc",
      "outputs": [
        {
          "name": "",
          "type": "address"
        }
      ],
      "payable": false,
      "stateMutability": "view",
      "type": "function"
    },
    {
      "constant": true,
      "inputs": [],
      "name": "InterfaceId_ERC20SaleStrategy",
      "outputs": [
        {
          "name": "",
          "type": "bytes4"
        }
      ],
      "payable": false,
      "stateMutability": "view",
      "type": "function"
    },
    {
      "constant": true,
      "inputs": [],
      "name": "InterfaceId_SaleStrategy",
      "outputs": [
        {
          "name": "",
          "type": "bytes4"
        }
      ],
      "payable": false,
      "stateMutability": "view",
      "type": "function"
    },
    {
      "constant": false,
      "inputs": [
        {
          "name": "_newOwner",
          "type": "address"
        }
      ],
      "name": "transferOwnership",
      "outputs": [],
      "payable": false,
      "stateMutability": "nonpayable",
      "type": "function"
    },
    {
      "constant": true,
      "inputs": [],
      "name": "InterfaceId_Contract",
      "outputs": [
        {
          "name": "",
          "type": "bytes4"
        }
      ],
      "payable": false,
      "stateMutability": "view",
      "type": "function"
    },
    {
      "inputs": [
        {
          "name": "_owner",
          "type": "address"
        },
        {
          "name": "_sale",
          "type": "address"
        }
      ],
      "payable": false,
      "stateMutability": "nonpayable",
      "type": "constructor"
    },
    {
      "anonymous": false,
      "inputs": [
        {
          "indexed": true,
          "name": "previousOwner",
          "type": "address"
        }
      ],
      "name": "OwnershipRenounced",
      "type": "event"
    },
    {
      "anonymous": false,
      "inputs": [
        {
          "indexed": true,
          "name": "previousOwner",
          "type": "address"
        },
        {
          "indexed": true,
          "name": "newOwner",
          "type": "address"
        }
      ],
      "name": "OwnershipTransferred",
      "type": "event"
    },
    {
      "constant": true,
      "inputs": [],
      "name": "numberOfCountryCodes",
      "outputs": [
        {
          "name": "",
          "type": "uint256"
        }
      ],
      "payable": false,
      "stateMutability": "view",
      "type": "function"
    },
    {
      "constant": true,
      "inputs": [
        {
          "name": "_index",
          "type": "uint256"
        }
      ],
      "name": "countryCodeAt",
      "outputs": [
        {
          "name": "",
          "type": "string"
        }
      ],
      "payable": false,
      "stateMutability": "view",
      "type": "function"
    },
    {
      "constant": true,
      "inputs": [
        {
          "name": "_code",
          "type": "string"
        }
      ],
      "name": "countryCodeAllowed",
      "outputs": [
        {
          "name": "",
          "type": "bool"
        }
      ],
      "payable": false,
      "stateMutability": "view",
      "type": "function"
    },
    {
      "constant": true,
      "inputs": [
        {
          "name": "_code",
          "type": "string"
        }
      ],
      "name": "countryCodeRejected",
      "outputs": [
        {
          "name": "",
          "type": "bool"
        }
      ],
      "payable": false,
      "stateMutability": "view",
      "type": "function"
    },
    {
      "constant": false,
      "inputs": [
        {
          "name": "_blacklisted",
          "type": "bool"
        }
      ],
      "name": "update",
      "outputs": [],
      "payable": false,
      "stateMutability": "nonpayable",
      "type": "function"
    },
    {
      "constant": false,
      "inputs": [
        {
          "name": "_code",
          "type": "string"
        }
      ],
      "name": "addAllowedCountryCode",
      "outputs": [],
      "payable": false,
      "stateMutability": "nonpayable",
      "type": "function"
    },
    {
      "constant": false,
      "inputs": [
        {
          "name": "_code",
          "type": "string"
        }
      ],
      "name": "removeAllowedCountryCode",
      "outputs": [],
      "payable": false,
      "stateMutability": "nonpayable",
      "type": "function"
    },
    {
      "constant": false,
      "inputs": [
        {
          "name": "_code",
          "type": "string"
        }
      ],
      "name": "addRejectedCountryCode",
      "outputs": [],
      "payable": false,
      "stateMutability": "nonpayable",
      "type": "function"
    },
    {
      "constant": false,
      "inputs": [
        {
          "name": "_code",
          "type": "string"
        }
      ],
      "name": "removeRejectedCountryCode",
      "outputs": [],
      "payable": false,
      "stateMutability": "nonpayable",
      "type": "function"
    },
    {
      "constant": true,
      "inputs": [],
      "name": "started",
      "outputs": [
        {
          "name": "",
          "type": "bool"
        }
      ],
      "payable": false,
      "stateMutability": "view",
      "type": "function"
    },
    {
      "constant": true,
      "inputs": [],
      "name": "successful",
      "outputs": [
        {
          "name": "",
          "type": "bool"
        }
      ],
      "payable": false,
      "stateMutability": "view",
      "type": "function"
    },
    {
      "constant": true,
      "inputs": [],
      "name": "finished",
      "outputs": [
        {
          "name": "",
          "type": "bool"
        }
      ],
      "payable": false,
      "stateMutability": "view",
      "type": "function"
    },
    {
      "constant": true,
      "inputs": [
        {
          "name": "_purchaser",
          "type": "address"
        },
        {
          "name": "_weiAmount",
          "type": "uint256"
        }
      ],
      "name": "purchasable",
      "outputs": [
        {
          "name": "",
          "type": "bool"
        }
      ],
      "payable": false,
      "stateMutability": "view",
      "type": "function"
    },
    {
      "constant": true,
      "inputs": [
        {
          "name": "_purchaser",
          "type": "address"
        },
        {
          "name": "_weiAmount",
          "type": "uint256"
        }
      ],
      "name": "tokenRate",
      "outputs": [
        {
          "name": "",
          "type": "uint256"
        }
      ],
      "payable": false,
      "stateMutability": "view",
      "type": "function"
    },
    {
      "constant": false,
      "inputs": [
        {
          "name": "_purchaser",
          "type": "address"
        },
        {
          "name": "_tokenAmount",
          "type": "uint256"
        }
      ],
      "name": "supplyTokens",
      "outputs": [
        {
          "name": "",
          "type": "bool"
        }
      ],
      "payable": false,
      "stateMutability": "nonpayable",
      "type": "function"
    },
    {
      "constant": false,
      "inputs": [
        {
          "name": "_purchaser",
          "type": "address"
        },
        {
          "name": "_tokenAmount",
          "type": "uint256"
        }
      ],
      "name": "receivesTokens",
      "outputs": [
        {
          "name": "",
          "type": "bool"
        }
      ],
      "payable": false,
      "stateMutability": "nonpayable",
      "type": "function"
    },
    {
      "constant": true,
      "inputs": [
        {
          "name": "locale",
          "type": "string"
        }
      ],
      "name": "adminWidgets",
      "outputs": [
        {
          "name": "json",
          "type": "string"
        }
      ],
      "payable": false,
      "stateMutability": "view",
      "type": "function"
    },
    {
      "constant": true,
      "inputs": [
        {
          "name": "locale",
          "type": "string"
        }
      ],
      "name": "userWidgets",
      "outputs": [
        {
          "name": "json",
          "type": "string"
        }
      ],
      "payable": false,
      "stateMutability": "view",
      "type": "function"
    },
    {
      "constant": true,
      "inputs": [
        {
          "name": "locale",
          "type": "string"
        }
      ],
      "name": "inputs",
      "outputs": [
        {
          "name": "json",
          "type": "string"
        }
      ],
      "payable": false,
      "stateMutability": "view",
      "type": "function"
    }
  ],
  "bytecode": "0x6004805460a060020a60ff021916740100000000000000000000000000000000000000001790556102a06040526101f260808181529062001a9c60a03980516200005291600591602090910190620002b1565b503480156200006057600080fd5b5060405160408062001c8e83398101604052805160209091015160008054600160a060020a03191633179055818181818180620000c67f01ffc9a70000000000000000000000000000000000000000000000000000000064010000000062000241810204565b600160a060020a0381161515620000dc57600080fd5b6002805433600160a060020a03199182161790915560008054909116600160a060020a038316179055620001397f6125ede50000000000000000000000000000000000000000000000000000000064010000000062000241810204565b506200016e7f6e3019250000000000000000000000000000000000000000000000000000000064010000000062000241810204565b5060038054600160a060020a031916600160a060020a038316179055620001be7f04c8123d0000000000000000000000000000000000000000000000000000000064010000000062000241810204565b505060048054600160a060020a031916600160a060020a0383161790556200020f7fa0d0304b0000000000000000000000000000000000000000000000000000000064010000000062000241810204565b50506002805460a060020a60ff0219167401000000000000000000000000000000000000000017905550620003569050565b7fffffffff0000000000000000000000000000000000000000000000000000000080821614156200027157600080fd5b7fffffffff00000000000000000000000000000000000000000000000000000000166000908152600160208190526040909120805460ff19169091179055565b828054600181600116156101000203166002900490600052602060002090601f016020900481019282601f10620002f457805160ff191683800117855562000324565b8280016001018555821562000324579182015b828111156200032457825182559160200191906001019062000307565b506200033292915062000336565b5090565b6200035391905b808211156200033257600081556001016200033d565b90565b61173680620003666000396000f3006080604052600436106101a85763ffffffff60e060020a60003504166301bd341181146101ad57806301ffc9a71461027b5780630f15f4c0146102c6578063186601ca146102db57806319fa8f50146102f05780631bcae5a1146103375780631f2698ab1461034f5780632f1ea877146103645780634d917c9f146103bf5780634f9a82d6146103d957806351b42b00146103fd5780635589530e146104125780635775cfd214610448578063587775e8146104a15780635bae9ce9146104c557806364b630d8146104da5780636ad1fe02146104ef5780636f2ddd9314610520578063715018a6146105355780637f084cd31461054a5780638ada6b0f146105a35780638da5cb5b146105b8578063901e13f8146105cd578063908ba6481461062657806390d6b45f1461067f578063944ac32b146106945780639a9e3fd81461034f578063a3a8fd2c146106a9578063bef4876b1461034f578063c584756a14610702578063ce30824e14610717578063e67c8646146104a1578063f1aec4a11461072c578063f2fde38b14610785578063fbf964eb146107a6578063fcb7efb2146107bb575b600080fd5b3480156101b957600080fd5b506040805160206004803580820135601f81018490048402850184019095528484526102069436949293602493928401919081908401838280828437509497506108149650505050505050565b6040805160208082528351818301528351919283929083019185019080838360005b83811015610240578181015183820152602001610228565b50505050905090810190601f16801561026d5780820380516001836020036101000a031916815260200191505b509250505060405180910390f35b34801561028757600080fd5b506102b27bffffffffffffffffffffffffffffffffffffffffffffffffffffffff196004351661097d565b604080519115158252519081900360200190f35b3480156102d257600080fd5b506102b26109b1565b3480156102e757600080fd5b506102b2610a53565b3480156102fc57600080fd5b50610305610a74565b604080517bffffffffffffffffffffffffffffffffffffffffffffffffffffffff199092168252519081900360200190f35b34801561034357600080fd5b50610206600435610a98565b34801561035b57600080fd5b506102b2610b42565b34801561037057600080fd5b506040805160206004803580820135601f81018490048402850184019095528484526103bd943694929360249392840191908190840183828082843750949750610b479650505050505050565b005b3480156103cb57600080fd5b506103bd6004351515610bd2565b3480156103e557600080fd5b506102b2600160a060020a0360043516602435610cb7565b34801561040957600080fd5b506102b261103a565b34801561041e57600080fd5b50610436600160a060020a03600435166024356110ff565b60408051918252519081900360200190f35b34801561045457600080fd5b506040805160206004803580820135601f81018490048402850184019095528484526102b29436949293602493928401919081908401838280828437509497506111079650505050505050565b3480156104ad57600080fd5b506102b2600160a060020a03600435166024356110ff565b3480156104d157600080fd5b506102b2611172565b3480156104e657600080fd5b50610305611193565b3480156104fb57600080fd5b506105046111b7565b60408051600160a060020a039092168252519081900360200190f35b34801561052c57600080fd5b506105046111c6565b34801561054157600080fd5b506103bd6111d5565b34801561055657600080fd5b506040805160206004803580820135601f81018490048402850184019095528484526102b29436949293602493928401919081908401838280828437509497506112419650505050505050565b3480156105af57600080fd5b50610504611274565b3480156105c457600080fd5b5061050461128c565b3480156105d957600080fd5b506040805160206004803580820135601f81018490048402850184019095528484526103bd94369492936024939284019190819084018382808284375094975061129b9650505050505050565b34801561063257600080fd5b506040805160206004803580820135601f81018490048402850184019095528484526102069436949293602493928401919081908401838280828437509497506112e59650505050505050565b34801561068b57600080fd5b50610504611372565b3480156106a057600080fd5b5061030561138a565b3480156106b557600080fd5b506040805160206004803580820135601f81018490048402850184019095528484526102069436949293602493928401919081908401838280828437509497506113ae9650505050505050565b34801561070e57600080fd5b5061043661143b565b34801561072357600080fd5b50610305611440565b34801561073857600080fd5b506040805160206004803580820135601f81018490048402850184019095528484526103bd9436949293602493928401919081908401838280828437509497506114649650505050505050565b34801561079157600080fd5b506103bd600160a060020a03600435166114ae565b3480156107b257600080fd5b506103056114d1565b3480156107c757600080fd5b506040805160206004803580820135601f81018490048402850184019095528484526103bd9436949293602493928401919081908401838280828437509497506114f59650505050505050565b604080517fbf3bed54000000000000000000000000000000000000000000000000000000008152306024820181905260048201928352835160448301528351606093735f5f5665726966664b79635374726174656779529363bf3bed549387939092918291606490910190602086019080838360005b838110156108a257818101518382015260200161088a565b50505050905090810190601f1680156108cf5780820380516001836020036101000a031916815260200191505b509350505050600060405180830381600087803b1580156108ef57600080fd5b505af1158015610903573d6000803e3d6000fd5b505050506040513d6000823e601f3d908101601f19168201604052602081101561092c57600080fd5b81019080805164010000000081111561094457600080fd5b8201602081018481111561095757600080fd5b815164010000000081118282018710171561097157600080fd5b50909695505050505050565b7bffffffffffffffffffffffffffffffffffffffffffffffffffffffff191660009081526001602052604090205460ff1690565b600354604080517f186601ca0000000000000000000000000000000000000000000000000000000081529051600092600160a060020a03169163186601ca91600480830192602092919082900301818787803b158015610a1057600080fd5b505af1158015610a24573d6000803e3d6000fd5b505050506040513d6020811015610a3a57600080fd5b505115610a4657600080fd5b610a4e61153f565b905090565b60025474010000000000000000000000000000000000000000900460ff1681565b7f01ffc9a70000000000000000000000000000000000000000000000000000000081565b6005805460408051602060026001851615610100026000190190941693909304601f8101849004840282018401909252818152606093610b3c9391929091830182828015610b275780601f10610afc57610100808354040283529160200191610b27565b820191906000526020600020905b815481529060010190602001808311610b0a57829003601f168201915b5050505050836002028460020260020161155f565b92915050565b600090565b600054600160a060020a03163314610b5e57600080fd5b60016007826040518082805190602001908083835b60208310610b925780518252601f199092019160209182019101610b73565b51815160209384036101000a60001901801990921691161790529201948552506040519384900301909220805460ff191693151593909317909255505050565b600054600160a060020a03163314610be957600080fd5b600360009054906101000a9004600160a060020a0316600160a060020a031663186601ca6040518163ffffffff1660e060020a028152600401602060405180830381600087803b158015610c3c57600080fd5b505af1158015610c50573d6000803e3d6000fd5b505050506040513d6020811015610c6657600080fd5b505115610c7257600080fd5b6004805474ff000000000000000000000000000000000000000019167401000000000000000000000000000000000000000083151502179055610cb36109b1565b5050565b600060606000600460149054906101000a900460ff1615610e87575060005b610cde61143b565b811015610e7e57610cee81610a98565b91506007826040518082805190602001908083835b60208310610d225780518252601f199092019160209182019101610d03565b51815160209384036101000a600019018019909216911617905292019485525060405193849003019092205460ff16159150508015610e685750604080517f98e4dec5000000000000000000000000000000000000000000000000000000008152600160a060020a0387166004820190815260248201928352845160448301528451735f5f5665726966664b79635f5f5f5f5f5f5f5f5f936398e4dec5938a93889390929160640190602085019080838360005b83811015610dee578181015183820152602001610dd6565b50505050905090810190601f168015610e1b5780820380516001836020036101000a031916815260200191505b509350505050602060405180830381600087803b158015610e3b57600080fd5b505af1158015610e4f573d6000803e3d6000fd5b505050506040513d6020811015610e6557600080fd5b50515b15610e765760019250611032565b600101610cd6565b60009250611032565b5060005b610e9361143b565b811015610e7e57610ea381610a98565b91506006826040518082805190602001908083835b60208310610ed75780518252601f199092019160209182019101610eb8565b51815160209384036101000a600019018019909216911617905292019485525060405193849003019092205460ff16915050801561101c5750604080517f98e4dec5000000000000000000000000000000000000000000000000000000008152600160a060020a0387166004820190815260248201928352845160448301528451735f5f5665726966664b79635f5f5f5f5f5f5f5f5f936398e4dec5938a93889390929160640190602085019080838360005b83811015610fa2578181015183820152602001610f8a565b50505050905090810190601f168015610fcf5780820380516001836020036101000a031916815260200191505b509350505050602060405180830381600087803b158015610fef57600080fd5b505af1158015611003573d6000803e3d6000fd5b505050506040513d602081101561101957600080fd5b50515b1561102a5760019250611032565b600101610e8b565b505092915050565b60008054600160a060020a0316331461105257600080fd5b600360009054906101000a9004600160a060020a0316600160a060020a031663186601ca6040518163ffffffff1660e060020a028152600401602060405180830381600087803b1580156110a557600080fd5b505af11580156110b9573d6000803e3d6000fd5b505050506040513d60208110156110cf57600080fd5b5051156110db57600080fd5b506002805474ff000000000000000000000000000000000000000019169055600190565b600092915050565b60006006826040518082805190602001908083835b6020831061113b5780518252601f19909201916020918201910161111c565b51815160209384036101000a600019018019909216911617905292019485525060405193849003019092205460ff16949350505050565b60045474010000000000000000000000000000000000000000900460ff1681565b7f6e3019250000000000000000000000000000000000000000000000000000000081565b600454600160a060020a031681565b600254600160a060020a031681565b600054600160a060020a031633146111ec57600080fd5b60008054604051600160a060020a03909116917ff8df31144d9c2f0f6b59d69b8b98abd5459d07f2742c4df920b25aae33c6482091a26000805473ffffffffffffffffffffffffffffffffffffffff19169055565b60006007826040518082805190602001908083836020831061113b5780518252601f19909201916020918201910161111c565b735f5f5665726966664b796353747261746567795281565b600054600160a060020a031681565b600054600160a060020a031633146112b257600080fd5b600060078260405180828051906020019080838360208310610b925780518252601f199092019160209182019101610b73565b604080517fe77cee3d000000000000000000000000000000000000000000000000000000008152306024820181905260048201928352835160448301528351606093735f5f5665726966664b79635374726174656779529363e77cee3d938793909291829160649091019060208601908083836000838110156108a257818101518382015260200161088a565b735f5f5665726966664b79635f5f5f5f5f5f5f5f5f81565b7fa0d0304b0000000000000000000000000000000000000000000000000000000081565b604080517fe9499555000000000000000000000000000000000000000000000000000000008152306024820181905260048201928352835160448301528351606093735f5f5665726966664b79635374726174656779529363e9499555938793909291829160649091019060208601908083836000838110156108a257818101518382015260200161088a565b60f990565b7f04c8123d0000000000000000000000000000000000000000000000000000000081565b600054600160a060020a0316331461147b57600080fd5b600060068260405180828051906020019080838360208310610b925780518252601f199092019160209182019101610b73565b600054600160a060020a031633146114c557600080fd5b6114ce81611653565b50565b7f6125ede50000000000000000000000000000000000000000000000000000000081565b600054600160a060020a0316331461150c57600080fd5b600160068260405180828051906020019080838360208310610b925780518252601f199092019160209182019101610b73565b60008054600160a060020a0316331461155757600080fd5b610a4e6116d0565b606080606060008692508585036040519080825280601f01601f191660200182016040528015611599578160200160208202803883390190505b5091508590505b848110156116495782818151811015156115b657fe5b9060200101517f010000000000000000000000000000000000000000000000000000000000000090047f0100000000000000000000000000000000000000000000000000000000000000028287830381518110151561161157fe5b9060200101907effffffffffffffffffffffffffffffffffffffffffffffffffffffffffffff1916908160001a9053506001016115a0565b5095945050505050565b600160a060020a038116151561166857600080fd5b60008054604051600160a060020a03808516939216917f8be0079c531659141344cd1fd0a4f28419497f9722a3daafe3b4186f6b6457e091a36000805473ffffffffffffffffffffffffffffffffffffffff1916600160a060020a0392909216919091179055565b6002805474ff00000000000000000000000000000000000000001916740100000000000000000000000000000000000000001790556001905600a165627a7a72305820ef61f57a86f4f0f61ba6d32d839f7913da5e1188fadc4ef9e96c3b70b88795a1002941464158414c445a41534144414f4149415141474152414d415741554154415a425342484244424242594245425a424a424d4254424f42514241425742564252494f424e4247424642494b48434d434143564b5943465444434c434e43584343434f4b4d43474344434b435243494852435543574359435a444b444a444d444f4543454753564751455245454554464b464f464a464946524746504654464741474d47454445474847494752474c47444750475547544747474e475747594854484d5641484e484b48554953494e4944495249514945494d494c49544a4d4a504a454a4f4b5a4b454b494b504b524b574b474c414c564c424c534c524c594c494c544c554d4f4d4b4d474d574d594d564d4c4d544d484d514d524d5559544d58464d4d444d434d4e4d454d534d414d5a4d4d4e414e524e504e4c4e434e5a4e494e454e474e554e464d504e4f4f4d504b5057505350415047505950455048504e504c5054505251415245524f52555257424c53484b4e4c434d46504d56435753534d53545341534e52535343534c53475358534b53495342534f5a414753535345534c4b53445352534a535a5345434853595457544a545a5448544c5447544b544f5454544e5452544d5443545655475541414547425553554d5559555a56555645564e564756495746454859455a4d5a57",
  "source": "pragma solidity ^0.4.24;\n\nimport \"tokenboost-solidity/contracts/strategy/sale/erc20/ERC20SaleStrategy.sol\";\nimport \"tokenboost-solidity/contracts/widget/Renderable.sol\";\nimport \"tokenboost-veriff-kyc/contracts/VeriffKyc.sol\";\nimport \"./widget/VeriffKycStrategyRenderer.sol\";\n\ncontract VeriffKycStrategy is ERC20SaleStrategy, Renderable {\n    VeriffKycStrategyRenderer public constant renderer = VeriffKycStrategyRenderer(address(bytes20(\"__VeriffKycStrategyR\")));\n    VeriffKyc public constant kyc = VeriffKyc(address(bytes20(\"__VeriffKyc_________\")));\n\n    bool public blacklisted = true;\n    string countryCodes = \"AFAXALDZASADAOAIAQAGARAMAWAUATAZBSBHBDBBBYBEBZBJBMBTBOBQBABWBVBRIOBNBGBFBIKHCMCACVKYCFTDCLCNCXCCCOKMCGCDCKCRCIHRCUCWCYCZDKDJDMDOECEGSVGQEREEETFKFOFJFIFRGFPFTFGAGMGEDEGHGIGRGLGDGPGUGTGGGNGWGYHTHMVAHNHKHUISINIDIRIQIEIMILITJMJPJEJOKZKEKIKPKRKWKGLALVLBLSLRLYLILTLUMOMKMGMWMYMVMLMTMHMQMRMUYTMXFMMDMCMNMEMSMAMZMMNANRNPNLNCNZNINENGNUNFMPNOOMPKPWPSPAPGPYPEPHPNPLPTPRQARERORURWBLSHKNLCMFPMVCWSSMSTSASNRSSCSLSGSXSKSISBSOZAGSSSESLKSDSRSJSZSECHSYTWTJTZTHTLTGTKTOTTTNTRTMTCTVUGUAAEGBUSUMUYUZVUVEVNVGVIWFEHYEZMZW\";\n    mapping(string => bool) allowed;\n    mapping(string => bool) rejected;\n\n    constructor(address _owner, ERC20Sale _sale) public ERC20SaleStrategy(_owner, _sale) {\n        activated = true;\n    }\n\n    function numberOfCountryCodes() public view returns (uint) {\n        return 249;\n    }\n\n    function countryCodeAt(uint _index) public view returns (string) {\n        return _substring(countryCodes, _index * 2, _index * 2 + 2);\n    }\n\n    function _substring(string str, uint startIndex, uint endIndex) private view returns (string) {\n        bytes memory strBytes = bytes(str);\n        bytes memory result = new bytes(endIndex-startIndex);\n        for(uint i = startIndex; i < endIndex; i++) {\n            result[i-startIndex] = strBytes[i];\n        }\n        return string(result);\n    }\n\n    function countryCodeAllowed(string _code) public view returns (bool) {\n        return allowed[_code];\n    }\n\n    function countryCodeRejected(string _code) public view returns (bool) {\n        return rejected[_code];\n    }\n\n    function update(bool _blacklisted) onlyOwner whenSaleNotActivated public {\n        blacklisted = _blacklisted;\n        activate();\n    }\n\n    function addAllowedCountryCode(string _code) onlyOwner public {\n        allowed[_code] = true;\n    }\n\n    function removeAllowedCountryCode(string _code) onlyOwner public {\n        allowed[_code] = false;\n    }\n\n    function addRejectedCountryCode(string _code) onlyOwner public {\n        rejected[_code] = true;\n    }\n\n    function removeRejectedCountryCode(string _code) onlyOwner public {\n        rejected[_code] = false;\n    }\n\n    function started() public view returns (bool) {\n        return false;\n    }\n\n    function successful() public view returns (bool) {\n        return false;\n    }\n\n    function finished() public view returns (bool) {\n        return false;\n    }\n\n    function purchasable(address _purchaser, uint256 _weiAmount) public view returns (bool) {\n        string memory code;\n        uint i;\n        if (blacklisted) {\n            for (i = 0; i < numberOfCountryCodes(); i++) {\n                code = countryCodeAt(i);\n                if (!rejected[code] && kyc.countryVerified(_purchaser, code)) {\n                    return true;\n                }\n            }\n            return false;\n        } else {\n            for (i = 0; i < numberOfCountryCodes(); i++) {\n                code = countryCodeAt(i);\n                if (allowed[code] && kyc.countryVerified(_purchaser, code)) {\n                    return true;\n                }\n            }\n            return false;\n        }\n    }\n\n    function tokenRate(address _purchaser, uint256 _weiAmount) public view returns (uint256) {\n        return 0;\n    }\n\n    function supplyTokens(address _purchaser, uint256 _tokenAmount) public returns (bool) {\n        return false;\n    }\n\n    function receivesTokens(address _purchaser, uint256 _tokenAmount) public returns (bool) {\n        return false;\n    }\n\n    function adminWidgets(string locale) public view returns (string json) {\n        return renderer.adminWidgets(locale, this);\n    }\n\n    function userWidgets(string locale) public view returns (string json) {\n        return renderer.userWidgets(locale, this);\n    }\n\n    function inputs(string locale) public view returns (string json) {\n        return renderer.inputs(locale, this);\n    }\n}\n",
  "sourcePath": "/Users/yoonjae/SolidityProjects/tokenboost-solidity-erc20sale-strategies/contracts/strategy/sale/erc20/veriff-kyc/VeriffKycStrategy.sol",
  "compiler": {
    "name": "solc",
    "version": "0.4.24+commit.e67f0147.Emscripten.clang"
  },
  "schemaVersion": "2.0.1",
  "updatedAt": "2018-10-22T10:23:54.761Z"
}