{
  "contractName": "WhitelistStrategyRenderer",
  "abi": [
    {
      "constant": true,
      "inputs": [],
      "name": "ADD_TO_WHITELIST_LONG_DESC",
      "outputs": [
        {
          "name": "",
          "type": "string"
        }
      ],
      "payable": false,
      "stateMutability": "view",
      "type": "function"
    },
    {
      "constant": true,
      "inputs": [],
      "name": "ADD_TO_WHITELIST_SHORT_DESC",
      "outputs": [
        {
          "name": "",
          "type": "string"
        }
      ],
      "payable": false,
      "stateMutability": "view",
      "type": "function"
    },
    {
      "constant": true,
      "inputs": [],
      "name": "WHITELIST_LONG_DESC",
      "outputs": [
        {
          "name": "",
          "type": "string"
        }
      ],
      "payable": false,
      "stateMutability": "view",
      "type": "function"
    },
    {
      "constant": true,
      "inputs": [],
      "name": "WHITELIST",
      "outputs": [
        {
          "name": "",
          "type": "string"
        }
      ],
      "payable": false,
      "stateMutability": "view",
      "type": "function"
    },
    {
      "constant": true,
      "inputs": [],
      "name": "WHITELIST_SHORT_DESC",
      "outputs": [
        {
          "name": "",
          "type": "string"
        }
      ],
      "payable": false,
      "stateMutability": "view",
      "type": "function"
    },
    {
      "constant": true,
      "inputs": [],
      "name": "REMOVE",
      "outputs": [
        {
          "name": "",
          "type": "string"
        }
      ],
      "payable": false,
      "stateMutability": "view",
      "type": "function"
    },
    {
      "constant": true,
      "inputs": [],
      "name": "ADD",
      "outputs": [
        {
          "name": "",
          "type": "string"
        }
      ],
      "payable": false,
      "stateMutability": "view",
      "type": "function"
    },
    {
      "constant": false,
      "inputs": [],
      "name": "renounceOwnership",
      "outputs": [],
      "payable": false,
      "stateMutability": "nonpayable",
      "type": "function"
    },
    {
      "constant": true,
      "inputs": [],
      "name": "owner",
      "outputs": [
        {
          "name": "",
          "type": "address"
        }
      ],
      "payable": false,
      "stateMutability": "view",
      "type": "function"
    },
    {
      "constant": true,
      "inputs": [],
      "name": "ADD_CONFIRM",
      "outputs": [
        {
          "name": "",
          "type": "string"
        }
      ],
      "payable": false,
      "stateMutability": "view",
      "type": "function"
    },
    {
      "constant": true,
      "inputs": [],
      "name": "REMOVE_CONFIRM",
      "outputs": [
        {
          "name": "",
          "type": "string"
        }
      ],
      "payable": false,
      "stateMutability": "view",
      "type": "function"
    },
    {
      "constant": true,
      "inputs": [],
      "name": "ADDRESS",
      "outputs": [
        {
          "name": "",
          "type": "string"
        }
      ],
      "payable": false,
      "stateMutability": "view",
      "type": "function"
    },
    {
      "constant": true,
      "inputs": [],
      "name": "ADD_TO_WHITELIST",
      "outputs": [
        {
          "name": "",
          "type": "string"
        }
      ],
      "payable": false,
      "stateMutability": "view",
      "type": "function"
    },
    {
      "constant": false,
      "inputs": [
        {
          "name": "locale",
          "type": "string"
        },
        {
          "name": "key",
          "type": "string"
        },
        {
          "name": "value",
          "type": "string"
        }
      ],
      "name": "setResource",
      "outputs": [],
      "payable": false,
      "stateMutability": "nonpayable",
      "type": "function"
    },
    {
      "constant": false,
      "inputs": [
        {
          "name": "_newOwner",
          "type": "address"
        }
      ],
      "name": "transferOwnership",
      "outputs": [],
      "payable": false,
      "stateMutability": "nonpayable",
      "type": "function"
    },
    {
      "constant": true,
      "inputs": [
        {
          "name": "locale",
          "type": "string"
        },
        {
          "name": "key",
          "type": "string"
        }
      ],
      "name": "resource",
      "outputs": [
        {
          "name": "",
          "type": "string"
        }
      ],
      "payable": false,
      "stateMutability": "view",
      "type": "function"
    },
    {
      "anonymous": false,
      "inputs": [
        {
          "indexed": true,
          "name": "previousOwner",
          "type": "address"
        }
      ],
      "name": "OwnershipRenounced",
      "type": "event"
    },
    {
      "anonymous": false,
      "inputs": [
        {
          "indexed": true,
          "name": "previousOwner",
          "type": "address"
        },
        {
          "indexed": true,
          "name": "newOwner",
          "type": "address"
        }
      ],
      "name": "OwnershipTransferred",
      "type": "event"
    },
    {
      "constant": true,
      "inputs": [
        {
          "name": "_locale",
          "type": "string"
        },
        {
          "name": "_strategy",
          "type": "address"
        }
      ],
      "name": "adminWidgets",
      "outputs": [
        {
          "name": "",
          "type": "string"
        }
      ],
      "payable": false,
      "stateMutability": "view",
      "type": "function"
    },
    {
      "constant": true,
      "inputs": [
        {
          "name": "_locale",
          "type": "string"
        },
        {
          "name": "_strategy",
          "type": "address"
        }
      ],
      "name": "userWidgets",
      "outputs": [
        {
          "name": "json",
          "type": "string"
        }
      ],
      "payable": false,
      "stateMutability": "view",
      "type": "function"
    },
    {
      "constant": true,
      "inputs": [
        {
          "name": "_locale",
          "type": "string"
        },
        {
          "name": "_strategy",
          "type": "address"
        }
      ],
      "name": "inputs",
      "outputs": [
        {
          "name": "",
          "type": "string"
        }
      ],
      "payable": false,
      "stateMutability": "view",
      "type": "function"
    }
  ],
  "bytecode": "0x608060405260008054600160a060020a03191633179055613858806100256000396000f3006080604052600436106100ed5763ffffffff60e060020a6000350416630234a25081146100f25780631b847dc61461017c5780631baf821e146101915780631bb7cc99146101a65780632df0c200146101bb57806336f656a1146101d0578063562f9e47146101e5578063715018a6146101fa5780638da5cb5b1461021157806395d87ec714610242578063a52aa8d514610257578063b51ce63d1461026c578063bce8194314610281578063bf3bed5414610296578063e77cee3d14610296578063e9499555146102fa578063ed3487fe1461035e578063f2fde38b14610433578063f65a5c1b14610454575b600080fd5b3480156100fe57600080fd5b506101076104eb565b6040805160208082528351818301528351919283929083019185019080838360005b83811015610141578181015183820152602001610129565b50505050905090810190601f16801561016e5780820380516001836020036101000a031916815260200191505b509250505060405180910390f35b34801561018857600080fd5b50610107610522565b34801561019d57600080fd5b50610107610559565b3480156101b257600080fd5b50610107610590565b3480156101c757600080fd5b506101076105b5565b3480156101dc57600080fd5b506101076105ec565b3480156101f157600080fd5b50610107610623565b34801561020657600080fd5b5061020f61065a565b005b34801561021d57600080fd5b506102266106c6565b60408051600160a060020a039092168252519081900360200190f35b34801561024e57600080fd5b506101076106d5565b34801561026357600080fd5b5061010761070c565b34801561027857600080fd5b50610107610743565b34801561028d57600080fd5b50610107610768565b3480156102a257600080fd5b506040805160206004803580820135601f810184900484028501840190955284845261010794369492936024939284019190819084018382808284375094975050509235600160a060020a0316935061079f92505050565b34801561030657600080fd5b506040805160206004803580820135601f810184900484028501840190955284845261010794369492936024939284019190819084018382808284375094975050509235600160a060020a031693506107d892505050565b34801561036a57600080fd5b506040805160206004803580820135601f810184900484028501840190955284845261020f94369492936024939284019190819084018382808284375050604080516020601f89358b018035918201839004830284018301909452808352979a99988101979196509182019450925082915084018382808284375050604080516020601f89358b018035918201839004830284018301909452808352979a99988101979196509182019450925082915084018382808284375094975061092e9650505050505050565b34801561043f57600080fd5b5061020f600160a060020a0360043516610a1b565b34801561046057600080fd5b506040805160206004803580820135601f810184900484028501840190955284845261010794369492936024939284019190819084018382808284375050604080516020601f89358b018035918201839004830284018301909452808352979a999881019791965091820194509250829150840183828082843750949750610a3e9650505050505050565b60408051808201909152601a81527f6164645f746f5f77686974656c6973745f6c6f6e675f64657363000000000000602082015281565b60408051808201909152601b81527f6164645f746f5f77686974656c6973745f73686f72745f646573630000000000602082015281565b60408051808201909152601381527f77686974656c6973745f6c6f6e675f6465736300000000000000000000000000602082015281565b60408051808201909152600981526000805160206137ed833981519152602082015281565b60408051808201909152601481527f77686974656c6973745f73686f72745f64657363000000000000000000000000602082015281565b60408051808201909152600681527f72656d6f76650000000000000000000000000000000000000000000000000000602082015281565b60408051808201909152600381527f6164640000000000000000000000000000000000000000000000000000000000602082015281565b600054600160a060020a0316331461067157600080fd5b60008054604051600160a060020a03909116917ff8df31144d9c2f0f6b59d69b8b98abd5459d07f2742c4df920b25aae33c6482091a26000805473ffffffffffffffffffffffffffffffffffffffff19169055565b600054600160a060020a031681565b60408051808201909152600b81527f6164645f636f6e6669726d000000000000000000000000000000000000000000602082015281565b60408051808201909152600e81527f72656d6f76655f636f6e6669726d000000000000000000000000000000000000602082015281565b604080518082019091526007815260008051602061380d833981519152602082015281565b60408051808201909152601081527f6164645f746f5f77686974656c69737400000000000000000000000000000000602082015281565b505060408051808201909152600281527f5b5d000000000000000000000000000000000000000000000000000000000000602082015290565b60608060006107e5613616565b600060606040805190810160405280600181526020017f5b00000000000000000000000000000000000000000000000000000000000000815250945060009350604080519081016040528061083a8a8a610b8f565b81526020016108498a8a6112b8565b90529250600091505b60028210156108e15782826002811061086757fe5b602002015190506000815111156108d65760008411156108c1576108be6108a960408051908101604052806001815260200160fa60020a600b02815250611e2c565b6108b287611e2c565b9063ffffffff611e5516565b94505b6108cd6108a982611e2c565b94506001909301925b600190910190610852565b6109226108a96040805190810160405280600181526020017f5d00000000000000000000000000000000000000000000000000000000000000815250611e2c565b98975050505050505050565b600054600160a060020a0316331461094557600080fd5b806001846040518082805190602001908083835b602083106109785780518252601f199092019160209182019101610959565b51815160209384036101000a6000190180199092169116179052920194855250604051938490038101842087519094889450925082918401908083835b602083106109d45780518252601f1990920191602091820191016109b5565b51815160209384036101000a60001901801990921691161790529201948552506040519384900381019093208451610a15959194919091019250905061363d565b50505050565b600054600160a060020a03163314610a3257600080fd5b610a3b81611ecc565b50565b60606001836040518082805190602001908083835b60208310610a725780518252601f199092019160209182019101610a53565b51815160209384036101000a6000190180199092169116179052920194855250604051938490038101842086519094879450925082918401908083835b60208310610ace5780518252601f199092019160209182019101610aaf565b518151600019602094850361010090810a820192831692199390931691909117909252949092019687526040805197889003820188208054601f6002600183161590980290950116959095049283018290048202880182019052818752929450925050830182828015610b825780601f10610b5757610100808354040283529160200191610b82565b820191906000526020600020905b815481529060010190602001808311610b6557829003601f168201915b5050505050905092915050565b606080610b9a6136bb565b60408051600180825281830190925290816020015b610bb76136eb565b815260200190600190039081610baf57905050915060e0604051908101604052806001151581526020016040805190810160405280600981526020016000805160206137ed83398151915281525081526020016040805190810160405280600581526020017f7461626c6500000000000000000000000000000000000000000000000000000081525081526020016001876040518082805190602001908083835b60208310610c775780518252601f199092019160209182019101610c58565b51815160209384036101000a6000190180199092169116179052920194855250604080519485900382018520858201825260098087526000805160206137ed83398151915293870193845291519095945092508291908083835b60208310610cf05780518252601f199092019160209182019101610cd1565b518151600019602094850361010090810a820192831692199390931691909117909252949092019687526040805197889003820188208054601f6002600183161590980290950116959095049283018290048202880182019052818752929450925050830182828015610da45780601f10610d7957610100808354040283529160200191610da4565b820191906000526020600020905b815481529060010190602001808311610d8757829003601f168201915b5050505050815260200160408051908101604052806004815260200160e260020a631b9d5b1b028152508152602001610ddb611f49565b8152602001606060405190810160405280600115158152602001610dff8989611f9c565b8152602001610e0e8989612605565b90529052825183906000908110610e2157fe5b9060200190602002018190525060a0604051908101604052806001876040518082805190602001908083835b60208310610e6c5780518252601f199092019160209182019101610e4d565b51815160209384036101000a6000190180199092169116179052920194855250604080519485900382018520858201825260098087526000805160206137ed83398151915293870193845291519095945092508291908083835b60208310610ee55780518252601f199092019160209182019101610ec6565b518151600019602094850361010090810a820192831692199390931691909117909252949092019687526040805197889003820188208054601f6002600183161590980290950116959095049283018290048202880182019052818752929450925050830182828015610f995780601f10610f6e57610100808354040283529160200191610f99565b820191906000526020600020905b815481529060010190602001808311610f7c57829003601f168201915b505050505081526020016001876040518082805190602001908083835b60208310610fd55780518252601f199092019160209182019101610fb6565b51815160209384036101000a6000190180199092169116179052920194855250604080519485900382018520858201825260148087527f77686974656c6973745f73686f72745f6465736300000000000000000000000093870193845291519095945092508291908083835b602083106110605780518252601f199092019160209182019101611041565b518151600019602094850361010090810a820192831692199390931691909117909252949092019687526040805197889003820188208054601f60026001831615909802909501169590950492830182900482028801820190528187529294509250508301828280156111145780601f106110e957610100808354040283529160200191611114565b820191906000526020600020905b8154815290600101906020018083116110f757829003601f168201915b505050505081526020016001876040518082805190602001908083835b602083106111505780518252601f199092019160209182019101611131565b51815160209384036101000a6000190180199092169116179052920194855250604080519485900382018520858201825260138087527f77686974656c6973745f6c6f6e675f646573630000000000000000000000000093870193845291519095945092508291908083835b602083106111db5780518252601f1990920191602091820191016111bc565b518151600019602094850361010090810a820192831692199390931691909117909252949092019687526040805197889003820188208054601f600260018316159098029095011695909504928301829004820288018201905281875292945092505083018282801561128f5780601f106112645761010080835404028352916020019161128f565b820191906000526020600020905b81548152906001019060200180831161127257829003601f168201915b50505050508152602001600881526020018381525090506112af81612803565b95945050505050565b6060806112c36136bb565b6040805160028082526060820190925290816020015b6112e16136eb565b8152602001906001900390816112d957905050915060e06040519081016040528060011515815260200160408051908101604052806007815260200160008051602061380d83398151915281525081526020016040805190810160405280600b81526020017f616464726573734564697400000000000000000000000000000000000000000081525081526020016001876040518082805190602001908083835b602083106113a15780518252601f199092019160209182019101611382565b51815160209384036101000a60001901801990921691161790529201948552506040805194859003820185208582018252600780875260008051602061380d83398151915293870193845291519095945092508291908083835b6020831061141a5780518252601f1990920191602091820191016113fb565b518151600019602094850361010090810a820192831692199390931691909117909252949092019687526040805197889003820188208054601f60026001831615909802909501169590950492830182900482028801820190528187529294509250508301828280156114ce5780601f106114a3576101008083540402835291602001916114ce565b820191906000526020600020905b8154815290600101906020018083116114b157829003601f168201915b5050505050815260200160408051908101604052806004815260200160e260020a631b9d5b1b028152508152602001611505611f49565b8152602001611512612a60565b905282518390600090811061152357fe5b9060200190602002018190525060e0604051908101604052806001151581526020016040805190810160405280600381526020017f616464000000000000000000000000000000000000000000000000000000000081525081526020016040805190810160405280600681526020017f627574746f6e000000000000000000000000000000000000000000000000000081525081526020016001876040518082805190602001908083835b602083106115ed5780518252601f1990920191602091820191016115ce565b51815160209384036101000a6000190180199092169116179052920194855250604080519485900382018520858201825260038087527f616464000000000000000000000000000000000000000000000000000000000093870193845291519095945092508291908083835b602083106116785780518252601f199092019160209182019101611659565b518151600019602094850361010090810a820192831692199390931691909117909252949092019687526040805197889003820188208054601f600260018316159098029095011695909504928301829004820288018201905281875292945092505083018282801561172c5780601f106117015761010080835404028352916020019161172c565b820191906000526020600020905b81548152906001019060200180831161170f57829003601f168201915b5050505050815260200160408051908101604052806004815260200160e260020a631b9d5b1b02815250815260200160a06040519081016040528060011515815260200187600160a060020a031681526020016040805190810160405280600c81526020017f616464286164647265737329000000000000000000000000000000000000000081525081526020016040805190810160405280600b81526020017f5b2261646472657373225d00000000000000000000000000000000000000000081525081526020016001896040518082805190602001908083835b602083106118275780518252601f199092019160209182019101611808565b51815160209384036101000a60001901801990921691161790529201948552506040805194859003820185208582018252600b8087527f6164645f636f6e6669726d00000000000000000000000000000000000000000093870193845291519095945092508291908083835b602083106118b25780518252601f199092019160209182019101611893565b518151600019602094850361010090810a820192831692199390931691909117909252949092019687526040805197889003820188208054601f60026001831615909802909501169590950492830182900482028801820190528187529294509250508301828280156119665780601f1061193b57610100808354040283529160200191611966565b820191906000526020600020905b81548152906001019060200180831161194957829003601f168201915b5050505050815250815260200161197b612a60565b905282518390600190811061198c57fe5b9060200190602002018190525060a0604051908101604052806001876040518082805190602001908083835b602083106119d75780518252601f1990920191602091820191016119b8565b51815160209384036101000a6000190180199092169116179052920194855250604080519485900382018520858201825260108087527f6164645f746f5f77686974656c6973740000000000000000000000000000000093870193845291519095945092508291908083835b60208310611a625780518252601f199092019160209182019101611a43565b518151600019602094850361010090810a820192831692199390931691909117909252949092019687526040805197889003820188208054601f6002600183161590980290950116959095049283018290048202880182019052818752929450925050830182828015611b165780601f10611aeb57610100808354040283529160200191611b16565b820191906000526020600020905b815481529060010190602001808311611af957829003601f168201915b505050505081526020016001876040518082805190602001908083835b60208310611b525780518252601f199092019160209182019101611b33565b51815160209384036101000a60001901801990921691161790529201948552506040805194859003820185208582018252601b8087527f6164645f746f5f77686974656c6973745f73686f72745f64657363000000000093870193845291519095945092508291908083835b60208310611bdd5780518252601f199092019160209182019101611bbe565b518151600019602094850361010090810a820192831692199390931691909117909252949092019687526040805197889003820188208054601f6002600183161590980290950116959095049283018290048202880182019052818752929450925050830182828015611c915780601f10611c6657610100808354040283529160200191611c91565b820191906000526020600020905b815481529060010190602001808311611c7457829003601f168201915b505050505081526020016001876040518082805190602001908083835b60208310611ccd5780518252601f199092019160209182019101611cae565b51815160209384036101000a60001901801990921691161790529201948552506040805194859003820185208582018252601a8087527f6164645f746f5f77686974656c6973745f6c6f6e675f6465736300000000000093870193845291519095945092508291908083835b60208310611d585780518252601f199092019160209182019101611d39565b518151600019602094850361010090810a820192831692199390931691909117909252949092019687526040805197889003820188208054601f6002600183161590980290950116959095049283018290048202880182019052818752929450925050830182828015611e0c5780601f10611de157610100808354040283529160200191611e0c565b820191906000526020600020905b815481529060010190602001808311611def57829003601f168201915b50505050508152602001600481526020018381525090506112af81612803565b611e34613737565b50604080518082019091528151815260208281019082018190525b50919050565b606080600083600001518560000151016040519080825280601f01601f191660200182016040528015611e92578160200160208202803883390190505b509150602082019050611eae8186602001518760000151612aed565b845160208501518551611ec49284019190612aed565b509392505050565b600160a060020a0381161515611ee157600080fd5b60008054604051600160a060020a03808516939216917f8be0079c531659141344cd1fd0a4f28419497f9722a3daafe3b4186f6b6457e091a36000805473ffffffffffffffffffffffffffffffffffffffff1916600160a060020a0392909216919091179055565b611f5161374e565b506040805160a0810182526000808252602080830182905283518082018552828152838501528351808201855282815260608401528351908101909352825260808101919091525b90565b6040805160028082526060828101909352829190816020015b611fbd61377b565b815260200190600190039081611fb557905050905060a06040519081016040528060011515815260200160408051908101604052806007815260200160008051602061380d833981519152815250815260200160408051908101604052806007815260200160008051602061380d83398151915281525081526020016001866040518082805190602001908083835b6020831061206b5780518252601f19909201916020918201910161204c565b51815160209384036101000a60001901801990921691161790529201948552506040805194859003820185208582018252600780875260008051602061380d83398151915293870193845291519095945092508291908083835b602083106120e45780518252601f1990920191602091820191016120c5565b518151600019602094850361010090810a820192831692199390931691909117909252949092019687526040805197889003820188208054601f60026001831615909802909501169590950492830182900482028801820190528187529294509250508301828280156121985780601f1061216d57610100808354040283529160200191612198565b820191906000526020600020905b81548152906001019060200180831161217b57829003601f168201915b505050505081526020016121aa611f49565b90528151829060009081106121bb57fe5b9060200190602002018190525060a0604051908101604052806001151581526020016040805190810160405280600681526020017f72656d6f7665000000000000000000000000000000000000000000000000000081525081526020016040805190810160405280600681526020017f627574746f6e000000000000000000000000000000000000000000000000000081525081526020016001866040518082805190602001908083835b602083106122855780518252601f199092019160209182019101612266565b51815160209384036101000a6000190180199092169116179052920194855250604080519485900382018520858201825260068087527f72656d6f7665000000000000000000000000000000000000000000000000000093870193845291519095945092508291908083835b602083106123105780518252601f1990920191602091820191016122f1565b518151600019602094850361010090810a820192831692199390931691909117909252949092019687526040805197889003820188208054601f60026001831615909802909501169590950492830182900482028801820190528187529294509250508301828280156123c45780601f10612399576101008083540402835291602001916123c4565b820191906000526020600020905b8154815290600101906020018083116123a757829003601f168201915b5050505050815260200160a06040519081016040528060011515815260200186600160a060020a031681526020016040805190810160405280600f81526020017f72656d6f7665286164647265737329000000000000000000000000000000000081525081526020016040805190810160405280600b81526020017f5b2261646472657373225d00000000000000000000000000000000000000000081525081526020016001886040518082805190602001908083835b6020831061249a5780518252601f19909201916020918201910161247b565b51815160209384036101000a60001901801990921691161790529201948552506040805194859003820185208582018252600e8087527f72656d6f76655f636f6e6669726d00000000000000000000000000000000000093870193845291519095945092508291908083835b602083106125255780518252601f199092019160209182019101612506565b518151600019602094850361010090810a820192831692199390931691909117909252949092019687526040805197889003820188208054601f60026001831615909802909501169590950492830182900482028801820190528187529294509250508301828280156125d95780601f106125ae576101008083540402835291602001916125d9565b820191906000526020600020905b8154815290600101906020018083116125bc57829003601f168201915b50505050508152508152508160018151811015156125f357fe5b60209081029091010152905092915050565b606080600080606085600160a060020a03166381b3bc3b6040518163ffffffff1660e060020a028152600401602060405180830381600087803b15801561264b57600080fd5b505af115801561265f573d6000803e3d6000fd5b505050506040513d602081101561267557600080fd5b50516040805182815260208084028201019091529080156126aa57816020015b60608152602001906001900390816126955790505b509350600092505b83518310156127f85785600160a060020a031663edf26d9b846040518263ffffffff1660e060020a02815260040180828152602001915050602060405180830381600087803b15801561270457600080fd5b505af1158015612718573d6000803e3d6000fd5b505050506040513d602081101561272e57600080fd5b505160408051808201909152600c81527f7b2261646472657373223a2200000000000000000000000000000000000000006020820152909250905061278f612786612781600160a060020a038516612b31565b611e2c565b6108b283611e2c565b90506127d26127866040805190810160405280600281526020017f227d000000000000000000000000000000000000000000000000000000000000815250611e2c565b90508084848151811015156127e357fe5b602090810290910101526001909201916126b2565b509195945050505050565b60408051808201909152600a81527f7b227469746c65223a220000000000000000000000000000000000000000000060208201528151606091906000906128569061284d90611e2c565b6108b284611e2c565b915061289961284d6040805190810160405280600f81526020017f222c2273686f727444657363223a220000000000000000000000000000000000815250611e2c565b91506128ab61284d8560200151611e2c565b91506128ee61284d6040805190810160405280600e81526020017f222c226c6f6e6744657363223a22000000000000000000000000000000000000815250611e2c565b915061290061284d8560400151611e2c565b915061294361284d6040805190810160405280600a81526020017f222c227769647468223a00000000000000000000000000000000000000000000815250611e2c565b915061295861284d6127818660600151612c77565b915061299b61284d6040805190810160405280600d81526020017f2c22656c656d656e7473223a5b00000000000000000000000000000000000000815250611e2c565b9150600090505b836080015151811015612a175760008111156129e3576129e061284d60408051908101604052806001815260200160fa60020a600b02815250611e2c565b91505b612a0d61284d6127818660800151848151811015156129fe57fe5b90602001906020020151612dd2565b91506001016129a2565b612a5861284d6040805190810160405280600281526020017f5d7d000000000000000000000000000000000000000000000000000000000000815250611e2c565b949350505050565b612a686137ae565b60408051606081018252600080825282518181526020818101909452919283019190612aaa565b612a9761377b565b815260200190600190039081612a8f5790505b5081526020016000604051908082528060200260200182016040528015612ae557816020015b6060815260200190600190039081612ad05790505b509052905090565b60005b60208210612b12578251845260209384019390920191601f1990910190612af0565b50905182516020929092036101000a6000190180199091169116179052565b60408051602a80825260608083019093528291600091829182916020820161054080388339505081519195507f3000000000000000000000000000000000000000000000000000000000000000918691506000908110612b8d57fe5b906020010190600160f860020a031916908160001a90535083517f78000000000000000000000000000000000000000000000000000000000000009085906001908110612bd657fe5b906020010190600160f860020a031916908160001a905350859250600091505b6028821015612c6a57506030600f8316016039600160a060020a0382161115612c1d576027015b8060f860020a028483602803600101815181101515612c3857fe5b906020010190600160f860020a031916908160001a9053506010600160a060020a038416049250600190910190612bf6565b8394505b50505050919050565b60608060008181851515612cc05760408051808201909152600181527f300000000000000000000000000000000000000000000000000000000000000060208201529450612c6e565b6040805160208082528183019092529080820161040080388339019050509350600092505b6000861115612d3257600a860660300160f860020a028484815181101515612d0957fe5b906020010190600160f860020a031916908160001a905350600a86049550600190920191612ce5565b60408051848152601f19601f86011681016020019091526000198401938015612d65578160200160208202803883390190505b509150600090505b8151811015612dc957835160001984019385918110612d8857fe5b90602001015160f860020a900460f860020a028282815181101515612da957fe5b906020010190600160f860020a031916908160001a905350600101612d6d565b50949350505050565b60608082600001511561307c576040805190810160405280600781526020017f7b226964223a22000000000000000000000000000000000000000000000000008152509050612e276127868460200151611e2c565b9050612e6a6127866040805190810160405280600181526020017f2200000000000000000000000000000000000000000000000000000000000000815250611e2c565b60a08401515190915015612ed157612eb96127866040805190810160405280600b81526020017f2c2022616374696f6e223a000000000000000000000000000000000000000000815250611e2c565b9050612ece6127866127818560a001516130a1565b90505b60c08301515115612f3557612f1d6127866040805190810160405280600a81526020017f2c20227461626c65223a00000000000000000000000000000000000000000000815250611e2c565b9050612f326127866127818560c00151613244565b90505b612f766127866040805190810160405280600981526020017f2c2274797065223a220000000000000000000000000000000000000000000000815250611e2c565b9050612f886127868460400151611e2c565b9050612fcb6127866040805190810160405280600b81526020017f222c226c6162656c223a22000000000000000000000000000000000000000000815250611e2c565b9050612fdd6127868460600151611e2c565b90506130206127866040805190810160405280600981526020017f222c2264617461223a0000000000000000000000000000000000000000000000815250611e2c565b90506130326127868460800151611e2c565b90506130756127866040805190810160405280600181526020017f7d00000000000000000000000000000000000000000000000000000000000000815250611e2c565b9150611e4f565b604080518082019091526004815260e260020a631b9d5b1b0260208201529150611e4f565b60608082600001511561307c576040805190810160405280600c81526020017f7b2261646472657373223a22000000000000000000000000000000000000000081525090506131026127866127818560200151600160a060020a0316612b31565b90506131456127866040805190810160405280601681526020017f222c2266756e6374696f6e53656c6563746f72223a2200000000000000000000815250611e2c565b90506131576127868460400151611e2c565b905061319a6127866040805190810160405280600e81526020017f222c22617267756d656e7473223a000000000000000000000000000000000000815250611e2c565b90506131ac6127868460600151611e2c565b90506131ef6127866040805190810160405280600c81526020017f2c22636f6e6669726d223a220000000000000000000000000000000000000000815250611e2c565b90506132016127868460800151611e2c565b90506130756127866040805190810160405280600281526020017f227d000000000000000000000000000000000000000000000000000000000000815250611e2c565b60608060008084600001511561341c57505060408051808201909152600c81527f7b22636f6c756d6e73223a5b0000000000000000000000000000000000000000602082015290506000805b8460200151518110156133125760008211156132da576132d76132ce60408051908101604052806001815260200160fa60020a600b02815250611e2c565b6108b285611e2c565b92505b6133046132ce6127818760200151848151811015156132f557fe5b90602001906020020151613445565b925060019182019101613290565b6133536132ce6040805190810160405280600a81526020017f5d2c22726f7773223a5b00000000000000000000000000000000000000000000815250611e2c565b925060009150600090505b8460400151518110156133d457600082111561339f5761339c6132ce60408051908101604052806001815260200160fa60020a600b02815250611e2c565b92505b6133c66132ce8660400151838151811015156133b757fe5b90602001906020020151611e2c565b92506001918201910161335e565b6134156132ce6040805190810160405280600281526020017f5d7d000000000000000000000000000000000000000000000000000000000000815250611e2c565b935061343d565b604080518082019091526004815260e260020a631b9d5b1b02602082015293505b505050919050565b60608082600001511561307c576040805190810160405280600781526020017f7b226964223a2200000000000000000000000000000000000000000000000000815250905061349a6127868460200151611e2c565b90506134dd6127866040805190810160405280600181526020017f2200000000000000000000000000000000000000000000000000000000000000815250611e2c565b6080840151519091501561356e5761351361278660408051908101604052806001815260200160fa60020a600b02815250611e2c565b90506135566127866040805190810160405280600981526020017f22616374696f6e223a0000000000000000000000000000000000000000000000815250611e2c565b905061356b61278661278185608001516130a1565b90505b6135af6127866040805190810160405280600981526020017f2c2274797065223a220000000000000000000000000000000000000000000000815250611e2c565b90506135c16127868460400151611e2c565b90506136046127866040805190810160405280600b81526020017f222c226c6162656c223a22000000000000000000000000000000000000000000815250611e2c565b90506132016127868460600151611e2c565b60408051908101604052806002905b60608152602001906001900390816136255790505090565b828054600181600116156101000203166002900490600052602060002090601f016020900481019282601f1061367e57805160ff19168380011785556136ab565b828001600101855582156136ab579182015b828111156136ab578251825591602001919060010190613690565b506136b79291506137d2565b5090565b60a06040519081016040528060608152602001606081526020016060815260200160008152602001606081525090565b6101a0604051908101604052806000151581526020016060815260200160608152602001606081526020016060815260200161372561374e565b81526020016137326137ae565b905290565b604080518082019091526000808252602082015290565b6040805160a081018252600080825260208201526060918101829052818101829052608081019190915290565b6101206040519081016040528060001515815260200160608152602001606081526020016060815260200161373261374e565b60606040519081016040528060001515815260200160608152602001606081525090565b611f9991905b808211156136b757600081556001016137d8560077686974656c69737400000000000000000000000000000000000000000000006164647265737300000000000000000000000000000000000000000000000000a165627a7a7230582001f00f9bb4189d8bc00b11115f48e080d7a655215767f13cae283a54f438f37c0029",
  "source": "pragma solidity ^0.4.24;\n\nimport \"tokenboost-solidity/contracts/widget/Localizable.sol\";\nimport \"tokenboost-solidity/contracts/widget/Widgets.sol\";\nimport \"../WhitelistStrategy.sol\";\n\ncontract WhitelistStrategyRenderer is Localizable {\n    using Widgets for Widgets.Widget;\n    using Elements for Elements.Element;\n    using strings for *;\n    using UintUtils for uint;\n    using AddressUtils for address;\n\n    string public constant WHITELIST = \"whitelist\";\n    string public constant WHITELIST_SHORT_DESC = \"whitelist_short_desc\";\n    string public constant WHITELIST_LONG_DESC = \"whitelist_long_desc\";\n    string public constant ADDRESS = \"address\";\n    string public constant REMOVE = \"remove\";\n    string public constant REMOVE_CONFIRM = \"remove_confirm\";\n    string public constant ADD_TO_WHITELIST = \"add_to_whitelist\";\n    string public constant ADD_TO_WHITELIST_SHORT_DESC = \"add_to_whitelist_short_desc\";\n    string public constant ADD_TO_WHITELIST_LONG_DESC = \"add_to_whitelist_long_desc\";\n    string public constant ADD = \"add\";\n    string public constant ADD_CONFIRM = \"add_confirm\";\n\n    function adminWidgets(string _locale, WhitelistStrategy _strategy) public view returns (string) {\n        string memory json = \"[\";\n        uint length = 0;\n        string[2] memory widgets = [\n        _whitelistWidget(_locale, _strategy),\n        _addToWhitelistWidget(_locale, _strategy)\n        ];\n        for (uint i = 0; i < widgets.length; i++) {\n            string memory widget = widgets[i];\n            if (bytes(widget).length > 0) {\n                if (length > 0) {\n                    json = json.toSlice().concat(\",\".toSlice());\n                }\n                json = json.toSlice().concat(widget.toSlice());\n                length++;\n            }\n        }\n        return json.toSlice().concat(\"]\".toSlice());\n    }\n\n    function _whitelistWidget(string _locale, WhitelistStrategy _strategy) private view returns (string json) {\n        Elements.Element[] memory elements = new Elements.Element[](1);\n        elements[0] = Elements.Element(\n            true,\n            WHITELIST,\n            \"table\",\n            resources[_locale][WHITELIST],\n            \"null\",\n            Actions.empty(),\n            Tables.Table(true, _columns(_locale, _strategy), _rows(_locale, _strategy))\n        );\n        Widgets.Widget memory widget = Widgets.Widget(\n            resources[_locale][WHITELIST],\n            resources[_locale][WHITELIST_SHORT_DESC],\n            resources[_locale][WHITELIST_LONG_DESC],\n            8,\n            elements\n        );\n        return widget.toJson();\n    }\n\n    function _columns(string _locale, WhitelistStrategy _strategy) private view returns (Tables.Column[]) {\n        Tables.Column[] memory columns = new Tables.Column[](2);\n        columns[0] = Tables.Column(\n            true,\n            ADDRESS,\n            \"address\",\n            resources[_locale][ADDRESS],\n            Actions.empty()\n        );\n        columns[1] = Tables.Column(\n            true,\n            REMOVE,\n            \"button\",\n            resources[_locale][REMOVE],\n            Actions.Action(\n                true,\n                address(_strategy),\n                \"remove(address)\",\n                '[\"address\"]',\n                resources[_locale][REMOVE_CONFIRM]\n            )\n        );\n        return columns;\n    }\n\n    function _rows(string _locale, WhitelistStrategy _strategy) private view returns (string[]) {\n        string[] memory rows = new string[](_strategy.numberOfAddresses());\n        for (uint i = 0; i < rows.length; i++) {\n            address addr = _strategy.addresses(i);\n            string memory row = '{\"address\":\"';\n            row = row.toSlice().concat(addr.toString().toSlice());\n            row = row.toSlice().concat('\"}'.toSlice());\n            rows[i] = row;\n        }\n        return rows;\n    }\n\n    function _addToWhitelistWidget(string _locale, WhitelistStrategy _strategy) private view returns (string json) {\n        Elements.Element[] memory elements = new Elements.Element[](2);\n        elements[0] = Elements.Element(\n            true,\n            ADDRESS,\n            \"addressEdit\",\n            resources[_locale][ADDRESS],\n            \"null\",\n            Actions.empty(),\n            Tables.empty()\n        );\n        elements[1] = Elements.Element(\n            true,\n            ADD,\n            \"button\",\n            resources[_locale][ADD],\n            \"null\",\n            Actions.Action(\n                true,\n                address(_strategy),\n                \"add(address)\",\n                '[\"address\"]',\n                resources[_locale][ADD_CONFIRM]\n            ),\n            Tables.empty()\n        );\n        Widgets.Widget memory widget = Widgets.Widget(\n            resources[_locale][ADD_TO_WHITELIST],\n            resources[_locale][ADD_TO_WHITELIST_SHORT_DESC],\n            resources[_locale][ADD_TO_WHITELIST_LONG_DESC],\n            4,\n            elements\n        );\n        return widget.toJson();\n    }\n\n    function userWidgets(string _locale, WhitelistStrategy _strategy) public view returns (string json) {\n        return \"[]\";\n    }\n\n    function inputs(string _locale, WhitelistStrategy _strategy) public view returns (string) {\n        return \"[]\";\n    }\n}\n",
  "sourcePath": "/Users/yoonjae/SolidityProjects/tokenboost-solidity-erc20sale-strategies/contracts/strategy/sale/erc20/whitelist/widget/WhitelistStrategyRenderer.sol",
  "compiler": {
    "name": "solc",
    "version": "0.4.24+commit.e67f0147.Emscripten.clang"
  },
  "schemaVersion": "2.0.1",
  "updatedAt": "2018-10-11T22:54:40.245Z"
}