{
  "contractName": "WhitelistStrategyRenderer",
  "abi": [
    {
      "constant": true,
      "inputs": [],
      "name": "ADD_TO_WHITELIST_LONG_DESC",
      "outputs": [
        {
          "name": "",
          "type": "string"
        }
      ],
      "payable": false,
      "stateMutability": "view",
      "type": "function"
    },
    {
      "constant": true,
      "inputs": [],
      "name": "WHITELIST_STATUS_SHORT_DESC",
      "outputs": [
        {
          "name": "",
          "type": "string"
        }
      ],
      "payable": false,
      "stateMutability": "view",
      "type": "function"
    },
    {
      "constant": true,
      "inputs": [],
      "name": "WHITELISTED",
      "outputs": [
        {
          "name": "",
          "type": "string"
        }
      ],
      "payable": false,
      "stateMutability": "view",
      "type": "function"
    },
    {
      "constant": true,
      "inputs": [],
      "name": "ADD_TO_WHITELIST_SHORT_DESC",
      "outputs": [
        {
          "name": "",
          "type": "string"
        }
      ],
      "payable": false,
      "stateMutability": "view",
      "type": "function"
    },
    {
      "constant": true,
      "inputs": [],
      "name": "WHITELIST_LONG_DESC",
      "outputs": [
        {
          "name": "",
          "type": "string"
        }
      ],
      "payable": false,
      "stateMutability": "view",
      "type": "function"
    },
    {
      "constant": true,
      "inputs": [],
      "name": "WHITELIST",
      "outputs": [
        {
          "name": "",
          "type": "string"
        }
      ],
      "payable": false,
      "stateMutability": "view",
      "type": "function"
    },
    {
      "constant": true,
      "inputs": [],
      "name": "WHITELIST_SHORT_DESC",
      "outputs": [
        {
          "name": "",
          "type": "string"
        }
      ],
      "payable": false,
      "stateMutability": "view",
      "type": "function"
    },
    {
      "constant": true,
      "inputs": [],
      "name": "REMOVE",
      "outputs": [
        {
          "name": "",
          "type": "string"
        }
      ],
      "payable": false,
      "stateMutability": "view",
      "type": "function"
    },
    {
      "constant": true,
      "inputs": [],
      "name": "WHITELIST_STATUS",
      "outputs": [
        {
          "name": "",
          "type": "string"
        }
      ],
      "payable": false,
      "stateMutability": "view",
      "type": "function"
    },
    {
      "constant": true,
      "inputs": [],
      "name": "ADD",
      "outputs": [
        {
          "name": "",
          "type": "string"
        }
      ],
      "payable": false,
      "stateMutability": "view",
      "type": "function"
    },
    {
      "constant": false,
      "inputs": [],
      "name": "renounceOwnership",
      "outputs": [],
      "payable": false,
      "stateMutability": "nonpayable",
      "type": "function"
    },
    {
      "constant": true,
      "inputs": [],
      "name": "owner",
      "outputs": [
        {
          "name": "",
          "type": "address"
        }
      ],
      "payable": false,
      "stateMutability": "view",
      "type": "function"
    },
    {
      "constant": true,
      "inputs": [],
      "name": "ADD_CONFIRM",
      "outputs": [
        {
          "name": "",
          "type": "string"
        }
      ],
      "payable": false,
      "stateMutability": "view",
      "type": "function"
    },
    {
      "constant": true,
      "inputs": [],
      "name": "REMOVE_CONFIRM",
      "outputs": [
        {
          "name": "",
          "type": "string"
        }
      ],
      "payable": false,
      "stateMutability": "view",
      "type": "function"
    },
    {
      "constant": true,
      "inputs": [],
      "name": "ADDRESS",
      "outputs": [
        {
          "name": "",
          "type": "string"
        }
      ],
      "payable": false,
      "stateMutability": "view",
      "type": "function"
    },
    {
      "constant": true,
      "inputs": [],
      "name": "ADD_TO_WHITELIST",
      "outputs": [
        {
          "name": "",
          "type": "string"
        }
      ],
      "payable": false,
      "stateMutability": "view",
      "type": "function"
    },
    {
      "constant": true,
      "inputs": [],
      "name": "NOT_WHITELISTED",
      "outputs": [
        {
          "name": "",
          "type": "string"
        }
      ],
      "payable": false,
      "stateMutability": "view",
      "type": "function"
    },
    {
      "constant": true,
      "inputs": [],
      "name": "WHITELIST_STATUS_LONG_DESC",
      "outputs": [
        {
          "name": "",
          "type": "string"
        }
      ],
      "payable": false,
      "stateMutability": "view",
      "type": "function"
    },
    {
      "constant": false,
      "inputs": [
        {
          "name": "locale",
          "type": "string"
        },
        {
          "name": "key",
          "type": "string"
        },
        {
          "name": "value",
          "type": "string"
        }
      ],
      "name": "setResource",
      "outputs": [],
      "payable": false,
      "stateMutability": "nonpayable",
      "type": "function"
    },
    {
      "constant": false,
      "inputs": [
        {
          "name": "_newOwner",
          "type": "address"
        }
      ],
      "name": "transferOwnership",
      "outputs": [],
      "payable": false,
      "stateMutability": "nonpayable",
      "type": "function"
    },
    {
      "constant": true,
      "inputs": [
        {
          "name": "locale",
          "type": "string"
        },
        {
          "name": "key",
          "type": "string"
        }
      ],
      "name": "resource",
      "outputs": [
        {
          "name": "",
          "type": "string"
        }
      ],
      "payable": false,
      "stateMutability": "view",
      "type": "function"
    },
    {
      "anonymous": false,
      "inputs": [
        {
          "indexed": true,
          "name": "previousOwner",
          "type": "address"
        }
      ],
      "name": "OwnershipRenounced",
      "type": "event"
    },
    {
      "anonymous": false,
      "inputs": [
        {
          "indexed": true,
          "name": "previousOwner",
          "type": "address"
        },
        {
          "indexed": true,
          "name": "newOwner",
          "type": "address"
        }
      ],
      "name": "OwnershipTransferred",
      "type": "event"
    },
    {
      "constant": true,
      "inputs": [
        {
          "name": "_locale",
          "type": "string"
        },
        {
          "name": "_strategy",
          "type": "address"
        }
      ],
      "name": "adminWidgets",
      "outputs": [
        {
          "name": "",
          "type": "string"
        }
      ],
      "payable": false,
      "stateMutability": "view",
      "type": "function"
    },
    {
      "constant": true,
      "inputs": [
        {
          "name": "_locale",
          "type": "string"
        },
        {
          "name": "_strategy",
          "type": "address"
        }
      ],
      "name": "userWidgets",
      "outputs": [
        {
          "name": "json",
          "type": "string"
        }
      ],
      "payable": false,
      "stateMutability": "view",
      "type": "function"
    },
    {
      "constant": true,
      "inputs": [
        {
          "name": "_locale",
          "type": "string"
        },
        {
          "name": "_strategy",
          "type": "address"
        }
      ],
      "name": "inputs",
      "outputs": [
        {
          "name": "",
          "type": "string"
        }
      ],
      "payable": false,
      "stateMutability": "view",
      "type": "function"
    }
  ],
  "bytecode": "0x608060405260008054600160a060020a031916331790556145d3806100256000396000f3006080604052600436106101245763ffffffff60e060020a6000350416630234a250811461012957806302631585146101b35780630b71f116146101c85780631b847dc6146101dd5780631baf821e146101f25780631bb7cc99146102075780632df0c2001461021c57806336f656a1146102315780635043176214610246578063562f9e471461025b578063715018a6146102705780638da5cb5b1461028757806395d87ec7146102b8578063a52aa8d5146102cd578063b51ce63d146102e2578063bce81943146102f7578063bf3bed541461030c578063bffbc6be14610370578063db9ead2b14610385578063e77cee3d1461039a578063e9499555146103fe578063ed3487fe14610462578063f2fde38b14610537578063f65a5c1b14610558575b600080fd5b34801561013557600080fd5b5061013e6105ef565b6040805160208082528351818301528351919283929083019185019080838360005b83811015610178578181015183820152602001610160565b50505050905090810190601f1680156101a55780820380516001836020036101000a031916815260200191505b509250505060405180910390f35b3480156101bf57600080fd5b5061013e610626565b3480156101d457600080fd5b5061013e61065d565b3480156101e957600080fd5b5061013e610694565b3480156101fe57600080fd5b5061013e6106cb565b34801561021357600080fd5b5061013e610702565b34801561022857600080fd5b5061013e610727565b34801561023d57600080fd5b5061013e61075e565b34801561025257600080fd5b5061013e610795565b34801561026757600080fd5b5061013e6107cc565b34801561027c57600080fd5b50610285610803565b005b34801561029357600080fd5b5061029c61086f565b60408051600160a060020a039092168252519081900360200190f35b3480156102c457600080fd5b5061013e61087e565b3480156102d957600080fd5b5061013e6108b5565b3480156102ee57600080fd5b5061013e6108ec565b34801561030357600080fd5b5061013e610911565b34801561031857600080fd5b506040805160206004803580820135601f810184900484028501840190955284845261013e94369492936024939284019190819084018382808284375094975050509235600160a060020a0316935061094892505050565b34801561037c57600080fd5b5061013e610981565b34801561039157600080fd5b5061013e6109b8565b3480156103a657600080fd5b506040805160206004803580820135601f810184900484028501840190955284845261013e94369492936024939284019190819084018382808284375094975050509235600160a060020a031693506109ef92505050565b34801561040a57600080fd5b506040805160206004803580820135601f810184900484028501840190955284845261013e94369492936024939284019190819084018382808284375094975050509235600160a060020a0316935061152092505050565b34801561046e57600080fd5b506040805160206004803580820135601f810184900484028501840190955284845261028594369492936024939284019190819084018382808284375050604080516020601f89358b018035918201839004830284018301909452808352979a99988101979196509182019450925082915084018382808284375050604080516020601f89358b018035918201839004830284018301909452808352979a9998810197919650918201945092508291508401838280828437509497506116769650505050505050565b34801561054357600080fd5b50610285600160a060020a0360043516611763565b34801561056457600080fd5b506040805160206004803580820135601f810184900484028501840190955284845261013e94369492936024939284019190819084018382808284375050604080516020601f89358b018035918201839004830284018301909452808352979a9998810197919650918201945092508291508401838280828437509497506117869650505050505050565b60408051808201909152601a81527f6164645f746f5f77686974656c6973745f6c6f6e675f64657363000000000000602082015281565b60408051808201909152601b81527f77686974656c6973745f7374617475735f73686f72745f646573630000000000602082015281565b60408051808201909152600b81527f77686974656c6973746564000000000000000000000000000000000000000000602082015281565b60408051808201909152601b81527f6164645f746f5f77686974656c6973745f73686f72745f646573630000000000602082015281565b60408051808201909152601381527f77686974656c6973745f6c6f6e675f6465736300000000000000000000000000602082015281565b6040805180820190915260098152600080516020614568833981519152602082015281565b60408051808201909152601481527f77686974656c6973745f73686f72745f64657363000000000000000000000000602082015281565b60408051808201909152600681527f72656d6f76650000000000000000000000000000000000000000000000000000602082015281565b60408051808201909152601081527f77686974656c6973745f73746174757300000000000000000000000000000000602082015281565b60408051808201909152600381527f6164640000000000000000000000000000000000000000000000000000000000602082015281565b600054600160a060020a0316331461081a57600080fd5b60008054604051600160a060020a03909116917ff8df31144d9c2f0f6b59d69b8b98abd5459d07f2742c4df920b25aae33c6482091a26000805473ffffffffffffffffffffffffffffffffffffffff19169055565b600054600160a060020a031681565b60408051808201909152600b81527f6164645f636f6e6669726d000000000000000000000000000000000000000000602082015281565b60408051808201909152600e81527f72656d6f76655f636f6e6669726d000000000000000000000000000000000000602082015281565b6040805180820190915260078152600080516020614588833981519152602082015281565b60408051808201909152601081527f6164645f746f5f77686974656c69737400000000000000000000000000000000602082015281565b505060408051808201909152600281527f5b5d000000000000000000000000000000000000000000000000000000000000602082015290565b60408051808201909152600f81527f6e6f745f77686974656c69737465640000000000000000000000000000000000602082015281565b60408051808201909152601a81527f77686974656c6973745f7374617475735f6c6f6e675f64657363000000000000602082015281565b60608060606109fc614391565b84600160a060020a0316636ad1fe026040518163ffffffff1660e060020a028152600401602060405180830381600087803b158015610a3a57600080fd5b505af1158015610a4e573d6000803e3d6000fd5b505050506040513d6020811015610a6457600080fd5b5051604080517f186601ca0000000000000000000000000000000000000000000000000000000081529051600160a060020a039092169163186601ca916004808201926020929091908290030181600087803b158015610ac357600080fd5b505af1158015610ad7573d6000803e3d6000fd5b505050506040513d6020811015610aed57600080fd5b5051156114e057604080517fd936547e0000000000000000000000000000000000000000000000000000000081523260048201529051600160a060020a0387169163d936547e9160248083019260209291908290030181600087803b158015610b5557600080fd5b505af1158015610b69573d6000803e3d6000fd5b505050506040513d6020811015610b7f57600080fd5b505115610d03576001866040518082805190602001908083835b60208310610bb85780518252601f199092019160209182019101610b99565b51815160209384036101000a60001901801990921691161790529201948552506040805194859003820185208582018252600b8087527f77686974656c697374656400000000000000000000000000000000000000000093870193845291519095945092508291908083835b60208310610c435780518252601f199092019160209182019101610c24565b518151600019602094850361010090810a820192831692199390931691909117909252949092019687526040805197889003820188208054601f6002600183161590980290950116959095049283018290048202880182019052818752929450925050830182828015610cf75780601f10610ccc57610100808354040283529160200191610cf7565b820191906000526020600020905b815481529060010190602001808311610cda57829003601f168201915b50505050509250610e7c565b6001866040518082805190602001908083835b60208310610d355780518252601f199092019160209182019101610d16565b51815160209384036101000a60001901801990921691161790529201948552506040805194859003820185208582018252600f8087527f6e6f745f77686974656c6973746564000000000000000000000000000000000093870193845291519095945092508291908083835b60208310610dc05780518252601f199092019160209182019101610da1565b518151600019602094850361010090810a820192831692199390931691909117909252949092019687526040805197889003820188208054601f6002600183161590980290950116959095049283018290048202880182019052818752929450925050830182828015610e745780601f10610e4957610100808354040283529160200191610e74565b820191906000526020600020905b815481529060010190602001808311610e5757829003601f168201915b505050505092505b60408051600180825281830190925290816020015b610e996143c1565b815260200190600190039081610e9157905050915060e0604051908101604052806001151581526020016040805190810160405280601081526020017f77686974656c6973745f7374617475730000000000000000000000000000000081525081526020016040805190810160405280600481526020017f7465787400000000000000000000000000000000000000000000000000000000815250815260200160206040519081016040528060008152508152602001610f58856118d7565b8152602001610f65611940565b8152602001610f72611993565b9052825183906000908110610f8357fe5b9060200190602002018190525060a0604051908101604052806001886040518082805190602001908083835b60208310610fce5780518252601f199092019160209182019101610faf565b51815160209384036101000a6000190180199092169116179052920194855250604080519485900382018520858201825260108087527f77686974656c6973745f7374617475730000000000000000000000000000000093870193845291519095945092508291908083835b602083106110595780518252601f19909201916020918201910161103a565b518151600019602094850361010090810a820192831692199390931691909117909252949092019687526040805197889003820188208054601f600260018316159098029095011695909504928301829004820288018201905281875292945092505083018282801561110d5780601f106110e25761010080835404028352916020019161110d565b820191906000526020600020905b8154815290600101906020018083116110f057829003601f168201915b505050505081526020016001886040518082805190602001908083835b602083106111495780518252601f19909201916020918201910161112a565b51815160209384036101000a60001901801990921691161790529201948552506040805194859003820185208582018252601b8087527f77686974656c6973745f7374617475735f73686f72745f64657363000000000093870193845291519095945092508291908083835b602083106111d45780518252601f1990920191602091820191016111b5565b518151600019602094850361010090810a820192831692199390931691909117909252949092019687526040805197889003820188208054601f60026001831615909802909501169590950492830182900482028801820190528187529294509250508301828280156112885780601f1061125d57610100808354040283529160200191611288565b820191906000526020600020905b81548152906001019060200180831161126b57829003601f168201915b505050505081526020016001886040518082805190602001908083835b602083106112c45780518252601f1990920191602091820191016112a5565b51815160209384036101000a60001901801990921691161790529201948552506040805194859003820185208582018252601a8087527f77686974656c6973745f7374617475735f6c6f6e675f6465736300000000000093870193845291519095945092508291908083835b6020831061134f5780518252601f199092019160209182019101611330565b518151600019602094850361010090810a820192831692199390931691909117909252949092019687526040805197889003820188208054601f60026001831615909802909501169590950492830182900482028801820190528187529294509250508301828280156114035780601f106113d857610100808354040283529160200191611403565b820191906000526020600020905b8154815290600101906020018083116113e657829003601f168201915b505050505081526020016004815260200183815250905061142381611a20565b60405160200180807f5b0000000000000000000000000000000000000000000000000000000000000081525060010182805190602001908083835b6020831061147d5780518252601f19909201916020918201910161145e565b6001836020036101000a038019825116818451168082178552505050505050905001807f5d000000000000000000000000000000000000000000000000000000000000008152506001019150506040516020818303038152906040529350611517565b60408051808201909152600281527f5b5d000000000000000000000000000000000000000000000000000000000000602082015293505b50505092915050565b606080600061152d61440d565b600060606040805190810160405280600181526020017f5b0000000000000000000000000000000000000000000000000000000000000081525094506000935060408051908101604052806115828a8a611c7d565b81526020016115918a8a6123a6565b90529250600091505b6002821015611629578282600281106115af57fe5b6020020151905060008151111561161e576000841115611609576116066115f160408051908101604052806001815260200160fa60020a600b02815250612f1a565b6115fa87612f1a565b9063ffffffff612f4316565b94505b6116156115f182612f1a565b94506001909301925b60019091019061159a565b61166a6115f16040805190810160405280600181526020017f5d00000000000000000000000000000000000000000000000000000000000000815250612f1a565b98975050505050505050565b600054600160a060020a0316331461168d57600080fd5b806001846040518082805190602001908083835b602083106116c05780518252601f1990920191602091820191016116a1565b51815160209384036101000a6000190180199092169116179052920194855250604051938490038101842087519094889450925082918401908083835b6020831061171c5780518252601f1990920191602091820191016116fd565b51815160209384036101000a6000190180199092169116179052920194855250604051938490038101909320845161175d9591949190910192509050614434565b50505050565b600054600160a060020a0316331461177a57600080fd5b61178381612fba565b50565b60606001836040518082805190602001908083835b602083106117ba5780518252601f19909201916020918201910161179b565b51815160209384036101000a6000190180199092169116179052920194855250604051938490038101842086519094879450925082918401908083835b602083106118165780518252601f1990920191602091820191016117f7565b518151600019602094850361010090810a820192831692199390931691909117909252949092019687526040805197889003820188208054601f60026001831615909802909501169590950492830182900482028801820190528187529294509250508301828280156118ca5780601f1061189f576101008083540402835291602001916118ca565b820191906000526020600020905b8154815290600101906020018083116118ad57829003601f168201915b5050505050905092915050565b606061193a61190160408051908101604052806001815260200160f960020a601102815250612f1a565b6115fa61193561191086612f1a565b6115fa60408051908101604052806001815260200160f960020a601102815250612f1a565b612f1a565b92915050565b6119486144b2565b506040805160a0810182526000808252602080830182905283518082018552828152838501528351808201855282815260608401528351908101909352825260808101919091525b90565b61199b6144df565b604080516060810182526000808252825181815260208181019094529192830191906119dd565b6119ca614503565b8152602001906001900390816119c25790505b5081526020016000604051908082528060200260200182016040528015611a1857816020015b6060815260200190600190039081611a035790505b509052905090565b60408051808201909152600a81527f7b227469746c65223a22000000000000000000000000000000000000000000006020820152815160609190600090611a7390611a6a90612f1a565b6115fa84612f1a565b9150611ab6611a6a6040805190810160405280600f81526020017f222c2273686f727444657363223a220000000000000000000000000000000000815250612f1a565b9150611ac8611a6a8560200151612f1a565b9150611b0b611a6a6040805190810160405280600e81526020017f222c226c6f6e6744657363223a22000000000000000000000000000000000000815250612f1a565b9150611b1d611a6a8560400151612f1a565b9150611b60611a6a6040805190810160405280600a81526020017f222c227769647468223a00000000000000000000000000000000000000000000815250612f1a565b9150611b75611a6a6119358660600151613037565b9150611bb8611a6a6040805190810160405280600d81526020017f2c22656c656d656e7473223a5b00000000000000000000000000000000000000815250612f1a565b9150600090505b836080015151811015611c34576000811115611c0057611bfd611a6a60408051908101604052806001815260200160fa60020a600b02815250612f1a565b91505b611c2a611a6a611935866080015184815181101515611c1b57fe5b90602001906020020151613196565b9150600101611bbf565b611c75611a6a6040805190810160405280600281526020017f5d7d000000000000000000000000000000000000000000000000000000000000815250612f1a565b949350505050565b606080611c88614391565b60408051600180825281830190925290816020015b611ca56143c1565b815260200190600190039081611c9d57905050915060e06040519081016040528060011515815260200160408051908101604052806009815260200160008051602061456883398151915281525081526020016040805190810160405280600581526020017f7461626c6500000000000000000000000000000000000000000000000000000081525081526020016001876040518082805190602001908083835b60208310611d655780518252601f199092019160209182019101611d46565b51815160209384036101000a60001901801990921691161790529201948552506040805194859003820185208582018252600980875260008051602061456883398151915293870193845291519095945092508291908083835b60208310611dde5780518252601f199092019160209182019101611dbf565b518151600019602094850361010090810a820192831692199390931691909117909252949092019687526040805197889003820188208054601f6002600183161590980290950116959095049283018290048202880182019052818752929450925050830182828015611e925780601f10611e6757610100808354040283529160200191611e92565b820191906000526020600020905b815481529060010190602001808311611e7557829003601f168201915b5050505050815260200160408051908101604052806004815260200160e260020a631b9d5b1b028152508152602001611ec9611940565b8152602001606060405190810160405280600115158152602001611eed8989613455565b8152602001611efc8989613abe565b90529052825183906000908110611f0f57fe5b9060200190602002018190525060a0604051908101604052806001876040518082805190602001908083835b60208310611f5a5780518252601f199092019160209182019101611f3b565b51815160209384036101000a60001901801990921691161790529201948552506040805194859003820185208582018252600980875260008051602061456883398151915293870193845291519095945092508291908083835b60208310611fd35780518252601f199092019160209182019101611fb4565b518151600019602094850361010090810a820192831692199390931691909117909252949092019687526040805197889003820188208054601f60026001831615909802909501169590950492830182900482028801820190528187529294509250508301828280156120875780601f1061205c57610100808354040283529160200191612087565b820191906000526020600020905b81548152906001019060200180831161206a57829003601f168201915b505050505081526020016001876040518082805190602001908083835b602083106120c35780518252601f1990920191602091820191016120a4565b51815160209384036101000a6000190180199092169116179052920194855250604080519485900382018520858201825260148087527f77686974656c6973745f73686f72745f6465736300000000000000000000000093870193845291519095945092508291908083835b6020831061214e5780518252601f19909201916020918201910161212f565b518151600019602094850361010090810a820192831692199390931691909117909252949092019687526040805197889003820188208054601f60026001831615909802909501169590950492830182900482028801820190528187529294509250508301828280156122025780601f106121d757610100808354040283529160200191612202565b820191906000526020600020905b8154815290600101906020018083116121e557829003601f168201915b505050505081526020016001876040518082805190602001908083835b6020831061223e5780518252601f19909201916020918201910161221f565b51815160209384036101000a6000190180199092169116179052920194855250604080519485900382018520858201825260138087527f77686974656c6973745f6c6f6e675f646573630000000000000000000000000093870193845291519095945092508291908083835b602083106122c95780518252601f1990920191602091820191016122aa565b518151600019602094850361010090810a820192831692199390931691909117909252949092019687526040805197889003820188208054601f600260018316159098029095011695909504928301829004820288018201905281875292945092505083018282801561237d5780601f106123525761010080835404028352916020019161237d565b820191906000526020600020905b81548152906001019060200180831161236057829003601f168201915b505050505081526020016008815260200183815250905061239d81611a20565b95945050505050565b6060806123b1614391565b6040805160028082526060820190925290816020015b6123cf6143c1565b8152602001906001900390816123c757905050915060e06040519081016040528060011515815260200160408051908101604052806007815260200160008051602061458883398151915281525081526020016040805190810160405280600b81526020017f616464726573734564697400000000000000000000000000000000000000000081525081526020016001876040518082805190602001908083835b6020831061248f5780518252601f199092019160209182019101612470565b51815160209384036101000a60001901801990921691161790529201948552506040805194859003820185208582018252600780875260008051602061458883398151915293870193845291519095945092508291908083835b602083106125085780518252601f1990920191602091820191016124e9565b518151600019602094850361010090810a820192831692199390931691909117909252949092019687526040805197889003820188208054601f60026001831615909802909501169590950492830182900482028801820190528187529294509250508301828280156125bc5780601f10612591576101008083540402835291602001916125bc565b820191906000526020600020905b81548152906001019060200180831161259f57829003601f168201915b5050505050815260200160408051908101604052806004815260200160e260020a631b9d5b1b0281525081526020016125f3611940565b8152602001612600611993565b905282518390600090811061261157fe5b9060200190602002018190525060e0604051908101604052806001151581526020016040805190810160405280600381526020017f616464000000000000000000000000000000000000000000000000000000000081525081526020016040805190810160405280600681526020017f627574746f6e000000000000000000000000000000000000000000000000000081525081526020016001876040518082805190602001908083835b602083106126db5780518252601f1990920191602091820191016126bc565b51815160209384036101000a6000190180199092169116179052920194855250604080519485900382018520858201825260038087527f616464000000000000000000000000000000000000000000000000000000000093870193845291519095945092508291908083835b602083106127665780518252601f199092019160209182019101612747565b518151600019602094850361010090810a820192831692199390931691909117909252949092019687526040805197889003820188208054601f600260018316159098029095011695909504928301829004820288018201905281875292945092505083018282801561281a5780601f106127ef5761010080835404028352916020019161281a565b820191906000526020600020905b8154815290600101906020018083116127fd57829003601f168201915b5050505050815260200160408051908101604052806004815260200160e260020a631b9d5b1b02815250815260200160a06040519081016040528060011515815260200187600160a060020a031681526020016040805190810160405280600c81526020017f616464286164647265737329000000000000000000000000000000000000000081525081526020016040805190810160405280600b81526020017f5b2261646472657373225d00000000000000000000000000000000000000000081525081526020016001896040518082805190602001908083835b602083106129155780518252601f1990920191602091820191016128f6565b51815160209384036101000a60001901801990921691161790529201948552506040805194859003820185208582018252600b8087527f6164645f636f6e6669726d00000000000000000000000000000000000000000093870193845291519095945092508291908083835b602083106129a05780518252601f199092019160209182019101612981565b518151600019602094850361010090810a820192831692199390931691909117909252949092019687526040805197889003820188208054601f6002600183161590980290950116959095049283018290048202880182019052818752929450925050830182828015612a545780601f10612a2957610100808354040283529160200191612a54565b820191906000526020600020905b815481529060010190602001808311612a3757829003601f168201915b50505050508152508152602001612a69611993565b9052825183906001908110612a7a57fe5b9060200190602002018190525060a0604051908101604052806001876040518082805190602001908083835b60208310612ac55780518252601f199092019160209182019101612aa6565b51815160209384036101000a6000190180199092169116179052920194855250604080519485900382018520858201825260108087527f6164645f746f5f77686974656c6973740000000000000000000000000000000093870193845291519095945092508291908083835b60208310612b505780518252601f199092019160209182019101612b31565b518151600019602094850361010090810a820192831692199390931691909117909252949092019687526040805197889003820188208054601f6002600183161590980290950116959095049283018290048202880182019052818752929450925050830182828015612c045780601f10612bd957610100808354040283529160200191612c04565b820191906000526020600020905b815481529060010190602001808311612be757829003601f168201915b505050505081526020016001876040518082805190602001908083835b60208310612c405780518252601f199092019160209182019101612c21565b51815160209384036101000a60001901801990921691161790529201948552506040805194859003820185208582018252601b8087527f6164645f746f5f77686974656c6973745f73686f72745f64657363000000000093870193845291519095945092508291908083835b60208310612ccb5780518252601f199092019160209182019101612cac565b518151600019602094850361010090810a820192831692199390931691909117909252949092019687526040805197889003820188208054601f6002600183161590980290950116959095049283018290048202880182019052818752929450925050830182828015612d7f5780601f10612d5457610100808354040283529160200191612d7f565b820191906000526020600020905b815481529060010190602001808311612d6257829003601f168201915b505050505081526020016001876040518082805190602001908083835b60208310612dbb5780518252601f199092019160209182019101612d9c565b51815160209384036101000a60001901801990921691161790529201948552506040805194859003820185208582018252601a8087527f6164645f746f5f77686974656c6973745f6c6f6e675f6465736300000000000093870193845291519095945092508291908083835b60208310612e465780518252601f199092019160209182019101612e27565b518151600019602094850361010090810a820192831692199390931691909117909252949092019687526040805197889003820188208054601f6002600183161590980290950116959095049283018290048202880182019052818752929450925050830182828015612efa5780601f10612ecf57610100808354040283529160200191612efa565b820191906000526020600020905b815481529060010190602001808311612edd57829003601f168201915b505050505081526020016004815260200183815250905061239d81611a20565b612f22614536565b50604080518082019091528151815260208281019082018190525b50919050565b606080600083600001518560000151016040519080825280601f01601f191660200182016040528015612f80578160200160208202803883390190505b509150602082019050612f9c8186602001518760000151613cae565b845160208501518551612fb29284019190613cae565b509392505050565b600160a060020a0381161515612fcf57600080fd5b60008054604051600160a060020a03808516939216917f8be0079c531659141344cd1fd0a4f28419497f9722a3daafe3b4186f6b6457e091a36000805473ffffffffffffffffffffffffffffffffffffffff1916600160a060020a0392909216919091179055565b606080600081818515156130805760408051808201909152600181527f30000000000000000000000000000000000000000000000000000000000000006020820152945061318d565b6040805160208082528183019092529080820161040080388339019050509350600092505b60008611156130f257600a860660300160f860020a0284848151811015156130c957fe5b906020010190600160f860020a031916908160001a905350600a860495506001909201916130a5565b60408051848152601f19601f86011681016020019091526000198401938015613125578160200160208202803883390190505b509150600090505b81518110156131895783516000198401938591811061314857fe5b90602001015160f860020a900460f860020a02828281518110151561316957fe5b906020010190600160f860020a031916908160001a90535060010161312d565b8194505b50505050919050565b606080826000015115613430576040805190810160405280600781526020017f7b226964223a220000000000000000000000000000000000000000000000000081525090506131f46131eb8460200151612f1a565b6115fa83612f1a565b905061321e6131eb60408051908101604052806001815260200160f960020a601102815250612f1a565b60a084015151909150156132855761326d6131eb6040805190810160405280600b81526020017f2c2022616374696f6e223a000000000000000000000000000000000000000000815250612f1a565b90506132826131eb6119358560a00151613cf2565b90505b60c083015151156132e9576132d16131eb6040805190810160405280600a81526020017f2c20227461626c65223a00000000000000000000000000000000000000000000815250612f1a565b90506132e66131eb6119358560c00151613e95565b90505b61332a6131eb6040805190810160405280600981526020017f2c2274797065223a220000000000000000000000000000000000000000000000815250612f1a565b905061333c6131eb8460400151612f1a565b905061337f6131eb6040805190810160405280600b81526020017f222c226c6162656c223a22000000000000000000000000000000000000000000815250612f1a565b90506133916131eb8460600151612f1a565b90506133d46131eb6040805190810160405280600981526020017f222c2264617461223a0000000000000000000000000000000000000000000000815250612f1a565b90506133e66131eb8460800151612f1a565b90506134296131eb6040805190810160405280600181526020017f7d00000000000000000000000000000000000000000000000000000000000000815250612f1a565b9150612f3d565b604080518082019091526004815260e260020a631b9d5b1b0260208201529150612f3d565b6040805160028082526060828101909352829190816020015b613476614503565b81526020019060019003908161346e57905050905060a060405190810160405280600115158152602001604080519081016040528060078152602001600080516020614588833981519152815250815260200160408051908101604052806007815260200160008051602061458883398151915281525081526020016001866040518082805190602001908083835b602083106135245780518252601f199092019160209182019101613505565b51815160209384036101000a60001901801990921691161790529201948552506040805194859003820185208582018252600780875260008051602061458883398151915293870193845291519095945092508291908083835b6020831061359d5780518252601f19909201916020918201910161357e565b518151600019602094850361010090810a820192831692199390931691909117909252949092019687526040805197889003820188208054601f60026001831615909802909501169590950492830182900482028801820190528187529294509250508301828280156136515780601f1061362657610100808354040283529160200191613651565b820191906000526020600020905b81548152906001019060200180831161363457829003601f168201915b50505050508152602001613663611940565b905281518290600090811061367457fe5b9060200190602002018190525060a0604051908101604052806001151581526020016040805190810160405280600681526020017f72656d6f7665000000000000000000000000000000000000000000000000000081525081526020016040805190810160405280600681526020017f627574746f6e000000000000000000000000000000000000000000000000000081525081526020016001866040518082805190602001908083835b6020831061373e5780518252601f19909201916020918201910161371f565b51815160209384036101000a6000190180199092169116179052920194855250604080519485900382018520858201825260068087527f72656d6f7665000000000000000000000000000000000000000000000000000093870193845291519095945092508291908083835b602083106137c95780518252601f1990920191602091820191016137aa565b518151600019602094850361010090810a820192831692199390931691909117909252949092019687526040805197889003820188208054601f600260018316159098029095011695909504928301829004820288018201905281875292945092505083018282801561387d5780601f106138525761010080835404028352916020019161387d565b820191906000526020600020905b81548152906001019060200180831161386057829003601f168201915b5050505050815260200160a06040519081016040528060011515815260200186600160a060020a031681526020016040805190810160405280600f81526020017f72656d6f7665286164647265737329000000000000000000000000000000000081525081526020016040805190810160405280600b81526020017f5b2261646472657373225d00000000000000000000000000000000000000000081525081526020016001886040518082805190602001908083835b602083106139535780518252601f199092019160209182019101613934565b51815160209384036101000a60001901801990921691161790529201948552506040805194859003820185208582018252600e8087527f72656d6f76655f636f6e6669726d00000000000000000000000000000000000093870193845291519095945092508291908083835b602083106139de5780518252601f1990920191602091820191016139bf565b518151600019602094850361010090810a820192831692199390931691909117909252949092019687526040805197889003820188208054601f6002600183161590980290950116959095049283018290048202880182019052818752929450925050830182828015613a925780601f10613a6757610100808354040283529160200191613a92565b820191906000526020600020905b815481529060010190602001808311613a7557829003601f168201915b5050505050815250815250816001815181101515613aac57fe5b60209081029091010152905092915050565b606080600080606085600160a060020a03166381b3bc3b6040518163ffffffff1660e060020a028152600401602060405180830381600087803b158015613b0457600080fd5b505af1158015613b18573d6000803e3d6000fd5b505050506040513d6020811015613b2e57600080fd5b5051604080518281526020808402820101909152908015613b6357816020015b6060815260200190600190039081613b4e5790505b509350600092505b8351831015613ca35785600160a060020a031663edf26d9b846040518263ffffffff1660e060020a02815260040180828152602001915050602060405180830381600087803b158015613bbd57600080fd5b505af1158015613bd1573d6000803e3d6000fd5b505050506040513d6020811015613be757600080fd5b505160408051808201909152600c81527f7b2261646472657373223a22000000000000000000000000000000000000000060208201529092509050613c3a6131eb611935600160a060020a038516614096565b9050613c7d6131eb6040805190810160405280600281526020017f227d000000000000000000000000000000000000000000000000000000000000815250612f1a565b9050808484815181101515613c8e57fe5b60209081029091010152600190920191613b6b565b509195945050505050565b60005b60208210613cd3578251845260209384019390920191601f1990910190613cb1565b50905182516020929092036101000a6000190180199091169116179052565b606080826000015115613430576040805190810160405280600c81526020017f7b2261646472657373223a2200000000000000000000000000000000000000008152509050613d536131eb6119358560200151600160a060020a0316614096565b9050613d966131eb6040805190810160405280601681526020017f222c2266756e6374696f6e53656c6563746f72223a2200000000000000000000815250612f1a565b9050613da86131eb8460400151612f1a565b9050613deb6131eb6040805190810160405280600e81526020017f222c22617267756d656e7473223a000000000000000000000000000000000000815250612f1a565b9050613dfd6131eb8460600151612f1a565b9050613e406131eb6040805190810160405280600c81526020017f2c22636f6e6669726d223a220000000000000000000000000000000000000000815250612f1a565b9050613e526131eb8460800151612f1a565b90506134296131eb6040805190810160405280600281526020017f227d000000000000000000000000000000000000000000000000000000000000815250612f1a565b60608060008084600001511561406d57505060408051808201909152600c81527f7b22636f6c756d6e73223a5b0000000000000000000000000000000000000000602082015290506000805b846020015151811015613f63576000821115613f2b57613f28613f1f60408051908101604052806001815260200160fa60020a600b02815250612f1a565b6115fa85612f1a565b92505b613f55613f1f611935876020015184815181101515613f4657fe5b906020019060200201516141d9565b925060019182019101613ee1565b613fa4613f1f6040805190810160405280600a81526020017f5d2c22726f7773223a5b00000000000000000000000000000000000000000000815250612f1a565b925060009150600090505b846040015151811015614025576000821115613ff057613fed613f1f60408051908101604052806001815260200160fa60020a600b02815250612f1a565b92505b614017613f1f86604001518381518110151561400857fe5b90602001906020020151612f1a565b925060019182019101613faf565b614066613f1f6040805190810160405280600281526020017f5d7d000000000000000000000000000000000000000000000000000000000000815250612f1a565b935061408e565b604080518082019091526004815260e260020a631b9d5b1b02602082015293505b505050919050565b60408051602a80825260608083019093528291600091829182916020820161054080388339505081519195507f30000000000000000000000000000000000000000000000000000000000000009186915060009081106140f257fe5b906020010190600160f860020a031916908160001a90535083517f7800000000000000000000000000000000000000000000000000000000000000908590600190811061413b57fe5b906020010190600160f860020a031916908160001a905350859250600091505b60288210156141cf57506030600f8316016039600160a060020a0382161115614182576027015b8060f860020a02848360280360010181518110151561419d57fe5b906020010190600160f860020a031916908160001a9053506010600160a060020a03841604925060019091019061415b565b5091949350505050565b606080826000015115613430576040805190810160405280600781526020017f7b226964223a2200000000000000000000000000000000000000000000000000815250905061422e6131eb8460200151612f1a565b90506142586131eb60408051908101604052806001815260200160f960020a601102815250612f1a565b608084015151909150156142e95761428e6131eb60408051908101604052806001815260200160fa60020a600b02815250612f1a565b90506142d16131eb6040805190810160405280600981526020017f22616374696f6e223a0000000000000000000000000000000000000000000000815250612f1a565b90506142e66131eb6119358560800151613cf2565b90505b61432a6131eb6040805190810160405280600981526020017f2c2274797065223a220000000000000000000000000000000000000000000000815250612f1a565b905061433c6131eb8460400151612f1a565b905061437f6131eb6040805190810160405280600b81526020017f222c226c6162656c223a22000000000000000000000000000000000000000000815250612f1a565b9050613e526131eb8460600151612f1a565b60a06040519081016040528060608152602001606081526020016060815260200160008152602001606081525090565b6101a060405190810160405280600015158152602001606081526020016060815260200160608152602001606081526020016143fb6144b2565b81526020016144086144df565b905290565b60408051908101604052806002905b606081526020019060019003908161441c5790505090565b828054600181600116156101000203166002900490600052602060002090601f016020900481019282601f1061447557805160ff19168380011785556144a2565b828001600101855582156144a2579182015b828111156144a2578251825591602001919060010190614487565b506144ae92915061454d565b5090565b6040805160a081018252600080825260208201526060918101829052818101829052608081019190915290565b60606040519081016040528060001515815260200160608152602001606081525090565b610120604051908101604052806000151581526020016060815260200160608152602001606081526020016144086144b2565b604080518082019091526000808252602082015290565b61199091905b808211156144ae5760008155600101614553560077686974656c69737400000000000000000000000000000000000000000000006164647265737300000000000000000000000000000000000000000000000000a165627a7a72305820879fff205c42c9253e2670937de55b4f6145464b4665f238241069958adb63a50029",
  "source": "pragma solidity ^0.4.24;\n\nimport \"tokenboost-solidity/contracts/widget/Localizable.sol\";\nimport \"tokenboost-solidity/contracts/widget/Widgets.sol\";\nimport \"tokenboost-solidity/contracts/utils/StringUtils.sol\";\nimport \"../WhitelistStrategy.sol\";\n\ncontract WhitelistStrategyRenderer is Localizable {\n    using Widgets for Widgets.Widget;\n    using Elements for Elements.Element;\n    using strings for *;\n    using UintUtils for uint;\n    using AddressUtils for address;\n    using StringUtils for string;\n\n    string public constant WHITELIST = \"whitelist\";\n    string public constant WHITELIST_SHORT_DESC = \"whitelist_short_desc\";\n    string public constant WHITELIST_LONG_DESC = \"whitelist_long_desc\";\n    string public constant ADDRESS = \"address\";\n    string public constant REMOVE = \"remove\";\n    string public constant REMOVE_CONFIRM = \"remove_confirm\";\n    string public constant ADD_TO_WHITELIST = \"add_to_whitelist\";\n    string public constant ADD_TO_WHITELIST_SHORT_DESC = \"add_to_whitelist_short_desc\";\n    string public constant ADD_TO_WHITELIST_LONG_DESC = \"add_to_whitelist_long_desc\";\n    string public constant ADD = \"add\";\n    string public constant ADD_CONFIRM = \"add_confirm\";\n    string public constant WHITELIST_STATUS = \"whitelist_status\";\n    string public constant WHITELIST_STATUS_SHORT_DESC = \"whitelist_status_short_desc\";\n    string public constant WHITELIST_STATUS_LONG_DESC = \"whitelist_status_long_desc\";\n    string public constant WHITELISTED = \"whitelisted\";\n    string public constant NOT_WHITELISTED = \"not_whitelisted\";\n\n    function adminWidgets(string _locale, WhitelistStrategy _strategy) public view returns (string) {\n        string memory json = \"[\";\n        uint length = 0;\n        string[2] memory widgets = [\n        _whitelistWidget(_locale, _strategy),\n        _addToWhitelistWidget(_locale, _strategy)\n        ];\n        for (uint i = 0; i < widgets.length; i++) {\n            string memory widget = widgets[i];\n            if (bytes(widget).length > 0) {\n                if (length > 0) {\n                    json = json.toSlice().concat(\",\".toSlice());\n                }\n                json = json.toSlice().concat(widget.toSlice());\n                length++;\n            }\n        }\n        return json.toSlice().concat(\"]\".toSlice());\n    }\n\n    function _whitelistWidget(string _locale, WhitelistStrategy _strategy) private view returns (string json) {\n        Elements.Element[] memory elements = new Elements.Element[](1);\n        elements[0] = Elements.Element(\n            true,\n            WHITELIST,\n            \"table\",\n            resources[_locale][WHITELIST],\n            \"null\",\n            Actions.empty(),\n            Tables.Table(true, _columns(_locale, _strategy), _rows(_locale, _strategy))\n        );\n        Widgets.Widget memory widget = Widgets.Widget(\n            resources[_locale][WHITELIST],\n            resources[_locale][WHITELIST_SHORT_DESC],\n            resources[_locale][WHITELIST_LONG_DESC],\n            8,\n            elements\n        );\n        return widget.toJson();\n    }\n\n    function _columns(string _locale, WhitelistStrategy _strategy) private view returns (Tables.Column[]) {\n        Tables.Column[] memory columns = new Tables.Column[](2);\n        columns[0] = Tables.Column(\n            true,\n            ADDRESS,\n            \"address\",\n            resources[_locale][ADDRESS],\n            Actions.empty()\n        );\n        columns[1] = Tables.Column(\n            true,\n            REMOVE,\n            \"button\",\n            resources[_locale][REMOVE],\n            Actions.Action(\n                true,\n                address(_strategy),\n                \"remove(address)\",\n                '[\"address\"]',\n                resources[_locale][REMOVE_CONFIRM]\n            )\n        );\n        return columns;\n    }\n\n    function _rows(string _locale, WhitelistStrategy _strategy) private view returns (string[]) {\n        string[] memory rows = new string[](_strategy.numberOfAddresses());\n        for (uint i = 0; i < rows.length; i++) {\n            address addr = _strategy.addresses(i);\n            string memory row = '{\"address\":\"';\n            row = row.toSlice().concat(addr.toString().toSlice());\n            row = row.toSlice().concat('\"}'.toSlice());\n            rows[i] = row;\n        }\n        return rows;\n    }\n\n    function _addToWhitelistWidget(string _locale, WhitelistStrategy _strategy) private view returns (string json) {\n        Elements.Element[] memory elements = new Elements.Element[](2);\n        elements[0] = Elements.Element(\n            true,\n            ADDRESS,\n            \"addressEdit\",\n            resources[_locale][ADDRESS],\n            \"null\",\n            Actions.empty(),\n            Tables.empty()\n        );\n        elements[1] = Elements.Element(\n            true,\n            ADD,\n            \"button\",\n            resources[_locale][ADD],\n            \"null\",\n            Actions.Action(\n                true,\n                address(_strategy),\n                \"add(address)\",\n                '[\"address\"]',\n                resources[_locale][ADD_CONFIRM]\n            ),\n            Tables.empty()\n        );\n        Widgets.Widget memory widget = Widgets.Widget(\n            resources[_locale][ADD_TO_WHITELIST],\n            resources[_locale][ADD_TO_WHITELIST_SHORT_DESC],\n            resources[_locale][ADD_TO_WHITELIST_LONG_DESC],\n            4,\n            elements\n        );\n        return widget.toJson();\n    }\n\n    function userWidgets(string _locale, WhitelistStrategy _strategy) public view returns (string json) {\n        if (_strategy.sale().activated()) {\n            string memory status;\n            if (_strategy.whitelisted(tx.origin)) {\n                status = resources[_locale][WHITELISTED];\n            } else {\n                status = resources[_locale][NOT_WHITELISTED];\n            }\n            Elements.Element[] memory elements = new Elements.Element[](1);\n            elements[0] = Elements.Element(\n                true,\n                WHITELIST_STATUS,\n                \"text\",\n                \"\",\n                status.quoted(),\n                Actions.empty(),\n                Tables.empty()\n            );\n            Widgets.Widget memory widget = Widgets.Widget(\n                resources[_locale][WHITELIST_STATUS],\n                resources[_locale][WHITELIST_STATUS_SHORT_DESC],\n                resources[_locale][WHITELIST_STATUS_LONG_DESC],\n                4,\n                elements\n            );\n            return string(abi.encodePacked(\"[\", widget.toJson(), \"]\"));\n        } else {\n            return \"[]\";\n        }\n    }\n\n    function inputs(string _locale, WhitelistStrategy _strategy) public view returns (string) {\n        return \"[]\";\n    }\n}\n",
  "sourcePath": "/Users/yoonjae/SolidityProjects/tokenboost-solidity-erc20sale-strategies/contracts/strategy/sale/erc20/whitelist/widget/WhitelistStrategyRenderer.sol",
  "compiler": {
    "name": "solc",
    "version": "0.4.24+commit.e67f0147.Emscripten.clang"
  },
  "schemaVersion": "2.0.1",
  "updatedAt": "2018-10-18T06:33:08.095Z"
}