{
  "contractName": "WhitelistStrategy",
  "abi": [
    {
      "constant": true,
      "inputs": [
        {
          "name": "_interfaceId",
          "type": "bytes4"
        }
      ],
      "name": "supportsInterface",
      "outputs": [
        {
          "name": "",
          "type": "bool"
        }
      ],
      "payable": false,
      "stateMutability": "view",
      "type": "function"
    },
    {
      "constant": false,
      "inputs": [],
      "name": "activate",
      "outputs": [
        {
          "name": "",
          "type": "bool"
        }
      ],
      "payable": false,
      "stateMutability": "nonpayable",
      "type": "function"
    },
    {
      "constant": true,
      "inputs": [],
      "name": "activated",
      "outputs": [
        {
          "name": "",
          "type": "bool"
        }
      ],
      "payable": false,
      "stateMutability": "view",
      "type": "function"
    },
    {
      "constant": true,
      "inputs": [],
      "name": "InterfaceId_ERC165",
      "outputs": [
        {
          "name": "",
          "type": "bytes4"
        }
      ],
      "payable": false,
      "stateMutability": "view",
      "type": "function"
    },
    {
      "constant": false,
      "inputs": [],
      "name": "deactivate",
      "outputs": [
        {
          "name": "",
          "type": "bool"
        }
      ],
      "payable": false,
      "stateMutability": "nonpayable",
      "type": "function"
    },
    {
      "constant": true,
      "inputs": [],
      "name": "InterfaceId_Strategy",
      "outputs": [
        {
          "name": "",
          "type": "bytes4"
        }
      ],
      "payable": false,
      "stateMutability": "view",
      "type": "function"
    },
    {
      "constant": true,
      "inputs": [],
      "name": "sale",
      "outputs": [
        {
          "name": "",
          "type": "address"
        }
      ],
      "payable": false,
      "stateMutability": "view",
      "type": "function"
    },
    {
      "constant": true,
      "inputs": [],
      "name": "template",
      "outputs": [
        {
          "name": "",
          "type": "address"
        }
      ],
      "payable": false,
      "stateMutability": "view",
      "type": "function"
    },
    {
      "constant": false,
      "inputs": [],
      "name": "renounceOwnership",
      "outputs": [],
      "payable": false,
      "stateMutability": "nonpayable",
      "type": "function"
    },
    {
      "constant": true,
      "inputs": [],
      "name": "renderer",
      "outputs": [
        {
          "name": "",
          "type": "address"
        }
      ],
      "payable": false,
      "stateMutability": "view",
      "type": "function"
    },
    {
      "constant": true,
      "inputs": [],
      "name": "owner",
      "outputs": [
        {
          "name": "",
          "type": "address"
        }
      ],
      "payable": false,
      "stateMutability": "view",
      "type": "function"
    },
    {
      "constant": true,
      "inputs": [],
      "name": "InterfaceId_ERC20SaleStrategy",
      "outputs": [
        {
          "name": "",
          "type": "bytes4"
        }
      ],
      "payable": false,
      "stateMutability": "view",
      "type": "function"
    },
    {
      "constant": true,
      "inputs": [],
      "name": "InterfaceId_SaleStrategy",
      "outputs": [
        {
          "name": "",
          "type": "bytes4"
        }
      ],
      "payable": false,
      "stateMutability": "view",
      "type": "function"
    },
    {
      "constant": true,
      "inputs": [
        {
          "name": "",
          "type": "address"
        }
      ],
      "name": "whitelisted",
      "outputs": [
        {
          "name": "",
          "type": "bool"
        }
      ],
      "payable": false,
      "stateMutability": "view",
      "type": "function"
    },
    {
      "constant": false,
      "inputs": [
        {
          "name": "_newOwner",
          "type": "address"
        }
      ],
      "name": "transferOwnership",
      "outputs": [],
      "payable": false,
      "stateMutability": "nonpayable",
      "type": "function"
    },
    {
      "constant": true,
      "inputs": [],
      "name": "InterfaceId_Contract",
      "outputs": [
        {
          "name": "",
          "type": "bytes4"
        }
      ],
      "payable": false,
      "stateMutability": "view",
      "type": "function"
    },
    {
      "inputs": [
        {
          "name": "_owner",
          "type": "address"
        },
        {
          "name": "_sale",
          "type": "address"
        }
      ],
      "payable": false,
      "stateMutability": "nonpayable",
      "type": "constructor"
    },
    {
      "anonymous": false,
      "inputs": [
        {
          "indexed": true,
          "name": "previousOwner",
          "type": "address"
        }
      ],
      "name": "OwnershipRenounced",
      "type": "event"
    },
    {
      "anonymous": false,
      "inputs": [
        {
          "indexed": true,
          "name": "previousOwner",
          "type": "address"
        },
        {
          "indexed": true,
          "name": "newOwner",
          "type": "address"
        }
      ],
      "name": "OwnershipTransferred",
      "type": "event"
    },
    {
      "constant": true,
      "inputs": [],
      "name": "numberOfAddresses",
      "outputs": [
        {
          "name": "",
          "type": "uint256"
        }
      ],
      "payable": false,
      "stateMutability": "view",
      "type": "function"
    },
    {
      "constant": true,
      "inputs": [
        {
          "name": "index",
          "type": "uint256"
        }
      ],
      "name": "addresses",
      "outputs": [
        {
          "name": "",
          "type": "address"
        }
      ],
      "payable": false,
      "stateMutability": "view",
      "type": "function"
    },
    {
      "constant": false,
      "inputs": [
        {
          "name": "_address",
          "type": "address"
        }
      ],
      "name": "add",
      "outputs": [],
      "payable": false,
      "stateMutability": "nonpayable",
      "type": "function"
    },
    {
      "constant": false,
      "inputs": [
        {
          "name": "_address",
          "type": "address"
        }
      ],
      "name": "remove",
      "outputs": [],
      "payable": false,
      "stateMutability": "nonpayable",
      "type": "function"
    },
    {
      "constant": true,
      "inputs": [],
      "name": "started",
      "outputs": [
        {
          "name": "",
          "type": "bool"
        }
      ],
      "payable": false,
      "stateMutability": "view",
      "type": "function"
    },
    {
      "constant": true,
      "inputs": [],
      "name": "successful",
      "outputs": [
        {
          "name": "",
          "type": "bool"
        }
      ],
      "payable": false,
      "stateMutability": "view",
      "type": "function"
    },
    {
      "constant": true,
      "inputs": [],
      "name": "finished",
      "outputs": [
        {
          "name": "",
          "type": "bool"
        }
      ],
      "payable": false,
      "stateMutability": "view",
      "type": "function"
    },
    {
      "constant": true,
      "inputs": [
        {
          "name": "_purchaser",
          "type": "address"
        },
        {
          "name": "_weiAmount",
          "type": "uint256"
        }
      ],
      "name": "purchasable",
      "outputs": [
        {
          "name": "",
          "type": "bool"
        }
      ],
      "payable": false,
      "stateMutability": "view",
      "type": "function"
    },
    {
      "constant": true,
      "inputs": [
        {
          "name": "_purchaser",
          "type": "address"
        },
        {
          "name": "_weiAmount",
          "type": "uint256"
        }
      ],
      "name": "tokenRate",
      "outputs": [
        {
          "name": "",
          "type": "uint256"
        }
      ],
      "payable": false,
      "stateMutability": "view",
      "type": "function"
    },
    {
      "constant": false,
      "inputs": [
        {
          "name": "_purchaser",
          "type": "address"
        },
        {
          "name": "_tokenAmount",
          "type": "uint256"
        }
      ],
      "name": "supplyTokens",
      "outputs": [
        {
          "name": "",
          "type": "bool"
        }
      ],
      "payable": false,
      "stateMutability": "nonpayable",
      "type": "function"
    },
    {
      "constant": false,
      "inputs": [
        {
          "name": "_purchaser",
          "type": "address"
        },
        {
          "name": "_tokenAmount",
          "type": "uint256"
        }
      ],
      "name": "receivesTokens",
      "outputs": [
        {
          "name": "",
          "type": "bool"
        }
      ],
      "payable": false,
      "stateMutability": "nonpayable",
      "type": "function"
    },
    {
      "constant": true,
      "inputs": [
        {
          "name": "locale",
          "type": "string"
        }
      ],
      "name": "adminWidgets",
      "outputs": [
        {
          "name": "json",
          "type": "string"
        }
      ],
      "payable": false,
      "stateMutability": "view",
      "type": "function"
    },
    {
      "constant": true,
      "inputs": [
        {
          "name": "locale",
          "type": "string"
        }
      ],
      "name": "userWidgets",
      "outputs": [
        {
          "name": "json",
          "type": "string"
        }
      ],
      "payable": false,
      "stateMutability": "view",
      "type": "function"
    },
    {
      "constant": true,
      "inputs": [
        {
          "name": "locale",
          "type": "string"
        }
      ],
      "name": "inputs",
      "outputs": [
        {
          "name": "json",
          "type": "string"
        }
      ],
      "payable": false,
      "stateMutability": "view",
      "type": "function"
    }
  ],
  "bytecode": "0x608060405234801561001057600080fd5b5060405160408061118383398101604052805160209091015160008054600160a060020a031916331790558181818181806100737f01ffc9a7000000000000000000000000000000000000000000000000000000006401000000006101e4810204565b600160a060020a038116151561008857600080fd5b6002805433600160a060020a03199182161790915560008054909116600160a060020a0383161790556100e37f6125ede5000000000000000000000000000000000000000000000000000000006401000000006101e4810204565b506101167f6e301925000000000000000000000000000000000000000000000000000000006401000000006101e4810204565b5060038054600160a060020a031916600160a060020a0383161790556101647f04c8123d000000000000000000000000000000000000000000000000000000006401000000006101e4810204565b505060048054600160a060020a031916600160a060020a0383161790556101b37fa0d0304b000000000000000000000000000000000000000000000000000000006401000000006101e4810204565b50506002805460a060020a60ff02191674010000000000000000000000000000000000000000179055506102539050565b7fffffffff00000000000000000000000000000000000000000000000000000000808216141561021357600080fd5b7fffffffff00000000000000000000000000000000000000000000000000000000166000908152600160208190526040909120805460ff19169091179055565b610f21806102626000396000f30060806040526004361061017f5763ffffffff7c010000000000000000000000000000000000000000000000000000000060003504166301bd3411811461018457806301ffc9a7146102525780630a3b0a4f1461029d5780630f15f4c0146102c0578063186601ca146102d557806319fa8f50146102ea5780631f2698ab1461033157806329092d0e146103465780634f9a82d61461036757806351b42b001461038b5780635589530e146103a0578063587775e8146103d657806364b630d8146103fa5780636ad1fe021461040f5780636f2ddd9314610440578063715018a61461045557806381b3bc3b1461046a5780638ada6b0f1461047f5780638da5cb5b14610494578063908ba648146104a9578063944ac32b146105025780639a9e3fd814610331578063a3a8fd2c14610517578063bef4876b14610331578063ce30824e14610570578063d936547e14610585578063e67c8646146103d6578063edf26d9b146105a6578063f2fde38b146105be578063fbf964eb146105df575b600080fd5b34801561019057600080fd5b506040805160206004803580820135601f81018490048402850184019095528484526101dd9436949293602493928401919081908401838280828437509497506105f49650505050505050565b6040805160208082528351818301528351919283929083019185019080838360005b838110156102175781810151838201526020016101ff565b50505050905090810190601f1680156102445780820380516001836020036101000a031916815260200191505b509250505060405180910390f35b34801561025e57600080fd5b506102897bffffffffffffffffffffffffffffffffffffffffffffffffffffffff196004351661075d565b604080519115158252519081900360200190f35b3480156102a957600080fd5b506102be600160a060020a0360043516610791565b005b3480156102cc57600080fd5b50610289610886565b3480156102e157600080fd5b50610289610928565b3480156102f657600080fd5b506102ff610949565b604080517bffffffffffffffffffffffffffffffffffffffffffffffffffffffff199092168252519081900360200190f35b34801561033d57600080fd5b5061028961096d565b34801561035257600080fd5b506102be600160a060020a0360043516610972565b34801561037357600080fd5b50610289600160a060020a03600435166024356109aa565b34801561039757600080fd5b506102896109c9565b3480156103ac57600080fd5b506103c4600160a060020a0360043516602435610aa7565b60408051918252519081900360200190f35b3480156103e257600080fd5b50610289600160a060020a0360043516602435610aa7565b34801561040657600080fd5b506102ff610aaf565b34801561041b57600080fd5b50610424610ad3565b60408051600160a060020a039092168252519081900360200190f35b34801561044c57600080fd5b50610424610ae2565b34801561046157600080fd5b506102be610af1565b34801561047657600080fd5b506103c4610b5d565b34801561048b57600080fd5b50610424610bc1565b3480156104a057600080fd5b50610424610bd9565b3480156104b557600080fd5b506040805160206004803580820135601f81018490048402850184019095528484526101dd943694929360249392840191908190840183828082843750949750610be89650505050505050565b34801561050e57600080fd5b506102ff610c75565b34801561052357600080fd5b506040805160206004803580820135601f81018490048402850184019095528484526101dd943694929360249392840191908190840183828082843750949750610c999650505050505050565b34801561057c57600080fd5b506102ff610d26565b34801561059157600080fd5b50610289600160a060020a0360043516610d4a565b3480156105b257600080fd5b50610424600435610d5f565b3480156105ca57600080fd5b506102be600160a060020a0360043516610dd7565b3480156105eb57600080fd5b506102ff610dfa565b604080517fbf3bed54000000000000000000000000000000000000000000000000000000008152306024820181905260048201928352835160448301528351606093735f5f57686974656c6973745374726174656779529363bf3bed549387939092918291606490910190602086019080838360005b8381101561068257818101518382015260200161066a565b50505050905090810190601f1680156106af5780820380516001836020036101000a031916815260200191505b509350505050600060405180830381600087803b1580156106cf57600080fd5b505af11580156106e3573d6000803e3d6000fd5b505050506040513d6000823e601f3d908101601f19168201604052602081101561070c57600080fd5b81019080805164010000000081111561072457600080fd5b8201602081018481111561073757600080fd5b815164010000000081118282018710171561075157600080fd5b50909695505050505050565b7bffffffffffffffffffffffffffffffffffffffffffffffffffffffff191660009081526001602052604090205460ff1690565b600080548190600160a060020a031633146107ab57600080fd5b5050600160a060020a0381166000908152600560205260408120805460ff19166001179055805b6006548110156108215782600160a060020a03166006828154811015156107f557fe5b600091825260209091200154600160a060020a031614156108195760019150610821565b6001016107d2565b81151561088157600680546001810182556000919091527ff652222313e28459528d920b65115c16c04f3efc82aaedc97be59f3f377c0d3f01805473ffffffffffffffffffffffffffffffffffffffff1916600160a060020a0385161790555b505050565b600354604080517f186601ca0000000000000000000000000000000000000000000000000000000081529051600092600160a060020a03169163186601ca91600480830192602092919082900301818787803b1580156108e557600080fd5b505af11580156108f9573d6000803e3d6000fd5b505050506040513d602081101561090f57600080fd5b50511561091b57600080fd5b610923610e1e565b905090565b60025474010000000000000000000000000000000000000000900460ff1681565b7f01ffc9a70000000000000000000000000000000000000000000000000000000081565b600090565b600054600160a060020a0316331461098957600080fd5b600160a060020a03166000908152600560205260409020805460ff19169055565b50600160a060020a031660009081526005602052604090205460ff1690565b60008054600160a060020a031633146109e157600080fd5b600360009054906101000a9004600160a060020a0316600160a060020a031663186601ca6040518163ffffffff167c0100000000000000000000000000000000000000000000000000000000028152600401602060405180830381600087803b158015610a4d57600080fd5b505af1158015610a61573d6000803e3d6000fd5b505050506040513d6020811015610a7757600080fd5b505115610a8357600080fd5b506002805474ff000000000000000000000000000000000000000019169055600190565b600092915050565b7f6e3019250000000000000000000000000000000000000000000000000000000081565b600454600160a060020a031681565b600254600160a060020a031681565b600054600160a060020a03163314610b0857600080fd5b60008054604051600160a060020a03909116917ff8df31144d9c2f0f6b59d69b8b98abd5459d07f2742c4df920b25aae33c6482091a26000805473ffffffffffffffffffffffffffffffffffffffff19169055565b600080805b600654811015610bbb5760056000600683815481101515610b7f57fe5b6000918252602080832090910154600160a060020a0316835282019290925260400190205460ff1615610bb3576001909101905b600101610b62565b50919050565b735f5f57686974656c69737453747261746567795281565b600054600160a060020a031681565b604080517fe77cee3d000000000000000000000000000000000000000000000000000000008152306024820181905260048201928352835160448301528351606093735f5f57686974656c6973745374726174656779529363e77cee3d9387939092918291606490910190602086019080838360008381101561068257818101518382015260200161066a565b7fa0d0304b0000000000000000000000000000000000000000000000000000000081565b604080517fe9499555000000000000000000000000000000000000000000000000000000008152306024820181905260048201928352835160448301528351606093735f5f57686974656c6973745374726174656779529363e94995559387939092918291606490910190602086019080838360008381101561068257818101518382015260200161066a565b7f04c8123d0000000000000000000000000000000000000000000000000000000081565b60056020526000908152604090205460ff1681565b60008080805b60065482101561017f576006805483908110610d7d57fe5b6000918252602080832090910154600160a060020a0316808352600590915260409091205490915060ff1615610dc45782851415610dbd57809350610dcf565b6001909201915b600190910190610d65565b505050919050565b600054600160a060020a03163314610dee57600080fd5b610df781610e3e565b50565b7f6125ede50000000000000000000000000000000000000000000000000000000081565b60008054600160a060020a03163314610e3657600080fd5b610923610ebb565b600160a060020a0381161515610e5357600080fd5b60008054604051600160a060020a03808516939216917f8be0079c531659141344cd1fd0a4f28419497f9722a3daafe3b4186f6b6457e091a36000805473ffffffffffffffffffffffffffffffffffffffff1916600160a060020a0392909216919091179055565b6002805474ff00000000000000000000000000000000000000001916740100000000000000000000000000000000000000001790556001905600a165627a7a7230582092dc6ae0950f0160bee66d0e0252e7eaadecb61a8a8163e3627fa7f7dd24e3d80029",
  "source": "pragma solidity ^0.4.24;\n\nimport \"tokenboost-solidity/contracts/strategy/sale/erc20/ERC20SaleStrategy.sol\";\nimport \"tokenboost-solidity/contracts/widget/Renderable.sol\";\nimport \"./widget/WhitelistStrategyRenderer.sol\";\n\ncontract WhitelistStrategy is ERC20SaleStrategy, Renderable {\n    WhitelistStrategyRenderer public constant renderer = WhitelistStrategyRenderer(address(bytes20(\"__WhitelistStrategyR\")));\n\n    mapping(address => bool) public whitelisted;\n    address[] addrs;\n\n    constructor(address _owner, ERC20Sale _sale) public ERC20SaleStrategy(_owner, _sale) {\n        activated = true;\n    }\n\n    function numberOfAddresses() public view returns (uint) {\n        uint number;\n        for (uint i = 0; i < addrs.length; i++) {\n            if (whitelisted[addrs[i]]) {\n                number++;\n            }\n        }\n        return number;\n    }\n\n    function addresses(uint index) public view returns (address) {\n        uint j = 0;\n        for (uint i = 0; i < addrs.length; i++) {\n            address addr = addrs[i];\n            if (whitelisted[addr]) {\n                if (index == j) {\n                    return addr;\n                }\n                j++;\n            }\n        }\n        revert();\n    }\n\n    function add(address _address) public onlyOwner {\n        whitelisted[_address] = true;\n\n        bool exists = false;\n        for (uint i = 0; i < addrs.length; i++) {\n            if (addrs[i] == _address) {\n                exists = true;\n                break;\n            }\n        }\n\n        if (!exists) {\n            addrs.push(_address);\n        }\n    }\n\n    function remove(address _address) public onlyOwner {\n        whitelisted[_address] = false;\n    }\n\n    function started() public view returns (bool) {\n        return false;\n    }\n\n    function successful() public view returns (bool) {\n        return false;\n    }\n\n    function finished() public view returns (bool) {\n        return false;\n    }\n\n    function purchasable(address _purchaser, uint256 _weiAmount) public view returns (bool) {\n        return whitelisted[_purchaser];\n    }\n\n    function tokenRate(address _purchaser, uint256 _weiAmount) public view returns (uint256) {\n        return 0;\n    }\n\n    function supplyTokens(address _purchaser, uint256 _tokenAmount) public returns (bool) {\n        return false;\n    }\n\n    function receivesTokens(address _purchaser, uint256 _tokenAmount) public returns (bool) {\n        return false;\n    }\n\n    function adminWidgets(string locale) public view returns (string json) {\n        return renderer.adminWidgets(locale, this);\n    }\n\n    function userWidgets(string locale) public view returns (string json) {\n        return renderer.userWidgets(locale, this);\n    }\n\n    function inputs(string locale) public view returns (string json) {\n        return renderer.inputs(locale, this);\n    }\n}\n",
  "sourcePath": "/Users/yoonjae/SolidityProjects/tokenboost-solidity-erc20sale-strategies/contracts/strategy/sale/erc20/whitelist/WhitelistStrategy.sol",
  "compiler": {
    "name": "solc",
    "version": "0.4.24+commit.e67f0147.Emscripten.clang"
  },
  "schemaVersion": "2.0.1",
  "updatedAt": "2018-10-18T06:32:13.050Z"
}